{
    "contractName": "SemDetails",
    "abi": [
        {
            "inputs": [
                {
                    "internalType": "address",
                    "name": "add",
                    "type": "address"
                }
            ],
            "name": "getProfile",
            "outputs": [
                {
                    "internalType": "string",
                    "name": "_name",
                    "type": "string"
                },
                {
                    "internalType": "string",
                    "name": "_email",
                    "type": "string"
                },
                {
                    "internalType": "uint256",
                    "name": "_phone",
                    "type": "uint256"
                }
            ],
            "stateMutability": "view",
            "type": "function"
        },
        {
            "inputs": [
                {
                    "internalType": "address",
                    "name": "addr",
                    "type": "address"
                },
                {
                    "internalType": "string",
                    "name": "name",
                    "type": "string"
                },
                {
                    "internalType": "string",
                    "name": "email",
                    "type": "string"
                },
                {
                    "internalType": "uint256",
                    "name": "phone",
                    "type": "uint256"
                }
            ],
            "name": "setProfile",
            "outputs": [],
            "stateMutability": "nonpayable",
            "type": "function"
        }
    ],
    "bytecode": "608060405234801561001057600080fd5b50610559806100206000396000f3fe608060405234801561001057600080fd5b50600436106100365760003560e01c80630f53a4701461003b5780634499d5a114610066575b600080fd5b61004e610049366004610325565b61007b565b60405161005d93929190610394565b60405180910390f35b61007961007436600461046d565b610206565b005b6001600160a01b03811660009081526020819052604081208054606092839290918291906100a8906104e9565b80601f01602080910402602001604051908101604052809291908181526020018280546100d4906104e9565b80156101215780601f106100f657610100808354040283529160200191610121565b820191906000526020600020905b81548152906001019060200180831161010457829003601f168201915b505050505090506000806000876001600160a01b03166001600160a01b03168152602001908152602001600020600101805461015c906104e9565b80601f0160208091040260200160405190810160405280929190818152602001828054610188906104e9565b80156101d55780601f106101aa576101008083540402835291602001916101d5565b820191906000526020600020905b8154815290600101906020018083116101b857829003601f168201915b505050506001600160a01b039790971660009081526020819052604090206002015492979096509194509092505050565b6040805160608101825284815260208082018590528183018490523360009081528082529290922081518051929391926102439284920190610270565b50602082810151805161025c9260018501920190610270565b506040820151816002015590505050505050565b82805461027c906104e9565b90600052602060002090601f01602090048101928261029e57600085556102e4565b82601f106102b757805160ff19168380011785556102e4565b828001600101855582156102e4579182015b828111156102e45782518255916020019190600101906102c9565b506102f09291506102f4565b5090565b5b808211156102f057600081556001016102f5565b80356001600160a01b038116811461032057600080fd5b919050565b60006020828403121561033757600080fd5b61034082610309565b9392505050565b6000815180845260005b8181101561036d57602081850181015186830182015201610351565b8181111561037f576000602083870101525b50601f01601f19169290920160200192915050565b6060815260006103a76060830186610347565b82810360208401526103b98186610347565b915050826040830152949350505050565b634e487b7160e01b600052604160045260246000fd5b600082601f8301126103f157600080fd5b813567ffffffffffffffff8082111561040c5761040c6103ca565b604051601f8301601f19908116603f01168101908282118183101715610434576104346103ca565b8160405283815286602085880101111561044d57600080fd5b836020870160208301376000602085830101528094505050505092915050565b6000806000806080858703121561048357600080fd5b61048c85610309565b9350602085013567ffffffffffffffff808211156104a957600080fd5b6104b5888389016103e0565b945060408701359150808211156104cb57600080fd5b506104d8878288016103e0565b949793965093946060013593505050565b600181811c908216806104fd57607f821691505b60208210810361051d57634e487b7160e01b600052602260045260246000fd5b5091905056fea2646970667358221220996c3a6bf013f9f4e1945e169684db0f1eb5693697dc17c904100dff39f0903164736f6c634300080d0033",
    "sourcePath": "/Users/sampathbabu/DApp/contracts/SemDetails.sol",
    "compiler": {
        "name": "solc",
        "version": "0.8.13+commit.abaa5c0e"
    },
    "functionHashes": {
        "getProfile(address)": "0f53a470",
        "setProfile(address,string,string,uint256)": "4499d5a1"
    },
    "gasEstimates": {
        "creation": {
            "codeDepositCost": "273800",
            "executionCost": "312",
            "totalCost": "274112"
        },
        "external": {
            "getProfile(address)": "infinite",
            "setProfile(address,string,string,uint256)": "infinite"
        }
    }
}