{
  "contractName": "SemDetails",
  "abi": [
    {
      "constant": false,
      "inputs": [
        {
          "internalType": "uint256",
          "name": "semNumber",
          "type": "uint256"
        },
        {
          "internalType": "uint256",
          "name": "preDecimal",
          "type": "uint256"
        },
        {
          "internalType": "uint256",
          "name": "postDecimal",
          "type": "uint256"
        }
      ],
      "name": "addSpecificSem",
      "outputs": [],
      "payable": false,
      "stateMutability": "nonpayable",
      "type": "function"
    },
    {
      "constant": true,
      "inputs": [],
      "name": "getSemDetails",
      "outputs": [
        {
          "components": [
            {
              "internalType": "uint256",
              "name": "montessa",
              "type": "uint256"
            },
            {
              "internalType": "uint256",
              "name": "decimal",
              "type": "uint256"
            },
            {
              "internalType": "uint256",
              "name": "semNumber",
              "type": "uint256"
            }
          ],
          "internalType": "struct SemDetails.semdetails[]",
          "name": "",
          "type": "tuple[]"
        }
      ],
      "payable": false,
      "stateMutability": "view",
      "type": "function"
    },
    {
      "constant": false,
      "inputs": [
        {
          "internalType": "string",
          "name": "_name",
          "type": "string"
        },
        {
          "internalType": "string",
          "name": "_email",
          "type": "string"
        },
        {
          "internalType": "uint256",
          "name": "_phone",
          "type": "uint256"
        }
      ],
      "name": "setProfile",
      "outputs": [],
      "payable": false,
      "stateMutability": "nonpayable",
      "type": "function"
    },
    {
      "constant": true,
      "inputs": [],
      "name": "getProfile",
      "outputs": [
        {
          "internalType": "string",
          "name": "_name",
          "type": "string"
        },
        {
          "internalType": "string",
          "name": "_email",
          "type": "string"
        },
        {
          "internalType": "uint256",
          "name": "_phone",
          "type": "uint256"
        }
      ],
      "payable": false,
      "stateMutability": "view",
      "type": "function"
    }
  ],
  "bytecode": "0x608060405234801561001057600080fd5b506109d1806100206000396000f3fe608060405234801561001057600080fd5b506004361061004c5760003560e01c80634f7a752914610051578063c713babb1461006f578063d2def1db1461008b578063d6afc9b1146100a7575b600080fd5b6100596100c7565b6040516100669190610805565b60405180910390f35b610089600480360361008491908101906106a7565b610181565b005b6100a560048036036100a09190810190610628565b610238565b005b6100af6102de565b6040516100be93929190610827565b60405180910390f35b6060600360003373ffffffffffffffffffffffffffffffffffffffff1673ffffffffffffffffffffffffffffffffffffffff168152602001908152602001600020805480602002602001604051908101604052809291908181526020016000905b828210156101785783829060005260206000209060030201604051806060016040529081600082015481526020016001820154815260200160028201548152505081526020019060010190610128565b50505050905090565b6101896104f9565b6040518060600160405280848152602001838152602001858152509050600360003373ffffffffffffffffffffffffffffffffffffffff1673ffffffffffffffffffffffffffffffffffffffff168152602001908152602001600020819080600181540180825580915050906001820390600052602060002090600302016000909192909190915060008201518160000155602082015181600101556040820151816002015550505050505050565b604051806060016040528084815260200183815260200182815250600460003373ffffffffffffffffffffffffffffffffffffffff1673ffffffffffffffffffffffffffffffffffffffff16815260200190815260200160002060008201518160000190805190602001906102ae92919061051a565b5060208201518160010190805190602001906102cb92919061051a565b5060408201518160020155905050505050565b60608060006060600460003373ffffffffffffffffffffffffffffffffffffffff1673ffffffffffffffffffffffffffffffffffffffff1681526020019081526020016000206000018054600181600116156101000203166002900480601f0160208091040260200160405190810160405280929190818152602001828054600181600116156101000203166002900480156103bb5780601f10610390576101008083540402835291602001916103bb565b820191906000526020600020905b81548152906001019060200180831161039e57829003601f168201915b505050505090506060600460003373ffffffffffffffffffffffffffffffffffffffff1673ffffffffffffffffffffffffffffffffffffffff1681526020019081526020016000206001018054600181600116156101000203166002900480601f01602080910402602001604051908101604052809291908181526020018280546001816001161561010002031660029004801561049a5780601f1061046f5761010080835404028352916020019161049a565b820191906000526020600020905b81548152906001019060200180831161047d57829003601f168201915b505050505090506000600460003373ffffffffffffffffffffffffffffffffffffffff1673ffffffffffffffffffffffffffffffffffffffff168152602001908152602001600020600201549050828282955095509550505050909192565b60405180606001604052806000815260200160008152602001600081525090565b828054600181600116156101000203166002900490600052602060002090601f016020900481019282601f1061055b57805160ff1916838001178555610589565b82800160010185558215610589579182015b8281111561058857825182559160200191906001019061056d565b5b509050610596919061059a565b5090565b6105bc91905b808211156105b85760008160009055506001016105a0565b5090565b90565b600082601f8301126105d057600080fd5b81356105e36105de82610899565b61086c565b915080825260208301602083018583830111156105ff57600080fd5b61060a838284610924565b50505092915050565b60008135905061062281610977565b92915050565b60008060006060848603121561063d57600080fd5b600084013567ffffffffffffffff81111561065757600080fd5b610663868287016105bf565b935050602084013567ffffffffffffffff81111561068057600080fd5b61068c868287016105bf565b925050604061069d86828701610613565b9150509250925092565b6000806000606084860312156106bc57600080fd5b60006106ca86828701610613565b93505060206106db86828701610613565b92505060406106ec86828701610613565b9150509250925092565b600061070283836107a5565b60608301905092915050565b6000610719826108d5565b61072381856108f8565b935061072e836108c5565b8060005b8381101561075f57815161074688826106f6565b9750610751836108eb565b925050600181019050610732565b5085935050505092915050565b6000610777826108e0565b6107818185610909565b9350610791818560208601610933565b61079a81610966565b840191505092915050565b6060820160008201516107bb60008501826107e7565b5060208201516107ce60208501826107e7565b5060408201516107e160408501826107e7565b50505050565b6107f08161091a565b82525050565b6107ff8161091a565b82525050565b6000602082019050818103600083015261081f818461070e565b905092915050565b60006060820190508181036000830152610841818661076c565b90508181036020830152610855818561076c565b905061086460408301846107f6565b949350505050565b6000604051905081810181811067ffffffffffffffff8211171561088f57600080fd5b8060405250919050565b600067ffffffffffffffff8211156108b057600080fd5b601f19601f8301169050602081019050919050565b6000819050602082019050919050565b600081519050919050565b600081519050919050565b6000602082019050919050565b600082825260208201905092915050565b600082825260208201905092915050565b6000819050919050565b82818337600083830152505050565b60005b83811015610951578082015181840152602081019050610936565b83811115610960576000848401525b50505050565b6000601f19601f8301169050919050565b6109808161091a565b811461098b57600080fd5b5056fea365627a7a72315820dce6ef09ec459495a431434fe44cc6af62b5e01e8eda2dbe27072c1a88ad959d6c6578706572696d656e74616cf564736f6c63430005100040",
  "source": "// SPDX-License-Identifier: MIT\npragma solidity >=0.4.0 <0.9.0;\npragma experimental ABIEncoderV2;\n\n\ncontract SemDetails{\n  struct  profile{\n    string name;\n    string email;\n    uint256 phone;\n  }\n\n  profile  s;\n  mapping(address=>semdetails[]) userData;\n  mapping(address=>profile) mappedData;\n\n  function addSpecificSem(uint256 semNumber,uint256 preDecimal,uint256 postDecimal) public{\n    semdetails memory sem=semdetails(preDecimal,postDecimal,semNumber);\n    userData[msg.sender].push(sem);\n  }\n  struct semdetails{\n    uint256 montessa;\n    uint256 decimal;\n    uint256 semNumber;\n  }\n  function getSemDetails() public view returns(semdetails[] memory){\n    return userData[msg.sender];\n  }\n     \n  function setProfile(string memory _name,string memory _email,uint256 _phone) public {\n    mappedData[msg.sender]=profile(_name,_email,_phone);\n    \n  }\n  function getProfile() public view returns(string memory _name,string memory _email,uint256 _phone){\n    string memory name=mappedData[msg.sender].name;\n    string memory email=mappedData[msg.sender].email;\n    uint256 phone =mappedData[msg.sender].phone;\n    return(name,email,phone);\n     }\n}",
  "sourcePath": "/Users/sampathbabu/DApp/contracts/SemDetails.sol",
  "compiler": {
    "name": "solc",
    "version": "0.5.16+commit.9c3226ce.Emscripten.clang"
  },
  "schemaVersion": "3.4.6",
  "updatedAt": "2022-03-31T01:34:13.325Z",
  "devdoc": {
    "methods": {}
  },
  "userdoc": {
    "methods": {}
  }
}