{
  "contractName": "SemDetails",
  "abi": [
    {
      "constant": true,
      "inputs": [],
      "name": "getProfile",
      "outputs": [
        {
          "components": [
            {
              "internalType": "string",
              "name": "name",
              "type": "string"
            },
            {
              "internalType": "string",
              "name": "email",
              "type": "string"
            },
            {
              "internalType": "string",
              "name": "rollNo",
              "type": "string"
            },
            {
              "internalType": "uint256",
              "name": "phone",
              "type": "uint256"
            },
            {
              "internalType": "string",
              "name": "addrss",
              "type": "string"
            },
            {
              "internalType": "uint256",
              "name": "aadharNumber",
              "type": "uint256"
            },
            {
              "internalType": "string",
              "name": "bloodgrp",
              "type": "string"
            }
          ],
          "internalType": "struct SemDetails.Profile",
          "name": "",
          "type": "tuple"
        },
        {
          "components": [
            {
              "internalType": "string",
              "name": "fatherName",
              "type": "string"
            },
            {
              "internalType": "string",
              "name": "motherName",
              "type": "string"
            }
          ],
          "internalType": "struct SemDetails.Relation",
          "name": "",
          "type": "tuple"
        },
        {
          "components": [
            {
              "internalType": "string",
              "name": "country",
              "type": "string"
            },
            {
              "internalType": "string",
              "name": "state",
              "type": "string"
            },
            {
              "internalType": "uint256",
              "name": "pincode",
              "type": "uint256"
            },
            {
              "internalType": "string",
              "name": "city",
              "type": "string"
            }
          ],
          "internalType": "struct SemDetails.Address",
          "name": "",
          "type": "tuple"
        }
      ],
      "payable": false,
      "stateMutability": "view",
      "type": "function"
    },
    {
      "constant": false,
      "inputs": [
        {
          "components": [
            {
              "internalType": "string",
              "name": "name",
              "type": "string"
            },
            {
              "internalType": "string",
              "name": "email",
              "type": "string"
            },
            {
              "internalType": "string",
              "name": "rollNo",
              "type": "string"
            },
            {
              "internalType": "uint256",
              "name": "phone",
              "type": "uint256"
            },
            {
              "internalType": "string",
              "name": "addrss",
              "type": "string"
            },
            {
              "internalType": "uint256",
              "name": "aadharNumber",
              "type": "uint256"
            },
            {
              "internalType": "string",
              "name": "bloodgrp",
              "type": "string"
            }
          ],
          "internalType": "struct SemDetails.Profile",
          "name": "t3",
          "type": "tuple"
        },
        {
          "components": [
            {
              "internalType": "string",
              "name": "fatherName",
              "type": "string"
            },
            {
              "internalType": "string",
              "name": "motherName",
              "type": "string"
            }
          ],
          "internalType": "struct SemDetails.Relation",
          "name": "t1",
          "type": "tuple"
        },
        {
          "components": [
            {
              "internalType": "string",
              "name": "country",
              "type": "string"
            },
            {
              "internalType": "string",
              "name": "state",
              "type": "string"
            },
            {
              "internalType": "uint256",
              "name": "pincode",
              "type": "uint256"
            },
            {
              "internalType": "string",
              "name": "city",
              "type": "string"
            }
          ],
          "internalType": "struct SemDetails.Address",
          "name": "t2",
          "type": "tuple"
        }
      ],
      "name": "setProfile",
      "outputs": [],
      "payable": false,
      "stateMutability": "nonpayable",
      "type": "function"
    }
  ],
  "bytecode": "0x608060405234801561001057600080fd5b506111cb806100206000396000f3fe608060405234801561001057600080fd5b50600436106100365760003560e01c8063d6afc9b11461003b578063e758fdb21461005b575b600080fd5b610043610077565b60405161005293929190611053565b60405180910390f35b61007560048036036100709190810190610e07565b61080d565b005b61007f610a1a565b610087610a57565b61008f610a71565b610097610a1a565b6000803373ffffffffffffffffffffffffffffffffffffffff1673ffffffffffffffffffffffffffffffffffffffff1681526020019081526020016000206040518060e0016040529081600082018054600181600116156101000203166002900480601f0160208091040260200160405190810160405280929190818152602001828054600181600116156101000203166002900480156101795780601f1061014e57610100808354040283529160200191610179565b820191906000526020600020905b81548152906001019060200180831161015c57829003601f168201915b50505050508152602001600182018054600181600116156101000203166002900480601f01602080910402602001604051908101604052809291908181526020018280546001816001161561010002031660029004801561021b5780601f106101f05761010080835404028352916020019161021b565b820191906000526020600020905b8154815290600101906020018083116101fe57829003601f168201915b50505050508152602001600282018054600181600116156101000203166002900480601f0160208091040260200160405190810160405280929190818152602001828054600181600116156101000203166002900480156102bd5780601f10610292576101008083540402835291602001916102bd565b820191906000526020600020905b8154815290600101906020018083116102a057829003601f168201915b5050505050815260200160038201548152602001600482018054600181600116156101000203166002900480601f0160208091040260200160405190810160405280929190818152602001828054600181600116156101000203166002900480156103695780601f1061033e57610100808354040283529160200191610369565b820191906000526020600020905b81548152906001019060200180831161034c57829003601f168201915b5050505050815260200160058201548152602001600682018054600181600116156101000203166002900480601f0160208091040260200160405190810160405280929190818152602001828054600181600116156101000203166002900480156104155780601f106103ea57610100808354040283529160200191610415565b820191906000526020600020905b8154815290600101906020018083116103f857829003601f168201915b5050505050815250509050610428610a71565b600160003373ffffffffffffffffffffffffffffffffffffffff1673ffffffffffffffffffffffffffffffffffffffff168152602001908152602001600020604051806080016040529081600082018054600181600116156101000203166002900480601f01602080910402602001604051908101604052809291908181526020018280546001816001161561010002031660029004801561050b5780601f106104e05761010080835404028352916020019161050b565b820191906000526020600020905b8154815290600101906020018083116104ee57829003601f168201915b50505050508152602001600182018054600181600116156101000203166002900480601f0160208091040260200160405190810160405280929190818152602001828054600181600116156101000203166002900480156105ad5780601f10610582576101008083540402835291602001916105ad565b820191906000526020600020905b81548152906001019060200180831161059057829003601f168201915b5050505050815260200160028201548152602001600382018054600181600116156101000203166002900480601f0160208091040260200160405190810160405280929190818152602001828054600181600116156101000203166002900480156106595780601f1061062e57610100808354040283529160200191610659565b820191906000526020600020905b81548152906001019060200180831161063c57829003601f168201915b505050505081525050905061066c610a57565b600260003373ffffffffffffffffffffffffffffffffffffffff1673ffffffffffffffffffffffffffffffffffffffff168152602001908152602001600020604051806040016040529081600082018054600181600116156101000203166002900480601f01602080910402602001604051908101604052809291908181526020018280546001816001161561010002031660029004801561074f5780601f106107245761010080835404028352916020019161074f565b820191906000526020600020905b81548152906001019060200180831161073257829003601f168201915b50505050508152602001600182018054600181600116156101000203166002900480601f0160208091040260200160405190810160405280929190818152602001828054600181600116156101000203166002900480156107f15780601f106107c6576101008083540402835291602001916107f1565b820191906000526020600020905b8154815290600101906020018083116107d457829003601f168201915b5050505050815250509050828183955095509550505050909192565b81600260003373ffffffffffffffffffffffffffffffffffffffff1673ffffffffffffffffffffffffffffffffffffffff1681526020019081526020016000206000820151816000019080519060200190610869929190610a99565b506020820151816001019080519060200190610886929190610a99565b5090505080600160003373ffffffffffffffffffffffffffffffffffffffff1673ffffffffffffffffffffffffffffffffffffffff16815260200190815260200160002060008201518160000190805190602001906108e6929190610a99565b506020820151816001019080519060200190610903929190610a99565b5060408201518160020155606082015181600301908051906020019061092a929190610a99565b50905050826000803373ffffffffffffffffffffffffffffffffffffffff1673ffffffffffffffffffffffffffffffffffffffff1681526020019081526020016000206000820151816000019080519060200190610989929190610a99565b5060208201518160010190805190602001906109a6929190610a99565b5060408201518160020190805190602001906109c3929190610a99565b506060820151816003015560808201518160040190805190602001906109ea929190610a99565b5060a0820151816005015560c0820151816006019080519060200190610a11929190610a99565b50905050505050565b6040518060e00160405280606081526020016060815260200160608152602001600081526020016060815260200160008152602001606081525090565b604051806040016040528060608152602001606081525090565b6040518060800160405280606081526020016060815260200160008152602001606081525090565b828054600181600116156101000203166002900490600052602060002090601f016020900481019282601f10610ada57805160ff1916838001178555610b08565b82800160010185558215610b08579182015b82811115610b07578251825591602001919060010190610aec565b5b509050610b159190610b19565b5090565b610b3b91905b80821115610b37576000816000905550600101610b1f565b5090565b90565b600082601f830112610b4f57600080fd5b8135610b62610b5d826110cc565b61109f565b91508082526020830160208301858383011115610b7e57600080fd5b610b8983828461111e565b50505092915050565b600060808284031215610ba457600080fd5b610bae608061109f565b9050600082013567ffffffffffffffff811115610bca57600080fd5b610bd684828501610b3e565b600083015250602082013567ffffffffffffffff811115610bf657600080fd5b610c0284828501610b3e565b6020830152506040610c1684828501610df2565b604083015250606082013567ffffffffffffffff811115610c3657600080fd5b610c4284828501610b3e565b60608301525092915050565b600060e08284031215610c6057600080fd5b610c6a60e061109f565b9050600082013567ffffffffffffffff811115610c8657600080fd5b610c9284828501610b3e565b600083015250602082013567ffffffffffffffff811115610cb257600080fd5b610cbe84828501610b3e565b602083015250604082013567ffffffffffffffff811115610cde57600080fd5b610cea84828501610b3e565b6040830152506060610cfe84828501610df2565b606083015250608082013567ffffffffffffffff811115610d1e57600080fd5b610d2a84828501610b3e565b60808301525060a0610d3e84828501610df2565b60a08301525060c082013567ffffffffffffffff811115610d5e57600080fd5b610d6a84828501610b3e565b60c08301525092915050565b600060408284031215610d8857600080fd5b610d92604061109f565b9050600082013567ffffffffffffffff811115610dae57600080fd5b610dba84828501610b3e565b600083015250602082013567ffffffffffffffff811115610dda57600080fd5b610de684828501610b3e565b60208301525092915050565b600081359050610e0181611171565b92915050565b600080600060608486031215610e1c57600080fd5b600084013567ffffffffffffffff811115610e3657600080fd5b610e4286828701610c4e565b935050602084013567ffffffffffffffff811115610e5f57600080fd5b610e6b86828701610d76565b925050604084013567ffffffffffffffff811115610e8857600080fd5b610e9486828701610b92565b9150509250925092565b6000610ea9826110f8565b610eb38185611103565b9350610ec381856020860161112d565b610ecc81611160565b840191505092915050565b60006080830160008301518482036000860152610ef48282610e9e565b91505060208301518482036020860152610f0e8282610e9e565b9150506040830151610f236040860182611044565b5060608301518482036060860152610f3b8282610e9e565b9150508091505092915050565b600060e0830160008301518482036000860152610f658282610e9e565b91505060208301518482036020860152610f7f8282610e9e565b91505060408301518482036040860152610f998282610e9e565b9150506060830151610fae6060860182611044565b5060808301518482036080860152610fc68282610e9e565b91505060a0830151610fdb60a0860182611044565b5060c083015184820360c0860152610ff38282610e9e565b9150508091505092915050565b6000604083016000830151848203600086015261101d8282610e9e565b915050602083015184820360208601526110378282610e9e565b9150508091505092915050565b61104d81611114565b82525050565b6000606082019050818103600083015261106d8186610f48565b905081810360208301526110818185611000565b905081810360408301526110958184610ed7565b9050949350505050565b6000604051905081810181811067ffffffffffffffff821117156110c257600080fd5b8060405250919050565b600067ffffffffffffffff8211156110e357600080fd5b601f19601f8301169050602081019050919050565b600081519050919050565b600082825260208201905092915050565b6000819050919050565b82818337600083830152505050565b60005b8381101561114b578082015181840152602081019050611130565b8381111561115a576000848401525b50505050565b6000601f19601f8301169050919050565b61117a81611114565b811461118557600080fd5b5056fea365627a7a72315820d6d42233d926919ece993ca224d6f0802cc769677e47e915102c8941c2c11a086c6578706572696d656e74616cf564736f6c63430005100040",
  "source": "// SPDX-License-Identifier: MIT\npragma solidity >=0.4.0 <0.9.0;\npragma experimental ABIEncoderV2;\ncontract SemDetails{\n  struct  Profile{\n    string name;\n    string email;\n    string rollNo;\n    uint256 phone;\n    string addrss;\n    uint256 aadharNumber;\n    string bloodgrp;\n  }\n  struct Address{\n    string country;\n    string state;\n    uint256 pincode;\n    string city;\n  }\n  struct Relation{\n    string fatherName;\n    string motherName;\n  }\n\n  mapping(address=>Profile) ProfileDetails;\n  mapping(address=>Address) AddressDetails;\n  mapping(address=>Relation) RelationDetails;\n\n  function getProfile()public view returns(Profile memory, Relation memory, Address memory){\n    Profile memory temp=ProfileDetails[msg.sender];\n    Address memory temp1=AddressDetails[msg.sender];\n    Relation memory temp2=RelationDetails[msg.sender];\n    return(\n     temp,temp2,temp1\n    );\n  }\n\n  function setProfile(Profile memory t3,Relation memory t1,Address memory t2) public{\n    RelationDetails[msg.sender]=t1;\n    AddressDetails[msg.sender]=t2;\n    ProfileDetails[msg.sender]=t3;\n  }\n\n\n  // function setProfile(string memory _name,string memory _email,uint256 _rollNo,uint256 _phone,string memory _addrss, string memory _fatherName, string memory _motherName,uint256 _aadharNumber, string memory _country,string memory _state,string memory _city,uint256 _pincode,string memory _bloodgrp) public {\n  //   ProfileDetails[msg.sender]=Profile({name:_name,email:_email,rollNo:_rollNo,phone:_phone,addrss:_addrss,aadharNumber:_aadharNumber,bloodgrp:_bloodgrp});\n  //   AddressDetails[msg.sender]=Address({country:_country,state:_state,city:_city,pincode:_pincode});\n  //   RelationDetails[msg.sender]=Relation({fatherName:_fatherName,motherName:_motherName});\n  // }\n\n\n  // string memory,string memory,uint256,uint256,string memory,string memory, string memory,uint256,string memory,string memory,string memory,uint256,string memory\n//   function getProfile() \n//   string[] sem1=[\"MATHEMATICS-1\",\"PHYSICS\",\"\"];\n//   mapping(address=>Subject[]) userData;\n//   mapping(address=>profile) mappedData;\n\n//   function addSpecificSem(uint256 semNumber,uint256 preDecimal,uint256 postDecimal) public{\n//     // semdetails memory sem=semdetails(preDecimal,postDecimal,semNumber);\n//     // userData[msg.sender].push(sem);\n//   }\n  // struct Sem1{\n  //     mapping(string=>uint256) subjects;\n  // }\n  // Sem1 s;\n\n  //  temp.name,\n  //     temp.email,\n  //     temp.rollNo,\n  //     temp.phone,\n  //     temp.addrss,\n  //     temp2.fatherName,\n  //     temp2.motherName,\n  //     temp.aadharNumber,\n  //     temp1.country,\n  //     temp1.state,\n  //     temp1.city,\n  //     temp1.pincode,\n  //     temp.bloodgrp\n\n//   s.subjects[\"Mathematics\"]\n\n//   struct Subject{\n//     string name;\n//     string subjectCode;\n//     uint256 grade;\n//   }\n\n\n// struct semester1{\n//     uint256 M1;\n//     uint256 PHYSICS;\n//     uint256 BASIC_ELECTRICAL_ENGINEERING;\n// }\n\n\n\n// mapping(uint256=>Subject[]) Semester;\n// string[] sem1=[\"MATHEMATICS-1\",\"PHYSICS\",\"BASIC ELECTRICAL ENGINEERING\",\"PHYSICS LAB\",\"BASIC ELECTRICAL ENGINEERING LAB\",\"ENGINEERING GRAPHICS & DESIGN\"];\n// string[] sem2=[\"ENGLISH\",\"MATHEMATICS-2\",\"CHEMISTRY\",\"PROGRAMMING FOR PROBLEM SOLVING\",\"ENGLISH LAB\",\"CHEMISTRY LAB\",\"PROGRAMMING FOR PROBLEM SOLVING LAB\",\"WORKSHOP-MANUFACTURE PROCESS LAB\"];\n\n// function setSemester(string subjname,string subcode,uint256 grade,uint256 semNumber) public {\n//     Subject memory temp=Subject(subjname,subcode,grade);\n//     Semester[semNumber].push(temp);\n// }\n\n// function setAllSemester(string[] subsname, string[] subscode, uint256[] grades,uint256 semNumber)public{\n//     for(uint256 i=0;i<subsname.length;i+=1){\n//         setSemester(subsname[i],subscode[i],grades[i],semNumber);\n//     }\n// }\n\n// function getSemester(uint256 semNumber) public view returns(Subject[]){\n//     return Semester[semNumber];\n// }\n\n\n\n\n\n//   struct Semester{\n//     Subject[] sub;\n//   }\n\n//   mapping(uint256=>Subject[]) Semester;\n//   mapping(uint256=>Subject) SubjectsInSemester;\n//   Subject  subj=Subject(\"A\",\"PC\",1);\n//   Semester[0].push(subj)\n  // function setProfile(string memory _name,string memory _email,uint256 _phone) public {\n  //   mappedData[msg.sender]=profile(_name,_email,_phone);\n\n  // }\n  // function getProfile() public view returns(string memory _name,string memory _email,uint256 _phone){\n  //   string memory name=mappedData[msg.sender].name;\n  //   string memory email=mappedData[msg.sender].email;\n  //   uint256 phone =mappedData[msg.sender].phone;\n  //   return(name,email,phone);\n  //    }\n}\n\n\n",
  "sourcePath": "/home/saikk/Documents/MajorProject/DApp/DApp/contracts/SemDetails.sol",
  "compiler": {
    "name": "solc",
    "version": "0.5.16+commit.9c3226ce.Emscripten.clang"
  },
  "schemaVersion": "3.4.6",
  "updatedAt": "2022-05-14T08:13:42.501Z",
  "networkType": "ethereum",
  "devdoc": {
    "methods": {}
  },
  "userdoc": {
    "methods": {}
  }
}