{
  "contractName": "SemDetails",
  "abi": [
    {
      "constant": true,
      "inputs": [],
      "name": "getProfile",
      "outputs": [
        {
          "components": [
            {
              "internalType": "string",
              "name": "name",
              "type": "string"
            },
            {
              "internalType": "string",
              "name": "email",
              "type": "string"
            },
            {
              "internalType": "uint256",
              "name": "rollNo",
              "type": "uint256"
            },
            {
              "internalType": "uint256",
              "name": "phone",
              "type": "uint256"
            },
            {
              "internalType": "string",
              "name": "addrss",
              "type": "string"
            },
            {
              "internalType": "uint256",
              "name": "aadharNumber",
              "type": "uint256"
            },
            {
              "internalType": "string",
              "name": "bloodgrp",
              "type": "string"
            }
          ],
          "internalType": "struct SemDetails.Profile",
          "name": "",
          "type": "tuple"
        },
        {
          "components": [
            {
              "internalType": "string",
              "name": "fatherName",
              "type": "string"
            },
            {
              "internalType": "string",
              "name": "motherName",
              "type": "string"
            }
          ],
          "internalType": "struct SemDetails.Relation",
          "name": "",
          "type": "tuple"
        },
        {
          "components": [
            {
              "internalType": "string",
              "name": "country",
              "type": "string"
            },
            {
              "internalType": "string",
              "name": "state",
              "type": "string"
            },
            {
              "internalType": "uint256",
              "name": "pincode",
              "type": "uint256"
            },
            {
              "internalType": "string",
              "name": "city",
              "type": "string"
            }
          ],
          "internalType": "struct SemDetails.Address",
          "name": "",
          "type": "tuple"
        }
      ],
      "payable": false,
      "stateMutability": "view",
      "type": "function"
    },
    {
      "constant": false,
      "inputs": [
        {
          "components": [
            {
              "internalType": "string",
              "name": "name",
              "type": "string"
            },
            {
              "internalType": "string",
              "name": "email",
              "type": "string"
            },
            {
              "internalType": "uint256",
              "name": "rollNo",
              "type": "uint256"
            },
            {
              "internalType": "uint256",
              "name": "phone",
              "type": "uint256"
            },
            {
              "internalType": "string",
              "name": "addrss",
              "type": "string"
            },
            {
              "internalType": "uint256",
              "name": "aadharNumber",
              "type": "uint256"
            },
            {
              "internalType": "string",
              "name": "bloodgrp",
              "type": "string"
            }
          ],
          "internalType": "struct SemDetails.Profile",
          "name": "t3",
          "type": "tuple"
        },
        {
          "components": [
            {
              "internalType": "string",
              "name": "fatherName",
              "type": "string"
            },
            {
              "internalType": "string",
              "name": "motherName",
              "type": "string"
            }
          ],
          "internalType": "struct SemDetails.Relation",
          "name": "t1",
          "type": "tuple"
        },
        {
          "components": [
            {
              "internalType": "string",
              "name": "country",
              "type": "string"
            },
            {
              "internalType": "string",
              "name": "state",
              "type": "string"
            },
            {
              "internalType": "uint256",
              "name": "pincode",
              "type": "uint256"
            },
            {
              "internalType": "string",
              "name": "city",
              "type": "string"
            }
          ],
          "internalType": "struct SemDetails.Address",
          "name": "t2",
          "type": "tuple"
        }
      ],
      "name": "setProfile",
      "outputs": [],
      "payable": false,
      "stateMutability": "nonpayable",
      "type": "function"
    }
  ],
  "bytecode": "0x608060405234801561001057600080fd5b50611101806100206000396000f3fe608060405234801561001057600080fd5b50600436106100365760003560e01c8063c8284e581461003b578063d6afc9b114610057575b600080fd5b61005560048036036100509190810190610d44565b610077565b005b61005f610271565b60405161006e93929190610f89565b60405180910390f35b81600260003373ffffffffffffffffffffffffffffffffffffffff1673ffffffffffffffffffffffffffffffffffffffff16815260200190815260200160002060008201518160000190805190602001906100d392919061096f565b5060208201518160010190805190602001906100f092919061096f565b5090505080600160003373ffffffffffffffffffffffffffffffffffffffff1673ffffffffffffffffffffffffffffffffffffffff168152602001908152602001600020600082015181600001908051906020019061015092919061096f565b50602082015181600101908051906020019061016d92919061096f565b5060408201518160020155606082015181600301908051906020019061019492919061096f565b50905050826000803373ffffffffffffffffffffffffffffffffffffffff1673ffffffffffffffffffffffffffffffffffffffff16815260200190815260200160002060008201518160000190805190602001906101f392919061096f565b50602082015181600101908051906020019061021092919061096f565b506040820151816002015560608201518160030155608082015181600401908051906020019061024192919061096f565b5060a0820151816005015560c082015181600601908051906020019061026892919061096f565b50905050505050565b6102796109ef565b610281610a2c565b610289610a46565b6102916109ef565b6000803373ffffffffffffffffffffffffffffffffffffffff1673ffffffffffffffffffffffffffffffffffffffff1681526020019081526020016000206040518060e0016040529081600082018054600181600116156101000203166002900480601f0160208091040260200160405190810160405280929190818152602001828054600181600116156101000203166002900480156103735780601f1061034857610100808354040283529160200191610373565b820191906000526020600020905b81548152906001019060200180831161035657829003601f168201915b50505050508152602001600182018054600181600116156101000203166002900480601f0160208091040260200160405190810160405280929190818152602001828054600181600116156101000203166002900480156104155780601f106103ea57610100808354040283529160200191610415565b820191906000526020600020905b8154815290600101906020018083116103f857829003601f168201915b505050505081526020016002820154815260200160038201548152602001600482018054600181600116156101000203166002900480601f0160208091040260200160405190810160405280929190818152602001828054600181600116156101000203166002900480156104cb5780601f106104a0576101008083540402835291602001916104cb565b820191906000526020600020905b8154815290600101906020018083116104ae57829003601f168201915b5050505050815260200160058201548152602001600682018054600181600116156101000203166002900480601f0160208091040260200160405190810160405280929190818152602001828054600181600116156101000203166002900480156105775780601f1061054c57610100808354040283529160200191610577565b820191906000526020600020905b81548152906001019060200180831161055a57829003601f168201915b505050505081525050905061058a610a46565b600160003373ffffffffffffffffffffffffffffffffffffffff1673ffffffffffffffffffffffffffffffffffffffff168152602001908152602001600020604051806080016040529081600082018054600181600116156101000203166002900480601f01602080910402602001604051908101604052809291908181526020018280546001816001161561010002031660029004801561066d5780601f106106425761010080835404028352916020019161066d565b820191906000526020600020905b81548152906001019060200180831161065057829003601f168201915b50505050508152602001600182018054600181600116156101000203166002900480601f01602080910402602001604051908101604052809291908181526020018280546001816001161561010002031660029004801561070f5780601f106106e45761010080835404028352916020019161070f565b820191906000526020600020905b8154815290600101906020018083116106f257829003601f168201915b5050505050815260200160028201548152602001600382018054600181600116156101000203166002900480601f0160208091040260200160405190810160405280929190818152602001828054600181600116156101000203166002900480156107bb5780601f10610790576101008083540402835291602001916107bb565b820191906000526020600020905b81548152906001019060200180831161079e57829003601f168201915b50505050508152505090506107ce610a2c565b600260003373ffffffffffffffffffffffffffffffffffffffff1673ffffffffffffffffffffffffffffffffffffffff168152602001908152602001600020604051806040016040529081600082018054600181600116156101000203166002900480601f0160208091040260200160405190810160405280929190818152602001828054600181600116156101000203166002900480156108b15780601f10610886576101008083540402835291602001916108b1565b820191906000526020600020905b81548152906001019060200180831161089457829003601f168201915b50505050508152602001600182018054600181600116156101000203166002900480601f0160208091040260200160405190810160405280929190818152602001828054600181600116156101000203166002900480156109535780601f1061092857610100808354040283529160200191610953565b820191906000526020600020905b81548152906001019060200180831161093657829003601f168201915b5050505050815250509050828183955095509550505050909192565b828054600181600116156101000203166002900490600052602060002090601f016020900481019282601f106109b057805160ff19168380011785556109de565b828001600101855582156109de579182015b828111156109dd5782518255916020019190600101906109c2565b5b5090506109eb9190610a6e565b5090565b6040518060e00160405280606081526020016060815260200160008152602001600081526020016060815260200160008152602001606081525090565b604051806040016040528060608152602001606081525090565b6040518060800160405280606081526020016060815260200160008152602001606081525090565b610a9091905b80821115610a8c576000816000905550600101610a74565b5090565b90565b600082601f830112610aa457600080fd5b8135610ab7610ab282611002565b610fd5565b91508082526020830160208301858383011115610ad357600080fd5b610ade838284611054565b50505092915050565b600060808284031215610af957600080fd5b610b036080610fd5565b9050600082013567ffffffffffffffff811115610b1f57600080fd5b610b2b84828501610a93565b600083015250602082013567ffffffffffffffff811115610b4b57600080fd5b610b5784828501610a93565b6020830152506040610b6b84828501610d2f565b604083015250606082013567ffffffffffffffff811115610b8b57600080fd5b610b9784828501610a93565b60608301525092915050565b600060e08284031215610bb557600080fd5b610bbf60e0610fd5565b9050600082013567ffffffffffffffff811115610bdb57600080fd5b610be784828501610a93565b600083015250602082013567ffffffffffffffff811115610c0757600080fd5b610c1384828501610a93565b6020830152506040610c2784828501610d2f565b6040830152506060610c3b84828501610d2f565b606083015250608082013567ffffffffffffffff811115610c5b57600080fd5b610c6784828501610a93565b60808301525060a0610c7b84828501610d2f565b60a08301525060c082013567ffffffffffffffff811115610c9b57600080fd5b610ca784828501610a93565b60c08301525092915050565b600060408284031215610cc557600080fd5b610ccf6040610fd5565b9050600082013567ffffffffffffffff811115610ceb57600080fd5b610cf784828501610a93565b600083015250602082013567ffffffffffffffff811115610d1757600080fd5b610d2384828501610a93565b60208301525092915050565b600081359050610d3e816110a7565b92915050565b600080600060608486031215610d5957600080fd5b600084013567ffffffffffffffff811115610d7357600080fd5b610d7f86828701610ba3565b935050602084013567ffffffffffffffff811115610d9c57600080fd5b610da886828701610cb3565b925050604084013567ffffffffffffffff811115610dc557600080fd5b610dd186828701610ae7565b9150509250925092565b6000610de68261102e565b610df08185611039565b9350610e00818560208601611063565b610e0981611096565b840191505092915050565b60006080830160008301518482036000860152610e318282610ddb565b91505060208301518482036020860152610e4b8282610ddb565b9150506040830151610e606040860182610f7a565b5060608301518482036060860152610e788282610ddb565b9150508091505092915050565b600060e0830160008301518482036000860152610ea28282610ddb565b91505060208301518482036020860152610ebc8282610ddb565b9150506040830151610ed16040860182610f7a565b506060830151610ee46060860182610f7a565b5060808301518482036080860152610efc8282610ddb565b91505060a0830151610f1160a0860182610f7a565b5060c083015184820360c0860152610f298282610ddb565b9150508091505092915050565b60006040830160008301518482036000860152610f538282610ddb565b91505060208301518482036020860152610f6d8282610ddb565b9150508091505092915050565b610f838161104a565b82525050565b60006060820190508181036000830152610fa38186610e85565b90508181036020830152610fb78185610f36565b90508181036040830152610fcb8184610e14565b9050949350505050565b6000604051905081810181811067ffffffffffffffff82111715610ff857600080fd5b8060405250919050565b600067ffffffffffffffff82111561101957600080fd5b601f19601f8301169050602081019050919050565b600081519050919050565b600082825260208201905092915050565b6000819050919050565b82818337600083830152505050565b60005b83811015611081578082015181840152602081019050611066565b83811115611090576000848401525b50505050565b6000601f19601f8301169050919050565b6110b08161104a565b81146110bb57600080fd5b5056fea365627a7a723158200f52e8a9e91397966ac6bdc6ee675f23e5b53f783ef05c2b2dced1415c4da7466c6578706572696d656e74616cf564736f6c63430005100040",
  "source": "// SPDX-License-Identifier: MIT\npragma solidity >=0.4.0 <0.9.0;\npragma experimental ABIEncoderV2;\ncontract SemDetails{\n  struct  Profile{\n    string name;\n    string email;\n    uint256 rollNo;\n    uint256 phone;\n    string addrss;\n    uint256 aadharNumber;\n    string bloodgrp;\n  }\n  struct Address{\n    string country;\n    string state;\n    uint256 pincode;\n    string city;\n  }\n  struct Relation{\n    string fatherName;\n    string motherName;\n  }\n\n  mapping(address=>Profile) ProfileDetails;\n  mapping(address=>Address) AddressDetails;\n  mapping(address=>Relation) RelationDetails;\n\n  function getProfile()public view returns(Profile memory, Relation memory, Address memory){\n    Profile memory temp=ProfileDetails[msg.sender];\n    Address memory temp1=AddressDetails[msg.sender];\n    Relation memory temp2=RelationDetails[msg.sender];\n    return(\n     temp,temp2,temp1\n    );\n  }\n\n  function setProfile(Profile memory t3,Relation memory t1,Address memory t2) public{\n    RelationDetails[msg.sender]=t1;\n    AddressDetails[msg.sender]=t2;\n    ProfileDetails[msg.sender]=t3;\n  }\n\n\n  // function setProfile(string memory _name,string memory _email,uint256 _rollNo,uint256 _phone,string memory _addrss, string memory _fatherName, string memory _motherName,uint256 _aadharNumber, string memory _country,string memory _state,string memory _city,uint256 _pincode,string memory _bloodgrp) public {\n  //   ProfileDetails[msg.sender]=Profile({name:_name,email:_email,rollNo:_rollNo,phone:_phone,addrss:_addrss,aadharNumber:_aadharNumber,bloodgrp:_bloodgrp});\n  //   AddressDetails[msg.sender]=Address({country:_country,state:_state,city:_city,pincode:_pincode});\n  //   RelationDetails[msg.sender]=Relation({fatherName:_fatherName,motherName:_motherName});\n  // }\n\n\n  // string memory,string memory,uint256,uint256,string memory,string memory, string memory,uint256,string memory,string memory,string memory,uint256,string memory\n//   function getProfile() \n//   string[] sem1=[\"MATHEMATICS-1\",\"PHYSICS\",\"\"];\n//   mapping(address=>Subject[]) userData;\n//   mapping(address=>profile) mappedData;\n\n//   function addSpecificSem(uint256 semNumber,uint256 preDecimal,uint256 postDecimal) public{\n//     // semdetails memory sem=semdetails(preDecimal,postDecimal,semNumber);\n//     // userData[msg.sender].push(sem);\n//   }\n  // struct Sem1{\n  //     mapping(string=>uint256) subjects;\n  // }\n  // Sem1 s;\n\n  //  temp.name,\n  //     temp.email,\n  //     temp.rollNo,\n  //     temp.phone,\n  //     temp.addrss,\n  //     temp2.fatherName,\n  //     temp2.motherName,\n  //     temp.aadharNumber,\n  //     temp1.country,\n  //     temp1.state,\n  //     temp1.city,\n  //     temp1.pincode,\n  //     temp.bloodgrp\n\n//   s.subjects[\"Mathematics\"]\n\n//   struct Subject{\n//     string name;\n//     string subjectCode;\n//     uint256 grade;\n//   }\n\n\n// struct semester1{\n//     uint256 M1;\n//     uint256 PHYSICS;\n//     uint256 BASIC_ELECTRICAL_ENGINEERING;\n// }\n\n\n\n// mapping(uint256=>Subject[]) Semester;\n// string[] sem1=[\"MATHEMATICS-1\",\"PHYSICS\",\"BASIC ELECTRICAL ENGINEERING\",\"PHYSICS LAB\",\"BASIC ELECTRICAL ENGINEERING LAB\",\"ENGINEERING GRAPHICS & DESIGN\"];\n// string[] sem2=[\"ENGLISH\",\"MATHEMATICS-2\",\"CHEMISTRY\",\"PROGRAMMING FOR PROBLEM SOLVING\",\"ENGLISH LAB\",\"CHEMISTRY LAB\",\"PROGRAMMING FOR PROBLEM SOLVING LAB\",\"WORKSHOP-MANUFACTURE PROCESS LAB\"];\n\n// function setSemester(string subjname,string subcode,uint256 grade,uint256 semNumber) public {\n//     Subject memory temp=Subject(subjname,subcode,grade);\n//     Semester[semNumber].push(temp);\n// }\n\n// function setAllSemester(string[] subsname, string[] subscode, uint256[] grades,uint256 semNumber)public{\n//     for(uint256 i=0;i<subsname.length;i+=1){\n//         setSemester(subsname[i],subscode[i],grades[i],semNumber);\n//     }\n// }\n\n// function getSemester(uint256 semNumber) public view returns(Subject[]){\n//     return Semester[semNumber];\n// }\n\n\n\n\n\n//   struct Semester{\n//     Subject[] sub;\n//   }\n\n//   mapping(uint256=>Subject[]) Semester;\n//   mapping(uint256=>Subject) SubjectsInSemester;\n//   Subject  subj=Subject(\"A\",\"PC\",1);\n//   Semester[0].push(subj)\n  // function setProfile(string memory _name,string memory _email,uint256 _phone) public {\n  //   mappedData[msg.sender]=profile(_name,_email,_phone);\n\n  // }\n  // function getProfile() public view returns(string memory _name,string memory _email,uint256 _phone){\n  //   string memory name=mappedData[msg.sender].name;\n  //   string memory email=mappedData[msg.sender].email;\n  //   uint256 phone =mappedData[msg.sender].phone;\n  //   return(name,email,phone);\n  //    }\n}\n\n\n",
  "sourcePath": "/home/saikk/Documents/MajorProject/DApp/DApp/contracts/SemDetails.sol",
  "compiler": {
    "name": "solc",
    "version": "0.5.16+commit.9c3226ce.Emscripten.clang"
  },
  "schemaVersion": "3.4.6",
  "updatedAt": "2022-04-04T04:36:24.298Z",
  "networkType": "ethereum",
  "devdoc": {
    "methods": {}
  },
  "userdoc": {
    "methods": {}
  }
}