{
  "contractName": "Semester",
  "abi": [
    {
      "constant": true,
      "inputs": [
        {
          "internalType": "address",
          "name": "",
          "type": "address"
        },
        {
          "internalType": "string",
          "name": "",
          "type": "string"
        }
      ],
      "name": "sem1",
      "outputs": [
        {
          "internalType": "int256",
          "name": "",
          "type": "int256"
        }
      ],
      "payable": false,
      "stateMutability": "view",
      "type": "function"
    },
    {
      "constant": true,
      "inputs": [
        {
          "internalType": "address",
          "name": "",
          "type": "address"
        },
        {
          "internalType": "string",
          "name": "",
          "type": "string"
        }
      ],
      "name": "sem2",
      "outputs": [
        {
          "internalType": "int256",
          "name": "",
          "type": "int256"
        }
      ],
      "payable": false,
      "stateMutability": "view",
      "type": "function"
    },
    {
      "constant": true,
      "inputs": [
        {
          "internalType": "address",
          "name": "",
          "type": "address"
        },
        {
          "internalType": "string",
          "name": "",
          "type": "string"
        }
      ],
      "name": "sem3",
      "outputs": [
        {
          "internalType": "int256",
          "name": "",
          "type": "int256"
        }
      ],
      "payable": false,
      "stateMutability": "view",
      "type": "function"
    },
    {
      "constant": false,
      "inputs": [],
      "name": "sem1temp",
      "outputs": [],
      "payable": false,
      "stateMutability": "nonpayable",
      "type": "function"
    },
    {
      "constant": false,
      "inputs": [],
      "name": "Sem1initializer",
      "outputs": [],
      "payable": false,
      "stateMutability": "nonpayable",
      "type": "function"
    },
    {
      "constant": false,
      "inputs": [],
      "name": "getSemSubs",
      "outputs": [
        {
          "internalType": "string[]",
          "name": "",
          "type": "string[]"
        }
      ],
      "payable": false,
      "stateMutability": "nonpayable",
      "type": "function"
    },
    {
      "constant": false,
      "inputs": [],
      "name": "getSem1",
      "outputs": [
        {
          "internalType": "int256[]",
          "name": "",
          "type": "int256[]"
        }
      ],
      "payable": false,
      "stateMutability": "nonpayable",
      "type": "function"
    },
    {
      "constant": false,
      "inputs": [],
      "name": "Sem2initializer",
      "outputs": [],
      "payable": false,
      "stateMutability": "nonpayable",
      "type": "function"
    },
    {
      "constant": true,
      "inputs": [
        {
          "internalType": "uint256",
          "name": "subjectScore",
          "type": "uint256"
        }
      ],
      "name": "getGrade",
      "outputs": [
        {
          "internalType": "string",
          "name": "",
          "type": "string"
        }
      ],
      "payable": false,
      "stateMutability": "pure",
      "type": "function"
    },
    {
      "constant": false,
      "inputs": [],
      "name": "testDelete",
      "outputs": [],
      "payable": false,
      "stateMutability": "nonpayable",
      "type": "function"
    },
    {
      "constant": false,
      "inputs": [],
      "name": "Sem3initializer",
      "outputs": [],
      "payable": false,
      "stateMutability": "nonpayable",
      "type": "function"
    }
  ],
  "bytecode": "0x60806040526040518060c001604052806040518060400160405280600d81526020017f4d617468656d61746963732d310000000000000000000000000000000000000081525081526020016040518060400160405280600781526020017f506879736963730000000000000000000000000000000000000000000000000081525081526020016040518060400160405280602081526020017f426173696373206f6620456c656374726963616c20456e67696e656572696e6781525081526020016040518060400160405280600b81526020017f50687973696373204c616200000000000000000000000000000000000000000081525081526020016040518060400160405280602081526020017f426173696373206f6620456c656374726963616c20456e67696e656572696e6781525081526020016040518060400160405280601d81526020017f456e67696e656572696e6720477261706869637320262044657369676e00000081525081525060039060066200018192919062000196565b503480156200018f57600080fd5b5062000329565b828054828255906000526020600020908101928215620001ea579160200282015b82811115620001e9578251829080519060200190620001d8929190620001fd565b5091602001919060010190620001b7565b5b509050620001f9919062000284565b5090565b828054600181600116156101000203166002900490600052602060002090601f016020900481019282601f106200024057805160ff191683800117855562000271565b8280016001018555821562000271579182015b828111156200027057825182559160200191906001019062000253565b5b509050620002809190620002b5565b5090565b620002b291905b80821115620002ae5760008181620002a49190620002dd565b506001016200028b565b5090565b90565b620002da91905b80821115620002d6576000816000905550600101620002bc565b5090565b90565b50805460018160011615610100020316600290046000825580601f1062000305575062000326565b601f016020900490600052602060002090810190620003259190620002b5565b5b50565b611c5d80620003396000396000f3fe608060405234801561001057600080fd5b50600436106100a85760003560e01c8063d216253011610071578063d21625301461013f578063db4d464a1461015d578063ddb9b3b014610167578063e1e0485e14610171578063f2ea85e0146101a1578063f41ca6c4146101ab576100a8565b80620ccb44146100ad578063153490b1146100cb57806328e2b9a6146100fb57806371cd4d7b14610105578063925d05b21461010f575b600080fd5b6100b56101db565b6040516100c291906119af565b60405180910390f35b6100e560048036036100e09190810190611092565b6102c4565b6040516100f291906119f3565b60405180910390f35b6101036102ff565b005b61010d610301565b005b61012960048036036101249190810190611092565b6103b7565b60405161013691906119f3565b60405180910390f35b6101476103f2565b60405161015491906119d1565b60405180910390f35b6101656104db565b005b61016f6107b2565b005b61018b600480360361018691908101906110e6565b610d9c565b6040516101989190611a0e565b60405180910390f35b6101a9610f7a565b005b6101c560048036036101c09190810190611092565b610fd9565b6040516101d291906119f3565b60405180910390f35b6060806003805490506040519080825280602002602001820160405280156102125781602001602082028038833980820191505090505b50905060008090505b6003805490508110156102bc576000803373ffffffffffffffffffffffffffffffffffffffff1673ffffffffffffffffffffffffffffffffffffffff1681526020019081526020016000206003828154811061027357fe5b9060005260206000200160405161028a919061181e565b9081526020016040518091039020548282815181106102a557fe5b60200260200101818152505060018101905061021b565b508091505090565b600060205281600052604060002081805160208101820180518482526020830160208501208183528095505050505050600091509150505481565b565b60008090505b6003805490508110156103b4577ffffffffffffffffffffffffffffffffffffffffffffffffffffffffffffffffe6000803373ffffffffffffffffffffffffffffffffffffffff1673ffffffffffffffffffffffffffffffffffffffff1681526020019081526020016000206003838154811061038057fe5b90600052602060002001604051610397919061181e565b908152602001604051809103902081905550600181019050610307565b50565b600160205281600052604060002081805160208101820180518482526020830160208501208183528095505050505050600091509150505481565b60606003805480602002602001604051908101604052809291908181526020016000905b828210156104d2578382906000526020600020018054600181600116156101000203166002900480601f0160208091040260200160405190810160405280929190818152602001828054600181600116156101000203166002900480156104be5780601f10610493576101008083540402835291602001916104be565b820191906000526020600020905b8154815290600101906020018083116104a157829003601f168201915b505050505081526020019060010190610416565b50505050905090565b7ffffffffffffffffffffffffffffffffffffffffffffffffffffffffffffffffe600160003373ffffffffffffffffffffffffffffffffffffffff1673ffffffffffffffffffffffffffffffffffffffff16815260200190815260200160002060405161054790611889565b9081526020016040518091039020819055506017600160003373ffffffffffffffffffffffffffffffffffffffff1673ffffffffffffffffffffffffffffffffffffffff1681526020019081526020016000206040516105a690611907565b9081526020016040518091039020819055507ffffffffffffffffffffffffffffffffffffffffffffffffffffffffffffffffe600160003373ffffffffffffffffffffffffffffffffffffffff1673ffffffffffffffffffffffffffffffffffffffff1681526020019081526020016000206040516106249061185f565b9081526020016040518091039020819055507ffffffffffffffffffffffffffffffffffffffffffffffffffffffffffffffffe600160003373ffffffffffffffffffffffffffffffffffffffff1673ffffffffffffffffffffffffffffffffffffffff1681526020019081526020016000206040516106a29061191c565b9081526020016040518091039020819055507ffffffffffffffffffffffffffffffffffffffffffffffffffffffffffffffffe600160003373ffffffffffffffffffffffffffffffffffffffff1673ffffffffffffffffffffffffffffffffffffffff1681526020019081526020016000206040516107209061199a565b9081526020016040518091039020819055507ffffffffffffffffffffffffffffffffffffffffffffffffffffffffffffffffe600160003373ffffffffffffffffffffffffffffffffffffffff1673ffffffffffffffffffffffffffffffffffffffff16815260200190815260200160002060405161079e90611835565b908152602001604051809103902081905550565b7ffffffffffffffffffffffffffffffffffffffffffffffffffffffffffffffffe600260003373ffffffffffffffffffffffffffffffffffffffff1673ffffffffffffffffffffffffffffffffffffffff16815260200190815260200160002060405161081e90611985565b9081526020016040518091039020819055507ffffffffffffffffffffffffffffffffffffffffffffffffffffffffffffffffe600260003373ffffffffffffffffffffffffffffffffffffffff1673ffffffffffffffffffffffffffffffffffffffff16815260200190815260200160002060405161089c90611874565b9081526020016040518091039020819055507ffffffffffffffffffffffffffffffffffffffffffffffffffffffffffffffffe600260003373ffffffffffffffffffffffffffffffffffffffff1673ffffffffffffffffffffffffffffffffffffffff16815260200190815260200160002060405161091a9061195b565b9081526020016040518091039020819055507ffffffffffffffffffffffffffffffffffffffffffffffffffffffffffffffffe600260003373ffffffffffffffffffffffffffffffffffffffff1673ffffffffffffffffffffffffffffffffffffffff168152602001908152602001600020604051610998906118dd565b9081526020016040518091039020819055507ffffffffffffffffffffffffffffffffffffffffffffffffffffffffffffffffe600260003373ffffffffffffffffffffffffffffffffffffffff1673ffffffffffffffffffffffffffffffffffffffff168152602001908152602001600020604051610a169061184a565b9081526020016040518091039020819055507ffffffffffffffffffffffffffffffffffffffffffffffffffffffffffffffffe600260003373ffffffffffffffffffffffffffffffffffffffff1673ffffffffffffffffffffffffffffffffffffffff168152602001908152602001600020604051610a9490611970565b9081526020016040518091039020819055507ffffffffffffffffffffffffffffffffffffffffffffffffffffffffffffffffe600260003373ffffffffffffffffffffffffffffffffffffffff1673ffffffffffffffffffffffffffffffffffffffff168152602001908152602001600020604051610b129061189e565b9081526020016040518091039020819055507ffffffffffffffffffffffffffffffffffffffffffffffffffffffffffffffffe600260003373ffffffffffffffffffffffffffffffffffffffff1673ffffffffffffffffffffffffffffffffffffffff168152602001908152602001600020604051610b9090611931565b9081526020016040518091039020819055507ffffffffffffffffffffffffffffffffffffffffffffffffffffffffffffffffe600260003373ffffffffffffffffffffffffffffffffffffffff1673ffffffffffffffffffffffffffffffffffffffff168152602001908152602001600020604051610c0e906118f2565b9081526020016040518091039020819055507ffffffffffffffffffffffffffffffffffffffffffffffffffffffffffffffffe600260003373ffffffffffffffffffffffffffffffffffffffff1673ffffffffffffffffffffffffffffffffffffffff168152602001908152602001600020604051610c8c906118b3565b9081526020016040518091039020819055507ffffffffffffffffffffffffffffffffffffffffffffffffffffffffffffffffe600260003373ffffffffffffffffffffffffffffffffffffffff1673ffffffffffffffffffffffffffffffffffffffff168152602001908152602001600020604051610d0a90611946565b9081526020016040518091039020819055507ffffffffffffffffffffffffffffffffffffffffffffffffffffffffffffffffe600260003373ffffffffffffffffffffffffffffffffffffffff1673ffffffffffffffffffffffffffffffffffffffff168152602001908152602001600020604051610d88906118c8565b908152602001604051809103902081905550565b6060600a8211610de3576040518060400160405280600181526020017f53000000000000000000000000000000000000000000000000000000000000008152509050610f75565b60098211610e28576040518060400160405280600181526020017f41000000000000000000000000000000000000000000000000000000000000008152509050610f75565b60088211610e6d576040518060400160405280600181526020017f42000000000000000000000000000000000000000000000000000000000000008152509050610f75565b60078211610eb2576040518060400160405280600181526020017f43000000000000000000000000000000000000000000000000000000000000008152509050610f75565b60068211610ef7576040518060400160405280600181526020017f44000000000000000000000000000000000000000000000000000000000000008152509050610f75565b60058211610f3c576040518060400160405280600181526020017f45000000000000000000000000000000000000000000000000000000000000008152509050610f75565b6040518060400160405280600181526020017f460000000000000000000000000000000000000000000000000000000000000081525090505b919050565b600160003373ffffffffffffffffffffffffffffffffffffffff1673ffffffffffffffffffffffffffffffffffffffff168152602001908152602001600020604051610fc590611907565b908152602001604051809103902060009055565b600260205281600052604060002081805160208101820180518482526020830160208501208183528095505050505050600091509150505481565b60008135905061102381611bec565b92915050565b600082601f83011261103a57600080fd5b813561104d61104882611a5d565b611a30565b9150808252602083016020830185838301111561106957600080fd5b611074838284611b99565b50505092915050565b60008135905061108c81611c03565b92915050565b600080604083850312156110a557600080fd5b60006110b385828601611014565b925050602083013567ffffffffffffffff8111156110d057600080fd5b6110dc85828601611029565b9150509250929050565b6000602082840312156110f857600080fd5b60006111068482850161107d565b91505092915050565b600061111b838361120e565b60208301905092915050565b60006111338383611265565b905092915050565b600061114682611abe565b6111508185611b04565b935061115b83611a89565b8060005b8381101561118c578151611173888261110f565b975061117e83611aea565b92505060018101905061115f565b5085935050505092915050565b60006111a482611ac9565b6111ae8185611b15565b9350836020820285016111c085611a99565b8060005b858110156111fc57848403895281516111dd8582611127565b94506111e883611af7565b925060208a019950506001810190506111c4565b50829750879550505050505092915050565b61121781611b65565b82525050565b61122681611b65565b82525050565b600061123782611adf565b6112418185611b37565b9350611251818560208601611ba8565b61125a81611bdb565b840191505092915050565b600061127082611ad4565b61127a8185611b26565b935061128a818560208601611ba8565b61129381611bdb565b840191505092915050565b6000815460018116600081146112bb57600181146112e057611324565b607f60028304166112cc8187611b48565b955060ff1983168652808601935050611324565b600282046112ee8187611b48565b95506112f985611aa9565b60005b8281101561131b578154818901526001820191506020810190506112fc565b82880195505050505b505092915050565b6000611339601883611b48565b91507f576f726b53686f702d4d616e7566616374757265204c616200000000000000006000830152601882019050919050565b6000611379601383611b48565b91507f4f7065726174696f6e73205265736561726368000000000000000000000000006000830152601382019050919050565b60006113b9601f83611b48565b91507f50726f6772616d6d696e6720666f722050726f626c656d20536f6c76696e67006000830152601f82019050919050565b60006113f9601583611b48565b91507f456e7669726f6e6d656e74616c20536369656e636500000000000000000000006000830152601582019050919050565b6000611439600d83611b48565b91507f4d617468656d61746963732d32000000000000000000000000000000000000006000830152600d82019050919050565b6000611479601583611b48565b91507f42696f6c6f677920666f7220456e67696e6565727300000000000000000000006000830152601582019050919050565b60006114b9601583611b48565b91507f426173696320456c656374726f6e696373204c616200000000000000000000006000830152601582019050919050565b60006114f9601e83611b48565b91507f44617461205374727563747572657320616e6420416c676f726974686d7300006000830152601e82019050919050565b6000611539601583611b48565b91507f50726f6772616d6d696e67204c616e67756167657300000000000000000000006000830152601582019050919050565b6000611579601183611b48565b91507f426173696320456c656374726f6e6963730000000000000000000000000000006000830152601182019050919050565b60006115b9600983611b48565b91507f4368656d697374727900000000000000000000000000000000000000000000006000830152600982019050919050565b60006115f9600d83611b48565b91507f4368656d6973747279204c6162000000000000000000000000000000000000006000830152600d82019050919050565b6000611639601383611b48565b91507f4469676974616c20456c656374726f6e696373000000000000000000000000006000830152601382019050919050565b6000611679602283611b48565b91507f44617461205374727563747572657320616e6420416c676f726974686d73204c60008301527f61620000000000000000000000000000000000000000000000000000000000006020830152602282019050919050565b60006116df602783611b48565b91507f457373656e6365206f6620496e6469616e20547261646974696f6e616c204b6e60008301527f6f776c65646765000000000000000000000000000000000000000000000000006020830152602782019050919050565b6000611745601c83611b48565b91507f416476616e63656420436f6d707574657220536b696c6c73204c6162000000006000830152601c82019050919050565b6000611785601483611b48565b91507f4469736372657465204d617468656d61746963730000000000000000000000006000830152601482019050919050565b60006117c5602383611b48565b91507f50726f6772616d6d696e6720666f722050726f626c656d20536f6c76696e672060008301527f4c616200000000000000000000000000000000000000000000000000000000006020830152602382019050919050565b600061182a828461129e565b915081905092915050565b60006118408261132c565b9150819050919050565b60006118558261136c565b9150819050919050565b600061186a826113ac565b9150819050919050565b600061187f826113ec565b9150819050919050565b60006118948261142c565b9150819050919050565b60006118a98261146c565b9150819050919050565b60006118be826114ac565b9150819050919050565b60006118d3826114ec565b9150819050919050565b60006118e88261152c565b9150819050919050565b60006118fd8261156c565b9150819050919050565b6000611912826115ac565b9150819050919050565b6000611927826115ec565b9150819050919050565b600061193c8261162c565b9150819050919050565b60006119518261166c565b9150819050919050565b6000611966826116d2565b9150819050919050565b600061197b82611738565b9150819050919050565b600061199082611778565b9150819050919050565b60006119a5826117b8565b9150819050919050565b600060208201905081810360008301526119c9818461113b565b905092915050565b600060208201905081810360008301526119eb8184611199565b905092915050565b6000602082019050611a08600083018461121d565b92915050565b60006020820190508181036000830152611a28818461122c565b905092915050565b6000604051905081810181811067ffffffffffffffff82111715611a5357600080fd5b8060405250919050565b600067ffffffffffffffff821115611a7457600080fd5b601f19601f8301169050602081019050919050565b6000819050602082019050919050565b6000819050602082019050919050565b60008190508160005260206000209050919050565b600081519050919050565b600081519050919050565b600081519050919050565b600081519050919050565b6000602082019050919050565b6000602082019050919050565b600082825260208201905092915050565b600082825260208201905092915050565b600082825260208201905092915050565b600082825260208201905092915050565b600081905092915050565b6000611b5e82611b6f565b9050919050565b6000819050919050565b600073ffffffffffffffffffffffffffffffffffffffff82169050919050565b6000819050919050565b82818337600083830152505050565b60005b83811015611bc6578082015181840152602081019050611bab565b83811115611bd5576000848401525b50505050565b6000601f19601f8301169050919050565b611bf581611b53565b8114611c0057600080fd5b50565b611c0c81611b8f565b8114611c1757600080fd5b5056fea365627a7a723158203f233a5d00db7ad8f4f99f812e0a23c79c3cdba1a6c622f915d8338ac26323e16c6578706572696d656e74616cf564736f6c63430005100040",
  "source": "// SPDX-License-Identifier: MIT\npragma solidity >=0.4.0 <0.9.0;\npragma experimental ABIEncoderV2;\ncontract SemDetails{\n  struct  Profile{\n    string name;\n    string email;\n    uint256 rollNo;\n    uint256 phone;\n    string addrss;\n    uint256 aadharNumber;\n    string bloodgrp;\n  }\n  struct Address{\n    string country;\n    string state;\n    uint256 pincode;\n    string city;\n  }\n  struct Relation{\n    string fatherName;\n    string motherName;\n  }\n\n  mapping(address=>Profile) ProfileDetails;\n  mapping(address=>Address) AddressDetails;\n  mapping(address=>Relation) RelationDetails;\n\n  function getProfile()public view returns(Profile memory, Relation memory, Address memory){\n    Profile memory temp=ProfileDetails[msg.sender];\n    Address memory temp1=AddressDetails[msg.sender];\n    Relation memory temp2=RelationDetails[msg.sender];\n    return(\n     temp,temp2,temp1\n    );\n  }\n\n  function setProfile(Profile memory t3,Relation memory t1,Address memory t2) public{\n    RelationDetails[msg.sender]=t1;\n    AddressDetails[msg.sender]=t2;\n    ProfileDetails[msg.sender]=t3;\n  }\n\n\n  // function setProfile(string memory _name,string memory _email,uint256 _rollNo,uint256 _phone,string memory _addrss, string memory _fatherName, string memory _motherName,uint256 _aadharNumber, string memory _country,string memory _state,string memory _city,uint256 _pincode,string memory _bloodgrp) public {\n  //   ProfileDetails[msg.sender]=Profile({name:_name,email:_email,rollNo:_rollNo,phone:_phone,addrss:_addrss,aadharNumber:_aadharNumber,bloodgrp:_bloodgrp});\n  //   AddressDetails[msg.sender]=Address({country:_country,state:_state,city:_city,pincode:_pincode});\n  //   RelationDetails[msg.sender]=Relation({fatherName:_fatherName,motherName:_motherName});\n  // }\n\n\n  // string memory,string memory,uint256,uint256,string memory,string memory, string memory,uint256,string memory,string memory,string memory,uint256,string memory\n//   function getProfile() \n//   string[] sem1=[\"MATHEMATICS-1\",\"PHYSICS\",\"\"];\n//   mapping(address=>Subject[]) userData;\n//   mapping(address=>profile) mappedData;\n\n//   function addSpecificSem(uint256 semNumber,uint256 preDecimal,uint256 postDecimal) public{\n//     // semdetails memory sem=semdetails(preDecimal,postDecimal,semNumber);\n//     // userData[msg.sender].push(sem);\n//   }\n  // struct Sem1{\n  //     mapping(string=>uint256) subjects;\n  // }\n  // Sem1 s;\n\n  //  temp.name,\n  //     temp.email,\n  //     temp.rollNo,\n  //     temp.phone,\n  //     temp.addrss,\n  //     temp2.fatherName,\n  //     temp2.motherName,\n  //     temp.aadharNumber,\n  //     temp1.country,\n  //     temp1.state,\n  //     temp1.city,\n  //     temp1.pincode,\n  //     temp.bloodgrp\n\n//   s.subjects[\"Mathematics\"]\n\n//   struct Subject{\n//     string name;\n//     string subjectCode;\n//     uint256 grade;\n//   }\n\n\n// struct semester1{\n//     uint256 M1;\n//     uint256 PHYSICS;\n//     uint256 BASIC_ELECTRICAL_ENGINEERING;\n// }\n\n\n\n// mapping(uint256=>Subject[]) Semester;\n// string[] sem1=[\"MATHEMATICS-1\",\"PHYSICS\",\"BASIC ELECTRICAL ENGINEERING\",\"PHYSICS LAB\",\"BASIC ELECTRICAL ENGINEERING LAB\",\"ENGINEERING GRAPHICS & DESIGN\"];\n// string[] sem2=[\"ENGLISH\",\"MATHEMATICS-2\",\"CHEMISTRY\",\"PROGRAMMING FOR PROBLEM SOLVING\",\"ENGLISH LAB\",\"CHEMISTRY LAB\",\"PROGRAMMING FOR PROBLEM SOLVING LAB\",\"WORKSHOP-MANUFACTURE PROCESS LAB\"];\n\n// function setSemester(string subjname,string subcode,uint256 grade,uint256 semNumber) public {\n//     Subject memory temp=Subject(subjname,subcode,grade);\n//     Semester[semNumber].push(temp);\n// }\n\n// function setAllSemester(string[] subsname, string[] subscode, uint256[] grades,uint256 semNumber)public{\n//     for(uint256 i=0;i<subsname.length;i+=1){\n//         setSemester(subsname[i],subscode[i],grades[i],semNumber);\n//     }\n// }\n\n// function getSemester(uint256 semNumber) public view returns(Subject[]){\n//     return Semester[semNumber];\n// }\n\n\n\n\n\n//   struct Semester{\n//     Subject[] sub;\n//   }\n\n//   mapping(uint256=>Subject[]) Semester;\n//   mapping(uint256=>Subject) SubjectsInSemester;\n//   Subject  subj=Subject(\"A\",\"PC\",1);\n//   Semester[0].push(subj)\n  // function setProfile(string memory _name,string memory _email,uint256 _phone) public {\n  //   mappedData[msg.sender]=profile(_name,_email,_phone);\n\n  // }\n  // function getProfile() public view returns(string memory _name,string memory _email,uint256 _phone){\n  //   string memory name=mappedData[msg.sender].name;\n  //   string memory email=mappedData[msg.sender].email;\n  //   uint256 phone =mappedData[msg.sender].phone;\n  //   return(name,email,phone);\n  //    }\n}\n\n\ncontract Semester{\n\n\n  mapping(address=> mapping(string=>int256)) public sem1 ;\n   mapping(address=> mapping(string=>int256)) public sem2;\n   mapping(address=> mapping(string=>int256)) public sem3;\n  // mapping(uint256 => string) public gradeMapping;\n  string[] sem1Subs=[\"Mathematics-1\",\"Physics\",\"Basics of Electrical Engineering\",\"Physics Lab\",\"Basics of Electrical Engineering\",\"Engineering Graphics & Design\"];\n  function sem1temp() public {\n    \n  }\n  function Sem1initializer () public {\n    // sem1[msg.sender][\"Mathematics-1\"]=-2;\n    // sem1[msg.sender][\"Physics\"]=-2;\n    // sem1[msg.sender][\"Basics of Electrical Engineering\"]=-2;\n    // sem1[msg.sender][\"Physics Lab\"]=-2;\n    // sem1[msg.sender][\"Basics of Electrical Engineering Lab\"]=-2;\n    // sem1[msg.sender][\"Engineering Graphics & Design\"]=-2;\n    for(uint256 i=0;i<sem1Subs.length;i+=1){\n      sem1[msg.sender][sem1Subs[i]]=-2;\n    }\n  }\n  function getSemSubs() public returns(string[] memory){\n    return sem1Subs;\n  }\n  function getSem1() public returns(int256[] memory) {\n    int256[] memory scores = new int256[](sem1Subs.length);\n    // string[] memory temp;\n    for(uint256 i=0;i<sem1Subs.length;i+=1){\n      scores[i]=sem1[msg.sender][sem1Subs[i]];\n      // temp[i]=sem1Subs[i]; \n    }\n    return(scores);\n  }\n\n  function Sem2initializer() public{\n    sem2[msg.sender][\"Mathematics-2\"]=-2;\n    sem2[msg.sender][\"Chemistry\"]=23;\n    sem2[msg.sender][\"Programming for Problem Solving\"]=-2;\n    sem2[msg.sender][\"Chemistry Lab\"]=-2;\n    sem2[msg.sender][\"Programming for Problem Solving Lab\"]=-2;\n    sem2[msg.sender][\"WorkShop-Manufacture Lab\"]=-2;\n  }\n\n\n\n  //IMP function to manage subjects\n  // 0 -> Deleted Subject\n  // -1 -> Failed subject\n  // -2 -> Not initialized...\n\n  //Gets the grade by giving points..\n  \n  function getGrade(uint256 subjectScore) public pure returns(string memory){\n    if(subjectScore <=10) return \"S\";\n    else if(subjectScore<=9) return \"A\";\n    else if(subjectScore<=8) return \"B\";\n    else if(subjectScore<=7) return \"C\";\n    else if(subjectScore<=6) return \"D\";\n    else if(subjectScore<=5) return \"E\";\n    else return \"F\";\n  }\n  \n  //Testing function\n  function testDelete() public{\n    delete sem2[msg.sender][\"Chemistry\"];\n  }\n\n  function Sem3initializer() public{\n    sem3[msg.sender][\"Discrete Mathematics\"]=-2;\n    sem3[msg.sender][\"Environmental Science\"]=-2;\n    sem3[msg.sender][\"Essence of Indian Traditional Knowledge\"]=-2;\n    sem3[msg.sender][\"Programming Languages\"]=-2;\n    sem3[msg.sender][\"Operations Research\"]=-2;\n    sem3[msg.sender][\"Advanced Computer Skills Lab\"]=-2;\n    sem3[msg.sender][\"Biology for Engineers\"]=-2;\n    sem3[msg.sender][\"Digital Electronics\"]=-2;\n    sem3[msg.sender][\"Basic Electronics\"]=-2;\n    sem3[msg.sender][\"Basic Electronics Lab\"]=-2;\n    sem3[msg.sender][\"Data Structures and Algorithms Lab\"]=-2;\n    sem3[msg.sender][\"Data Structures and Algorithms\"]=-2;\n  }\n}",
  "sourcePath": "/home/saikk/Documents/MajorProject/DApp/DApp/contracts/SemDetails.sol",
  "compiler": {
    "name": "solc",
    "version": "0.5.16+commit.9c3226ce.Emscripten.clang"
  },
  "schemaVersion": "3.4.6",
  "updatedAt": "2022-04-02T07:36:57.541Z",
  "networkType": "ethereum",
  "devdoc": {
    "methods": {}
  },
  "userdoc": {
    "methods": {}
  }
}