{
  "contractName": "Semester",
  "abi": [
    {
      "constant": true,
      "inputs": [
        {
          "internalType": "address",
          "name": "",
          "type": "address"
        },
        {
          "internalType": "string",
          "name": "",
          "type": "string"
        }
      ],
      "name": "sem1",
      "outputs": [
        {
          "internalType": "int256",
          "name": "",
          "type": "int256"
        }
      ],
      "payable": false,
      "stateMutability": "view",
      "type": "function"
    },
    {
      "constant": true,
      "inputs": [
        {
          "internalType": "address",
          "name": "",
          "type": "address"
        },
        {
          "internalType": "string",
          "name": "",
          "type": "string"
        }
      ],
      "name": "sem2",
      "outputs": [
        {
          "internalType": "int256",
          "name": "",
          "type": "int256"
        }
      ],
      "payable": false,
      "stateMutability": "view",
      "type": "function"
    },
    {
      "constant": true,
      "inputs": [
        {
          "internalType": "address",
          "name": "",
          "type": "address"
        },
        {
          "internalType": "string",
          "name": "",
          "type": "string"
        }
      ],
      "name": "sem3",
      "outputs": [
        {
          "internalType": "int256",
          "name": "",
          "type": "int256"
        }
      ],
      "payable": false,
      "stateMutability": "view",
      "type": "function"
    },
    {
      "constant": false,
      "inputs": [],
      "name": "sem1temp",
      "outputs": [],
      "payable": false,
      "stateMutability": "nonpayable",
      "type": "function"
    },
    {
      "constant": false,
      "inputs": [],
      "name": "Sem1initializer",
      "outputs": [],
      "payable": false,
      "stateMutability": "nonpayable",
      "type": "function"
    },
    {
      "constant": true,
      "inputs": [],
      "name": "getSemSubs",
      "outputs": [
        {
          "internalType": "string[]",
          "name": "",
          "type": "string[]"
        }
      ],
      "payable": false,
      "stateMutability": "view",
      "type": "function"
    },
    {
      "constant": true,
      "inputs": [],
      "name": "getSem1",
      "outputs": [
        {
          "internalType": "int256[]",
          "name": "",
          "type": "int256[]"
        }
      ],
      "payable": false,
      "stateMutability": "view",
      "type": "function"
    },
    {
      "constant": false,
      "inputs": [
        {
          "internalType": "int256[]",
          "name": "arr",
          "type": "int256[]"
        }
      ],
      "name": "setSem1",
      "outputs": [],
      "payable": false,
      "stateMutability": "nonpayable",
      "type": "function"
    },
    {
      "constant": false,
      "inputs": [],
      "name": "Sem2initializer",
      "outputs": [],
      "payable": false,
      "stateMutability": "nonpayable",
      "type": "function"
    },
    {
      "constant": true,
      "inputs": [
        {
          "internalType": "uint256",
          "name": "subjectScore",
          "type": "uint256"
        }
      ],
      "name": "getGrade",
      "outputs": [
        {
          "internalType": "string",
          "name": "",
          "type": "string"
        }
      ],
      "payable": false,
      "stateMutability": "pure",
      "type": "function"
    },
    {
      "constant": false,
      "inputs": [],
      "name": "testDelete",
      "outputs": [],
      "payable": false,
      "stateMutability": "nonpayable",
      "type": "function"
    },
    {
      "constant": false,
      "inputs": [],
      "name": "Sem3initializer",
      "outputs": [],
      "payable": false,
      "stateMutability": "nonpayable",
      "type": "function"
    }
  ],
  "bytecode": "0x60806040526040518060c001604052806040518060400160405280600d81526020017f4d617468656d61746963732d310000000000000000000000000000000000000081525081526020016040518060400160405280600781526020017f506879736963730000000000000000000000000000000000000000000000000081525081526020016040518060400160405280602081526020017f426173696373206f6620456c656374726963616c20456e67696e656572696e6781525081526020016040518060400160405280600b81526020017f50687973696373204c61620000000000000000000000000000000000000000008152508152602001604051806060016040528060248152602001620021656024913981526020016040518060400160405280601d81526020017f456e67696e656572696e6720477261706869637320262044657369676e0000008152508152506003906006620001659291906200017a565b503480156200017357600080fd5b506200030d565b828054828255906000526020600020908101928215620001ce579160200282015b82811115620001cd578251829080519060200190620001bc929190620001e1565b50916020019190600101906200019b565b5b509050620001dd919062000268565b5090565b828054600181600116156101000203166002900490600052602060002090601f016020900481019282601f106200022457805160ff191683800117855562000255565b8280016001018555821562000255579182015b828111156200025457825182559160200191906001019062000237565b5b50905062000264919062000299565b5090565b6200029691905b80821115620002925760008181620002889190620002c1565b506001016200026f565b5090565b90565b620002be91905b80821115620002ba576000816000905550600101620002a0565b5090565b90565b50805460018160011615610100020316600290046000825580601f10620002e957506200030a565b601f01602090049060005260206000209081019062000309919062000299565b5b50565b611e48806200031d6000396000f3fe608060405234801561001057600080fd5b50600436106100b35760003560e01c8063d216253011610071578063d216253014610166578063db4d464a14610184578063ddb9b3b01461018e578063e1e0485e14610198578063f2ea85e0146101c8578063f41ca6c4146101d2576100b3565b80620ccb44146100b8578063153490b1146100d657806328e2b9a61461010657806371cd4d7b14610110578063925d05b21461011a578063c76f7c331461014a575b600080fd5b6100c0610202565b6040516100cd9190611b5b565b60405180910390f35b6100f060048036036100eb91908101906111fd565b6102eb565b6040516100fd9190611b9f565b60405180910390f35b61010e610326565b005b610118610328565b005b610134600480360361012f91908101906111fd565b6103de565b6040516101419190611b9f565b60405180910390f35b610164600480360361015f9190810190611251565b610419565b005b61016e6104c5565b60405161017b9190611b7d565b60405180910390f35b61018c6105ae565b005b610196610885565b005b6101b260048036036101ad9190810190611292565b610e6f565b6040516101bf9190611bba565b60405180910390f35b6101d061104d565b005b6101ec60048036036101e791908101906111fd565b6110ac565b6040516101f99190611b9f565b60405180910390f35b6060806003805490506040519080825280602002602001820160405280156102395781602001602082028038833980820191505090505b50905060008090505b6003805490508110156102e3576000803373ffffffffffffffffffffffffffffffffffffffff1673ffffffffffffffffffffffffffffffffffffffff1681526020019081526020016000206003828154811061029a57fe5b906000526020600020016040516102b191906119ca565b9081526020016040518091039020548282815181106102cc57fe5b602002602001018181525050600181019050610242565b508091505090565b600060205281600052604060002081805160208101820180518482526020830160208501208183528095505050505050600091509150505481565b565b60008090505b6003805490508110156103db577ffffffffffffffffffffffffffffffffffffffffffffffffffffffffffffffffe6000803373ffffffffffffffffffffffffffffffffffffffff1673ffffffffffffffffffffffffffffffffffffffff168152602001908152602001600020600383815481106103a757fe5b906000526020600020016040516103be91906119ca565b90815260200160405180910390208190555060018101905061032e565b50565b600160205281600052604060002081805160208101820180518482526020830160208501208183528095505050505050600091509150505481565b60008090505b6003805490508110156104c15781818151811061043857fe5b60200260200101516000803373ffffffffffffffffffffffffffffffffffffffff1673ffffffffffffffffffffffffffffffffffffffff1681526020019081526020016000206003838154811061048b57fe5b906000526020600020016040516104a291906119ca565b908152602001604051809103902081905550808060010191505061041f565b5050565b60606003805480602002602001604051908101604052809291908181526020016000905b828210156105a5578382906000526020600020018054600181600116156101000203166002900480601f0160208091040260200160405190810160405280929190818152602001828054600181600116156101000203166002900480156105915780601f1061056657610100808354040283529160200191610591565b820191906000526020600020905b81548152906001019060200180831161057457829003601f168201915b5050505050815260200190600101906104e9565b50505050905090565b7ffffffffffffffffffffffffffffffffffffffffffffffffffffffffffffffffe600160003373ffffffffffffffffffffffffffffffffffffffff1673ffffffffffffffffffffffffffffffffffffffff16815260200190815260200160002060405161061a90611a35565b9081526020016040518091039020819055506017600160003373ffffffffffffffffffffffffffffffffffffffff1673ffffffffffffffffffffffffffffffffffffffff16815260200190815260200160002060405161067990611ab3565b9081526020016040518091039020819055507ffffffffffffffffffffffffffffffffffffffffffffffffffffffffffffffffe600160003373ffffffffffffffffffffffffffffffffffffffff1673ffffffffffffffffffffffffffffffffffffffff1681526020019081526020016000206040516106f790611a0b565b9081526020016040518091039020819055507ffffffffffffffffffffffffffffffffffffffffffffffffffffffffffffffffe600160003373ffffffffffffffffffffffffffffffffffffffff1673ffffffffffffffffffffffffffffffffffffffff16815260200190815260200160002060405161077590611ac8565b9081526020016040518091039020819055507ffffffffffffffffffffffffffffffffffffffffffffffffffffffffffffffffe600160003373ffffffffffffffffffffffffffffffffffffffff1673ffffffffffffffffffffffffffffffffffffffff1681526020019081526020016000206040516107f390611b46565b9081526020016040518091039020819055507ffffffffffffffffffffffffffffffffffffffffffffffffffffffffffffffffe600160003373ffffffffffffffffffffffffffffffffffffffff1673ffffffffffffffffffffffffffffffffffffffff168152602001908152602001600020604051610871906119e1565b908152602001604051809103902081905550565b7ffffffffffffffffffffffffffffffffffffffffffffffffffffffffffffffffe600260003373ffffffffffffffffffffffffffffffffffffffff1673ffffffffffffffffffffffffffffffffffffffff1681526020019081526020016000206040516108f190611b31565b9081526020016040518091039020819055507ffffffffffffffffffffffffffffffffffffffffffffffffffffffffffffffffe600260003373ffffffffffffffffffffffffffffffffffffffff1673ffffffffffffffffffffffffffffffffffffffff16815260200190815260200160002060405161096f90611a20565b9081526020016040518091039020819055507ffffffffffffffffffffffffffffffffffffffffffffffffffffffffffffffffe600260003373ffffffffffffffffffffffffffffffffffffffff1673ffffffffffffffffffffffffffffffffffffffff1681526020019081526020016000206040516109ed90611b07565b9081526020016040518091039020819055507ffffffffffffffffffffffffffffffffffffffffffffffffffffffffffffffffe600260003373ffffffffffffffffffffffffffffffffffffffff1673ffffffffffffffffffffffffffffffffffffffff168152602001908152602001600020604051610a6b90611a89565b9081526020016040518091039020819055507ffffffffffffffffffffffffffffffffffffffffffffffffffffffffffffffffe600260003373ffffffffffffffffffffffffffffffffffffffff1673ffffffffffffffffffffffffffffffffffffffff168152602001908152602001600020604051610ae9906119f6565b9081526020016040518091039020819055507ffffffffffffffffffffffffffffffffffffffffffffffffffffffffffffffffe600260003373ffffffffffffffffffffffffffffffffffffffff1673ffffffffffffffffffffffffffffffffffffffff168152602001908152602001600020604051610b6790611b1c565b9081526020016040518091039020819055507ffffffffffffffffffffffffffffffffffffffffffffffffffffffffffffffffe600260003373ffffffffffffffffffffffffffffffffffffffff1673ffffffffffffffffffffffffffffffffffffffff168152602001908152602001600020604051610be590611a4a565b9081526020016040518091039020819055507ffffffffffffffffffffffffffffffffffffffffffffffffffffffffffffffffe600260003373ffffffffffffffffffffffffffffffffffffffff1673ffffffffffffffffffffffffffffffffffffffff168152602001908152602001600020604051610c6390611add565b9081526020016040518091039020819055507ffffffffffffffffffffffffffffffffffffffffffffffffffffffffffffffffe600260003373ffffffffffffffffffffffffffffffffffffffff1673ffffffffffffffffffffffffffffffffffffffff168152602001908152602001600020604051610ce190611a9e565b9081526020016040518091039020819055507ffffffffffffffffffffffffffffffffffffffffffffffffffffffffffffffffe600260003373ffffffffffffffffffffffffffffffffffffffff1673ffffffffffffffffffffffffffffffffffffffff168152602001908152602001600020604051610d5f90611a5f565b9081526020016040518091039020819055507ffffffffffffffffffffffffffffffffffffffffffffffffffffffffffffffffe600260003373ffffffffffffffffffffffffffffffffffffffff1673ffffffffffffffffffffffffffffffffffffffff168152602001908152602001600020604051610ddd90611af2565b9081526020016040518091039020819055507ffffffffffffffffffffffffffffffffffffffffffffffffffffffffffffffffe600260003373ffffffffffffffffffffffffffffffffffffffff1673ffffffffffffffffffffffffffffffffffffffff168152602001908152602001600020604051610e5b90611a74565b908152602001604051809103902081905550565b6060600a8211610eb6576040518060400160405280600181526020017f53000000000000000000000000000000000000000000000000000000000000008152509050611048565b60098211610efb576040518060400160405280600181526020017f41000000000000000000000000000000000000000000000000000000000000008152509050611048565b60088211610f40576040518060400160405280600181526020017f42000000000000000000000000000000000000000000000000000000000000008152509050611048565b60078211610f85576040518060400160405280600181526020017f43000000000000000000000000000000000000000000000000000000000000008152509050611048565b60068211610fca576040518060400160405280600181526020017f44000000000000000000000000000000000000000000000000000000000000008152509050611048565b6005821161100f576040518060400160405280600181526020017f45000000000000000000000000000000000000000000000000000000000000008152509050611048565b6040518060400160405280600181526020017f460000000000000000000000000000000000000000000000000000000000000081525090505b919050565b600160003373ffffffffffffffffffffffffffffffffffffffff1673ffffffffffffffffffffffffffffffffffffffff16815260200190815260200160002060405161109890611ab3565b908152602001604051809103902060009055565b600260205281600052604060002081805160208101820180518482526020830160208501208183528095505050505050600091509150505481565b6000813590506110f681611dc0565b92915050565b600082601f83011261110d57600080fd5b813561112061111b82611c09565b611bdc565b9150818183526020840193506020810190508385602084028201111561114557600080fd5b60005b83811015611175578161115b888261117f565b845260208401935060208301925050600181019050611148565b5050505092915050565b60008135905061118e81611dd7565b92915050565b600082601f8301126111a557600080fd5b81356111b86111b382611c31565b611bdc565b915080825260208301602083018583830111156111d457600080fd5b6111df838284611d6d565b50505092915050565b6000813590506111f781611dee565b92915050565b6000806040838503121561121057600080fd5b600061121e858286016110e7565b925050602083013567ffffffffffffffff81111561123b57600080fd5b61124785828601611194565b9150509250929050565b60006020828403121561126357600080fd5b600082013567ffffffffffffffff81111561127d57600080fd5b611289848285016110fc565b91505092915050565b6000602082840312156112a457600080fd5b60006112b2848285016111e8565b91505092915050565b60006112c783836113ba565b60208301905092915050565b60006112df8383611411565b905092915050565b60006112f282611c92565b6112fc8185611cd8565b935061130783611c5d565b8060005b8381101561133857815161131f88826112bb565b975061132a83611cbe565b92505060018101905061130b565b5085935050505092915050565b600061135082611c9d565b61135a8185611ce9565b93508360208202850161136c85611c6d565b8060005b858110156113a8578484038952815161138985826112d3565b945061139483611ccb565b925060208a01995050600181019050611370565b50829750879550505050505092915050565b6113c381611d39565b82525050565b6113d281611d39565b82525050565b60006113e382611cb3565b6113ed8185611d0b565b93506113fd818560208601611d7c565b61140681611daf565b840191505092915050565b600061141c82611ca8565b6114268185611cfa565b9350611436818560208601611d7c565b61143f81611daf565b840191505092915050565b600081546001811660008114611467576001811461148c576114d0565b607f60028304166114788187611d1c565b955060ff19831686528086019350506114d0565b6002820461149a8187611d1c565b95506114a585611c7d565b60005b828110156114c7578154818901526001820191506020810190506114a8565b82880195505050505b505092915050565b60006114e5601883611d1c565b91507f576f726b53686f702d4d616e7566616374757265204c616200000000000000006000830152601882019050919050565b6000611525601383611d1c565b91507f4f7065726174696f6e73205265736561726368000000000000000000000000006000830152601382019050919050565b6000611565601f83611d1c565b91507f50726f6772616d6d696e6720666f722050726f626c656d20536f6c76696e67006000830152601f82019050919050565b60006115a5601583611d1c565b91507f456e7669726f6e6d656e74616c20536369656e636500000000000000000000006000830152601582019050919050565b60006115e5600d83611d1c565b91507f4d617468656d61746963732d32000000000000000000000000000000000000006000830152600d82019050919050565b6000611625601583611d1c565b91507f42696f6c6f677920666f7220456e67696e6565727300000000000000000000006000830152601582019050919050565b6000611665601583611d1c565b91507f426173696320456c656374726f6e696373204c616200000000000000000000006000830152601582019050919050565b60006116a5601e83611d1c565b91507f44617461205374727563747572657320616e6420416c676f726974686d7300006000830152601e82019050919050565b60006116e5601583611d1c565b91507f50726f6772616d6d696e67204c616e67756167657300000000000000000000006000830152601582019050919050565b6000611725601183611d1c565b91507f426173696320456c656374726f6e6963730000000000000000000000000000006000830152601182019050919050565b6000611765600983611d1c565b91507f4368656d697374727900000000000000000000000000000000000000000000006000830152600982019050919050565b60006117a5600d83611d1c565b91507f4368656d6973747279204c6162000000000000000000000000000000000000006000830152600d82019050919050565b60006117e5601383611d1c565b91507f4469676974616c20456c656374726f6e696373000000000000000000000000006000830152601382019050919050565b6000611825602283611d1c565b91507f44617461205374727563747572657320616e6420416c676f726974686d73204c60008301527f61620000000000000000000000000000000000000000000000000000000000006020830152602282019050919050565b600061188b602783611d1c565b91507f457373656e6365206f6620496e6469616e20547261646974696f6e616c204b6e60008301527f6f776c65646765000000000000000000000000000000000000000000000000006020830152602782019050919050565b60006118f1601c83611d1c565b91507f416476616e63656420436f6d707574657220536b696c6c73204c6162000000006000830152601c82019050919050565b6000611931601483611d1c565b91507f4469736372657465204d617468656d61746963730000000000000000000000006000830152601482019050919050565b6000611971602383611d1c565b91507f50726f6772616d6d696e6720666f722050726f626c656d20536f6c76696e672060008301527f4c616200000000000000000000000000000000000000000000000000000000006020830152602382019050919050565b60006119d6828461144a565b915081905092915050565b60006119ec826114d8565b9150819050919050565b6000611a0182611518565b9150819050919050565b6000611a1682611558565b9150819050919050565b6000611a2b82611598565b9150819050919050565b6000611a40826115d8565b9150819050919050565b6000611a5582611618565b9150819050919050565b6000611a6a82611658565b9150819050919050565b6000611a7f82611698565b9150819050919050565b6000611a94826116d8565b9150819050919050565b6000611aa982611718565b9150819050919050565b6000611abe82611758565b9150819050919050565b6000611ad382611798565b9150819050919050565b6000611ae8826117d8565b9150819050919050565b6000611afd82611818565b9150819050919050565b6000611b128261187e565b9150819050919050565b6000611b27826118e4565b9150819050919050565b6000611b3c82611924565b9150819050919050565b6000611b5182611964565b9150819050919050565b60006020820190508181036000830152611b7581846112e7565b905092915050565b60006020820190508181036000830152611b978184611345565b905092915050565b6000602082019050611bb460008301846113c9565b92915050565b60006020820190508181036000830152611bd481846113d8565b905092915050565b6000604051905081810181811067ffffffffffffffff82111715611bff57600080fd5b8060405250919050565b600067ffffffffffffffff821115611c2057600080fd5b602082029050602081019050919050565b600067ffffffffffffffff821115611c4857600080fd5b601f19601f8301169050602081019050919050565b6000819050602082019050919050565b6000819050602082019050919050565b60008190508160005260206000209050919050565b600081519050919050565b600081519050919050565b600081519050919050565b600081519050919050565b6000602082019050919050565b6000602082019050919050565b600082825260208201905092915050565b600082825260208201905092915050565b600082825260208201905092915050565b600082825260208201905092915050565b600081905092915050565b6000611d3282611d43565b9050919050565b6000819050919050565b600073ffffffffffffffffffffffffffffffffffffffff82169050919050565b6000819050919050565b82818337600083830152505050565b60005b83811015611d9a578082015181840152602081019050611d7f565b83811115611da9576000848401525b50505050565b6000601f19601f8301169050919050565b611dc981611d27565b8114611dd457600080fd5b50565b611de081611d39565b8114611deb57600080fd5b50565b611df781611d63565b8114611e0257600080fd5b5056fea365627a7a72315820bf120791426deef6e43bf4b8e25082298432297c237881948ee9a35846f5c5206c6578706572696d656e74616cf564736f6c63430005100040426173696373206f6620456c656374726963616c20456e67696e656572696e67204c6162",
  "source": "// SPDX-License-Identifier: MIT\npragma solidity >=0.4.0 <0.9.0;\npragma experimental ABIEncoderV2;\ncontract Semester{\n\n\n  mapping(address=> mapping(string=>int256)) public sem1 ;\n   mapping(address=> mapping(string=>int256)) public sem2;\n   mapping(address=> mapping(string=>int256)) public sem3;\n  // mapping(uint256 => string) public gradeMapping;\n  string[] sem1Subs=[\"Mathematics-1\",\"Physics\",\"Basics of Electrical Engineering\",\"Physics Lab\",\"Basics of Electrical Engineering Lab\",\"Engineering Graphics & Design\"];\n  function sem1temp() public {\n    \n  }\n  function Sem1initializer () public {\n    // sem1[msg.sender][\"Mathematics-1\"]=-2;\n    // sem1[msg.sender][\"Physics\"]=-2;\n    // sem1[msg.sender][\"Basics of Electrical Engineering\"]=-2;\n    // sem1[msg.sender][\"Physics Lab\"]=-2;\n    // sem1[msg.sender][\"Basics of Electrical Engineering Lab\"]=-2;\n    // sem1[msg.sender][\"Engineering Graphics & Design\"]=-2;\n    for(uint256 i=0;i<sem1Subs.length;i+=1){\n      sem1[msg.sender][sem1Subs[i]]=-2;\n    }\n  }\n\n  \n  function getSemSubs() public view returns(string[] memory){\n    return sem1Subs;\n  }\n  function getSem1() public view returns(int256[] memory) {\n    int256[] memory scores = new int256[](sem1Subs.length);\n    // string[] memory temp;\n    for(uint256 i=0;i<sem1Subs.length;i+=1){\n      scores[i]=sem1[msg.sender][sem1Subs[i]];\n      // temp[i]=sem1Subs[i]; \n    }\n    return(scores);\n  }\n  \n  function setSem1(int256[] memory arr) public {\n      for(uint256 i=0;i<sem1Subs.length;i++)\n      sem1[msg.sender][sem1Subs[i]]=arr[i];\n  }  \n  \n  function Sem2initializer() public{\n    sem2[msg.sender][\"Mathematics-2\"]=-2;\n    sem2[msg.sender][\"Chemistry\"]=23;\n    sem2[msg.sender][\"Programming for Problem Solving\"]=-2;\n    sem2[msg.sender][\"Chemistry Lab\"]=-2;\n    sem2[msg.sender][\"Programming for Problem Solving Lab\"]=-2;\n    sem2[msg.sender][\"WorkShop-Manufacture Lab\"]=-2;\n  }\n\n\n\n  //IMP function to manage subjects\n  // 0 -> Deleted Subject\n  // -1 -> Failed subject\n  // -2 -> Not initialized...\n\n  //Gets the grade by giving points..\n  \n  function getGrade(uint256 subjectScore) public pure returns(string memory){\n    if(subjectScore <=10) return \"S\";\n    else if(subjectScore<=9) return \"A\";\n    else if(subjectScore<=8) return \"B\";\n    else if(subjectScore<=7) return \"C\";\n    else if(subjectScore<=6) return \"D\";\n    else if(subjectScore<=5) return \"E\";\n    else return \"F\";\n  }\n  \n  //Testing function\n  function testDelete() public{\n    delete sem2[msg.sender][\"Chemistry\"];\n  }\n\n  function Sem3initializer() public{\n    sem3[msg.sender][\"Discrete Mathematics\"]=-2;\n    sem3[msg.sender][\"Environmental Science\"]=-2;\n    sem3[msg.sender][\"Essence of Indian Traditional Knowledge\"]=-2;\n    sem3[msg.sender][\"Programming Languages\"]=-2;\n    sem3[msg.sender][\"Operations Research\"]=-2;\n    sem3[msg.sender][\"Advanced Computer Skills Lab\"]=-2;\n    sem3[msg.sender][\"Biology for Engineers\"]=-2;\n    sem3[msg.sender][\"Digital Electronics\"]=-2;\n    sem3[msg.sender][\"Basic Electronics\"]=-2;\n    sem3[msg.sender][\"Basic Electronics Lab\"]=-2;\n    sem3[msg.sender][\"Data Structures and Algorithms Lab\"]=-2;\n    sem3[msg.sender][\"Data Structures and Algorithms\"]=-2;\n  }\n}",
  "sourcePath": "/Users/sampathbabu/DApp/contracts/Semester.sol",
  "compiler": {
    "name": "solc",
    "version": "0.5.16+commit.9c3226ce.Emscripten.clang"
  },
  "schemaVersion": "3.4.6",
  "updatedAt": "2022-05-03T04:14:43.085Z",
  "networkType": "ethereum",
  "devdoc": {
    "methods": {}
  },
  "userdoc": {
    "methods": {}
  }
}