{
  "contractName": "Semester",
  "abi": [
    {
      "constant": true,
      "inputs": [
        {
          "internalType": "address",
          "name": "",
          "type": "address"
        },
        {
          "internalType": "uint256",
          "name": "",
          "type": "uint256"
        },
        {
          "internalType": "string",
          "name": "",
          "type": "string"
        }
      ],
      "name": "sem",
      "outputs": [
        {
          "internalType": "int256",
          "name": "",
          "type": "int256"
        }
      ],
      "payable": false,
      "stateMutability": "view",
      "type": "function"
    },
    {
      "constant": true,
      "inputs": [
        {
          "internalType": "uint256",
          "name": "",
          "type": "uint256"
        },
        {
          "internalType": "uint256",
          "name": "",
          "type": "uint256"
        }
      ],
      "name": "subjects",
      "outputs": [
        {
          "internalType": "string",
          "name": "",
          "type": "string"
        }
      ],
      "payable": false,
      "stateMutability": "view",
      "type": "function"
    },
    {
      "constant": false,
      "inputs": [],
      "name": "seminitializer",
      "outputs": [],
      "payable": false,
      "stateMutability": "nonpayable",
      "type": "function"
    },
    {
      "constant": true,
      "inputs": [
        {
          "internalType": "uint256",
          "name": "semNumber",
          "type": "uint256"
        }
      ],
      "name": "getSemSubs",
      "outputs": [
        {
          "internalType": "string[]",
          "name": "",
          "type": "string[]"
        }
      ],
      "payable": false,
      "stateMutability": "view",
      "type": "function"
    },
    {
      "constant": true,
      "inputs": [
        {
          "internalType": "uint256",
          "name": "semNumber",
          "type": "uint256"
        }
      ],
      "name": "getsem",
      "outputs": [
        {
          "internalType": "int256[15]",
          "name": "",
          "type": "int256[15]"
        }
      ],
      "payable": false,
      "stateMutability": "view",
      "type": "function"
    },
    {
      "constant": false,
      "inputs": [
        {
          "internalType": "int256[]",
          "name": "arr",
          "type": "int256[]"
        },
        {
          "internalType": "uint256",
          "name": "semNumber",
          "type": "uint256"
        }
      ],
      "name": "setsem",
      "outputs": [
        {
          "internalType": "int256[]",
          "name": "",
          "type": "int256[]"
        }
      ],
      "payable": false,
      "stateMutability": "nonpayable",
      "type": "function"
    }
  ],
  "bytecode": "0x60806040526040518060c001604052806040518060400160405280600d81526020017f4d617468656d61746963732d310000000000000000000000000000000000000081525081526020016040518060400160405280600781526020017f506879736963730000000000000000000000000000000000000000000000000081525081526020016040518060400160405280602081526020017f426173696373206f6620456c656374726963616c20456e67696e656572696e6781525081526020016040518060400160405280600b81526020017f50687973696373204c61620000000000000000000000000000000000000000008152508152602001604051806060016040528060248152602001620022c46024913981526020016040518060400160405280601d81526020017f456e67696e656572696e6720477261706869637320262044657369676e00000081525081525060029060066200016592919062000d1f565b506040518060c001604052806040518060400160405280600d81526020017f4d617468656d61746963732d320000000000000000000000000000000000000081525081526020016040518060400160405280600981526020017f4368656d6973747279000000000000000000000000000000000000000000000081525081526020016040518060400160405280601f81526020017f50726f6772616d6d696e6720666f722050726f626c656d20536f6c76696e670081525081526020016040518060400160405280600d81526020017f4368656d6973747279204c61620000000000000000000000000000000000000081525081526020016040518060600160405280602381526020016200227f6023913981526020016040518060400160405280601881526020017f576f726b53686f702d4d616e7566616374757265204c616200000000000000008152508152506003906006620002c792919062000d1f565b506040518061018001604052806040518060400160405280601481526020017f4469736372657465204d617468656d617469637300000000000000000000000081525081526020016040518060400160405280601581526020017f456e7669726f6e6d656e74616c20536369656e636500000000000000000000008152508152602001604051806060016040528060278152602001620022586027913981526020016040518060400160405280601581526020017f50726f6772616d6d696e67204c616e677561676573000000000000000000000081525081526020016040518060400160405280601381526020017f4f7065726174696f6e732052657365617263680000000000000000000000000081525081526020016040518060400160405280601c81526020017f416476616e63656420436f6d707574657220536b696c6c73204c61620000000081525081526020016040518060400160405280601581526020017f42696f6c6f677920666f7220456e67696e65657273000000000000000000000081525081526020016040518060400160405280601381526020017f4469676974616c20456c656374726f6e6963730000000000000000000000000081525081526020016040518060400160405280601181526020017f426173696320456c656374726f6e69637300000000000000000000000000000081525081526020016040518060400160405280601581526020017f426173696320456c656374726f6e696373204c6162000000000000000000000081525081526020016040518060400160405280601e81526020017f44617461205374727563747572657320616e6420416c676f726974686d73000081525081526020016040518060600160405280602281526020016200223660229139815250600490600c6200057092919062000d86565b506040518061016001604052806040518060400160405280601581526020017f436f6d7075746572204f7267616e697a6174696f6e00000000000000000000008152508152602001604051806060016040528060268152602001620021ef6026913981526020016040518060400160405280601a81526020017f4461746162617365204d616e67656d656e742053797374656d7300000000000081525081526020016040518060400160405280601281526020017f4f4f50205573696e67204a617661204c6162000000000000000000000000000081525081526020016040518060400160405280601e81526020017f45666665637469766520546563682e436f6d6d20696e20456e676c697368000081525081526020016040518060400160405280600d81526020017f4d617468656d61746963732d330000000000000000000000000000000000000081525081526020016040518060400160405280601381526020017f496e6469616e20436f6e737469747574696f6e0000000000000000000000000081525081526020016040518060400160405280601381526020017f5369676e616c7320616e642053797374656d730000000000000000000000000081525081526020016040518060400160405280601981526020017f436f6d7075746572204f7267616e697a6174696f6e204c61620000000000000081525081526020016040518060400160405280601f81526020017f4461746162617365204d616e6167656d656e742053797374656d73204c61620081525081526020016040518060400160405280601681526020017f46696e616e636520616e64204163636f756e74696e6700000000000000000000815250815250600590600b620007fa92919062000ded565b506040518061012001604052806040518060400160405280601181526020017f4f7065726174696e672053797374656d7300000000000000000000000000000081525081526020016040518060400160405280601481526020017f536f66747761726520456e67696e656572696e6700000000000000000000000081525081526020016040518060400160405280601781526020017f4172746966696369616c20496e74656c6c6967656e636500000000000000000081525081526020016040518060400160405280601d81526020017f57656220616e6420496e7465726e657420546563686e6f6c6f676965730000008152508152602001604051806060016040528060228152602001620022a26022913981526020016040518060400160405280601781526020017f426c6f636b636861696e20546563686e6f6c6f6769657300000000000000000081525081526020016040518060400160405280601881526020017f536f66747761726520456e67696e656572696e67204c6162000000000000000081525081526020016040518060400160405280601581526020017f4f7065726174696e672053797374656d73204c6162000000000000000000000081525081526020016040518060400160405280601081526020017f4d696e692050726f6a656374204c616200000000000000000000000000000000815250815250600690600962000a0e92919062000e54565b506040518060c001604052806040518060400160405280600f81526020017f436f6d70696c65722044657369676e000000000000000000000000000000000081525081526020016040518060400160405280601181526020017f436f6d7075746572204e6574776f726b730000000000000000000000000000008152508152602001604051806060016040528060218152602001620022156021913981526020016040518060400160405280601281526020017f496e7465726e6574206f66205468696e6773000000000000000000000000000081525081526020016040518060400160405280600f81526020017f436c6f756420436f6d707574696e67000000000000000000000000000000000081525081526020016040518060400160405280601381526020017f4469736173746572204d697469676174696f6e00000000000000000000000000815250815250600790600662000b7092919062000d1f565b5060405180608001604052806040518060400160405280601481526020017f496e666f726d6174696f6e20536563757269747900000000000000000000000081525081526020016040518060400160405280602081526020017f4461746120736369656e6365207573696e6720522070726f6772616d6d696e6781525081526020016040518060400160405280601381526020017f44697374726962757465642053797374656d730000000000000000000000000081525081526020016040518060400160405280601081526020017f456e7465727072656e6575727368697000000000000000000000000000000000815250815250600890600462000c7892919062000ebb565b5060405180604001604052806040518060400160405280601081526020017f4d6f62696c6520436f6d707574696e670000000000000000000000000000000081525081526020016040518060400160405280601781526020017f526f61642053616665747920456e67696e656572696e67000000000000000000815250815250600990600262000d0a92919062000f22565b5034801562000d1857600080fd5b50620010b5565b82805482825590600052602060002090810192821562000d73579160200282015b8281111562000d7257825182908051906020019062000d6192919062000f89565b509160200191906001019062000d40565b5b50905062000d82919062001010565b5090565b82805482825590600052602060002090810192821562000dda579160200282015b8281111562000dd957825182908051906020019062000dc892919062000f89565b509160200191906001019062000da7565b5b50905062000de9919062001010565b5090565b82805482825590600052602060002090810192821562000e41579160200282015b8281111562000e4057825182908051906020019062000e2f92919062000f89565b509160200191906001019062000e0e565b5b50905062000e50919062001010565b5090565b82805482825590600052602060002090810192821562000ea8579160200282015b8281111562000ea757825182908051906020019062000e9692919062000f89565b509160200191906001019062000e75565b5b50905062000eb7919062001010565b5090565b82805482825590600052602060002090810192821562000f0f579160200282015b8281111562000f0e57825182908051906020019062000efd92919062000f89565b509160200191906001019062000edc565b5b50905062000f1e919062001010565b5090565b82805482825590600052602060002090810192821562000f76579160200282015b8281111562000f7557825182908051906020019062000f6492919062000f89565b509160200191906001019062000f43565b5b50905062000f85919062001010565b5090565b828054600181600116156101000203166002900490600052602060002090601f016020900481019282601f1062000fcc57805160ff191683800117855562000ffd565b8280016001018555821562000ffd579182015b8281111562000ffc57825182559160200191906001019062000fdf565b5b5090506200100c919062001041565b5090565b6200103e91905b808211156200103a576000818162001030919062001069565b5060010162001017565b5090565b90565b6200106691905b808211156200106257600081600090555060010162001048565b5090565b90565b50805460018160011615610100020316600290046000825580601f10620010915750620010b2565b601f016020900490600052602060002090810190620010b1919062001041565b5b50565b61112a80620010c56000396000f3fe608060405234801561001057600080fd5b50600436106100625760003560e01c80631fdc5bb714610067578063358da2051461007157806384803cfc146100a15780638e053e95146100d1578063a3b5ef0114610101578063b40ea4cf14610131575b600080fd5b61006f610161565b005b61008b60048036036100869190810190610b38565b610393565b6040516100989190610e7a565b60405180910390f35b6100bb60048036036100b69190810190610a54565b610459565b6040516100c89190610e5f565b60405180910390f35b6100eb60048036036100e69190810190610abb565b6104a1565b6040516100f89190610e1b565b60405180910390f35b61011b60048036036101169190810190610b0f565b61058e565b6040516101289190610dff565b60405180910390f35b61014b60048036036101469190810190610b0f565b610687565b6040516101589190610e3d565b60405180910390f35b60026001600080815260200190815260200160002090805461018492919061078b565b50600360016000600181526020019081526020016000209080546101a992919061078b565b50600460016000600281526020019081526020016000209080546101ce92919061078b565b50600560016000600381526020019081526020016000209080546101f392919061078b565b506006600160006004815260200190815260200160002090805461021892919061078b565b506007600160006005815260200190815260200160002090805461023d92919061078b565b506008600160006006815260200190815260200160002090805461026292919061078b565b506009600160006007815260200190815260200160002090805461028792919061078b565b5060008090505b60088110156103905760008090505b6001600083815260200190815260200160002080549050811015610382577ffffffffffffffffffffffffffffffffffffffffffffffffffffffffffffffffe6000803373ffffffffffffffffffffffffffffffffffffffff1673ffffffffffffffffffffffffffffffffffffffff168152602001908152602001600020600060018501815260200190815260200160002060016000858152602001908152602001600020838154811061034c57fe5b906000526020600020016040516103639190610de8565b908152602001604051809103902081905550808060010191505061029d565b50808060010191505061028e565b50565b600160205281600052604060002081815481106103ac57fe5b90600052602060002001600091509150508054600181600116156101000203166002900480601f0160208091040260200160405190810160405280929190818152602001828054600181600116156101000203166002900480156104515780601f1061042657610100808354040283529160200191610451565b820191906000526020600020905b81548152906001019060200180831161043457829003601f168201915b505050505081565b60006020528260005260406000206020528160005260406000208180516020810182018051848252602083016020850120818352809550505050505060009250925050505481565b606060008090505b6001600060018503815260200190815260200160002080549050811015610584578381815181106104d657fe5b60200260200101516000803373ffffffffffffffffffffffffffffffffffffffff1673ffffffffffffffffffffffffffffffffffffffff168152602001908152602001600020600085815260200190815260200160002060016000600187038152602001908152602001600020838154811061054e57fe5b906000526020600020016040516105659190610de8565b90815260200160405180910390208190555080806001019150506104a9565b5082905092915050565b6105966107fb565b61059e6107fb565b60008090505b600160006001860381526020019081526020016000208054905081101561067d576000803373ffffffffffffffffffffffffffffffffffffffff1673ffffffffffffffffffffffffffffffffffffffff168152602001908152602001600020600085815260200190815260200160002060016000600187038152602001908152602001600020828154811061063557fe5b9060005260206000200160405161064c9190610de8565b9081526020016040518091039020548282600f811061066757fe5b60200201818152505080806001019150506105a4565b5080915050919050565b60608060016000600185038152602001908152602001600020805480602002602001604051908101604052809291908181526020016000905b8282101561077c578382906000526020600020018054600181600116156101000203166002900480601f0160208091040260200160405190810160405280929190818152602001828054600181600116156101000203166002900480156107685780601f1061073d57610100808354040283529160200191610768565b820191906000526020600020905b81548152906001019060200180831161074b57829003601f168201915b5050505050815260200190600101906106c0565b50505050905080915050919050565b8280548282559060005260206000209081019282156107ea5760005260206000209182015b828111156107e957828290805460018160011615610100020316600290046107d992919061081e565b50916001019190600101906107b0565b5b5090506107f791906108a5565b5090565b604051806101e00160405280600f90602082028038833980820191505090505090565b828054600181600116156101000203166002900490600052602060002090601f016020900481019282601f106108575780548555610894565b8280016001018555821561089457600052602060002091601f016020900482015b82811115610893578254825591600101919060010190610878565b5b5090506108a191906108d1565b5090565b6108ce91905b808211156108ca57600081816108c191906108f6565b506001016108ab565b5090565b90565b6108f391905b808211156108ef5760008160009055506001016108d7565b5090565b90565b50805460018160011615610100020316600290046000825580601f1061091c575061093b565b601f01602090049060005260206000209081019061093a91906108d1565b5b50565b60008135905061094d816110a2565b92915050565b600082601f83011261096457600080fd5b813561097761097282610ec9565b610e9c565b9150818183526020840193506020810190508385602084028201111561099c57600080fd5b60005b838110156109cc57816109b288826109d6565b84526020840193506020830192505060018101905061099f565b5050505092915050565b6000813590506109e5816110b9565b92915050565b600082601f8301126109fc57600080fd5b8135610a0f610a0a82610ef1565b610e9c565b91508082526020830160208301858383011115610a2b57600080fd5b610a3683828461104f565b50505092915050565b600081359050610a4e816110d0565b92915050565b600080600060608486031215610a6957600080fd5b6000610a778682870161093e565b9350506020610a8886828701610a3f565b925050604084013567ffffffffffffffff811115610aa557600080fd5b610ab1868287016109eb565b9150509250925092565b60008060408385031215610ace57600080fd5b600083013567ffffffffffffffff811115610ae857600080fd5b610af485828601610953565b9250506020610b0585828601610a3f565b9150509250929050565b600060208284031215610b2157600080fd5b6000610b2f84828501610a3f565b91505092915050565b60008060408385031215610b4b57600080fd5b6000610b5985828601610a3f565b9250506020610b6a85828601610a3f565b9150509250929050565b6000610b808383610cca565b60208301905092915050565b6000610b988383610ce8565b905092915050565b610ba981610f5c565b610bb38184610faf565b9250610bbe82610f1d565b8060005b83811015610bef578151610bd68782610b74565b9650610be183610f88565b925050600181019050610bc2565b505050505050565b6000610c0282610f67565b610c0c8185610fba565b9350610c1783610f27565b8060005b83811015610c48578151610c2f8882610b74565b9750610c3a83610f95565b925050600181019050610c1b565b5085935050505092915050565b6000610c6082610f72565b610c6a8185610fcb565b935083602082028501610c7c85610f37565b8060005b85811015610cb85784840389528151610c998582610b8c565b9450610ca483610fa2565b925060208a01995050600181019050610c80565b50829750879550505050505092915050565b610cd38161101b565b82525050565b610ce28161101b565b82525050565b6000610cf382610f7d565b610cfd8185610fdc565b9350610d0d81856020860161105e565b610d1681611091565b840191505092915050565b6000610d2c82610f7d565b610d368185610fed565b9350610d4681856020860161105e565b610d4f81611091565b840191505092915050565b600081546001811660008114610d775760018114610d9c57610de0565b607f6002830416610d888187610ffe565b955060ff1983168652808601935050610de0565b60028204610daa8187610ffe565b9550610db585610f47565b60005b82811015610dd757815481890152600182019150602081019050610db8565b82880195505050505b505092915050565b6000610df48284610d5a565b915081905092915050565b60006101e082019050610e156000830184610ba0565b92915050565b60006020820190508181036000830152610e358184610bf7565b905092915050565b60006020820190508181036000830152610e578184610c55565b905092915050565b6000602082019050610e746000830184610cd9565b92915050565b60006020820190508181036000830152610e948184610d21565b905092915050565b6000604051905081810181811067ffffffffffffffff82111715610ebf57600080fd5b8060405250919050565b600067ffffffffffffffff821115610ee057600080fd5b602082029050602081019050919050565b600067ffffffffffffffff821115610f0857600080fd5b601f19601f8301169050602081019050919050565b6000819050919050565b6000819050602082019050919050565b6000819050602082019050919050565b60008190508160005260206000209050919050565b6000600f9050919050565b600081519050919050565b600081519050919050565b600081519050919050565b6000602082019050919050565b6000602082019050919050565b6000602082019050919050565b600081905092915050565b600082825260208201905092915050565b600082825260208201905092915050565b600082825260208201905092915050565b600082825260208201905092915050565b600081905092915050565b600061101482611025565b9050919050565b6000819050919050565b600073ffffffffffffffffffffffffffffffffffffffff82169050919050565b6000819050919050565b82818337600083830152505050565b60005b8381101561107c578082015181840152602081019050611061565b8381111561108b576000848401525b50505050565b6000601f19601f8301169050919050565b6110ab81611009565b81146110b657600080fd5b50565b6110c28161101b565b81146110cd57600080fd5b50565b6110d981611045565b81146110e457600080fd5b5056fea365627a7a723158205223a8055eed1667e3ef48baa6abd400b07cfccd2400f72775f318f7273d78386c6578706572696d656e74616cf564736f6c634300051000404f626a656374204f7269656e7465642050726f6772616d6d696e67205573696e67204a61766144657369676e20616e6420416e616c79736973206f6620416c676f726974686d7344617461205374727563747572657320616e6420416c676f726974686d73204c6162457373656e6365206f6620496e6469616e20547261646974696f6e616c204b6e6f776c6564676550726f6772616d6d696e6720666f722050726f626c656d20536f6c76696e67204c61624175746f6d617461204c616e67756167657320616e6420436f6d7075746174696f6e426173696373206f6620456c656374726963616c20456e67696e656572696e67204c6162",
  "source": "// SPDX-License-Identifier: MIT\npragma solidity >=0.4.0 <0.9.0;\npragma experimental ABIEncoderV2;\n\ncontract Semester{\n\n\n   mapping(address=> mapping(uint256=> mapping(string=>int256))) public sem ;\n   mapping(uint256=>string[]) public subjects;\n\n\n\n\nstring[] sem1Subs=[\"Mathematics-1\",\"Physics\",\"Basics of Electrical Engineering\",\"Physics Lab\",\"Basics of Electrical Engineering Lab\",\"Engineering Graphics & Design\"];\n\nstring[] sem2Subs=[\"Mathematics-2\",\"Chemistry\",\"Programming for Problem Solving\",\"Chemistry Lab\",\"Programming for Problem Solving Lab\",\"WorkShop-Manufacture Lab\"];\n\nstring[] sem3Subs = [\"Discrete Mathematics\",\"Environmental Science\",\"Essence of Indian Traditional Knowledge\",\"Programming Languages\",\"Operations Research\",\"Advanced Computer Skills Lab\",\"Biology for Engineers\",\"Digital Electronics\",\"Basic Electronics\",\"Basic Electronics Lab\",\"Data Structures and Algorithms\",\"Data Structures and Algorithms Lab\"];\n\nstring[] sem4Subs = [\"Computer Organization\",\n\t\t\t\"Object Oriented Programming Using Java\",\n\t\t\t\"Database Mangement Systems\",\n\t\t\t\"OOP Using Java Lab\",\n\t\t\t\"Effective Tech.Comm in English\",\n\t\t\t\"Mathematics-3\",\n\t\t\t\"Indian Constitution\",\n\t\t\t\"Signals and Systems\",\n\t\t\t\"Computer Organization Lab\",\n\t\t\t\"Database Management Systems Lab\",\n\t\t\t\"Finance and Accounting\"];\n\nstring[] sem5Subs = [\"Operating Systems\",\"Software Engineering\",\"Artificial Intelligence\",\"Web and Internet Technologies\",\"Automata Languages and Computation\",\"Blockchain Technologies\",\"Software Engineering Lab\",\"Operating Systems Lab\",\"Mini Project Lab\"];\nstring[] sem6Subs = [\"Compiler Design\",\"Computer Networks\",\"Design and Analysis of Algorithms\",\"Internet of Things\",\"Cloud Computing\",\"Disaster Mitigation\"];\nstring[] sem7Subs = [\"Information Security\",\"Data science using R programming\",\"Distributed Systems\",\"Enterpreneurship\"];\nstring[] sem8Subs = [\"Mobile Computing\",\"Road Safety Engineering\"];\n  function seminitializer()public  {\n      subjects[0]=sem1Subs;\n      subjects[1]=sem2Subs;\n      subjects[2]=sem3Subs;\n      subjects[3]=sem4Subs;\n      subjects[4]=sem5Subs;\n      subjects[5]=sem6Subs;\n      subjects[6]=sem7Subs;\n      subjects[7]=sem8Subs;\n      for(uint256 i=0;i<8;i++){\n        for(uint256 j=0;j<subjects[i].length;j++){\n          sem[msg.sender][i+1][subjects[i][j]]=-2;\n        }\n      }\n\n  }\n\n  \n  function getSemSubs(uint256 semNumber) public view returns(string[] memory){\n   \n    string[] memory temp=subjects[semNumber-1];\n    return temp;\n  }\n\n  \n\n  function getsem(uint256 semNumber) public view returns(int256[15] memory) {\n    int256[15] memory  scores;\n    // string[] memory temp;\n    for(uint256 i=0;i<subjects[semNumber-1].length;i++){\n      scores[i]=sem[msg.sender][semNumber][subjects[semNumber-1][i]];\n      // temp[i]=semSubs[i]; \n    }\n    return(scores);\n  }\n  \n  function setsem(int256[] memory arr,uint256 semNumber) public returns(int256[] memory ){\n      for(uint256 i=0;i<subjects[semNumber-1].length;i++){\n          sem[msg.sender][semNumber][subjects[semNumber-1][i]]=arr[i];\n      }\n      return arr;\n  }  \n  \n}",
  "sourcePath": "/Users/sampathbabu/DApp/contracts/Semester.sol",
  "compiler": {
    "name": "solc",
    "version": "0.5.16+commit.9c3226ce.Emscripten.clang"
  },
  "schemaVersion": "3.4.6",
  "updatedAt": "2022-05-16T07:49:36.026Z",
  "networkType": "ethereum",
  "devdoc": {
    "methods": {}
  },
  "userdoc": {
    "methods": {}
  }
}