{
  "contractName": "SEMT",
  "abi": [
    {
      "constant": true,
      "inputs": [
        {
          "internalType": "address",
          "name": "",
          "type": "address"
        },
        {
          "internalType": "uint256",
          "name": "",
          "type": "uint256"
        },
        {
          "internalType": "string",
          "name": "",
          "type": "string"
        }
      ],
      "name": "sem",
      "outputs": [
        {
          "internalType": "int256",
          "name": "",
          "type": "int256"
        }
      ],
      "payable": false,
      "stateMutability": "view",
      "type": "function"
    },
    {
      "constant": true,
      "inputs": [
        {
          "internalType": "uint256",
          "name": "",
          "type": "uint256"
        },
        {
          "internalType": "uint256",
          "name": "",
          "type": "uint256"
        }
      ],
      "name": "subjects",
      "outputs": [
        {
          "internalType": "string",
          "name": "",
          "type": "string"
        }
      ],
      "payable": false,
      "stateMutability": "view",
      "type": "function"
    },
    {
      "constant": false,
      "inputs": [],
      "name": "seminitializer",
      "outputs": [],
      "payable": false,
      "stateMutability": "nonpayable",
      "type": "function"
    },
    {
      "constant": true,
      "inputs": [
        {
          "internalType": "uint256",
          "name": "semNumber",
          "type": "uint256"
        }
      ],
      "name": "getSemSubs",
      "outputs": [
        {
          "internalType": "string[]",
          "name": "",
          "type": "string[]"
        }
      ],
      "payable": false,
      "stateMutability": "view",
      "type": "function"
    },
    {
      "constant": true,
      "inputs": [
        {
          "internalType": "uint256",
          "name": "semNumber",
          "type": "uint256"
        }
      ],
      "name": "getsem",
      "outputs": [
        {
          "internalType": "int256[]",
          "name": "",
          "type": "int256[]"
        }
      ],
      "payable": false,
      "stateMutability": "view",
      "type": "function"
    },
    {
      "constant": false,
      "inputs": [
        {
          "internalType": "int256[]",
          "name": "arr",
          "type": "int256[]"
        },
        {
          "internalType": "uint256",
          "name": "semNumber",
          "type": "uint256"
        }
      ],
      "name": "setsem",
      "outputs": [],
      "payable": false,
      "stateMutability": "nonpayable",
      "type": "function"
    }
  ],
  "bytecode": "0x60806040526040518060c001604052806040518060400160405280600d81526020017f4d617468656d61746963732d310000000000000000000000000000000000000081525081526020016040518060400160405280600781526020017f506879736963730000000000000000000000000000000000000000000000000081525081526020016040518060400160405280602081526020017f426173696373206f6620456c656374726963616c20456e67696e656572696e6781525081526020016040518060400160405280600b81526020017f50687973696373204c61620000000000000000000000000000000000000000008152508152602001604051806060016040528060248152602001620020d36024913981526020016040518060400160405280601d81526020017f456e67696e656572696e6720477261706869637320262044657369676e00000081525081525060029060066200016592919062000d1f565b506040518060c001604052806040518060400160405280600d81526020017f4d617468656d61746963732d320000000000000000000000000000000000000081525081526020016040518060400160405280600981526020017f4368656d6973747279000000000000000000000000000000000000000000000081525081526020016040518060400160405280601f81526020017f50726f6772616d6d696e6720666f722050726f626c656d20536f6c76696e670081525081526020016040518060400160405280600d81526020017f4368656d6973747279204c61620000000000000000000000000000000000000081525081526020016040518060600160405280602381526020016200208e6023913981526020016040518060400160405280601881526020017f576f726b53686f702d4d616e7566616374757265204c616200000000000000008152508152506003906006620002c792919062000d1f565b506040518061018001604052806040518060400160405280601481526020017f4469736372657465204d617468656d617469637300000000000000000000000081525081526020016040518060400160405280601581526020017f456e7669726f6e6d656e74616c20536369656e636500000000000000000000008152508152602001604051806060016040528060278152602001620020676027913981526020016040518060400160405280601581526020017f50726f6772616d6d696e67204c616e677561676573000000000000000000000081525081526020016040518060400160405280601381526020017f4f7065726174696f6e732052657365617263680000000000000000000000000081525081526020016040518060400160405280601c81526020017f416476616e63656420436f6d707574657220536b696c6c73204c61620000000081525081526020016040518060400160405280601581526020017f42696f6c6f677920666f7220456e67696e65657273000000000000000000000081525081526020016040518060400160405280601381526020017f4469676974616c20456c656374726f6e6963730000000000000000000000000081525081526020016040518060400160405280601181526020017f426173696320456c656374726f6e69637300000000000000000000000000000081525081526020016040518060400160405280601581526020017f426173696320456c656374726f6e696373204c6162000000000000000000000081525081526020016040518060400160405280601e81526020017f44617461205374727563747572657320616e6420416c676f726974686d73000081525081526020016040518060600160405280602281526020016200204560229139815250600490600c6200057092919062000d86565b506040518061016001604052806040518060400160405280601581526020017f436f6d7075746572204f7267616e697a6174696f6e0000000000000000000000815250815260200160405180606001604052806026815260200162001ffe6026913981526020016040518060400160405280601a81526020017f4461746162617365204d616e67656d656e742053797374656d7300000000000081525081526020016040518060400160405280601281526020017f4f4f50205573696e67204a617661204c6162000000000000000000000000000081525081526020016040518060400160405280601e81526020017f45666665637469766520546563682e436f6d6d20696e20456e676c697368000081525081526020016040518060400160405280600d81526020017f4d617468656d61746963732d330000000000000000000000000000000000000081525081526020016040518060400160405280601381526020017f496e6469616e20436f6e737469747574696f6e0000000000000000000000000081525081526020016040518060400160405280601381526020017f5369676e616c7320616e642053797374656d730000000000000000000000000081525081526020016040518060400160405280601981526020017f436f6d7075746572204f7267616e697a6174696f6e204c61620000000000000081525081526020016040518060400160405280601f81526020017f4461746162617365204d616e6167656d656e742053797374656d73204c61620081525081526020016040518060400160405280601681526020017f46696e616e636520616e64204163636f756e74696e6700000000000000000000815250815250600590600b620007fa92919062000ded565b506040518061012001604052806040518060400160405280601181526020017f4f7065726174696e672053797374656d7300000000000000000000000000000081525081526020016040518060400160405280601481526020017f536f66747761726520456e67696e656572696e6700000000000000000000000081525081526020016040518060400160405280601781526020017f4172746966696369616c20496e74656c6c6967656e636500000000000000000081525081526020016040518060400160405280601d81526020017f57656220616e6420496e7465726e657420546563686e6f6c6f676965730000008152508152602001604051806060016040528060228152602001620020b16022913981526020016040518060400160405280601781526020017f426c6f636b636861696e20546563686e6f6c6f6769657300000000000000000081525081526020016040518060400160405280601881526020017f536f66747761726520456e67696e656572696e67204c6162000000000000000081525081526020016040518060400160405280601581526020017f4f7065726174696e672053797374656d73204c6162000000000000000000000081525081526020016040518060400160405280601081526020017f4d696e692050726f6a656374204c616200000000000000000000000000000000815250815250600690600962000a0e92919062000e54565b506040518060c001604052806040518060400160405280600f81526020017f436f6d70696c65722044657369676e000000000000000000000000000000000081525081526020016040518060400160405280601181526020017f436f6d7075746572204e6574776f726b730000000000000000000000000000008152508152602001604051806060016040528060218152602001620020246021913981526020016040518060400160405280601281526020017f496e7465726e6574206f66205468696e6773000000000000000000000000000081525081526020016040518060400160405280600f81526020017f436c6f756420436f6d707574696e67000000000000000000000000000000000081525081526020016040518060400160405280601381526020017f4469736173746572204d697469676174696f6e00000000000000000000000000815250815250600790600662000b7092919062000d1f565b5060405180608001604052806040518060400160405280601481526020017f496e666f726d6174696f6e20536563757269747900000000000000000000000081525081526020016040518060400160405280602081526020017f4461746120736369656e6365207573696e6720522070726f6772616d6d696e6781525081526020016040518060400160405280601381526020017f44697374726962757465642053797374656d730000000000000000000000000081525081526020016040518060400160405280601081526020017f456e7465727072656e6575727368697000000000000000000000000000000000815250815250600890600462000c7892919062000ebb565b5060405180604001604052806040518060400160405280601081526020017f4d6f62696c6520436f6d707574696e670000000000000000000000000000000081525081526020016040518060400160405280601781526020017f526f61642053616665747920456e67696e656572696e67000000000000000000815250815250600990600262000d0a92919062000f22565b5034801562000d1857600080fd5b50620010b5565b82805482825590600052602060002090810192821562000d73579160200282015b8281111562000d7257825182908051906020019062000d6192919062000f89565b509160200191906001019062000d40565b5b50905062000d82919062001010565b5090565b82805482825590600052602060002090810192821562000dda579160200282015b8281111562000dd957825182908051906020019062000dc892919062000f89565b509160200191906001019062000da7565b5b50905062000de9919062001010565b5090565b82805482825590600052602060002090810192821562000e41579160200282015b8281111562000e4057825182908051906020019062000e2f92919062000f89565b509160200191906001019062000e0e565b5b50905062000e50919062001010565b5090565b82805482825590600052602060002090810192821562000ea8579160200282015b8281111562000ea757825182908051906020019062000e9692919062000f89565b509160200191906001019062000e75565b5b50905062000eb7919062001010565b5090565b82805482825590600052602060002090810192821562000f0f579160200282015b8281111562000f0e57825182908051906020019062000efd92919062000f89565b509160200191906001019062000edc565b5b50905062000f1e919062001010565b5090565b82805482825590600052602060002090810192821562000f76579160200282015b8281111562000f7557825182908051906020019062000f6492919062000f89565b509160200191906001019062000f43565b5b50905062000f85919062001010565b5090565b828054600181600116156101000203166002900490600052602060002090601f016020900481019282601f1062000fcc57805160ff191683800117855562000ffd565b8280016001018555821562000ffd579182015b8281111562000ffc57825182559160200191906001019062000fdf565b5b5090506200100c919062001041565b5090565b6200103e91905b808211156200103a576000818162001030919062001069565b5060010162001017565b5090565b90565b6200106691905b808211156200106257600081600090555060010162001048565b5090565b90565b50805460018160011615610100020316600290046000825580601f10620010915750620010b2565b601f016020900490600052602060002090810190620010b1919062001041565b5b50565b610f3980620010c56000396000f3fe608060405234801561001057600080fd5b50600436106100625760003560e01c80631fdc5bb714610067578063358da2051461007157806384803cfc146100a15780638e053e95146100d1578063a3b5ef01146100ed578063b40ea4cf1461011d575b600080fd5b61006f61014d565b005b61008b600480360361008691908101906109e7565b610276565b6040516100989190610cb6565b60405180910390f35b6100bb60048036036100b69190810190610903565b61033c565b6040516100c89190610c9b565b60405180910390f35b6100eb60048036036100e6919081019061096a565b610384565b005b610107600480360361010291908101906109be565b61046a565b6040516101149190610c57565b60405180910390f35b610137600480360361013291908101906109be565b610559565b6040516101449190610c79565b60405180910390f35b60026001600080815260200190815260200160002090805461017092919061065d565b506003600160006001815260200190815260200160002090805461019592919061065d565b50600460016000600281526020019081526020016000209080546101ba92919061065d565b50600560016000600381526020019081526020016000209080546101df92919061065d565b506006600160006004815260200190815260200160002090805461020492919061065d565b506007600160006005815260200190815260200160002090805461022992919061065d565b506008600160006006815260200190815260200160002090805461024e92919061065d565b506009600160006007815260200190815260200160002090805461027392919061065d565b50565b6001602052816000526040600020818154811061028f57fe5b90600052602060002001600091509150508054600181600116156101000203166002900480601f0160208091040260200160405190810160405280929190818152602001828054600181600116156101000203166002900480156103345780601f1061030957610100808354040283529160200191610334565b820191906000526020600020905b81548152906001019060200180831161031757829003601f168201915b505050505081565b60006020528260005260406000206020528160005260406000208180516020810182018051848252602083016020850120818352809550505050505060009250925050505481565b60008090505b6001600060018403815260200190815260200160002080549050811015610465578281815181106103b757fe5b60200260200101516000803373ffffffffffffffffffffffffffffffffffffffff1673ffffffffffffffffffffffffffffffffffffffff168152602001908152602001600020600084815260200190815260200160002060016000600186038152602001908152602001600020838154811061042f57fe5b906000526020600020016040516104469190610c40565b908152602001604051809103902081905550808060010191505061038a565b505050565b60608060008090505b600160006001860381526020019081526020016000208054905081101561054f576000803373ffffffffffffffffffffffffffffffffffffffff1673ffffffffffffffffffffffffffffffffffffffff168152602001908152602001600020600085815260200190815260200160002060016000600187038152602001908152602001600020828154811061050457fe5b9060005260206000200160405161051b9190610c40565b90815260200160405180910390205482828151811061053657fe5b6020026020010181815250508080600101915050610473565b5080915050919050565b60608060016000600185038152602001908152602001600020805480602002602001604051908101604052809291908181526020016000905b8282101561064e578382906000526020600020018054600181600116156101000203166002900480601f01602080910402602001604051908101604052809291908181526020018280546001816001161561010002031660029004801561063a5780601f1061060f5761010080835404028352916020019161063a565b820191906000526020600020905b81548152906001019060200180831161061d57829003601f168201915b505050505081526020019060010190610592565b50505050905080915050919050565b8280548282559060005260206000209081019282156106bc5760005260206000209182015b828111156106bb57828290805460018160011615610100020316600290046106ab9291906106cd565b5091600101919060010190610682565b5b5090506106c99190610754565b5090565b828054600181600116156101000203166002900490600052602060002090601f016020900481019282601f106107065780548555610743565b8280016001018555821561074357600052602060002091601f016020900482015b82811115610742578254825591600101919060010190610727565b5b5090506107509190610780565b5090565b61077d91905b80821115610779576000818161077091906107a5565b5060010161075a565b5090565b90565b6107a291905b8082111561079e576000816000905550600101610786565b5090565b90565b50805460018160011615610100020316600290046000825580601f106107cb57506107ea565b601f0160209004906000526020600020908101906107e99190610780565b5b50565b6000813590506107fc81610eb1565b92915050565b600082601f83011261081357600080fd5b813561082661082182610d05565b610cd8565b9150818183526020840193506020810190508385602084028201111561084b57600080fd5b60005b8381101561087b57816108618882610885565b84526020840193506020830192505060018101905061084e565b5050505092915050565b60008135905061089481610ec8565b92915050565b600082601f8301126108ab57600080fd5b81356108be6108b982610d2d565b610cd8565b915080825260208301602083018583830111156108da57600080fd5b6108e5838284610e5e565b50505092915050565b6000813590506108fd81610edf565b92915050565b60008060006060848603121561091857600080fd5b6000610926868287016107ed565b9350506020610937868287016108ee565b925050604084013567ffffffffffffffff81111561095457600080fd5b6109608682870161089a565b9150509250925092565b6000806040838503121561097d57600080fd5b600083013567ffffffffffffffff81111561099757600080fd5b6109a385828601610802565b92505060206109b4858286016108ee565b9150509250929050565b6000602082840312156109d057600080fd5b60006109de848285016108ee565b91505092915050565b600080604083850312156109fa57600080fd5b6000610a08858286016108ee565b9250506020610a19858286016108ee565b9150509250929050565b6000610a2f8383610b22565b60208301905092915050565b6000610a478383610b40565b905092915050565b6000610a5a82610d8e565b610a648185610dc9565b9350610a6f83610d59565b8060005b83811015610aa0578151610a878882610a23565b9750610a9283610daf565b925050600181019050610a73565b5085935050505092915050565b6000610ab882610d99565b610ac28185610dda565b935083602082028501610ad485610d69565b8060005b85811015610b105784840389528151610af18582610a3b565b9450610afc83610dbc565b925060208a01995050600181019050610ad8565b50829750879550505050505092915050565b610b2b81610e2a565b82525050565b610b3a81610e2a565b82525050565b6000610b4b82610da4565b610b558185610deb565b9350610b65818560208601610e6d565b610b6e81610ea0565b840191505092915050565b6000610b8482610da4565b610b8e8185610dfc565b9350610b9e818560208601610e6d565b610ba781610ea0565b840191505092915050565b600081546001811660008114610bcf5760018114610bf457610c38565b607f6002830416610be08187610e0d565b955060ff1983168652808601935050610c38565b60028204610c028187610e0d565b9550610c0d85610d79565b60005b82811015610c2f57815481890152600182019150602081019050610c10565b82880195505050505b505092915050565b6000610c4c8284610bb2565b915081905092915050565b60006020820190508181036000830152610c718184610a4f565b905092915050565b60006020820190508181036000830152610c938184610aad565b905092915050565b6000602082019050610cb06000830184610b31565b92915050565b60006020820190508181036000830152610cd08184610b79565b905092915050565b6000604051905081810181811067ffffffffffffffff82111715610cfb57600080fd5b8060405250919050565b600067ffffffffffffffff821115610d1c57600080fd5b602082029050602081019050919050565b600067ffffffffffffffff821115610d4457600080fd5b601f19601f8301169050602081019050919050565b6000819050602082019050919050565b6000819050602082019050919050565b60008190508160005260206000209050919050565b600081519050919050565b600081519050919050565b600081519050919050565b6000602082019050919050565b6000602082019050919050565b600082825260208201905092915050565b600082825260208201905092915050565b600082825260208201905092915050565b600082825260208201905092915050565b600081905092915050565b6000610e2382610e34565b9050919050565b6000819050919050565b600073ffffffffffffffffffffffffffffffffffffffff82169050919050565b6000819050919050565b82818337600083830152505050565b60005b83811015610e8b578082015181840152602081019050610e70565b83811115610e9a576000848401525b50505050565b6000601f19601f8301169050919050565b610eba81610e18565b8114610ec557600080fd5b50565b610ed181610e2a565b8114610edc57600080fd5b50565b610ee881610e54565b8114610ef357600080fd5b5056fea365627a7a72315820100b51e2c03888006434569a7d0fee54022e9c04fb1bee1a37431017599622f96c6578706572696d656e74616cf564736f6c634300051000404f626a656374204f7269656e7465642050726f6772616d6d696e67205573696e67204a61766144657369676e20616e6420416e616c79736973206f6620416c676f726974686d7344617461205374727563747572657320616e6420416c676f726974686d73204c6162457373656e6365206f6620496e6469616e20547261646974696f6e616c204b6e6f776c6564676550726f6772616d6d696e6720666f722050726f626c656d20536f6c76696e67204c61624175746f6d617461204c616e67756167657320616e6420436f6d7075746174696f6e426173696373206f6620456c656374726963616c20456e67696e656572696e67204c6162",
  "source": "// SPDX-License-Identifier: MIT\npragma solidity >=0.4.0 <0.9.0;\npragma experimental ABIEncoderV2;\n\ncontract SEMT{\n\n\n   mapping(address=> mapping(uint256=> mapping(string=>int256))) public sem ;\n   mapping(uint256=>string[]) public subjects;\n//   [\"Mathematics-1\",\"Physics\",\"Basics of Electrical Engineering\",\"Physics Lab\",\"Basics of Electrical Engineering Lab\",\"Engineering Graphics & Design\"]\n      \n//   [\"Mathematics-2\",\"Chemistry\",\"Programming for Problem Solving\",\"Chemistry Lab\",\"Programming for Problem Solving Lab\",\"WorkShop-Manufacture Lab\"],\n//   [\"Discrete Mathematics\",\"Environmental Science\",\"Essence of Indian Traditional Knowledge\",\"Programming Languages\",\"Operations Research\",\"Advanced Computer Skills Lab\",\"Biology for Engineers\",\"Digital Electronics\",\"Basic Electronics\",\"Basic Electronics Lab\",\"Data Structures and Algorithms\",\"Data Structures and Algorithms Lab\"],\n//   [\"Computer Organization\",\n// \t\t\"Object Oriented Programming Using Java\",\n// \t\t\"Database Mangement Systems\",\n// \t\t\"OOP Using Java Lab\",\n// \t\t\"Effective Tech.Comm in English\",\n// \t\t\"Mathematics-3\",\n// \t\t\"Indian Constitution\",\n// \t\t\"Signals and Systems\",\n// \t\t\"Computer Organization Lab\",\n// \t\t\"Database Management Systems Lab\",\n// \t\t\"Finance and Accounting\"],\n//         [\"Operating Systems\",\"Software Engineering\",\"Artificial Intelligence\",\"Web and Internet Technologies\",\"Automata Languages and Computation\",\"Blockchain Technologies\",\"Software Engineering Lab\",\"Operating Systems Lab\",\"Mini Project Lab\"],\n//         [\"Compiler Design\",\"Computer Networks\",\"Design and Analysis of Algorithms\",\"Internet of Things\",\"Cloud Computing\",\"Disaster Mitigation\"],\n//         [\"Information Security\",\"Data science using R programming\",\"Distributed Systems\",\"Enterpreneurship\"],\n//         [\"Mobile Computing\",\"Road Safety Engineering\"]\n\n\n\nstring[] sem1Subs=[\"Mathematics-1\",\"Physics\",\"Basics of Electrical Engineering\",\"Physics Lab\",\"Basics of Electrical Engineering Lab\",\"Engineering Graphics & Design\"];\n\nstring[] sem2Subs=[\"Mathematics-2\",\"Chemistry\",\"Programming for Problem Solving\",\"Chemistry Lab\",\"Programming for Problem Solving Lab\",\"WorkShop-Manufacture Lab\"];\n\nstring[] sem3Subs = [\"Discrete Mathematics\",\"Environmental Science\",\"Essence of Indian Traditional Knowledge\",\"Programming Languages\",\"Operations Research\",\"Advanced Computer Skills Lab\",\"Biology for Engineers\",\"Digital Electronics\",\"Basic Electronics\",\"Basic Electronics Lab\",\"Data Structures and Algorithms\",\"Data Structures and Algorithms Lab\"];\n\nstring[] sem4Subs = [\"Computer Organization\",\n\t\t\t\"Object Oriented Programming Using Java\",\n\t\t\t\"Database Mangement Systems\",\n\t\t\t\"OOP Using Java Lab\",\n\t\t\t\"Effective Tech.Comm in English\",\n\t\t\t\"Mathematics-3\",\n\t\t\t\"Indian Constitution\",\n\t\t\t\"Signals and Systems\",\n\t\t\t\"Computer Organization Lab\",\n\t\t\t\"Database Management Systems Lab\",\n\t\t\t\"Finance and Accounting\"];\n\nstring[] sem5Subs = [\"Operating Systems\",\"Software Engineering\",\"Artificial Intelligence\",\"Web and Internet Technologies\",\"Automata Languages and Computation\",\"Blockchain Technologies\",\"Software Engineering Lab\",\"Operating Systems Lab\",\"Mini Project Lab\"];\nstring[] sem6Subs = [\"Compiler Design\",\"Computer Networks\",\"Design and Analysis of Algorithms\",\"Internet of Things\",\"Cloud Computing\",\"Disaster Mitigation\"];\nstring[] sem7Subs = [\"Information Security\",\"Data science using R programming\",\"Distributed Systems\",\"Enterpreneurship\"];\nstring[] sem8Subs = [\"Mobile Computing\",\"Road Safety Engineering\"];\n  function seminitializer () public{\n      subjects[0]=sem1Subs;\n      subjects[1]=sem2Subs;\n      subjects[2]=sem3Subs;\n      subjects[3]=sem4Subs;\n      subjects[4]=sem5Subs;\n      subjects[5]=sem6Subs;\n      subjects[6]=sem7Subs;\n      subjects[7]=sem8Subs;\n    // for(uint256 i=0;i<sem1Subs.length;i+=1){\n    //   sem[msg.sender][1][sem1Subs[i]]=-2;\n    //   subjects[0][i]=sem1Subs[i];\n    // }\n    \n    // for(uint256 i=0;i<sem2Subs.length;i+=1){\n    //     sem[msg.sender][2][sem2Subs[i]]=-2;\n    //     subjects[1][i]=sem2Subs[i];\n    // }\n\n    // for(uint256 i=0;i<sem3Subs.length;i+=1){\n    //     sem[msg.sender][3][sem3Subs[i]]=-2;\n    //     subjects[2][i]=sem3Subs[i];\n    // }\n\n    // for(uint256 i=0;i<sem4Subs.length;i+=1){\n    //     sem[msg.sender][4][sem4Subs[i]]=-2;\n    //     subjects[3][i]=sem4Subs[i];\n    // }\n    // for(uint256 i=0;i<sem5Subs.length;i+=1){\n    //     sem[msg.sender][5][sem5Subs[i]]=-2;\n    //     subjects[4][i]=sem5Subs[i];\n    // }\n    // for(uint256 i=0;i<sem6Subs.length;i+=1){\n    //     sem[msg.sender][6][sem6Subs[i]]=-2;\n    //     subjects[5][i]=sem6Subs[i];\n    // }\n    // for(uint256 i=0;i<sem7Subs.length;i+=1){\n    //     sem[msg.sender][7][sem7Subs[i]]=-2;\n    //     subjects[6][i]=sem7Subs[i];\n    // }\n    // for(uint256 i=0;i<sem8Subs.length;i+=1){\n    //     sem[msg.sender][8][sem8Subs[i]]=-2;\n    //     subjects[7][i]=sem8Subs[i];\n    // }\n  }\n\n  \n  function getSemSubs(uint256 semNumber) public view returns(string[] memory){\n    string[] memory temp=subjects[semNumber-1];\n    return temp;\n  }\n\n  \n\n  function getsem(uint256 semNumber) public view returns(int256[] memory) {\n    int256[] memory scores;\n    // string[] memory temp;\n    for(uint256 i=0;i<subjects[semNumber-1].length;i++){\n      scores[i]=sem[msg.sender][semNumber][subjects[semNumber-1][i]];\n      // temp[i]=semSubs[i]; \n    }\n    return(scores);\n  }\n  \n  function setsem(int256[] memory arr,uint256 semNumber) public {\n      for(uint256 i=0;i<subjects[semNumber-1].length;i++){\n          sem[msg.sender][semNumber][subjects[semNumber-1][i]]=arr[i];\n      }\n  }  \n  \n//   function Sem2initializer() public{\n//     sem2[msg.sender][\"Mathematics-2\"]=-2;\n//     sem2[msg.sender][\"Chemistry\"]=23;\n//     sem2[msg.sender][\"Programming for Problem Solving\"]=-2;\n//     sem2[msg.sender][\"Chemistry Lab\"]=-2;\n//     sem2[msg.sender][\"Programming for Problem Solving Lab\"]=-2;\n//     sem2[msg.sender][\"WorkShop-Manufacture Lab\"]=-2;\n//   }\n\n\n\n//IMP function to manage subjects\n// 0 -> Deleted Subject\n// -1 -> Failed subject\n// -2 -> Not initialized...\n\n//Gets the grade by giving points..\n  \n//   function getGrade(uint256 subjectScore) public pure returns(string memory){\n//     if(subjectScore <=10) return \"S\";\n//     else if(subjectScore<=9) return \"A\";\n//     else if(subjectScore<=8) return \"B\";\n//     else if(subjectScore<=7) return \"C\";\n//     else if(subjectScore<=6) return \"D\";\n//     else if(subjectScore<=5) return \"E\";\n//     else return \"F\";\n//   }\n  \n//Testing function\n//   function testDelete() public{\n//     delete sem2[msg.sender][\"Chemistry\"];\n//   }\n\n//   function Sem3initializer() public{\n//     sem3[msg.sender][\"Discrete Mathematics\"]=-2;\n//     sem3[msg.sender][\"Environmental Science\"]=-2;\n//     sem3[msg.sender][\"Essence of Indian Traditional Knowledge\"]=-2;\n//     sem3[msg.sender][\"Programming Languages\"]=-2;\n//     sem3[msg.sender][\"Operations Research\"]=-2;\n//     sem3[msg.sender][\"Advanced Computer Skills Lab\"]=-2;\n//     sem3[msg.sender][\"Biology for Engineers\"]=-2;\n//     sem3[msg.sender][\"Digital Electronics\"]=-2;\n//     sem3[msg.sender][\"Basic Electronics\"]=-2;\n//     sem3[msg.sender][\"Basic Electronics Lab\"]=-2;\n//     sem3[msg.sender][\"Data Structures and Algorithms Lab\"]=-2;\n//     sem3[msg.sender][\"Data Structures and Algorithms\"]=-2;\n//   }\n\n\n}",
  "sourcePath": "/home/sampab/DApp/contracts/SEMT.sol",
  "compiler": {
    "name": "solc",
    "version": "0.5.16+commit.9c3226ce.Emscripten.clang"
  },
  "schemaVersion": "3.4.6",
  "updatedAt": "2022-04-04T13:18:02.129Z",
  "networkType": "ethereum",
  "devdoc": {
    "methods": {}
  },
  "userdoc": {
    "methods": {}
  }
}