{
  "contractName": "SimpleStorage",
  "abi": [
    {
      "constant": false,
      "inputs": [
        {
          "internalType": "uint256",
          "name": "x",
          "type": "uint256"
        }
      ],
      "name": "set",
      "outputs": [],
      "payable": false,
      "stateMutability": "nonpayable",
      "type": "function"
    },
    {
      "constant": true,
      "inputs": [],
      "name": "get",
      "outputs": [
        {
          "internalType": "uint256",
          "name": "",
          "type": "uint256"
        }
      ],
      "payable": false,
      "stateMutability": "view",
      "type": "function"
    }
  ],
  "bytecode": "0x608060405234801561001057600080fd5b5061012e806100206000396000f3fe6080604052348015600f57600080fd5b506004361060325760003560e01c806360fe47b11460375780636d4ce63c146062575b600080fd5b606060048036036020811015604b57600080fd5b8101908080359060200190929190505050607e565b005b606860f0565b6040518082815260200191505060405180910390f35b8060008190555060005460026000600160009054906101000a900473ffffffffffffffffffffffffffffffffffffffff1673ffffffffffffffffffffffffffffffffffffffff1673ffffffffffffffffffffffffffffffffffffffff1681526020019081526020016000208190555050565b6000805490509056fea265627a7a723158207ad780a441adebf0594829a6205ad7430d4327338b12cf3720d5df7ca4ef96fe64736f6c63430005100032",
  "source": "// SPDX-License-Identifier: MIT\npragma solidity >=0.4.21 <8.10.0;\n\ncontract SimpleStorage {\n  uint  storedData;\n  address addr;\n  mapping(address => uint) mapped;\n  function set(uint x) public {\n    storedData = x;\n    mapped[addr]=storedData;\n  }\n\n  function get() public view returns (uint) {\n    return storedData;\n  }\n}\n\n// contract SemDetails{\n//   struct profile{\n//     string name;\n//     string email;\n//     uint256 phone;\n//   }\n//   struct semdetails{\n//     fixed gpa;\n//   }\n//      profile s;\n// }\n",
  "sourcePath": "/Users/sampathbabu/DApp/contracts/SimpleStorage.sol",
  "compiler": {
    "name": "solc",
    "version": "0.5.16+commit.9c3226ce.Emscripten.clang"
  },
  "schemaVersion": "3.4.6",
  "updatedAt": "2022-03-29T11:37:53.355Z",
  "devdoc": {
    "methods": {}
  },
  "userdoc": {
    "methods": {}
  }
}