{
  "contractName": "test",
  "abi": [
    {
      "constant": true,
      "inputs": [],
      "name": "name",
      "outputs": [
        {
          "internalType": "string",
          "name": "",
          "type": "string"
        }
      ],
      "payable": false,
      "stateMutability": "view",
      "type": "function"
    }
  ],
  "bytecode": "0x60806040526040518062031ec0016040528062031e9f81526020016200029562031e9f9139600090805190602001906200003b92919062000050565b503480156200004957600080fd5b50620000ff565b828054600181600116156101000203166002900490600052602060002090601f016020900481019282601f106200009357805160ff1916838001178555620000c4565b82800160010185558215620000c4579182015b82811115620000c3578251825591602001919060010190620000a6565b5b509050620000d39190620000d7565b5090565b620000fc91905b80821115620000f8576000816000905550600101620000de565b5090565b90565b610186806200010f6000396000f3fe608060405234801561001057600080fd5b506004361061002b5760003560e01c806306fdde0314610030575b600080fd5b6100386100b3565b6040518080602001828103825283818151815260200191508051906020019080838360005b8381101561007857808201518184015260208101905061005d565b50505050905090810190601f1680156100a55780820380516001836020036101000a031916815260200191505b509250505060405180910390f35b60008054600181600116156101000203166002900480601f0160208091040260200160405190810160405280929190818152602001828054600181600116156101000203166002900480156101495780601f1061011e57610100808354040283529160200191610149565b820191906000526020600020905b81548152906001019060200180831161012c57829003601f168201915b50505050508156fea265627a7a723158205816169c3338fc7d9c213b4bae99d41a1b985e726befc28cbd8f38f9124d19ca64736f6c63430005100032646174613a696d6167652f6a7065673b6261736536342c2f396a2f34414151536b5a4a5267414241514141415141424141442f327743454141304e4451304f445134514541345546684d574642346247526b624869306749694169494331454b6a49714b6a49715244784a4f7a6337535478735655744c5657783961574e70665a65486835652b746237352b6638424451304e4451344e4468415144685157457859554868735a475273654c534169494349674c5551714d696f714d69704550456b374e7a744a50477856533074566248317059326c396c3465486c37363176766e352f2f2f41414245494345414538414d4249674143455145444551482f7841436c4141414341674d424151414141414141414141414141414141514944424155474277675141414943415151424177494541676747416745434277414241684544424155534954454745304569555251795958455646694d6b4d304a5355334b524a54513151334f4256474a4559354b7856594a6b6f734852415145424151454241514541414141414141414141414141415149444241554745514542414149424241414641775143417741434177454141514952417751534954455446454652556949794d7756435958455649314e69675353524e454f4363762f61414177444151414345514d5241443841336d5851625248707a53532b4c4b66784f7a366672336f306a684c6d37626e4a742f646c584350325071346441382f2f41437650667136725072396f6e4e745a587973797357353752484731376b3263636c464453586448583544426e2f6c65702b377173323637506b5478747a6b2f326f5564333276484652584c6f355a30786653502b50346a2f6c65712b3772763472746d544831615a565058625735522f706254665a7a58474d6c34516e6a696c536f66386478482f4c395133385a374a6a6e3769795850376c32546374746c6a6c4333556c527a4b6a4558474e4d762f4863522f7741743146644469312b3136655047556d3255666a396f684e5370767670476c634968776a6236512f343768616e395835394f6a6e754f3172716e5475315272713253626d34724972547073316e74706469615879542f41492f42502b573672365a4e6e4237633463464a3256517837664233636d7a41345244676a587948456638414c64562b626f49617a613142346d336252542b4a327943714d57354e39794e4d6f4962684566384148384a2f793356542b39744d7339766c4f4f536d7049794a612f624f326f53556a525353596c46442f6a2b452f774357367638414e305574783271654b504b456c33354b705a39726c4638334a70654b4e4b6f525852476345542f6a75465a2f562b712f4e75355a3971654f726d3758545349354e5474325446782b745352706c436f6b6c48376a2f6a75452f774359367638414f4e78704d753359354b584c36693756616e624d3769704b584f4c4f666345366469397450736e2f41423345663876315638334e744935744e37736c79362f55627a364c6e4b334b7a574f4366794843492f3437684a2f574f722f4e7673476f326a4262626b334a557834636d305a4a7a6b357a6a39724f666c464d46486f76794845762f4c39582b626f564462566b65534770354e767447796a71647161686a6e6b7072356652787644775a474c426a63626c4a474d76366678482f4c395666376f364b4d6442475532382f4e572f704253322b4f48364d31503747726a6967313053396a456a68656a3434542b7139562b6362474769323255584c492b5466795a4d63653238464235585271556d766e716970596c4a33624d2f4b594e582b7139546637343648462f423463754c766c355a5a70744e74654a386c6c5474326b3263323431306d4a3437616266775435574a2f7741703148354f75573037627256637452464e5336566d4e72646e304f7179597365544d766f6936615a7a6646726a3954365a4e747674795a506c566e395536692b736e515053376269587379722f4148452f546d32354a70383339666e7335716154626137452b5438796c2f75792f4c78502b5436716656744d2b3037546f74525048376a5a7163753336434f61345a5a4f4458614846553332336633374c56434e4f2f412b57782b797a2b7164562b544b302b445153784b4c794e715077563439427448766534736a2b6833566c4f4f48432b4a584c4775626c5373664b343336482f4a3952396332546d77374c6d7a38704f536632737577614c5a49382b4756332b724e5a48444755724236524b626c34367031386d666c635073732f71505566546b5a373065787974504c4f322f686d52444474454e4c50544b62635a752b54386f3155635555715165313072592b57782b7a582f4a64522f354b334f6c65313658483754546c61376b79334a2f4435705650696a5172475239754b564d7679754a2f796655542b39745670746a3576334d6a625a5a6c304f3359754f58466b6c4437476d2f44716458344e6848482f527878536b3346646f7679754b2f387231502f414a454a365862736d52745a48464f56744756714962624f48423532756a58764246746c633855456e61745553394c6a396a2f6c75702f4e7334615061705261576439786f794e44704e73785a5a516c6c3577342f4a6f466a56576d7878754c2f58376d6230732b78663672315835756b306567304d5a3575476f536a62646659737762507073304a78773557376e664a484d516c4b504e2b4f586c6f796357664c43465970754b4a38742f672f356271767a64526a394a74715570355a576242656c7355595970536e334135574736377136682b4d6b5872654e3478536c6a793671344f4c4d2f4c356634612f35546e76764b756e2f684f6d6e46754b546a347179724636623053664b714f466a7174556e634e524e642f636279367958623165582f41484c387657502b52352f7a72753954736531344d646537545a5667394c61434374357a686e6b7a75336b79796e6658624a5a4d75705453656f6e785371724879782f795055666c5862362f3037704e536f5257732b6d4a68344e69326e54704b6575635645354665396a536364544f482f7373555a797875387370572b375a666c597a2f77416e3158715a4f7678374e7465664a6b34367035456f6c7a326e615a51552f7741556e424c346b636670316c78636c697979687956536f7a4d575044686877553237564f783871582b7164542b5459667750624d655a2b3372615751794674473334616634707558797a6e74546977537951655049376956796e4e3355325835556e3956366e3832386c7447312f69484c4a716d31497a382b786252714934334c553342654b5a794f4b4c6b3438357438585a644755342f527a626a66534a3842662b5536692f77423772384f79375248476f72565356506f797037426f4d6d4a79656162696351334f555847332f755a634e58713169574c385650685655533846502b52352f726e585576623974783433434f5a72397969576e327554584855707465546c6e377556796335747065434b78776a644e706d7030376e2f414d6831483575726e6f39726b3476332f4633325954326e303435724c4b64662b7a51634534385732567a77516c464a7270443561462f715055666d36544e6c3233456f78556c4f44364d62466f646777536c715953663165566667302b50466a6a53713159357754754b564a6b76547a374c4f76366a2f414d6c627a5550594d38597779462b5051656e7059314433614f596c6f566a554731355243574f4d6e483778384d6e79305038416b656f6e6a76727356744731354666346c795352442b41375a796c6c393262763473355a70747071636c38644d794a5a5a78555773314a394e47666c5936542b6f382b76354b36614f7a37504f456f504c4b4b5a5044746d30614f6c697975767563664f6372745a35307669796d55705a49726c6c6d312b342b55333947622f4146446d766a76723066446932357453576f69362b47794d397630476f666b3832574f4c564a792f657a4b68504a69696c444a4e4e6433592b563136632f6e655236426732335361655055306b6d5975736c74574e4e72556e49347035487a6c50557964727732596562476f34366236627673314f6d6c396c367a6b72656537744f57567a794e73636375327737783558566e4e4b6c344938712b57645a307542657635724e66523262336662567734536c61482f474e4a4e4f386c6f347155456c622b5278536a467854386c2b5678634c314f63727035362f54636c62664752504276476b77795846757a6d49776a313954706642592f626d6b342b5554356246723572504b6174646c6c332f45735631647377636d363656744c7335794b7455543970575a2b42466e506c5056644739666f4772354e53544c5a3733707134724a326a6d4a51536833344b4b69766855506c347558506c6c377271663435706f714c2b477947546339486e6b736a786e4e796c6963654c4570704a4c37493138764364526e5056645844647446467a58474d5a4a4b79313772676e62544f4f616a4a766f794d4f524b375878305067524c7a387474336b3647573536544b3147665a5a2b4e30456369397464306330386b4c486679696641784a31504c50376e5372633477757156736e4c643754547171374f5954556c55683563754f436153592b4447666d4d393737713348347a517869736968636d2b79636433306e4b4566612b4c54614f666934535353544d6a486a6847726f767759767a584a5a357a72667a33354f6f4c46305577336e54747958744a5078624e506c6c4355756d696c5367726f66426e3254342b66354e3750583431476c6a70436875384d63617851614e51387350625455625a524c4c7974636148775a396a34325833623265367764755256506373584b3434374e456e62746f755454526667786a347566354e782f4634644c3252766473626a79654c352f4b614f4c555a396c6a634b74496642782b7a587a504a36376d316c75574a74566a6357587264497978576f58527a376e666b5875394e496642784a7a572f56752f77434a345a4e58695a62506563536a4445386667304748496c616c43794f5263704e6f664278612b506e72786b336b4e337832347372573770747077526f653032672b7a4c4f4448374d546d35507057372f6938464b6e6a5852475738516b376545307161747452566a534e6642772b79336e354c377a626c627a4b4d57343432336667746e764f504a46536c67716b614353734847315448774d476365624c473732334d4e38784b7366346269577933705258396c54526f365464305035535a506759745a39526e6e2f41484f687a2b70703849516a68516f623169626434374e424a7148684a6b5575557238644434474a4f664f6656734d32373558507066515a4d642b7a346c474f4f716f352b5337424e4b792f417759764c6e627675626c2b6f395937547849712f6a6d64536a2f51526c397a566c76584877616e42782f5a72486e354a3679626a2b505464535742524c4a656f6e474b6837567566536b6143546138524d58334c6c344e34394a7833364d5a64567962627565385a6f3545736d4b4c3675305678337a4d70516b384d445453626337593556397a72386c78487a584e725572667a3955616c5372325975495439545a584a4b474248504b4b71364b6d315a72355068596e4e6e667136504236687a5935796b38535a624c31486c3933364d4556614f57624a4a394976796644396c2b5935746675645576566572676e474f6d67517a2b70382b524b744d724f5a73664b683870772f5a6e356a6d2f4a7531766d72383849706c3066556d3551715355546e584f78387569664b6350324c7a38392f756445765575756e4e63344a52484431424235717936643161706e4f4f71365a58646b76526356627736726d6e31643969334852354d716c484a542f5532337576497254545836486c6e662f6f7a7450757574306c72484a4f4c2b4765546b2f7031383343765268316c763733636172483730484276706e4f3559344d6165507a384766742b3459395678684f5843622b374e336d32725277672f37306d664d354f504c433673665836586e34396530646e306d4452365a38497276737a73324b4770565368476a6e4d387332683474715573626464436536356e6755384d4a4f7a6d5a546b79797973726a6145794e6b577a39632f4c7955374664454f78506b56765359726f535942644c464a4135575667524e4a386871525742725a714c6551755246414531456e4c7749585346594e4c49756d5262375a46734c433653556763375a454567616953717958586d797079516553476c6e4b6d4a7973722b5232447457637146794b2b77423278506b4e534941324455543542795257466b4e4c55773546616f4744537a6c5a4a53563055706b30564c697a386564704b6b5a4379715a72464b69794d362b614d5a59537557724732586749795267347337756d37526c7078386f345a596157565a785461374930784a3232364a706e487936536f4e454b624c6974703277714e4a4547574b4b586e734a6361364b714561375a5a6357714b376a5258377356463130797a47316935615a4c6b6f6f785a3534766f706c4e7964746c556a766a78733939724c777a66646f794f584e65545771544c4d57525162542b66426a50434c4d3747783471676a424970787a5464742f42597650624f47744f6b7a33466a6f6f6e534c6c4b50614d57626e622b6e72344e534a62556c6e7870714e757939535456325948474b7474646c696e433653372b54576b37717a593853764e6c787934704b754b706b4b53546f56343637585a4e4c74486b6b69467875724c58474e454a38453163616f6d6d70554736342f717939307642563036615152543574794a70706279344a5373726c4e7961626b52794f36512b6e5130624a4e457558614b3269636569614a5576715436444a482f37432b627366544975366c484b754c684a576d6a4c397944787868475067776e474a5a696f473136644d3132544b336b636e64726f7a355353544e586c6e626448626a6b746375542f6132475a3875526b4b646d723556325a6d4a386b62354d597a6a754d6a792b69616b30374b6558364575536f34616269376d7765564c704650496a5437593074724b57526a632b2f4a6a776c564b544c5734746f68704e542b4355705361704658564f6b43734a7172464f7159705a485a56666443623773614e316650504a31623849684761354a7372636f796145354a76705554534d6c536879624b386a3545593057557078625a4857656c4e4b67696b766b644c7567556575796f737838494e74766f6b7373664a474f4c484c35614979686a6736354e6b555379333378374b35796e4e554b545466516b2b796f68475664416d75537373704278692b364b7861632b79436f4c58775238746f715662616a305355754e536f727879654f5674575335644d43537933794a4c4b31354b59506b35494779614e333772636d614c49527966533152474d59744e30445845736b4f366f3253485361746f6a7a342f41587557496a7a623648376e6a6f4f5351303133434d306e326a4a6a6c78644c775938654c6661464b6f736d6f6e6374797a56313979752b54524650736c324e4730755454535a633873626956782b5530506a344d36546445727530525374396b344e58324c4a42726e54384b7762705357534c2b686653694d4f55704a565a55733253554b2b42786e4f4b74445455724d6c536930764a56556f2f545257732f50797144334879386a53724a78636d68786b72346735754e4e4662626c4f36444e53623766513146454a526c384a6a795355594a58324e4571644b2b6762566b59536a5356696d315962526c32566c6a38454a4669456c39675466795358614b654d764e6c53722b534a576a485a4f3651524b4c66616f684a5579635a563542752f674b72692f754e7a5877574b4d57554f4e57465263722b42754e6935646541646c694a53784e655a4c3930513574533430365a4f386e464b69467671313848544846693070386b6e3352694c70466d576273715a33786d6d526245324a6b4c4e72497357535369347277516f6a66594f5161306259575259724336546c6651584a6b4c5a4a454e47686b6243776d6b3077386b4c4a643055735362434a43782f41326d6c2f7743735a564c345a3157333772504c4651797a6a7a537150366e48785a5a696a4a356f75486c646f387655394e6a7934322f56313465533865552b7a76732b624a6b3037787647337938474e6a306d5659567a78744d74325063316d754d6b6e6c52306d585559763731667166417a343768624b2b357863387550695048326b6c3549456237476d6a39552f50614c77304e7342425442396f517770554d5667417844455461476e5137456d497578496a59434370576d495141537356324b68674a6a41414634485943416c596d41464373646f56416b51384142694161415967416b69434a6c536e5a4f4c73724a6f4d324c664262436254717a47736d6d5379567a735a3064513378564751736b57764b4e57704575534f56347054646a5a504a466445666478322b7a587a6e59755348775964315a2f75785934354952556a584d646a345558757136553079707949324a794e7a4752504e71466a5972514e686f305734316252434c6a315a6237696452582b354c47617934714e57536a4a454d5063576e392b6d574e786a30634d73664a456e4b486d724b355454645552556f7431544c467837526e576d35564d6b35465046715466796a4c6137363749754b56386b5755734a356364525555372b537563716149796648776a4a787978536a3958624b467954642f464135526c344a33462b43682b544f6c326b315443556c4e563461524f343843714b5632513268785a4f754e45326b6b5775446c6a344a585a6c754d56396a6962534767784c464b65584e46564878665a72314c44384a74426f6e487854456e626651334b50775159533161436446584a55506b45327435785a7273692b706d53332b706a5a6d327a72782b474d764b6c6f793850535269343762526c74714b68534e35364679665a4a51696c354b3230715a4f4b3674484772452b754e44557136494a6353546c4638552f4a476730764b457535555135554e5356325453726d3054556f6c5363666b6c3950684452516d6d77704e435666596c30305268446975672b5174456c544370704c79466b564c706c546c49614e725853386b564a6430516c62456d4e457938724d626362364b703235575750496f6c546e59307664446b367168526d72716e6633494e74717667665458526447325447534b34394e6b4533396849695550794e536a796f5074525938546a546f7164704b546b324d55656b374c497a545158527866487969715854486b6b354a6663616b3669334641306e69377066497070575465524a7158465759726b3759694a4d61377372746a75693651366f6d32716651314c36534b374163587853594e386e3251584c766f6c32316252454a6f567956456b3030574b754e734b6e6a6c2f69453530324a443478712b5247696c4a664135354f6c3138454b73556671744c34494b32315259704c682b706b59644a6b796c5766446b684f634838425748335a50355a734e4a6f5936685365544a775554456e697163754c744962445462704d736850744b69714d4a417570552f494e737a4a6b5555593873626b4f4c6b35523551556b6e344d7554684e74526853434d4278636667457936585877557a556b7251554e6b45725932784f544b42746f507a496735466b4146515745724d6a487879635970554659396a3547666b773665454f537957333847746b3134694657786c556972366f386e35746b4f37585a616e39697074556c496e33385248796439684b546358516957684f64646f706d3552692b586c6b34536c77567673787375527a53733947456336716b794979445a32496c474b6b704e7a7269756c39796c3973567577374470496667694d61365156477831592b684144386a49734552544541414d6e7964554a4a31594d4d2b4b585a496a597242704f6d573435635a786c38706c566a734a6473334471703662564c555930334c77306a65376e69315874777a596338716b724f57556d6a71646e7a517a344d6d4c4d334b55543566586355314d6f2b6c30484c4a6e4d636e4a4d43766b374a585a3952344e4a574d686147696f594a696f4b4b4a41684a6f5a454d4f6d6871537032684e6b51673845722f4145424f774955496d7763585630615861415741776f4151674a6768507341686973566741777361515541315643426553564b6d455147676f434b646959494c4b454d535a494358674c496a444b524f315257333048494a704f79535a58354662544361584f694a477735424e4c434e6b4c45435970324e7455514169364f78415243794a4175684335415a654c5078564e46367971624e645a5a4631386d62697a6357306b344b4b2b786a4b62545a56376e30307a4930376a7974704d7863644d656473694f536f7470585a444c4a5356496e423078536c5839327a6b3662384653634b5a44696b72525970506a2b55696b6b7534684e716e6b702b43794f525353566468537677546c4748474c6975304b687878383132756a597930437759566b7954536d343951527238633575303430696267314a7a63705072704e6d6131454a316156462b6e31634d4d31615866526a536c482f4142646c61715068575a303133615a6d71745a4c564e79566d46474d716c63615a5938726457697a35704264716c446a545a44703352664b4a444a48696c5343464b4d576b30697235716961637668426162436f30715a6a31624d70716971586b314b7a5654696f4b32584c77767352354a644f4e6f737a5a49546e394b536a564a472f6162695550623853665131775461544d64556e344a63344a3944743275317a794b716f696e386b506369794c6c326d6832486373624879742f6c49326e546f733577537050736e6131734b532b58524b4c492b5964727369704e66424e4a617459526c325658386c6c326a4e6a4f303354624532523555694e763745585a7275513576746443757863374b4a65524451724156436f737672774a3242536b724a31586753644e71683031454b554a6473546b6c66566f562b656852365645566c594a346c6b6a7a585242354f5466545352564879714c386d4e3471542b55476f6970576e61427238744656396c722b414950766b4f365646626d37384262734a745a7a49536b706555522b6579636f53677671586e746673574d554c77486d67525a47462b43694674494d62644d6c4b4e524b6f796159466e5a5a395452573550374534536447616755487973795934314b4c693132797545704e3951624c5a776c584b5671694b726c44692b4e3152545335585a624e536e5a5a68774f636f7153362b2f7741453233456e70353435592b61726c5452627173664343794b506e6f79645a6f4d726a42787a2f556e5845727761584a6d6a4f4f544d6f526a38794f647962306c4a6535706357565434796a31782b57517a51554d63553570796d5872523764686a557466395356746b6375665a385335504b386b69624b7230576e57584f316b6c4a51537430536c69686b6c6c554b5549767979794f66624a51556f616d574e79383333524c4c68776346445436705a472b324e7070723559484b7052644a65536e32707979644b7a4f77364b553572462b4b63623832676e70387542742b594b644b5272755a37613130316c78317956426a7a75575a51636136757a4a314b75533539305134314e546f31744e56475475364d664a4b564a66426b2f564b637670704d784a326e78666b73556c3252356655506c784b334b325554636d35654652506e34564643365a6643504f366f6f64394d6733306d764b4974753661424e67547554565349385733517032523978704264695830796468792b534d753759346f4964676b3052376a325354756b574d56566c644e4978354d7579744e2f7359376173396548706d465a584a73736c54614954586d6a54654b736145416445724275794b646a436152474a6f566b61534434424b775951574f3352416b6d69465a474e76326369667a56464e69746b6243534a73694142556952456164426d725575724e337345345233474f5049365751304b6c315262687950446d78356b726c46394844714d4f2f6a796a58466c634f54472f77435749774a56394e6b657a3142496d6855414b64414169496c513651574151554446594a4e2f426b53694e6878702b43507a593068304c6b3071446c59697173787a6972754a42396945553042444171675949477941595741796f5668594a423041786541427342683438674b79426749566c4177746b685746466b72494453543867507343544930475435414b6956414e674956684e4a415241476b724154454453516841464d5136454249453339685754692b7159536e64496d704d676d683152474b7959356b6d79627a715268664c4a4b4c5a4c684531706c526d3233325a4d48612b3567716f655a463731436a46564b6c526a4c426c6b30506f6f576f70576c5a61386e75314b6b7630527873735756627a704654796646697032326e3151347548566f7931734e342f48795234646c736e6a586645706558736171577079672b7569614b355a56464a664a4f4d6f31327964755832616c6874396f6e4a6f725530322b2f41705a6366616162486266737534536c447373777830744e5a5666324b63733850484837623766356c396969556f7837534e7a4330376f795a7055714d5a6c587579666b684c49627834366c75302b66775171697454374a75584b6a7032732b567137666b726654594b52467a456d6737592b5646566b35556b716439464e4d6c53556c30517063726b53687839756372706f6f3978737a705754504a3071516e4b30564a3257497a594a526e6446714b4f537277546a503666735a735262466f626b55667354556a4678496662376f564232674d744a4c6f6d7145753052543766515665516b6d4f4c49386d2f7742694b49566173553564793636544a306c614b3539727946562b5163557633436d67743042464a71364c4535532f4d4e665a324553716646456e3146756d42573350744b544946647677787069594a6c51507369327874557569455974684c44746c73472b4c51754c696b2b69446b3056463331706470717969664b36524c33386a7236726f6e302b3246317338637571614c507a50696c32512b33524c48796a4a534d305a32473844542b52355a797950366537665a434d726c6372706b64525046696358446c625a6971795936624a4f61676d6c30537a365050505365314364635a5732694550646e6c7770546c58683057366a484c426d7879686e62684a6e4f32756b696543575044776c6e6e635630333873773978312b48555933677751616866624c4e5a6d774c4437636c2f535076384151776357505178784c3632736a622b6c6b626b32312f4653615437645557764239484c68535836473432375a70366954797458434c4f706c69305044684c4647306a467a616e4738346c6a5453364c4d4d33686478386e5635396e686b2b7241366b2f686e503539466c77537563576d764b5a636374733559615a2b445659395a6a2b7465336d526a504a724a793969704e4e306b61395a5a516d707234374e337064526c316d4f453531476356356962594e625a715a34376e6d6a4376755948394c504c77354a38657252734f574f5839746d6b55513075484370357365565354644b48794e705973696e665a6861714b39784e47564f33434532754b64305954387532627852524a664e456258324c484e574c6f3649725859343362566b7161424c37674e65534d7630484e4f54364658514e49303051615a4e702b424f77614961436e79544a66505252435359717133587753626667684b2b4a72483235316979646b47365a4b5256355054505334784e795256624778476d3543414349614f777354424d4c6f375967475a43414c45464d61496b676c42483548324d4151377356414249646b42684e4a57546a4a4a70746c5a4b3637626f6d55384539784274686143524536455359686f474177456832414259776f694554556b6855676f4a64556e4a694a644343684e665956674941474155415767414c4b41474d41496a415941672b344359416d416873676145487941445641512b5273476b6e304951413059574165414a4b6958524377734a70497478597035464c68472b4b746c4a62444c6b787153684b72564d4971474e4d4c514551384d6249734b643246694142327751414172646859425945724a4541544b6d6c6e67563945334f457363456c556b3366366c544969616b6b533533344b7577706c4f324c7254564d56704541595a307554737949755555596159376c586c6b754d724e7862486b3151766372344d42546b4e5a476d596e484e7063636d55387a544b705a6555724b3553636d49334d4a445833544a4a76376c536b575274744a65525a43786279364a342b4d354b4d6d6c5a6a7552584b56736d6f6b6c7162366c4a4e2b475263784543787252755246674257394244454b774a6368326d566a496153644168444969584a6f53454e45466b4c53485a574e304e4d725530547530554a30543545306c57706a52547a4a7074737a594d6937516b6d4555574a6f34313067696e61484b6e50727753472f77426a4c576b55717569536449565358775166325a4452796b79416d70426449454e507569446c3556456c544731335a565466396d6e38696a4a30303138454a5464555831465269303774414b33524755724b355037417577453052646c6c4d476e39774b376b69556e30464d586e73415859764c665172707569654e314a74726f724b71454775556d766b794953715645357a682f364b6d343364734c4537626c5877546a4c345a564849724a4a7131586c47527459714c53495a4932705575305559357962744a32575a493549797475724d56714c595a48434c536a6332764b4c74504256504c714d713452666772696c4c45366b2f63526a7868482b6b553474386b63323244754f6547665574342b6f5652684f5467303478746c32646347304b44534e536543585664446f397779616644786a4a72355a6a612f4c4c4e4b4f5a4f537466444d50464f4b745356784d6d4f6b785a5071686d61762b363265664c43797538796c5a7533376a71464b454a753866332b555a32726b74637267314b764a706677654658657434702f59774f55384361686b3662374a6a6a646d56384d567135552f75305a2b6b6d735752586646716a43373831386d77322f4e68785a4a2b37446e7938666f65683576717a496165475855573876474a504c686c686c50684c6d6d6933326f54546c664641314f7173794d6459323950474d706f312b614c6734525572667962474d4647584a396d4531796c4b33327667336961596c44616f6c4a6f71376b33326449796b75557154432f684234516c325553566b694866466b306d6b72436f30516c462f444c71494e3046504a6a6c465276726b75696c71534a5363704f4c6238654279645557625a756b614b386b6b725264504a69574e6565545a72386a2b73373459583278664e304a4c6f716430533545477a73314a53454f7842734363514741714553455a564562735977625141414367426a594348596d4b674a4238304c7753697266624348517137485a4668456f72352b435354625358795169374c4847585468354d322b4b54786c4e713745325a47534f474d59634a5831326a48717a71536d494b414b4c41417032424a444651496a4a6a59684d424459674369674141414c44735144416147554958675977694e674d5155416c597867414347524149485a4673454e6832413162436b424b6743494252495436436d41494168717773414346625157786f545155307873694e4d4146594d4b4164685968734141513041774141686a4a5167357a6a424b3233527348744776546a574279545a4c5a50645a6131583841374e73746f3342582f566d4e624c754846503265324f2f44383465667330347a63667754635634307a66384137497a326a58517554774f68333866357733667457714332546e436347314a55514e6f666b454a5838477a302b32367655515468686246754d3933513134473365793768306c6742374a7543702f6835476669636635784f334c37567143554a4f4454586c4730577962672b7659594c5974795374345753386e482b634f322f6174584f54626249646d5471644c6e30736c444e6a635a45744c704d32716e786775787561337677656d4a3268306256624c7554622f6f4b514c5a64772b6364496e784d50796939755832616744632f77545838597459796a5537627139506965584a436f69636d46395a526458374e614a74425955714e6845694e41674a447379394a6f637572636c6a66614d353742754e395156484f386d4539303762576d47627037467231464e51516677545854707143535a506959666c4537637673303457624c56625271394a696338726930617447706c4d7075564c4e4a716d4b7752626a787a6c6b68465262636e384332524e497057693646664a7438577961724c62554f4a6e7630394f55592f444f47584e6850376f7334383739484f7274304e7861374f786836652b6c4c33556876302b313073714f46352b50386e58345663692b5651667779794d5a7677724e34396831796e4f48304f506d4a685430577130742b35437675575a3433316c466d466a46574f5367707678794953706b336b73725953712b3056397676697939786b67684f616c5556566f30777832795474784e2f6a3254565a6c43654e526357766c6c79394f36703275534d586c776e764b4e3975583263326c4a6642626b36696c523048387636785469376a51352b6e3955367161386b2b4c782f6c46374d7673356d4b4764452f54327174506d6954394f36707671534c38586a2f4b4a6363767863326c5a4370535a302f38414c6d7156314e4366702f56306d6838586a2f4b48626c2b4e63336b5453364b38616e4c707870473931577a613344546a46744d31465a597555636b4a51612b35715a5933315a57624c4c35694573646543445a63335a536f536b3353736f67335a4b4b6137366f762f43616e6a7a5746754970506a3034564c374d62616b564a39506f7367694b6444354f69476d5844782b706d596f3548434c35576c357331756d6c65524a756a59525534354c744e48504a5a467363304d65565771544d6a2b32584a56782b4446554f632b56585a664744583070306a6d3031753436546a474f574d6f7637712b7a5678586c48523559616644482b6c6c336b3652724e546f73326e547953696e467670706e544773324d42742b454e546d6c32787275566473476b5779556c73564a2b45724a54384a736c78643952737970614c50476f7a672f717169616b5864724767705453564d335769306b595a4f556f57334568705976426979386f4b5531564777776172446b687934754d3135697a6e6c566d6c726a6a34744d6f6b6c3458524b55313566534d61616561366b306f6f7a46714c54672f714e5871464635484a53615a6237696e475575544d6162626c5a31786a46566650624257714a4a4a655632434f69422f4a47504e73636b314a534a756134766956424e6359554b355354703030563976354a32315957484c4a4c776b4a324673567346702b7a4e592f646166466c453362737a34617034386338625671616f313075756a7678593763732f707042794b4a74746b6d7945757a304c6a455779494d435631674151724970324167416b4f306b51465a44523244416677424541517771555846526161372b42454173476b6b4168674447416767746a585a4561494a58526c59716c4758666778693643365a6a4c31576647352f74535262473249377142396a70423241435130496c44414542454642517832424553544a31596b67624b67474143454179674378554d4244566a45554d69507a514149415956595649566742454464434273417045314c71694941396e59757745674a414d5151414e44414166674c45524251554142555356694377416b4a447341454141444156417968324d696951526e6142714774307a666a6d6570707635504b7444786573774b587a4e493959706e7a2b75757269366355337331524b684b4c4c6b71506e64312b37315447665a5678495356475251704a435a5863544c4357504c7436777648754f62716b31615271614f76395461586a4b476f52796677666436665076343558677a336a6c59554953794e516a35665350554e7277666874446778664b567338363045464c5659492f4c6b657159347052532b796f3876583536314858686d3755346f6c524e494b506c3776336576746972694a39664c4c32564e466c76334c6a484365713463395270766871445a69374c6d68703964695464636a5a6571736165665279582b466e4d516c4b4d34546a314b4c7448312b4b643354536634664f35622f414e6e763158717976355a4a524d5452352f784744464e2b654b737a54356557356248757731635969346d487138507661624e69615435524d3869313254444b34355337584c47617279444e69654f63342f61545255627a6673457347345a463854375270456a37324755797778792b3865432b4c594b734f4453436d575934387077683879616a2f75584c784b4f33394f3657554e504c4c4b726d644f6f6d44742b6e6c70394a697876796b624a492b487a5a32353237653744445569484569346f7549507430633561315a4a4b343331506d366869684c3930636a4647313358493875737a793532726f316b56636b71753352396e687837654f506e5a356432565a326c30656256546a44483538326567614c62634f6e78512b694c6e58636972613942485334494b7533464e6d35536f38485563397975706645657268343954645255612b4361695441386c74643951306b4f684a6a544d6d6f64464f6244444c584b4b614c686957796d6f35446464706a43447934593147376b6b63334f6c34505470704e5530635076656d574450376b5966524939764279334c394e65626c7831356a54386d79584e5269376932596b70533546716e4b75764c506232504e332b336f6530632f7757486c396a624a477432742f774253774c37526f3261506a3876373876384162333855336a6a5251554d527a647451554642595744554642517742714930612f5762647074586a6e444a696a32764a73674c6a6c636275564c684b3878334c52354e446d55477570654446774f58755253523644756d6a78616e54793577556e425845383874797161564830654c6b3738586c7a7737616e6d314770672b484b6b6e34526a796d386b35546b336249755633624663666b365268473035456e5a47504733587953554737642b4367696c6653374d2f424a58546668474c43436c3070552f6b723576464f2f4c73786c427631427755736956775934536337744e474248504b615555366a38497a366b6f52664a557a6b30726c6a35344a7761545a5a6877777952556330716b6c5555324b446275676479707a586141712f443463484f6552556b59757130754678575853767158777a506b6e6c584761754a666a6843454f4e46376872394b703447326f70746f655858366a4479633163572f4e58526e4e4b58465136706b2f626934754c66526d35436a535a49543069636f66584a327962686934716f726c66544a79686a536a48457670586c6d5031435863756d424a5a497962553476706d4c6d7a592f7178526252626c7952676d322f704e5a6d397238384a3366776178694b5a786843546a447759373558354c4a6665797639547447644a5866545a506775715a4252564e73634c41452f6747697a496f50486a2b4a664a4375696f68516d6d6879706542713255684a757577437259476f7a6b726d55795a644a32555350566a346a6c5061715244736247703146716a547367304a6a496b7263414341697043454968704c6f4244416a594347464169646b62415177414148304877494173594177416668694852454e7374693358534b444d787065336166646d4d765654573769785171774137416f5968684143564445514d5168685167414b6f496467784441425073424146425137477579684954423268304646434a434341414142445168674d514177436850794e4d4741436f6b4a674b675144734b417473414341596b7759443643694b524d4641435971494267417745676f424150735673592b6969492b6839425341435374647346524b637554696c3452555a65696356716346713035726f3961696c3158696a79505374505559452f38414d523637426452372b443576582b385858702f655331525249534a487a587249684a46704667633576384c322f4b2b46754e4d383872704872657178527959636b5a6548466e6c6d5748444e5048583557306657364c50654e6a7764544e5a537474366377383977556d756f785a36484535503031706b76637a2f667048584a486c367a4c664c586670352b69564a496c51364138636568476975534c69755153754a39555573326c2f534c4f55644a4d36723153702b397048386357636d2b6b666236622b444638766b6e2f5a6b37663039716e4f45735576684855493831326a565042724d55727050706e704d576d6b302b6d654471384f33506231644c6c7647792f524b684e4567717a7950553548314e68682b48575755657a68365055743030377a364c50437266486f387571636255315452396a6f382b376a31396e68357072496a596262676a6d312b6e542b4a4a3059434f70394e36654f54506b797546385939534f76506c32386556637364334b52334d45306930676d545068587a612b6c50534c4e64754f5a34644a6c794a30306a5973356666395a37574f4f462b4a6e58677837383548506d75734b3475632f636c4b54564e3973324f7a36654f6f31304957315831477038327a642b6e3570376c6a2b2f426e3265576476446c7237506e345439556568784c5556784c55664376757671592b4d595a7239783171306542792f7650776241315736614636334477552b4c7375456c796d2f54484e33546a793766626e56766d75556f314a63546536446476784d6c4761555a50344f6479624c7263536254357047436f616e545a6f5a58696d6e43535a37387548687a772f547262356548507a38664a2b752b487064685a7263653561624a6a787a655252636c34595a647a30574b7557564d38487738393637612b6e4f586a736c3734324c5a6f4e2b77724e6f70332f644c31752b6c6b326f794d4c58627270486779342f6d534f334678386b7a782f5466626c796376486362724f5677793753374c595559376c32536a4a7032665831346542366274456e4c513454624a6d6d326155486f635846556264487775576638415a6e2f743958692f6a7854453241725a7a627258366a63634f6e6c5535474f743477767856484e6232355939666c71542b704a3061685a5a48304f50704d63734d6276322b5a79645a793435355447545572306244754f6d7974525756636a59706e6c3247636f79693036647273394b7779355973622b38557a7a3952776643732f7939585339526c7a544b5761735a41684a6a504d39614d753154566f38793347455936724e434b704a2b45656c7966366e6d6d35715564667150746137505630337576507a4e5a4c36554e6361427473535555653177694e30773553453033496b3656314942646566444c6f342f6437586c4b7968393053546366446f574b746c4f574f56456f5a636b386b62644b7a4865524e704e646f664b6c305a75493232746c376155597a382f4b49343952434d563956756a5670747974794d69474f4e717047653170766365574c677053704465584861696d6e624e5a4f654e2f54792b444567343870546376792b455937533130484263757064695456315a705a36704c4842526b314c75794f50584e34347158552f6b6e625462637a634d6679567a696e6a546e4b72527259616d502f64646f7157534875636e4a384b4c4d54624b787233594e5049756e312b7072736d4f554d6b7256466d5a7755306f7a2f5779764a6b65546a63376f367949692b564a6f684a56525a64786f72614b684e75695373534a4a68413233583346623756674879574a6f3645322b6b4e324c7761453134494d6b375646556a654559797175544b6e3257744b72736f5a36476355534c4332526244744942416759614168675152474a676d464d5143416c4b7667694d47674532585a4d4f544844484f5548786d76705a535a6d58575a4d756e77345a4b504848344178554168674a44644359725945313244364932787074684451646f564151534d3559597877786e797030612b793647524e4b4c4d5a547853654b6a52466b694a325a674a555147464d5975374752436f4b446f414142444143524641414e6b51646746537178727952475647546a77724a4754556c61563059306e39676636455543524a5741446f67517830415247674835414b5644415251774659414459434142694749414a45535141494c4742456d516467424941546f4c377342664979434a706b4b69424b694c4b6f47684a44734136474a496b56466d42596e6b2f7062346f726d317a6c783858304b71424b32426c365231714d44612f766f3964784e754b7637486b756d536558476e343549395a78666b682b79506e64662f613377583957544b5179434a487a48734d525173305871486976766a5a6b416c6e6c584a57757a7a7265744b744e7274512f6953556b656a7335623144706f355a3661622b2f466e7136586b374d2f385750507a3464324459374a6934626667746479566d354d6654596c697759594c776f6d53634f544c757a79762b58586a6d734d5a2f67444b357934776b3334534b39506c39334847532b544c572f4f6d517975524d684969754d39574e72384852787a374f7a3957506a6a30726f3470732b33306e38474c356e4c502b7a4a5a43626832764a3656746571577030654c3778696b7a7a4a4d36723035712b4765574278366c487954717550753439363877347375336b6e2b58636f596b4d2b4d2b6b716c464f3738486d57373666384e755761446630756d6b656f7448476570394e62786167396e525a36354e66537650314d2f5474794b536261532b44762f54754259744647587a4d345444446e6c785166584b5352367070734d4d4748486a69764555656e7273395934347548426a764c62495249415a3870372f6f684938353376567255616c7050714a3357737a7254344d6d5276776e5235626e6c4b55334b3762506f6446683575547839526c757a475658794e6a747570656d314d4a31383061737578756d37506f353439324e6a7a5878356e7550584d557555497a2b4a4a4d7652792b79376a484a696a696e4e4a78564936574d6a34584c7833444b79783948697a6d654557414b786e4e305263534478776b6d7052544c514c752f646d345958336a47737a37627063336e485270646273733139574335666f645a516d6a766831476548313238326653636558306b65593559354d4d33476348462f71596b356e704f7330654c5678724b6a673931322f4c704d33693862384d2b6c77382b484a4e616b79655050707278332f44574f616348476b4f45714b4757515464493730733148704778354f6533346d3154767333694e44736b6b39464376686d385450686333386d662b33302b48396d4b797745427964484b3776744f66566170356355756d6a55783254565855724f2b61465362746e71342b717a777837586c7a3658444b322f647a476a324a5163636d6164744f2b4a314d656b6b526f6b6365586b79354c3564754c6978343564524f78325249795a79646b4d6b6c4745354e306b72504d64626c6c6c3165584a61702b44723933312b4f474f5746532b71534f4662506f644e7832533276447a636d3870495462424b2f425732374a78704937324d6e4f4c376f7153642b527433644e6a684434736761566a53715374676f31665a47335956504e6834564e465633386c366d327162364975474c796d46527871455537594f54524652534a39565252446b2f754a5373556f6b55306b4e496c646649306b315a42386166525a4348524e497a645070595a7647576e39696a4e43555a384c3673536e47424355694b4842513865524e7075325275784d43563241365847307741454e4b68456c3330696f644e6f4f48366a616633497431315941303138693472376c6b6366503841763050326d766d32616771707446633257576f57704f796831666e6f3734787871447446456d5a4f586a796c78647133526a5352306178517673544a556949645341474d69675141416759786855514544437246435572704543555a5368386b416869476741614153593753525153496a73694667476741676d4953597768716958366f695454536f7a6c367250314a2b434a495231434a43424d6759686751464348597642514b686959464462496a6f644149594177694a4b7841694b41596d534161475148595452735967494634475262414268665343304b7968394141414445415546414177525137437949364271416b526f43422b51424a413643454d5641464f6743783245416d4d41492f4145684d415178425a512b795349325351537372462b65486466556a3176442f414757502f536a7948462b66482f715236376864347358583931487a75763841574c66542f76724a544751517a357232744a71733373627267583352766b7a6a642b79504672734752644e493676426c39374269795656775233354d4e6366486c39343876446e766c356362393251553539506a7a52536e4736646c777a6876543031464b686744437456752b5a3474446c6b6e325837644c6c6f644d2f6e6832615831486d634d4d496f334f33506c6f4e4e4c37784f3257477548484c373135384d39382b632b6e617a6945695243544f4c75354431564a653170724f4a624f30395679537861536f33625a784c5a39766f2f344938484c2f4a556b5a32697a54785a345354716d6a585853737335766a614f2b55336a59355756363768794b63497958796b5a426f646a31587636504866356c464738545067387550626c592b6a78356432457152724e32774c506f4d304847362b70473049545678612b364d345a6475574e2b315850487578736566624e702f7847345174557362746e6f43375a704e6f3058735a395a4a72747a644d33364f2f566376784d3572314935645078396d462b35435a497179537065615235704e313374314c584c656f39576f51783461766c646e4453645072776233656453732b726331346971526f4a64732b353032485a787838334b3932646f7235476d524a78684f583559742f73642f434d6a466c634a5263585452317567336961714f5474556368693032706e3348444a712f735a324c5361337478777a54527835655069354a3573592f5868643456365268314f484c47347a526c576563344d6534776d366850795a325064745a677a314e326c3554506e3539486433737372766a31736e6a5047753573446e59372f4149615875516f32576e312b6d7a704f4f51382b584479592b38613957504e785a2b733432414d53646a4f547368497764527034357357534458626a307a505a544a4d33686c6362347247636c6e6c354a6e67385765654f764248473379717a6462337066613175562f44706d6d6a42732b37686c3359544a38334c586d50524e6753576767307a66493048702b436a6f49307a6652506838333875623648442f48466f7941484e31534131757131384e4e4e526d5a4f48506a7a5135776b6d6832335732652f487537575451416d4d79306a4a306d7a6d64627663343838654f465631624f6e5a6f4e3232364f66484c4a696a2f534a4e306475447375636d54687a2f41424f3339482f31772b664d38306e4f54374d577253702b43636c4b35526e314a65563969754b556237507353535455654848657a72376778576e344a385a4a4a7335324f753055697971525733617044533556477a4e6969557159446c48696c6273675a56593354493250702b53365750464b4b634d6e454b7046386858427275794d6e6430554f62365a536979464e506b444b694e4d76684b4f4f4d6b2b3752576f6f4a4e57514449746a386f6b35592b4e553749494e556b79555343525a3151423844626652475052616f786b76505943564231454577734973636b6f3152546159302b2b7830697949616346622b5139787065534c5351704b3036523078785a745554627347794c3649535a336b59317442756974736c4e6b44547449625a4561516d4768304f674a78692b2b6a4b576f4348496946686a6f51774973534a55494b474941436e5144446f496946414f7770425144374151664a4a41676d776b4168674d6b715458376b70546a4b6b6c56494630307a4f5837616b3978466f5157466e56414b78324e475172474b6741596d43416f5645694c4755535167544149425741425141774169773746386b3069424441416951575254414767784141554d51304f324167474341423252767677534345304962514641414f776f42414f6764455567474143514141446f54474b77476773517741424141786941714a414961434d6a47326e442f556a3176425874342f394b5049344f6e483930657534663750482f7052382f722f41466933302f38414a5753684d514d2b59396a6a2f554b7257595a664467627a5a70756569676d3233453050716164616a43766a69572b6e4e54796e6b78756639327a333559393353343337506e53396e565a66357273555349526652493844364a6b4a456d555a636b595163706546354c4a75784c64546268742b797557746d72365544724e702f77436e36663841534a35397273797a366e4c6c64713230643773312f77414f77577a3339526a3239507878344f444c664e6c667532316b4a44457a353736446b50566e5748522f757a69476a742f566e656e306a2b307a68354832756a2f686a77636e386c566b6f56665a4566696a3070585462447133683163635466557a304b4a35426879537854686b6a35545057644c6c65624469794e553552566e792b7434395a537576543565385755676f614138443241414167544e5a7565563464466e794a397047795a796e71504c786a6a784b61743974486270384f2f6b786e2b58486e7937634b346e4f2b356474396c466b3579544b6a37306d704868786e684c374863656d76626c705a3346636b7a686a722f5465644a796733355277366d583456303368715a3437646a474d56346976396953696d434c4566477557572f62335447665a476b6a687439684f4775797a34564361523368724e7a3050347a43344b53542b47642b6d35657a6b336b382f55634d79772f54504d6566632b6936476478716c344c645274757277754e346e4a6664453857313636626a7878316633507033506a7333624e506d396d55766958627339713158346a54526b62617a5737646f33704d43673676354e6a326647354f3376793766543750467673783776656a4b35496d56544d52724c3034503149332b4c56654b4f656a35566d3133724b737574794f4d726a48704770376f2b35772f7859766c3333663841623048302f4252304b616c3035485249357a303958344350376e516f2b507a2f414d75543648442b794a6962416849354f7a6a392b79545772712b6c45723262574c48715934354f6f794b2f5555332b4e67704a64514e446a79796a4b303666776657342b4b5a39504a70386e6c746e5063353948724557574a6d6b326a5650553657446e4e633071614e776a35576546777973723658466e4d3864784f794c535a49544d783072684e2b322f5436624b745242567a665a7a55354b546652366a72394a44563665634a7058546f3877795966616d345362744f757a366e546376646a7176467a346176685369794e6c6455796161545056593838716646716e39784e3132686368655a484778755a47335a466f6e56664a572f4b49327474565172534974416c333279614462766f51506a6433324e4a5555526f45374a3955515343725343533565526a616a35497158306c625562644253624369496a386b347676775253374a4b4e4644347045476b75374c4c443647704a684563636f396f6e58487178566a555635513231386c5242647354645352636d7550534b334a6659336a6978636a6237535a56796473484b797337534d37326a4a6c6259354d715a70764742694a704b7262494e6f7263434632464c376767706f4c46596a4b36456d527362454653454a41424c3445414149596951436f524b7841496b4a6f41414143774161454d67476831524673566738702f4a4e6b454f6330347856646d63763231507244496a4137494b51494149415136485145554d42674a6f59686c42516873514136516e3844485141674141694977414b644359304e6845435a48354a454b54454d5155414141466a51714142676c5968684347416747506f68624171365a6d584a70487073555959354c4d764c2b475959554d67644473694d49477741544141446f644253414b474167474b674859686756416b54496a43566b3432726a4a72773065736161536e70384d6c2f6852354a6961556f742b4c5236786f332f563858374867362f7742597463486a6b724e45794e6962506c7661354831542f61616270476c32335550543676465034663073335871727a70576a6c4954616c487133616f2b78775939335436664c35742f45746a31324c744a7235566b374d4c5335566b302b4b612b596d556d6649796d73724830734c7648472f7743466a4e6475475432644a6e6e396f6d613263373668314d73576a39754e586b4e384d377554474d6331317831772b5770796476797a30625a7070376467562b447a5a39326a30585a6e573359443650577a2f727865507066484a722f44634a67794e6962506c506f56796e71705870744c2f725a776a5a333371644b576e30332b6f344e39746e32656a2f68654c6b2f665541474b7a314d70524f2f394f6172334d487475546252352f48706d383258567654363754713377636e5a352b707737754f6b76626e4b394d544c44486930333057326645302b68457749574a73696c4e6e6d6d3836685a74626c767477644a6e6636334c37576d79354c3852504c633833504a4f6238746e306568772f56636e6a366a4c646d4c4864697356325250714f5569535a7374466e6c6779516e447a4632613074685069305a79783770706e4f577a773958306d645a39506a792f4d6b72526d493444614e792f4454347a37677a75634f5747574850484a4f4a38586e346375504f2f5a362b446d6d654f722b364d67434b6b69566e42364565456673684b4b736b4b304e33377032342f597762455273676b33534e5a726459744e696e4e2b654c6f733157727734597535713638484437687545745331385252362b6e366535336439504a7a38386e365a37617a4e4a7a6c4b543874325558513363694b386e31704e545565575477373730394b74436b6a70492b446d66547a7252634f37544f69556a347655542f7479652f672f5a46316c637832516d2b6a6848612b6e442b705a4a3679483334484e706e512b6f306e6e784e65614f61756a3776542f77414f4c357563336c6b36485a395a50543561767154706e6f554a4a7056346f386b777a6365307a30505a6464445636564a5879787170486a3633692f766a70303256787a7978623677624b755157664e652f5a746e462b6f394a6a6a4e61697135485a4e6d487138475050676e4363464c713166777a76775a39756363656248757865574f566a524c4a6a6e6a6e4f4f52564a53596c566e32666f2b666643564a6f5851574372354d58464e6d6b324e7872734f6c34597536386e50566463616b6d766b4c694a552b6830695756765a5067333444704a717734702f414b4a4166734e4a4e4132684c6f4b66676b6c5972525a474d75326f75685243675969532b624a6f496b6b6944343244614771485364676f68466f6d354b684a55756b4a5249453230515a317878637373677056304f64644d58535861374b334f3152316b637a386b4a757642467a6f7163724e4e3434304e2f6d542b78436958376b476737516d445851435961496d694249464d54427343424d5649594251416832416d684473414249594341594445324141495941494c4141474b30466b44414c4167524b726f5645314b695a66747039595168717830646d514b7844414272735141417844414146517767763445315178734349374164415273463359364470414867413867416747494b474667434948516867454141496f646741414144364274675241424254414267494147416b4d5977694969564141673752495143436867445a414155417141594252593049595266425262566e6461626573587459345458694e484178364d714f616b6375586978354a356373727959586546642b39383069614237317071384e6e422b386d535764307a7a2f4a6361664d64542f68754e36312b50572b3377685845304b6e52475756746b497457327a31595954444759794a5a6c6c75356533616264764f4c447073654c4a42766962482b4f36663841774d34465a4b524e5a6a686c306e486c626445356566476178766833583864774a584f444f63337263496132634a515453696168352f67726e6b7375485459595a626b4c796332636b7a766a6175374f7532766438576e30304d633862664534792b7a4b6a6c7048586b343579545657392b4772683764387439307a564b4473487665422b4948422b384c337a7a2f4a6365312b59366e2f414133322b627069316d48486a68435558475279736e3258536d3364736f6250547834546a78375a36616c79797538765a4d5341445452325859736a6a4a474e5a4e5075786f7333486f4f6c3375456345497a6a636b6a4a2f6a2b6b2b564d3447475a306b5465577a795a6448783232755535756f7838626a752f3437706e58307a42372f7061714d4a386a68666547383648796647586e366876647a3357576f7871454f6c386f35624a4974795a5730364d5273395048787a436168684d72357975364b36414247335978706b5567417a4d55364e767064626d774a76486b5a7a79645079587879744b6b5a7977787a6d71345a38643376473672754d572b31442b6b686258796a4f572b36506862556b6566527a532b57572f694731523573756a3436546d366e48367976517634786f716a4c6b365a435738614a663841635a77537a394b32503851592b52772f4a666d656f2b30647a5065644b6f584754625a71632b2b354a4a786a44696330383853755759336a306e486a394e73336d35387672706b5a74525049323579756d594d35335a427a646b473773394f4d6b6d6f316a6835335473634c7679566b6b364b3359366e61747968706355344e5762542b50563478484459386a54647379566e6f382b665438656433593533506e7838595a4f79572f4b5336776b587638476d7661664934783578653633386d5a306e46396c2b4a31503179624864396174586c684f4d61714e476d625a4b557249576a3034347a47616a55333966615548327a64625a7238756a797477716e354e495751794f4979786d63315579333778397533572f5035674e372f4a66396b347861686f6131444f48796e46396d666964542b62736e3667536a4a7647694754666d312f5a4a4849547a5769715752763548796e464c745a79633939354d6e57356e716452504c787131344d627446626e597250527255307572666136304e4e46466b724a704f31666632476d724b314947305334786e7a4b76536a384d5474464b6c524f322b327a4e7861755657786c54566971323252734f525068704d366b36625171386a754e4279513746377953526648506b6a4355452f70666c464c6b5354692f4a4c67737a52622b614c63474e5a504c644562692b6834386e747970644537435a2b666145344f504c373252714a59354f54624b584a47706776636e306770736846706f4a5458777939736a4e7470324f4b636e3055746b626447394d39713755352f64794b536a78704a4750594d673248535170454c364a455767334336485a4541305a4a78546a667a5a4265425741557870695462476b5253455445416868324c76374146434a43436b546f5351465141675445414e6941434b41414541423044493968544141415a506f6a45595a6f742f414b3751795671753059792f626b73313351674542325a4447784441514141442b41514a6b6f713351516b4d79316f645878545743564d7357336131722b775a4f3748377847414f6a4e2f68327456336761473976317638413861524f2f48386f6176325946415a71322f584f2f7743717a42376672656b39504d6432483368717349544d79576931635a786a374533612b45563539506d7731376d4f554c2b3564792b714d594353566f544b704141774973594441424137476c594347536170744551454a4177384254483552456143454d596745417831594342463863476155564a595a31393648445435704e72325a72393054632b3846417936656e7a342b35345a715033614b574e6f414542514347524377304d694e75304164446249677747413130684141305273506b4359374659424572446d524545314463686378554c6f4e61693153424d72524971574a4e73546b4b7841306142756843416d70685a424d61384130626b4951646b58522f41756745445159304974686979545434593553612b797341524c6b5777306d716b326e703571767569487361704a317063722f7744524f3666654d39715049546c5953787a6a2b5a4e50374d69564e524676746b53514d7263522b41426f4b4970324d694d4942706b4c43797270596d78383052542b6b6947644c655957566a7368714c485073546b512b5265416b7869514346595578417845564b78325141476b37515852454f796d6b7551684534526332314657373849577954644e46597a6159396d3347634650324b526b4c30397550467478526a3476482b634f322f5a6f78327a6235646a334b486a42794e626d302b584136797763482b705a6e686c36796a4e6e3369706b5779544b796b4e4d61644d6a39782f4256734d6c5a45454453664a4475797345776d6c6c6b3149717358494d39753252646a4d654c646d5a7073475450506842584b726f6c31497a63644b3748614e6b396d33487a37494c5a4e30767641714d6645772f4b485a667331764b79646b3952704d756b6c465a6f754c5a5132616d724e7333482f43336b5674396d326873757679785468464c397872594e796c3178675a2b4a7854336e47707835665a71656252437a5a366e616462703855386d5343714e335271464a477063637656326474546652464d69324b7972496c7974696369497244576a7368386778427151374975514d4b516138454e6959724970324a674441455373694f6941767347687041324247783359685742496a66594461437250636b34714e4b6b52596b71426850477861454157554141414342445a45696d78447354436d77496a73422b43566b42684e4a44496c305661717a4e39566d6b306b526f47466e5643415249696b4e4959776d794d7a53513535736136766b6a456f79394a317163542b306b5a7a3859564b3952777769736350394a6458335349342b34512f574b4c31452b4a6e6e6535367363597239754c3761443231396b58434d642b5833623169726356396b484839455470674f374a4e59716e46665a576378366f6a2f5563453656724c327a71576333366b6879322f774372706330642b444b2f45783358506b6b6b63424b5246466a694b6a37547a537a5346415343677530666b4238583546547177453277374c594a4e71777952555a5576414e71786a537351436f4769517236622b41496a42553161475549524e78517142736b6979462b3544692f37794b797a48664f48487a614a66564b395330754e4c545956785835544a3472374972307235615441375638465a66345068353535642b586e3676546a6a4c4771336143653236704e4b2b446f383161384e48714f354a53304f6f53712b4a356c4b5078396a36485233654e2f774275484c645a5255524a42783650597a7445524a494b6f4255684571704258535945526f664541493046444746523659644571516b6741593347684243416d306b51414c45304e4947416b53456b536f465270415334734b4b625173564571446f696f6f6b464141414e5242494a7445592b4c5441434b4f74394d7869382b5839496e4b3854712f5376576656526238774f5055626e466d547a6c485931666b6b78704b684e702f4a386a75793239657049383633394a62726c532b5952624e4b644236696346754d71683377585a6f616f2b7a7732336a7833396e6b76756f4553786b4b4f71796b534858514e644e6f4730504c4163523042486f51785552557667454156525541724a704363534779524953564151496953597569716141514543474149426a516a59375a6f4a612f50376431464e636d544c4b597a644e625a323037524c57796373305773566e61366261744670496363654666757a4d77346357484644466a6a55596c39487965667163733874533252364f506a6b697452705638453478475454504e3356303143634b6a646d4a6c3032444d7179346f7a526b3359697a504b58785575474f556350752b777778745a394b704f4e506c45355271756a312f4a46536a5665556562627a6f6c6f64524666334d6c754a3954706566766e626c664c7a636d4678766a30303351414d396a42694746494951496b5a547961503275384c552f756d4462464541414e65546f2f5464505879363755446e45644c366270612f39346e4c6e2f69794a72766a7631594f786f6250683931323933624e4f4f39565036744a4672345a79734537763452316e716e6735365437307a6c6c53732b78303338474c35334e64636d54303753777242683762754b5a6b30592b6b2f774356302f38416f526b6e7973387631582f6233595937786a423133656a314e7136673265557268567048724775723848717238653265554e4c2b36716a3848304f68753863336e355a717772496a436d65357a49525a434b76736e50452f4d56614362387363587957744b362b534e494e536f73524f694a465261463279594a5551326777534a304f71726f4730534c4a5847333269616a467863755342745546467331434c6a54386f5070385744617269776f745536546f5437525464566a6f64445246326a513069794f4f5752506a467569557357564b2f626c58374538666338715a4b507834494531546455533430796d394b7845326949495176676b4a6855515141526f784445454130676f6c34425157526b71717579736e664658386d4d7632316e367768456d4b7a71674377454178674e496f46305a7569357655596e4631636b6a4453526d6153545766444772584e476554396d5450316a3154442f5a772f306d51696a44316a677630526b492b426e2b36766268364a7334725537707246714a7839366f786b64765270383279614c4d37664937634f58486a6631787735384f584b54737a73632f506464582f64794558764f717175614e395059394a50703869722b58744176385a367669644c39722f2b6e6a2b4431503841354b3069336a56312f6149316575312b6f314f4c32386b72686430646176542b696a53755a7957363661476b316b73554c346e62692b426c6c72476554743563622b724b324e644447386b347758797a716f2b6d4d546843547a5454614f623072617a346c4879356f395278747a686a66364536726c7a342b3374656a68786d57397556587066483861686d7633445976776547446a6c63357564486638534538555a3166776553645a79373975313459346a53656d7035344f57624e78566d796a3661306953566e554b4e42784a65723562395770777a546b632f706944787939724b2b66776a6b4e5270645270386e444c436d6574754a6f6439322f4871644b386a366e6954615a32344f717974316c5850506a6b39505045714a636238495558644d334f7a36484a71395446312f525266314d2b6863706a6a6371382f6e656b7476324c5536744b65582b69677a66597654576d673365527a73365448696a434b6976434c61506c386e56386c797571395748465064636e6c394c366475345a584530757032485661664e42666e6735644e486f3345693861645753645a797a336474586878726a4a2b6c622b7633326e2f684844307571755763375278494f492b633566756e776f38323354612f7744676e4b2b5a716f2f544b50376e592b714663644d6a6c4964546a2b36506f384f647a34706c586c7a385a574f31304f313570344d632f7855347155626f796e7465726658342f3666324e706f6d2f7775432f3841415a523872506b76666c363976546a773432547a584b6133615a77302b584939584f55594c777a6a4654545055646446666739537668775a35616c306a33644a6e63736138334c684d4d764672646144593372636279504c7852735836576838616c6d64366174364c4c612f766e524b4a78357571354d655379583039484878544c434f4b79656c6e4854796d745265534b624e546f646b316573703034785053334330312b68484469574b4843437047506e655456387433686a6c6f656c73464a5a4d724a5a5054476d6e476c6c6c486a344f716f6447506d2b62386a3455655a61335a7458704c636c6350756156557a32444c6778356f53684e66537a7a4457365261585535634b384b5472396d652f7075663476692b34345a34396a5865575355484a714b54625a4e5162646f37545a4e6f547778314765464e75346f3763764a6a787a645a6d387234616251656e39527159755761344932736653326e74586d6d646731347278514a487a632b73354d7234656963546c70656d744b2f774475534d624c36617070347369716a737144695a6e56386e33506752356472647431576c6e7863484c3955756a58565236396b677078635a5254544f41336a626e703830383049766849396e44315078504639754f66486359304e55524c4b4d3751614757747976476f2f543873395673786d3678504a615051357454546a4638546f4d5070324d6f566b7948526154525130754f4f4f50644c795a3346487a755871377639447468773738317a4b394e36506a584b52586c394d616479754761534f736f5845347a712b6237756e7759345055656d63386363386d47616e58664535334e686e686d34545653586c48723669615064746f77363645736b5657654b644e664a364f48726372645a4d5a385776547a65364d7251365a367a565177382b4c5a53342f584b4c54556b36614e7273616a2f41424c412f6c48767a7931686370396e4765394e744830704f6e7a31466c73505330576d70356d7575715a32464453506b33724f583776524f475050636e706e572b3873634d6963666d527459656c394c46707a7a796b7a72654b465346367a6c7631612b466934725036576349546c67314c6b2f4e4d77396c30656255616d63565067386432646a723953744e7073732f30614f61394c715431656f6678785052687a353563504a6372366e687735634d626e6a693354327250792f7743646d304c55626271707150743674782b3576554649386678722f68302b586e622b362f38413765616276676c6831664365546e4a52585a67594d4c7a5a73654a655a795555626e314a2f774255662b684775323566385130662f6b523962444b2f416d582b486c754f72323762372b566f6347355a3563676a36575456543142325454746a5554353136766c2b373254696d6f383633485a636d6a6542516279536d7a5077656d5a384965396d63622b496e615377786b375a4a526f767a764a723266426a6d49656d4e444257357a73774e52365572482f5673387566326b647677467872737a4f73355a64397a58776f38666e6879345a79686c67347a6a35544b326a755055756a684c4774576f747a68307a696e326654346553637545792b727a5a79343561526847557078684838307642314f68394f547a71453832527758326f6f324462586e314564526c543452376965675565627165707546376362356277342b377a584f52394f614665625a524c307470586644504e4857554b6a782f4e38752f334f767763586e6b396a7a34645a44446b5634352b4a6f3276387234662f414a444f756362585a4869622b6335667566426a6c49656d644c4754355a5a4d3566644e4248623955384b6e79754e6f3953635468505538636131754c7a79634f7a763033506e79636d72574f544359787977466d5251542b6932694237334568706b5268556b7675642f36623053686f317148356d7169634575303470573673395732754874364454777171676a78395a6c5a684933785465544f69714a43426e796e713952724e7731384e484875756238493045392b7a76473452714c62375a68627a6d5574626c6679756a532b34665634656c77374a637035664c354f586c79797937625a48593762764535536a6a3145313236544f6c547338757835557077625630374f6b65397a344b4d59727048506c36547a2b68766a366e736d733931316a5a7a587146595a36574557317a55725270386d36616956316b6f31476f7a5379532b70746c34656c7a787a6d567256366e766d7363574651714c506b364c5a74716c714d377a545839476b6533504f59593931706a753354483237593954716e79797834597a70463664322b6f3343545a7638654f4d49714b58534c476a35664a31664a6c664630394f50464e65576a2f675732306b3842512f5465324e74385a576446304f6a6e387a792f6c572f68347545312f707a4c4270365735525565307a6d4a51347963576d6d764b5a374656484b3737744b7971657277592f7255667152362b6e36767576626d34636e46322b5934614a306e703633754566394a7a36697a6f6654312f6a31532b4431632f3841466b34532f72782f323941514d594d2b46395830766f3544314f75744c666d335279666d7a727656455a74364f7669374f52586e79665a36622b43506c3833386d5431505371744e7031396f49794447307161302b46662f4145526c48794d2f333566376653342f327a2f54453169583454552f2b4e6e6b3636716e66523678712f38416c6454332f7742715235586a7858314648307567395a764a3147706c4648796d7a6436486173327253645644376a3272625a36334975535478664a332b44547777776a444771696a70314855546a3854326d4848633957744e707468306365386b4c6447617472305546786a6953527375494f6b664e765079322f7572307a69786a57354e743055307636434e72354d50503666304f58366f72684f6a6578616c34646b7145352b535839314c7834313572756d31616a52564c6a79784e3179527048327252362f6c7734386b4a516d7269306562376e74723057716c6a35576d7553506f395031487850463975476648322b593145555a656c3057625635464444472f752f7355556b6d656837466f3167306b4d6b6c486e6b563948546d35666834625a776e66564f6a324854596f5257614b6e4f6a6178322f5278584661654666735a7953485238724c714f533339316576486a6b6a565a4e7032366161656d6961664436657759745263347165483452316848694a7a386b2f7570634931663841434e4231656e512f34586f4f4b673950476a6255516c4566487a2f4b7063493830336a53343950724d7550476f714271654d6c384739332b4357347a5a67594d4d733834346c2f665a3966444c2f727874763065504b367a312f6b74426f4d32767975454653586c6e5936483037677752764c55354730323751343948706f59347276354e6852344f667172625a6a66443034636247686f64506a707246464d62302b483578784d68756c624b59353845354f4d636962504a38546c753775757573574e5051364f5361656e69633175507036337a30722b4f3473375469694c696d64654c6e7a7876746a4c6a6c6a79444c696e697950484f44556c384d6847446439704862656f4e452b487678562f633471566f2b7478357a6b78323831334c70553030414d44616b534572475149435464454777526247446c34514e4e4f6d6974536b4f33665a4531566e53464b5458615242396a2b444f6637616574564b7752476b534f794541326841534a497273615954526d5670722f45596d71366b6d7a474c63556f787977354e71504a575a792f626b6a31334654686a6166584247516a433076396868667837614d3148774d2f3356376350526947616a5076476c7735484362646f6b6c793951797978786d3873744e725a466d6d2f6a6d6b7132324a62376f3770386a7038486c2f437566782b482f795974757a7a2f314861334478356964562f4739424a39536b636a76657278366e564f6346315649396653595a34386e6d5678357554444c57724b316546745a734c587849395778643438622f4150716a796a547465376a74576c4a48712b482b79785037775276722f774378656e2f645976452b69526a61756373576e7935592f7742324a383254646b65724f39754e72476e75576c686c39703546794d2b453454696e46326a7a423558504c4b6236637057643373732b65686a39307a3138334232595935504c7764526c6e7958477874696e4e686a6c787a6733584a565a63526c38486c78746c6a315a6571386e6e68654a797854726c4754544f7a394e59466930755638723573356263484357753158447465347a744e69532f683047766b2b70314e2f2f41423866387644782f7741746270496b4342394a732b56396e76384155616258627870744c4e592b664b5639714a6d3662575964544738625050384156355a543157647953763347626a597333395a722f77437448737936655469376e686e5535336c6d4f7647335a69614a695a343639376b7656456278594a665a6e48772f5046316661364f30395471394c6a7031544f4b564a78636e537679665936542b4238376d2f6b7231505353356158412f6e675a4a68364271576a30307676457a4435504a2b2f4c2f4147392b48374d574872347436544f767645387554505674564653302b64502f41414d3871763841512b683050724a342b712f6448622b6d5a586f73332f6b4f6c527a58706c3874486c2f535a3036504831503832623163483865496f7838326f78344679795353526b48443735714d6931736f4b6134704534654c346d656b352b5834654f3359346452687a713863307938343759633765706c43756e47326469546d34377835324844796645776c516b65662b6f635559626970663434486f544f4939544a7255365a2f644d373948646373593669666f74616661394e2b4a31754c46582f325a3658474b2b50433652786670333674544b5358535232305458573558766d50326a48532b6362644852727477317364486a76717a5a6d4671394668315665346a795939753533656e707a6d5862653332356d4f2f5a6c4e4f645564526f3952445534495a59716b7a412f6757672f774779775949594d6168426448626b76445a4f7877345a7a53337671326a58612f54527a61664a46712b72527379746e4c433347797833797833486c655844787963507336706642326d7961543850706b3272632b7a6d3931787147767a786a3555724f38307366367470762f414252506631504a66685966356554686d2b544b665a6b7149335354624a4a436e486e46706e7a5a3539765a36636c7174347a504c4e59354a525470555a757a3770505574344d744f6166542b356b765a4e47323332724c6347303654547a6a50476e795236637277334354483238654536716374336630746b305161703257454a486d653237634a366a3073636570686b68436c50354d485a55317547422f7164563668535767546176366a6c6470754f76772f617a362f466c33394c663852344f5478797653614a6947664872364539497961526753334452707450504730523362552f6874466b6e644e394938396c6c54647674743973396654394e38576265586e366a4c6a736d4f4f3351622f726c4f475046696b6e4675325030764b5876616863565468354f586e506b644836587953656f7a5266784139764c78546a36664b52773473726e7959355632314234476762506a766f6652774871574e62696e666e456a57375972334852322b7663527450556e5734522f385a716475622f483656576b75615a3976692f2f4149732f302b666e2f4a58714e5532545150746a506931373536694d704b4b626b7a46657530764a78393146473635486a30476556664277437a7a55456b2f7166335054773848784d4c6b382f4e31463473704a487158564361364d66535a486b303247623875505a6b6e6d73316248717876644a57753348542f694e44714d643163577a7a4868776274726f3958314c343463722f38416f7a7969536335542f646e3065687437636e6a366e3930656b3752486a74326d3656754a744b4d54514a4c5261644c34676a4d52346557377a7a2f323950482b7a46463146577a52366e656365444f38644b5356577a63616c3170737a2b30547a4f6557354e31315a323666686e4c76627a64547a636e487159505374507163656f687a7874555830637436646c4a764e42503647374f716f34387548773837693763484a65586a6d56396f4e6448422b714b6a725966724137316e44657149755770776670426e666f2f356f6e4e2b31794c496b32526150727650434a4a454361425632475559546a4a72784a57657436662b78773134344a6e6b53704a742b4431585154353654544e655062523465742f626a572b472f7172504953767953464c754c506d54334872767035587263736e7139516e385a475952734e3066445835385a726d666677753863587a646176704e534c6f7a6c397a4756753652316d443038732b6e78543978776d3132686e79595965366c773776476e4d7a6d797076757a6536335964666862654f736b445553302b6647327034704b766e3447504a6a6c367969396c786e6d49592f37584638334e4b6a3154533449344d5549526a56486d32686879314f4a66504a4871695042313256385233366656744e4657584c4846427a6c345261614c31452b4f67564e7135493850486a335a535052795a64754e72447a622f4c4733776770646d38322f575231756d575652702f4b504f584f354e6f36503037715a797a5a4d4e716e48704875352b6e77783439783475486e354c796179387975784b704a4e5531302f4a62524753366f2b666a376c6651766d504e743230384e4a72736d4a5134702f5645796467622f69634b66564752366d56367642392b426a624466385178746643507357393353377634766e575363332f313647444568732b4d2b6c39484c2b707558746164702f657a6a463558376e5965714a4e59744a2b374f506a506a4a4e4b32665936582b43506d63302f37636e71656c74344d4e2b654a6b6d4a6f334a366644793838455a5a386e5039312f322b6a682b324d5058562b4431582f6a5a356854553154707048714f73584c545a3139344d3874536b736a2b3662506f39442b7a4e3475712f6650394f363950595844623475586c795a76306a4432356631485432752b4a734b50447a586565582b337234354f7a482f41456a527875343676565a63386f4b4d34714c36704861466674775839314d6365654f48754d3833486c795936787930354462395a714d6565454770744e302b6a73435074772f776f6d4f5450484b376b4f4c4450476174326930633776756c5758413873557563666b364a6d76334a526e6f645247547055586879376334764a4e343135706a692f6368467876366b6d657259736359593863563455556a7a6a487073304d2b4278536e4279583149394b69375350563174334d5844707664534b632b5a59594f622b4339493147394b74466c5a344f4f627a786a315a335747566168377a6d65656c34544f6a30656f6a714d45636966667965634b61744b4a312f702b664b4f614e6e75366a686d4f45756e6836666c354c79325a656e526b5754497448676651727a7266345357357a667878526d2b6e394a444e6e6c6c623767696a66332f414d536d354a397753527450544c754765542b39483163375a307331396e7a35353576503364557579644352492b532b68707a2b3950564f4f4f4f42542f5869633748536268444b35346f5a452f4c73394249757a30596373787873374a586d354f47355a623772474c704a5a736d43457379716464325a444a6b5763725a666f37347a553973585068686e684c484e645352356271384d3857707a776d31314a6f39592b65764a356c764b613350557271377552372b69797537486e3559314c7169444c5769715239427a6754594348524767414d514567424179496b6c5933555579425a612b544f5638566d6f6a74576855493743795658305145414e474145674246324a586d7866626d6967794d4d5735726a4b6e614d356674724c316a53313747482f516a4e4d4852393666462b6b555a795067636e37372f743773505138646e6e65354f61316d523858327a305978353666464a74797878624f6e42797a6a753748506e344a7934366559796b342b55372f59546c4f4b536357722f51394e2f4434663871502b77666873482b564539337a325034504a386c2f6c3563334a30326e543864464f574d2b564f44545056487073482b56482f59312b34366645394a6e6674712b4a7244724d63724a32723874634a76627a7244314f4e2f346b65723450374c462f6f5235586a55564a5034757a314c54753847422f65434d64663677623661377a795a5267626b2f366a717639426e57612f63332f414648552f666765446a6e363866384163656e6c2f6a7965625776756437734753453942476c54545050463142396e6f4f775253322b4c52395072663473586836656135472b49745851304630664a6a3647563856356c7555464858366d6c394c6c614f773243536c6f6158777a6a3977626a713838572b2b566d38394f61687763384e2f6e5071383874366246382f43363576503172736b456c614244506c66563946356a754f445070745a714954692b50754e786633544e72366678546c71355a50376969646c6e30324c554b736b46494d476d785946574f4b53505a656f3378397631303832505479636e63794159785077654a366e4b2b706c2f563854624f4b586252323371654c656c7830634d6e6253756b665936542b43506e63302f374b39523239336f38444d307739425834504258324d772b567966795a2f3765374439754b7255663247622f517a7964746e71327164594d722f415071655679665631386e304f67395a504a315037385862656d482f4146504e3158316e546e4b2b6c33423662566356583149367065447839542f4c6e2f74362b442b5045486d75377a6b3979315032557150534a5765616271702f7848564a722b38642b672f6b762b6e44712f552f3232587037765779762f4c4f3569634636637462682b384476306d5a36332b622f77434e644e4e59662f532b44692f552f77446236663841307337566f3476314d30382b482f535936542b624665702f69715070764b6c6d6c694f305867383632665552302b72787a6c477a304f4572566e587263663841733235644c6c4e5a542f4b77707935384f4c382b52522f6375544e4c7647686e71384c34666d6a38486b776b746d37703665544b3459327a486259666a4e4e562b394146724e4d2f4761427776345456717362775337614f6d30327a344669587552755a364d754869786e386a78343954314756316a7774722b4b776647574a582b4b77637139794b4e664c614d44565262695947585a5a7835545572535879544869347266354450716570782f384136576a33615379626a4f554a5846794f2f77424d303950702f77447878504e636e57537254706e6462527131714e5046664d45642b71343963584872364a30334a335a33633831756b507235494a684c366c52382b54623332324d64617a5457313730554431656c537435346e49362f6239586779354a777875636558566671583766746d6655795758555163494c2b367a307a683439627649386c352b6675314f46306b6466705a4f766469526e72644e385a596c5432335366474a474e505a39504c6c546162526d596350317a712f45366e2f774155596d2f35734762626c474f654e386a6c7473352f6a734376726b5a3237626574436f52397a6b6d5947334f5331756e342f4d30665234734a6a77587475355a586e797a79797a6e644e5862314377492b47775a386176717a31484f2b704d6e395268424c2f7548424f5648646570335769683975527742396a6f2f346e7a755762354b6e625a30667069622f414232575033786e4d6f36663075332b4f7a5638597a7031503857662b6b776d7334373250674834596b4b52384e39467766715a4e626a422f44786d7232353172744e2f7252755055376d395a68584870597a5561424e61764176766b6a523972692f2f4149302f302b62792f77416c656f6f6b56784a6e7872376651782f62476b3951742f777966376e41747152332b2f573975796e6e636c4c6a3437507139482f445867366d623549395430537253595039426c6d4a6f6e2f564e4e392f62526c6e7a4d2f33356637652f6a2f5a6a2f70546e563463712f3841717a797966315a4a385658314d39547a4e2b316b722f437a792f4b342b354a786639356e763648316b3866562b34394932783874427033663978476363397347716850547254727a48733646486a3573626a795a783665484b5a63654f6b4d386557444c4372355261504c63755050444c4f475447314b4c37363650567a47796162446b6b3553676d326236666d2b4661787a6350784e4f62394f61664c6a3535702b4a65447250676a4345594a4a4b6b534f584c6e3335334a3034384f7a4853444f483955722b7361656633677a754a48436571494e616e44333567642b6a2f6c6a48502b317972494d475250735635354447684152563855766c576a3050302f71506430436858654e306564493654597461384f56526b2f706e3030656671734f376a756d6363757a4f58365051454446466f6d66473956394361736362366c322f4c6c795131654b4630716d63612b2b754c5059705269303031614d4c2b48365254632f615673392f42316b777737636f38326644764c63656637546f4d7570316546384a4c476e6332656b78696f64496550466a78716f52534a30634f626e2b4c6b33687839694867316d36504648525a6e6b69716f326a4f5639513679436a4453703939746b344a6c6c7934784f617959577557304b6131656d2f316f395652354a47347955767337523666742b645a7448686b71766a32656e7263622b6d7550545a547673745a706f2f554d4a5332397a5562345354614e344b63464f4c6a4a576d6a77386558626e4b3957654f3862486b385a58556f72706e522b6d49526c716332546937695a61394e714f65556f5a71786e5136545234394a6a397542372b626e777934374a6662793866466c6a6e475752646a4954794c4847556e3453506e592b34396d562f5334763149312b4b782f666a325975794e666a38644a6c47375a31714e584b614a62464f3978777850736131307576384131664d3938753539336f79477849476647723663394f5639567a6e444270556f326d7a6a4975536c53387677646e36706d34594e4e2b724f4e5679384f76315073644c2f4141506e3833386c657161576c7063466634455a52693657536c7073456c3877526b4879632f33582f6233346674696e554b3847616e54344d3873626b704e3132704d3953314c2f414b444e2f6f5a35576e64752f4c5a39486f6632386a783956376c656b62526c65545134584a646d325279337037564c32665a6d31792b44706f733858506a6365544c7839586f344d753744465961624c76576d785a4a516b70576e5275446e4e78326633707979347066553133466b343568622b716e4e65575937776b5a533372544e78564f324b5738595531574f6450356f774e4a7354684f4538387261616448522b336a704c6848706659365a5467783962727a3433713750375931457436774b644c484e6d48727432303838475846432b556b627a4a70384d6e6278784f593337466f394c685843436a6c6d644f4b6357575531746e4f39564a6537746339703838394e6b68773754663149394d784e53684270394f4b504b6b31614f2b32585750506734546b75555474316d46754d734f6d7a316e3231766b597574303064567035346e386f796b786e7a6362323553766f57627873655a35747131654b5842595a503452326d7a6143576a30716a5038386e624e7334703053523335656f75654d6a6c6877343433634d69795a426e6e6461344431443375445664493258707078636336583373316e71436157766b766c6c577a366c59645844367154386e317373626c30736b2b7a35747937656264396265694c736b56516d70525458686c6c6e79646175712b6c506f316d763342614a777546386d594433354a2f32527474626f3865737775452b6e384d30634e67616d756565346e70343577362f563765486d76567a50394837575a44644d32525844544f53667969476264732b4e4b394e4c3954625963554d4d49776834525a4b6e35534d32384d763766482b32356831566e386b2f77443035332b4f56482b787032635a755765576f3132624b306b7055656761364f474f484c7a6a48387035786d635a35484a664a372b6d6d487647616362655475316e6c4b55342f77424770474d2b7931756942366c7851454d51624168677770674a445a4b676f6c61586b696d4e4a5361542b57597939556b33596b5242694f364830412b68414e44454d495a64686a65534b7675796b6e42564b4d766c4d7a66565a7670367674372f414b766a544e6b6d636a7064386848426a6738663559315a6c4c66385053396d5238666c344f5735327a437575485538574d3835783077484f50663853366a69594c6638644e79784d35664c38333456302b6234502f4a4852644d4b527a7933374375355935705553572b344b7451592b44792f6a562b613450384179597438306a5836372f6c4e51722f754d77483667303139775a67617a657365585435636359647952303475486b37702b6d2b324d2b6f34626a645a78787161682b7158776570366176772b43764842486c63656e3953733754546235686a677851634a584655652f712b504c504844746d336d347554486a7974797271624d446356656a314878394271763439463276614d585637376a6c70736d5068626b6a783463484a4d7065313379366e697a78736d546a6c61754c6c5a364436645478375a4745763841477a7a3158355a31573137746777615234736e4a7a3548763672433538574d6b6365504f595a62746470596d375a7a2f4150486356663262477439774a4e7544506e664c386b2f74727665703462503378796d367157505836694c2b355270733038575254693661445735566e3145387154566d78326661384f34652f47655355484771615071667077345a332f5a354e642b58692b625856364464384f70684654645a44644a33344f5968366378772f4a715a575a754c516176416c4a6170756c56487938384f4f333947543034637650682b6e504332543674326b325165624773697863317a2b78786571312b746a6c793463732b4c544461737335376848366d354e4339506c4d6537615472634c6e32396c32376b514b784d38396a3253376a6c2f56467253595838632b7a68326f7672376e612b70704a615848462f4d7a696b7a362f522f774144352f502f414356365a747155644867696d32754a73624f543047383438576c6842346e79526d7266634c5679677a773876427958504b7a47752f483148464a4a636f33476f37775a6f2f6544504b71727235746e635a64377779777a554950744e484379366d7a313948686c684c335454687a5a3435326474646e365861396e5752582b4b4a31484b6a67396c3344486f766555347438364e387437775338597a7a382f446e6c795a57523034756644444353337933796c7961504e743279796535616c66436b6457393877516438446a397779787a367a4c6d6971556e644862704f4c50444f327a364d63764e686e7153746c3665794e376c474c5858426e66786c384d3830327a5651303272686c6b6d306a715876756e62766a4a47657234733838355a506f3377382b4745316c6c703062644846657036655843625a623370315463476339764f76783632635a786731526a70754850486c6c7371382f5078353461787a6c72535973726a4a4e6663376661747a57534874354a64727763456d6b6a49773571612f526e304f586978354d64583238737558486c3359783673706442646e486158664a5934634a77354a4732783735704a394f346e7963756e354d6264523773657134737035757133546a463330686d712f69326a722b304b736d2b614b465535534a384c6c76397255352b48383433445a7a2b383769384f484c6878763636374d505637337a693169546a5a7932584c4b556d334b322f6b39504230325735636f382f4c314579336a67536b714e78745775656b7a70762b7a666b304e757933484a3335506f5a34544c4874727a5758483955766c3672697a3438304650484b3079354d3839304f76793661634a4a326c2f644f6a6876324763553551635435584a3075654f58365a75505a783958686c4e5a3678736238477a5472654e472f377a5153336e535271704e6e5034504c2b4c703878772f6e69323569366e55343950696e4f557170644850356438546a4a514f65316575793532314f566f373858535a57793552787a36756173776d3672312b716e7163376e4a75794f3235584458594838636a416e4b325836624b7357534d6e384e4d2b6c3236342b32665a35764d6d2f646573664c2b77327a6e59656f4d456c33426a6e762b6c71754d6a343936666c332b31373865703465326672562b6f3357696733387a4f41666b3672643932786172417355595070335a796a5070644e6a6c687836727a5a5a544c4f326567645236582f3576496c3851374f57374e31736d7168704e5a37736c30344e472b65584c6a796b2b784c4d624c58704b422b4451533376436c467247785066394f2f3772506b664c386e3431365a315044723930616a3151356669634836514e486f314a367654552f384175784d376539662b4e31474f5559645269612f545a50627a3470395647535a3958697873344a6a5a3530386d646c79746e7036704779646d67572b366478535557324333334333547774487a62302f4c752f7065716454775353584f4c74393550627333453837755461523175366276687a615365474e70794f4f35536a5452394470734c6a783256352b544c48504c6365716146772f43594f4c756f6d625a796569336a466830654c484f4831497a467632442f4c5a344d2b6e354c6e6c5a6a39586644714f4b5936756362764c62785a5639344d38726b754f544a542f76733761652b34584364526438546870797555354c35625a362b6a3438384f37756a6a7a5a34386c6e626474686f74566b775a5979684b6d6d64356f4e787736795058553135544f593276614d577330734d2f75754d6d624e6244772f4a715a4a325471506735327933575559342f6a38583673636434665a3033494c374f6579626675454952634e51354e64733057703348556370776c6b6c45386d5054392f3763705861395a322b2b4c4b4f366a6e78546d34526d6e4a4678796e703658504e6d6d302f7742477a716d6365546a75475678656a683566695939316d6b4a48446571312f543448583977376952772f7172764e707630697a76306638735a352f546b42554d52396c7749614542424f7a4b785a4f4474644d77724a70324c4763736478332b3037747a6a48486d6476345a303661705537504a7347567071704d33756b33584e7033334a7952382f6e3658643367636655336a76626e7654766241357062387572786d564865644d31665a354c302f4c5037586f6e56634e2f766a64693548505a743977525434776b7a417a37354c4a63564469714c6a30334a62365a793676686b3858626561376363656c717052636d6566366e56547a5a65553075524c506d63766b774a54732b6e77634534707636764c633875613776706170646d383272635a61544d6b31654f586b35784e706c2b504a544f6d65457a78315573754e6d5750755056734f6f7835594b554a4a706d5279504e74507273324e726a4d33324c66354a7053687952387a6b36544b587739474856342b732f46645630774e482f484e4a384a32596d583141725378346a6c38767933364f743672686e397a705a4f6c626449356664743178385a34636476384155316d713358506d666270665a47697935626262505877644c71793550507964526554394f4870584b6473334f77502f4149697253384767757a50304f6f2f4435343546355062795466486c6a474a72477931366e646649636a6d492b6f452b3341543337703169506b33706558667036666d654c376a31564250446f3766797a6a59394e6d343366632f78384d4d484375466d6a542b44365054345a59385862586d354d706e6c625054315452762b716162716c77526c5763566f39367959636178754e78534d782b6f57756f346b66507a36666b3772715052683158464d5a4c6274306d5670347379662b577a797130354f6c58624f727a62363343636546386f30636c4b52374f6b3438734f37626a79386d504c5a32733352353534636b4a786c565373377a51626e69315652707879664b5a35704870326d5a2b4455546730314a706e546d344a79542f4c6c4d382b484c7578387a3678366b4a73347a467657614d616b724d794f2f4b75384c732b66656c354a6654317a724f4b7a7a644f6d73477a6d5836685338596a417937356d6c475355575435626c746b30767a6646394b365857362f447063556e79546e396b63447264626c315753386a73717935355a4a7555704f7a446e4b326651344f6e6e48357674357375544c6b762b456b3379704c796254543563324357506a4e716e38664a714974386b656a61625161536544444a3456626961353838634d5a3354785434567a39585654306538596338493833786d625a5a384c645279525a725a37526f3570566a7169724e746b493435764333796f2b62634f4c4b2b4c593759353952787a395745725a7a316d6e68664c4c564657693173645a504a783852384d34436279347553794b5670396e57656e73636f36567a6c307053364c796345777733733475707a354f58743764523052466a49746e6b65333776506655556f2f6a3552586371746d6e7879716166324e6e763150634d6b723770476d35556666346634735039506d636b336c6b374c61643334513972505846644b52314d636b4a4a4f45314a486c4d636c49326d6c33444a68726849386e50307664626c696366555a38666a4b62786569332b6f7553733542656f4e517158424e456e762b523275435235766c6558375052383378613931316a5a695a74586778527565534b52793874347a552b5079616a50714a35507a733634644a642f7163382b736c3859526c37727231715a4f4b636c46534f636b2b32585a63695a69746e7678776d4d314978684c664e4172592b694a70316b4c794f77414b41424252454e442f3841596857515254375a59714b6b7244754b2b356a4c315774546130435171505177517842594567454245536f6b6e5242574d49795935615265737a587961386e466879793438613255633336684c4f36585a722b51374e54546e384848624e6564763549787974664a68755131496150685458706e652b79696557585a6a4f54446b3254582b6d7078536651536c4976686d61526a736947376a4c504d5a767676376c63706d5059373638684a78794c4c52617055596f7554515734625a727a4e4950646252683868702b517a384b665a64626b645036627a776a714a776b363549354f7a4d3075615743664f50357667787934642f486c6958394f737050566572496e3061486239307836694b397964544e34712b36506935345a5958566652342b58486b78334e4d50553764706455314c4c4332476c327a53615366504644737a61706a744537383961336445342b506664327a61566b5a454a5453542b7064476d312b36347355477357524f51773438733771484a793438654e74736158314c6e78546e68677058784f542b664a6c616e4970796e4a76755272375073384f485a787a46344e336b74795a697930682b37497775524c6c52315a764650737966646c564e6c545a587973545930314d4a4752484b574c4d7a437568386d5043586a6c5a6675464d7074333256636d415759534c4935476d5a437a506f77724859305a59532f526e652b7a487954636e646c584e6b6262496d50484a64364f36476e5449694b36615a45636a587958724d59492b564455633778797339366951652f61374d42794570646a555a2b446a7230795a5a4732554f514e6b4748544847524c6b5455714b557832477269795935476e354c316d5a674a6b75516338754f566e4c4f787255477635687944507763667379586b624b7079374b374932485359534a324f4d6973463544576f7934356d6978356a4755497978536e484a62692b346c664a6b6372783433364c636d52766f783742797367563278786b695a5a4756464977574d315a6d6c5668377a614d4e746f56734d66437858536d37386b623749427944586179345a612b53547a4f7a426243324766685932375a4f544a79386c566c566b72445577314e4c6f355a522b5337337058354d4b7954595a76486a666f79355a5730564a707370734536594a684a4c70337670334a426165654a50757a71457a7a44513675656e79776e422b4764377064666731435831714d76737a3558566357557a75556a7477633270325a4e6d61725073326a7a3570355a78647938306251447934355a3458786248707977777939785470394c673073654f474e524d6d79466b4d6d534f4f4e7a64497a65374b377539745474786e6a516d306b354e394a577a7a666574542b49316b704a756c306a6f3979335344684b4f4b5672354f487a54354e2f7566523654677550367138664c79392b556d5071653144516874697339345142597241594b77596771794d6d69355a5a47505957566934792f526e5231456b57724b326d37384775556838773558686e325a377a465573746d4c596d33594a78534c4a54624b785741645a4e474e53494152644d69453257724d3059524e5344463435575973306d5365576a42354d584a686a34555a5538725a524a746b62454738635a4169635a55566a5161735a4b79304e5a32596f426a346550325a584b44684a796c39567269696d305644546442657a53395a574e5a576a4862454473782b7939355769766b523746595759794a386d545532556746754d5a554d6b72386c72794e4c79594e30506e5a484f3863745a697955526c6e6b31526938685743635532736c4c735632566a54447032725965543048594e544c4c7066626c35676565516e544e746f4e5850424e4f4d71374f50556366784d4e4d393177796c2b6a3031456a53365064634762696e4c6a4d326e765937726e482f632b526c686c6a66566537486c3438354e5743576e7779626c4c4846325468434d49714d556b6b436261524235497875354a56393253392b586a7a563168505068625a6a616a5048426a6c4f543849784e52756d6c77576e4c6d31396a6b3978335357706b30725544747739506c6e6c4e7a55634f58714d5a4e5933646172585a3371632b624b2f37306a41736c4b586c465a396a47535352353550756b704f714a526d305632497139735a5875796f50645a693231386a6a46796b6c595a2b48697950646c3979716553543773684a4f4c6b72384d726249316a68696b335a41412b51365178457667696941414b414b4269416941517752464643634c2f76456758544d5a65717550754a43524b6848647a4941456771514e64674d4953433748515555434a43485151307953737330324a3573384d4b6a664a30622f4148725161625261544653715a6d35795a544836316c7a6772374c4d4f484a6c6e47474f4c62624e784830377258334b53467a7878393251614e677a6236725a4e64672b705135772b38545555303661646c6d654e3957555147536357524b6f727341453154414c443547304b676f476743676832546a4a706c644d645545756d66677a4f44744d7a34613755516358444e4a476b54614c597671374d5a5959583348444c447a755778306b6436316b562f616c6e38613144566535542b364f58636e3978386e39796642347677696135503841795a4e334c58353379355a355376376d72795a5537374d61556e397973314d4d4d666f546a76764c4b3054626b55736e596c566d6e706e6845427455425649426741674141706a463846326e782b356d68443773497161465230753762526a306544466b67756d715a7a533847634d386335754268544562376164716875454a7a3979754a4d38706a6a62556145475a4f71302f34625050457038754c4d5a6f7375314167416f4f7748516644414142425466676f414e70445a64787959316b574c706d767a5963754449386553456f796a3554526a76787438555643624a4538574757624a48484475544e436b667962616579612b45584e773653733156577959357a4c306f386851554b693741464d644d756a7038303033434c6c586d676256516a3951692f484355484c6e427236666b6f4d3754363145524a69534e4e43676f417341454177453747485972734267496b424541716a61364462636d74632b487768624a4e306173646d5a7239446d304f654f504a58636254526769575762676b443869535a75636579367a4c68785a49525831717a4757556e756a583435555a304d314f4476775a4576542b76546a786c417864567465763061686b7975484336644d6e64686c34334848506933353232654c64645444786d624c33764f72646630687a555a4d6e7a72354a38486a2f41426a6e726b6e726b796441393531645573765a68357479315756766e6d6258324c396c304f50577649386966544e587273483458575a3856326f737a6a68777a4b3479546358747a31357a756c65584e666b77333237484a32524f7a70686a4d5967496c51494f7530524459676f41414b6f476874445343626745585177354d6a536842742f6f694468556d6d71614a746e614347757a626262746b74644f61766a474b386c4734616248704e52504843616b6964383774473275474e694b70444141414b42655358674349414143524a73545141415776755334335a3257326256706452743063325846467a706d4d3835684a6154793473427a342b356b5566436d3068664a6f434a57364c6357444a6d6d6f5934387050776a704d58707a4b6f526c6b7977526e4c504848335563702b3448544c307a6d34747250426e505a635478354a5262384e6f754f65475871694b4530424c344e62525753585551513659564543646542454e6f4e4252646978776e4a526b36354e4a503757644271396f30756d30664f47524f6346624d32795766354e7562716838537a484279644b722f553265543848707450486934797a767972744975303357715453645558786e4653756a482b62476d566a4c48625a516e7954624a52797954766d2f39794f6a30476f3161792b7931555559567a783347586d4c706d6232323631484834587656625033386a6e46764c4c7239615153314f5675584c4c4a72397a57632b3332484a6a73782f452b4866757a4d6d6f5655596b3558386c546b525a71545830627734706947494c424a7670476e5971594a534f31326e614d4377787a36696e66777a4e6a2f434d387059497768664938325855597a4c5772577465764d656565522b456237664e726a6f5a5279346b754535476e397545596370532f394858484f5a7a63532b475063694a4d69615746386a7347694b43704347465551494b4c4f456e486b7643644d67416d496b41435136424d6b5170565a4b766b695074726f786c367166574a45506b6b49374a45574e4d416f4b615937516773496b686b514b6d6b6745506f493662303370316d3155386a697167697631446e576656384f6655504d5459656c344e4c4f7a52376f3731326f363773383038395466384145532b4d59322f706e46436554554f634533464c697972663875726a6e68473551783161614e526f39586d306d574d7363362b35327548576266754f50686e5376374d7879544c486b37374c63556c6d744f536875757578596e446e6656646d73766e6b584c7a4b52316d76394f786c423564482b627a566e4c3463615773785973765457524a6f36345a345757344c32333674746b32445677554a4a70786b58723078716e5635344936725735765a3075536366377345634c6a335858504c4763387a727a527777354f62506572504457556d4b72586256714e42547932303335526770636d6b6c622b45656a35654f763271622b2b4f307a6a2f41452f70336d3348444b63564b4d55327a72687a57345a334c33695744533748724e58474d71574f50366d586c394e5a34596d345a6f7a6b6a59377a724a5947384d4a38584b4e6d6f3057366176446d78336c6267326b3079642f4e63653657615937705044545a734758545334356f4f444d725162646e313766733861586d7a7166554f6b686d3055632f473551374d48307a66346a4f6c31634c5a666a57384e796e754e616d354776782b6e39786e4f53714b535a64503035725951636d314e723452744e38312b62444b476d7853726d75566c6d7762686d7a7a7959732b546c4c345a6a34764e32642f6a532f70337078543662692f4b4e746f646f7a3678637679786149377a4259647a794b4d61544f77774c4c5062495041366c784e3538746e486a6c50717a4a3563316e394f36694562686e55332f684e464f4573636e47586c4f6d62536339793032615570536e7a643331614e644c6e6d797154747563315a303438737462746c5a3276306d33366e562f32634f72386d336e365a315050724e4536444a4e62627464786a58474b532f646e477a33585871626d73376664704d342f463563376533576f332b6d57543673625661444e7070754d6c6154717a47785163707867767a4e306b6569344d736477323235593474796a542f6334504242346462686a4a2f5573795231342b57357a4b5761735773703746754d733059634b542f76467566303971394e686e6d6c6b69306c6252327576314d644c703535584c75767073346e4c7532717971554a5a62557a6c7838764c795757613075566b6d6d717761664e6e6e47474b446370506f336e38746176357a59374e33734f4832644535316553556d614c4f39316e7158574f6471547237554d75624b35575455306e7153746671747031656c766c486b6c35614d434b354e557250544e7665545070654f664854716d6d634e6f4e4c2f78583259666b6a6b666b31687a3737747a7a4262704e6c316572376931434b66795a3250594e567038384a79616c46532b44646233714a6154424659556f7554705561626274317a777a72486c6e4b554a644a737838546c7a7875553947385a5a69325071685365677775503565617448444e4a556431366d37323244586a33596e444d33307638662f414e584c3252326670653367314666633477375430785873366c47756f2f6979536534777332783676553676557a7452584c7073784d7670336363634850716447783362634d384e5437654b644b757a5962467263326f775a495a7063704a6e48346e4c6a6833654e4c343359346e4270703539542b48682b646d54727473314767342b373461386d5a756c3764766e504655656c4a6e55376c7038653437567a6a322b4b6d6d6276505a654f362f545630383968427961533873324f71327255615844484c6b726979577a5973657131654f506172733366716a496c68776164664c73336c7933346d4f4d5a6b3937635a3448424e74557242396966506a394a3348716543584453616155335339744770332f41452f75365048716f523563583358796a4e6c4c486b3262484f55577636736d4c614d325056626437584a536c4663576d664b6d57574f56792b32532b39592f3465634e747278326462366330555570366964753130615455614f554e66384168576b704f667764746e39765162584a4a31786a5350567a6376364a4d6671592b7266737a3566566879552f376a504b2b4c63352f7743706e705732756339736a4b586c776c5235784334354a585671544d394c75586b687958784c507332656e3250565a314238754e6c32583033726f707546534a766464664b454d574a2f336136526c624e71746648574b47546e7770743261797a35636433776d4f55757071755979616250686e37575746542b78324778625a71744e6b6e6c7a50365a525649782f55754b386d4c4c3462526636643165707a5a4d6d4c4c4a7545594b69636d655758463354367a79532f7230687575305a74526c6c6b78484a2f68352b2f375039376c52316d39626c71644c71316a7754704f4a7a576d6738327378796c4b356330374c78586b2b4874637464315a5754594e78556f7052585a5056624271744a676c6e6c6d6a4a5256754e48593772716f3650545a4d7a752f45546839547557707a3470516552302f4b48466e79386d723430747576434f6b3272566133444c4c69343965557a58547879785a4a34354b6e46307a742f54462f677057762b34636e754d4f47346176384157625a3077354c6c795a592f5939486f7476314f746c4a595575696a4c7038754c5050464e564b506b367630704753656330323876687238375675584e575434742b4a6c6a7231457672776a704e6a316d716b70666c782f4466795a576230337249516c4b4534536f3632484c4c746b56676c3958746456384d34324f6f334c54796e444c50497137646d4d65586b7974317161713557597966567076626e476643537158325a75467357756e444850476f7a553166544e666b7965376c39795572626b6a3062484e594e4269794a64527858534e63764c6e684d6454327a6a643763686c3950617a4868353347585630594f30597456505554687063736b36566d54717434316d5a766a6b63492f59796654437257355666393279334c6b2b46626c705a5a394771334b4f70576f6c48557962794c376d744e2f366a5848635a5835614e4164654b377778762b424e4b30656c52626874634a4c7072436a7a56577a30375331506138484a65634335486e366d36375039726a3958422f6a39544a4b587679704d727a3672506e56547975534f6a654859636e58754b4d6d374e48756b6448445044384e4c366137534e38646c763762484c742f7978644e70732b717a527734594f54666e39446653394c3670704e5a344a6d78394f34344c5179795572636e636a54367a63645a2b4d7971476f6363635a556b59764c79584f7a44364e654d5a7574357357683147696c6d6a6e666c39484c373546523348554f7a72746b316b3954686b73723554684c79636e3668682f774156792f4b346f7878584b382b573535303134754d6f77374a71732b6b2f4551726a566d6e6478752f67394d3279455937566a536c3038556a7a547054794b66784f535a3134755335334f5836466e694e7867325855366a536669453478564e6d6b564e486f2b32635a6254682b5677646e4562646f2f774154726f4a7876473532304f506c7475652f6f7570706c615459745471597164754b2f557631487076555963626e697972492f6c48513733717677656d55634c71624f55773770724d637553795754446b35632f4d31704c5a6931663466507a346532314f366f336d6d394f617161353573735947756e71732b5455504f33395632714e673958752b733471446e532b794f6d647a3861314476585a2f546d716a446e686e476636476b6a676d387674546a78794a303473374c5a587238655757505557343161624e50366853573774704a5068466e4c446c7975647876324d704f7a6364447332335a6444696e3772567a647047703166702f506e7a354d6b4d30556d624c30376e7a616e54356f355a386e4356493032356137583474626c77787a31434c4f574e354c793561766c64347a43577372467357726847346168783637527a3234594d75485554686c376b766b36335964547164577451382b532b464a476739526356756375375467724e345a356645754f54506250466a586166627458712f374750376e52592f544d6270367236326a62625a69686f74756336643862374f5479376a714d325757543353392b65655755787570467555786b334e727466366531656c6a7a684c336c3830614c6a39303152336d7737685055597034386a75554a484c627a67656e317566697252726a354d7263736376635736314c47524859645850545973324e4a383162526e61663030387349764a714f4d6e4874493654547a654c61634f5358584854707334544a7139613876764c5579545474552b714d546b354d2b37566b3153397330653437526c322b63626e7a684c777a417859486d7977784c7a4a3065695a59725662587a794a4f58743876384132656534386d5347534d6f6453547455644f4c4f3559356239784d74376447765453344c6e7256466c4f6f394e3563654c6e697a6537587852524f5736616c526547452b2f4e6e53374e6a316d5044576f7533397a6e6c795a342b6536565a352b6a674a517952626a4b4c6a4b366f3943325266384c682f706b63707663566a334c50474832544f7332613562626a6679347948506c336357464a37727a764d6f724a6c70563963762f346c5437646c75564c336372582b4f525852367670423076706d554a61764c7a2b492f53624831442b4d684345735672456b314d354c535a4a3463385a526449376e546278704d38466a7a65583162586b38334a4d706e4d39626876483035445436375559556e444b30595752756335542b5732327a763956736d6b31474a2b7731462f4648475938457365766a70386c786b7030644f506b77796c31504c4e78735a656832545636714d636a5843442b5762643742704b532f45726b6266634d363047686a56326b6f6f346e4c714a355a71626b303037364f654f664a796273756f6d646d4e5a4f74324c5636526535635a772b576a55635a55656861444939646f5a71586870785a79323134497265466761754d584a5558446c75732b3733463176576d566f746865584370355a317966544c3876707a5472484f474c55586b386f79742f774255384563574344636566646f3550486e7a5935636c6c6e7975377359586c7a6e644d74524c5a69716c686e693145634531557561542f524d334f3762566b30574b47565a3238637154544e584c4e6d79366d4f547a4b556f706e616231533271584e5736535272504c4b5a38632b2f745a7179754a302b6c6e714d696a413371324442697763745a6e5356333057656d38432f455a4a2f614e4766764f336176576350626e394b2b44484a7932636e627653342b74735055656e736557474f57697a47672f43634d2f34584f754d2b586b367a62647631476a79395a3234563346757a572b7059522f45347052387550624848795a334b3437332f6b7574626442743267686f73456f5938716b7049314766594e4a504c6c79797a754c6476695a507035796c70386a6b323276427a57355a387374586e6935766a66673559546b764c6c4f35626c4f7958544c3272624d4734347374355770776c585271645a70356154563564504a2f6b72733276703750374773635642384a394e6d62366d306a553461755037534f30354d736558575638574d366d7644563762745034366663366775325975363654486f395738454a4e7052544f76326654513032692f4553663841614c6b635a72386a793633504e747535556d7a6547647a354d7458394d583149776937464f4d4a776b31644e4650795a656c7750555a38654a4a766b2f67375a65716c6567592b473437644b4d48584b46476e304f785a4d4f64547a5a565558615a75634f4c53375a706155754d664c746d524e4c56346b38553034746555664d37374c6c4a664662736c3139335062396c575347504842326f74747335484c636d7055362f55364c53787a2f774157574450486c464d6c366c574b475842474d4572733948466c323678537a666c796f6d536b694a3669454d42494b6b6b4446594150744a39745752474942677641676f416f6b674a494a55624838426147704a476370346f69775141374f6f4767566a56695941776f513041304d426843374a784944435632587069584a5a342f616a55623544687547597a66542b7068697a314c70535258366c7835593672466b345647612f4d6561654f70762b597a504d614f4748555a464b5750444b616a356f7463336a567537526e3758754d7446376c704f4c53364e36747832544975575442322f4e784e353532585877375a2f686d7958586d4c39677936724a67664f2b4337697a6e6479574f57375434705253797032627a4e752b4659654f6d584135567a6e6b314362376c7a527834384c335a3561314c3944763841574d75394f2b31324b575462707868486c4b574e556a7a3959386b4d69784b4839496e58453948795a6f366252787976766a6a526f7634726f503756616550764e397669632b444c4b64306d4f3931726c75506a646250452f774150746b566c6a58304f7a6c2f5432565974776b6b6e786d5a4f34377450555255497853696154446e6e687971654f564e4f7a727838562b48796239354d66462b33714f68395261616675777a782f4c78706e506158426b314f5745494a32354936694f3934636b4648506a5576763043335061734c76484468496d47584a686832396957793363724e33544a4848746b735533334b4b696158307a31724d312f4f4d774e783171316a38756b2b6d543258567730656f7a54794b314b46462b465a775a7a586d745450646c32792f557452316d422f4c673649656e7157752f654e6d50766d706a713952444a42327548534962527131707454796b306c52715958356674313530572b5a6b792f55616a50634971716641784d477531656b63616e4a5258772f444a377471734772315875592f73625442755733357345635770774c3655684a7268777875467246753737307a74733352626b736d504a68706f3047767777304f354b4d59506770636a63346431322f456d38474e484c616a5635745471387566492f4c365836474f4c444b5a5a616c6d4e6a57566c7831767a485a627447657132364c783233314e49344c4c4b4d5858362b44707444765477596f34383363453652665055624e504b736e734a79383351342b2f69334f33634f37433257356162445a38663462626f75626464794f51357779376b7078707035557a65617665705377764669784a4b714f6277745938384a7056556b7a5844686c4c6e6c6671316338624a713764703668696e747a6637556348422f5576746173366664397a78367252787834704e4e55637262586733302b467877737257566d5870364c744754466e30634869745661646d6c79623971734f584c6a6c46537154534e66745735543072615466466d36657332764e4f63736d4b504e6e433866626e6c626a75564c6e4e536231597748366731627637474874633239787854794e3979624e746c334c6273554643474b3139714f616a6b617a6535487170576a726a686a6363704d4e6259336665397575395234355330384a516b7155375a792b69787a7a367246474d6554556b32644869336a54354d4468716f3867687557673072543032507378683334345844744c6c68627662493952722f4149622b764f4a77636c326458756d364c55364a7737556e4b30636d6d33354f6e54343559345757665630334d764d6f534f79394c754b6871556361644c736573773654486d352b5a477565584c6a7369626b737472433379453865355a5730366c564732394d786e376d65564f6d6a4b6e7532673146724e6a5434466e385830474454754f6d677a686c6c6e654b59646c4f374865397450366b6e6a6c7272705877535a75646731634d756d39722f4141716b6a6a39546e6e6d6e4a7938746d7832664a4444715956355a6375502f414b4a50744537395a532f65756d322f624d4f687a5a3873664d7a6a7430316a315770794e76714c714a334734366d4f6e306b3539322b6a7a6954354e752f6b6e545335627a726556383655496d7063565967696e795473396950543862543261485670365935625964584854616a3270756c4d32574c654e4c6a327859704e38316963556366686b34536a4a64506c5a34734f4b326373796e752b444c5039746e306a30584c6f4d55397968713674714a6f4e2b31716e6b6c676a346a354d2f46764f6d7836534675386c646e4a366e4b73756163342f4c4d3850466c3366712b69636e4a4d704a6a396662756470764a746546332f636b6344464b65706a6a6b333957576e2f414c6e57626475656e773764786c4b7052745563677573385a78622f414c533064654c484b5a6374306c796c78782f7848653669576b326a525261783970556e56757a573762765762563671474b5746642b57766845356274707375465939524253727978594e77326a544b734d664c3764484c737662643432355836726a7954372b4750366e2f414436547a546956656d707757717a58507a41723337585964584c4237586942686256716c707452376b6a726a686c656e3762504b584b62376d5836695636364836784e566f342f316e433758553064586e334c61636a764a42536c3864484a2f517451707056486e663841364e386376772b3234324756383732374c314972323258562f5845344639744859377875656d314768397146386e5278713636485453345958632b72647374384f31394d3556505435593875347a4f623362473847757a4b53664a7a627637325862527270614c554e2f334a4c366a70387534625a6e536c6d684758376f35325a38664c6c6c4d64797076483174543661775a494c4a6b6d71556b633976554f4f3535354c7473366a4676576b353846476f4c77636e7575574d39666d7a596e643151342b36387557647831754673314a4b797444755770306365504b6b2f686f36585261764275634a787959553334624e62673348525a744f6c716361757166526c52334c62644e6a61303753363845354d6262347773724f475772643378396e4d626a7073576a3175584642326d725232476f546a7366474c37396c4848787a34703678353952446b6d7a714e5475656978364c4a44426b756268304f535a583463317656616c6e6c794d744d2f6139796557455838522b546637426a78523145355973334a3846614f546d37647432626a61645444535a316c6e4e55315232354a63734c43654e4c76556b50362f43582f414e446e6d62666564546a3165716a6c682f684e516234705a686a4b3173302b6a30725353725a735456702f687a7a587634386e64365865644e485359595a46556f77555763757078746d4f7076564e347a3364626a6a4a76484f54616446504e4f366b6a7546714e6c62352f6834394772335050746558545468687778575331564931686e66585a59357a736e6a7532336577665674716838327a6b6458436548563573632f4b6b5a4730362f4c705a3131776f336d54636475797a57544e69546b766d6a6e4a6e68795a585735557975507131647347444e6a78796e6b564b624e42763676644d7a2b38456236472f59506434527876676a6d6430314d4e5472636d57436646704534706e65584c4b3436384e393250627156326d31714f5461636153756f4d38346c462b396c676f506e7a66302f506b36506139312f4377574b53754a736e7557324b53794c4642542b37585a4d5a6e7835386e366479723334366b3335624c51526550625647554f4c6a69375279577936714f6e31304f5869626f36423735703343584a664278574f636f7935664b6b36484668662b7a632f636c7a6c31712b6e562b70734d3369777a676e4a4a396e4a596f354d7271455764667039377854307957706772384465363764696a7a7834563134364e6365576547506232576c7978726d74466763746668787a692f77413331524f7a334c557830474b4377775674306a6a66786d5757766e72492f53354f30644e2f476446714d4d566e785736584b30586c6d56797775747a374a7565664b33614e667164566e794b615842523872345a7066556c66784e662b4647337837336f6f5a56697777536a38306a51377671386573314b79775868555934384d76693933627161617555375a4e2b5735394d756f357a543733462f78484f326e5139703347656a79742b597958614e33714e3130476145316c6775636f31615265334c486d74376479733930754f743673592f706a4c3965706852722f5555553930384f6e6a513970317550535a7375522f5068474c756d722f46367435664334704773634c386535613861535a2b4e5432374c52354d4f72304842636b2b48466e6e6b303857576547554a4b555852754e46756562545678665879626c37787438337a6e70317a2b39456b79347338745463717a50484b6179385749656d74504f454d2b576358465471724e4e766d645a4e626d634a4e7755616f3275713379504234384f4f6f74484c7a6c79666276397938574758666c6e5a72634c6c50456a765a535758594f2f384149505034756f55644e50643453327a384e586178714a79386174496357475750662f6d30746c6b656851556c74627635772b446c4e69787157766a444a42564732626d47373476775874507a776f35725261724e707454484e46664c757a4f474755783550387233593132573736374c704844324944326e56367a5671633836714b66306d486c337654546a42354d6479486a337a44467065322b42792b486c32363754346b6c33334e4e76334637706c70393845644a73636e6b326d464c376f35446373304e527263756546314b6a613644637677756a554c70573264382b4f3368776e3169643833763775637a52724e6e2f41504a49714c6373336b79546e39354e6c52364e65493079394c70632b70356531427669574c486c6a4a786c6a6b6e48376f733047345a4e464b636f5654523045642f7754567a787862583352787a797a783959797357532b317670794764777a7a6e4a385858464d3165384f454e34686c383861756a497a2b6f473034594d53696e38704850354d6a6c6c6c6b6b37624f6648686c633873724e4e584c553148633772676c754f3378396a79716d63473454352b3234533550346f332b693369656e78714c6e6153716d58354e2b77506a4b47434c6c583247457a343979593769584b5a58666e626137646a656930446554364971504a6e4e376272462f47486c6b3438484b564d577333584c716c54745271714e5442526a4f4d7673374c6a783357652f644f2b66384136645a366a3075544b73476648427934576e527a656e305773314d766f774d33574c6670346f52553463346f766e36686a53654846784746354d4a327a4575574e6d33505a6345744c7159777952616d6d6a7374386733744e4e393948485a637a7a5a6e6b6c4b354766717430795a744a374d6e614c6e6a6c6c6c686674574a6e72633873763037716f59387558444a5679384d796437577177356363384f5761545868484c595a7545755362544e2f69332f4e7753793434794a6e68652f756b32314d35717974662b4d334354564b5a6a616c35336c2f702b584b766b3345742b68334659456d614856366e4a7163726e4a393152764361752b33536133395857656d707268714666614f64334c54366a386471356532366337524c624e626b306d5334767039534e746b33314a307361663364474e5a593874796b3374755a593976613576426e79594a336a796365315a333246343978322b43797773382b79536a504a4f5549306d32364f3039504f55744b2b636572364855347a746d58314d666137646373644a742f745136744a49344756577a6f6438315850505046622b68306335493663475062682f733376494a4f544f6832567642724d664f46636a6e30364d6e466c7955334679744738357647784c75617272392b303266503763385557344c3879527264747a376a687a517852684c6732756d6834642f7a596f52673379363830575031444c346772504a325a7a4874375a66386d3576666c315074345a5a4650696c6b2b35782b2f36624e4c55724c4a546345714b732b38616e4e4b446255457673523157395a3534486954553031585a6550697a78796c622b4a4d764532306334785470464c4a4a686448724a754973564445476746685447674659776f4141596741646a49456b77675956315a4d6b6e55544e39564e6f4364457146523151425141514b685652494371517747456f6f596d44417963475a345a71534f69334c6338477330456362672b5a79794a746d63734d6373736239597864792b43546f6b35454c45614e62577562434753554a786c48345a5754787863354b4556636e3452504771616b2b6a734e5475326e796142346f4a3833424935586d2b79334e70395668693350424e4a4b376f784f56396e506a77787833706a567975386c6a6d364b3077766f33326a324450714d5563737038564c7762797978776d37644c4d66384144555175585338705755747073322b3437546c304f465457546e624d76542b6e66647759736d624b344e72344d586d34354a56787738317a764a73664b5273395a746b384f6f78344d5575626d756a46316d68314f6863566d6a3031355867334d386272563970706a536b324b7a5a62586f50782b535335306b55626870486f39544c46647044767833322f5664655054456368325a47505136764e46537834473476354d5a77635a4f4c386f4a34506c524336736b3130514b73306e796442794b786731466a6d33386b6556454257565a6a45355374465943374b736d6b3479347374356c434a704e6b384a5a466e4a73566c6b73453858486e306d62665237504456516e4b4f5279723747626c6a6a4e327379527065544535396b736d5032386d534438786b346b456b57613175476f5570746b427470444b3150434a5a47564561364551766c4e794570635653496973756a53584a326272614d2b6d78357565623458526f666b74684a497a6c6a3353784d736645644a765776687165454d6262696a6d48355a5a4b52584747544c793975457031357057544443595936617833643268676a4b65333635526a4c384e4e702f4e464d38476648486e50464e52757530575766645135326b5273674f797032794c4f622b574c6b5173416d6c6b702f5351544643616a4b4d6d7253666a376d7a316d6c7853677458705a72326e2b61487a466b5874307765626f464d6f354d4c4e4a324c705373536b5643437a474c584d464d7147687065324a796d32794e6b517353456931546f667558354b51737032786b4c4956796d37497274305a5758523538574c335a516c7771376f7a644a715371564f76412b61534b4c446b5452324c484d546c614b37465961375575685549665a564e73526650446b6a6855357763652f6c464a4e68784c584e385568593857544c61787862612b454a34386b507a78702f5a6c38656d624a566a6e616f726236496b5778345359707154524c3347556a4333474c316b5970535a644862395939503738635463504e6f77784c4c754a325461364d694c6b6d797473535a56375751386a4b2b5452477857516d4d6e3057764a616f58506f724730447469616d4e7a4b30784e6f68327a66705a4756436332565777374b7661756a4e6a6c4b7970456b704e556c62496d70744b4d3267636d325a557474316d5054787a797874526173776c356f545639476f73354d4f624b33792b555273734f324c4f596d7946695a566d4b376e614932724952386e51625674574458632b556e7969597a73786d37364e535854532b3553493832586133422b47314f5846387152696958633345375a396c334d61794d6f4d724270745271452f5a784f6465614e654a4c73754d5675524c6e63654a6d4c6164786362656e61464c6139626a55335043364a4d736239596c786a584542744e416974704a6b3079736476776b5370597373566b6578686e53635a7443637579466b6c56712f41756f6167636d6857327a714a3748672f6836314e795531486b7a6c32715a6a4850484c657670563079767732663841442b2f772f6f2f75593173795a61334e505452302f4b6f4c344d526554536153746a636e526b6166535a7454336a67354a4f6e52647174757a36524b655656475869796430324d46456b2f676758594e506e314c6178596e4b6e3278754a72614448677850506c6a6a5453622b35752f35653161786331584c374776793762724e505535516e483955535a3458316c47706a574a4c2b6a795a494f726a4a6f684a32516332334a743237386d7a305731366e567134786466446f31624a4e314e65665457573037523032693371476d306b6358744e79535a572f547570354e63374e58713946714e464a724c422f755974342b536132746c5932664c6b7a5a70355a2f6d6b2b796f4c624d7a54364456617276466962566d397a4751594e6f767735355966635356716358466f32477532764a6f59516e4c386b6a5473537a4c7a46392b4e4c5979717863364b7839464f324a383251624973665642645345675944497149714777436b686f6c43504a3041545a5741554630414d5859774166455645686b54644f4e7575724a55705858676c68792b786b5531464f76686c664a784a6656543677724541485149454d416f594251796f4141514259784567454d414b6759364164674a4854656d394a47656557655878344f626964397457466150626c4f617131625a352b664c574770395358793232565131574c4c676e4a4e53564d3878314f6e6e704e546c3038306b347672396a7074713164612f4a63726a6b624965704e4d7664786174526b376a786b7a6a77373475547476724b4c335450473354523654533574544f4b787875566e6f476f785a6c6f7034385461796533536f346e51613750704a70592b4e53644f7a764d32624a6a306b7379726b6f6369645463752f4766524f50566d567463586a306d36764e676a6d78354f484e4e327a71397a686e79614b63634b2b70704930574c314871636b385558696a55707048523637552f68744a6b79384c6464493435334f355962786d32734f7a57586c784d6446756d6e7a59636977354a4f44365a66752b6f312b58424848714d53676d307a5a61546674546d7a344d633863654d33544d6e314847394c6966326b64386373707934544c435373616e6263736236612f307854793670636170497876556b4774636d766d426c656d4776784f6f2f57434b5055742f6a735832344633666d722f414b57612b4572327a56363746704644426865524a75326162554e764e4f34714d6d32364f79394f4c2b7135563935484d626e6a5750634d7a582b4a3947384d356558504854466c314d6c4f44516176557076446963714c4a374c75554c637350535878326256627a6b78596c6a78596f78714b4d6e613938314f66564c466d6a476d5450506b7833653261693458477552654f635a635a4b6e396a71646b304674797a3446313449656f7345636570686c676b75614e707357737961694c785453724769636e4a62777a4b4e5979586b315768336e624d32505679396a54503235553030614b654f654e754d6f744d3776634e3479615050374b784b527a4f474c33446334323655326d30613465545073336e50456e7379754d7931477577615056616e2b7877796b587a327663636175656c6b64707547705731594976446937756a463276654e567163367835636134794d33714d37356d4d30766a6571346638414c4a706b37795366474362763452306e71505251777a785a634f4e52553773324870335259767733767a6770542b4762764e5068392b6a57386e4c2f414d4e317a787249734532766e376f36663031676e44486e745356535334737131652f35495a5a517778565264472f322f56343954695762476b76756b634f586b7a7546336a4a737831336165653635545773314e763841767377615a747433542f48353276446b7a567057657a6a3834592f365a39625a4f6b3038383266484651357131614f73336662635430463666425757346d69327657505361694c6a464e53365a32657431663462537a3146664361504e7a35357a6b7830316871793276504a36624c686a6566444f456e347372686a6e6c366846746d30334463386d75787134654f7a704e6f306544543761733834314a78355849363563765a684c6c504e596b3772584b66776263754c6c2b486c52673564506e77395a4d556f763954703954366831504e6578474c676a6534487074313066755a4d63584b6e4776737a6e38787959367557453036547476712b586d6f7a4b316d483264566c782f5a6d4c345a367064795837737372533665577131475044487a4a6e654c3848744f6d535353767075764c4f59395077685058392f454c526d65705a4f476653342f687762504c793376355a68767754786a61716e366731536234516a784e356f64666733544650486b78726c35346e424f585a74646d79535734344b4c79384f4d78755750754a6a63747a616e647443394871355253664362754c4e6644446b794f6f5262663252325871667254346e39706b76542b4841394538734b6553786a7a61345a6c57724c336163722f4141766348446b744e4d7770526c43546a4b4e53586c4d367657623372634772634f435556384d3057345a2f784f57655652536b3138472b50504c4c33496c31504446656c314c782b3748424f5550764657585939447235787547436269647a735565473036663962624e627166556b63576434385746634979616b63727a35334c4b59346230366473314e31783254446e78543454777a542f59794d4f3361374e427a68707074487053396e55594d655a7754546a5a6f4d6e714e5974517363495165465371784f707a7375755079746d4d313563586b785a63575357504a43555a4c796d68553338486f4f386166467139766e6e684474527530634a676c374f62484c3454566e6269354f2f4865764c47586970593942724d74634d4d6d5379626672634e383845362b3530475831466b6a63634f6e5456473432626331754d4a517977566f3535382b654533634a705a4e764f31466c7930756f654e3546686b344c356f7a393130363032737a77586a6b3264667345553972786f365a38765a7834352b396d4d74746a684d576831655a636f595a754a484c704e52682f744d636f2f756a713962767a306d664a687759314c67365a755979687565334e744b35512f325a7a76555a343674776d717576666c35316a637363314a65546f4d323561313652776c70766f636135556339786c4849344e3155717339423179583846615878696a32623573354c782b50646374573738764f6e2b69737a73653236374e446e6a30302b4a506274566a302b64547959314f4c6a344e726d3952616d626177344970497565656373376364745454525a4e4671735039707035784d52394e716a30666164637479306b6c6d676d3734794f4933505452306d747a596f335632546a35626c6c63637071787257764c58475470755331474b71707956325935646a56354d63563879523176706d7531395334342f674d564c2b2b6b634c523376714656743846782b55634b6c384844707632662f5331307670626a2b4c31482f6a4d6231436c446358394e633449795053717257617a396351765576463632432b66624d7936366e4c2f4145316464725234744c6e7a71547859705453383053783766724d73716a7070733672307a2f5a5a45573770764c306d52347450434e72794c7a5a6439786d4b616b6d3975547a626272734e3839504a525879594469326a3058626477653561656650476b31314a4845362f42374772314d46343564493378636d5764796c6e6d46386559324f4456376e44512b3168302f4b48467073302b48545a6337537859334a7431534f393250384136566636534f5432334f395075536c4272684c4c556b597835503163757035686657506c72382b6d7a61656278357362684a4b7a4868446e6b55462b5a2b447566552b6e6c50545939544346384f704d304779615235747778536166464b32627735706c78334b6d74585457616e52366a5338586d78754b5a5869302b62504a5278597053622b783133715849707a3032442f6332576d3038647432376c7775645732592b50657a473638316465584966775858516862784d317558486c785a486a7951635a4936523731724953684b4d473433326d623358364444754f68575a78343556446b714878724c4f365456547864754277594d75664b7363494e746f766a7432766e714a597677303752732f54715433564a72784352316d343632476877652b306e4f71532b35632b6134353973684a3432382f77412b33367242486c6c7775435a5042746d747a7134595858777a4a31323636725834595279516976324f7a585042746b50596a626a6a545347584c6c6a4d64796271547a767934616531613748467a656e6c534d4c464a786b7052366b6d644244664e666a6e4b476543646d6a753951352f446e5a3077797973335a45757675333274316d35505166316a476f776c3059577a376650506e78355a34314c437055374f703369703747354b76796f352f594e666d785a6f616172684d35593532385766624a4e57745478664e6254664e76655444692f4359465366314a48493539466e77353459486a61795358534f2b3358634a364444435549726c4e30724f4e31573435732b7330326f6b6b707761746f7a775a636d72396f316c32397a44314f6931476b55486c6a536b72544d58797250524e7a775133486158504854616863576a6974733073745a6d787869367070733634633079787476697731346c453974316550437330735434556a5032504f384f756a33314a557a6f66554f6648683045635466356d6f6f342f535439725659704a66336b535a336b347374786e4c786c472f395436504643454e5a47483175664754527943505139396738753175756c3149382b6f645062654e63696f376230764278785a3574643352785a3250705733693156792b656b58715034736a483270335864645468313262446a6b6c464a47736c764775654f63486b744e485262687465697936724c6e7a5a7546704770315730365444676e6b687175545374497a78584457506a79786e3479726e3142354a4a655a535a734d477a612f4e446b7346642f4c6f4e71344c586157556b72356e5737335056777851656e767a3352726b354d7363706a4a374a36726a3956746573306c504c6964666447627447335a35366e426d634c7871665a444a7647707934636d444a557256646c2b30612f5044506830376478626f6d56354f79376b32626d3432753862617379682b47784a54546431315a794f71303266537a554d324e78767764357647736e6f63485045726e6448485a6452714e787a346f36696e33526a677a7a376650714c645371744a74326f3161667452737a737578362f484653344b5356576b6468503274743239754556465169724f576a7675645a2b56726733525069353537375a34685a4a72627074546962326e506a3853574538322b716c5a36647157356266714a77647557466e6d64644c376a7064337633397a4c7870417477526a37754a79696d6c4c744d67304f4c50556c7668326d44647476684c467038454b55704a644c354a6570594e36444666786b4f573054725659456b75386b54727655717251722f576a795a7959383348497375343453704c744b32642f73756c576e30484e2f6d6e636d6344395337692b7a75746a31617a614e347372536d6d62366a63786d7676354d50626e7332366176506d7954575678702f536454746d664a724e4c65524a73302b71394f7a576555734531786d626a614e466c30574b5750497a6a795a59646b755074634a652b377269397a7777773679574b45767a4e747176797337724a7977625776596a33375363556a6a3937556e753258374f4a306d7835382b54427879782b697169326235726668385753797a763766753566427547755771672b636e4b5470774f713370527937526d6554715353614d2f384c705064357868446d6a6e66554574565549384c78474a5a6e6e6871615379342f58626d744d34517a59705a4663552b3064624465735331474c54594d465266796361756a4e32377658594a5366616b656e6d786c7833396d4a62743150714c487a304750394a6e4279564d394339517076514e787534757a7a2f7a624a30312f522f396276696f646b626f735a44354f367741415741444541434141496f51324132454b79554772375246644572636e6256454b54387342736151545a4568466b556d4762555642315a6b343950376e303335495a6d756169764344334a51374d322b4b532f716d324f77485155646c49426741425178684e6f3248456c53734744614e44474f676d3051474e49707368456867327974427070616a56346361587a5a3648714a365846702b4f64316a716a6c50547130386332584c6c64535336736a764772686e31453144754b5a354f5847386e4c4d664d6b69642f62477a77783254426b6a6b684e6d34316548487274444f4558635a52754c50506b3064587332766a6a6a48444f58304c785a6e6c347373645a544b32786e446b6b75724e62636c3766484c776b32754d2f50366f394231456d74706b3335654935486459616436374b384d6b37646e54354e626765324f446d75587456513539352f4276623959754f55316e4e2f5278574763586d7775764534762f5a6e633735474c327a4a4c39456346696a5538664a303474506f374c6474566879375973634a64744931793437354f4458333873343559795a527a6533532f72326c615839383654314d6e4c52517277706e4b614f6644565948384b534f6b3951616a446d306b5959353237484c6a666a6356307547557878796a47394d7539566e362f75466671612f78754c396947775a59594e526c6c4e2b5943333750484e724963476d754a4c6a666d742f54744a6c4a6859336670794d6c704a707176724f5a334c467a33536135655a306237303571466a775a2f64794b756470476831737233476557443657517a787a4b632f4a644e5a5a5363636d335353306d68322f54724a6d78386e47725a4852376a6f4e546c554936586a4b2b6e526b764e704e66706f78797a58615671797253593976305576706d6d7a6c64325875337377736c6c6c6d6d4a366c53554d45697630335876356c2f7744517439515a734f58446a696d6d307a5662507150772b71684a7670716d645a6a6c656d73306d57556e4c4c76367037366f76634a663655513252714f355945306446713942742b737a7250504c3356556d636f6b744475555869626e47457274733178325a634e773164365a766a4c652f71362f647462683073594c4e6935715877594b337651775839467071526b797a36486463547835666f5a694c5a74766a54392b3076757a6a686a684a724f57574f6d57575638343552726433335347735549343431424851624a42506259776a4b764e4d3558643436614f654563432b4f7a5a624e754b30304a593578754231354d502b6d54434d3435367a336c58505a49316d79786c4c74535a324870714378344d712b3754466c30473035387676796e33647457624c53366a51785468696e474d555935632b2f6a375a6a57384a4a6c76766a694e336b2f783265442b4a477456477833523435363355546a34637a584873342f4747502b6d4c5a62567547535762472f744a486562724c2f676d56785658474a774d626a4b4d6b64356a314f6e316d3350446b6d6f33436a68314d752b4f36395a4c685a2b71622b6a6849795678636e534f2f774258777a374e4a516478654a4e484c363351615454343862785a334a33564732327a633452782b7a6c6861524f61643877796b7669733435597a4b7a3778795336696464365a78796a677a546372755973323062584e38336d346375367379637573307532615659394e4654714a6e6b7a2b4a6a4d5a6a57356a3265626c484d377a4f4539646d63545473767a53357a6c50356b375a53657244786a6a5074456c323376703253783639332f6668527366556d444b3536664d6f326c63546d6347624a6879516c462b4764766733485461724373576f61646e6e355a6365535a794c4c76637463443538646d35324842504c7545636a6936676a642f775061626c57617266697a506739763233452f626e423148763773764a7a7a4c433434343364616b3135746d6d42366e6d76773243466475646d6c327a633537656e5354673332696e57617965717938705366432f427574767737586d3066444a536d2f6e354a6a684d4f485755745975647a7938654763732b3037753477797771614f613366626e6f4d363475386337346e5161666164753065645a766635635861374e62762b736871736d4c44424f6f64325934726363395962754e6e3161793965644e377371663845677238776b6343347075536679335a32327a3676446a327a686c794c2b393063584b756375506a6b364e3845737a3564784d387434347537304d6c445a6e783758744d344252555a4f76757a7564426e302f384a6e427a567145756a686c39526543617935664831544b376b382f52364e4764374e622f77416c6e43626470587273386356704e6e583662563450345877636c7a654e716a6c646f3143306d75785a5a782b365a6a696d57453576482b6d725a6c32756f7a594e75323344435468624c746f316d6d31485032384843535a50565974753348486a5538395664557730533237514c326f5a55322f4d6a686c626c685a5a6c334f6d506a4c334e4f5a3951526c2f4570747670775648522b6e556f37596a6d2f554650637561647763556444736d66543439413471644e4e326d6475546436664361596d577337356358716d76785764562f335a3264703665546a74306f313873346a554c6c7164512f766b6c523132775a386550517a673354545a3035707668786d6d5a6c4a6c76626a4d7657624d6b7647526e6f4f736d734f796371757355656a6873696974526d64644f545a31327131474c2b427a6935715576625348504c5a777a3757457a6d372f707a4f316152367a576361724854624f6d314d7474327a2b6939693231624f6532585566684d367958536b6c614f6c312b69305735634d3376635a56586b7a79327a5048652b33537a5633717a635a4f31616e5435345a4867784b4335646e4862372f7742557a706e5962666a30656869384f504b75335a782b2b536a506373386f7531534d3848387476303033624f3265643170306933456f764c6a626c5374646b534e5034506239474e7651393678764e746b76626b6e5354523539314c75316679646e74653659593446687a4b312b6f5a647032616335546a6b345838583065506a797646335935532b2f4276484b626c595870694c65717a7958685149656f362f48563871427559366e51376667556345566455636e7264513956714a355a655761776c7935726e7278704c6c4e6132364c307658444b6148644878312b6f6a586952752f54326648686a6c5471374e44754d315057366958336d4d4d624f664f2f524c6c4c6a4a2f6c302f707a684c5435704a655a484f627833756d707234614e3136667a7777527978625653646d6c336d555a626a71484159537a6e7a2b7a58644c684e4f7532524e6258486c2f384159345364773147567866314c4b326a74396f7a5938653170546d7270746e44356157624b31387a624a777a2f414c4f58634c6630347833756c7a4c5737553756755548466c6579365a364c466d655a39796b6166594e6244444f65476261672b7a61376c72735563456c686c327a686c7835544b34543157706e4e6276754f5233444e372b756c6d617573683646714d30634f6d39336a79696f3352356c48352b547364763357457353785a6f726a564a6e626d3472323865766f6b354a4c717158764f6d5631705974446c76734a345a7878345a52366f633973326d65564e5a6d71547457596d767737646830736f5947336b2b34787834375a34795975575835786a2b6e482f414d57546e2f6c544e6a366f58576a2f41485a724e697951783768467964644d7a665575614756344f4530364c6c6a76714d62394e4e7a4b64756e4d786e58673666627436396e4648466c69354935614d754d6f76347448597877625a72494b584c67326c6448586d3764617359387a30324d4d57336270444a2f5271327162586c4846616e537254367a3258556b706f374c486b3233626354574e326362716376347257547976356b6a6a777a4c395876533557616e6e79374c6459516c737258487846484a37533633485370727a493648633966676e7445736358323470484b61584a777a59736b58556f4e535272697876772b5357665770637034763064543672367736522f624b7a6a375461505163326651612f44425a6e384849376e68306d504a48384d2f706f6e54335750625a577339585755726f2f546d7035616565436633644274573179304f72314f5674635a58784e447457656548506a55466479706e6136334d744e7073303335536f3438754e78354c4a2f633378356277752f6f34726574562b4a316334586359654457594646357363583879524354626c4a743974742f7743356c614344793633547755622b6f3966623263642f3035627557547339356c4446746330347472696a7a706f373331444e72534c4664577a6848325936622b4f2f37644d723552523258706475733761365278364f7132445734734b795179756d30623535766a796b535753786962376638516e467a6677365a705a536655572b76736433714d653161724e3732575363754e6554446e6f746a5864642f657a48487959343434793435625a736c7974323554427a6a6b684f506d4c7336665462386f773436694b4e4a6f73734d57736a4a7854684762362b364f6b6e6a326650633551555849764c636376654e724d337633462b6f30576731326b6e6d7834306d3432704a484937636e48583656316454707336765075476d30656a34594f2b6d6b6368704a7a686e787a756e797378783931777a6c3372364e577a63727250556c7253526c3838364f52303666346a424a793655315a3365717a3650553665456339564d3554644936614530744c312b704f48665a63624b5a36334c4c4854373470543232536838307a68494a7a7143584a2b4b2f55374452377647654c46687a52583565324a5a746d785a3535735550724a78334c6a6d5750616c79787a3839306a5a314a625a4f4e4a5357426e6e48636b6d2f7a4865354e343038744c6c767a4b4c527865484a48487149546c486b755272676d575066754e5a58473631574f3865524b54654f564c356f55576b6d714f783348644e486c30475844474e546c45343747307051354b31617337345a32793778306c6b2b374b304e765736616c347978624f7839534e4c5166764e4647444a744f4a786e6a7878632f6b7938327430476f777978356531795235755332386d475862664455375a50335277484979634f664c69376a4a706f322b367662736356374545356932764c7430466b6a7159323264376e7648665a58504a6a50644e646b5558484d3752316d31793150737965716b3775302f304e6669314f30595a56697746477533666e4234385334785a777977373953595745796d506e7532314771623147345a6b726c42357576325232327562302b6866745137344c696a7a3647624c69794a34356547646270643578354d50444f766a79586c7779765a71626b4d63354e3775742b6d6777367965504f3830636a39782f42324d6e372b676d3873504d4c5a7166784f7a51557065776b32566137652b6542346345456f754e474c6a637373653347776c6d4d31637475586e7735506975724d6a515574647076395a5670354b4766464c4a58465337523175485537564449357248465358686e6f356374593631623453616c6d367a393431663450535379526a475639557a7a715862637171336652333270334c517a78723359576d7a6d39317a614f6642594d644d353950346d726a58584b792b713044476b683154413951694a496d45554466674e45614c47794443536f3050694f675443374e4a47546930576f7a516e4f4547314578555877314f66444678686b61697a4e465047682f5a5553786479706b6f395a4975756b777a61687762666764557a4f3165716a714b3434347770664268707679524e6d6f715454484b504630694e324f7767647554625a4c2f362f63747935595a595266437369366258686c635731437a4e394e543271616f484536366670625538456c6c69516e36593154705279784c387a772f6b31384c50374f546f5469645976532b705666307942656d6454436e7a512b593466795834584a396e4a714d6e5a4b756a7266356131465637794b38667072554c74354c487a48442b52654c6b2b7a6c656838624f706670335576784b43663334672f544f732b6330503968387878666b6e77732f73356452424b32644c2f4c477562377a51442b577464796647634b52666a385035524c78386e32637a545859364f6d2f6c6a584e58376b4c4972307a754c76754b4c3878772f6e696e5a6e666f357568307a7049656c396638355945333659312f784f412b5934662f4143596c342b5438584f51585a4f56733646656d3964464c36344e6b342b6d7465323779596b6958714f44383478654c6b742f61356a7446716b32714f682f6c6a58664f54474a656d6466556e7a68667769664d63483577764479582b317a61714c62586b73397a716a6f6c3661316c4a75634c472f54657166536c45664834507a6865446b7676427a4e7473736c4e7455327a6f76355a31667a4f466b48365931337a6c67506d4f44383466413550786336725474655363354f537073337a394e612f7170515a4e656d646130337a6a5a666d4f4436386b5067636d352b6c7a735854513554636e5a30483873367a6847707053462f4c6d73643978626f664836663834664c353733327565684e7154707441354e733333387561394a553433596679337546655932506a384835772b44796669306358384c774b2b506136706d2b68366433425864435870765830376d683862672f4f45344f54385769797935385a4e39305135645564422f4c65752b5a496848303772322b4c346a3433422b635834484a72397253707974506b784f5463724e342f546d34692f6c7a635075696647344a367a6a5077655438576d35734f543558795a75483665334877712f32592f7743583966796365487835706a3433422b554a775a2f69304d35796b374a516d3062332b5864576c353746443035725576716d506a635035527538476574647253573762746a6a4a712b326a652f793971654e632b784c302f724f6c4f7633696966463466796a50774d2f733532613738736764452f54757474314e4549656e74642f6655546335754c3834334f4c6b2b7a5132792b4d3578586b322f38414c75763531796a52592f546d74354b704b686562682f4f4a65484f2f327445357963725a4e546b6c30364e302f543274622b6c78492f7937754e3938614a3862682f4f4d33677a2f414261575757636e334a68376a716a6453394f612b315452584c302f7564395269783854682f4b4c38484c38576864742b42472b58702f63727155596f6b2f546d763841764566473476796a6334382f78614e506f7355326a63723035723033626a2b676c3666334a53664a776f664734622f64476277352f693145707964753232516a4b6c355a757634427548325176356633432f794966453466796966427a39647253536b3254556d6b712b7874352b6e7477354b754b69577a394f3631306f4e5270462b4c772f6e47766735366e687076636433622f7742797555705366624e302f5475346455343077667033583930346b2b4e772f6c452b446e396d6d3931386173724e342f546d34395534453336653139523668592b4e772f6c462b446e50574c53526c4a51635370756b6441765475352f664756763037756c654d592b4e772f6e4363504a2b4c5665362f6234325671564d3365503033754c69334a774348707a582b6369512b4e77666e4435665038576e6a4e4a44787a5557362b54624c30377554622b6d41342b6e64773635714b4a6558672f4b48792f4a2b4e616a4e6d6c6c714d6e3067686c634f6b32626558707663666a69483874626b2f4467543476442b5550675a3631327443323766376c73636b6f71725a7566356233443777452f546d35664841767865483834743463372f61305a61386c77343330625a2b6e4e31533851442b58647a70326f462b4c772f6e4576446e2b4c54637571374a536b354a6370537447322f6c2f633070586a693338554a2b6e3931722b7a695a2b4a772f6c44344f6634317249355842644e6d4c4f546c4a746d39587033636d2b2b4a4e656e64622f65487865476633526365484b58303534614e355030377237754950594e6279696c457678754c386d7278352f5a71597942796b33626b7a642f793575504a4b672f6c3363506c6f66463466796a4877632f78615635472f4a564b527633366431393943667076583071346a3433442b6357634f632f746161452b5061625242793547372f6c7a583957304e656d396633395348787548383454677a33366169452b4b4b704e636d7a66763037722f6955554a656e4e643879512b4e772f6e4363484a4c627070466d6e42556d56536c62746d2b667076587057715a4a656d39633162635550693850357866685a2f69306b4a313459536e4a2b5732626d48706e584c6c7a6d4e2b6d396238534878654838346c344d742b6d67544c75665647352f6c7258706559682f4c6d7563563346443476462b6353384f562b6a5350493078797976776271667072636669574d6b2f54657461366e446e592b4c772f6e443447586a394c515264537445736d535571746d386c3661313059645a4532763049723031722b2f726932506938503552666735665a7a39467179536a436b7a6672307872766e4e442f4147472f532b753766765979586d3466796933687a76306339376a45704e485266797672717633594366706a572f4753496e4e772f6c44344f5834756663334b4c545a44777a7066355a316b6c47707854442b574e5666575644342f442b524f44503841467a3779387569766d3548547630747171367952734836573164645a494a6b6e507754316b76792b633959744a6f63755042714d63703330307a653776756b4e546855594b6c35593136583166786c5133365a316e7a716f7639346d627964506c6c4d726c356a4e344f6236547866626c57306266614e5469306d5a3570517431527366355a31502b616878394d367133797a49316c7a634f5573755a38486c2b6b612f6474642b4e79636f394a4b714e453132646576544f71574f634a5a59573330364b6c3656316c3935347447634f58677878314d6d707763767578792f6775684e52746e52723076717556764c48694576544f70623679784e66483450794c302f4a666f35336d4a7975725a30333871616e2f4f69676c365631445372504778387877666d6e793266326378644d63353833472b3652306e3871616971657056682f4b75657538342b5077666b664c352f5a7a7a6d32715a56796f36662b56732f2b6543394c35766e4f506a3848354a38766e396e4e796c4c4a6a3475516b71564a485578394c5a65314c554458706655527078314b73664d64505037693950792f5a7a48394a436b3151636e586b366566706655354735543164794966796e714f5565657168512b5934507969664c352f5a7a6439555576706e587630724f6474616d676670575856616b664d63452f755764507954364f4f63322f506b69646d2f5354362f725950306e554b5770487a50422b54704f4450374f536a4b714c736b354e512b713064512f54453472724f6953394c3970764f6e534a387a77666b7a656c7a6365785764672f5372552b6634712f304b2f35576c4732745262487a50422b53664c357557553652427a5a324c394c7866627a67765373622f7478387a7766636e545a2f5a78616b2b79373366706f36352b6c664e5a7850307061532f46462b613450794c302b642f7463684762586b626c6448582f79712f384135524c2b56366a7765636e7a504239302b58355066613474736b6e666b37442b56596635375a6469394d36654e2b343279664d3850335834484a396e4779795363564875696d5473375a2b6c736262724f51667050462f3871512b613466755939506e506f345a6730647a2f41437069752f78444a2f79766a36724f506d754837756b34633342307838576a756e365778507a6c4c6635637738477664487a6646397a344f6267506b6334536936635764302f5332446c61796c7376546d463165516c367a684a775a765031467443344e6642364976546d6c716b36477654576d702f5554357669583447627a31593330535550756567723035706f3154462f4c75442f4142452b61346b2b426d34574d4974573158366b7059583563656a7556366577526a78633230522f6c3341754b5535635638452b61346b2b426e58425a4963616677784b45312f645051663442706548473752436577594a7a543579512b61347a35664a776e464c79687244624f3666707253664d35446c36653030564770794a6571347964506b344755654c6464302b79554f66356138486f45646c3030595a494a64542f4d4c2b413652786b79664e63657173344d6e52384134555830492b587437644b654963533668385273556351344752517549376a536a6948437937694f6833564e525277446758304f683355314750776f66466c2f454568334c714b654c44695855464475585372674841746f4b48636155714c512b4a6451635233476c50416645746f4b48634b654348784c614164777063524b4266517148634b7549635757304f6833436d6d48466c31436f6d31566357464d756f4b477853305270325a4645584575305638574c69585546445a7054786f564d756f56445a7056516e466c39436f624e4b50624467793851326155384748466c77445a705654446979304362585376694c69797968304e3030717069706c744251326d6f7134693473754758644e4b5568385379674736756c644d58466c6f714a756d6f71616243697968304e333769716d464d756f564464466445654a645171473739785878446957304644642b34716f4b5a5a51554e33376975676f736f4b473671716763533042752f63564f49555755413366754b36595557446f627633525454483257414e33376d6c584558466c314251336675615655794c544c7144694f366d6f70346a6f746f4f493772397a5551436d545348524e3030717068526251554e305639735845746f51327170706b615a654b69374e5255725a4b6d54534a555464545556704d64466c4251335455564e4d4f4a5a51364c733146564d4f4a62513647313146564d4f4a5a514e45335455564f49635332724368752f63314658454f4b4c6149304e69504558417341624664446f6e56414e305638574e524c4b416270705878446957696f624666456646466c4251335453766948457553436873553855484574436873566351344674446f624658454845746f4b47364b75414f426251554e30553841346c31446f624648454f4a65304b6962565478446958554b676976694c676932676f6f713442784c71436873566351346c31436f6246584242784c55687549324b65414f4a5a51554e6976694845746f6444614b654963533667346a59703468774c714851464b6750675730414666454f4a4f69564156554b69787849704543346f4b5249644151346f4f4a5a515542567849754a6451674b654b2b784678704d794b4530714a73584251774b68554d4143675177415144414a6f71416b41585349774741676f59414942674167474143415941494267416747414341426741414246304244416f516867454b68674d4255524a43454552445a47342f346b614141726a2f6a5172582b4b49444156782f78782f3345327638414845676d4248722f4142494c6a2f6a51444751355262615530537466346b41414837535246744a397a5145684375502b5a454c6a387a69424943766e433657534e6a3551586e4c442f634b6b4176702f787844722f484542674c722f41427847362f78494141547066336b46662f5a414d424f6c356b6950586a6b674a675262535863346975482b5a432f33416e594562582b4f482b342b76386366397747494b2f3841744556662f614944416a2b7a516638417441534968562b4a4958462f64414d42562b7149767a584a4153735a582f3751366638416952424f77494e70655a782f33467969764d6f6757574257707761766d6833473635494364685a48722f45685771647a51466746616c436c3961492b376a747233496757675135342f77444d694f312f6a514567495846655a784535772b4d6b6639774a6a4b75634b766d69536e422f3979494667454731387a694a53692f45346856677975312f6a524635636136655749467746507551586e4a456c376d4c2f4d6945575742587a782f356b426535692f7a5941576b62467978312f61772f3349386f6635734b2f6343774346772f7a49663768636638794945774958482f41444967355153743549304249436c35384361764e487366753458307373517130436c356353713873512f45595038414f674558444b666577503841373041392f4175336e674265426a724e672f7a34456e6d77727a6d6755586a4b4935384d704b4d6371625a6b4969696747534270454b4a44416a51554f6749614b676f597761526f4b47414e46514567416977474143436741416f5644414767414141676f42674144454e6f517747417143686a4151414e465168674d434e574644474168674d434c5248695741424368304d4143684d5967454644416769794c384532512b4171344141494244414b5177414767414141414141414141414144436b414141414d514141784141414151414141414141414141414141414141414347414641515a495441716e2b57622b30577a78523672585a64566b7872506b354f6668535061352f6b792f7743686e696533346e4c635954655266526d5a7566564b762f42372f64384e542f755766675055456b372f41424631397a31397a384c3942636d4e6d6e6b4564733951663565662f774463536c74752f532f37576f762f41466e722f4f5833446b2f75545a70343039483667673071316158376b34376636686d6e4f583468715053535a37447a6b506c49476e6a723237314454342f696632354d5838503953576b3865712f39545a374970532b344f5576754e6d6e6a533233315046742b33712f2f414e34316f50554c6c637357702f33505a4f5576754b354d624e504846742f71443477366c6676496d7444366a61703438783742624662477a547946375a3668644c3238396670496939703339712b476576747950594c6b446c4c376b32756e6a36305871534670593953503842366b2b63656f2f77427a31397a6e397735532b3432647278703644314433634e56615a483844366a756c48566e732f4b5833446e4c376a6136654f5330652b7866442b747966365751576839532f3547722f4150636a32546c5076734f632f75586164727874364c314d2b6c6931532f38415a5a48522b70623778616c662b7a32446c4c376735532b34326165504c52656f472f717736722f6371656739512f4f445573396c354d616b78746531347739443669696e2f5136676b7450366869713976564873764f5833446e496478327647705976556266356455515750314a62714770505a2b6367357948642f673038622f432b6f2f6c616c432f443734764d64616579637066634c6633486361654e7654622f317868712f39787977372f64634e5a79615059755576754c6b2f75545a70342f2b47395156786c4456332b396b566f2f5553385964542f7565772b354c376965536633477a54782b576d33394c2b7a314d526531366b613657715059464f5833487a6c3978733038656c6f765547527835593953362f554a6154663841693177314a37427a6c397755356663624e50486e6f392b53696c48556b567050554d75584b47732f394d396a3574664963354c35477a547831364c31462f68317466366872627655546a336731663841376d7a3248334a6634682b354c3773624e5048503464366871765a31483738772f68667142507242716638413349396a39796633487a6c3978744e50485034587636366e703837582b6f663444314776475055722f77426e73584b5833487a6c397962585478313644314a7774523146322f6b63644a763669763650553265773870445570446136654f533048714f3672554d583850332f414f6357653736646e736c792b34572f686a5a70343639423669546a502b6e6c393054656739515a4b34597451752f756577387066634f557675585938626532656f63716356683144667a4c6d4e374c3667612f35584d33382f57657838706663464b583359486a7132663143717654357258366b4874507153323559732f2b35374b35532b3746796c39776a783257322b6f3335785a2b2f77425345747139515171734f6638413953505a65557675484f58334361654e726250556b756e6931484566384d332b2b4c78616a2f63396a35532b3475556873303864657a2b704b62345a2f7744314d50344e366970586931502f414f3839683550376a35792b343250496c7333714b71654c50582b7369746933362f38416c73742f367a31376d33386b755571386864504833366639515072384a6d2f6233422f775031424736305758392b5a36397a6c3932484f5833477a5478334a73752f4f6c2b4631442f586d57723037767371543038312b387a3131546c3977354d624e50494836633951584e517735503335692f6c7a663335787a2f4150336e73484e2f63584e2f63757a54794e656e4e2b6a54654f622f415036785a396d333748435533686d6f782b306a317a6b31386d4e724735365056523737784d6d7a547a4430396e79506574766935796c6250595037372f6338593950532f77434e376658786b6150614776725a424a453052524e42514644416945464144436b4145534141414a73466741445a6f414942734d516747314d5967477777496a47304d424144526749427330594149476a736c5a4143374e4a6a496745306b41574251414d416844414141414141454d414541774151686745524976775461495630426141414641414d4b41414145414441414141414141414141414141416f4141414244414951444141454d514141774151444142414d5141414141414d4145525a49697978466376795a503944504474496b397a785638616b397861754d2f394c5045735565473659307648346b3350716c65304e646a6f4835583745714970554f695145455568304d6441526f4b4a4146306a5144416751554d514e465145684561306a51554d43625647684572454e6841305341676a784469544143414568415245534541674169325541454f534953794a66494672495759475457346f7470793752677664394f2b53556d6d764e676279784e6f3045743378634f664e55594d39365530334751485663313977633472354f4f5739775830742f5652697933394a7465536a75766369766b6a4c4c46664a775433724f312b654b6264734a62766b347a69704a2f484949377238524472366c324c385442756c4a486e4d39317a5369767244487532574c6b2f6355696a306c5a5931354a5279526679656472653879715570497973572b79636c5869674f2f7743534a4b562b446a4d4f2b5163582f537074473177626e696c47314c3570676236795a675939544353757a4957574c2b53433864464b6d69364c736970436f59704d6f59786f595247676f6b41456146524d436f68516964436f434e425249414b364a56304d5a4247674a43436c51695177494a41795141516f4b4a5549476b5755616931703837532f376369356c47652f5a7a4c3734354165546243754f3936482f77413750624a666e66376e69657a7066785851792b566e615a37592f77417a4b69614a4a4545535241774151444973596d53724967354b36736a376b6675616e555a503653537378336d662b492b66796458325a5761657644707373704b337675512b34653548376d675763506676717a6c382f667864506b36332f75522b364433492f63352f336d766b66766661512b662f4150552b547266653548376f58754c376f305076392b51655756335a666e76384c386c572b39324b2b52653748376e502f694c2b522b2f2b706d39662f774370386c5851653548376837736675632f3739313248765076736e7a2f2f414b6e79642b376f50636a2f4149673979503841694f656559466d642b532f502f774471664a333775683979482b495875782b364e46377847575a664568382f6678506b36332f75782b342f6468397a6e766348484c32506e372b43664a333775673936482b49506458334f66393235585a5033362b532f506634506b36333375782b344c4c48376d67575a336468377a7679506e76384142386e58512b3744376837735075632f372f3667737a2b342b6676346c3653756a556b3130545267614a3342325a36506678636e784d4a58697a77754e73706859434f376d6b41686841414141414141414347414347494145786959457844414b414141414145417741414141414b41414141414141414141414141414141414141414141414141414141414341414142414d414141454145575345564662567158374d3855372f41497573662f362f6b3972667a2b7a504533663856542b32704e524b396d76746673695a48346736387852496c5649596b534945417749756741684462576b6949776f625852554b695642514e496f59434d3755455351694b564141774151784651445943414241516249485a4679524355306a48795a34515675534b4d6e6b6a486e6d69764c4e52714e3068474c4f57315738354a5036577a55694f763157767859594e755a7a326f3375536a654f6173355455376a6c6e4f664a394d776e714c6a307936472f7a376d326e4e53664e73774d7572636f587a647331447a4e6b4f63796a4f2f463546446770736a44565a4978717a44636d52354d6147513837636948756d4f354158517a466d59336d5a6738714a63794979314f2f6b73536f77564a6b2b58586b432b636d526a6d6350444b4f5157426c777a564a79564b2f4a6b77313270673377794b7047715a4b4c612b514f7577627a6c72487a6c34382f71624c427636636e47536158777a672f6461384d74686d47683656703932686b6170394e6e5259736961757a782f42724a51646f3744513774476168475752497772754649693362534e646731634a7271526d516c6254417930534b6c496c5945786b43525177454151784445454942694156414d595647674a434151554145556844414145414156737179395938722b324f526379724b6d385756666545696a795461585736364a2b65576f625a3756647473385332714c57366154722f77444a6f39733853595a576f6b525177474959694245574d697a4e617839787a75726e5765614d4355327a4b31762f4144457a426d6a346650384176796666344a4f7a464c6d5163326e5a58542b3437504f3950624576646247736e614b325149646b5a48503548377a4d6634437764735871536274687a4b6f6974396a52327863386c5651314d7879566a52325263356965575561705756574a67374976393278636a4748624232526d4b616f6362537479386d464751334a2f637032526c536e3954453868694b624a70325137497435736e7a74585a514d4a3278647a6465533246767759374c494e78595a79786a6f4e42616a4a4e6d31696172625879686b742b47625648334f6b2f69786642366e2b544a494b415a36336d414142554144454144454d424141414168674549517842457741413041414141414141414143674141414141414141414159674159434741674749414141414141414141414141414141414141414141414143454a6a45796f725045636e573739655078523766386e69577366446435507879314b6f3145723266376636555373672f3776384170524b6a4c5569597941305272535967417a5630544749434b4269414b414741324541414164434141454d596746514341426942736732414e6f6f6e6b53495a6379676a6e4e667579784a7544546b57524766724e6444466345303555636e717430633261665537686b79354a54627032617a4a6d6c64386a6378526e5a64624c4a5a726e6e624b7558366c534e4379557553374b7857507235414638697469434d6b7936524a7371736e4b642b53466649554d61646b582b67574153514a72774a396f4552453246746f69366148476b67474f30522b516f4b6e596d304f4b6f69306767736d6d52436d42664631326d5a4f4c4e77614d4c6c534a5262585a6d78703132673361474345495475334d363354626e696d347074646e6c61794f31346f7a634f62684a5376774e44312f486d684a576d5a436d6d6342742b373353647275757a71745072495a656b596f3343646b3059305a46715946746a494a6b676867416a51414141454143415943416741414c415141784141695246674a6c4d2f795a5076775a595654366a4e722f4377504939755457366152502f355237552f7a4d385a322b5038417854412f6e38557a32615835696f73544a6c614a6f496b4941497142466b79456a4f54574c6d7464785765537673774a4764726b6e6e6b37374e644e6e772b66392b543944302f386550384170467369776249326564365a4473646b57494b624475684279434a783637423931514c7443594337736d56396b6b2f494259794c4474454177595746757745424954384643524a644d696966774131327958534949646a544b643257525a53697941306c622f62625379646d34697a5462642f334463785074394c2f4142782b6636722b584a59686b624a487165554445427041414141444141415177415141415168456841534141445141414141414141414141414141426941414141414269474141414149414141414267494269414141414141474167474143414141414151514347524b69506d52346c724c2f41497733384c56493974373549385331382f3841696d574e565770545a71443257375566394b4a4a6c666451762f43686f786136534c4c4a454579566d64716c59456247694b594149696d4167416467495951574143414141436742674b724159675a4273424e6c57536152597a56612f5077777972794272397831384d43616b2b3263427174516e4b54567533386c2b7631303873366d61544a6b6c4a6d34435537624b4735413544646d3255614579514a414352466f6e614974704151706a6f6b752f6b66676f71344d5266626f715946565544374a74496a51432b41366f4a646641565a416b724a4a456c43524a706855616f455453593656554152706b576d5369714a554551556144354c4731304945513845302f7568457771587954542f556f63754c467a74675a384d72693062725137724c426d6776686e4d707671692b4c5a6d7765716154636357537a6359386c6f38713057736e6a6b6d32647674327457564746644d6d544b497677577152424d5a46444b6869415144416a59796f426741414b686752555245684149517949435a565038733139344d734b354c7158374d73523550704c2f696d6d61564c385365797638783470706265364b587774576532664a524e45694b4a6f6947417245414d725a4a6b475a72574c6e4e66587575762f5a724a477a33435039504a6d726271326645366a2b544a2b6836662b50482f4145673130524a5768486e7230776764444571497055464474585132714161384362456d4a7342396767423330414e646752746b7667424d4579584c6f673258516c5968456741595338435444494768553253536f4361567679576f6f4c34726f735a726662647971664a5562654a703976636d6d6e384734535073394e2f4848774f722f6c795451304a445236336b4d414171415968674168694159414141495967415178424567414130414141415941464941474549426741674749414141414269474141414141686941414141414141414141414269474143474941414141414151514347525a554c2b386a784c63502b716172372f69596e7476796a784863372f692b543963396c6978374447546c4447332f67524d70782f77426c692f57434c6b633636784a4441614d7159414d67414141415968674959414143474441434a4969554143465951327944594547774b3873716a5a79652f61794f4c44394c74794e3572395237654f54504c647a315479366a4c55323433344e7944447a3556333259546c59536b325173326c4e335a4a507367574c73714879587744364853514e39425557516248665a4732674a716b53623673676b542f756c51303752427133593048674344365244746c6a453079434846736e434673535a66433241306b516c4870736b32304a396852474c7273484563582b704b674930684e57436c517749506f59705859636874452b69463053564d716e476d46536d376f696b44766f4c61417369305870305938574e74675a6b4d6c5373364c624e5a376557505a79634a74476470737a6a4e546a4e706f786c476f3964775a4f53526e4a6f3550617477393348467a6a782b4b4f6c684f7a42706c496b69754c4a684567454d6f694d51774142675643415a4567596d494141694d51455751667a2b7a4c4769742f50374d73486b6d4b566273344c782b4b5237503841502f704869634a4a62713334725648746e322f5a465a71784569434a6b51554177436f7368496d79444d31714f61334731715a665a6f313036616f325734332b4966326f316b6a346e5554396554394430333857482b6c506a774d476b4c733837307050775151572f4157464e56597050735868672b79686f4c516f2b4264675362473352424461746b3047304e42596d585156445346335932786f4644696b4a44416b797a44446e6b686a586d546f6f476d3030303661497a5a644d7a55616436664e776b3164585a546b34704a4a327945386d544a4f55707975794655374c6462756d635a6c71643133667174696932444b6c624c596f47587174337472743544646f306d32394f5a7530665936542b4f5067395a2f4e6b6b46674d396a783077415a55494267416747414141414141414149414142674142514d51414d5141414445414441514141414d42414d41454d414141414170414d414541774151784449454d4141414143674151424141414141414149544a43434b6e355234747571343770714571705a5565312f4b50464e3836336a5656387a6961673959774e76446776384179305a4b4d6642627759507677526b70484c4a3169566a51714a4756413041414141414146694143514552674d51414143474a67495249525241716d2f4a6130592b5877774f4f3952357177384c2f4d65655a5854614f7a332f4a5533426e4535664a317853716d30494768476d556b67746f53736254734271516e4b3134475174685572594a436a524e414e4a706a49664a4e4a674449456e614656674e4a447177384557454b69616c524561416b3359684e686651553479713751334b32557579567343513741677942795a474b73524d71447769446e5a4e744e4644564f77713454706c4b6b79364b7457424b4a4e74554a63554e704d43466c734a38585a52564d6e4639437478753946723559387361704a486f4f6731384a776a3335566e6b7650384155332b32617957504a69693331384d35324431654d6b3057706d72306d5a5378782b394777544d6f764a46615a4e4d426749436867416767496b6842434749414141414b6979716e5a61522f764971563430303462744f2f6a566e7474326f663655654b6131502b4c36696e34314b50616f4c364d582b694a57617552496769595177414356555345697768497a5738584e626c336e72394457535647323344724d76324e624a4878756f2f666b2b3930312f3638574f794a5930315a577a7a7655516951445453492f674768414565683068447367677961665164554a704b7747325242496446696b6e513664676956734344665a49485145434a496a524d69454145715458515370515a65764a6a7852644737444754643764584b665a75346d6b323371552f324e33452b78306e38636644367638416c79544859686e73654649414130674142414d414141454d5141414145416869416d41674451414141414141414147416867424641414141414141674741414141414141414141414141434159414141414141434749714141414141414142444545512f76493859333956764f72532f786f396d666c486a3371536f3774717049305055644e3370744f2f2f414e4e47536a4430546230576c76384179305a694f5664596d4341434b6b49596d514141414364674d41454d51774141414145536f4b4b49694a455742426d48714a56466d597a44315035473042776d3877785a4d74546c56527334616366714f71337556366874484b5a48544f754a55576976757955335a4130776c7961614d37464854354d55386b38726a4e66335441524f7745323252706b6e52454c4531456c56664a4731525879374175706b316152576d54734274456641376f726c4d676d3330563277744e4167682f414a3078415655323742454c64672b69427345694c374143625a58596e5941574a4346597243485a584a75793269446f7178417949654559354f4d67713565537770556b4e5359524f52565a4b525532466c54544d7a446b706f777270466b4a555a72543044614e64504a4b6e503655762f41476d6470686c63557a796a624e52777a5236387172505364444a76484633307a6d7263524c4555525a616d45534741414951774b7941454d424d517743454962516745512f76496d794b58314973523435754472653953767671596e744f4e2f52692f305250474e79536539617833347a78505a634e2b7a672f38635373736c4569434a6f41474145556d56794c4756794a57385850376c4b7330562b68713349326d356632792f5931556b6646366a2b544a39337076343855475679736b37413450557247764a4f694668704b565647764e466247304851556868585a497a5175714578695a46494f674369774e425976414d74425a494b4245412b67414349594a6b535649625259697846654f72374c4635497a573532792b6376324e366a51375a6675542f5933795073644a2f48487775722f6c795451414d397a77307741436f4141594141414143474143414143414241424959674452674959414959674141414141414141415a464141414141414141414141414141414141414141414141414959465167414141414141414141424144434966336b654f656f6c65356178576a32507130654f6570456f3776712b636a55575236666f6638416b644a2f34305a614d54517453304f6b6b766e476a4c4f566269614752524d6a514267424143474a6741784a444141414141426959444151465145574e6941725a6a5a76426c4d784d3368685938373333464747664a4a7a58667763626c5849362f663639365458374d3547626f36346d5448666c45675a4874476e4e4a4178496b3246494c446c5971544a745362416a585a4f6d4e71536c325475797568704f374734697845575778693230516e423279624545424e515a4e593358677a7475593755396a6f7976596c476d7850464a664265364c38504c374d59646c736f4e4558467439463347626a5971374a494b5955374b6d7151724c5645556f497a733155516f61524e524e524e55714b704974614b32766b624e615638574c7757645556737531466c6966324b3069617050795554646b4b4a743946627367614c6f744646736e446f6c5674744879655744692f44505564464a6533437646486b326d79536a4a63666c30656b62546e355168424e754b527971376450447758497873627447516943775a415945684149714151776f49426749415967416f54456e395347794b663149724c7872637165383631332f77446b5250616350396a672f77444845385a33576e766574536666766f396c776632476e2f3841464571566b6f6d566f6b45534151794b544b32574d726b53745432352f632f3761432f513162644730334c2b336a2b787148664a6e78756f6e3638712b39307638654b4c49736d79702b55656436306736497345413269425952754e64685373566a36614730714d31546f694e5742416766364446386c435359355261644e55786f4a4e7937666b4173646b50676d694250735041324143544a32514845676d725a4f4e6b5579635832474b334f334a2b374c375562364a6f647676334a667362364a396a70503252384c7250354b7341415063384e4d4141714159686741414141414341596741414141416b4959456149414171414141414141414267424649594141414141414141414141414141414141414141414141414141686755494141494141414141414149735967694a3439366c6776347271313870487344386e6b667164587532702b2f4131476f394732397238426f2f31786d636a5837622f77424f30542f2f41457a59493531744959686f79715341414941416f4141414541774141414159414942694b686b474d414b6d59656f64525a6d794d4c5652754476775659387933624b7035636b4563786c52302b3777686a7a7143565666527a4758797a72695a4939466371354445567a4137734b43676f59315155546a443573785735427848526477364644485a6a62744f4b2f5a543764736b6f564b6d5a7177315261744d354e643947626e703078344c666f77314758564c6f73574a795461527563656b36697667793436474e7864484f38736569644a62376a6e38576e6b32756a507836573356644737686f6b76434d7a46706f77376f34353837726a77593474504c622b5369755077526568555931784f676355567a68614f50783774322b46693553656c6c47504b554b374d57576d643948555477796e38642f596f6c6f3379756a76687a4f65665434317a6b744f347130696957475632306455744135666d4a76626f565352302b4d345870584971453771697834572f4a3148384d54544b763463347274706963725079762b584f6668354237536a35523050345272704b6d56354e456e32312b35666a512b576156365a306e58526a354d53566e516533394846784d4c553666726c482f59733555793662394c51536852437a4e79524d56786f39474e323857574e6e744230455544516d6259546253545258592f496b67686f745655552b436353555a4d4c5474485737486e6b6e42504937747048497758666b322b337a7255596e7a704a3930597357505674504f346f7a557a5461484970785458673345544453306b694930774a4152414269414143784445554168304255496a346c48397952487a4a42486a6d3764623375442f384131596e73326e2f356654662b4b4a3433764d582f41426e572f77446c52374a70762b5730332f6969615a7249566b794b4a426b4441434b52426b794c4a577037632f75663972422f6f61695a74393054397a484c6b6165666b2b523150757676644c2f486967525a4a6b44797657414749696b2f675846736c386443746b6f6a78524b6753746a66546f69693645416d5546685a446b4d43596e646866514f32414167443549474e455362414267687677454f31313979794b746c535264457247546237644b38736c5868472f526f6476707a6172344e386a362f532f736a3466576679564e444542374868715141427044415177414141414142414178414141774143514347526f41414641495967674141414269414267495a464141414141414141414141414141414141686741414141414347496f414141674141414141414541794952422b5565536570616536616d6d657476796a794831532b4f3636745633774e527150523976643644523134344765613361582f7776512f38416a4e6d633632435345686f797151425945425941464141444741674269414141436f4269414149736c52466c46624d584d7269305a5a69352f446f4c486d2b2f776a44554f636e335648497a7074757a734e2b715570715278303064595a4b2b684d5146594f784f516d7842566b544a78346e4d72786f32574746726f3435335431395078643648745644736e44456c4c39445068697464717a4c7861654c5a354d2b56395444702f75784d574674646f7a384f6d697569364545756a4f787738486e79357137396b786859384353526b65796c544c3863455a634d63666b353931726c6e6d7873654c7277577646305a616948457a37636539722f414741396c4766785175434a7072346a415748394378596c396a4d555361786d6f7a6553734634452f674668534e68776f5841327833333773483253487372374778634552344538723331724a5946356f706c70342b58453348424d6738524e315a6d30575854787039646d717a344b76726f366a4a69544d44506858776934353256337873733034334e6756744e47737951712b6a72395468586172344e486d302f335a37654c6d6554714f6d33356a523852556a4e6e6970646f784a516150586a64766d5a59325856564f6751714a4b4a746e52466b565349536f736a34434a717a6136464f556b6174506f326d6a63506367335a4c36616a3062616f7547464a75313552766f484f62546b764852305550427961584152524d67614752485943594142554d47495251374544594149492f6d51324c2b3869786d76477437794f4f393635502f5052374e70662b553076666e456d654e372b6c2f484e6631647a52374a6f37656a306a667a6869615a5a4b4a6f69696143474141514967305449534a576f352f64562f53593261687679626a64552b574e6d6e6b664836692f72666536582b4c46557950376b6d4a2b447a5057644553533843644543544730496d525556355153386b384c6770766d6d315851736a546d335244366f4361414b4c46464b68414f7741616f693232414446597864414e31614a6557434155506f5a46646b794a556c32695352576d57727373597262626531376c666f62394850376576365839614f67523962704c764638507250354669474a445061384947495a704441517741414141414141514141414141417741434b426947464168674167415a55494141426741455541414141414141414141434741434159674141417141414741674741434141414141414141414951686941672f4b504a66566a2f34766d7234786e725450492f56387133624a2b7545314665673755303973304c5336654d325a71646c5662526f66394274546e6b36524a456b52475a564e4152414351784151434a43474164434749414151796f41415251784d424d43444d4c5558546f7a575947706459352f73466a7a58665a66317144546274506b63786c726d364f6a3357533937496e35753263354e717a72444a544967695438695a584d717635436b724a6445616243736a48547273336d6a68542f41456f307547504a524f6b307156493858555a6166592f703833746c526a5264474e453452544d6e486a7634506d3558623675394934635679374e6a444769754548614d75432b35695050795a726f515263694d4557556265504b68457146524a426b6d676f6b4e46514b49795246694942444175776d464177436f7445575745614952524e49784a77757a506b69695356456463636d6d7a34756e614e566d77524f687a514e624f486e6f754f566c656e4779787a755844467277617a4c676b7637746e545a4d554c4e5471756c5364487634655462783956777a743349352b555635516958797950493973664b6f4a455152575531535a734e4e4e4a6f312f546f7973506c432b6d6f394332544a79786e56776652784f79644b48624f30782b44673079455352464567474d514141554d41454a6a45414141696f62494b56535132512b53784b386c395170667876634c645534733963305462304f69762f4a523548366b722b4f3632342f4554316e62762b6e614a6662456a6246624434476844515a54414247564967795a466974526f74302f50694e4a4f30326a64376f3665493062375a38667150354d6e33656b2f697851474643504f396873544145712b53422b454a73483446784d4b4567516541436f33516830496f454d5179774644364531324e4d714368475138536a6839336d76324d66344a53585a6f6d754b4b7964414f756769684530764c4a554645315a4646694356744e422f6272396a6f55633574362f70346e5278507139482b783850726635456b53496f6b653534444151796f4267425141414141414141495967414141495944455271674147554942674167414141414141415942514141514141414141414141414149426756434141414141414142674167414141414141414143454a6a45774b326556657255337538376a2f326a31575235583678722b4b762f414d5273647273547661644a2f704e736a55624332396e306c2f4d546349355a4f7353474a456a41524a414d4b41415944414349447343497747415742554d5641425245517841515a7239573678542f41474e68493157747632703139677365616230314f6266335a7a307a6462704e6538306157546f33444a5532486b47434e73436d50736251306d515a656c54556d6b6a70634546474b2f5535375278616d6a7064504872746e7a2b6f72375851537a466e346670615a6c77626e4f6b75796a444332625343574b70516135487a7237657a504a4c6a5356716d54564135796d376b7878447a584b726f6c68434a59616a6e534a5543524d724b736147304a49496d41674b7951414f6770414f68673267496e5246685967796c6f76614b33524b33474c4f4c386d446d6a31306a5a794d616345307a4c7468576a7977744769317952306d57464b6a6e396448697530656e703735586d38386463394b43545a58784c35753259386e5239584638546b6d71496f545454433648646d32456b2f426d6164334f6d6a44696a4c773954524b7364707376396f6c335232754c776a6a646d53397450354f78784c704843744d6c4579434a6f4267417749734541414167414145324d4b415242727445794c66614e526d764a76557172664e5a396e464d3954326d56375474372b2b4938753954742f786e57715832564870327a663841534e762f41504562633632794c45566f6d454d4244496f4b325746624a576f306d364f76614e473152766430612f6f307a5279757a342f556676723776536678346f554947487765563677527366517143687366774b6b4d6d67756e566a644152614162524769517246556e304c37456e516d68465262374c496c53524e4d427474644345494351303649396a6f676b6e32574a6c54524a576874466c6b346c534c6f30677a6b325767565a3473364e484e36432f66692f67365248316569753848784f742f6b54474a445065384267495a706b414177414141414142414d4241414141424568414d6a5a4441414541774b684141414d4244496f414141414541444141414141414151774141414145417846514141414d4141696b41415641414141414141495249697769456a793331704650633438656d344871556a792f31684f747a685338597a554858624332397130716f334a71646a2f36567050324e756a6e6b36784a45694b475a44474347525168694142694141454177415177454177414167495753494d6f6a49315774377879583352744a506f316d732f73352f3657565938743353433932622b55614b625a764e664c6e6c794e50717a537a70756d617857713053756e34424c374437733277693232797a484675516f6f7a634f5037655447566b6c62343862636d567073504f76673648465652564742676734776a614e6c6a536664487975664c792f51384f485a7878734d4b716a4e6a3259754c775a554479735a72614c49784569794a72547a314f4a5969434a493078566744517a576d536f5645674a7045426a6f644245526f6c5155626b4e6c5155536f43397162524974466c4557785953716d516b69786c624f64644a5750496f6e345a6c5352524a575a6473613165654e7073357a5754625666466e555a2b6f73305770784a72744862672f63363565634b356163615a6a74493255384e4e746d484a64732b72672b4e7a7a5754477167525a784730645842474a6b77557555576a48384d7a644f6e4a716956724632657a52613457646e692f4b6a6c646e7271534f72672b6b63613076513052524e455249515742464951784146674141414142516944537445794c644e6675574a586c50716858766571562b5948706d7875396d30442f41506f655a65702b4b3372557a61756b6e52366273744c616446586a6762323531746b5452424579736d417845434973596d53745270747a6465312b746d6a6c327a65376f6f7459722b374e424f37506b39542b2b7675644a2f48454771455346306a7876635642514451442b51745744492b416955307667694b323043437249775454626b516f41746b6f4f4c43675132525654364744374546424b6b784a4461486b4665522b416f594178457249704d6c524a466e324b2f6b7353455a72596142503854483748546f35765133372b4d3652483165682f6258784f752f66453053596b4d2b672b66514d517a53415941414141414141494141414141414169514142477741414167474143474141494267454141415541414141434741414141414141434159465141414555414141414141414959414942675643414141424d59676c516b65572b73662b7172727a6a505570486c2f724b3175555031786d6f727274686b35375470724e306a51656e4c2f414950706a666f3531754a44496a4d716b68674246416830464141444142444151446f414142414f68424349736b444b4b4a47703343336779704c74784e764b4a71395847584758374271504b4e61376d3230617a49626a63734f62466c79536b6e4b456e30364e504a7237476f7456415348464e6d6b306c447333576a784a646d74303242755230574446786972504c7a5a3666553650676e3771793853526d513449312f3557535751384f586c394f7a3032385a4b4b757a4b686b6a526f50646b2f4a5a444e4e576b5a6d4c6a6c6936425a45577161527a3864524a4a75585447747754545438704630345a595630716d54552b7a6e5961394e4e632b7a4a773631534c707a754c65706b6a585939544758795a4d636c6879754e5a4a4a46436b5771524e70704d434e6732566c49434e6a4c417773566935476b4d67776369747949756b6d52615175614b336b69766b6e6131436b696d66676e4c496d564f535a6d7831786a47797131544e5471494c6962664b7a5835736161644d59327a4a364a36636a7145345466325a6753375a7674566858314a6f304d37523948687a322b5a315747733050416e32537369306570354e44675a576c6a4a79696f722b3859365a733976556e6d76767830544b7248636256476b756a6f6f476f32354e59345775364e7a4248476931456b524a49435143475142456b494b69424951434159464557794c4a6b48355255727976314d7638416a477375502f62523650735575577a6142312f6350505056742f7866496e3434486f5070372f6f65682f306d6f785738695452434a4d724267414251515a4d67775270393156787866757a52654c4e357574384d58377330446b664a366e3931666436502b4f4169304f794c504739706f64396b66314a49427674696d754b3748566d2f78615844504843344a394854446a37363563764e4f4c56726e463138676453394868662f41473059326f30654a595a314873363370736f35593958686c5a4e4f666f43664772525a687779797a5555656673747931487137704a75315367665a737634646c2b364848623830563956477277352f5a7a2b5078666b31684c71697a4e676c6964507a5a436a6c5a66576e535a537a637051693233524e347076344d7262345871556e465678624f673975482b464871347548766a7938765654697931707971787966694c452f73307a712f62682f6852716430784b73625353615a766b36627478326e483166666c4d644e52534269594938566a3247764a5943694e45307a5730304d626e6a6e5a304d546d64493337754e6642307354366e512f747234335866766977596b53506f78382b6759686c5a41774141414141514445414141414d517841534141493042444142414d414141414141414141454d4141414141414141414141414141414541514441416f41414141415251774541545a69414162414141414959674953504d50576a663851682f346a30396e6d507264663841454e502b754d6f3672302b3453326a546354646f3050707470374e706d6a66784d5675416d68444d7159574176424653475154624a67414141414144415168674143474151684445424352685a34636f7447617a48792b4f6733693835337145344a7771313848497a7879615a365875656c35744e66616d6a6d4a3650456c506f6b7a657635653534376a6b75793346467553695a6d62416f7a744c365345494e5456493338534f5750466c4d396162625461656b6e5a734b6156496a705976326c614d72696a35334e6e3356393367776d4f4c4661624a5278583873795970467155563263647531685167756c52636f466675512b354c33615447324c696373536e354d584a685436546f736e715970726b2f6778736d72696b326278633873574c6c775378354f524f4f53556276354b7678616c502f414e4d4c39786447324f794d2f44714a5270706d33776176716d6330707546524d7a446b4f4f5573612b464c39485378314a6b777a706e4f724937746d56697a7448507530786e303766786e5a4c6b5947504d6d69313545626d547a5a63576d587a453530596e756c4f544e51376b6e44617a586b4b336d696a555a64583847446d316b6c344c4d6d7667324e394c565256393947446b313674704d353665767950716a446c6d6e4b566e5847625068756d7961325555555231307066756157436c4e7075545a73634748766c5a63707071594d3738524a6b4a35386c644f6d53686953586b4a593059626d4b4b7a66646b5a5a4c56454a592f6d6a456b707361626b513153636b364f587a71546c34384855552f426f395667616e4e4871345046655471634e746576324532464d6b6b65313832784a4a4f6a6f747277316c787676744768787875534f79326644564d6d534f7230324e4a52612b786e784d664571534d704a6e4d534a554a444141454d4941414149674e6b5170324d6943414345695a426c69504d7656316678642f72694f2f774454316677585256396a676656737133623470346a76505437765a7447616a4662324a4d7152616973474d5177704e6b4832545a426b71745275715468693738535a6f4a52746e5162705478772f6330456a3550566676666336502b4a572b684d6c566f6965523753374772524a55506f4278613549366a544b384d4763767873366653583747503841593958532f766544726632786b6d50714533696e2b786b6c4f622b796e2b7839484f6670723533486631347556635a4b37386d586f5976385245726d334b585a666f6e5771677668706e795a34355a2f7439666b742b4666394e2b6b67635553426e31706a4c4878376e584f37676e2b49622f51776b6a5937676e3737667852684a66547938307a354850502b79767338462f367347586f562f57562f705a3043526f64464a50504670664230435062306637612b66316e373456476f335750305933396d626731653564596f2f366a767a543947546e776679347566614557534948787237666269536b3647694b566a384d677a39484c2b6d684536654a7a476a72336f66447336654a394c6f76566648362f393857496b694b476653664f706a45425744474959554141414141414341594149426741414d434b514141444141436741414141414151774141414141414542554d4141696751774151444147674141414141414141494141414b674141414141414141454247523572363070362f546670695a36537a7a5431743172744c2b754e6d6f4f69394e78583848302f377336464850656d5a7165793666397a6f55597962695178444d4b594348595536474a4d5a41414954416d42416b4142596d42517745444142444167677a4879644a6d517a467979365a4b366366747a2b3453766f305753436266527439644c363061365879654c5050566665344d4a4f4f6547747a36654530616d474a6539555764433474782b4f7a5651535761546172736b7a71356355743349324f4f504745667638414a656c304b504670457a686e627436635a7152486956546c5264344b707756575a6159396d56696933327a46344777772b55616d6b796a4331574753706d6e7a4f6f73362f4e68576247347431612b44535a74424b3669646361382b586e367452705637303666544f6c3032692f6f4f365852693658517a6931666e376e514b6f512f3947397878315a66626e632b6d654a386d797143664a4d3257643837564746483831484c4f797658782b6d51726f74784a746f68464e305a6d4c483265664a71335557786a4a646f796b69634d526437626f5356354d383864734f62615852677a6d2b7a5a7a68307a56356f4f4e6d744e3432574e664f64746d484b62646f79736b477834644e4675335a30776175744e624c48386c4572697a71316f73636f66463063377139504c464f5352365a3665584c327834366c526156477a773670756a5174667562545259486b6c436872634a6b3273633973796e6b6a30593262535367347a58776a466335484b7a54744a7474464a4d6a4c476d6e784d50464e756a4f784a6d626b61554c54704c73316d74774a785a304e4776314f4c6e4630644f4c507935636d4f355843744f4d714c4645767a596e6a637246686a625239475a7a543565584865356270384d3535567850517472302f48464354387449356e51594c79782b3157647a7063616a42474f37624757466a4e683846794b34726f7352584d795168674942674143414141694d694144414141716b364c537471796f383039585176646f503759547576546e65793651346231624666784f454a7838347a756654736c4c5a394e53704b7a555979623545797449734b79614a45526f427367795a426b71745275642b33436a6e3264447554724844397a5154506b39562f492b33305838537473692f49325262504c5875534775794b5a4b4a42616c30644e6f2f38416c386637484d72785230756a2f774358786e723658397a352f572f746a4b4b632f77445a542f59764b63362f6f702f7366527a2f41473138336a2f666a2f747a4c2b71544d6e52582b4b68396a466663724d7652395a34492b5250355a2f74396a6b2f69792f303641544a49476a3745395238567a2b3475537a2f2b6b59504b6b6244632f774333532f513170386a6e2f6b723758542f78594d2f512f77427644396a6f6a6e4e437636784476344f6a5062306e376138505766764271647a36777158366d334e567564657976334f334e2f486b34384838754c514e32464132724732664566646845714946674b7a4e4a5876512f6336654a79326c533933482b35314d543658522f56386a722f3352594167506f7838326d5352456d61594178444367414141414141414151414141424941416a52414d4367415177414141674141414141414141414151444171414141696741414141414141414141414541414146514141414141414141414143474a684b677a7a6e3172782f4736502f414d636a305a6e6e5072684c33394c4c37514e456276307132396c6866784d364a484d2b6b75396e5866584e6e544935354f6b544741794b694f67424555774143426f474959414d514644454d4145495941444578695a42426d486d2f4b7a4e5a693559394d7a6c36644f50393063747131636d5956644d324f7278316b5a684f4a38336b76366e364c6831325973544e4a4c45306a5634457664667962664e6a55636375764b4e64696a557679695a4f386b31575a356170475246644549704a46754d3535554a5164684b426b70574e78526a616430612f77427637497567754e4d79566a4234724730755571584e754b6f6457675558465543697a55746372716c7961453574673453736b7363714c63716d6f784a7863724b495957704e6d7a57507274456662736c796278796b593849314932474a496f6a424c795a654a575a39317a354d2f444d676b58313056515265647359384757563278736b4441793462545a73356d504b49736465504f786f4a34752b6b53686a61615a73386d42655556537830535854303938734b42546d3032504b7530573351636a704f527a754f326e57315269337853717a5a3658535177712f6b766a5442794c38526e74504c56476e7a5962626f324d7063694b6a794d334a3078385272634f4b536c326243454a4a6c384d4b4d6859306a6e5331536f39474a6e696242785a6a3559324a64574d2b33473538664a7531386a78596c3062544c67547956524e61524a4a6e706e4a644d66416e66746b6264584e49374443767052792b697871456b7a7138432b6c48586a79376e6c36724359736845784a457150512b6559414d6f5144454541686941516867416741414579444a73677a51383939577758342f464a2f355a3133706c337332426e482b734731726345766a6764663657722b433444544f546f30544b30574267554d426749697952454c47713350384173562b357a386a6f4e303677646663352b5868487975712f652b33306638616c69386a594a486a72334265426a41794c594c6b644a6f762b5867637a472f686e5461442f414a654237656b2f632b66313337497a43764d76364f66374d74497a6a79673139306652796d35587a4d4c724b4f55636e497974486675782f63795034666b7072727957344e466d686c693356492b664f444b636b7576712b6e6e7a595869736d586e5461304e6b71453066526a354e61486376376150366f3174472f7742586f355a70786b6a436c742b6f76366150427a634e797a746b6657344f664363636c796a4830612f703476354f6c52703847677a5938384a74716b7530626c486f344d4c68504c7964566e4d38764649316d353959462b35744457376a5873302f466d75662b504a7a3450354d584f79537369546e5461494a48784b2b394261477273564530426c61564c33494f367152314d546c63455a2b3542727879566e56717a3658522f56386e722f63545143514830592b58556b79534b7978476d544141436d414141414141494141494141414a4141694e6d4141414149436f41415943414141594149696d416741426941495943474641414141414141414141414141414959465167474941414141414141415178424b6849383639624f74546f6c39344d39465a357a36357238546f4864564352714461656a762b695266336d7a716f6e4d2b6c456f3752474b2f77415a303054475470457869417970674d4141414751494541414d4242514568444541436f59425449736c5a4567695554566c37494d6d5870724736726e3962696b33614e5a785a30657078386b7a525a46546b66503573645862376e54636e646a49773871364d4e527156305a3830754a69556565313738556b342b4b4c596f70526c514d576c57774c31424d6a6a5373796f704952356338724661786f6c37534c6b6b5372733034336b72476c6a46375a6d554c6961306e78474a375a4e514d6a674c694e48784e7364774b33476a4c6156474e4a6f7857356b7034325a4f46644661566d5269694a3754504c77796f496e49494c6f6b7a31597a7738575638716d5679695873726b5a73627872486c45693446767954704d773664316a585a4d507955754c533847326c6a4b336936384334747a6b613552645751615a732f62583246375566735456612b4a474447462f42624846325a61784a452f62525a4b6c354645594a6541634449346b4768574f3762486c306a4579506f7a4a706d4a6b6a5a6c31776133696e6c4d6c34375248696c506b6a4b69725a5a613672644e6a5561527663533652717343706d34677153505877506e39586472435246457a31506e55414146414951465178444143496867414149414556794c47525a70486e6e724f56616e534c37784f72394c4b746e78484a2b734b6573306a6c2f674f71394b582f423466704a6d6d6136614a5969754a616779594141435a466b694c437872647753396e76376e4f5358624f6b334472424935706e7975712f66483275692f6a56736a386b3252504858764e457631454e5559456b644c6f48656d677a6d347470394853614233676a3065337050337642313337497a304d535a492b6f2b51514445514d426745494b4741436f41414b544e5a754b7643624e7331323464344a484c6d2f6a79642b442b54467a6b69425a4e4652384f767654305a4e454537477569444f774f70522f644936694c7449355443327051367673366d48672b70306439766b396637693041514830592b58516b5745435a706b44454d4b41414141414541414141414149496d4141477741414141494167414267494269414141414141474649426751414141414141414141414141414141434b686749414749414141415943415967415178424b684938333965722b6e323439486b65642b75552f774154743337534e54324e7436566b33745544714563743653612f684e66615a314b4d5a4f6b4d6c5169526c534741414177414141513041444141454177415141414141444949736779786b4752714d6249756d633772497453644854535632614c57342f4c504e7a343778665136505057656d6c6c4f4b5646425a6b5257664f723775506f4976692f42525a646a366b6a4f6b795a754b7a4b5269775a6b524479636a4a67576f716a5646694e5235616b4a496b4230594969305449734c5062486d5974577a4b6d55714a7a76743278394a52695a654f4b4b59784c346d734a3559354d7644496967614847795236703665577153444c5756794d5a4f6d4c484c4945476955664a786e74752b6c3942784a496b64635935573156774773614c614761306e64565847694c4c6d565351734a61715a584a466b6b56733431327855534b4a4b797954375a456a305973663276735a4f5048524f4d544a787752635a75706e6e714a5973644e4d3245555651695849392f486a71506d383265366b4d4b47646e6e41414646515546414143414141434a494742476845684245524d6b79444e526c3539367956367a5272343448532b6b762b6a782f53624f5a395a70725561466e532b6b662b6a2f744e6d6d61366c644530794b4a6c51786947514969795a426b5672647872384e4b7a6d354853626854774e507763354a55664a3679367a6661364c2b4e5730524a6950486139304168694971794575307a704e424a5041716679637847374e78704e5648466a5547766b394854386b77793876483165467a77384e3669646d742f467854534a76564a492b6a387878666b2b5638486b2b7a59574267725578462b4b52666d4f4c3770384c50374d2b77737750785344385645664d6366354877632f737a37437a422f4652462b4b512b59342f7950685a2f5a6e694d4c38556866696f6a356a6a2f492b466e396d597a41317976547951505670474a716454444a696b724f504c7a34584779563334654c4f5a7a7731556c52552b49355364454b545238712b333270366832536f724c455a4754692f4e476d2f4b4f72683452796547314f4852316350435070394639587965752b693047416a3663664c706f6b694b4a6f3079594141414d51776f454d514b41414167454d514577454d6a5941414141414141414141454d41454d4141414541444151414d424141444541444141414141414141416f514141514141414141414141414143474943456a7a3731782f62614139426b65656575482f5362662b306a554778394970773275635835356e556f3550305a2f77424a6e392b5a31694d354e785943456952685473474b68674d51414144415942594141414959414169517141514251414d69304d566b7171704931577368307a62534e62712f797638415935636b38505630392f58484d35557667787047586b53566d497a35646e6d763057487145536a314b7950675a6d7871737a4849793473313058345a6b776d59634d3857796a496e794d48484e6d5170476f386d654f6d556d544d5a534c5649334b34324a6c636e5347356d4e6b79564557726a6a6254637248464748484e4573575a474e753877756d62466c36526751796f79345a465276432b58486b78724d5249706a4e452b6150544d707035724c73536f6f624c4a53525335497a6c59336a43614567744374484c3675712b4d69784e474b70463857644d62484c4b566259797578576232787059326969544a4e6b477a475754574d526b557a5a4f556a476e4c7334334a364d4d554a4e58324b305679596b2b784862544d675a63496d4a4132574f50535054785479386e4e6c714c49726f6d675347653250446274494151797345496b4b696f514441424d4273514141686749426943494d6954494e476f6c634236306165585132623730642f306d532b4f624e4a3630383648376f33586f3376615a50377a4e756464636d574972525967695143416967697952456c574e627543557344542b357a30764a305734525430386a6e576649367a39386661364c39696f69324e2b524d386233777241695351564e46716b3055706b69566d7a6249576273766553306a42534c564766535557575466306373734d5974393132533933376b587038726a7a71714b4a507358477a33475a4d4c363079486c4c466c364d4a4d737871655366434b37526365504c4b6c78776b582b34374773706d7730446154626f73573234303774746e65644c6d3839356547665667504a3056536d31326a5a54322b33616d30594f5853356f66466f6d58545a79656d38632b4c4c31565875464f535346646f72623650505a7233487078776e74475859347270675262646b64442b53354f4b676c383256524435496c5a57462f556a724d6668484a3436744856592f796f2b6c305875766c646639467741423953506c564a4959495a704141444151774142414d51414141414141424567454d6a5941414141414141414141454d525141417768414d51414141414141414178414177454155774541444151414d514145414141414d51774141454141416d455679505050586347336f4b5236477a7a7a31793270364931426d656a4a4e375450394d6832434f5239485574737966367a72555374784e4568456a6d3041454144414141435168674141414441414b4141734167454f68554e4b6737416b496c46637a586176386a4e6e4a47753158615a793550327654302f3734356a4b75556d697267306a595047334b32557a36366f2b5a6c37666f4d4d357072706566424c6f756c486b7a4862646d485861563057776b79727a51726f6d6a57347a3453664a47576d6136452f426b65346b52352b54426e78646b374d6545787552586d754379556a467a744d6c4b5a6a5a4a644e45746465504269743862492b344f5254345a6c374a684e4d745a576b5a574c505a71334c736d7376457572474d2b4b5676595a6b5766694972354e4b733771364235375852755a56353730336c73636d736976426a2f6972666b775572474e3171634f4d624b4f70624c347a636a58714c70555a2b4f31465769754f654d6e7065574a6c566a73726a5a746b4a6a636a4755687559376d6578593546626d69446d6974757a4e796278774f55724b5a53464b564662646d586648455361484246534d714b4e346c583461624e72426449316d4b4e4d326b504350627778344f6f71314569497a315045644141465a4141494269414141414149424449674d51434b426b47545a426c52777672464b39457a612b693757325a2f7744794774395a4f4b786154395a6d30394771747531482b73327a58584973525769614443514347525252466b694a466a4131332f4c7a4f61642f4a302b7456344a6f35655466672b54316e37342b7a3050374b7261496b325274486a6651694e4441564f794b5a5a487353566d587063584c496f305848473557534d35355448473272744a6f357a6e796c2b5133554d4549654557516a78696b546f2b747863474f474d664735756f7a7a7975716f79777544532b787a4337733679612b6c6e4d54726d2b6a7a39566a36656a704d725a6e7447474f63326c46646e52616254777878384b7a43323344635a54612b5463705564756e34704a7575585663336e74675348534a425236336774516f6a4b435a5a514d6c6b71793265576b31576b53546c6a696161634f4c614f776362527a6574303778616955312b5752382f71656e2b7366553654714f37394e61356754614566506652485a4b6d52524f2b305247546a53644a2f63366a463469637a695653374f6c784f346f2b6a305875766c646439463478494b507152387170496b516f6b615a4d5967436d41686741414941414143414141426a41434e67414141414141414141415141414141465141414141414141414141414141414141414144415144454141414141414141414141414141416869434b3265652b75626374416568794f4239644e526874386a55462f6f364844624d692b655a317878336f76726274562f774355374a4572634d6d51524977306b41686b444151774159686741414d6f42414151414179674141416978456d4942474a6d6879737a4375534d5a5937644d4d75323761544a67614b5077334a6d38636675562b3265584c676d39765a6a31646a525a744b6c4531446a545a31755743716a6d733671542f63382f4c7836665136586e3732493269466a646b547a766f7862487673755572364d564d6d704573544c48624f6a4f6c5a617370684b6651705a5575694f50772f4b2f4c6c4d5a7a76354b4a354c6443524e4f754f4569397a364b57374833325134746d6d30684a6b654d693746423154525574306e56745558724771384378517554526d56516363736d4f6f496d6f466c4458516a6c625630497169354749703857584c496a546c6c4c56726f4c4b2b534975612b354b6e61745a46795a57386857356d4b73785775585a427a525535454a53736a704d596b335970656149456b62786d792b456f6d58464b6969474b544c34786c66614f307772686c6c4756446f7a386236526759302f427363556152362b4c477834656137574567517a75386c4b6741436f4141414142694141454a684445512b6f6b6d4143374a455755424352496a496f3458316c47386568557055755a7466526337327a502f414b6a4239597765585336656c3347646d56364f6a37576a314d58387a7447324b375245305156466944426741777045575349736c574d4c574f73457a6c6e667a354f7131663841792b57764e484b75584a4a7455333848794f742f66483265672f6256625968746b547956394b474f69424a4d794c4947363236467163354c3570476d53586d7a6f747656616466757a30394c4e386a77395a6c726a5a794a41466e31665434364c384f6a6d636d4a4f636c4870746d2f6e6e6a413157474e367056346b375a354f617a4b3478374f6e33684d372f6875634f50323863597234526b496969615236385a724750486e6c764b306869624d54506d556572476563776d365934334b737530427246714b4d2f484e54566f35346332504975574757503054614e5875654f394e4b667a487332706a5a3438736331393062354a764774634f56787a78726c4f754b6633524173794c6a4a7275696f2b4879667572372b5071485134746334387643454e6d465a536b70745661534f6f7731776a2b7879654d367a442f4147636632506f39462b36766c39645045586a454e492b704879615a4953517a5449414141426741556747494141596741414545544151794e67414142414d436f51444142414d51414144415141414141414141414141414141414141774541557745414441514141414151414141414141414a6a4545516b65662b75716e486234486f4d6a67505858396a74372b65624e5150304f6d3975316e365a6a74456354364976384c722f747a4f31675374785946456b686d4b3056444143414a43475541686741683249416c4d59686c4141414541414251414d4149736953455a565779426130525a46593034326d633971385653624f6e614e5272636263547a3832506837756b7a737a637a4e4e3352535a57573131526a55664e76742b68777534454e4d677749337062794b5a396f4c4633514e494c6f73545a5577357943736d4e55546a33526971546f6b73724b797a456f6f767875426763374a786b3077786c4c7074494b4e3946314773575a784d6e3853754b7064683538736374736c78524753534d5357646c4538386d4359566d795a477a5872554e446c6e2f55626137475a4f66586b786e71476d5930732f4c77797479624a5770684732686b7445374d50424a76795a52686d34686b426a564d73445373756a464c73496f794d554c5a33343535634f584c555a6d6e68306a4e345249596f394979654a377363492b5879636c3271574e66434c6b68304f6a724934584f30783241364b78744542694151456b6830424159414141414241524a434b49694a434b49455757454743754c395a2f38707050316d5865694b2f43363166615256367a2f414f51306a2b32597439464f4c776134327858634973525845735159534151776f4973596d53724748716637484a2b78796333345a316d712f735a2f7363704b50646e7965746e366f2b7a3048717157524a53496f38566654485a4a65465a476d53524e4336464e552f423075682f35654a7a55447064443167696576706635487a75742f597a536a504e5178746d515957763677535a39486b33323354356545336e49314c792b66314d72514a5379536c396a586659334733593347456e78713265486a336c79506679367734377073786742394a387847545354624f663147626c4e307a6361696459354850546c32654871727561653770634e37717a6d326a6136484935636b7a52386a63376247584363326a7a39504c337832366d5473323268584c77795a4758686e314c36664f783978794f58724a6b6a4c3739465a504d6e3732572f38546f715068387637386e364444396d4a67674563323252424e6e563466374f4837484a77746e5636663841736f66736651364c397a3566582f746a4a524e454353507178386d704141476d5141414177454d41454d5141414141414142456745424777414156444151414d424141784141414d51414d5178414141414141414141414141414141414141414141414141414141414141414141414149596769444f4339654f7347675879357337316f3454317a4e593857686c393230616e7543506f64567432712f575a32794f4939432f384154395776746b4f33517255534a43517a466243474a45694244424177414249414741415641417741426941714749426843415941526f42675255475673735a4769434a68616950544d2b696e496c527a354a7646333463745a52786d6f54354f7a4564556254584b704d314e6e796335724a2b6d344c764355714472774e45506b79394171675145346756754a48677a4a3432546a6a746b5333544768695a4e59625a6b384866676e424e5348637863324f744c4a664a644453795a6c704e73794955627863632b584a686668574834616152732b674e366a6a38624a712f77386e35517677724e703152426b31466e4e57706c7044486c70704e315647376f6734327a46626e493036307258676634656a614f4a573445616d57324e43484646726b44494d61564c6c5a4b434b565a66417369583075566d783030577a427853354d3365434b346f396e446a743833714d39654752434a61694d53784d396b664f744177417241414143414b454d6741454d4145417749674d5141414141694c5a4a6b4367494d6b794c3846527833724c72624e4f2f6c5a304c30532f6f31364a65736f3374756d66327a45505245323461784d33474d6e65524c55566f73515a4d59414642466a6245325372474e714b39724a2b78794c2f52394858616a2b796e2b78794c6a5630664b36333348324f67395a715a4552734c50432b6f45782f4967712b774c457a6f39746c2f51302f686e5034364e766f4d6c546366686e66703874636b6548724a766a6230684f437952635a4c706b6b4d2b7671563862657274716634617554715852744d6346434b6976676d426d63654f4e3349316e79355a795330425945577a56726e376133634a6652533873305847636e6169322f304e6e7270334f2b58534874383035795836487a633733387574767038572b506837744b64506f73386e467a2b6d50324e396a676f515555535249397648785442354f586e793541565a4f6f794c444831453148484c396a65666a477566484e355975597a5036354c39536b6e6b66646c5a38546c2f66583644436178674241434f62532b4c4f71303365474837484b526f3672536434595039443339442b2b766d64663841746a4d4a4555795350725238696d41434e4d6d41414177454d41454d5141414141414142444749413059674141414141414141414141414141414141414141414141414141414141414141415942534141434141414141414141414141414142434744434b3548422b76552f7747682b37796e64794f4639636366773268762f4142733350635256364664615458662b51377048452b682b4c306574722f4d4f3251726354474a444d566f444143414141496f474959444151465178414d71454d426844454d51414143427343474b79434c4553494d796f4b6369364c437566677a6c36627739755a33474c557252703230626e6348395a704a4b6a356e4e4e5a50302f5333664669686659574157725a78657731324e455543386d614d68506f79494e563259616c3152625463564c374758504a6c71673662526a525a6370427973724a6936427a6f782b62485a5a584f34375a4563354e35455958594a756a66637a63497a566b4a386b7a41545a64466b376d6268497942496859307873306a50775675584b4a4f544b6733464d2b58772b7971552b757936544d615a58534a776c61386c6b48325930656b58515a764833457a3956754e4a487333554656476d30503164733363543648464e523854714d76314c554d695452336a786d41415549596867414149414749434267494341454d514141434b415178464547525a4e6c63676c63703676616a74654b56576c6d52696569494e5a64644e2f4b4d6e316a475574706a58786c52696569452b5772746d3478586f6164453056524c55475568695249696f7443614a455746593264586a6e2b7879457252324f62386b2f324f516c35506c39623948312b67395a736467546b6950452b652b70736d4859555351436a66797a59594d6e46706f776b5859354b797939746c6a6c793464324e645868794c4a464d754e46677a75456c326262486e684e4a706e3165446e787a6d7237664535754b3432736743436b684e6e703348424d78732b52516a3548504e78586b302b6f7a75587965586e3669597a5539765277634e7972477a79626b375a6c3764537979663352724a53624e68742f57572f756a77634f572b5758373139486d773177574e2b68325251576b6659334a50623439325a7164777a4c693470396d5871632f434c706f304f70797562386e69366e6e6b6e62487336626874796d56596b6e596b4569423837322b78456d4e58396845346b4671704b7a71644a2f59592f324f56355633536f366e5366324d48385565336f2f476235765866736a4e52496969523965506a3077415a706b6747414347414141686741674749414141434a4141694e6d41686c434159414941414941414141414141414141414141414141414141414141414741686b554141414141496f414141674141414141416843597741677a6750586e656e304836545a33374f423965643654522f7049335063536c364672384872663841576478453458304b6b744e7276395a336146616c534142305a614341426b43474155525441426749414142674e415643474641564441517768434a434169524a6b575149424d544d4e45796d663557574d784d32534d5532325a79394f75453359304f76665a707047783165546e4931307a35664c6435503076537a5745696d335968506f566e4b7661745155516a32577047624552716d57786e3152577831386f777a5630585262466d50467379493432773535616956456c45756a6a4c3169693069794f4f57656d4c77596e46717a4f3974443447744d66456a41696d69665a6b76476944674475327254644d566b6e47697533346f4266492b4c386a6f72625a576f71794f6b567a6a315a4762374b5a546173314933446c4c69694d4a796273786e4a795a66685462716a654a6e5030742f6f386e424b32627a466d5571706e4735705a4d6347342f4373653362706558684b52372b4776693956683532376f6b6d59654850484a425354757a4c5236486857415247454178554144414255464d51774945464567494973513249424259794a5177454252466b4769786b47676a6b2f56762f534a2f626e457766525865625747663674722b447a2b2f4f4a7266512f576656516c35346d6f6c65694973524265437949595351774741694c4a6b4746592b62386b2f324f536c486a614f747933776e2b78794530314b6d664c36333650722f774250395a4b32794b6b45694a383631394e4a674338684a4d426a546161456b2f734f674d685a544b77366c782b6d6a5730374c49756b684c6c4c7558546a6e78343554303350346d532b527a31547279615a546b354e4b325335797032622b4a792f6c58483562426c5a64544a4e64335a6a5a4a323037374b504c54596e354f66646c666464384f50484831466c325a756a79384d71623849775579334770636b6c386d7363724d706f354d5a6c6a5a58516669342f434d624e717553712b6a586630734a4e4f4d712f59716e4d3735632f4c586a7836624866744c4c6d744f4e325557526b4b7a687532377232343454474530496469734f6752596b69424a455266424a6e54614c2b77676a6d494854614c7242453933536676664e3637396a4f4a4543535072523865704445686c5144454d714141414244454141414141414167695943414e6d414141434741434159424341596741414141414141414741434159414941414141414141414147414152514141416747497141414141454d4168414d514547634a3637646150524c377a5a336a52773372694e36485366706b4e342b346a463943333747754f386963483647723274644137794a637664574a674361485a686f414667325251417247464d41446f674b4a4a43416f6b49414c4541414d49517741494141414551614a4d693251525a46736b3256793847576c6335704c7335726364616f5353354c7a326250575a6e464841617a5653795a3552636b6b6a476671765277546563627162664650376d4b794f4b5634347179564879632f33503033464e5978426f67346c7846756a44304b347373544b6d7055326b526a4a2f4a465a63657931514d6545335a6b4b546f78574c4673594a4758424a474a462b444a6978486e7a32764c5939496f7350634c484379736e6b683259334a4473725061756245794249434452476f6c6a3846627169366169707952697a6d69334a4f4d552f75617a4c6c5846712b7a574d644d52504b314b6a477a5458334b5a35483452544732326d7a656f36794d6e476d326248417671544d62426a6f7a6f7176424e365a795131547144566e49796c4c486d6d314a706e595a6d6a6a4e5a4845736a61744d396e54356272353356592f6f7272646f3365564b4f56396e615963366d7254733862307557706f39463272566535693839726f3972354758743161646b696e484c6f75444b514351364970447351777069454d67594e694167694d524941496a496c4141676f6f646b4a506f62497349356e31516f766163742b6561706d6f39484e2f6939532f6a67626e3150782f672b567938636b615830626b553962714978386344544e6569784c596c555331426c594167415a466a4577716a492f6f6c2b7878302b5570665635544f78792f6c5a794f52766e4c3932664d363265492b762f542f414f35524a6430514a79386c5a387976715172614c4938713749456f737054557065426f66456b6b2f426179564f724e6a703948377359336152626f394e666258566d366a4252716a32634854393273713848556454322b4d574a6930755045756f6f31573577345a4d6376436b644652724e77772b356a5858686e6f35654b5443366a7a38484e62797932756664324a6b76712b524e4879623772363452733942427a793331535272556233624d664445333932642b6e77377334383355353976485778344a7274575947666234543768464b56477a513650715868787339506b3438326546334b35444c7073324a385a7273706f36374e676a4f4c54582f414c4f573147504a696e4b4c587965486d3465313958673669636b316661682b512b53564d6b2b3272504a5871514a495137614d6936436c7956726f36625133374562564d35784e31354f6a304c6c4c424679665a37756b2f652b623133374765686b53523965506a3332614a434a465141414651414941474168674941414941454d43514347527341414141434142674941474168674143416f59414141414145414149414141414141414141414267495a464141414149414b674159425341594243414141697a682f584e72613844582b6164777a696658482f414572462f724e342b3479775051747547764f3969634236462f38417a7a76346c79393069524969534d4e5167474d4e454d51774741415141446f4b414c41414b674749595141414141674167694a6f625a4273434c4b4d6b36544c577a5836696168475466324d74526f4e3231504734706e415a736a65647479367336585835707a637571544f5379766a6b5a4c36723138486a504630326e6d75434d726b617252537543374e6b6b66473566476466706350327862545a46784c56344a4f466f3537623278704f53564a7569696d5a55343056636247397478434c6f766a497061476d306956644d794d365a64484b767561336e32506d7961597547323265536b4a5452726c6d66466b66646c30616a6c654a74464e452b52726c6c4c466d565073756d4c787467736e512f645a716e6e2b624a505566536936597544592b3655356371534e5939517a476e6e636e625a71516d444a7a356236544e644c496d51795a483352556c666b334a70306b53715575305a324841365673686878733275504731354f65575332694556464a46366957384653364353534f64743235334a68353458466e45376c4773744b7a7563763557636a75734838666339765458793833555466465774306e3534333476733941322b4853726f344c525837766d6b6568614663594b31546f2b6e6a3566413566447073446153374d784d316547586732455a467363736339727773694268313273734b49574e4d4b59414a6b4441694d4b414577416b4959674541434b4579456b546f692f44434f64395252726173376d72676d72527050522f7350587a63465455476a642b7033577961733566304d7133476633654d31474b39526a354c555646694b6961474a45694245575349734b716e34663748495a4a647964664c4f766e345a782b5a3870792f646f2b64317637592b742f542f6553686b574e583252506c36665668554e694832424f426c59596335786a666c6d4e453275335135355732764230343865374c474f484e6c32345a567538554f455569354955535a39764848746b6b664379793362555759326f6935776b6c396a4a624e626e3161697063565a793563354d627430345a6c6370714f666c323352477963704a74744972386e787372764b7675342f74697950776450706f4b474b4358324f57672b3132627a42716e30764b52364f6d7a78787a387646316d4f56786d6d3451464d4d716b58492b744c4d707556387179774773312b486c486c386f3268546b6a63576a6e79597a4c4774385764777a6c63652f496d58366d4847624d592b507954575666657776646a4b5a4a4d69786f35747234485261422f7742416a6e596e5137642f594b2f75657a6f2f35487a65742f5932614a49694d2b7a4878723754474a444b684441436f5144414244415141414141414142456741434e67414141414246414141454144416967414141414246517745414445414141414141414141414d434b4141414141414141414141414141414142414146536f73346631796e4c624d4666475137686e442b756574747750375a546550754d7344304d314b4f765a333650502f41454a5662696567497558736959364569526c714151324246417841464d61496b67474167434749414341424373435168574b774a57537050354b477974796677774c4a576d567552544c5054374d584a716f704e324e564e786c796d6a5337686b7544535a4e36705366477a41315454644e2b555378307738317a6573616e6a365a79756f69347336625053636b6e614f633163616253526a5868365a4e58477476742f4277566642746b7a523642306a637862506c63324f73712f5238463378786c78646c6976344b4d5a656d65577831536154585a5134305a464b6946425a57484a4d456c586b767952374b45684b36536e535a427133534c50676a46646d31564f4c4b334b526e5556385659474d334a454f6253386d5534392b4345735557615972463979512f636b57653050326a555a736a486c4b543849716b704f4b4d78592b2f496343375474596178747047626977576c593478664a4b6a4e7777664b6d544c4a4c4e4a347358677a3478384563634b614d7176304f507477797956454831325855565351633973664d345337527a6534596e6b546f36504b756d61625046577a30634638706e4e3456704e427033484a62625a33756e7270484f364c54744f53666839706e5559342f543453507338586d507a66565759376a4e68614d7947536b61355359547a63596e6673322b584f615956755935452f6b733549357246724a707536712b6a5a346453706f786e78575056786452686e39577a4769694d3057386b63645636706c4b6e5a497154485a47747067694e6974675441694d4b596741424d5132414373544779444b6a6e765536765a4e597a6c2f52482f56483933694f723953312f4174616372364970626c4f4e503868706d76555557497252616b47556b4d514142426b684d67706e345a79576452355372377336365a79476145597a6e5438795a382f7266327672644237795979596d775a452b58583177545171477642424a4a5762766130317a5a706f726f336d317734516d727532642b6d2f6c6a7839582f46573451784962507450687348563570593439476b795a4c542f553247354f704a666f61575238727173373336665736586a6e624b673654524641794c386e6a665154586d792f486c6b756a48524f49544c47574e7468314848354e33696e7a68466e4b77386f3648525335597a33394a79586662587975723435504d5a31455a496b4a6e304c3672774f5733426364544e50777a4252744e772f356953615656354e597a342f55545764666636653734736639492f493135454e65547a4f7a4b68464e4e386b6237625865442f3263366d6442747263734674664a37656b2f6b665036332b4b7471695a4561507378384f7044454d30674141415943414269474941414143414241424d41416a59454d5141414145417844436741414141414b415177415144414951444142414d51444151794b41414141414141414141414141414141414141415168694b7a535a7850725a5874326e2b7a796e614d346e31796e2f43734c2b325531506f6a4139434e56722b6a7630656665675831755236456a56396b5452496968325a6141374659694b6b41414144454d4141414341514562415a477762494f514572466447506b7970477679362b4d655355726b7667334d6266544e796d4d335778795a456b32594f5856704b724e4e6d33436337555759575455766862665a3278344c3772793564546a76574c595a64564b5461355561334c726c43314a32594f6256762f744c6c544e586b6c504b3330372b54667735456e4c6133756d3165504a50676d3771302f755a6d574c795164767449356e547071634733386e54516b7051504a792b337434623432306b2b467456624e4c717354666252306d6648553036386d42714d58556c386e4a374a576930382b475a4b2b6a6f5965457a6e36574f64755052764d45314f4b6f385055592b6476746448796277307a63624c69694e497552344d6e74576f544a5246355a7a74465a572f77426a49346b654e435671565258544b306d6a4b6667726b6d6132334b675469685579614c73744646626969326d52665a65356c58785242726f756f685646376854524b4d4c5a66474b624a343862736e6455743049593761364d33486853456f306b5a4d46306962634d387a5555546f454d4f46753047696d52617969556b585178387667313038536e354d2f4a4b785963663171523665484839555a354d75336a71656e774b437472396a59346246464a4975696b7048326547616b666b2b7379336d684a4e506f6f792b48305a54367473785a7974487277664f7a773375744e6c2b6d526c596454396e32592b654374746d487a34636b76445056327a4b504675345a654b36624875455931795a734d4f72686b536c384d34536551794961334a465238306a6c6c3030733348763465727938626567526d6d764a6170484a6162645933464f4c4e3769314d5a7055654c6b3462692b6a783838796a5a67593863695a5970484456656a632b367978706c64676d526472414932415649694d41684d6779544555615066576c744f733577355270576a6d665344785433546e6a6c307352314f2f30746e317a63625841345830665838597738656b34534e4a5872694c45566f7351595445434741694c47496978584935484e464c4a4f763841457a7270484935306c504a587a4e6e7a2b742f612b723048764e6a30694c477944506c313963456c5a455a4654696d35655465375732766369335a6f34733275337478794e33354f765433584a486b367162347136464449785a4d2b3548773270334441386e4761766f30575256306a735a4a53527074586f484a75575079654471654332376a364853382b4f50366371304653736158684763394c6c585469554c444e66423462783554365070546b7776724b4b714654544c6547546b6f71445a6b77306b35703965524f504b2f51764a68506455786a326a6f39486a34596b59756d304b6a78632b326a6170556a33394e7733487a587975713573632f454d55686b4a4f6b65322b713855383663377544764e4d3162527364564c6c6b6d2f697a4162763450693839336e58332b6e6d7550456870434a49344f79794d625a3057334f38502f414c4f66677a66376330386272376e7336543938654472663436326f304a4571507378384f6d4d517a5449414141426741414141416741594341596769514142477741414143474143474141414141414141414347425167474151414167474167415941415541414541414141674141686741425341414b67414141424141516d63523634722b4659663841796e624d346a31776e2f4338482f6d4e342b346a572b676c54334d39445277486f564c687546664d6b642b6a563931596d4b6d4d5a6855526f594555774541444378434b683246694974675362494e6b5a536f7873755a524c4a62365975556b575479555965545652696d327a457a617030616a55616c74486f773462586d354f707878394c745875626a2b56476c6e7175546261374d50506d38752b6a575a6453716162643161505a4f50446a786543386e4e7a352b50546150585154707432594766567a795370503654547a7a4f2b325377796c4f534a6c6e506f375468754d32323244555a636470644a2f596e4c504656795862662b356a4a75505a685a386b3579376667345a56655064756d343032622b6b5436565338666336445479632b5279476d62713264566f323343445044792b33302b4b61785a6d6248635456795671646d346e463844545a6f4e4e39396e4a36634c3530306d717564564878614d6a5279555955575a4d552f2f41457a41686b654c4975764c6f35636d4f342b6e30756662644e346d32305a4b4d50466b526c78646e7a4f58485666586c3346795a4e4971697931486e73456d6855424949716679684b4c4c476756685a5546414841744530463270614b364c326b525358794632676b50695436475532726848757a4b684475794d455a454f69755765536152616b52524d6a7a31454c474c344c42584a6d504d746c3055536b6d364f736e6f6b567143624d7a46443943764845793071716a33634f506d56347572354e53773075795569554253566e314f4f507a485066314d4c4c6b6d6e3237526a7a7958344c3879342f56354d5071327a3034523538372b6c6a61695670742f63782b4b6d75692f564f306b51774e5658686f396339506c3833693278695a4d52434d473033527461542b4250476d6d566e446c333472585935796a4c7830625454357052584a7a644d312b614842575969797954386b754d796a3159355a7a315859596461725363756a595131532b35786548557053584a64497a636572556a686e303072746a316e4a68376a73595a347a2b53376b6a6c4d65706b6e307a59344e644361753265585070736f392f44316d4f65747435624a57594d4e54475a6b4b5235726a5a3948736d63763158706a494b5137446530694c47325259476f333570375072302f38733450306336336e54582f414a636a742f5548577a612f2f51634c36526e5738364a66654569784c5873487979784653387373515a54517849594349736d525a476c445a79656f565a4a2f363264644a484a61694c57584a3975625042316e3748314f672f646b7869746b32515a387176726f324e446f5a4653695a326c7975475266617a4352624230784c717975584a6a3359324f7578793552556930302b6a7a2f414e316d33697a375842797a5043506738754677797152466f6c59486479516355794874512b7863774a32592f5a652f4b665655736366735334524a685137636673642b58334b686742554a6c4761536a43544c57306a54367a5062714d6a687a386b7778753362687775576361764c4a6370503773786d374c4a65625a436b6647797664625833734a724752456d68416a4c5378485162616f7145712b357a3656306237624839452f3350563076386b65487266347133424b794b4a4832342b4654734c4569525754415179674141414244414244414145414145534141493241414141414142444141414141414142414d51415541774141454d5141414145414141414141414141414d4241417741434b42444556414141416741515a714c4f4c39634e7261734b2b2b5937566e442b75553374656e2f544d6278397759486f4c787558376f394152352f77436732706678426e6f4b374e5833524e4445686d57674669416d67784d6a595741574e7372626f716c6c532b527170754c334b696957564c354d544c6d6154702f42672b2f795673363463575663732b584766566d5a395453365a724a366c7554743955594f74316b636134743973314f545754585350627863477075766d383355323355624c555a7058562b5453353957366c4646633873352b57594f646653656a746d4d65584447386d666d714d2b667776696a575a4d726c4a746d526b3430596253504c795a5639586a7778776d6f4646796b5a2b484537585a695158324e68676931327a6b7a7935366a4953624e5a6e3563326a617057617a555164736c6365437a7557364363484f736b70645034566e5434636b566b536a50702f4279656d6b36366679622f54744e526c386f3876492b7268356a707365565368303753364e66715978354d763072696f557675537a7769306a6737595270357a6455364e666d78655731306265574a4e3031614c382b4c485046584165337177354f32797448677a4a506a58776258484c7047706e69396964706447646879526b7250423147466661344f575a59526e4a4d73566c435a6172504459394361644d737371566b6b7943643279666b714a6371496959794b59574249684a4462456d5556305771494a466f53314b4555577852577256466b5756787954485a46734c444269596971636d6977306a6c665269386963704f546f7477592b3766614f2f484f366d566d4f4e712f444238625a6232536c55596848776655344d4e61664436766c33745048326d5179535561476d6f706d504a33646e304d4d587775584c61755575544d53574e33623846716c776c62384d6e4f5652625236734d58697a356452706338726c53766f737771326947524f55372f5579344a486176446e6c754a74554a4d6d304e52545269354f556c3334613355386e795a724b5a764e52464a556a575368396a654e6572697a314e56536a50785266477a47686a4e70703856503841394851354d70664376453270557a4f78785437536f726c6a2b52516c4b4c4d32537359636e625764427a684a557a50783669564b7a5734736e784b6a4c3552726f387566464c3948763475703032617a7736746c366d76686d696262706c384d7a5562504c6c775637754c724a6646626e6b445a725936704d79316b556b6d6a6a634c487378354d637656617a66322f344e727639427776704a31766d692f584849377a65626c744f75532b635a77507058726574422b3068707176596c355a59696f7352425941674947524a45575270426e4a61712f66792f626b64617a6b39562f625a562f396d6544726632507039422b2b734a6b4c4a4562506c5639694532536653524239736d6a4b68506f6c6256456241694d37426b706d36303270556f302f4b64484e4b564f7a4c785a715a3234755738646a78382f547a4f626a72453030537330554e5a4b4c4d7a46724979386e314d4f7034387037664b7a344d386236624543685a3450354a653745377a50432f7742306375334c374c514b766369516565432b526554436633516d4758325a424279534d4a36794e7449777332716d37374f47665663654d39757548426e6c66532f5536704b346f3075584935506f6c6b7957375a69796c335a38766c3562795a57322b48312b44676d4567354d566975774f54307057436d726f6978415a4d664a764e72366a6b2f6330554762336259317a50563076386a78645a2f465734524d676961507452384769695141625a417741414141414141416f414143454141424941416a514141414141414141454177454d6f414141454d41434151774151444541414141414141414d517741414169674141414141414244416f5141415167474949677a6a2f57736232654c2b325137426e4965744b2f67362f316d3537694e48364661392f5778505255656465686c6566635a6670453946544e58324a496c5a45444b7737416a6149536d6771624b707a346d466c3169563132613665664a6b667a52764843316a504f534e6a6b7a2f4269537a583032592f4b6b725a69366a4b6b72556a3034634c356e5031646e706b5a63744a3349315758552b30756d592b58504a707073774a4a73396d484849384e35376b67334c4b2b33627373576e79534c744e6a37756a63504847764230746375376254523033307531325957736a4b454663546f334750775965727878654a746f6c75322b4c6b376134724a48736734497a736b4971544b504c6161504c6e692b7268792f7050446974716b62434f4f7667576e55592b5050334d354c6f3433463465626c75304934326b59477178704a6d7962534d4c5653584474476246344d723361617646424b5858673357424b46584b6b616a484e78707065446178616e42546a345373382b636662347257796850744b4d6a617763636b445159326e464e65546236536654566e4454316f796647644e45314a664b4a5a306c326a456c4e2b563279615756505561614f58484b6b61567232704b434e356a7a577537544e56723072357065455a7a776d63657a702b6274796b32794d4d37526c4b527a3248503961564e47356734394f7a35764e7858463972444f5a786d324f796c4e53734b6677655830327473614b6e61614a2b4b646b467942737262625852466372386c466c67756943744f79794b494a4a6c6e4b696d4e3279394a56595979545462524a45566445726f726b6b684e30694e73684b514e4a2b3456546c646b46494a50726f73585251547677624c44483656614d5454526c4a713062473146487436624864654c71755455306a4e4a716d51564978736d6f54625173633230665834386450676331746c5879666b772b6635692f4a344d47654f355737523638487a633534724c565353744971314652673253684a52695965717a7269346e71776a35764e474c4633497667594379782b444d7853564736386d654e6a4a55697a6c394e475058366b7a6c5763617179526b307a4253374d3263717377704f354854474f6d486e617943746d347770565a7038627553534e766a546f36463970754b624b736d4f6b6d58696d2b76426b3031387053692b31526b59395171706d486e6d334b6e344b6c496c547a504d62726d4e7a3552346d72684f585373793454614d58474f6d504e5a566e6136746c304e524c4771747378302b325336614f6557474e657269366e4c464c63645776346271626c334b464a484e2b6d73474b4f71326e5047647a6e5049706f33577178786c704e5839316962527a5870664a2f785052776455704f5a342b544854374854387678634c58734371325749725657362b35616b63486f53524969424653497359694e49534f55316e39746b2f6336755279757558394e502f4146487a2b752f5a483075672f665775596954364b7a355666616e6f6d7578324b7770585a6c556758514557776153624c497a555555704254476a544c5754744752484f6b613964496677616337785931744671752b6931616a727961654d697a6c2b6f37732f706c584739506a396d302f4576376c547a75374d465a4b4976497a4e797a2f4b6b366648374d70356b3256764c794d5a7949324a2f6c326e4649736c4a6c544864674e4e7945574968515237416d43465a4a4b7a534c497333323274334e4d3043744d336d317475655250345350543033386b654c725034736d38695449496d66616a344e4e4442444e4d6b4d414b67414143674141414141434541784153414149304141416f4141414141416741414141414141414141454d4368414d41674151414d42414177454d6967414141414141414141414145414141465143474949677a6a765774667764582f6a4f786b635a3631563752442f414d68756652476c39444f547a362f396f6e6f71504f5051742b2f722f77426f6e6f746d7237534c4c4535466370704977703530315669533164794d724a6c55565a727332706b3034774b6e6b70753330597a79596f7a665a32773462586b3575717877386250484875584a6a35526a665a67797975553354365a4b644a66532b2f6b39453439506e5a6462616e6e6c534d484e336a38325a436c614d545079585a31786548504b353231694d716f5573694573735476475a6a6c72307a744e463361616f326a3753534e587035776a3233566d316930305a72574b7477535269355971635a4a737a6262544e62717071454a4d525a2b364f593146572f334d4d796338314b557575374d4a3259354d5831654b66706a5a615a7078752b374e6d326f784e4c706b7a625266305531386e6d7279632b5036304a54526736764c654a4c34544d6e4b766e344e586e6c566f7859363847503670574d7372692f304e727035766a31344e4a4e73326d6a6d6c4252624f504a48326547746a6a393271342b446362656e63726b612b50776b62445476684e57655778366259325753436c422f6331456d6f53635a6f3356334673304f716c475570522b784356506d6b5535586a6e46786252714e547158564b61586476395442786170537963624f6b783848647137327963734f4d3752667074544b553142737a4d75434f54544b64564a64332f6a4e464b345a62547273346333484d6f2b6e307655337848565935326a4b544e48687a5730307a61516e79506b386d477258324d6233526c4e55425843322b7932714f4f6d67684f30782f7146414d6d4a6b6c3543564b69326d5268355a623139793663387149684a41686a54434a564c79577a644658427675794c4666795752697871464f714d6a67306b644f50447572484a6e4d6355734e6f7131326632736432576375426f6436314844424f4e395352395867343961664835382b36744e486338767630354c6a7937587964466f395a484a586d6e3450504f565362622b546f3972797a2f6f3070644e6e3073492b647a2b4d4c585979646f783532574c7442487a4937347838624c4e425275506b3075746c786b3766527535576c527a6d7158394c6b2b565a36384a346557367555564b61756a4e303762645761314c744a4932656d586662374754484e4a4d613243364a4d676b79566e4a345978386a5647746c4e74733257656c6a5a715a655474673950424a717376424a386b6271452f6730474a744e4e6544635970576c52744f5361795a696d6d4b6331785a6a3230794f6154615666596e61784b774d325246455a31386c4f65623546484e6978364d654c654c5a51794f7a59776c61544e48444a34527338556e5278796365544873724d356a356c4e684c775963356c5271386c6154556662323332632f365868676872644e4e7a764a4f347150324d33583669744a6d78397453564770394f546b74343045506a6e54504e7a503048394f752b504a374e45765254337966376c7950472b676c51364141714945694a4b71444f58316e39766b2f633665527a4f7561392b6633506e39622b79507064442f49317369706c7a4b585a386d76747741776f52476749593055466a516d4e4a4642595778554144544749434143374767494369492f6b56414f77516449616f6f4c43494e4167695644546f5337592f32515263626e6132334c4976736b61574c4e7a746c38356e6f36662b5750463166385754666f5a46456b66636a344f526f6d52524930774141436f41414141414141414141424141456741434e414141414141414141414141414141414151444142414d436f51444142414d4145414141414141414141414d51794c4149594149414171414141424141677968493544316d72326639706e58794f4f3961663947662b733350634768394354725072315236424b616a32326565656833434f5857584e584b434f7231476f74754d58344f6e627573355a544762724b79366850704d77355a6f6f78716c4c784c73717a584745704f5356487177347039587a2b586e797431696570314d5642552b374e586c31436b764a683563726d35557a465638715a365a6a492b66793433507a5735785a453130793979625268615748566d664478496d547857575a61697458397a48314535634835644637556c646d4e6d684c6a35365a4d665a6864567247334a32784b4e716978786464695548646e655058756139733352334b583166444e35386447713063486430625a4b6b4b3571376455617a5864515a74334656354e56726c394c374a43654c4b35584b72624d557a636d4e32796834686c4e7839546a796d766137544a747047336a47756a4330654670706d36554974486d736548714f53642f6872736b45314a6d6b314d58326455384b53534e4e724d4d5533526a5466546375736e50757a493074636c622b525367323644444770553263736f2b78686d366a436d347430577166476346525270352f3053374d6859756663664a357373586f78753432334a71445833527a57347a3975716254733333636366622b446b393431574b636e474e326e5466772f7742555a6d4a334e46714d30707a6b6d2b724b38636e43566f7264747578786c5230697574306554486c77795754492f77417652695a394b314b30303055625a4a4e3161544e2f50542f6949566a565353374f6563656a7038395a547931474231306d62664133534e5a4c547a6737536f7a745066424d2b5a3150472b39302f4e4c4e62626146335a6254624b734c5458544d754a346450543371754c4678614d705156456f77526e5366455933466b306d5a484645654c476b3731645532537066492f62646a34744659755270644451365963517a74466f6c78364c49775a6b52676b6a706878355a5830355a38324f50315938596432584f50525a564b794570704876347548583065486b352b373673584c39464e6e4837316e664f6e3434472b3358577778776b725863547a6e506e795a5a506e4e73392b47476f38656557314c6b627a617452556b6d6b632b5a756a6e776d656a6a38764a7a65634d6e70654a2f52462f444c345274746d6b30656f35665170326b6a64346d6b715236635878633063694f667a772b7558376e54796a634763376e766e4b7a303450486c755a52687868543847646869725472737834305a6b4f3647546e7935577375756864447136544856486e7674786b596d5a58426d716e463352757030372b7868354952624f2b44727835397459754b30714e7a706c394354564d316359766b62724658474c4e37617975366271364d444d354a6d31726c35526a356361646f73724663336e766c6447505a6e35315864474d6c4556374f504b646b4f4362535a746353616976324d444642386c396a625156664a777965626e752f4153646a6b6e524a4c734a4935397a684a346150636637484a3354534e6273435333766258666e497a6361354e34737a70666c4e4e737a53336e62612f7a447a633166663841365a2f465874722f4144792f63735255322b544c457a7976704c426951794b516d5349736c565849357258704c504e2f4c4f6d6b63787558575a733850572f78766f39442f49316a6449725a4f52412b545833494f78554444736a51474a734c4162593475325242585a424b78674b324e677361496f6b6c51415235445972494161594b6741476741503341665949614369736b5356694c45724163476272624a66306b312b68706f716e5a7564755339325833704866702f774358463475722f6a79622b4a496a456d66646a344f514a6b45534e4d47414156414141464141414141414549414143514142477741414541414141414141674159414141414341436f4141414142674167414141414141414141414141414141426749416f41414341414545416869434b326364367a6935624e4b76695a324c4f4d396139624e312f6d6e5344692f546d6f2f44357452434e584b4b4f777874797476376e44374a2f7a4d6d6f526630664a32474c4a5a37634d50713848506e64365a7a66466d723343613450707332455a5845727936654f564f6a7648693375755665534b53696e66366b34567a5679525471385073355a4a65444778356e43614e37623765364f6d773143484837757a4d692f6f644742676b7034302f6b796c3063362b566c755a336154374b4d6a614c62737179737550746a62446b757755624a4f524f4d6b6569656e533236625453316a683847616b6e386d4470345762446853364f6558743034393245307643527264616b345530624f715272745a34474c5766694f61795156736f39754c75305a32534b74737253534e5a4f75484a5a47547059556c534d78525a6a3465714d33756a7a35504a7957334b31436174476f316358646d336c344e54722b616a666847572b6e74764b306d5474394c795678366b6e525a497258356b5a754c376d46626e416c4b4361737a386472367558325268614f4c344e4d79636d5446695862647466423538734c76784871787a786b396f3676564c446a6b314b7a6a74546c6554493547667163307374706d726d6e59374d703946777536724a38473164645856696f7657544973667438766f75364a70307458366153684a50354e2f707462776c472f4c4f63675a634a7672736c783235546b3761367163466d6935664c386d46434c77796c476d677736796b6e497970714f61436c4538764a77584c6236505439584d62504b2f41306d6a5a77376f314f6e6a4a30627644434e4b764238766c344d73626452396248714d4d35755664434a4e524a70496d6b636448785644674848737948455846476531653952344175346f4b525a69643670496b6f6a702f424a5646646e626a34726c5934386e4e4d4a62744a4a52495a63384952636e4a474271745278684b6d614c5535334b4b74322f672b7277394e3638506a6454316b6e31627837706755667a71726f306d7033754c684e636176354f667a4e3952767064706659784a776337566e712b447035734f71335052367257354d726262364e5733624d6e4a69346d50785a626937545075524c384b664a4666426d587034646e54697774726e795a53593130323359704a63725650344f70787236452f6b3566626f7066485a31454a4c69657a73736648356338664a547a754d58527a756f79334d3232666a474c4f657939507964735a71504c682b724c79766a5039544f3038314b53545a7034737a7344664b4a4d6b35634a717478346b457642434d69615a3572504c792b464d766c474d792f4c4b6a45636b33354f754b3479726f55704b7a615269757138476e556c614e74686c61564d3030796b45306b72516f76794e7854524734307571777545657a54782b6e717a7064513147715a792b5230332b3530397831345a37786244464c744a477a78654b5a6f6357524a712f4a7538586349752f6734636a6e7959575666304a39664158534532634e4f56596d72673370737a55664547637a736c4c6339746464724964586e6c4a36625556385970556a6a746e622f694f67372f414f386a687950742f77424d2f697a65357638414d79324a553776737452356e3030786b526b55784d424556577a6d747754576154766f3661527a47354a7255503755654c725034333065682f6b61786b506b6d797076732b5058334947757746624747674b69514a5742456e48774a70555633524b4c62433749734f54524249646b56324462514532724955467362416a344a4956414132794a49475543485967444b614a637149646f6b6d797056696274473432372b315a72636334526a4c6c6a5466772f73624862582f5373376348386d4c7839543534383351784a45555452393348302b44534a694a476d434159465141414251414141414142434142674d41416a51414141414141414141414141414141414141416f4141414541784241414141414141414141414141414141414d4141696751415641414145495178424547635836302f364a4c2f796f374f52782f72547659352f2b56473537486d3233356661792f7078374f723065525363716c35535a783269584b54644c7764426f386b4d553147626479665239504439727863325036725856596b6c48795764666569724633456d754c386d70487938375a6b31473459486b354e484c54754c706f376a5047316677637475474a633476376d74654854687a336c7173725235323477544e6d70576148535a4848716a6652716b305a6550717365334f31596d6a4731475369367a413155306d767562786a6a785475796b55504a333254686b64394746647374684a576a745054325a63633136645070486166364778527164444e4b4a732b545a7a7a6e6c6a6a3851535a727453306f757a4e6e644d3175726139702f7659786a476474384e546b61374b464b6e32516c6b767634496d374e7832787731504c616164526c335a6d4f58534e62706c5273456d3673382b5565586c3857364a3352724e624b31542f633272754a726462464e4e746d644c7758584a48507970746d56707446504d34796a397a47616770307a6f394471734f4e4b71614c592b3162716532517445345237386e506175584a717258777a655a397739363470474c6a307676354a535a634d584738306c614832484e576a467a594f46486172517778787057616e57615266564b71535275347972783956666964746377346847505a6d4f432b554a526a5a35737348762b4a34567778535a6278614e6a70385554496e70656162526e7465544c715a4d745672636552515354756a64364c575168556650493073734d3458792b4756716646394e693437646365532b38627432324757506a394a74385545346e4b61444e4638453564746f366e464e583065626d344a5a36657268366d343265575373624a3853635a4a6f62506c63764263583175506e6d6631516152476979694c504a6358655a49315a43693067326b7532644d4d4e30764a71495461534e646e314b3479696e544d6a4e6c696f4e32614c555a595a453472496f732b6a77385072772b627a383874317469354e56626c795a6735733058446c795854384657647839792f684653555a6545665577783148782b61793271754c6d2b7a4d576b546846704f7a497761644f756a61786831545a7654783539544a6c714f5631476e6c47334a47497342316d7078526e4649785a616550464b4b4c4f5062746a31636b397563396b79384f462f42733370593364475670644a61384f6a7668684d55354f726c78505370774e39696c616f7746706e476d6d5a45506f4f6a3575584a626c73745772683063334e506e2b68304f615434757a537967323339692f523234737075735a4a706d773039326a46554735476670345559797138325537576456396a2b424b4c72794e6f35506e2f56695a3234785a72655452734e5433466d745a7646376543547458526c5a754e4c4c7049305561534e746f704d30636d4c6477727469544b5664644d613565453649784b7864542b57544f5831536f366a564a70564935725652742b4463394f334266384173592b4f564d334f6b793956386d6970706f32756c614f4f587432366954743232366d782b537446694f646a3564766c586c612f44616c664c78756a6a7470363350514a2b566d52312b654634707234344d34336275747a30582f6e523565583676752f30332b4c4f5064766b746956664a596a79767172514568685449736b524d72454a484d376b6e3737646448544d3576644a4e5a556b654c72503433304f682f6b616d53364b6e384630753056556b664872376b4c353844454639427331354477527469414a4e327579456f75536f6d534a6f526f6b496152424b3641694d4137414f784d4358775237483968674a64446274694379784441646b664a5557456b525249756b71615a7464753679326170576250623739314858682f6b786558716634736e53784a6f72524e4833636655666e366c5a49517a544141414b414141414141414141414541774347414152734141424141414641414151414141414141414141416747496f41414167414141414141414141414141414141414749414141414141517842414a6a45796f725a782f72587659702f2b574a31386a6b66574e505938763841354561673873306e57524739692b4d724e486f2b3871622b316d3474796b665534764f4c77383964506f4d796e46332b795a6e58527a65697a2b3230724e3337716e326a7232766c636c386962712b2b6a5336794d5a54566f334d6c614e58714635544e64724f4758626e4b314d5734355853364e3968347543717a53536730376f33576a61654c744d355a545661366e57553276614e5271667a7333622f51774e53755a764635654b7a444a71456d546a476e614d68774a77676d64593956354a70744e484a4f43754e4d3279364d48426a53696a4f5565757a476438754f4b75636b32617a574f344e4732574f4c526761764239467234474e587a37637a787236524f376f797051515167724e31322b4a3432794e4b7572614e7247766b78734d456b6a4a555649382b6278355875794e7756477331654f34794e7261756a477a314b4c5469714d527161787373636a4f50624c4e4e6d6a7038305a754e705074462b706a39626158526a4b44624e507134357934793176736d44533533444e7035307065596d3230754f4d6364667363376f5a7646506730754d6a714d64654365584450572f416d6c66673165746770593352745a553132553538536c6a66476a63634c2b37626873385071736f696a59367247314e333473774f6b537839486a7933684777307a706f3238654e52614e44686c54544e35696b704a4f6a476e68366d575a625535734d5a7474784e486e7865334f6d6a71315644796166533564506c6a4f4b5571754d766d7a466136666e316457756230755a5935783673367653616e4771636e386f34374e42347030693746724f3438785a7550666a356d3439426a71494e2f535a6363304a72706e4634397a68434b7572534d374275574e52584a6e6d356548756c3850527863397773644f32466d757736754756726a4e4d792f6458585a38725067796d58703962446d6d574f3035756b617a555a6f303159745871347856526473303038726c355a3944704f6a75586d7838377275756e484f3265314771314d6b6e4666426f7035334b31386d62724d696463506a797a57326d3750702f426b6e695042686c6c6e4f374a4b4d5a5370576258426766302f6378645043326d627a446971435a6e743038765538746b31467548456b5a6b59345a34706656553134526a4c6f557138695238337638717331576a4735686e7939716a45393373363478364d4d4c5a76544e6a32624854786464476d686b2b70485159667952615230597a7775316958334953695a5045552b45565959754c565a3763576d5948314a4e66376d666c61382f42674f586b7461343936705274575a32474b343235474643327a4e677152797a4f57722b5832486651523844624f547a73584c6a35706d7463476d626558686d4a4b4b624e78333473374a7069384f306258535971586b7849784d33424b6d6a6f316c6e747346424c736b6c5567625847365a4a31303051597565484e4e484f366944354e4a4855796261644930756f6839544e53726a6c32355374424b447379394f3664453534777872366a4755656e4c5075776253486a737569555136534d6d4a787235312f634d6b4850484f3353344f3263506f49782f69576b6a462b4d36374f376b31776b6e38706f344c545848634d466456714565546b66642f70312f546e487574392f7744704630536e2f442f7052616a7a50714c4553496f6b5259434a4954493146556a6e74796157564a2f5936466d67334f7664696d764b5048316e38543339462f4c476d6b315a416e4e4654506a5075774e4d6979566962445a49474d69774554516b53415130784e417146445941325262706b457241586b666b496441464d5143646776314161416b43454d31454e574e65524a6b764a53706f3265676239354a6d7272776250517966767756644d366358386d4c7939542f466b365173697973736966647839522b6471597849614e4d6d41415541414141414141414141414149496b4141526f4141414141414141414141494147414141414141416867416741436f41414141414141414141414141414141426741425341414341517743454a6a49737352577a6b76574e6677544c2f414b3064637a6b2f5636765a4d7a2b30306169504b644c62794c396a634f5879616e534a764f36386d644f4d6b665334663276467a667558776e547333756b7a576b6d7a6d464b6a4e302b5652505738504c782b4e756f65524a726f7864516b356442676d35786a4a6c6d52575234387272777758696c58526d344c34705342526b797852726f786b355a35564b3059302b3232577430592b616135434d5464716c6f6e6a6a335a587a534a786d64493658753033754f6c534d6d31785a693457717375665a797939756d4e384c4c53544e64714d79536d6d6a4d58536158796133567452692f334c6a45755630316a7074304b4b706b4a5a5638466179646e53724d63744e74422f54464a6d564272376d76777a3547636d6a6a6d382f6d5a4c57305975576155583057796b714d504e4a30325978693237736a5735654d726f715549684b56795a4470534f307865374757545732787772425562665a7438454679624e46675463315a30454931464e4579785a587a6971364d655361693057786c5453597379705769526e4b65584a36794d70536b713847715a75395679354d3162683262375872344d74596f3437744737775275754c4e546a78314a576272534a4935355936637571796d6d56474e4d7366355270664a4a71306371384f446e74616b3352703534354a386a7064626a754c616a2f414f7a537954716d626b322b70302f4a65324d486c4a4d736a7170512b58515468313055384f2f413758736e62664c61616657754530376f364842713150676e49354846427677714f69304f46535674794d58686c31644d5a383934357166566e354d55323366692b6a4779342b4b625a746e47365a6861723658545461615052684e535238376c336c6c747a47706235474b6f6d647159747938555677782b4470587277796b34347a644a6a376a332f77436a65306b716f314f6a6a5752536f3231392b44686b2b643147666d6f7371794f6f75792b36737838386f385753504c6835796a54355a4d6f54374c707132794b684c7a523178665678314d5632435066622b54704d4e7143624e4a70345730623745725352586c354d7435565a4849314f33346f71797a754c4c7152544e5270324935325670382b54716a4265536d766b75314c2b6f7847753061642b4c4354474d6d45376b6b6a61342b306a5351366d6a645976796f355a7550557a576d5258774e6b596b335648432b336c5554586b7732305a655670524e584f644e6e54474f33446a62746b786d6d6244544f50686d676a6b626b624854354b6f36756d664863664c6f4831486f4f3546474f567046362b786c49726b35785469766b31476f6173334f56714a7a2b6f79783579702b53346d74324d6159344c74455731546c593855725a4d6f37575874624c47693143684b4e4a4436386e4376466c34712b45572f445277586a63492f663853762f77434a33634f4c70484353532f6944676c2f3334396f38764c50623758394e2f766535522f4c6a2f77424b4c346d4e6a583059752f37694d6c6544797672703253496f6b5259434c4742476c624f6533524a356f66737a6f6d6144644b62696550712f50485875365038416c6a535452557932624b576647666578676f54594941326a62426b6b757142304247325469325136624771694e697767533869624349396737593558384d4551496b683049435669744d693161497869347172416d4d454f67414c465146456b696355514c45566d703062485250384170385a726f6d773062724e6a58335a30342f3334764e7a2f414d65547034766f6d6b5169574a6e33736655666e716b4169534e734141414141414141414141414141454d41686741456141414141414141414959414141414141414168694b4141414941414141414141414141414141414267416747414341596741414141454d51514359784d714b35484a65726e7832544e2b737a724a484a2b72316578352f77424a476f6a7a48524a764935477779512b6c75374e586f70714f586b33536f33754e5862506f384e3850447a33747256466d507a644762505470583059366a546f3955727a2f41424a6c4c707574466c744a66486b326b31465275374f667735464533574c4a4353555835534a74382f6b782f583638494b5470743942636b4c4c4e4a6b4979736a6a6e4e4c342f566473317565583147663841466d707a743832697865444865534b6e335a5a444a6b65534c624d5a46324e327a633950586c6a4e587736585432306a503439474470483948526d4b62586b786c37634d5a34567431354e507235506c2b694e726c626d756b6162584e4b72647331696e39306a56536c52424f6879484750493139487138534e72704b614d394b4a676157306a5951696b7552353833677a313356435836474a6d385072344d3164335a546d68394c5978724d2f644b304d6f314a6955666c6d533862746837565038415137783770795458745a7065354b764a30574a726a326154543431795276343858486f7a6d356432387270596c467130685a56475556456e46665345714f54626e4e646a714c664531504331306a7064593438577175326174526a6653523178547637477568696c2f77437a6261614d6c566f684447724d3748457a6d3563764c336169616954704453364a507338393970697764544731344e466c78646e557a6a476c614e58714d554f5630627872726879646c3974444c464a2b45567243626d63497456526a5046544f723159382f684853344f556b6d71544e2f7073537734714d504446635658544d756556714847714a744f363573794454737839526a354a6c576b3150754e4c726b5a45357275793475664a4f32655768793448666365694563545877624b617432517058344f6c726a38613631426768586447783470726f72676f306b6a4c78704b447338326463504f64724755436e504436575a544b35303475784b5354466f586a614a51684b555a4b31614d6c775632535556646f39474c306646384c644c6a63563953375a756343714b4d4c42437a594b4c545665435a574f574f57376148486b374b4d7158476a4b53495a594c79535a4e3330356a5578374d4b55653062725534317973776e69544f6a664879535454487870386c3062694868474443447670477978342f70585a797a726a7a3562307469767049664a50774f76705a78656654417a756b7a5554647333575746785a714a51615a3177657a70724e56575a326d6c6252694b444d7a5377646e5a3135624c6a5739784c3655546c4e3056347255532f4c433471764a6e3676504a754d504e4a7144372b446e386a544e2f7146394e484f5a3339525936385750366c546e34566d5237735a4f4e4c6a534d536b5859306d2f426e4a3663704e4e3368647769572f6f592b4436596f765277723565663771747853555832756b6a687554653439644b57644863636b72706642772f6e5758582f6652357553653332503662663376623853724869582f414e455a4b4d6645377834662f476a4952346e3246694a45554e42595968695a6c70426d683353506358396a664d30653665636276345a3565712f6a7232644a2f4c6930442b536c664a6331325630725069562b68785270326864662b79642f424877526f417867304247684d6e51557641435136746a5561517768554964695941524832464642326867486b416f6b4a4a674179546f694f77692f4847506d58674534575538333446487967797a5573666631646d56704b576247612b4555325a326d63666578752f6b3663663738586e3576325a4f6f525969754a5966657739522b65793970496145686f364d4741414141414241414141414141416869416b4141526f4141674749414b67474142514143415943414141414341414141414141414141414141414141414141414141414141414141415151414141416d4d544b6975527966713531736566384164485673355031656d396a7a313854527149386f7770386b64446f31626b72362b446e4d4471534f683232616c4b72742f48364872343874504431574f3861322b58437051545a7173754e4a3947336c396d59576150586739637668386a444b343536613153615a6d59645478666e344e626b627430516a6c706c6a325869373433717971627379734d472f6730324c4a61717a63616166684d7278386e487136724b6e436f7330756f69307a6675504a477531474a4a6c787248487243745837626f7578516b704c6f765545313057345974533848523079354e7978754e4c4353676e586b7a4775696d456d6f4a4a4638584c3558527a745349536861365a704e5a676c47584a7333306e3130617256766d6d58477335616e6c704f445a64444757526953727333744d7336794d55614d314a4748464e78526d59306c46646e6e354843656369636579475674786f7473716c34624d342b32394d43535241637649725052434c3850356b6a633471346d6e7753566d32774f346b794d50334d68454a64456f794b3553374f556569324d48564a4f46306176777a5a36724a44684b374e5138694f30394f57726175586b7938556d756a586534756a4e7875346f7a6b35386b7331575a64496b6d6d7249644f4131345050595931435437386d4a6c7057587a66624d44506c535230785448656553457163764a544e726e52544c4c5a434d30704936505a6a78317663654f306e56474a4f6255354b66534e6a7070526e4664396d4a75474f7071535633534d2f563665507478387457704a54586d7668666333456d326f6d4e69777562784f536134757a4b797953364e347558565a5378557870644a6c4c6d6e386b6f5a4f534e56344c6a644d7948526b526c3152526a706f75565250506e476362704a525a6a354c37566446726c627447506d797457686a472f4659633245436d57534e39736c43615a336a66626531764e5078344c76737a592f593165435355556257464e49786b6365696e547043797953696f744535644657624c4651716a4d39756d6431747173786971724c737331397a4735493676504a7661354a575a574f36614d4f4d305a55576a6e6b786c755659795566444571435470484a47504e4e575957534e737a35654f7a446d307a746933783237554a497a39506a3850372b4445364e6c703163556d2f444f6a706c6b7a5952644b692f69364952744c6f6b73744b714d31724267366e47334839546e4e52447677645a6c7078624f66314559786c2b35714e3435617a617478526468684c6b70563054344b792f4575305a7a72706e7966707250785253696d585571494c38714a4b7a6861384638303146394843355857756c396e6d52337358397a67733672573572367249714f484a3666592f70767650384130397877753857482f774163544b69594f6b6b7061585453727a6a526e49384c374b59304a44436d49424756525a6f743154667474664276576150644c61787634733876552f783137656b2f6c786141675753366249732b492f51596f4d694e695162496b52736c5a41794b48354435465151545361594c704d5945434752746f4c45425964675352516b4b714a4d6a35514454475251366f435341414b796b6b4f75784a7359524e666f5a2b6c53355276376d4246555a7542586b78752f6b366358373858446e2f5a6b36714867744b6f306961625a393744314835334c33553053516b4d364d474141454168694142694142694159414141417741434e4151774b454141454d4244496f41424141444171454141414141414d51414141414141414141414141414141414141414141454942694141474941454d69796f6849355431644a783250556e567938484a2b722f2b68357a55523556705934386d614d636b754d61386d33306e48466d58462b44525972744d32756b62684c6c7a562f5a6e707765626e6d2b504a3061746c475a4d6e686e7967767578353475433548716c385068612f57352f4f7071556b31535268536b305a4f6f623574747377706c376e324f4766706a596161566e5236504a69397433354f52777963666b3666534f4c6a48374475655071384e6559324c384e706d4a6b6b326d5a45704b6e544d4a354c794b4a724638365332724d66534c7355727952526a5479526936354a2f7357594d6c35456a7176626437736237484a3856534c4f55766b7278744537566d504c61627669362b55616256556a63645632614c5879536c302b6a574d4d35765445355553356f775a54644e4559546c397a646a6677747a6265596e61386d5647536961765479744763725a787a6a795a666f7973584e322b697562714d752b3643362b536a4e344d34342b535a655775795437386c4c7a30304c4d33624b4737375052493932474531477877354f556b724e33676d306c5a7a654630306448706d7550614663633850312b47524e3971676b37444a5369325255756a455454563633776a53756375544e3172756b6153586b32363855396b35766b625454536269616c6554593657307a4f63586e786e59324e746f736a4a5654596c466351704847783839436271364e506e6b37646d356d6e52704e572f716f3148703661627a59627033534648755336447449756a4a644a49337039472b49364c54666c58586447565048475566425270667168466d665852484331516f7145656b6172574e396d347958527074564b725276426a4f3730317a6669797947546858796d55536659314b714c57726a754e31703363577a4966534d504136526c576372487a382f46702f42676169644a6d6266564742717646456938586e4f4e59386e627373787a642f6f557373677a7450543657556e62366276537966682b446278644b7a54364a33646f32754e3955544b504650475657504c4b55616f784d7a64575a56474871656f4d7a6a4450646c61544e6c2b746c487564447a7535576a4666334e3136634d4a32786e34386e614e7048776150464e576a63596e306a6e586d366a48576c316b6e4b3052496e505479776d3430374e665049724d6a504b6f73315570646e5447505877636535617a6f79544e6c7065374e4443564d322b6b794e477a6c77375733567169796b325931757978536b6b5378695a486b526f7452474b6b7a617a6e787673314771794c34587769794c6865374b4d597677396d4538694d72424d786e48665047396c624f4b4c4c4b6f793648794f4665506332746931614f423343583965314c5370637a746e6b53556d634c7147355a38742f4d7a68792b6e3250365a377a65333766336f4e472f6e326b62434a726474763841413652502f4b52736b654a396c61416b5373696b7845694a46526b6150646d31484531392b7a64733075376451682b72504c31583856657a7050356357676667725a4f7152412b472f51346f4d564e396a5942737173476d695170664151766b452f714a556b4845414666324a64496769415943386a535945674244415a436b695a4273424e6f666d6c59556d464d43564f7966564541544b696430542b43434a704653684762702f7743306a2b6a526970475867366c48397a707866766a7a383337636e564b714a496a4664453066657739522b647a39314e4579435249364f5a6741414168674168674141416741594341435141424767414141674741414141414141414143416f59674149414141414141414141414141414141414141414141474941414143415178414d42414145575345796f725a7958712f725939522b364f736b6370367464624a717633696169504a4d467561534e6a434c54754a7263464a2f38416f7a656236702f4a367348486b3956306d6d356362623744552f6b375a546f35707057377379645372786e6550683554584b356e50664a6d4b327a4e7a52616b2f7359726972443633485a32776f32627a62386b6c4772386d6a546f32656862633132484c715a766a72655a5a31426d70793557624f53754c6b7a555a716a6b7078365a3177665036664757306f544d37424f32752f444e59757047626766314937752f4e6a4e563175475334706b3164334664474c68567858624d70526136556d5a6548796d35394d3057344e4a6d337964524e4e716f6664395561786a572f7742574c54796b7852595358622b775156394674657a783274727072367277625750503552714e496d76443652746f4e2f4e73343556387a6d2f6b44386c475838724d706f783869644d6d4c6e5a724b56706374706c426d354d54627370654a6e61506f345a343668596e39534f6a303871672b757a535963506174472f30384b517963633870632f444969725243635a4a4c6a45766f63756b6a6e74644e4a72594e4a756e5a6f354b64306454714d584f45724e49384c4f6b7534754f5578612f697a5936525853464445724d33466971714d354d63764c4c6a706b56537177534a38656b4f71615a777465585375564a646d6b314d4c794e58614e374f72624e58714d66626c52636137384e3761314d73637270646a7859334a396f793477634f302b795748724a466671645873764a34756d39306b586a684a5075325a36375252434853526b31526e626b7163545236754c6e4e306444616f3165706a396a65444757576e507967374252616b5a736f64736c6a784a75327a64394c385877757770714b4d69756979436a533647306a7a334c54795a5332326f4a4b724d4456706463545a7638414a5647466d686137457531772f546c4b303767373652504846325a5559744e30575278393939486646363875587779644a472b536f32654f4c5a69344c6731396a593956614a6b382b4e33646b315268616c4e716a4f73717a532b6e70475a5861363035584e443632593346706d7a7934337964464478642b546270687953525243307a633475504266637749346e30624c484656344f6465666e7a6d55544976774e6f544d504c47467147716f314d764c4e727155364e584e4b7a72692b6a302f375573666b32326c73314d62386d35305364535a73357074733470306962626f676d3268796478704565667459755a6d6979796c63724e316c6e30303061504e354e4f6e425031566875374d374131614d46394d793844643263383372355a2b68756f2b414642334644717a6858797672564f536168476270506f346e502f627a6c58584a4d3637565472484a484836695475532b374f484e3666622f706e71766364756b7061445279587a6952736f6d72326e2f706d682f38534e6f6a77507272455349496d4649414752554761626371347773334c4e4e75696938654e79644c6e306554715a2f3131362b6c2f6c7863396b6f704c354c737164487848364c4643694e4d6b3242476b506b6b2b7869667741304d51796830496b305246545970494141514a676e39775936586d77706c666d544c425541425672794e417942496441535143534c496b4b6f61444e576f79734c664b50376d48457a6350356f2f7562342f3352352b5839746458456d697548684670392f4431483537503355686b55534f726b4269474141414141414143474141494269416b4141526f414141414141414959414141414141674b67415941494267416741414141414141414141414141414142674145556747494141414b6841414241495a4573525849356231596b39693168314d6a6c765663754f78617731505938667872366f6d5a794d6246303166324d6c6f39574c6a6e4e78744e424b352b54635a597879596b302f33527a6d6c6e4b4d6e54617333635a4e5258324f754e664c352b505765394e526d6a48366d6d5956575a326f38795a6952386d336f342f32467736746f7a394576725832487776484231354d6a54592f726a384735693563334a76444b56734d6b6670723944523537354853307051703939476e7a345570326c525a37655470383547424666376f797348663153365a425936614d7a48424f5354585879647058626b7a6d6e52615a4f55494f75714d3245536e413178714c526b516e6261614d56356671684f436b6162575955722b7875326a447a7835525a7247735a6539787a4c783043675a5534314a71373742556172703853365a47474b69756a506971534d4c455a3846614f4762795a656336646c6269573853444d796d55595758793055556a4b7a49786a30593172464b4b4e3370315557615743625a754d464a444c307550376d575238745746695a796437574a7162374e5130626a554c3657327a554e717a7250546a666156467353726b714c4d556c614d317a75394d784e385230324a7438557961635776314f464658476c32596d6464475a507a307a437a2b483258474e5931695077794746316b6a2b34334a4268342b35453676525054714d50354557737178666c385557325964464d6c30365a675a6b2b7a5954544d4c5553614f75447a636a5864575356464c6d75544c497331574c4c706e342f425955343330584938755a444d545052664c6f77387a2b53346c3978524870706c726c7a6b55526b7675574b53733778637057317871346f79456d6b593244754a6c70757530536d4a4a69625366597945326c354a477431704d6e35356675564d756d31795a55364f6c534c4d6433526d776d34664268347a4c52797963732f6154596e425753386b5759595932614e716d61374a6a5366527338686879717a72486f34737249706a68585274744a6a6b6f50726f776f4b326258545364553130627670713537757257526a6a56325753676b6953722f30536b756a6e74707263304c692f70374f657a593264546b6b6c3061505069664936532b44444c7479616955444c7752624a2b325a474b435856474d6e586b35663073334643315259343147514b36534362616856484376464a4e31704e5a61684935624b32704e6e55613774654f7a6d4a722b6b6b634f58302b352f542f3250624e6d6437566f6e2f7744706d3252704e685662506f66394275346e686655576f6b5252494141424572534c4e56754b55734b76346b625a6d7133474e346c2f71505031453378355054303338754c6d3546625262506930565766437239466a36564d61524a6f45364d746f754e435a4f30784152476d464f33304e49464e735132675343496a4851476f4979436764445264424230537043614a5648675a47686d564d6b5256447369564c706a53454e426c596b5a47472b5566334d644d76783546467137386e544439306375543974645a447769307178666b52636a372f41422f746a3837796675706f6c59686e56784178414177454d4244414141414141454d51456844416a524441414141414141414141454d414142414d5141564141414141414141414d42414d4145414141414d414141414b4241414141414541674149434c4a435a5556794f553957713968316637784f715a7a4871704a374871316464784e54325048735855346d624b71364d544646383166324d71555a5266376e72786e68797973474b2b5275495a705278306e624e56696935506f7a6f785a5a486835724e73664c4a393259305a4b364c6452307a442b54706a58546a7833673332475334715036476267677273302b6e6e564734306a354e396e662b31382f714d624f35734576706b61374d715a6e3355576a417a394759386e463755646446324e4e7a526a636b57776c556b37364f73656a4b5856644e6856786a783664475246654c6b327a453030326b757a4b6b34706f6a69747273786456464b484579557a45316d52304a504b35616d4f326a6b6971546f6a504c584b7a4839356544645848444b7476684d794c4e547035733255625a79796d336c355a6363312f50796b512b7073676c39565754794a784d615a37725748715a4e54534d535752394271706656547377656264706e6242362b506a336a4b32554a3030626654354c665a7a454d6a54534e397058463854646e686e504334574e73305162587953744a465570784d615669366954344d30737038577a6261766b736270476b555a5a725556326a55617877382b556f35652b6a4a77354a536c4c6b6b6a584e53785370316637325a6d4239396b7670655843544774757074592b6b4e4a4d716a644671756a6a5938577964557a57366d644f6b62427130617655394a2f7561786465487a6e47464f59385466564d6f6b793342584e57645876754d6d4472644c6b2f6f6c3233305874386b2f314d54433177364d6d50526e54686c557064516f3032727976776a627966544e44714537624e34787a76754d567a4a52794f30555073492b65693131375a7075384d756b5a4c625267366678544d6a3235666530634d6f38643862676e4c6f3132716e4c69306a595436527264524a4a4d59746355336e4747707446324f55764c5a69585a666a665a326a3235347a5870304f6c6d6e464a476370572b4a717449756d7a5a77666c6d636e6d6b4e736f79797455587964646d46714c70744447466a54355a4e5353526a79796470574c4c4f6d596a376c5a3072306366484e5274735754366b6a59785a704d45725a75495036546a6b386e506a32354c4364522b5373697a6d3478566b6b71614d54354a5a70704d787663706e62475054783458544d68535a733844625356476d783546665a7438452b542b5042712b6d4d705a6b7a767930546635534f562b355471715877525475434f62653165574371364e466b766b374e354f3662636a51366d58466d6f597a655552364c3854374d4e5355766b79634c4a567a78316a577773556d754a43375149343250504c37616a574e784f57792f6e6c32644c72354b4c61624f626d716b336448446c6e6839372b6e7a574432623038373254512f365465784e463666662f42394658696d62314867665457456b52524942696f59457178426d72334e5032565437354731614e587555584c44476c2f654f504e50305636656e2f6b7863374a585a516f307a5965786b6b76796d4e6b785a497457766b2b466c686c752b4833384d3572573142436d3258754a4266597870303268537354585a6258594f493154617347793369464452745851346c6b6b4a49756a6144455470734b66324771753061516d717169644d47724e53555630425a34513673575532726355784973635255374d6d796f4b4a304f6a4e4e6f55534a4a44702b51694d56325a4d456e4a464b4c6f4b3652766a6c3348506b2f6258565958394566324c796e442b535037463948332b5038415a4835336b2f6454474a444f72694147414347414141414141414141674141474d41493041414141414142414146514141414141414141414141414141414141414141414141414141414141414141414141414141414143474949434c4a434b69706e4d2b716c657836733661527a6e716672593961616e74486b4742707a364e6b2f686d753061547952545a754a78535372746e74342f547838325862537770575a5573644b30786162487a376f797034367568587a75544b37615455784e612b6d62765577556b616563476d49393354355334737a547677627654644e476a303652754d4e716d65722b79504a315539746c355a7239544b6d7a4b556a57617854684a664d576a4d766c3565446a336b786e4e2f63747854354b6d594c627375785073375976666e684f31316d6a6d354a493253696e354e5074386e5472785a75624a5867797753627455617a567530325a314e733132745652614e597a797a323763376d6476396d56784a3545314a7169704a6d724874786e365777775363704a47356a2b5530656d6273336d4f3342556a6e587a75716e366b6b684d73346b5a4c706d586c6d397450712f7a386a58507a5a74645375364e57307a70672b7077583945436661624e396f726c4530754f504c706f364462344f4e2f593366527936746b624c69362b703243644c6f73636558516c476e52795a6b6a5636787667374e444b54686450796448713862616b724e426c782f444e53724c4f35692f4b6f7a644d323352564842386d547031546f6d56586c73374b3255625261726f55463054666734584b506e61714c54346d6e315437614e797531646d733163484f527647757644715a7a62546433544d6e5478755373537774795a6e6162437558334f723335357a576f336b492f52463057785a5a474c34712b78754362716a4f336d79557938476e3161644d337643756a57367a4663577a654e5a2b3161476d53782b537851707579375451687a2b75364c58573554565a57464a557a4b69327975474e5077584b4e48444b764664375654566d6e31616667336a527239546a536b4936384e316c4b314e4675507375396e763941686a664f6b71374f30657135797974746f62706f324e4f4e4c376c4f6d784c4775526c5076344d3556796e70544f32714d664d6e78625a736b767038474271595847726f59316250446c736937666d724b4762444e4f5467385453717a436a41365052686c2b6c647035564a47376858464771775971614e72464e4a484c4a3475707374384c434c726a4a3057714e49726c64556c624f627a342f5270395664712f6778464b7a4b316b6d7079583655594d5476672b70785439455a654e396f33576c3857614845337953666b33326b642f7361634f616559324d5744644247533843794e66426c78596d707958306a6e7337626c4c73334f6f635533544e486d64795a7254723038336c61726a4a6f79384f56326b59466c2b4e334a64474d3439584a6a4c4c3462324c54694b5571466936696d4c4b31545a77664e37664c54363570326a6e6369647a4e78713233493038373579615279356654372f52343975456578656d7071657836466f36474a7a48704a33734f6d2f53637a70346e7a712b6846694a43524a4541413641696b555a635379526f794b417a5a754e3435584737616a4a74376e2f414e326366324b337479343866636b7a644d673063627734333650544f71354a39576a5730772f7a474a6254425839624e355155592b57342f7741572f6e4f58386d692f68454c76334744326d4c2f376a4e3751714a3874782f592b63356679614a3755763878682f436c2f6d4d3374446f664b38663258357a6c2b37527932322f3778482b4671767a4d337969464435624437487a6e4a3932682f686c4b7559667778315849337755692f4b3466592b64355075352f2b4653702f306f6c74556b7637577a6f65496353664b34487a764c3933507261702f77434e4d5432724935587a4f6834687848797647664f3876336142375a4f2f7a6b58746d54347948513851346f6e796e47767a764c39335066777964567a482f43386a564b6448516352305435546a2b783839792f647a76384d796645304c2b475a766d614f6a346a346b2b54347a35376b2b376e4962626c6975354a6c73647579582b63333669506962783658434d33724f5378586a584745557931436f6b6a31597a55303857575736414144544267495955414141414141414143414141414a4141456141414141414141434741434159413051414255414141414141414141414141414141414141414141444142414d514141414141414141674149424d596d4556794f613955393748724470576331366e2f364c724463486b5742705a4974473135536654384748746d687a617a567777346b7554566e517a325463344f5844544b5845396547556b65546c34376c3652306a36612b4449615459594e72334f47627244786962504c7457723471556358597555664e354f446d333672515a3863456b6b33646d6a7a783435483361614f7579375472654e7877766c644772316d7a376e536e48535466336f6e664870344d4d353778616243365a75634e79526959746c336c704e61475a764e4c746535392b35706e437173367a6c6e62725a7a384f57587148434d576b3261335852617336474f3261726e786e6a66483732555a646e3172556c374e784a4f536263654c697a6c2f6258474a4e756a49787866534e73396a334b4c54576c6d584c597478546257423152336e4c6a39337179787576544a3236546a394e326b62644970303233616e467762776d30576c6e53744e4d6c3563586a79777974394d525264325957726a315a7656676b2f3770546e30453534335375525a7a59724f484b543034544a43584f562f4c4b5a34714f696e74653479707654664e4c73725730362b75394e4b374f6e787366764474354a3678725636654674646e5134493169534b4e4e744f7366637358476d6258446f4d3845314a484c506c782b377a3538584c6339396c307871364b334630624a61504e6455694c30576464306a6a4f57623973337075532f77426a525a386134546256756a576348473652314f666238386c394d656a587932725638756f4866486c782b375750467a592b4f7974566a67767a4e6d38306b58784d65653161744b2f615a7464506f387363556571597935703932707863752f3255343279636d6b6a49576c6d6b4a365849344f3673352f456e335834584a503761316565554f4d704769797132644d39426e6c42383447742f6832716c6c342b323661644d334f5448377564342b5863765a577055616f794d4b7031526c783233574f6b384c5473794d573236685356774a6c79592f644c786332586a7471454652596b5a36304f5336726f6c2b436e665336504e6c6e4e724f6c354e66746178786f77382f476e614e316c306561564b4d5444315733366c3431786737586c4854446b5339506e5037576a58566d587049385a4f562b537a2b476132555878777969302f6b7a644c7475715535636f2b4474385366645a7863743959316e52546154516e6137526d523032574d66416e705a74476669787538484c72397245636a58616d527576776b326c5a685a394a6d744b4f4e7958334e34386d4c6e6c77387634316f5a59787769624b656731584b2f6162564662304f7262693451364c65584837732f4235724e64744c435a5046463864426d696b3434793338506e615355666e73345a636b2b354f6d35507872416c7870396d4a6c71534e31505235484639646d486c322f504b46786a395263655766637654633039597452564469767158526d51322f574f4c63734c544a59644671564a387362564865637550335434504c2b4e5a6542744a4e726f7a565877694f44426d634a526c6a6f757861624e46506c326373755366643277346554374b4a54726f78387954673262463661626164474871394e714f4d564344617375504a6a39317644797a2b317965706453615252476b7a4f31476a31754c4a786c70736a66364b7a47656933424f556c705a64642b4c364f33784d66753368785a3631327372444b467130624e556b616a487074642f386566537439477a785974544b432f6f7058566f355a5a37656650687a6c76366472355356496f6c4a396c76346656663545687930756477723233624d544b5433584c34584a637632567a2b707563374d586a3271383262544e706451704b4b7853642b4f6a486a7038376e78654761622f51394f504a6a4a37657a44766d503761574f4435712b32627653782b6d6a567877366e6c477355764c58673365687735334b336a616957387550336373734d375a3470306b545555375a6b54302b626e31446f6b74506b6a48386a646b2b4a6a39334f635764763761302b716a465238646e4f7a54545a32756f30303551366963746e30326f724931676d755062364c4f584437752f46783534583976697461764a6c3459314a424453616a6a4b53777a2b6e7a305a3248535a70385a4c472b343354526e506b782b377279544b79366c5a4d46534b73722b6c6d626a30325a3075456b5279344d744f5042742f6f6a6a33342f64347365486b75572b3275587a7075625877616e4f33484934706555644a6d775a6e4a714f43626678302b7a51616d456c6d6b35786161567335386c6c6a375853376b3878366e36522f3644707639637a71496e4c2b6b5931734f6d377535794f7052382b766573524e455553494741415251495941526f426746524851774946516d6951686f526f59786752416c51554247676f6d464645516f6c516762494b4a4151326a5145674156436f6b413068554d59464345534541414141414141414d51774141454177454d41454d514b426947417741434e4141414141414141414141414141414141514441424141465141414141414144414143674141414142414d514145414141414141414347415167414169444f62395477765a6457644d7a58626a6f6f613753354e504e3070476f50477470334a37566e3939596e6b645564557658437476384141794d762b534d4878724a6c583869346b3757766b6a666447644b6f6574644e4f66656a6d443962365a4f76776b69312b6873667a7545684c30486753763841487a4734615653396336586b71306b3268533963345a4b6f614b5a642f497543372f487a422b67384878727044634e4b583634696f4a725253462f4f2f53356142325a555051756d586339664e6b6e36483072642f7741527a44757858544458726e4238364751667a31682b64424d7a50354730662f7a7370482b52744a332f4146374b4f364a71665a69763131692f2b424d463635683565676d5a43394336587739646c4a50304e704b714f737946376f616e3259306657324a79373054472f584f6c2f774468534d686568644a386133494e656874463365726d587669646d5032592f7744504f6b2f2b444d54396336583430457a4a666f62544f7636374d483647306a2f2f4143706a75697a43665a6972317a6872765254513336363033786f5a6c3338696165762b656d44394361582f414f5a4d6e6444746e325572317870354c2f6b5a677657326a2b64486b4c31364630645539544d58386959506a5854486445754d56667a7a704b3630636758726a54507a6f6d5776304c70766e577a426568634356666a706a7568327a2f4b4c3962615a4c765254492f7a78703334306a4c333648302f2f414d75596e364630667871356a75784f31524c317870766a5353544350726253767a704a466e386961622f35387872304a42654e776b5875784c6958383761487a2b456d4a2b7474484c786f356b7635443033436e727067765175442f77446d4f5164324a326a2b6439762b4e4e6b49667a786f33312b446d53586f504238362b59667948692b4e786d4f3648624550353430332f77414759313634306261765354512f354578332f7742516d483869593736317a6f6c796832524c2b6439757472384e6b482f4f32332f476a7945483645777672386577586f50476c2f3143526a5a32524e6574647638414834504b4a2b7439436e53306555672f516b4c2f414f666d483868342f50342b5a715a512b48466e3836364e5274365449522f6e6651662f41424d70482b524d667a726d4550516d476d7036316d752b45776961396236482f7743446c4265754e422f384c4b433944596c2f2b6449682f496b506e584d64304f314e65754e752b64486c42657474422f384146796b46364567762f7741386139445930712f4853486644746e32532f6e6a62766a545a524c317674392f38724e4955765132436f56725a4a6c5439422f3841392b4f356532665a6b7631747476787038704e65744e736136775a4444666f5366532f694950304a503433496d303759795836323233347754422b744e742f794d706a66794a502f41506d4b482f496a722f71662f7744674e7737575376573232663557596638414f6d31744e72466c4d4e2b684d6e2f387768582b674636432b667877377a73782b7a594c316a74546a66745a534b395a625466354d786772304c6b7676634678452f5173312b54582f766352335137497a2f357a326a35686c442b63396f542f41435a6a5876304c6c666a586f583868354f3731795a6536485a50733253395a37503841624d44396162512f6a4d61722b52632f78724943666f5456664772786a756e334f324e732f5757306350475948367a325a63616a6d5a702f3545316c71395a41752f6b6a4f7350443373666d2b51376f646d5032624e2b73396d58685a69613958625056334d3079394461707533716f43666f58562f4771786b3770397a3465503262695072445a5864724968763164737256334d3062394361796e577078412f517573704a6172454f372f4143646d5032627a4636753253627038344679395537486465374d35722b5239662f6e34522f794c722b76367a684c4d76387032592f5a30693955624935704c4e496b765647792f47646e4d5339446268315762434e6568747770336c776a764f79665a307a39543748663976495838306249372f706a6c7635463357315758415038416b6a63302b70344754754f794f6c6671765a597972336e2f414f6f69792b714e6d68546553547637524f632f6b626448643538434776512b352f3841796341376a746e2b4855523954624b344b58346969443954624775316e6638417363752f512b36664758424950354a335632335041683354376e5a507336754871545a70516c6c39313146302f704f4639513676427264776558422b534f4e524d392b696430762b31776c7139493770476e654a6a756a556b6a712f5343613244422f726b644f6b7a5562486f382b683236476e7a567a55327a644a484f744a496b4a45694141414970694141414141424441414541774151774149414141414141414159676f474141414141414143415941414141414641686943414147416867414149596741596741594347416741414a414145614141414149414b674141415943475251416741594347414347414341594149426756414167436d416743474167415967414141414141414167414141514141435a456b784652426f6a534c4b46514664494f4b4c4b4368745664455845756f564459716f4b4c47494968512b4b4a4441723468784c4b4367496351346c6c4251454f496353644142585155546f4b416851556979685542436b46453641434642525a517141687844695443687352346970466c4251324955464536436874554b4369644251454b5163536441455630464674436f4b726f4f4a5a515545513468784a6a6f437568555742514664494f4b4c4b4651466444346b3647425878446957554642566645644536414376694845736f4b434b2b49714c6146514666454f4a5a5155465638524f4c4c7143674b75492b4a4f676f43747846784c6143674b2b496355573046424658456169546f4b41726f4f4a5a5155425878446957304b674b2b4e436f736f4b41676b53346b6b6956414a496d684449415944414141414141414b414141414145454d5141417741414141414b594141414141414141414141414149594251414141414141414141514141414141414149594149426741686741434141416b4141526f4149414741434159434142674942734d41454e6741414734474167473441414162674141524e7844415178754141417362686f4141687542674b7773643044416a597248634a675173646a754e4742486b466a75456749324f7964786f414b78574f34305967426a5a6f44496758617043454962517842596833476a416a59574f34306b4d6941376a535143465932615347566b72477a535649544932466a6161534156674e6d6a594956674e726f77465972477a535145624659376b306c5979466b68334e534746694659376a53594562437873305964437342334a6f786b42706a5a7049475273646a754e47417241624e474167477a51415144754e4a4149427330594343787330426b51477a535167454e6d6b6749685932614d42425932756a4546674f3430414378574f34306b4247777364794a4341513261534752474e6d6a4549427330594373566a75693653416a59445a70495a4778324e6d6a4768425a4f354e4a574d674f7873305943734c477a526a49636735445a704d5a4378574e6d6b78435448593261495a477773624e4a4449706a73757a535168574137684943493748634741674c7542674942754267495932415a454c4a734d42574264686749427444415144634141425932474167477777454251774141414141414541415341414930514445414141456f5178444f65314143416d7741414459414142734143474e674142453247424559444378415459646973566859324749425778746447325273625a5532795774534a4f5346794f56316d7631454e564f4b6d31464d77337565705354393133667963377976646830484c6e4a5937586d484d34722b49367269367973677479316c64356d696647622f77434f355863636b53544f507762786e5469702f55644a703956444e424e4738655756352b62704f546939786d4a6b7249574b7a707435744c4c41685937477a53517249324b78744e4a6752416254535168574b78334c7049694145324151784459597949574e6d6a735849526737686d65485454795266614a63744e59596432556b39316e386b466e4579312b70637257567239447264506b63734f4e79647478526e486b3239484e307566464a617968706c64685a3032386d6c6c685a464d51376a5377434e6a73624e414245624731306c5a427972354b6332654f4b446b326c527a4766654d7370506853527979354a486f34656d7a3572724846316e4f503351637631527762316d70632b587579434f75316362617a53737a4f5a362f38416a4f5766574f2b55683263786f74346e555935307266584a4852715361544f6b7a3238664e775a38562f5646746a494473337478306c595751475461615346596d77477a535157527343374e4a324f7946674e6d6b67465972477a5351456241624e4a4151437873306e59454c446b4e6d6b777372354454477a53646752454e6d6b6773694132615473566b6246614a745a45374379445a727037686a576f68675862626f6c7a626e486c64366a5a324b7946733165353675656b77724a425833524c6d75484663374a5064626179534f522f6a4f6f6644706479534f6f787a626a467637435a376135656d7a34746430317465466b6241337477306b4669416d7a53516d785751624a636c6b4e73584935375762784c5435336a554c534d5662376c366674716a6e65575236353058506c4a5a6736785348794f52572b5a2f38754a4f4f2b542f414c3043664769336f656f2f423164324d353746764f4b317a36544e7a697a517978754d6b30626e4a4b34636e4279636637736247536d4d676d4276626a704f78325632466c326157425a4378574e6b69566a73774e58717677304f645761746231545839476337796172766a775a3559376d4c6f724755516e7a6a475656614c624e7a4a78754f6b37437946693546326d6b327749585937477a5361593749574f78744e485a49674f7873306c5945526a5a7049434e68593269517949687354465a467469736245374751736159324a414942744e47466b514863614d4c4378463261466a5449674e6d6b724752474e6d6a4752735a715a4a6f78674230675178444b68414d41474141526f41674541325247497a6b41414135566f6867424641414b7747424559514373594141414141414141414141416d4d515568445969434c494e30545a5650775979394e342b334461366638415738386138544451344d657079796a5034566c65762f3533502f714d765a7165706c2b7344792f3350306c7477365757652b3174503458702f6c454a625868716b625a73484a4a57644e5437506d2f4d6332352b71754b31474636664e504733326e307a5032764d3865646475704f6a4833584c4757706c58795232324d6e7138565831324a726668394c6b6e663033646e373758644b51374b724e5272397965435378773876797a7262703848446979354d74592b323639784953797866686f3464367a555a484e75564b2b6943317558713530592b49396e2f48636a7665566a7335505337704f44537964706e544b616c424e50706f737a65626c3666506975736f76734c6f343755613355344e526d677378744e72316b387a634a753335544c33726c30764a6a68332f5276624330513547673362587978546a6a67326d3057353659342b484c6b79375936446b506b636c6f7452716332584844334c374e3972737338576d79536a567047653972507073734d356866645a2f4a4473346437686c6b6d314e396e56364c4935616647322f675450613876545a38556c796a4d6241716d36693263626d31326f6561647a61616c536f7479306e44302b584e624d5861326a5662744f4564486b63724b397079354a3435756372646b397a5636544969584c6362342b4b34632b4f4e2b6c63676d64786f58656c77312f6852777171725a334f6764365846532f756f78672b682f55702b6a466d57506b6b725a724e667256706f654c6b2b6b637a6e3175664c4e79655231396a567a665034656a7a357076474f343932482b4a45314e4d382b57726d2b6c4a6d6270397a7a5935713363666c43636e6c317a2f414b6479597931326f374d54545a343538616e48354d733679376650754e787571424d6b515a5563337665643834596b756d724f636a467a7952676b376c306276666f536a6d77792b477173304365534d314a537153646f386d6637712f5239464e64504c6a37303657477a77536a7a6b32794771326d4d5933686b2f6c744756693366545434724933435273566b785a50797a542f59314a693856352b70777a6e6474773674543476796d64667457706c6c78564c34364d544a733247575757546e4c746d79306d6c78365a5068386c78334b3131664e786333484e65327873566f7163713873353758376e4c6e4c46696466466e544c5054776358446c7933574d644a7a6a3930436d6e34615a776a31576f76764c5a434f737a59386e4a5a5033526a34762b48722f34336b2b3730446b4d35725162727a6b6f54646e51637252306d573369354f444c6a7a37636f74465a7a4735362f4e68315847452b715852567039316e7a627a4f343853586b6b645a30664c634a6c4a376457354a5662446d76756362713930795a5a56463146474e67312b7078354f547933456e785936542b6e3831783370336c693572376d69783778686c68636e314e663354543574307a354a562b56665a462b4a474d65693573725a324f31553079536b634e48636452476358484a5833733654516135616d4c545654525a6e4b7a79394a79635533593274694b70536154613830637050644e5a4755303578366b4c6e706a69344d75626662505472374279533873356e48753768676e376a755a723875345a73397633615836476669753036446c7439616473704a2b474e4847594e3279345772375230326b316d5055776a4b506d764272486b6c637562704f546939786e575235304b5453527a65346272776e37654c74727979355a365a3475444c6b75735936586b436679634a4c58367154745a36482f454e584771796e4c3472316638414863326e6457466d6a3047354c4e4a597079584b6a4f31756434634535702b45623739783537775a59357a437a7a5772336e555a496349526d307065614e526f73736c724d4456743332593270314754555355736a5858677177355a59707163664b5a7875586c39766936615470396138325051327a5262303677777439636a46306536616e507173654a31784d6e6532767738562b7065376372352f46773563585559544b4f64686370704c37716a7673557278772b2f46486e796b3756664452764d2b3953714d6343563865327959356172313962775a387477375a7431536c3254544f49687557725462356f322b6c33666b3144496c2b364f7335492b64796446793454666136455a5847536b724a6e58627861304f69444a4d6979583073634e75717258354446302b4635387178522f4d34746f7974306639657970687466657268586c4a6e6c796e6c2b6c6d56783658477a365973754f7a35666d617355746f7a647453566e5330777237495447506e664f3876336a68636d4f634a63636b61612b446137527158697a52784f5830793849723365536c716e586c496f323558717356655354786b39764a4a7a644e335a59796548644a6b724b594e385448314f72687034334c79656e753850677a6a377271526d324b7a6c4d6d39616a6d2b43564546752b64767449352f4631586f6e5163396d2b3131396973304f6e336545326f7a56473675306e3847356e74777a34632b4f3679783031573874666858624f57354b306e34744854623075576c2f38415a79536b3773343533792b7a304f4f2b6e723048547a63734f4e333847516d63372f464d574854596c4658506a344b5962766d625463596f314d3966563833507065544c4c4b7a487874314e6a73306d44646355326c4a4e4e6d32556b306d6a724d35586e7a3463734c7178616d4e6d48714e5173474f5753586847746875366c2f32325735524d6548504b626b623544736f785a4f654f4d7675536c506a46742f41376d4f7861534e462f466f4a7972473262485361714f70687a69714863336c785a347a646e686e44496f614e52784d5141566b44454d41454d414541414453514552674d424959556d496b3252415a42736b794441646a736953534b695130496b57496b4d517a74697941414453415178415341414930514141514347497a6b6f4151484b71596741793041457867414141536b41774151444142444154414269414b424445415749596d77494d716b5773715a6a4c30336837634c75482f4e352b76377868786e4f4475456d6e2b686c3768663476503841626d5062394a697a354a4c4a6633504c2f632f543435593439506a63765861726a724d3966326b72464c5635365363327a6335746f68786b38636d6d61484e696e68794f47536c4c344c724a6e6a7654386e375a4e7751686b7a7a754d4a4f326448746569654b357a56535a67625a724934766f7956566e5578716b31335a7643504c316e506c4e3464756f6b37726f3533566264714d6d615530374f6973306d713357474b636f3431796430617930385854586b6d64374a75713948742f747138735679734e7977615259472b4b556c32714e5a6c334c565461726959637373386a64335a79335054365750487a336b6d5757577638414556573331487964726f484a365445704f335278554c356f375062762b57694d66625039512f6a787257627a687052797878322f444e627432614f4c506a6b3231384e49366a5759336c77536a2f3752786646786c556e5454376f74385536617a6c366250432b33664f616a4873347a57616a3339526b6c38583062374a71312b4157524e573430637576726d752b3257316a6f7548737565566e7075396c7863357a7a2f7742314f6b626263576c7063763745744468397242434e555133526631544c2b787258683538382b2f71706670334f4e6254626138486137632f36706a4f4a5855614f31322f2f414a62482b784d5062316631442b4c466d5a582f41456376324f447a792f705a5576444f367958776c2b7a4f4379766c6c79502f414f7a47626e2f54704e3575693253584b47562f715a753666386e6c37376f774e69705938763841714d2f644b576a6d53656e506b6d7573312f3752787258366e63614731704d4833346e4453584b564863614b2f77414e697634694d48702f714d336867777466704d6d71545849784e4a74565a6557656d76684777316d756870764d584a746d696c75756f6c4e7953534c644f5844656f2b4832346549364b656e7765334b4c6843715a78736c46546b6c34737479616e553562355464767a5269396f78627437656d3473384a6c335a623236335a482f514f4a763063357366354a6e526f373862346e575458506b596d4d4764486b594f72303064526a635a4848616e525a384c6c63473470394d37615762456e546e47797479785a5070556b7a686c692b6c303355386e44394e3475432b7530354f76304c59355a7870786e564c344f737a6264703879616c42476f7a624a787557484a2f365a693432506f34395677636e6a4a6a344e31314f4b63565036344856594d386330464f5079634c50484f456e476134792b7874396f7a53686b574e7359354f5856644e68634f2f423075614d35516b6f756d3063766b327255785471555a4e733670795354623849302b71336648696b347769355558505478394e6e793433584845394e6f6f59384d597a676e4b76714e58756d6c773438634a7753557558614b386d37616d62644b6f6d746d3553546372374d626651344f506e6d66666e6c5a4e6c696454684a4e7071535a33324f6263494e2f4b52774d4f705272376f377a44667459372f414d4a764436755039526b3368584c37777636362f774453594f6d78504a6b554c2b544d336638413536663234496874617657512f77424c4d32627231595a5848704d623973585151323753786a5478706e4d367a4437476f6e424c3666673765756a6b7434612f467279756a57556d6e6b364c6d7a7935724c6c62474467787565534d5575327a714d573359495272696339743062316d4d37534b474f4d6136336d79777a6b78746a693977303863475a786a345a64745757556456424a31614c4e3758396268384c675975336638336a4a36723062372b6b336c353369375354365a77475676333879762b2b7a7670744a50396a674d72547a35615839356d736e6d2f70732f56794d7a5161575770793033394b4f6b2f68326d39766837536f312b794a4e5a6d64434d5a345936766e7a6e4e5a4d74534f4b31326b6a704a714d552b48775a4f316168724e616155556c79737a4e3772686976356c527a6962546a5472366c2f7744784d3378587277333148532f713831332b5a536c6a6e474e5731534f5179375671314f63754d572f304f75684a527878356634653261725562767038623477546e497554352f545a3876486c5a686a73745074754b4f4f484f4b63364e66756d444470314277564f5877565a4e33314c54574e4b4a72733270795a2b44794f326a6e624876347550716669544c504b3650444f73734a4a76706f376c786a6c784a5453616c46576a676f5036347639556439693778512f306f3367342f31476179343870376372756d6d783661654e5138534e666778724c6d684358687333572b3954776d703064666963582b6f5765587134633872307379333530366244746d6e7835495a495879695537312f774172587a614e796a54623354306e375352725874387a68354d382b7034376c642b584d7852764e4674754c5042797a5276763654535167355358325a33476e68474748476c3455544f4d6c7233645a793563654537627131714e66742b4b474a5368395045304b54684c79647271343839506c5833697a68303366597978387736506b764c7835643132376a624d7a79365848666c6457624930327a502b70782f314d334a337839506939524a4f624f5437676979545258493158474f4933574e362f4b364e66697979775a564f456d6d625064485774794b6a42302b4a5a645443442b547935546466702b47342f4c34393372745a53334c563076365668506374593153794e4777657951762b306b526e73764b50575a70695931776d6652335735476a636e4a7479646e533756706355492b3670334e6d6b31576979615a714d716357756d5052616e4a677a77747477624a50466235353338462b486c34647563747553314f54554e2b7a4c6a46556d644e47664b4b5a6a35732b4845763653535231723550426c38506b333237726d394a6f586e6b2b616c42497a636d31596c435874326d546c757543446c776a5a673574327a5a4f4e52555563727039435a64546e6e4c4a5a477164786c4a50796a71746f7a7a796165702f42796a707a624f6e32612f596e2b39444833472b75786c344f362b3252756967394e506d335648485262665a31323771543063364f5353364c6c357164423434622f747339466f70616c386e616852734d3231516a6a75446c5a6e62646a554e4c695338555a37566d706a4e504c7939566e4f5736395375462f704953716261615a3147316170357366462b5939476a3347446a724d68667337343668782b476a4d385636656647636e54392b764f6d363353566158496373707571384f6a706431622f417a64664b4f58752f677439756652535868727439484e5054346d6e2f414853334b37684c396d592b6b53396a476c396b585a66374f66374d36506d35542f752f2b754a633379384f724f6e3261626c67642f346a6c352f6d644854624d37777a2f636d5074394c724a4a3038384e386d5452556d57493752384b70434145566b7869416f6467524741774141474959414a444159455245325241516951674651304d41474d524a466a4a6f59686e62464141416251414142444141493041414141694d526e49416867637130517741675144455251414145416867416b4d424141414155414149415968685143454d5145537552637971526e4c30336a37634a755038417a655876354d765a6b6e6e662b6b787477635a36764b76737a4f32654b575a302f6738306e366e36446b762f414f48502f77446c306a585867304f37614635596537424c6c45364b694534576d647533772b54773831342b5357563534756b6a7174723161793431422b556154634e4c5042715a767843547446656d7976486b787a2f77794f4d746c6658357363656668373537646471704f47444a4a6645624f486e6b556d33586b37624e57665453554f30346e45356354787a344e564c374773727478364354395833644274326a775044484a4b504b544c395a44446a78546a786972526f744e713832446c544a35636d58564e58625a6e6270654c6c2b4c335a5a5874323136546a493750612b394a6a76796369315470394f7a7274726c656d5375365a6350616466662b714d2b5354386f3472583664616656546154347a646e644e4767336e436e683576345a76504634756935657a6b31763235373370657837547172625266746d503374527834394c354d586a64313452307530616668446e38746e50476558302b6650486a346339653633634931464746755376535a54596c4f66487a787a6a586c48625868384c6a7a2f414f7a472f7743586e7154702f5a6e5a625a4e5330734b66614f567a592f5a7953783031542b544930327479365a5646484f6548322b7034377a385750593672504e787854664a4c706e4454545532373762746d307a613756616d50424c39326a567a6a567476774c35546f2b484c696d586336505a58634d76376d64756b62306558396a43325266526d2f566f7a3979636f365449306b364c4a34654c6c762f77435a2f7744366357764b66334f3130566667384e654f42786e442f62346f3758524a4c5334342f774430475068367576763663503841626a39586c795a4d2b52762f41424e4762745744446d63355456795856474c713845384757635866636d375a5870732b5442506c416a303976647761342f73363732734f4f4638494a49347a4b377a5a58537079666732475858616e4f6c43756e396a426b716b347954693253336248546365654679756439756a324e76686b4f69527a4f78354b6334485478384862423866726635386a452f424944627878786536516c6a314464746375364b64427166597a7154714b6e354f6733505279314d59754e5845354f634847556f7a54542f55382f4a626a58332b6d2b467a634578314e36647a47554a4b3453556c2b677031547430635a6931476246394b624a5a4e566e6e4775624d39382b7a7a2f41434f637938587757345a495a64564b5561704b697a6249796570685267786a4b63364f6d327a537a67756334307a507576647a355938585439752f4f6c75375a6e6a3072342b5a5069636b6c5649374863734c6e67644b326a6b4b6b6e33357674444b58626c305062384f36317431576d304f42596f766a6261386d48756b4d4d4d4b6a78536c5a6751334855596f63597870464753575855334f704e464d654c6d6e4c335a5a5857324c43314f50376e65346e654b482b6c484372756d647870354b5748473134346f3167352f314865754f75593364567247313463526256482b75523738785a5a75365574592f30674c61344c38566a6376684d613875322f3841384c2f2f4143367a344f54336a476e71597635346e584c77637076562f69494c2f774368764c30385051667a736661767031754e4e57715a3252782b32526231574e2f6f2b6a736b7569344c2f555035702f7079653970652f4437305965334b50346e462b356e62327636786a763841776d4874312f6973614d5a65337534762f7743462f77443564684e665363466e705a38744c2b387a763334663748415a2b383256742f33324d33442b6d2f7535473332584e4747544a4354386e55486e2b4f664353616667336d506535786858464d536e56394c6e6e79584c4362326c766b30316769752b7a51346f4f65584772387a52666e7a533145334f586c6d773233514f5761475756754b4d2b363950482f38416a394e5a6c3731577933544b384f6c6a487532717335534d584c7a354f74336242504c706c782f754f7a6c50464e444a6a6f7250685857743772704e5074656d6a6a684a78355472746d4476474444677859754d4570535959643179596355596533795a7239566c7a367166755458534a754a7859382f7874353558746c596362546a533874486f4f482b79782f3655634a424a4a535a33656c703666452f7646477349782f55723477632f76734879777331576a2f356e463133794e35766d4a754f4f642b446e3855366e4752623764656e2f4146644c71665a3370703936696e6f33662b4a454d4f373835596f653132335262765376535576504a446331587a654c444c44714d4f3737755768616d75364f37774c2b68782f365563524346744a6e6336654b396d466634554d503350542f4146472f707851316362302b5a5858304d34574b347853666c664a3375705636664e2f6f5a777a68332b6a4c6e37582b6e583947636456737466673430372b706d374e4e73304f4f6b53762b386274493659656e7a4f702f6e3550396b516e344c5756544e5830345432347a64342f317154622b455537636c2b4b6736746d5276442f727466614267344d7a777a57534a7776742b6a343935644c6a4a50654c746b764668527a5564327a644b6866786255577875506d33704f62374d336546474f6e567458794f615470575a656f3147585553664e6b4d476d6e6d7952684664583259766d2b48302b4848345842724f7571306d522f68494f587845356a576168366a493364704d362b4f4e7877634638526f346e4e4365504a4a53564e4e6d7376556558704a686e79353358315a57683050346d334a306b6252625267677064746d75322f5851307333484a2b53534d7655377247554a4c48487072797a4d3036386d5855586d3763647a466f326f71633470326f75724f6a325876466d562f336b6331346652306d79306f355533356b6d544833472b746c2b58724d3353504c52354f7a6a34394f6d646c756253306d5134315536614e5a65324f672f6976384174324f33546a505334362b46526e6e4b376672486775452f796d3079376e676a46384a5779797a54773833426e3857366e757454756b723145695731562b494d504a4e3535796e5657376f33653061647138723874696561392f4a5a78394e323333706b376f6d39466b527974485a6136484c5435446a6b755262484c6f737038504b4f303056505459712f776f75792f77426e502f537a523644634d57504573625835537a56626c6a6c6a6363546474646c377070354d7544503431766266625176387a2b316e53374e31686c31386e4e57644c733176484e32544832396e5766774e366b57496a46457a764877614269476a544a4153414242517741415167416b41434159673741426741724164455267414445686741784157496b695246444f324c4267495a73414141444141496f414141434a49695a7941414163713041414342414142414141525141414143474141495942534159714141474145514141624967315a59524657585456354e75302b53626b3464737477614842676c6349305a39436f6e624861382f4a6365337575696f5452495a644f5732446e3075504e467163557a436a74576d562f30614e79304b6a46776c6438656f354d5a715a5854467834495934714d656b59756f304f484e546c4657624f676f6469593832574e334b30483848784e3232362b786d34744669784a4b4d55624c6950694f78307936766c796d726e576f6e74576d6e4a75554f325a656e306d4c5470724771544d79676f73786b633875666b796d726c754652526d77777977634a4b305a49714c70695a3675343143327a54332b5132574c444848464b4a6252496e6247732b66504f6175534643614c414c7079323165703047444f376e4476376d422f4263643379644851735645754d7230346456793459366d566137486f734f4a665445783374476b647268354e7730464537452b61355a62652b7354546154487034745153566c755844484c43554a4b3030586a4c3273586c797558646235615a6252705069427349596c6a696f72776a4a6f4b486175584e6e6e504f57327431576a77617150444c4330612b577959483162534f676345464473644d4f7135754f61787a7361765437646877565565305050747544504e546e413264446f646b54356e6c37753776753274302b3361665479636f51706d78696956444e534f4f664a6c6e64355567474f69734b705276344e666e304f444c2b62476d2f7562526f6a526d3479756d484c6c68647975656c732b4e2b47794332544438746e525546485034574c302f5063327633745868322f44696171427346436b697a694f69396a6a6e7a5a3533395674565367704771314731594d6b334f4d654d6d6275686353396b4f506d7a342f4d796336746d687a556e4e73324d4e486a686a634646557a5963516f646a726c31664c6e726562522f774147307359306f75724e6a70745048426a55492b455a6e454b45776a4766555a357a57575732723165323464564e546e647237427039737761664a7a676e5a746148526578506d4f54743765363651346f317571323346714d6e4f64335647316f5451375a574d4f624c444c654e31576f302b31346345314f44646f326c4571474f31632b584c6b75387274724e5a6f4d65716c475572744647486138574c4a4849727447356f4358474e7a714f5759646b79384b4a4c6f344c4a477332652f3841477a304353365a77756f78384d2b62752f725a7a7a6a3648394e792f566d324f3159636553475653676d792f4a73754f545843546968624b76717973365649597a636a50556454796358506e32354f6678624e6a684e536332362b44637777714353534d6a69536f365443523465587165586c2f646b783551744f7a545a396e777a664b4434746e513052346934536e46314766482b32366375746b2b486b744730686f63554d62687836616f326e454b4d7a6a30365a395a79352b386e5066775846387a6b62625459505a78526864305a64425275594f664a31476565706c647354553666486e787545316357614f5779314a75452b76684854304c6953345372786456796355316a585061666150626e43626c345a7374567046714d5468644766514434634d2b707a79796d56766d4f6557797856566c6b6a643473664343677668463944536f5443526e6c35382b54393156546879684b503354526f2f344b6c46703547375a3056416863496366555a38652b32734c5261534f6c783849325a7741616b30355a3533504b35583353455341724454612f626f3671664f2b4c4e622f42482f414a724f706146784d584756376550724f586a786d4d76694f5765787575736a42624a4f4b745a54714f496353646b2b7a66384179485039334e34396c56334f625a74644c6f73656e5830784d395248784577637554712b544f617553716a55617a62595a334b61366e52764b46784c6349353858506c7835626c6361746f31563938614d725462505466764f3064527846784d2f446a31356631446c796a6d64527445336d547856775a6c61486238756d794e7561615a764f4955506878797a36336c7a77374d72754d4c5759486e7779676e566f3045646e79386533464d3632694c694c6763585635385573786336396f6a4c543434755455342f4b4d502b46353134566e5863526342654e306e58636b3235725462544e7954794f6f2f34546f63654e5153535646796a5130693434534f484e3147664c37716d634c54526f7458746a6235597158364852315975427134786a6835382b4b2b48485051616a34676248467456643547724e2f7848784d66436d337079362f6b767277356557315a72636b6b6254624e4a6c30385a3833355a74654a4f4b6f73776b632b58724d2b544456535178456a6f38564b68304142414d5645714151444659514d51414177454e414d42304143454e67414143414267495941414157426b694b4a4862466741414777414141414142464e4d4244414241497a6b4749414f616741416d674141554168674130415141414141455541417741517841494269706c4141774345496b49416f544a4359307530514a43436f304249414930464568414959306830424768555445304e4730516f6c51445362526f4351425561436951554247676f6c51554243676f6d41304b774a744d4b476847686a416d6a614955536f41624b676f5942646f67536f564132414a4342736845676f71496851306867526f4351554247674a494270646f304645674c704e6f694a68514e6f685249414541785552536f564577427457425a51714a6f3272614e506c3272486b6e4b546c354e32515a6d347576487a5a3865376a57426f39446a30334a7858624e6a516b696443526e506b7564747452436951476d436f52494b416a515553414a74574645786c4e6f42524f6841523468524d5645456147534143494a4571474247674a414247674a436f42554645676f43416353644146516f47695641796f685136474d434e43346b774337526f6a5259524a6f32694b69596d4e47306143686a4274464959364147305230536f595461756956456741585177416764444569514347414651686741414b68674245426741446f455341516952454959764178414d414552544541776867495a6f4d42456a72697941414461414141414141436759686749426753715144417a32694e415341646f6941774861454177486145464567486149674d423251325177474f7732694177485962494351447445514741374167474d6e6149694a694c32694e4252494232694e4252494232694e436f6d413754614e4252494232694e42325341647074454b4a414f30526f5645774861625153436d53474f30326a5155795144734e6f55464577486162526f5645774a326d3164444a41587454614955534164707447676f6d41375632685155795945375461756d46466768326d304b48524d42326d304b43695178326d30524d6b413754614b515553474f3032685145674c6f326a51714a674f30326a5155544554744e6f68524d423272745851364a674f305630425941375461706f564677683270745851364a674f303268515554474f3164713643697751375532674b697742326d316442544c4148616256694c4b4368326d30414c416f646874574d6c5179646874414b4a674f303267424d59375632724173416470745742594964707441544c416f6470744242524d42326d316442525a5169397074414b4a30413755327245577042784a326d315a466f746f42326d3149306932676f64707457426251714a70647136416e5136476b3269464571485137546149714a304644744e6f3046453646513754614945785558734e6b4136474f30326942494b4a3269494578447455714159447451674a434861496a43686a744e6f30496d413754614945674861624b67474d76614541774f6b5a416867554941414267414251414141444541414141417741434b514142554141414141444151414d42414d41454141414141414d4244436b41414541414141414141414142414141414141425141414141414141414141414141414141414141514141414941414267494147414141414167474143415967414147494147414141414142514141414141424141414141414251416743474168674141414141434159674141414141414141474168674959674142694141414141414141415968674141494267416747494141426941426941414141414141414341414141454d513041414161444141476c4178444a6f4141496f596869414269414267494147414146414141414141414141414141414141674347416867526330704a45684e4a7444414141416f414141424441494141416f414141414141414141426749416f414143414141414141414141416241414141414342737741515177415155774541517741416f414141414141674151414d42414177415144415177414241417741416f414141414141414141495141414141414141417745414145414141414141414141414d4241464d424141414141414141444142414d4241414141414d42414177454d4141414151414141414141414142414d514254414141514141514141414141414141414141414141414141414141414141414141414141414141414141414141434b6869415941414152514141464d4141414142414d51414144454d414142414d42444141414141414141454d51414144414141414141414b4141414141414141414141414141414141414141414141414141414141414145415177454141414141774151414141414141676867414251414141774541414141454141414141414141414251414141444541444151414d4141414541414d4241414141424149414b68674941474167415943414269414147416741594341426741694b594141414141414141414d5141414141414141414141414141414141414155414167686749436f5943414267494147416749757a415177624141494147495a5541414246414149426749436f596741414749414741674141414141596741594341477a414141517741414141496f414141414141414141414142685341594141414141414141414941474141414347414341414159674741414141414141414141414141425141414141414141414141414141414141416869434142464f544e6978744b65534d622b374b7a74654268505736542f354f502f636b7456706e4b6c714d62663273756a624c41685a4968737741434b41415141416a57377272586f64466c7a71484c6957526c7372476337734f37543350444f633430346d367a5a5869785a4d6c58786933526269625a41484a624e36676e75576f6e695559306a724c466d6a615143416967436e4a6c7834316335714b2f566b595a63655676684f4d6d76737936526b415273646b4441706c6d78786b6c4b6359763957576f435143414c737741434b4141416f414141596741414141414141416746594665535559526370535369764c4b695669733562582b7164427065735457615a70313636784f6450545561307939437344523762766d68334872466c584f72346d35544768594b794e6b5864304e4b73734c4e4472642f3047696b34355a323135534d6254657164713155314347576d78326a7037465a5679365269617a585964466765624e4f6f497568734c48794f555871335a627233772f6d375a462f3368322f344856324d357244366e326e504f454d6562747336496c6773465a573352444a6b68697879795a5a71455638736d686b4163322f55757a71546a2b4a5670306237466c6a6c68436358635a4b304c4461344244496f4141414c43794c5a566c79777734355a4d733143435632793652634f7a6e6f656f396f6d326c716f6d376a4e53536b6e6161744637546136795049685970535369354e704a6557786f5473464935545765713972307335592f63357446474c3170746335786933526530646f6d4d312b6a33485236364850545a34542b36544d31534d324b73415179424373545a71737538625a68794f475856343030575162577857615a372f737964666a73593176757a32312b50786c306d3235734c4e5248664e6e6e34312b4932454d6b5a78556f744e4e576e39786f58324f7a476e6c78596c79795a597758367330757039533752676e772f464a75786f644859724e4467395237506e6b6f523163557a63786d704a4f4d6c4b4c585451304c6773727371795a73654e4e354a714d55726259304d697735476b793737744f47536a5056785a64703934327a552f325771694e4462444b6b2f6c4f30544a6f534141496f45445a44747373694a574f7a427a612f51344857585659303771724b73573662626d6b3459396269637271724c6f624f774b72365443786f57425a573547486c334c62384c6363757378526b766879476b624778474867316d6c3148654455776e2b7a4d6d78705667454c4379614537417273484a664d6b686f574152736b69426a45415577454d414151414d41416967414141414143674141426741414141414141414167415941414141414141494269415943414267495941414141414167415967415941414141674159414155414141414141514341416c5262504e765775527831576c687a616934757a30686f3877396370505636562f6f644d50626e6b7a4e75394b5131476a785a3875726d6e5037466d71394a5a597863744a713538306a704e6e6b33744f696c3938615a73655458614e6271504f396e332f576148582f41494c5854367669375054497a556f715558616136504966565047472b4a77536261523666747a6c2b4230334a563941796e695659324e685a424d352f6366554f693055334250334a6d4e4b364f783265665031744f4b763845626e612f55756b334758427232706c374b626a70724e46366b2f364e715463326144314b3632545643547a427150524576366c71447373372f712b66384138636a697651312f687451646e6c5365484d6e34344d316c37486d2f6f7269747a7a6e71523556364e697634766d7234677a314e44503254306d6d4a736149794d4b344831786d6e44446f6f51644f637a693942754f703237575938337576396266556a7350586136304471366d617947314c572b6d486d554637305a4f5a72364a395870326d31454e546778356f4e4e53587757746e6e336f76636d38543057547847326a76724a6f6562657239544f4737346f4b6256596b7a3054517a63744670704e32336a52356c367a6b6c766d472f487452505239752f366670502f41426d73702b6e45624a4d646c646d6e33486539487436584f536e4a2f435a6a5778764c47656676317469354e4c534d33753265704e4872343970343569343164756b41676e5a4979757a4141496f41414141415141427765743954616e46757a30304977344a3064786a6c7a78776c3934706d744a744f32636a367557716e6f634d4d484b357a376f36316c636b6d6c61546f73523558673947612f506a55334e596d7a56627a366531753172335a315044646330657a534e4836673450614e577031786f306a787a426c6c68792b3743636f7a6a326d6d65346258712f786d3361625555376c4648684b692b6c482f774248732f703153573034464956493335717434334261446239526e7570386167624a4d386b395862724c563632576d58396c68456a546e4a5a382b6f79356375535463354f35466d6b6e376570307254663974453674625048532b6c74547170772f70736b446a394f31372b6b662f77437241334e6154586c37376263596636456372367862577a66764d36684f34772f30493550316f36325a662b5a4759727a7a6274466d3348502b48777869353862374e3676522b3966356541666f744e6276666850456570314b2f6b316264707035746f2f536d37346452696e6c57476c4a4e307a30376c665a426671686d4c646a41334c63385732365a3573697476714b504a64783333634e7a79796a6b6e4a59753377523678756d323464797851785a5a4e4a534b5962546f4e486f73384d4f4350574a2f553132784b50464a53726a5868556538375a4b397630542b2b474a344a4b716c3153354d3934326e2f7065672f38414445316e39434e705979434a484a54735669454e4456377475754861394b382b56572f3773547962633937312b3654797a655761777638417549395233665a38653672437373326f774b6e74573336486274544442676a61784f32626d6f6a786d6f787153697252373570704e3654537637346f6e674d65622b557a33765275394670502f4445316c39434d717a7a6e316a75326233566f634752785558637a304f36504966566d436548654d73334b2b61736d507355624e73575864386b6c7a345168356b62506450522b625236664a6e77616e33564874775a6c6569747768436570307335564b58614f7a33545048533644557a6d316267364e57335938673233634e5274756f7835384f5270577269653536584f745270384f622f48424d3841696e6d6e434546637053365237767438486a304f6b684c387978717a4f58304932513749496b6332695a34337557773772505736764974464b55584e75306578736a326278756b654766792f764d622f34666c5a526d3276634e5042354d3269795168487a4a6e757a636c386e472b737477396a62736542666e7a794e3931486c6b715562696536624f6e2f446446647134664a34336f4e45396271384742663430356f397a6a4651536848705253534a6c556a797665596272754f3761724669686b6e55756f2f46426a3946377334504a4b57465461366765703849786b35714b54666c6f54622b4c4a3344776e55364c55364c4f384f7077384a6f3750306e764f62385374446b2f4934394676726c59723054612b73356a59464b65383652522b4a46766d4a39587469705079655537773931312b36366a54596c4f55484f712b44314a2b57567248434c6c4a52536b2f4c4d4b38742f6b7a646b766455736649357a55346452704d7a785a6f76486c697a33612b7a7a6231783766347a534c2b2f774e5172592b6b64377a357379305765567077754c5a36445a34763662575237316f366679657a7679795a5456497351575154437a4f6c44624f43395637376b78316f39486d34532f767952334d70714b6e4c2f4446733843314765656f314f6f7a533763736b6d62786e6c4b793948746d7433544b336968504c333955704d6576326a5862587765664334642f544f4a3674734f6e6a704e703073594a584f484a7376335454513175333672446b562f30626c4839476b5875386a697654587150504856523065727a6373552b6f4f523654644e32654177636f754f524f6d704b7633546f3977305754336446707074323559795a5479523568767537626c7264646e77776e6b5549756c434270337475344f436e6c306562692b2b54566e73576e323352594d6b737177707a6b3232325a726656556d7673575a612b6738497835632b4b5465504a50484b4c2b4f715a36543658332b65757253616a2b316a386e4a2b716347445337744f4f4e4e6334715a5636636e4c4876576a6166553261746c6952374b6d4d673332553573384e50696e6d6d306f77544f62546c5056653976534c467064504f7079376d7a7a78626a726e4e792f4535583976714c4d326250764734543471705a636c58396b5837786f493644567642447848476d616b5a72752f5232747a61764271316c6d3575456b64736a7a76304f715772612b556a304b4a6972466947525249776f41414367414142674959414141525141414641774141454d4145417741414141454d414141414141414141414141514141414178414d41414141414142444541774141415177414141416f414141414141684347494968493878396364366e54487037504c76584466347641644d50636336326d312b7074747736445361664c7a3577676b3651395a367830634979576c787a6e4d7974733244624a6266686c4c4439553432326158662f532b50543656366a534e326e6252302f5476306e6c52744f7a36336464653977313061787432656c51536a434d45756f716b63743656334f657130554d4f534e4f436f366b6d537564395562705062394647474a316b796d6c394e624a6a31654e363756726e624e5836306b386d343463646e6f573059765a327a53592f746a5139596935364852536877656c783866465565656570746c2f687334613751766847366b656e4767395334566e3266564b3661524d623555656e647957346262475570586c68314d68366e74374a71446e50524533444a724d52305871582f6f326f4c5a724d617230506230327175523257616c677a742b4f444f4f3945312b453152313270626a7064544c375932544c397850547a6a30665433664b2f305a366d6b655765693157357a2b37677a314e4450326b394a45575349737730382f384158484c686f6c61726b626630746967746978786e47314f307a542b752b6f61475a76665458657a6163312f616e31634472644e50597439782b303377636c4a4a6e716d6d7a783147474761464e4e646d693955625939667438357856354d58614e4c364e334e336c3057616276347344576573576c76454a562f3255656a62632f77436f61542f786f383439585a662b4e4b5032785250523944316f4e4a2b754e477236694d54664e7a653236476552567a6c306b635a366532686272504e7174624e796a47526b65754d315a4e4a697234636a7176542b4b4750614e4d3478707a56794872452b724e2f686d32714842615742773371665a466f506231756b74596e4f707752364d616666734d63323036726c2f6369326954334373663074754d745a6f49776e4f386b4471547a4c30533274626d6a627267656c497a6e504e5758777341517a44514141496f454d52526f4e54366630476f3158346d53664b307a6578536a465258684b6b5345566b6d515a4e6b4a4d7346636a7a2f316c757139714f6777744e742f57626e31487671327a4437574b6e6e6d65596166446d334456754b626c6d7953747333496d316d3262666d312b7078616545577638557673653034735377347365474c7451696f6d753266616f625870314264355a4a633547315176736a53622f414c69747432374a507a6b6d71696a7a763035746554644e65736d52586a684c6e4e6c6e717a555a4d2b385a4d647573535649326d7762357432326144686c78795532376b30574b366a314a786a735776535853676b6a7948547065357033586a4a482f41506964317666716a516133624d2b6d77516e7979556a684d485758467938526b6d2f32527154775065342f32654a2f2f70784f58395977356250306d36796d77327265744a75616a6a7870786c434867334d6f343577634a78556f76796d632f5648684f6e6a724d4d316d7778794a2f44535a6e66787a6559354a7436764d657a657a68565668677138556b594775326a51362f446b78354d4b54612f4d6a58636a6b646e39595a336c574c58704f4436557a3053456f354d634d6b4a584753744d38417a595a6166506d777433776b315a3631365279546e74454535743857536a706e32553572396a502f77434e6c78526e645963372b324f524665437a6a6557634c583532653437516e48617445704f32736150444a7974354a4e655a4e6e75573066384153744137383455617939524730544a7179744e4a6f386a336664743068754f706774526b6a4653644a474e44324769505a34593933334b5559336e7a386b2b7a306a306c7139547174486e6c6e6e4f565456574e614855737774612f366e712f3078534d316d4871312f564e562f346d5658684f43664670704b72666b3979304c6b39426f334c79384d5477705266356631506464482f794f6b2f38534e3566524a37724a4e44762b79346433307a6271476543754d7a66493836395562336e6c6c79614c5435654549666e614d785843795754426d6c486e5538636e486c4839432f55363357367a682b493145357143714b4e74735778543365556d3575474b44376b6276642f53437759586d304d334b6c33426d686b656a7472304c53316b3571656466335073656858665a344c6f39626e322f55777a3472546a303065306144572f6a39757836754d664d482f414c6f7a594e756c4b76444a307a784c556235764b7a5a582b4b6e4770744559373376454c2f726d54737a32707550626d525a6f665465717a61766246504e4b546d7030374e36465162587a34504776556d762f41422b3535616630596e55543072314672336f4e73793549666e6e3945547875454a355737546c4f62582b3576464b373330567473367a36374b76306765676f77747530634e466f63476e6a665556646d77534d32376f315736376c44624e4d3838344f53756b6a6a3833726c3847734f6a724b647872397630323434505a31463862766f35764a364d326833553871596d68357472397731653435336c7a7a546b335358776a304c3076736130555671357a68504931315278322b37446c32664b6d7075654362704d723266654e54747572787453636f53644f42752b59723269374e62757536597472307a7a5a494f52735979556f776b76456f7152686268742b6e334842374f652b4e2f426763666e39634a4a76466f585a784f73316571334c5765376d6e637079714b2b4565675a76524f676e2b545535456352764f7a3539707a714d6d355970666c6b616d6b642f3661324c3846426172505573337852313973386832486638415636485634734d3563384f53616a5450564e626e656d306d6650465734346e4a4576735a6c6a504a583678335a556f35635976353033612f4f4d647448706535546c446274624f432b70596e52345062554536377339722f41424c31757754314e564b65466e696c3348394c6f7550314876656d72384a70662f444174704e54542b59737130332f4143756d6678374d43364e4e74666f7a4b76434e56486a6e31554f716a6c6d6c2f7565762b6e707979374c6f705338303065533768583433576638416c6b6573656e46773254524a2f5a6d736b6a646b4a536972636e555632327956396e442b70742f574654304742584b5371636a4d484a656f4e57746275755849302b4d667069626a30686f705a7463395331654c456337742b6879362f565938474f2b4c6b6c4f666d72505939426f4d4f336157476d784c70664a716f7a504c4f453958377248684851345a7237355473745a7159365053616a504c2b3546306550595976644e7762797964354a39736b56316e6f2f62456f50585a73612b30445765733665363436752b423652687734645067785963546847455653566e6d2f72427165355161666a475765787376516b6d38757658365250526f506f38353943307375755a364c466d63765a46794a4555534f616741414b41414141596867414142464141415544454144414141414141414244414141416f41414141414167414141414141415178414d414141454d41454141417741416f414141414141414145454d414142434741536f4d38763962553964675236693065612b7363665057347572644738666246394f30327976346670503841786f794d2b4c336355344e31614b39737037667055764b786f7a614c7365575974646e30472b4c446c6c55464b6c536f394d78766e6a6a4f37744843657239444747584471736655727152306670375666694e7678334a74784e4d754e395a594f4776686c2b3844764e6e31454e5474756d7951642f536b7a473333614962726f35592f47575063476346742b35626836656e50545478386f6368376d683677637a36717a724474556f63366c6c64497750353030696a2f414d764e7a6f302b6147743952366e426c72686a75684975323239463446485235386e4632356d32395378765a74537a6237666f5961445378302b4e756b617a314b6e2f41416655785133764a666f31486f6176774763363356396154552f2b4e6e492b6831576c3155612b5473645576367471503178735a6675486d2f6f6e7663732f4f4c7667656f4938793948724a44645a4e2b50615a3667695a337954305643614a304a6f77727a6a3133795834453654303366384530695a6f76584d4c6870714e2f365a61657a3445622f74543674793433475558346b715a354275656c314f78373273324f31472b6354324b6a6e7655573176583647636f2f32754a4f5345486d753861794f34612b476f697166745274487265672f35445357762b326a7848466a63733859536b312f534a487557683630656e6a396f55617630534f4439645932737568796e56656e632f7637566972344c7434326d473636523458314e64785a774767313273394f366a4a444c43556b2f6765356f6572476a39525a3170747031467638414f754a7256363032317276444d3572576133586570732b504669687778525a4a427450524f4675656f7a486f694e58732b3351323352343843726c58317332794d35586471794741444d4e414141696b417846527038752b614444712f77414c4f66316d32545456706e44367a303171733276795a6f546a786c4f7a746f51345168472f4555692b45444e4676753859396f30796d31796e50714b4e36306346367a30476f314c306b384d4f644a6f31423531724e54714e62714a616a4e4e504a4e6e706670375337546f38454d7131474e353577376b35486e38397331305a5538446272344b6e746d7356663153646d2f4833523757745870502f414a574a2f774439526243634d76654f616e5832504549364457786266345449716633505176536d6e7a77393265546e465653697a4e464f352b6b7454724e646c31574c5042637a57543944363974754f7378487076454f413352354275507054583764704d6d716e6c684e515674493576486370346b7637306b65336233686e6d32725759594b354f48523554704e74317931576e55744f306c6b6a624e54497274396a32444c742b71656f6c4e635a51756a715a616a426979517854794b4d35666c544c6f786643462f454563563674322f56366a4e677a3449747868476e544a376f37666932696a55366a446f384d3832616359714b504676782b37594a4f443165654d596c655455626a72556c4f655849722b5758744647664c372b7131476150696552744872667066535a4e4c74574c6d3363335a783279656c39587163734d7571696f596a314b4f4f4d4951684256474b70495a6659482f756b59756f6e46594d2f31782f7333386d7139527831557476634e4e664e79504c4a666a3477634d6a7a4b33357579516131386c79752f4c5063746d6c4357303643704c72456a786a384c715737396d646663766a4c6373535549547a77587772364c664a7437736f2b47565330326e6e4e796e6778796636784e4c365a57706a7469576479356333584936497772482f4336582f34324c2f39714c4d65504869545549526976736c5262516d51515a69367871476b31446334713450733058717836714f68673845354c367536504e5a7a334c4d6e436562554f442b4c4e524e74544b62355335527458646f39323045347a30476b634a78613974664a346b744c7132327677382b6a49777833574659384c7a775271366f3977706f3849316e4a6133564f64716675537339683246366a2b47346e71472b5a7958715830316d39393633527134532f50456b75714e39365765476530592f6163584b2f726f364f50563334727338523032723175335a4a65786e6e68624d765565704e357a78397165732b6d7136694c4267626c776534362f322b38627a536f3952394971613261462b484e38447a7261746c3132767a592b45476f632b3573396c304f6a78364c5359744e6a376a4265526149793047696d3235365847322f774243533047682f774469342f3841597a6148526a61365534384d4d536178785556396b537133524e6d4c72633730326c7a3555726c47446355423570367933425a39646830734a584443696e306e746a314f76655366354d537330475a5a736d664c4f55487a6c6c636d65722b6d7476576a32376c346e6d664e6d7264526e33572b38746a4a5546456155516e444a61684e4e7279456b3138486b3236357430323763732b53475363494f56706a782b7174386365733844576b646236776e68687448444c4a633554584538726a326f3135744777317573316d7435543147563547704738324430356d31655a5a38763034456b7a586f656b6146542f4261586e35397447564272496e77616450345a4a5253696f70644b4e493865317573335062646671654761654e38375267657653542b787958724f654b4f3151684b7562794c696a6d59657264386d6c39654e4b7533526f647733505661374a376d707938363849734e7366436d357770647553532f646e756d44456e6f734f4b617450416c493878394f624471646271495a3871634d554a4b5236315179704850667978736e7a704250307073664a532f444d3653676f7a745746445378786153656e78527148427052504238734a7779354d62376c4230315239434e5537504c7656757a35644e6e6575777138553339527247705862374c6d2f456254704a2b576f557a4c314f5a616654616a4d2b6c4447335a354a744f2b3633626c50324a7078666d4d7937632f556535376c6757484c434d4d667a78476a62525a4f57707a536c5679795a57362f57523758747546344e7530654a716e48476563656d39707a3633573438376a5748444b7a3162492f706d3138526443306a6c76555739343944686c707366656161504f4e4c6f7454754f70654c437053795364755444587a6c4c586172334863314d6a707464714e446b6e50426c34746f7354666c363774577a3464737752686a6a65527063356d30536150483465714e3456792f45575a754431587574775570526b72746b315632373366734f545562547163574f4e796b6a79703764754f4b2b4f6d7a4c6a3878505a394c6b656242697974553578746f794f4a4e6d6e6948743773717638516b6a456e37386c2f5338302f2f414c2b54336c786a2f686a2f414c486d76724854776574775355557569374e4f5830575855776b343449354730763768374473547a76624d4834684e5a446a6652537779314f7061683377505349716b536b54524d534763366f41414367414741686742464141415541414141414d41414141414151444141414141414141414141414141414141414141454d41454d4141414141454178414d4145464d424145325943474141414141414941414143457a47796150545a7071655446475458334d6f525573516a434d59714d556b6b4f695167696a4e6778356f4f4753436c462f444668302b4842486a697871432b794d675a64707058784d584e6f744e6e5439334443542f5647634b687330314d4e6c32324475476b68466d646a302b484771783434785836475141327150457279346365574c6a4f4e6f75416246474c4269777173654f4d552f73693177556b302f444a414e6a4677364c533665584c44686a42313847556b4d436241414146596d6f30576d3153537a5931497478594d5743436869676f785877693442756f6a52466f73417578724a37567438352b34394c6a352f656a506a424a4a4c344a304644596a5269616e516154564a4c4e68556a4f436873303053394f3750642f68556244426f394c706f38634f6e6844396b5a6c44477a524a44415a46304141434b4141414151774156414d436f6a524278543871797752646f7263552f37736639686356396c2f73574130465638592f774343502b774a666f6964425255526f4b4a554d6246626a666b6a375550384b4c5147785851334250344a6742685a4e466f386b72796162484c2f414e4244526150477168706363562b694d79676f75784649644536476b5459706c4250796b784c48424b76626858374674414e69723238662b56442f414744326f507a6a682f73576b6873525556586969564251794b424e444167726c434d6f745369704a2f444b765a784c7868682f736a4a4652646f6f575048564c484376324637574e2b63636639692b676f7578556f4a644a49644f693268554e6a5835747430476f2f74744c6a6c2f364951326661344f316f385a744b4368735577787778783477676f712f6774534852496c716b4d41496f4b705155757052545261494978466f39497272545931663646366a5852594264694e4252494344477a365854366950484e68684e66716a545a6654577a5a5839576a534f6946525a5270644e73573136576e6930714e6f6f4a4b6f704a665a46314252646971696a506f394c7159754f664243612f56475a51554e6f35624a365332544937396d615832544d6e542b6e4e6e303963644b7066366a66554f68735678676f7855597853697643524e496b4d6d7847676f6b41454b4b736d4f4f534c6a4b4b63666c4d79424459355855656c4e73314d334a7763452f69495950535730345864546e2b6b6a7161436937474e69302b4c424251785155497234524e7773756f4b47786f7376703761633252354a3664633255503078737638413855364f684459357a2b574e6c2f38416a45342b6d396f67376a674f67436937466550464848474d59716b6c534a6b676f6d78436a56362f5a744a754848333475306269686a59303268326a523643556e6754746d32534a55534a7341414d696b4d41414141434b4141414141414b4141414159674159434741434749414141415943474141414141414141414141414167474141414141414141414141686741414143414141426941426749414741674141415151774542554168674541434741414142514141414141414168674541414d4b4141434b4241425541414141414141414141414141444141496f414141414141414141414142414141425541686943414145554141466741425967474168674f67414141594151414141554141414d41416967414141454d4367454d414541444345417741517741696741414141414141414145417743415177436b41774b68414d414541774151444142414d414541784141444541414d41454b695167454177415144414141414142694741414145554141414141414141414641414d42414142414141464d42444141414141424141784141414d414141414141414141454141414141414d517741414141454d51444141414244454141417745414141414142414959696745466b4a545561755351597454417135782f774163663979536b6e34615a644730786b526b4441514254414141414151444141414269414b594341477741414141417243624d424657624e4844696e6b6c346972594e72674e566f6433306576636c676c625274426f4d5a455955774541444151414d41454177454141414145494149746c4473566b4c4e62714e33323754755379616c4a78644e46306d32317344517231447446312b4b5273734f6f77352b384f565456583058517977496369724a6d785930336b7952696c39786f5832466d696e3669326d4754684c5570475670393132375530734f72684a767769364e7470595751547279565a632b484572795a464266646b304d6d7773313633445174582b4c7866376774773044644c5734622b33496147784759556462704834314f502f63796c4b366137526d7856674142464d424443674141674141416f414141414141674141414141414141414b414141674141414141414141414141414141414141414141414141414141414141414141414141414141414141414b454141454144414244414141414169674141414141414141414141414b4269414141596741414142694159434159414141414141414141414141414141495967414141494141416f4749594141686741674142674141416869414141414141414941474155684445566d6f4d383639576270713847727759734d365657656979504b2f5755312f464d4550736a7068376a6e5756673048714c57594d655a61696f53515368366e322b50506b386b5564726f4a4e3644532f726a695a71707078666872744775372f41416e61357259505544313657484e47737831695a3435446c673953754f4f56586e5a3639487175795a534e52665957612f5661374270556e6c6d6f706b6f363354764237377970516f786f5a316a4f666a3667322b575651575664756a654b616b6b313459306254734c4e667164666f394e336c7a786961782b7074723555736f37523064685a72744a75576b31692f6f4d305a5638575a316a516d466d4c6e314f4c5434336b797934785879523032727736724637754b616350754f30327a426d693158714861744c4c686b314676353471792f5237766f4e6253775a726b2f6764744e74714d68595754516c595759577131756d306976506c55545572315273376e77575a755265322f5a4e7a377569624d44636e2f77414f31763841345a45384f72302b64586979786c39315a547554766274642f774347526444687652622f414b316d505362504d66524d6f4c57356c795638447539587532673056652f6e6969326553656d30736d616642764f32366872323952473334733271626f7a5931466743475a6141414d4241414141414a674d527a3271395136625461746164785a76497a5534786b6e30315a644d70746b4a5070752b6b72594e6d69395161396148624d7337647a2b68477042796e714c314e6b63337074486b7150797a6a6357485736764e46526a6b7a54796557335a524745736d534d553235536c7852374e736d32346475306d4b4d456e6b634535534f6d2b324d2b336d62394e627043446634536372496262723977327656787871655343633146786d65304a753332594f7330476b317646357353626937544a3333374c704c4c6e6a67306b74526b66307768795a3544754f2b617258366835486b6b7356317852364e366d355132484f6f486b4f42775758467a6c55464a4e73754a5735307670376439624235384f4b6f7678794b70375a75323235484f65444a44672f7a706e72326c793473756c775477535573626771614d6c766e477078556c396d725133646a57374e714d2b6f3233543563333532633336337a356f59644869684f6f7a5a327653585353583252773372645867304a4a37484177576f7a5a59343863736b7050704a4e6d78577a373142762b725a75766c475a365764377a707a31376e4a4e396d376e5a3943656e6a554e7533785a59316931432b396e7365676a4f4f6b77786e664a524c464a7375696338377455786947636c417841464d4244496f4141414141416f4141414141414141414141426749414741674141674141414141414141414b414141414141414141414269414267494141414141414143414141414141414141414141414141414141414141414141474959556741416741414141415955674141414141494141416f4749414741414141414141434142674141414141414959414959414141414141414141494141594149414141414141414141414141414151414a6c597175585a355a3677556c7645484775735a366d7a796a3168337574632f4d44706a376a4664687475386143576830796e7159526b736146722f55573361504533484f707a616153534e4e6f2f534f6a793658426c6c6c6e467a676d5056656a636338616a6931556a5867612f30357432625861365734545651553349394b523566746d7331577961373848715a316935487065504e6a797755386372692f444649354c31744a4c5134615679356d683043312b382b337046554d474f4a745058467244704b6e53624e353655777778624e686c4664796274736573525244306c6f4d547854684f664e485375446a67635635554b5263426e6448445976544f62557a6e6b3175643857377047776e365732755750685530627256612f52364e58714d3667616a4a366d32714d7637573061335477346256366655656e4e79782b314e754c37505664507150667759386e2b4a57655865706432306d34366a424c543231474c545052646f762b473657312f644c5a346c477439575a4f477a546c3838306a6874713147353538503448416e546d6470367674624b2f7744796f7876526d48484851354a2b5a794c50474730735834505347687050554f55736879753762666c3244563473324362635068733957527876726945587475422f4b79456d5632756e536258717678576977357675697a63645a485261504c714a4e665175724e46365464374e6a767a794d44316e6d6d7448677772784a396b732f5566527a2b6d77612f314472357a3531432b7a722f355132766878756469394959495132705a55716c4d366f573366696d6f345453624a726471335045384d7565427673367a633033747575555832384d6a4f61737764792f366472556e3578534961654f37626e3157484f767769764e4b347449376a54656b6f3532386d757a5463354931666f7a4243657679354a5158537048705262624b6b6a79336650546558624644553658493551556a7466544f357a334452535757567a78466e7144477037527246396f4e6d6839454c684457642b56455865574e3276316567496b5169374a484b74517741434e4141414145774149346e582b6e4d326658797a347072684a70757a72734f4a5973554d66384168535263493374454a48412b75636c596444692f56794f2f6b6563657534547662737a5678536e4173397763747338486c335051522b5063506171372f626f386132436f3770704c6c346d65792f4c4e357045674749777244312b6b57743057665376726e4538513175677a6144555a4e506d6a5665483930653873317576327651362b4c2f4559564b6678497375683556744f2b36766133425171574c374d372f5165707476316967707939764c4c344f573362306c713848504e7047736d4e6633446b4933444a31635a4a392f6f7a63315565396642776e72614c396e51752f3735732f5375343574626f736d504e4a4f574b6449316e727276486f4366556a6a74723132586274544850434b6c543848597739627a63312f553152797579364c4875477668676e4f6f74486472305a74502b504d57324532743237315868312b736870317033467337534a7a4f67394e6144525a345a38557075534f6d4f5756697067495a6851414146417844414141434b4141416f4141414141414141414147494147494141414141674141414141415144454d4b514141414141414141414141414141414541414155444541414141454141414141414141414141414141414141414141414141414141414141414141415541414141414141414141414141417844414241414141414144454d414151414141415177454d4b41454d42414d414541414177454141414145414141414141414141414952495255717553504b5056367264385458325350574772504a2f56386d743278557a706a375972305852702f67394b762f414e4b4a6b30614c5137357476345444475761704b4b564e6c73392f323245584a5a655642484a2b755977553949645436637965377457462f774232756d634a71636d72395137704867702b33644a48702b6a307364487073654348694b4c54626a66584b76426f2f77445764483662673437486f307a6e7658462b7a70556b64463662762b44615676374333394d47374d5058366c6154523538372f75524d3031473961616571323355346f4b354f4a427747316144507632737935732b5836492b54736f2b6e647568436c6973356a3072754f4451546e7039552b45357a4f7a314737364454786335356f6d74314a486e66717661744a6f4d326e2f445134387a30585a70387473307637486d4f3937746b335057517976464a5946306a30375a3270626270306c3846763759725665726c657a4f766a4e45703947782f345a4e2f65526c65724657793566384179496f394766384154737658794e2f6f732f796138757452787672622f70756e2f77444b6470527958724376345a432f695a69587a46766f2f53662f414566476a582b745931704e4e5034556a5a656b34337338482b724d2f6664422b4f32334e6953756156784e572b552b6a42394a5a466b32664858777a707a793330377572326e4e4c533675314139446a7575334e57745447714a66617334777478532f4161762f414d556a56773951594e527134596343744f564e6d3431394c5161322f437779494f413946547656366d4a365165632b69594e5a39524939496f75587449314f395263747131712b38446c2f524b75577454753669646675666533617866384136626f35483050536c7266765553792f70795072486f4546534a6742797252674145614141414149424d49716c6d78516e7863347158324a6e6e473659647a7962746c6c425a58465358413944774b53773456503833425762524e6e49657364485055625a43554957384d6e493745707951553479684a584753706944774c446c634d324c4e4756634a4b523752745734347479306d504a6a6d6e4e4b705250506437394e366e6273765053776c6c77534e446f74627174446c6c50426e654f54386f36654d6f6e70376d37526a3539526977553875525274306a7a462b72643055476e6b69612f46714e7a33505859567a6e4e746a744e76594a3538575048484a4f61555a654c4a4c754b6b75302f736376366e77616d573034754557355153756a683944765735364c444259383761586d4d795347337343523435366b68703462316e3969754c5373793876717664732b4e726e4745545234644e7174646e6a48484357544a4e3973736d68312f6f6d47523574544e782b68524c2f584d56374f33794f6e3254625034626f6f59332f614e584d35373176427654614b58784364736d3931593533306d6b393477326a3179752f42345870395a6d3065614f58424a526e3573336b50567538526657574262456c657552644679504a59657339786b366267656c3762714a617251344d30767a53585a7a73567367454d776f414143675968674141424641784442434741676f4141434141414b4141414141414141414341414141414141414141414141414141414141416f4141414141416741414141414141414141414242444151414d424443674141414141414141414141414b4141414141414941414141414141414141414141415967436d41674159674141414141414141414141494141414141414267494170674941414141414141434141414141414141414141596743675178424b526f396473576b3132525479785276414e5373574f555870586231344a77394c37656e644854304265354e5268365853594e4c446a68676f39555a564571416247723344613857344a4c492b6b5a656c3032505334495959666c696a4b416d7a534e436362544a674e6a6d746436643065736d704f34794d5842365430634a776c504a4b6450777a726d684a47746d6d6c312b7a61585761654744676f526a347047646f394e445336664867686452526d304645376a54583637525939646765444a2b52744d57333762693047463438546447796f42746449704774334c627365345956696d36566d304369624775304f69686f734377772f4b6a4d6f74455859352f633967306534766e4e75452f7646477078656a6345504f716b647451554f354e4e4e6f646c306d69376846636a503147425a384f584537716358466d55464459304732624c6932374b35593579646f33314441624750714e4f732b444a6962705356477432725a734f324f62787962637a64554d625541417a4b67414141414141514441434453744f6951784149546954455859716362564e576a533676594e7331636e4c4a67536633535276714652646f35694870666138617059372f4148534e356730326e77525378595952705661526c55464632696e676e30315a717458734f333674506e6953663353527536436873637448306e74616162544e7a70644470744a2f59346f7271726f3246427847794b2b4252714e4e68314548444c6a556b5a64425132725466774c617274365a413969326d5469337059326a63304351324e522f424e732b4e4a432f76534e7269785178516a4345556b695a496c6f5941426c6f414d51414d51414d5177414141434b4147494b41414167414141414141414141414141414141414141414141414141414141414141414141414141414141414141414141414151784641414145414141414d51414d414169674141414141414141414141414141414141414141414141414141414141414141414141414141417069474941414141414141414141494141414141414b41415943415967414141494141414141414141414141414141517846514141414141415167474143474141416867416747414e454177414141416f4141434151774142444142414d41454177414141416f414141414141674141414141416f41414141414141517842414141454168674168674141495941494b4741414177436741414b42694741686941426749594141415251414141414141414141414141414141414141414141414141414651414141414142464141414141414141414141414141414141414141414141414959696f414141414141426941414142574c6b676d3067454d4c73774541444541414141414441414141454d414141496f4141414141414141414141414141414141414141414241414142554d414169674141414749416f414141414141414141494141414141414141414142414255414141414141414141414141414141414141414141414141414141414141414141514141414141414141414144454155774541414141414141414141414141414541414141414141414141414141414141414149414741674159434741414142514d51414d4241417844454144454d414141494141414b41414141414141414141414141414141414141414141414141414141414367414149414141414141414141436741414942444142414d436f51444541414167674533514d78382b54686a6c4c3749724e72413132343438436a486b7554756b594f33376c372b6f344d356658616c537a536164327a4c3271546c714d66676d33475a37796568495a56466b307975323067454d69374d4244436741414141414367414141414141414141415967415941494269414147416867414142464141494141426c5168674246414141414141414141414141414141414141414141414141414141414141494141714741686749414141414242444141414141414141414b41414141414149424141444141414141416f414141414141674141414141416f41414141414141414141414141414141674141414141416f41414151774149414141454178414d41414b4141414141414141414141414141596867414149426749594141414141494147414152514141414149436f5943414267495a464141414141414141414141414141414141414141414141414959676c41414251684568426d6f73774e6136775a4c5672692b6a505a6861695050484a666f79735a656e6c6d61546c506c78362b4562585a37657378704e396555617a4a676e6a6b347a54693033566e542b6e4957733252787033566d486d342f334f7967575755784a6d343953626c534e644c63635563337458556a4b795334776b7a684d32586a715a535674386e64684c6450516365525453614c445762626b6c50545932364e6b476f594142464d4241464d424141774541444151414d42444141414141414541774541444151574249517241477a4141436741414141414141414147414152514141564141415251414141414141414141414959696f41474143414141414141674141414141414141414b41414141414149414141414141414141414141416f414141414141674141414141416f414141414141414141414141414141414141414141414141414141414141414141414141414141414141414141416741414141414170674941474167414141414141414141414159414246414141434749436f41414141594152514141414141414168674141414241414141686947464141414149414b6c41434149414169796f6932592b54704e6c7a4e46752b746a676a7758637049745979394f4b31375539544e796261355845364c594d79347a676a54344e76316d6f584f4d45305330546e704e545072684a50733575474d316476516b7832613744726363344a756135664b4a7a31754345473554534e4f32312b62496f516c4a713152352f6d6c3775706b38662b4c776a61627275726b7059385854527a326d6b386d574d7556646b724679656c6266486a70635372756a596f77744e3169677630526c706c6a7245786b4c485a5653465a4673784e526e3971484947325a5930632f707430397a4d38636f4e665a6d3955676257415173646753416a5937415943437770675262494f5351304c41744658496a4c496f2b574e4a746332466d716e75474a4e78737938655a546a667744624a734c4b6552693539586a77786c4b557641546250636f72354253542b546a7332365a63324e7646476137386c2b3237724f65574f4c492b364a75473436314d646d50484a4671374a6330477472774d64356f4a3032724976553430764958624b4177487273536458325a654f616d724173414268514141525141674b68674141414141414141414141414168694141414167414141414141414141414141414141414141414b414141414141414141434141414b41414141414141414143454d41414141416f41414142694741414941414141414141434141414141414367414141414141414141414141414141434141414141414367414141414141414141414141414141414141414141414141414141414141414141474959414143415943474141414555414141414142554141414341596741414541454a546a47725a4a6e4a626e726e68314537644b4a59786136784e4d44583644554c50676a4f4c365a6e324532596d794c6b594f7131754c424275556c5a533353657131437734354f7a6c4d5566346c714a747766434a4856367a4a72616a424f76302b54706475306a78595535567961374d316a397a4a7834593434526846556b6a423175677735752f62566d336f4b4a7072746a6873753336714d354a572b756a466c742b736e434f4e716e385765674f4b624979676e38445446342f77444c6949375471566875626a794e5468782f3174343271635a486f6d6f6933696d6c356f344345562b4c6c4b32333768474c6a4a593943307a724642666f5a615a67595a4a596f66735a4d5a7153365a714f38394d6b4343594e6c55535a7a2b385a2b474e705073336b326350762b5a764c6a6a465730474d37714b64757a2b374f4d6c3031493732443656486e2b7a34357a7a7058586430643747306b524d4c345a466b4a5a597756796445584b6a6d743431793450477158666b725679303669475745316358614735706474306a6d396c31537951634c2f4143784d6a633959734f4358617478477a756d6d3168724d5753626a43566d52794f4232765677392f484b543662377337565a6f635537524e6d4f5732524b5647673175766a445078557530692f56362b4d597269614c2b485431664a79623764324f354c6239473630753536664c447649617a58376d723434354368737331483648527238327a5a303654666e737a636d4c33745939586c552b556e3262505462706c5548446d36526d597654366b6c3771636a46336251344e4e4f44786651326a506457645a7873384738516a43546372615837307a523574524c5635626332757a4477347332574c6349644a647372345a594e76673031354a3347386e5931704e4e70494e7a5663657a6d345a497255547959704e64756a4b302b677a61794435646659334d4e687763557064716b5a33573575713857357a6c6958693069483433506b62547638412f704e7467326654516a54695a325052346f4a4a524e79313130352b4c3147615470537375686f74524a4a7a66646e515178526a3452656f6f314e71305748616b736e4f586275302f73623348446846496d6b4d306f4749416f41414159434142674141495967415941414141414143474143414141414141674151414d424441414141414141414142414d41414141414141454d414141414141416f414141414141674141414141414141414147494170694141414141494141414141414b414141414141494141414141414141414141414141414141414143674141494141414141414141414367414141414141414141414141414141414269414141414141414141414142694141414141426749594341594149414141454d51536f73344c66487731335a337a4e5075473351315558635532567a7933727731657936764573546a644b7a645a4e5a6968356b63584c51616a527a584674396b356166553537715530364d37596c79313662625637772f716a6a66532b5456724e6e317333437258797a4b7737486d61787554535879644e6830654c4658474338554e6b6c767468626674654c547136626b62784c6f6975695a5a48535451426f594656573052614c475241777331384a6673656236784b4f706b38623735646e706d564b6d6562376c6a6848555a4f4b37624d31787a5a574c63633071776333564851375573392f586642757a52624e6f595049386b34323264706a676f5270456c6178326c6e314377777473316d4864666531437847713333504e4f4549544b3970775a4d6d626d37536961326e64653755646a665278572b4a5938796465553264684b63597275564934726674543730345178777537746b325a2b6d52366278336e6e6b624f75633145383630656f79364b504b4b61697a6254336a4e6b7878344a6b6c535855625458626e777459326d63586e7a357375546c6b58563062335337646b3163336b636d6c4e47315777615a7065625265356d34355a755777616e4a68635843564c777965535758575a504e2f435230637467777056486b5a6d6c32625436666934774d3670384f755757325a6c4b45327066533758376d546a7961695434384a702f71647938555a56614637474f3734717871756b7730357a6274466c64504c627552307178526a34513434307642595752755243714975455757466472376c30447049346e314370504b6b6e327a745a4f4b54624f5331735872645a46552b455a7276376f6d6d636d303272543434366246506839636c5a6d7a304f4c492f71696d5a654c48474559704b6b6c52665345785874696e4867686a696c474b52636f70453068304f31715171474d4b4c706f44456b534b454d41436759414167474941414141414141414141494141416f414141414141414241454d424141784141414d42414d424141774541444151414d424441414541414d51414d42414177454144414141414541444541414d414141414141414141414141414141414141414142414177454d414141414141414141414141414141414141414541414141414141444151774141414141414141415144415177414141414141436741414141414141414141596741414141474941414269414141414141414141414141454d416845576951424e4d65574345764b4573474f4c36695a41424e49554f686a4c6f524a4149426959434b4169786b5755565a4571646e4362786734353353386e65543752773371425a46714d6678466d62484c4a75397157474f6a6931584a64544d6e556175474a50753352796d683075763975386375724e79397479356e46546d31384e6f356b337079326f31457452714a7450356f3758537977344e4e423831664873357256374c6e303870634c794e2f4b4e72743232355868537979664a684a4c73395271737564714f4c75502b4a4778306d323434584f634c6b305a2b445334634d4f4d494a47556f7047744e7a4671737532344a71755068394378375a696a3847336f5937563756474c4448476b6b6b714c714a4158536f63535655536f5a644b534141534767496b4641424353364e446e39395a5a4a4e70485146627877623751484e786871395735516c4f55565a7439506f73574a4a31325a3668466633565a4a45516b69564447565451784167706a4542464d42574d414141436741414147495943414141414141674151414d414141414141414141454177415141415141414141414141414141414141414141414141464d514141414141414445414445414141414141414241414141414141414141414141464d42414177414141514141414d41454d414142414144415177414141414142414d4145417745414141414541414141414146417841414141414141414141414144454d414141414141414141414b41414141414141414141414141414141414141414141414141414941415141414141414141414141516741544b68574a736a4a3063377558714842742b62326e696c4e6d354e6f364b794c646e472f7a706f47756f534d725465714e426e7a2b30376861564e6c3152307a4f63333748634d553147335a304670704e4f302f444b386d4f4f536d31344d324a574874796c2b4678636c5463565a734b46464b4d5568746d4f315a43346f6b6b6c34527a65342b6f4d57687a72464f4475724e336f39586a316d6d78353864385a585265305a6947495a644b6b41674b47434659424567465a4355306b3366684157434f6668366930557457744e336264585276755670554e43646a4b78324e4b6b4172474e426941434232534b784f51304c674f5731652f52303273656e63653752306d4f664b455a6664574c434c67496a496f47496b525141414641414144415141414149495943414141414159674142674941474941434141414777414141414167686749414741414141414251414141414141414141414141414141414143474141414141434755414149426741414141424141414141414141414141414141414141414141414141414141414141414641414141414145414141414141414141414d51414141414141414141414141444541444151776f4142414178444141415144414141414141414244414141414141414141414141414141414141454d51414141414141414141415168444973714b354f6a796231646c6b74796b6f7670706e72456a79623158775737535576737a7268375375713254614e444c61744c4f5742536c4f46794f57395237537475314d4d2b4676684d375030394e6677625458493048724858344a344d656d5754366c4d314e37526e656c64307a617253657a6c664a77666b3675576646447163346f3462305843734f6f6d59337243626872734e536154786b314c523645382b474b5465574e4d554e5269794a7545307a794452346478335a787861664a637366567554536f3766594e7131326779546c714a4c37556e5a4c4a465a2b35625a6f645a6c686b7a4f7030626a5459385744444448692f496b65662b73732b5444723863594e70504164687330355432725275563378466e69446265374736354b78764a474375556b6a7a6a3166714d75485861645970796863664b5a716444693372645644324d302b4d4654626d305874386256363548506a6c64546957636a7837577733666138324c336338314c7a5676696569374c755838523061795038384855695749336a6c5349764c42655a4a476a336a646f626670584a743832365277476e79627875756566735a5a495448663148725379786430776c553453562b5974486d30394e366732374a422b36387138733776545a70354e4e444a5071546732307957612b7162616253624270667855632f76546b347a766a5a30366b6559365463732b50664570355a38584e706f394854354a76377030572b794d6a6e2b6f334f4d5639556b6a794c50762b76302b727a526a4b33444b79374650314475536c6d6a4638574c6972316b664a486a756d336e647442716c4855536d2b4c37684c3748716d6c314d64587073656f676d6f79526e517a584e6f584e6664484a627a726479686c65485451366138306150384a366e6165626e2f7743724c4962656b3252767338753048715058615057504671354f6344307545347a6a436358616b6b312f37466d6c6561656f4d767462764c7137794b5450554e4b32395067663378785a3552366d582f474a642b576a315452762b72616237653145756672456a4f524d6769527955786b52685441517941414143674141424141677a73774541517745496f6b41674159437341757a4156685944416a59776741566741444541444151414d4244414143785741774659674a4149624141492b41734351794e674249514141414247774a41494170674b774159434377474172437747424777476849425746675345494147414145417841417745415577454b77474d514141414144415172416b4167734267495145684149426741414d42414177454144465941454d42414177454144415142544141494141437741414141414141414141706749414141414267494147416741414141674141414141414141414141414141414141414541434152555679504a2f5743636432636e346344316d523550367a70376d342f4d634a3177756b59576b30572b5a744644324d6a574353744b7a50307670545735327036724d6d646a366435505a744a31564b6a654b497551784e466f385769784c446a5334704842657465745467584731566e704e5565646574473172644e2b754d592b78752f53326e6844624d57534d49334d3665714e4236572f3652692f65534f69614d31586d76725670613754382f6e43645436626d35624a6f35484e6575585766522f5a346a715054312f77625233527533394d48496573376534596e384c45645436637851783752704a786a546d725a796e7258725877722f4b4f783247445731615a4e4333394d694e5a3676546c74716e387152726652584774616f6d3539564b74706271366d6150306132732b71677648457a39425436766d76786b492f45566448542b6c394d744e7457475854655275527933724b45317249546669614f69394a36333852746b6350585043572b6830306f786c3551715369306c3843795a63654b446e6b6b6f785833466779777a513551647861644d79504b597a54337863766a557448716b597051615879756a797451557436647a7138394871395647764e524e5a65346b65504c4869653853684e4e78656f5058635559346f516a424a5255565352342f6b61687654794f4c367a3352362f696e484a69684c473754696d584a584165744d4b68724d4762477535514e2f3654316e7637644f447534546f306e72504e465a39497676426d7a3949597547337a7a6665624770705854616e5068774a537973306a3956625a43636f74534f4f395362686d3157746c434c6c474d446f3972394d615438446a656535796d72477042787537617a48714e646e7a59494b4d4a4e5565733764316f3948627554777750497437307550523633506878576f4b7150574e74532f423653763871424d74476e416570356364356c30756f6f394f3044765361562f664645387a395639626f656c6262336f4e472f7669517a3959704779524d676e3050706e4e556b795242644569426749417067495944415145564669494f5175527656595741325135437361467469736859574e4356676d51734c47685a597249636863686f57574b7948494c4c6f326e59374b2b5175524e47316f575657535447684f777368597247684f774957506b58534a324b7948494c476c547352477773614537437946687947684f7773685a486b4e433278575273646f435359374957466b304a324f797473536b4e43774348495849614667454f51636870566c6973685963686f5473566b6553453258516e324d68592b51304a434932466a516b4f7975324359306d3131697368595754537032466b46494c47684f79566c56685a4e437752477773614572416a594630485a4a4d726243786f57574258592b524e43517249324b7936466c694932466a516e5972493241304a32496a59574e43566a736859724768594f797177746a5174734779726b466a51737343466859306959456241615649646b5245304a67515447324e435179466a736144735a43777361457749326863686f5441566973676d4243777361457749324d4b5945626f4c434a4345414567496741786b51416b42477832417842594141434142685967416b4247777361444151724162496a4556455763583668324c4e754771686d78535336706e614d54706c476f326e535430656a78595a79766962576830686c5642726f35483148744f625879773563583538614f7759756d684270646b305758536143454a706372625a7433456b7568676352366f3266507273756d6e685638595562765a73475854376267775a4b35524e7934706953555630674f4b395462547164646e77354d4d464c364b5a764e6c775a73473359634f64564f4a7561512b674e44763841704d6d72327a4e6878567a744d35373076747572306566504c4e4252636f6e65754b5a4651532b42736158654e7178626c706e6a6c314f50635a48424c536270744f706e504446704a393858314939596f7265474c38704461616562536c76323579574c4a46776a4c354f34326e54354e4c6f49595a30357873325848704c374571477a5479783764725034397a574c36506473394c542b6d3638524c58434c2b424e4c7676345a6437486a47374e53334c504a4c7555326a59614450756d686a6d78526c6b6a396b7a46316e47473954373665644871384d57484c6a68394b61344c746f3161504c49626275653536795075772b796666535236686f39446a3065434f4848616a46555a6b4d574f5035594a466c474c56655a2b7064717a51316b7452703475554a514d4842763841756d505472545167322f4350566e6a6a4b37566c6634584279356531425038415962486a2f77434131327031613936456b727474396e724733526130754350776f4a49797659686166465769314b6962486e667162535a636d34715369337968534f2b3278546a6f4e4a435371556353544c705963632b3552544c34704a46743279734752485a4653736c5a58597870566c69736a59305153416932413048593749685947735776307a62724b682f6a645066396f656372574e64386e5a4a61334c385450722f49662b7a356e7a6e4a2b4430503862672f7a5545745a675470356f6f383557736b6e334a696c725a796c626d7838682f37487a664c2f77434e364f395a7036367a525a48487138636c62794b6a7a743631702f6d5934362f49727162374879482f414c487a664c2f34336f6231326e6a64355630516535615a64764b7150505a363263764c4966696d2b6d7a5879452b36664e63332f6a6a30542b4a615434793248385230317138703532745531344739564f2f492b51782b36664e632f77443438586f3064773073764756424c63644d727649756a7a7061743964396c63395a4f2b78386850794a31585066487734394a2f48365a656369443862672b4a4938342f47796639346c2b4e6e3853592b516e33506d6566384138636569667844547030354465346161725756486e443165532b3564422b4d6d6b366f6e79452b35387a7a2f41495976523437687035582f414569453979303671386952357848575a4f4e7362316b6d7162364879452b35387a7a2f41495236502f45644d354f4b797130532f4861656b2f645235782b4d6c46576e324e36795853736e79452b3538317a2f41506a6a3056612f54743073714a666a645038413530547a694f726c647468505650376a3543666b7336766c33723455656b66693850786b69483476417638417578504f6678637638622f334438552f38512b512f7744592b6335502f46486f333476442f6d5244385a672f7a497338362f483546346c54443859302b70794879482f73767a6e4c2f77434e364a2b4e776635694a6669634c2f3769504f58727039506b7958342b62542b737a38686675664f636e2f6a65694c563448347949467163542f774335466638417338352f485467767a73467235722b2b506b4c2b532f4f636e34505270617a5477567979786f61315746713435594d38342f4853663936304c38666b716c4b76324879482f73664e386e345053667847502f4d6948346a462f6d52504f46724d7656357064445775794c723357506b4c2b5238356c2b46656a505534763879496e71636153664f4a353074644e644c49772f694f6171356a35432f6b664f5a2f68586f33346a485638346a57707876784e486e433348502f414a6a482b507a66356a4879462b3538356e2b4665692f69634e2f327341656f78722f75772f33504f7678307675782f6a4a66346d506b4c2b5238396e2f34713947576247312b65502b34652f6a2b5a6f38342f485a6256545a4e37686b2b636a48794758354a38376c2f346139442f414257473639794e6a392f472f77432f4538342f487975314c736b747779722b382b7838686c2b532f4f352f2b4776526664677637306639773936462f6d5235312b5079394e355a582b344c585a597476335a4f7966495a66632b64762f6a7230645a6f50726e482f63547a5158796a7a68376a6e7466306a364a7933504d2f4f526a35484c37723835667772304e353466346b4876777466576a7a70626a6d7176645a4b65345a7052723342386a6c397a35792f68586f767652757553736675705832756a7a6c626a6d3430737258366a573436702b637a48794f58336838372f3656364a373066385347737361753065645064632f2b59525737616a34797366493566654c4f7376345a505376636a2f69582b3476646a3139532f77427a7a5a376e71506e4c4a682f45745136724b305a2b517a2b3538352f365636584763586479492b37472f4a77475065732b4b452b54636e38474e2f474e564f546279452b527a2b37587a6331767472306a335966346b4a356f4b767252353074307a4f5063684c635a716b70794c386a6e3932666e662f5376522f63583352465a6f50784a486e6a3358552f4f555838573148784a443548503778666e4a2b466569383166356b4e5a4976773065645133544d2b563570496a48646454385a47506b632f764435796668586f2f4e5035524635597071326a7a353776714b6934354b5970627871704a506b6b5435484e666e4a2b4e65682b347675673931486e6b74343153644b524e62317146565348795049664e7a386139426331397755302f6b383965373670762b315934377671557637516649386838376a2b466568325263306a7a2f77446a4f7072764d4838567a76786c592b5235457657342f686b39413570687973344b57385a3664544972657454542f70666766493869664f342f686b372b783263422f47645a302f655950664e59306c3778506b75582f437a7263667779656757467334423735714a4b6e4d48766d727175592b533566384c3835682b4f547638416c514b566e412f783356664d684c6539576c334e44354c6c58357a44375636427946794f432f6a756451376c32522f6a32712f78646b2b5335543576443756332f49566e427666645532502b4f616e2f41426a354c6c54357a44375a4f396a49646e414c653952462f544e452f77434f367055314a4d6e79584b7336336a2b3254764c46794f41667148575856784a5031427146344879664b313833782f61753975784a306a69463669795271772f6d584c502b365435546c2b792f4d3865742b58636368386a686f656f737a644e424c314c6c744b6b5435546b2b78387a7866356431795175646e465031426c68464e785473692f552f2f774253664b386e3258356e697633647679427a4f4b2f6d5366464f4d4c73663879792b63614879764c396a356e692b39647059374f4a2f6d615458396b69794871613564346b683872792f592b5a34767972732b51755278333879712b385451352b70667155566a56664c4a3872792f696e7a50462b56646535436275757a6b333669662b574e2b6f6c5366746a35586c2f46506d7548386e585768386a6b56366b685865466b70656f494e5846452b56356678583572682f4a316a61437a6a38652f7a6b2f7946793952593379584271683874792f697336726876397a7172446b637044314a676e6451482f4d7547713972736e792f4c2b4b2f4d63663364547948794f61652f596154727979722b5938436d3450444d664c386e346e7a484839636e564f5175527a5038785946563432724a76314270312f6348792f4c2b46506d4f483833523246733579487148537a66515031486f3654555a31796f664c383334552b5934767a64485957632f77447a446f6d31555a422f4d476d6639786b2b42792f68562b5078666e472f734f526f59372f6f70786b317936644e466a3372524b4e32796642355077712f46342f796a63386857615a62787046464e354f78766564497175512b4679666a543476482b55626977733066386230715437666d69332b4d614c356d5067386e34315a79386635527437465a712f34766f756d356b6634766f766a495068636e34316669386635527472465a7176347270506d597634707062723352384c6b2f452b4c782f6c47327347617a2b4b3652655a6c554e343073355358507750685a2f696646342f796a62416131376e704f6e376776346c705846763342384c5038543475483552733746794e637477306b762b36522f69576b2f77417766437a2f4142543433482b63624d477a5778334853797573704b573461524c2b304877732f7741543433482b555a31685a722f782b6e2f786a6a72744f3166756f66447a2f46506934666c476132526466597866786d6d2b4d7147395670307538714877382f7858346d48354e526e395036485561763841454f486432622f484651696b6c5352695057594970745a4973655057344a78557664697246343876736645772f4a6e64425a68765659666961592f78474c356d6b5473792b792f45772f4a6c685a6972565966507549583472424b4e724969646d58346e784d50795a59474d74526a71334a466a7a5153766e45646d58324f2f4837723079646d4837384572636c524a5a3864587a5646374b642b4c4d744279534d4e5a6f53644b61425a344f546a7a566a737632575a3473336b4e4d77336d684835513171506c453762396c376f7a42636b5933757469353254747139305a58496649782f63514b646a74703352667951575930703855324b47546b68323033486a6b737161564339316f78564958492f535048384f665a6c504932513575796a6d786368745a78736835477872495939685932646b5a4c6e32447947506242737354736a4957526939317370543748547370325972566b6b4570746b4b596e6151326169536c4a456c6b614b2b7846326473572b34794d7074706f6862465957597a374a7162704b79546d2b7579697775777662475538765344335759784c7234497a325973685a47506d7a46545a4f794a634976357353794e585a6a7554446b364232526b504c59653431386c4362477873374d56334e2f636a7a6276737273566a5a3278647a446d553246673749795063443354487341646b5a487550376965516f735673485a462f756837686a6b67646b5865347966756d4f41533454374c2f645965342f7555414e6e5a462f4f5672736675475062477237594f794c2f6345737a6f6f746a4232592f5a6637726246376b69705073545954736e325838324e5a4447354d4f5645743066446a4b3930486c4d546b4b7a48664434555a6279667150332f697a44354d4f31354a38534c384c466c504d7950756d5079494d66455763635a66757464324e5a6a44622b4c4754765834654c4e39336f68376c6d4f6d506b4f3950687966526c65375165372b70693232424f395068786c7249794c7974474d6d776b2b6a586566446d32597371717950756f784c48616f6435384b4d723341393078464c73546b3278336e7734792f63746a3977773078386d6a55794c78786d653932487547487948795a646e776f7958503953617956326d59546b7871665937693863307a5065594c4b596a6b4c6e324f35506854374d78355834746b65624d626d4f796478384f54364d6a6d4e5466334d66796d784f59376a735a50754f78764b597649566a765068786c764b68632b374d626c3052357445377963635a637372704339356d4f35644565544865546a6e325a627a4e443939305966494c4a33487773667376655a74696556736f47547561374d667375393531544a653530754a6a4e4d614d3349374d562f757368376e646b576b512b53624a6a6979705a5652587a6238464a4a4e445a32534c566c6b6b503357553942304e6e626a396c71794e736e376a544d6635386a7673647958434c355a334a3230523932544b726f566c6d5232592f5a6b72504a4a6b6c6e6c585a69574859376b2b486a396d5a377a66794b4f5a7074706d4a32533845326e7738575a44557a682b5554795458642b5444756d536c4e74445a38504866706b6535304e5a50314d58734c4c732b484756376c75322f41504e4f3773784c622b535337486366446a4b65706b314839455157566f6f7239424f797a492b486a396d52377a4a4c4e4a65444638456f796b6d58755068342f5a6b4c555354426169567532596a6659574e6e77736673792f774151304573376c386d473243473466437739366250424b4f544b75636d6c2b6e7950506e6c484c4b4b704a4d31696e4b4c3659504a4a74746b33452b446a396d66373939683730704d31366b305752794e4d584b66592b446a396d6173375879784c5033354d504a4e4e39454974695a663454344f4f6d793939763559504d36585a726e6b6467736b6939302b7966416e325a367a2f414b7374393676714e587a70325439354e435848374a6543665a7356716d6f2f486b684856536b6d6e614e65356954642b545735396c2b426a712b47322f455037695771646d7455784b544e54562b6a48792b50326250385131644d5564564b3261336d5455306939734c77592f5a6e7655536b2f774131424c4f31585a7265626679484e6a74782b792f416e32624838544c356b795834715456636d61707a59756251374d667376792b5032626238532f754331546a346b3061705a483977354e76794f7a48374879386a622f695a2f77434e682b4a6b31584e394f2f4a716e6b594b62486268396b2b41327931586e366d4876766b6e7a5a716558366b76636651376366736e774933443155327637526b5a617961566535493158754d486b51374d50735468303344313070726935796f6364624b50536b364e4973672f63485a682b4a65442f62644c5753556d314f566b6e724a7133376a374e4a376f2f634a3259665a6e34482b323468713874742b37497959626c6d5472334761474f52496675664a6e34654831784c785a6665756a5735352f38316a6536616a2f414457633473722b4750336a4e34755038576668386e35354f6a573636686639775574317a74337a64476739306a3772706a3450462b4b7a486c2f504a3053336655507233535038573143747249374f643539574875452b447866697662792f2b544a716d5247434f7533307a4151414f774749496c6651723746594c73734e4c497273336d3237642b4d354f5867306b5638486337436e2b457a5276776375624b34345778787a39794d625073326c6a69714758367a58367259395469536c4671534961374e4f47706d75566d34327663705a56374d6f5878384d3537354a6a4d74376a6e4b3479536e47626a4a55313843374f67337a53384e52372f784e315272644a6f3875716d34514f75504a7648653354756d6d434a6d2b6e7338754e4c4b755269367a6264547059526b3466532f6b766650756d4f63725544534a786a7a6b6f7057326233487357647755386b3478542b426332376c706f55466e5135646a6e48447a7854397a72344e443762556d6d7166796d4a6e7631553345412b5463616661637562473533305735746a7a775379583054346d4f39624f364e454e52587a344a53673474702f444631382b44657a626f384778353534622b367330326f307558547a347a564e2b44304c5154613065465364306a55373770355a6f5179775638556558486e747a7372487279356653615838566d574f306d5131656d2f43355a5970587952754e677878577375583270464f2b5739666b5648575a2f723766384a767a37384e434e475667306d5855545559524d31374c72466170576237357632333352707847627139446e3063334849722f5647496f4e6c377472754967305a4538475848446e4b445566686d4d37593273757a6f757734705a4a714d653255726f37585a4e45734f6d2f453549726c4b7a4f664a3234706c577430327854797863736b6e466b387670334e35787a5469586137654a633344424a63624d4b4738366d44696e33477a6e4c793379787471382b6e7a616566444a44697a472b546162707249367a4a43554931785647714f7374313561683179665276644e735766555950633538624e4847504a72756a305365623850746d43667773615a79354f544c485776716c726e6376702f4a6a784b555a38352f59307566545a634c724a44697a66616664707979786b3330326248666f4c384373715269637563736d535337634f4b7955764a5732642b3777365479625a6e6158513574564a526776335a67526a7a6b6c666b373351367a52366644676844756270534f484a6e6b566f745a7338744e6763322b364e485450534e37537962624f642b447a744b7164484c444b355932706270667074446e314531474375326b62392b6d632f31336c6856644738326e5277306568393653626c566d6e2f6a6d53655a4a716f7558532b555937383776742b683438626333724e446d306d61574f636643752f677732656d37706f3847733045707a6661696e61504e73735966335a644a6e546a7a755371436152466d5a6f5643576f78776d72545a3171316b615461645871736b5978696f7861766c495734375a6c304756516d302b7274486f4f6e31656a57584470734c37716a5265716f5033634d334c346f3838354c6553524c346a6a494b377047323057315a745633424e47446777354d383434344c75557152364e7158486139426a616a796e475078387333795a61796b6e75703732356966706e5564745a344f6b6339714e4e6b777a635a70706f3748516237376d654563324c6732503152706f7a6868314d4974744b6d593738706c4d6239547839484551685a744e50735776315363345253532b4a47783250466f6e6338306c614f32775a495a31796a564e2f417a354d735773586b6562464c446b6c43586d4c706c5273747a536576315666356a4e617a726a6c624a53454b795351364e6271374f4d584b6b6a61667762574c457372673671313839474a70754b79516236715350584d4f4f4c302b472f44786f35636e4e634e4a504e72787955615a6d365062382b7263336a67326b62663144746634544f73324f5830544e7036576a7a78366d444c3861396e636e316b63566c6738575763483558544b6d626a65634750447547645166796137467038756554574f446c52306d65354c5462486161424d7a636d6931536450464b3674716a466c6a6e42314b4c51376a635262434b62736c777379337064546a5557384d725a4f2f52767732576d3252366e53504f73744f5077614b53715458325a3668736d4a5230456555507a4e74326563616e48434f664c78622f4144757a47484a63737370396c75704978414d6d4f6e7a5a59796c43484b6c38446c70386b59796b344e636650364858756e33546246614372534a634731614a53787a6a474d754c6175686162526f48305a5834664e474b6674796f6f616472706b376b32675353526338475a4a5339716450356f683755333469362f596251704b4b38574a52374a5367347a63583553734b6164465247555271445931467a6446754e635a7273473262714e6e314f6c30367a5a4b6f303536567666577a52565771566e6d372b455a3473376e6a642f6472315361666b7a64426f35367a5551784c7737746d4854364f34394e365252553838762f524f584c7478484c362f526667395138584c6c30597550543563727145477a6137726c5762583576306b64563664302b6e576b795463626b6d5a7a7a37654f5770504f576e412f6873747450484c70397569707766325a364e505862666c7a653234552b7a4133545a6f354d437a61565530724a6a792b747a53362b31634d2f735859384d35394a4e737477616557665044436c557053712f73643970747530653259355049334b5438746d2b546b6d4b5479344f476931443739715656386f716c42752b4b585236557477304d6d6f756b6a55626a73576d79596e6c307a63506b347a6c752f4d30612b3163586978504a4f4d6675364e7072646f7a6150484235457671756d6137425050677a772b69366c345879656836755034376262636645472b6a706c6e63626a397153504d757771693253707670716e345a42396e5932536a5a5a6a553553714f4f547274306a62624a74373132664a4358554978755232754e62646f4952777968564f725a787a354e5857743065637a684b4e576d7238575937386e6162317039446c78537934636c546a38484772756a654f5673327a367141305067376f6236362b53375861444469326e3048624c34546c69665354543832586173646f476d57556d32305251326252492f4a4b313978466c5742412f493053615971494a444834465a424669736c3044524e74624b78554e716753477769614970646b693979554e686449514b7a726a6d456743757838573064647156685955413243324942574653454859796f524a4d6779535667715337566f477a704d476777347476575449366e4f327a517878504a6b6a474c386d4a6e76624735745479437a657a3248504446626666324e4534385a4f4c36616455786a6e4b7330566832464735304f7a35395a69575878464d75576378396c7361634b5a6d367a52354e4c6b34546930626e616448706458676d704f587547626e4a4e2f524f357a543649327a4c316d4832733034665a6d4779393058487a456c4a6f665073714a4575555855546368386d6b4a522b6d3751323156474c79524e51302f424b30796b612f63786336647359784a454777354864323155676f4c54426c41424561426f36424142524f5054534f2b324f316f357334434e636b6439734c5834536158334f485566782f774431797a2f64484c62672f7743755a76756e5266746d5757504f6f71542b7066384138444633476638415874544376444e7273576c6c5055637052714d52663458504b616b5a76714f76772b6d74647558306d5a74754e614c624a35576c4b66797a42332f4c696c6b775135636c48746d36745a74767247303667634c756365482b616d2f6f3543577679547a5049326464686c2b4b30564e4e66516343302b636b6b37544f3432744e6146546d716c547333797a5578306d4f4d6c614461394c463636555a2f6b545a6b377a724a597371303047347045396a793839646d646654327a583734704c587a6d2f444574764a4e2f5a5a36624c5a6457726c696b32617a654576786e4f5053644e6b746d55387565504477764a5a765555745a3058577553707578302b6b634d4768633470556c665a796d7333504e6b795a5570506731306b64464e792f6850563377646e437a6b37614a78597a75747633587a627055354f5473463552457378713549394c7064535051593563637442464b313943375139466b68716450776e4c346f6f69762b474e6361714270746f3161686b696d375450444d6439316e33636536792f345a4f30615a366258353454545437346d467658476572666631485653303136754f5a4f6c784f56335a63396537385852726a766479622f414d4672646144466830656739397170566273306d546464544c4e6449333272697062516f4c744b4b4f496b334679746d2b4f544b35322f645a75753579347357763235546c56754e39666448465936783669504c2b3749367a6248484474584f562f564673342b636c376b3339323258682f766e303276762f3841546f743231326c7a36574545716b636f79326274396c6439485843616d6e5448656c6d4a586b682b364f387a35486732695757502b57634e70326c6c6733393064337149725537626b7031654f6b6375622b332f41476c39754d306d6e6c7173717875564e2f336a6479394f7a34757336624e42476554424f6c2b614a30473136334e6c7a316b5a764f35535334337777303234614f656b6d6f532b556130366a3146506e6e682b787a4276444b334757743470343475556b6c3873394131574762326c516a47367878534f41676c795373394c6558323975684f5664596b634f653258442f5a664e76384170796d673232637452696c4e63556a61372f6d34614a5956507930714d4f652f3859523976465576756337724e546c3155336b794f3259316c6c6c4c6b6d4c446e4b32566b6e3474434f727250454e4777306b31372b467678376973774c526e3646336d785253766c4f4a697335505164365457315a4f4352357a6735636c7958796b656a37394a2f77414b7a556a7a764456776e4e747131306a68772f73794d6e6f57347632646f744a386c424934434f5251642f4c387339443343732b334f2b7563447a74714d5a556e66774f48316b6d58754f3730665055625331797636447a35344a7454696b35634a4e4f6a306e4647576c326676796f484f375a72744270735457574e796c496e48624f367966566239484c2f4149624e79723270466365554a57725454505174547565314c443356763452775765555a3570536a4869726652337779755875614c2f747574686c6536595a5075527476566e6554432f73616e3038312f464d4e722b367a5a65713037774f75724f566e2f666a2f414b53667461763038314863384e7430374e2f3670743463564f53664d3047787050573470702b4762333152796a677774654f5935503573536231584a364f545765446a584c6b764a332b38795332655833654d382f3063584c55597572664e486462346f3439765842767568792f79636154316b382b78355a51564c79306568656e6f316f61552b5358615a3532716a3166613650512f54734844514b4c723877352f32726a3772683930696f36764d362f4e4b7a574d326d37637678326248647053364e6256756a706a3669784767472f734f6f306158624a775267355934792b5a493953314535594e446a6b7637754f4a35627065437a347266584e48705736535564746d6e2f67585a773570764c424a2f63686e686a3348626e4a71366959767071727a787156774d663039715965333745706e5161585472426d7979697135484850654f4f574a6a3531586e2b2f57743131564c374777323363644a6f39473130736a374d4466467a33484b322f7a66426d62627348765966637939526250546533346547373947667257303233643171737a686b783974394772395136534d4d384a7134706d2f77424e706444687a346c676c544d5031564e2b7842484c477a346b30766e5443394f625a6979724a715730306d6c544e78714e32306d5057527779777870655a4676702b4b576774787079386e43353234616a4a3870354a4f6979642b65652f6f747a316a4871474c6a4c46636644756a7a5747434f713347654a5471386a586737725a5a7a6e6f6c4b545470756a6e396c302b4b65365a5a7166647a5a6a43397678444b3730322b624c70747130535563616666487044323355594e30775a4d5538666d503147627138576a6c796a714a4b704c355a6a365637626f3553654b6457696274787570646d3776384177346663644c4453367a55596b36696e635476744a6f744a2b41774e346c33464d3433663534645472727854556a747534375a446931394f47374e386c79754848353175706a7265544131477532356537682b6879346d74324c62384f58466b31453276706d364f55793550647a547953537473376e594d4b6532546735666d624e636d5077384a71337a6f6d57366a2f45644a4c55725374524d6e655059302b696b2f6169724e5139676e445878796337687973797655477069744d73486d30596b336e68717263745337594f77615446715871484c456d766873312b39344e50703955343432725a757653636d3171456158666364626a4a76374854473263316e326a46763659322f7033535963756c7a71654e4f6e354f5a316d4c486a315573615453355564643662556f36584c542b624f52314d736a3165527a715468506f754674354f517438523232377632396f584a644f4d5565647a5373394333584c475730526376456b756a7a752f304e6348376376396c39704c7057656a6253336a32645a48464c364c50505647367057365051303550594677567459455a366a39754d2f396c787674774f72665050504c66356a752f543346376165654f7a3058302b7132354e4a446e3859662f596d50747847614e61764b6b3663736b716f372f436e4462594b5437396c32594d384f31347337797438636e4b7972644e317851784b474e71584e646d4d72337a43534c50473248366177776e6b7a35562f646d77395236334b3777593869704e5758656c316374576f666c4e44766452312b564f375a5a3535377636517637593179795a4f5047333470486f65785a6e714e444a5374754e4b70486d33697a742f536e396c714679744d3331456e5a746e4878584c37696c70395a6c53693037733748303771566e305761452f697a6c3936345431386e447852752f54636d6c714938616f6e4a4e38574c6376366e4d626e483264626e682f64763654416a386d36332b4550782b57534e496d6463504f4f4b6664327670664c446e4f456b726347543333623958504c504c6a376a356f3566516171576e7a527952386e623658664d476f6e4347536b354934386d4f574766664a754d376d74567757544c6d35796a4b6255766c4752742b6a65733165484479537473363765746e686e685050686a5534717a6b4e4e6a7a725046596e5752646e54484f5a345779703672727375306148446a6842714c612f4e4a6557593272324c484c542b35705970306e354d444a74653736784f626172375764687465504c6930634d655a564b714f4f6556786e377433626338333038796869355a635555764d6c466e6154394e596c7837754e484e4a515736536a47506a554a486f47366176384c704a5a4b753130586c79796d57456e314d646564755731757a615053594a7a684e746d46744f7776575465544e4e65314577382b7631656f6644346c384863354b306d325932756e47466f756479776b6d2f4e54477a647256533248625a35506235476b33665a667753397a4439554c4d4b47747a597452373662626238486f6335593956744b6b343979685979756646636433637457575756356c6730656655355959734b546d7a72342b6d3855634d5a5a4d6c4e4c36696e307a70357657353874726a6a546957656f4e7779527a2b7a423955374c6c6e6c6c7964754e2b687554446455793950597034736b3847645474584535584c7035596e4b4d343972796466366231723935594a753430364d62314a67345a334f48355a6a484c4b5a39742b32313864753478394a36666c724e486a7a5935714d6a4d7a2b6e63654c473551794b364f683269635962546a6d3670524f4e3132365a6375664c564a4577797a7a7a792b30706c7159714e44746a3165716c67767772624e744830334e56484c6b6a42523646365a6d35617a492b2b346d7a33335876444e5959713758597979792b4a327a374d7a786a757464712f547363656e6338456c4c6a32636e44464e795561642f50523650736d706a71644b31626267364f5233427977362f4b712f492f774463595a5a62754e627574625a754830323534566c6e50675576302f506a4a343876754f69334a75657331634648466a6255563352754e6a6c724a764b73324c696c347358504c4757327332792b4934504a696e6a6b347a5861644d3275683262553671504c784173336a4373657679316b543553556d6a724d3035344e7378797878763656306a7265624b54485831543775585777536c4c496f3545314578645a7445394642546c4933477836724c50585a6c4b4e52614431484f536e696a61344d316a7935643878724f37706f7450744f6650425a593073624d7957775a6c486c444a4758524846755761476e2f4477784a7862365a73396f314771575659737348786e386c7a354d38646b79726b7332444c676e4b4f534e4e47547039757a366d446c6a6a5a757655474a527a32766b32587031763841435436377375584e5a78792f64715a57744267324c565a6363704f6b3059574853546c716f595844766c544f6f312b362f68737a78776761625275576f334b475671725a4a795a33444b33316f3376367435764c77347475686a61626c3452797533526774586758366e5365704972486a787837374f64304372563458464b374d38642f367266757472306478787452586b345066394d384772632b43555a4d362f567565484642786453354977743630306452706f357237696a68773558484d6352677838386b56333236505339486757445434592f6f6a6a4e6b775279367864326f396e56797a3874646a536e535877644f6f7975563147642b64744a366a684c6e426d4a734f5a77316b4d546153614d333148532b704a757a5162653876347a547647306e792b5334356234644831762b3233395161506a71586d56564a484b557a76384166344e364e4f55764277624c7835573478306e696f5541364a38546474615156664c4a4e706b614c4642475a446143567376574f4d63664b2b37384548472f413664554f314e365941446236496e72646b6b4d45756773694473454b78674f67465944614a585452324f30617a487039504a5464386d636369395a484671695a347a5048546e795333576e595a46746a57544a7867704e33636b45393178616643317034713358527955737a6c35596c6b76354d66436d74567937636d586b3145386d53553575334a327a64614463616877636b6b6375354534354b527534537a53586a76754f726e6a3271552b647053445737706a576e654443754b4f5539316935575a2b48504737732b486c393230304f7165444d70522b353057664e6f4e556f4b666e355a784b6e512f646b71706b793435664a32586668334f4c553762704d636e697054527965727a2f694d38353356793658324d4b57546c66524331356f59386378753937616d4664685058775767654b4c584a7771544f5162587753655471724b5a4d314d4a4677787631466c6b504e6c524a4d30335a3464312b4d684c61705153715841354c486c3975635a49677338754e57796a6c2b706e484359373139584759573732377651626c4755467a6d6d632f757565475457536c6a6c614e56444f34716945703974325448696d4f56796954444c6571363751626842365a5970705652582f414176517a79764a4758626474576378484e524e366958784a6b2b4835746c54747a6a71646672644e69306a303248723452792b6d345050446d2f703555796965527a386b45366c614c6a684d57356a645862706432773642615a65776c7a73355a47544c4c63614d55736d6d384a645861634a55306458746536787851397562754a79425a6a6e78613747654d796d717565472f4d3975313175683075732f706363314762387373304f6930326b75587570794f556872636b66444979314f5238726d335a7a2b486461333463645a665a7339367a78314f644a4e4f6a4c326e5236576543627978545a7a46392b575a4f505579787271544e3976366453725a6b6c7159596c6d6c5336556a72395671734b32574d484e58374b4f4763726b5879314533427762364d5a38666432322f5264576155386e534e7474474444714e54575a50676a544f524b4f664a464e526b315a4d76744b334a2f6876742b30576e3072784c4563347a497a5a386d5a38704e766f782b2f6b7a4a5a49306e43504f5353386e61614859636358677a2b353953374f4b682b5a665932734e787978347874714b2f566b796c7338564c6450516466686570306b734b6e546c386e44617a62703765734d76655456304539353150476f7a6f317566553563396335743063384f4f347a327a627433753236724871394c376371365647462f4c3050655534355878353263647074544c547a6b3035646d664c6473386d3270736e77374c6456642f654f73337a583473576b396a464f326341702b5730725a5a6e314d7372625a686d384d4a6a6961376c716e544d6a426957664a4748647377714c6362634a526b6d375273736a767476324f476a3165505037747a5566796d58765732666a38654e517a635a523752794564357a72696b32713875777937766d6b2b704f714f4e34382b365a624f3665744b5a34703762723434322b6646702f376e617a6a673348524b4d326e79665350504d6d6565576675546b32325a4f5057354d63476f746f316c686374583670762f4471394473654c54356c6b357558373130596e7154585262773666464a5572636d616d473535336a6c4635476133555a50636c6469636437706256334e615a6532376174624c6a4764486f5733614c38427066616337504e4e4c715a3664743435507447302f6a4f723972367032766845354d4d737656384a76544e334c593830736b3832504b704b6d32704850614345636d7077343364796c527363753836764a5355366a78706d5673476c5539577079726a46575856787875313336695738375270744a695757456e62386e4b756a71642f7742646a7a5a33675839303565693462375a74642b5632434b6334763955656a37686e77533275756163355152357046385a4a6f32656256796547455859797737726a66745762624e6e742b64344d366b6e315a36626831574c4a4345347975306553776b6c4b7a5a3662634d6d47445639583079636e464d35475a6c5a566d37384a62746d372b56326a74495a493539736c44464a5837644c397a7a6a555a355a6338387266624d3753626c50544b6b2b6d58506a336a684e2b6a75732b6e74304f3162586e6a6e686e7a7a37676e5351657162397645766d7252715a377a6c70526a464c737764587248716b75636e394b364d5938563735616e66343170315870375578656e6542744a336447447139676d39545068506a47637a6d394c71705963716d6d626437314f586e6b4c78356431754e396d3954566a754e4c67576c30304d554864526f3458525a76772b3779627638414d304f4738356b36746d6e6c6b6373334f2b374748465a33622b7063392f5233473836444c7131484c68747571534e4a6a325457545365544e782b364b3462746c7734344a4e79612b374a2f782f4c4b30347171474f484a6a346833593170396468656d7a754338786137505248475332704a54546b384c504e73326f6c6c794f6256396d34653854576e344e3975464738384d73706a2f41497255756d6b373579542b35364673654e4c626f71442b577a7a794d6f755376376e704768684c42747965434e33446f7a3148374d59592b36737a34645534747779757a6b647930653478764c6e6935524d746133644935314678753264466e355a4e737a764c314a343263734c634d7353795a4e44365a6e47453831756d77337661395471645647654a576a6e744a7135344a4a2f4e6e515439526451537848584c444c346e646a39575a64654b3375313643656b303153617472733448557953316d587270544e2f48665a785466334f61793565576557522f4c737646686c6a6c6c63767157792b49376a645956744d5a4e7277715277446964427174315770305563452b712b546e504a766a78754d752f757675375751636c4b4c533750527442656261365437344e4e486e634f4d5839523266706a4f3536664e69667a49787a54394f2f74536533485a6f535757634771375051746a68773043684764733476647345745072733061644e32624c51627a2b44777967346641354d626e684e474e30314774797a577331456566354d6a4d5a355a796662445535566d7a3563762b4e3259365a316b6b6b4e62644c366531634e4c6e6c4363366553564b7a64372f74475855316e773974647952772b4c4c3763347971326e614f7477656f352b3155306d7a686e686e4d356c6773796d745a4f657762587139552b4563556f7235624f3632375352327a525353535470577a584c6673634939516a52717458766d585651654c6a77566b796e4a6e3473384c4c4a474272637366784f584b7175544f67394b726b74564e2f4d6b725a7838326e4f5466687337765a566b30326779546e567475722b78656161343547636235636c766c793348554e4e4f42706b5a2b766c46366e4a7866546b3259544f324d316a69737250306d33616e56636e696a30764a5a4c54366a486b397434354f587855544e3262644936584c4b4d34395368523061337251536b34754476376d4d73755357795937695754586d7337626e6d686f6f7250507846396d67326a46696c75755a2b565461614c4e66764f50324a3463535454384d3057323676384a71316c6f35343865585a6e667255334f3746315737612f507063304d574b442b714852734e756c715a61614d73792b706d486b334862745246546d2f716969456439306b5677556a6e636372684a3265577637726475566c3176447439764b6466366754653132634e4f664858504b70644c4c79374f6f336e644d476f304f4f4d476d7a746e686c632b4b704c4e5678305a793577664a71766b39493165443856746b4f4831584330655a4f567956493758614e35785267734f5358464a46353863723235592b34527961785a486d6a6a347453666156486f654f4478625775666d474d67745874334b4f5870795867313236627447574b634d62386d4d73732b53347a743171724a4a42365a7a5265584f7638647331652f61545038416a6375616e77614d446139617446714f62384d362f4a7557697a786a636c78666b58484c486c75556e304e37773030577761504a5055343557347753646f792f5573344c4c696a56385461593978323742486e6a6d6a6b647931373147707975725459786d57584a3357616d6933394f6e5736524f5870366f655842306565796266356c556b365a32756c31324c48744b78796b755454714a78576472335a557a66444f3235372f414350656e542b6d4a2f316c34797231446364776e3331784b66542b654748574f633555754a4831426d785a74613551642f516a5062666a572f54536632362f793648307858344f662b73306574682b4c3374593550364849326670765559634f4c4b70354b7552716454716f52335755344a4f7065535447392f4a2f70642b493672577a776258677879785949642b52375a754574625049336a635971715a4450714e42754743504f5371693754616a5261574368436354685a65337a4c7466506437384f5233324c65345334746554734d50576b784b6661346f3544654a797937684f5558476e535232767551786158444c4c583545644d2f32344a68377961726e6f744a6b626a4e4a746e4b6270716e724e533344776e5231717937626d794e506a622b5452376c746b4e4a43576f787a754c6d6234374e2b66615a622b6a616162545974466f6f355a34347554566c656c3354486c7a7877724846752b6d6a4a30325844726444374c6d756f30796a5237666f645071484b4f62397530544c2b377539704e2b474e366b676c6a7854586c796f796654375430636b6e346273782f554f574874526847585a4c30376d6973453453714c4c5a66685276784b352f646d6c7135456471663964777a63365366674e31612f475a4f30796e514f454e5243556e315a3337662b722f414f4d2b6f364c3144486e48484a6e4e364b616a71734c2b386b6a734e377765356f75636261555469394c55632b427677706f78782b654b7a374833643176633578306e4b4c71694733546a726441384d37623430325333724c696c704f4b6d726b61505939584442714a516c62743063357835586a3344756e6333326a30454e41707a714e2f4d6a5536484e7a335a386e30354f6b6276647336773661545837484c62546c726359546e2b717331686862686c5763763352732f55587763376f49715772777479617158777a6f742f6e436547455935453364746f3057313465657468396b58476134313335766c314f2b4c2b717057726b6b63433439306a7539397952574b45456c6448442b4c4e3847503647742b6168514462434e486274614e494f67515557615a46704454386b536548487a6e78636b763159384c70675630524a66414932394a6f454945776869426949706f646b523330415757703946524b6c3932574d3247324e45557148525541374530775142624a4b54463042413743794e6f41614e7353416141646959304c6931355151724377386944535849567342655455452b512b566c59776d6f6c594b52456236526c4e4a574a736a5941306b3252452b786864416b71465158585146696442646c646a515a306e5979466a386f4a6f374975512b694c6f786c566b466a476b484839546873334473514158594f783249416956734c496755314473454b6b506a524477665445676f66566b6f615673746c6a6c4345622b53554a516236696779352b61342f597a746c536e514d6a38456c4b6b306155724377534477554f376a30484631624939446264414a4f696370576b6972706b6c396757417a644e7263324254555a306d6a423438666b736345306d45756b35546335536c4a3232566444493055674a755371694b37476f676f693652612b4c6969434d6d4d492b33643278744b786c386974325049316467714777636d32794c59536f46454c34466a556c61735842753267346c5043625963694877536a46794d316e5553354e6f696b5077466c43756853766f6b6b496f5559326454742b395a4e4e69686a6e4b3076756371724c725645797878796d7158652f466469393730796c79654647487239386566433863667973356e6b5266376d6668597937306e6d705878446d566b6b62386d6f6b355569444c6e47364b3268756b535366473546544a3938434e4259457a623758727036584b716c52714b476d34757957626857363362586669736b5a756d307174476e75324462594b4d70574a4e545554583351613830514862586b5464737263326c475264444b6b3161666b706843546b6b5479596d6e583243575461584a323645704e4f32526a4a324257644a4b6e4b4e2b45375a334f7531386375677244425531535277536c5473796357706e4479376959754d746c7630587a4645354e79642b6249463253536e4b556b71736f4e72466b5a6358614d7a444b4d75584f586b3135496958474c707a616b3056382f6b6978535253597863386a2b4a655354794f6b2f6b706931516d776e62456e4e767945736a34315a416a596137596d722b444b65574d6358464a3338737845364a4f514c504b78357064573236516e6c584869697554756770315a453144356b314b564d725565556b7138756a5a61374644486a77714370714e534957526738326c2b6f37632b3338464a4b4570776c394c49647178355a4e565a583551766e774f6b5747704534543465474f655279617371364170706444504c48314673687a75642f4a557567756e614b766247577338347449466e6c443957593349563254776e617a595a6b38734a5466536b7048643535366658364b4b354a4f6c53504e374d3744724a343177562f76384159355a3462315538783147445a56676e444a6c7a7770443333566166384f734d4a706e4e354e644f634f4d707976384163774d6d527964575359336374704c7561306e6a314f54453678796f48714a767453706d4943733662623749794a5a707a2f4e4a7374775a7051766a4c7959645767692b4c4e7977754573756d546b6c796473554a5579713053546f334e566e743861643370584856376534536c3452786553454d6557635931394c4d7a52626a2b4862744f5550735965727a593832567a78783452666c66715934384f3235665a4a4c36546e715a536a545a54444d3475302b7a482f396a6a523230765a6a706d7a314d352f6d6b32516a6c6348614b4779466a53646b5a733838706d34324848443854376a6b72527a535a6b596338385835575979783770596e5a322b6d3533724f70616c307a514e3279374c6d6c6b3762374d63535447534c6a5064414b67455674596d4d724a4a6d55305641764942525659513745466e5236456b416b424142304177437746514545714775794b665a4e65516c6444737567306d716556356f74385762444a742b327863626972737974676a4848703879645763396e797a6573795533625a3539355a5a355358576e6e79795a577532654d4d55382b434c344935782b44304841386b3976764b71346f34444a48684f53547457623463376c755676436f4a646d373272626f61796334354c704b2b6a536e57656e484e537a5334644a4933795857464d392b457037506f63636d704f72666c7677592b70324f44563665636e424c795932354f6374646b766b7a704e70626c6f3565372b5632634c6c6c4a4c747a37727477456f4f4c3476344531534d725671437a355848773573786274556571656e57573253746c746d6857727a71446c534e31714e6f302b4a785535757a483950702b3832533332552f7861584b715277797979764c323738615979792f2f65317554594d4c782f30475675527a6570307558547a347a69307a633762724d6d4c4e486c4a767332323961645a39473873465752646f6e646c686e716d4f666e323533623950697a53724b30596d727851785a704b44754a6d376470632b706c4b4f50722f45796a5636664c444b3453386f37544c7a374a645a4e63444e35704e6d7961694675564a2b475a5774324a77684c4a6a6e476c425769586b6b757474397a6e493435546c474d5662624c73326c7a59616553445366697a64624c704f5771686b6c4e4a59336252763933304d745a44456c356932633875585755687531353830514d7255595a344d6b6f54386d4b6449316a35686b6c52456b6b626931764e4473303962702f636a6b53374d39656d2f7170366c477a326672624f56646e4f35646271316e794f4532716c52352b2f504c4b79567775576d507239422b446c4650496e5a69597450504e4b4d592b57364c73755235477554746d2f384154326e6a4e7a7a4f766f6b644c6c634d64314f36365677394f76743563366955616e5a4d75504538754638344d763354636e4c4f31676d2b45656e5a75646b6b382b42776c4c366a6a6c6e79597a76717a4c6430344270717a593644613875756e434d5878693775542b4b4a626a6a6a67317a6853567a38485759646270734f5046444478376972534d355a3234376a65334f61375938326978632b64704f6a52714d72716a3054664857324b64486e38564b556b30593437636f5774357432795431754c4a4f543451526d54394c5436537a30714e7a36646d7061466d6e3165375a6365584c476e476d593773726c5a746479534e54724e7179364a584f63576a577869766b324771316b39536f797964794c4e6f65435770697370326d3965584e62706469314f72567856524d48586143656a6e376372733948306574686d7950436c5649354831503375432b334135345a35586b315737346a6c3142746d38304f7a6172557875635a516858545a686154423732574550764a556568362f4e48513662476d76684933795a39746b6e315365584c7a394d5a506f345a6a51616a5354303257654c4b6e79692f74566e58376275546e712b4f535461705548717a54756548426b6a536179647335392b58644a5776466a694c5566792b51686a55302b36667743544d6a527a5564546a754e70794f75766459627148707655796770504a433345552f5432706a43626276374b4a324f75792b7874367a38652b4270397333664a504b736331536c344f48784d724c56386263586d3032665474787934326d6a706473326a53367652537a5074305a767162544a593171465679616962485a4d63487453344e654a49747a765a4d6954793832795163636d5350564b54536f6a306239624a724d7557615556584a766b6137576264716444316c672f506b367a4b58366f774b4a7869766c692b532b576d7a526970754c535a737248593478354553794b64726972592b68575a7074426d314c34774e722f414335714f48336b64626f4d656e30653359736b306f53634c5a707450766957667a7a566e44346d6433327a307669653635485661584c7073733865534469304c5461664e6e795168434462624f38333247505562657369533870325976706a446a794c4b33424b63575069337433596e3130302f77444c32727476776a45314f67314f6c64547874527238794f6a33506470616255354d4b62644e472f77317174464e7a5361615a6e346d553162365855727969585a5048686e6c6b6c44797a4e79724843655846584c6a50716a64656e39766c6d6d38375334526b64726e4a6a746d665a715a37507259516c50325730612b6d6d3164306576533450484e6648466e6c4f7278754f6f792f4653614d38584c63375a7063707069525679364e697471316373546d3862342f63336d786154545042504e6e68486d70485959586979596d34567761484a79647669525a693869676f79365a6d34644c6d7a54345959636d593034586b79516a31553264523658646175635a796a6252764f36773776384d3633576c6c74577554342b79476661645468784b636f50395474397a31304e4c6e676e4b6f744769316537527a59486a6a64746e50484c4c4b5336577954367554636145547964746b6150524755555a32486239546e343863626358386c4f43504c496f76785a3330647730754c54346f786e467449786e6c5a7255576561343265313672484676673555594f5445347570576d656b3644634d65707954782f4b4f5839516162486a316434326b6e47364d59636d567a3761746e6a6363317864305777686d6253574b547635726f684745707955497135536449394f3266623436545377556f70795a65586c6d426a4e764f73756d31474f4d5a536853626f7179592f48334f393953593450533475504750316e4553676e7961646f59636e666a746d7a5659305535536a44793236524f576c314d584c6c686d6f4c7a4a6f366a307a70573873386b34707051644d374856596f54302b5330757a6c6c7a617a6b616d5068354531563077574f6336704e32366f7a3369787a6d6f772b5a754a33574452615851614b457052567856746e584c6b6d4f6d5a4b3835656d7a712f3647662f704d684b45345861615052394a754f44557a39767137364f653952364757484e444a43483053386a486c336c71786250446d464731624a72444b58694c667a6152747470327957757a6556776a3352326d53656c3072574678676d6f726f75584c4a64536271546676627a6557444c4474785a474d73696b307a7574567174466b30756f6643484a5261733572617375484872463771584369343532792b457255564a743859537638415245497862622b6d546637486f3064627471704f474d7974486e307570655259735556782f51786c7935542b3171612b377a4634334674535258326d645436682f44777a51344a526b30375279746e5847376b704e3771664956455550796158576b6f773564706964706f3654596446677935584f636f716f2b476451384f676c4e596f78787972706e504c6b376272522f3841586d6258562f41553264747647795239755758416f7175364f4d6b7544706f754766664e784c7544683948366c62697a636256704871645246506c586b3770374e6f6c696c574f4e754a6e506d6d4e31566b727930695a327177777735386b452f444d6449366479625655675051747332484573455a5a34726d7a52622f6f5961625577554971714d5938324f5758624675354e317a6b5639792b55456f4778323762736d74793846464f6a71386d32614c4878553478736d584a4a6c706e333563422b56702f5a325a5773314d6452376255617055374f7231577959386d4362303754666c49347a4a43554a754d34745354716d4a6e4d672f61587472496e61586c46555a515531534f7032335a35356363636d57464a2f42746f3752746b587761676d592b4a466b384f487a5378796e6356566f787a65377a704e4c704d386661617072776a4c32765a5961714c795a66796d752b5448616175334d64495450512f3448746d57716a486b6a6d3932326c3643386961635758486c7879756d745765576a686a556e7862535a5a71744e485435476c6b55696d366c475879516d334e32644569413068312b684e526c4a705271327874726150455a316d6c394e336a355a73306261546f7a4a656d384531506731625279764a696d71345a702b624930325a2b72305758545a703470704a6f78497862665272637074565148523762736b746242796d71616651747a325636474b664a4f305a6d6337744c7678747a74305463467874475a6f394939547163574a5639544f67667069584e3874524652623849747a6d4e3154652f546b4b6f6c3848585a66544d6c43345a6f73355855596e697976483561644d3168796239486e36717950526e346446714d30484b474e794e7139697a4c54764a55625373362f456b49357a71674a556b6d714d72546153576f6d6f70303261756369626a4638416f6e5351394f35342f6e6e4673787456736d7177525531556b5434755033546252675753693033532b544f3075323574584e516a42392f4a626c4e627074724230626e5737546d306b484b6356782b35702b4e435a537a63585a4d534a63585668542b7770744779535155424136727777532f556d754e65557966474b48636172574364414d3662656b6b4d694d426749414859374543434753516955517a58612b6e3344324d3364794d787930547a796738554f642b54433242714f444e79526f382b546a71736b6f75767273386e5a62795a764e636e5362336b6e4852786a6a64526b2b364f496e355a337451317532796b30725548534f436b6e47546a4a327a7077654f364e343364515232487071545379776170556368585a31327763352b346f6659337a66783163373662544c2b456564383478637272734e79797a77364a7a7771504270716b6331725a5378362f4a39307a6f744e2f5739766e486d727677656274736d4e7670793234544e4c6e4a75696c4754716366745a5a77716d6d5978374a3664386632756a3950386e717837394e5331744c3469503039556454622b455637354b5034714c72796a682f2f4148662f414278766e4c2f36316d4b54684a667564746d536530766b376169636a6f394c6d314d346346617448553774716365485150427734796e476b69636e6e4c464c3772562b6d2f3762504835614d50646e4f4f347955366b72526e656e502b5a794f30766f4d4c65584a626c4e4e666269797a7a7932663458626f636b566b304339695843644a484c366a4a72496338553553556576325a6b3650634d6d4b6f5077335a763777367a543545344b3344736d757a4c7a45377130477a7a613150422f4c38473339513535344d6542516d3133624e4c74335734516a384a7332472f2f5573542b30686c4a3854465a6b35544e6b6c6b6d3579626266334b44496c46753652573453712b4c4f37766a5a7042456b725968727468613758624e5a7038476b39747376673976314d2b464a533839493479446b766b7577382f65684b4c616c7958673435636675792b586d737633625864647557436338754c38722b4463656e365769637162615a5a72346364736e504a2b656c5139676436644a7634716a6c6e6c62782f36716566546b4e544b447a35576e2f665a302f7033745a546d4e5a446a717451704b6b704d367a30354373576474665371523035727668697a33693537656f4b4f766d346d4a70736a6a6d69336270716a49336a4e484c72736a567275714d5853645a594e75306d633550304e3330374c65387650616f58487a784f4676692b6e52336d39334862634d6f562b5248425375375a4f4b66705071376e5a4e5a7038656b34796b6f79534d70596442714a5368555a536b63426a6e4b3669332b78734e486c6e69797865507158497a6c782b374b76643947783354614a594c79593163445359702b314e536a2b59394331726339766c4a72766937504f4d69616d586a7476744c504c7364677a504a71323530323059507156782f4749796654664833584978665531666a63663678737850356c2f74596d7757397a7848532b70366c704d61663841694f5a324f61783637484a792b56534f6b39544a2f686b3638646a502b62456e37613558515a754f70784a58636e566e572b6f4b6531584c7636346f347a622b395a67696c664b585232337152714f3251543863346a507879594839746564666376307a725069767770706c63334733526270616566456e2f6952364c3671583039473362486b7a626534346f336346526f7473326a4e37324b655a5355596e5336765551306567357634676a6d342b6f6e786b715a354d4f2b7979527136334e737231447138667351307a58626b5a2b784a5232754846334732656636764f382b656557556e4a32642f73647261556e564a536f3379597a486a6b2f77416b7536774e56757673367034344a5562665851783672624a7a63553678755350504d755a2f6935354b766a50777a7655386e384a79542b2b46756b4f5448585a704a66627a6e445875342b547063757a744e307a364e37624f45484674705563533674744b7243557033387048653437306b7456744a475a6f4570366e48462f637737566d773048434f7177506a66313069356571665a332b38516844624831564a486e554a553036586b394533755479614e7763656b6564596f70756d6a6877667371636e7436507778354e6d6a4b53363971364e4a73757068677a3158396f6235526a69326a48484a4c7870306a54624c70506435366d566365645252796d7533506633504f34323271326e536175627a5a466469313270786148527934326b6a56612f645a34732f733432725274734873376a6f30704a4e7455796173317630317558656e6e375539526c35346f64796c2f756435423439743235665455754e795271746d30754f4f7531454b37784d32573661445661764a463435525545715a307a7374786954666d7337623830632b6b553338326562362b455936724d347a6255704e6e706567307a302b6b68682b556a7a376439426d3075706c4b6334754d32324f4458666b7433714d5846714a526a7762365a364c744d6c4c6271622f4c45387978786a79535a36527443636474696c30715a76714a346e2b3078766c353371332f4146724c2f715a304870696e713575556c64476831735a4c553562667952775a5a34636b5a516c542b3530796e6468722f4362316476514e7a32694f756b6e4c4e78346e4e367a596e6f6f724c43626b724d56376a6e39785365576152326d687a7831656c2b705771706e443966487264384c755a6265615a4a7155354e4c3549306a643464507034376a6b686b70342b545647345768326d4d322b466e6f376f6b6d33474c6f6e424c69366b2b335a744e31786166486b6a484648702f4a6a364c5450506b5556473079373844662b6e73475757626e78617838664e6c48714c326f36745137636f784f6c5538473236574d58307170484336334e505535387370547533307a6a7837764a63766f31624a47667365685766507979513668326a7235616c51314f4441704c76776a483237525053364f556b376334386b612f62744c724a617a3373384f6b2b6a6e79575a5a5a4c76576f7a6655712f71574f7669527732474753636c68676c395571622b79505174387735632b6a34596c6372544e4873573278397a4c6c795254593473753369715a543962644a34397430634974396d796b323948793637685a7a57385974626c794f45593342565452304f486d394447456c39587463546e6c5032332f4a4c3573655a343639784f54616179572f397a305a4f4f75305467766e4854504f353658564c4f6f7647343350354f2b306d4e365054783979666646576465622b314d5071316d32624e6c3032706370744b4558394a692b7073796c6c7851557a6f634f7577356372784b665a7a6d2f62626b6561477068473431544a6862385357726c72746250303369634e47357953746d4a75653236765636707a68564e4a47313246566f492f4b73313275337a323579347876672b795475764c6c704c72746a52366e616456703479354b31585a6f33634a4d39503057624872394b352b6269377338363179634e546b6a78716d656a687a7556796c39786a576c5750755675722b44767470772f68394b707a387a536b7a68397630333472565938626a61744d3737644e53744c70564345462b58695a3572764b59726a4e6272673932314d745471357a385254714a7154497957323339325564396e66577047736653506761736138554a6c615a654c506b78397156475244555a472b70744f556c344e65725a306579364235387363736f2f5445786e5a4d613558487937444f312f43354c492f4f50706e6d6d4f446e4c696474766d726868306178776c33644e484f6250706e716456426633466649343858366363717558754f74326a5452302b6c65576366716f33574c4a484c707563666c476c3348557244706e6a69362b6d6a4f32715637646a74585235382f506e2f4c724c394841612f436c713839522b624c6471304331576f69357075435a50635a5465746e34546b2b6b64686f73634e4c7049755545706354305a5a61777863703579725057644c5048456e38484a65715979392f444e2f5a6d5a74756f6e6d334f552b56786f787656636c376d6e696c62706e506a386375502b6d73727645656c5a2f77424c714c38385651627a6831587679794b4d7548785270646f2f4650556630443756636a304f6338654f4355354c347579386e366557316d65744e64744c6e6a30584c4f6d756a6b6e434f7333535354745379585a322b756a6c79365a7777563473346a614f743169707274585a6550316e6b58365232757479505336524b48356b6b756a69387374546b6e4b6359546c4a666f643772636d4c46696e6b79666c6f316d6b31326d7a5a506274474f4f3374743075666d7a79344f63703563734f66333754505359754748624c676c617864484f656f6444474559353455757a5a625671384f6f3055636335713071615a725039654f4f5539536d506a63637648637456444c484a37692f4e6252316d7578505637584b545676685a7173757959486e35526d7163724f6c79515750517a78326e574e6f5a35547577375678333532386f79527030797446756548484e4e4a39575655656f4c7758595a76472b5356305646734a714b61614956754a6278714a7838744f6a6237427270354e54786e4a2f5846756e384e48494e39326b646e3664304d345265664971542b357a354e5443704e375665706c39574b5353354e557a6d744e6a35355959764c6b7a64372f71345a73796a476e77364d7230376f756358714a704e66444a7674346f6237736e52366459394469773472717a5665715038416c635a5872633779612f46434658436176737950556e656c546b72536f34347a584a686675747937706c5074584a37504f746669533875534f78337a4e6c775965654f53556a6a64737934735773787a6c34544f317a376a742b525267354a79667730644f57575a3433535936303432573536325545355a4858324e526b797565527a62747339456e74756a31574b376a667731384d344c576157656b7a5477796635666e376e586a797879385432766270306d6733445359394e48486454586e39546f386d534f54525a4a525670347a7a62446272677671505238663037616b2f6d4278356647556178727a436471556b31565077644e3663784f57624a4f2b34774f637a584c4c6b76346b62545a645450427248786a4a70716e52317a747548684e53366258644e58714d4f656b2b4b4e7a742b523676516338717071372f5647566d3075444f7555346f7739644757485350325638563063355a5a4a72565a3879322f52786d5a343461724c476e77552b6a704d477577592f596a686a586932636c504a4b5572624d725163706176456c387339484a4a324d7a6630646876366c6b3046702f4b50505a767679643976536d747555615050354a325934625a67365439777438515568434f766457744859757844526e6444535a5970565a42496c524e6f7768574d4b505339434e6a47494b614267677442445142594e42444a784b305452704b364c6264796c70635753464a3261664e6b35546e4c37737055365243375a6d59795731786d486d3130756733526162464e4f4b6c6170476c31456f536d35525657374d5a536f6a7959375a4c624363646c396e5a7639703171306e6c49353073556d5379575756725044636d717a74666e576655546e3932624c626465744d6d76686e5053647579555a3058746c6d6d4c782f706a4f33484e484e6d6331386d7669776c4c6b5152593659343678303644614e586a3032613571346d357a366e513669664b654a4d347545326e646c6e764d78654f5737636375504c6430362b4f35366644486a6a696f74507a527a2b76316d54565a4f6336625630612f33434c6c596e484a354d654f792b5851624c716f61664a4b55342f4657592b34366e486e3163357874717a5634386a6a644f6945354e744e4d765a4a6534374c6372396e546164364b63487a68472f67324431656c30654277676c4c6c476a6a59355a4c777765567938736d5745795a2b486b7a394e6e57485538306b76724f6c797a304f70784b5757555730373432635170646c717976736c773359586a76305a6571654c3854574e4b724e6a7138326b686f58464f4c6e30633835713749796c614e61626e486643456769365a4279465964396548553650466f38756e67705075557532624b476830476e79516d3533585a78734d7269716936364a2b2f6b6172334a503841396e4c4b622b727a336a7533543776756363384868682b576a48326a574c426b3762716a6e334e756d324f4f546a456e626a32365a7546312f6c337558536144585a6f35626a79525a6b316568322f426b684353743330767563464855536931786b79453830707937377335336a3954666871544c374c4e526c57584e4b5230326c3237517644677a652b6c4c69725279444d76486e6e474b71544c63647a57394757354a703644716f36504e706c693558306a6b4e79304f4c42786c41775871386a707162544b3535636d564c6e4e737a6a685a50616276316d6e5336486274426d30793535567a5a6d59747130474c554b647552795750506c787854556d6b5853313265612f744753345a6239723354374f6b33726359787872426a6f356e52344936765577686c6e78672f4a67354a796c66314244493455344f6d616d476f3135766c364e743232344e4466444c6637736f334c616357737a787a53793155614f507861374d2b6e4d487239524b566535614d6643793774374e7a3746676d745071487837345436624f376c37653436616e4b375235764b56546c33335a6d3464646c7830347a616f316c683357564e366470747531344e43726c4e4e70326d7a542b6f397a686e7253342b34516475527070376e6e6e4355584e396d75795a485079536356333357746232705a6b3658764e6974644b615a6a46754e795572586c4855767036487657614d74716b6f316449382b55756b5a6d5457354a7755484a3152684e774d34597a474d337a3943386e6f6d78796a486131467234615a3533614e6c70395a50487070525570646b354d65364c4c7052716f786871637167726a794f38686b69396d6274583764493833637669374d324f72794c4637616b3653475748644d66384d2b596a69784b6556516270636a71393132335351304b79526a556b6a6a597a71586e73324762575a382b4c47705474514e58472f70386b386261766a325859736a6737586c65437133626246453072307a52616a4471744a6a684a71556e4663724e532f54333959556c506a6a76776372687a5469306c4e6f323338577a4b4b584f5456484434646c38564e7a367875393731474b476c574b4576736d50594d2b4e6154324a7a53584f306366714e54504d317959597337782b485448772f77424f6d642b6475713132782f694e52504a707336536c397a5a6158433976306a684b615369767a484e6158634d3866706c6b745035467174776a6c684f4c6d33396a505a6c645331647a334378367a4a6a31476563453471552f397a5a783357635655736a706e4b3563382f6e6f785a5a5a79564e7333655047726a7436746f632f7536654d354d3454654e5a5050715a77644f4d667973686f397a79594e5077553261764a4e53626b2f7743384d4f4c7479744c642b4779304f325a6462636f7a53534f3730576e79594e4d734d6e306b63486f4e646d303178692f4a74636538366876387a4c79595a5a4a33534b6458744f654b795a4a79556f32335a6a37626f4d477257614d6f336b583543765662747173726e467a2b67784e4a724d6d6c7975634a655558747937644a4c39646547392f6c335853542b71434f6b302b4e62666f6d354f326c327a6d6f62376e58626d374d6157757936705a6555337858624f643438372b362b473579592f53567138325a797a35636e336b364b5935736966636d2f774232526c4653766771514e4a525052497a706457544f314274744e6e66376274325053616545344c366d6a7a754f535338536f365853377a4e77686a6c6b6c78527a354a6c5a3458473639737663744c756d727a4a5161344a65477a52617251616e53354971616a347430625262356b6a6b6e78663757764b4e5672397a793535326e5672344745796c317161533672613474366e6a7771456d36696e306a5a3764764564526c783476626d7252777650376c2b6d7a7a775a464f457159793473627653533250536478314c3032446d6d636e6f64346e70703555366c79646f7133586335367a4247484a48504b526a44696b78316b74747433485a2f7a4a552b3854374f6c575676534c4c3466446b65544f56706f366e4876556c6f4d4f48726b6f704d6d6644504862507173746e756f3564644455612f4370533853374f6a33664650553653735678644b7a7a3333616c7a5356335a30756d3337325978393233455a3864334c506f6b7939375661505261324f74777a397430764c624f69336a4d6f614c496a565333324d6d6c69546f304775312b66504f7035507058774a68626c4c5a364c5a7255644c365a314e344d6d4b586d4c754a717433323356523155357768654f586449312b33376c4c53356c4a2b48354f6f6876324363636e4e55346934355935334c47657a783236713759384d3847696b70726935577a6a647a6e79314d3070576276566232386d467244493552354a536e796b376c64746e5469777379747631504630362f30376f336a6373382b374d486674644c506e554c3669336152734e46764743476a574f4371535279576f7a764c6c6e4c79323362457833795a5a57482b464d6e5a6d344e72316d6641386b4d66526877686272376e6f2b6d554e486f6c7a384f497a7a7331705938316c42786b3474553052727447567147705a35792b4c5a55326f7450796454626162546f70366e56526734726856794f78316978626470326f4b6b2b6b6b633973753559644c47664e6476354e35506474484b55564e702f4b5235382b2b35657643643031373158486176506c314d37654f5a73746931324c545a6d737371697a623574303055345a616a4878313063626b6e39546b6d75333847354f3657576159333972743642506374736e2b6457626654354d4d38455a346c394877655579797470572f67374c626430775939446a67354f7a6a6e7758364e3435333673546473326b6a6e687958313830326a6552334c5253787236725848776a6764646e393355796e79736f6a6b6b72715657646668537a486162796e70364a6f732b676c6c343455755a5a7566345470356f7863754c7073347261745a2b4831536d325a32393637447148443235503874575976465a79516d663662763232577777774e6169654e664a727437314766465067375558345a6a624c7550344c4a4a546e39456a705a6172623957314b536a4a495757636c747833466d72464778626a6e7a51344f467150797a57367a5047473877584252664a4f527470363353615733424a5272716a6a395a71506531537a636d32584844655756317263533331486262366e6c304c6350696e5279653134707a3155577253544f673237646347544444466c6e39624e6879304f44753145784e345935593657795779734831484b503443484e2f4b4f53302b536349386f4f762f77445a744e36316363302b4557326b7a5962546c305034504869794a4e33386f336a76446a6e684e643161725361375661724e48426a766c61746e58613165317432562b5a526955526e7475484a7958425632754b4e487665353438764c486a6e4b76684978357a796e6a5463384f566b6e6b79665462624a76424b43764b6e464d324730775754557758424f534f6c3951343845634f5036556d7a7463745a5345394f496e43485847566c646a37556d57346b6e6c546669306147393250617035737931476648574b4b754a76747a3138644c67655048476a5a366255614e3658433435463146497873326d304f65664b626a4c374b7a7a3933646c75792b46733865486e3033376b3362376250514e706c6868743247456d6b306a51627a2b42684272444263315354527a7550504f4464546448584c48346d4d2b6a45336a7436424462744b3952484c623538724d7a637450677a366163637a364f453057763150346a42465a4878354b7a6f64333161654c6a484e624f507738706e504c5579786b7668795770785963576f6e44466253663073495a636a557533305a4f695746367148765338733670364c617079556c6a563364493947575774545732506245394e4f63766574543432717377665569682b4a585230634d754853526c773452565852784734366c6172557979664e6e504357386d394e376b6d6d757871546b754b5054636169397468467133774f58323762744e714d4d5a7a55586b55767652313250384e6a7752687a58534d63313359754c792f4f70527a7a2b7a5a3158703751592b4539544a5735654751335862634b6a5050424a563951746a33484869547754644b52727a6350436571753344635a787a38594f6f7074503930624462745339566a6b736b6236364b7456742b445575385756666d7374787777626668347158313872646936375a4a37596b79372f414436636275576e396e563559705646794c6444703830382b44685663764a446363304d2b716e4e3364397336546239447031687854397872712f4a713558746231746e3779713236616e306c567338366b754c6f3950314f4c42714d44777a794c697a69393530576d307a787643373666496e466c3430746e6c6f524a574639416d7a7330416f6c546256673152415262544a7975794347476177684d4c485a3658704941414b4230494c416b68416d4c354348517845687341724243477744735245624572485a477742704f777579466a436153734344593056644a57547370736b68744c696d32436249445154536259654659696656426e30693249476855465362424d67414e4a4d5459684d6977417568694f4f57536d53585a57574b6a48636c4f36437864447044624976736e46744d696b675132564e79747353663248516e3054624a7030573831525435566f73784e636f386c63623743575372564a63576d72737035555a2b57656e574c6a4448556d6135783736386a61535150746b7149795451664132717853702b424f525639783078733144433249644e4655374230785536454e6d6b69555854494a2b554a4e4e6c545379557554436c30526c7835646543544b67524e7a7055526a5671324f53584a6f69492b51625a5a6a7072394254535562524e69753645354e6a375a4a5158796158776754516e45696b7a4a3758526d6f747472345a477855496d303142626f7378636553625a5851635848746730794a5a4f3555553354365a576773704d5673357553374b526a55573256723049326b4f776a4362644a424c706c512b5458795859357064794d59746c48696c624357515a4a4c34494a30304c774a4b32565a4a705a4a757863704c77324f635845545453496d6c696e53704f72494f566b43594e61437431307939636b7567775a464358617443797a764a63504257623545464c4c4f7255612b574f61767131614b2f725862422f652b77694c756d4675685742476a357369324e6b61424a457138453033524244435650476d2b5832534a5a4a527270747370556d6e3052636d3743365435742f4c47327945557874673142644d7567354f715a516c3952612f707070304573324a7153434b6a3873684b626c386b62364b61584f56576f73715851687442646158347337684c376f3375763364366a5378784a63546e4630536b325a754d3970555067472b6b4b7964726956546930446e55314a65555145564e54617965527473673330697465535958746b463257526d306d725a574630553173636857506f6a5957534c597a346a63334b725a5568684c6a4e72464e786b546a6c6c46335a6a655753544958474c636d567a366262535a42794933324e6f47704e4c5954707072706f746c6e6e4f334b622f617a455246757a4e547332766e6c627273634d306c4b4c2b786a50726f6b6d694c325458707350656c4f546a47326a456e4b354d65476643616b684e39326b476453583036445974526730307053792b572b69726539637458506a47665557614a796633494e74736e624e37616d30335134326d5646734a5632624c47566a31575748393530672f46354c2b6c306e382f4a6a63694c646a544f6b736d5763355733627279567071757756746b6644646876544a7835466a3845386d6f79545369354e70507047476e3257767747626a716f71623557764b4d7061334f36616d7a45456d4e4c6363623947797a35347a6a467554627278396a4263302b2f6b6952496b786b5a4f5055357364384a74475448583669506675646d436b364b6d5a734a4e746c6c334455546734504b36666c47486a79754d72384641574e4e647261513175574e314c795179366e555369347a6e794e636d53637238734a32704f625a6c594e586b7856483348782b7867664a4a6c58545a54317566787a6b6b596d584c6b7964536652516d5368334a574474306a78666762536a384d766646535655304c4c4b5077677371707954696e386769465553425434696f4c5937423559424a43456e32656c36546441485167474951774769524543496b424632466c4e47794c4141706741774549594545574e4d514656494f686641424567493248594e4a736677514a494d324a78546c306a727450736d484a6f6f5a4a74584c796a6c4d64326a75637556597474705338524f584a624e612b376a6e664c587a3266527868336c5632632f724d575048714d6b4d612b6c65486432487535506962495178797a5a4f4b66624e54752b7454473336316931324230655059343342354d76456e71746a634d4c7951626b59373539322b397a5643635459364c522f6963797870646c323437626c3055452b4a4c794c4d764c544b304e6f336d683268367642372f4a7047716c6a6c7a6c476e30636537645861676152733952746d665459347a6c3346717a5871776245597552764e713275577235796d71676d61724446797951696c62733948676c707475354e4a556a4f647331706e65326f2f6c72424b54343554516176624a365275342f51766c6d7777376e6c2f4557354f705077645075574f476662355379525835624f647555736c71626d7134485436504e7135314136562b6d4e4d6f77633873755a4c307a42516c6e6d6f44336257616e426c6647366236614c6c6c6c33614d624a4e734c5837426d77597565477071724f575558327a3148525a565062316c6e54355164706e6e6d58477036724c43454f7566535276444b2b646c716e4670386d6163597754625a307550307a4e4a796c4e3234326b543262527865706e484a42783478757a744f63484766423378697a484a6e666f6b6552353454787a654f64636f756e51594d44797a6a46462b34523436764e666e6d7a663750505434634c6c4a52632f4e7337622f5474474c2f4c2b6459486b636b31527a306b6c61505649796a6b304f61532b59756a792f4d6c484c6b5877704d78785a573769316b364c623875716b3478544e792f533271582f64556a4d394d4c3673686e6274724d756d7a2f41455a61696c636b53355a6433624436626339717654326f302b427a57614d714f646b716258324f6d3157383573324f554f61706e4f535335644738642f553345497154375349704e335877587879796a4755592b475574394e4852515352576e5a4b796c69586668472b304f3235632b506b6c32614f4461646f374444753250447063634b555a6361737a6e7678706e776f2f6c335048426b6c484c47556d614450705a3466707964532b78315768334c4c6d7a384f4c6f6c366a775168485435654374326d7a6a4d73706e712f552b6d343471714e6a6f74427164644a4b43704d77306c2f2f414d505339733073644c706f636d75636b62354d2b7947506c7732753272506f457054646f77466965547048652b7049782f687a6c58686f35446234516c7163612f564d786a6e6c63647333786b742f67477663594f4d5537515432486349522f4c4273376263632b545461574d34744a4b725a704a37376a6a464a775672777a4d7a7a79394e62786a6a73734a776e4b4d6f74536936614843475455556f2b66677331575a35382b544c564f556d7a704e6868702f5a65584c474b34506f3637736d7961746158427332757959705363457154757a5750444f43664c796e545057736558486d3073353436636164486d47726d7035386e4878794a785a334b316376444668696c4e3855757a6461625939586c6c622b686648497a2f5432434754555a584f43645154696254636430576c7a5278656575786e6e6c4d72497a4c4e62726d4e5474657230766d50542b7a4e4e4a4e4e32656f346330646670484b6c5454566e457a30654f65756c69672b2b614a6a7932373346766a7a4744673047717a535844444c6a397a4e31477a6176446a684e34573064726b3462646755592f627370304f35513155705238704d6645793979654538504f5a77555a552b6d677064556446366c306178616a54355951714d6b374f6262646e62484c756d786334755456455a526b6f2b65726f6970744e30324a796c38736f6a344a2b614259357956706444347954537568744b56503442576d6d5779777a6972612b534b69377039646c326d316d5364704f696c73755748493656455a597077726b71524e6f70614a635a5664453478626b6b7675577454777153667968746473616d4666715852693272535a423364554e6d367243697a6951555839687332736a4334536c6156465559326d79636b313548434578734c72695573736c79456b6e354b73384971374a795877797a4848692b535a4b62747534396b324b6544713649325a4b6e4b4d586a2b4a4d7061544a3343435a4b37446743694a6b585271304a2f6f4e7348466c32694b69444a586355436a665a714c74423351585553586d776e56524a6162564973514f4472774e6452384461326f53375971746b6e333843585447312b6761716b43524b565768727634444f2f437470696f746f69466c51746f6c4733354830534a737452616f74686a74526c4a2f54596d6d51742b472b676e7371585a4c4878553474694d6a426a686b7959347a58794c3656566d67316b613846445648626272746544487432504e56556c5a78306f6354474f5579692b6c615977512f6c4767496979616175694575324e6b396762544d765236654758506a6a50773549334f386256445359347a786a756d39446e466445664259716f4a5236354772556834704a53546173737a7978354a4f5549385447524e4b723649494a4b4c446b526d334a6b614b317237724c465a46574132615778344f334a6d5442592b4558785268466b472b45306d5a7070624f63553652513162364a4b4e767a514c71545154306a3332694c5261306c4c794b67537134396f58614c576f715032646b38636f576e4a57724453684d4c624c5a4b4c6c4a78384e2b4250345152416c524435736d70416f533743335937424d496e4a4b4d5930517466596b2b30523873496d3658676a532b3449645034496a58735067517a31505747414f7741514447416b786941494231304b68675273414546424b794b5249423130495967684144414b41414b594453415177474e435632536f497368303037505263634d58385054794b3031386e6e574f2f4b4f387a633437504231356a32634f622b332f627a386e74695939487462355648766933327a6e737359347453336a384c777972335a2f456d6248614d475056617947504c3271733366307933626e354e78316d73654b53355256644854364c466e6c6f355938336e677a4433505550537a34704c37497a39717a5a73326c6e6b79654f4c504c7958636c58472b58473463763466634861376a49374f46626e706f7963504e6e43366d446e71736e564f553650514e72787642704d567634364d386e7156306a44316d574732626138654f6b33616f346a446e6363726e4a57374f77395136615762535179516935564d34684959656c727074773357476f304377715064484b7030306d5876486c55484b555a4a667169704739614e2b39733351387678474f532b4a4866627a7957686c775674514f42306330732b48374b61505139644c6e6f703135346e506b39346b2b727a75475350307561645838486f7564786533535364336a504f63654e756550484a507556576569366d734f3274503468304f5833697a394b35765a4d755a5a5a516a38644d36374c707347536e4f4b6b61625973554934732b546a2b59315772336250372b65454964786c534d575735585353366b6233635065773661667378767277635470316b6e72754b2f4d35642f6f7a7539767a50565955704c71764a7a2b6778516a7538376b715579342b4e72666362366554446f4e496f53766c4a2b53336163767661666e393759613744673143636372556c646d526f38574c44675750462b557866327239586e4f347a765736692f69526a347064384864507a52304f2f3650446a617952613574396e4d776c55314539654e336a476250623066622f38417074522f4c54504f637a76506e566639786e6f2b325648612b506c303750504e54316d6d6b2f377a4f58462b374e62394853656e645468302f7638414e30623358594e467131553873564a2f5a6e6e754b62697049732f465a594a4e643061764862625a546630644a712f5430466963384752766972614f546b6b722f526e70657a5a70366a527035565450504e65342f6a633668476f383230546a79753870666f746e725444524c32736a5672484a702f4b5668376c4b754b386e5762587557444670314634344d36323251636b384f614b743470722f414e4545724f2f7a62726f5869794c68486b31306d6a67326d354e745632786a62666358593438614c4f56306d516c35542f557a39446f736d72314f4f5046764838305732534d65394e35734f484c6d7a7158476c487073792f5575654d7662774b76757a614b4f6d327654793972366572375a7775703144314f6f6c6c6e334b544f474d3775545a6271615a7579614e366e567474556f4854626e726c47654843756e7938524c4e69775934614736584f556e63685a647468504f3872647958534d636c6c7a703678384a6235782f68337932714f4b30564c563462794f50316642364272644d73326d63484a7277725050645869396a565a6361385266544e6365726a597a6c376c6568612b4f6e31656e6a696c4a4f4471306d614c5662477659765479716d633639566c6466584a556a71396a316b73385843636b36524f334c6a6e69724c4d72356a693952686e686b30304c466e6e4256796645336e71574559617648782b596e4f51386544766865365330736a3072617539732f5278644841366e2b33793158356d64317379634e6f784c3571527775715357624d3474317a5a7a3466335a2f374d2f37573632585048426d556e5335644e6e5236336263577437555572586e354e46735732777a4c333570757646397047323157364c426d3970756a504a357a75765a6a715479792b4f50627443386162616a46306331746b585064464e75307a70386566427274506c6835546934756a6e4e4667686f3934783430354e474d665753322b6d52366e6c4e66683447673047664a6931654a52644b556c5a304871654e77785a50314f64323650505634347337636638565976376e556570344b656c78356236677a6755372b4430503146772f41523654523535344c776673624f7673573434536258535a536e3258776e52326f3762624e4c7039627438704f4b35493574614b663435344f6d2f632f3269622f414e4f36714b76416b766c6d664451786c75303837586c576a79334b34355a536c6e644976314f3334767776434f4f4e4b4a7932333647476f33464a33554a5858777a76584b4752796a352b476a533648534c4275476166487058784d59386c3761576559774e3378347365703054574e4c756a493344513470364a54696f392f427264383146367545594e635971326237524f5771304b385656472f4d7778724f39334a6f4e6d32364d382f77426174525a6c62786f385746526e4742744e74784c44377a6e314b792f58346f367654636674326d533533766e324a50307444732b333438376e6b6635554c42704e4c4c6338716345343963596d3432764648526143626b2b7a6e394a71713346654839525a62626d58784d564f2f77436c78594d385a516a5849326d303754686e70316d6b6c4c6b37566d32337a54517961506b344b34744e4d7530636365485461663475434d2f4674776d76625776314f473354537244714a5161666274556a6f593764703174796d3861353845374c6432774f65664253387a4c64316c4b4f6934703163537a4f335450726267736b494c4b306e305a65333654486e3155464a57723847464a797677624c61722f48615a66504d3947586a432f3653563162324c5378696e4f45657667756c7465687a78714d46614a62334f574c444678666c6d6d324c506c6c717373484a7635504c4f2b3464323354633372544977374a70394f355379714c584b34742f426c357470302b6254356e434b552b4c706f7750554f6565506a68586d61354777324455537a36624c6677364758664d4a6c7632737333707a653361434d397765484972536957623174755052354d63735371453258366a4e2b4533723752364e76765742353949334676376f314c5a6362584c785a584d375874734e5871616d6e3761585a647264757859645a69785931314d3332796630476b626138784e506e317359376a69625366475272757975562b326b79757047797962566f4d4f4b4b6d725a724e5674754234336b7879567856394854362f4244563449714d717470706f347657344e547059354f557063472f493438726237627a2b6e684c5a647257737a35486b6630493344394f366435314e74306e30696e307134724e71463838432f6474646c775a4a4a5470736d567a2b4a5a4b73733764744c754f6a2f43367059634c74544d2f5362444234564c5553712f4a5674386e71397777546e4c6c535a306d7577366a4a48686a367357355336547837617566703754546733676d636e6e3062775a5a593572744d376662644a71394a6e57504a4b38665a67372f41494953315743635533627169345a336572647a5266572f54563762737a31546335746366673254394f347236794d3365584c44513765704a4a79344847793358565775375263637338376245746b30777458705936624e4f443775364d5651693453755866775a4772314539526b3979586d714d56655476455759644e6b7a533477386e535950544f523459547a5a654c6664475073436a50574a664d5661744856626a6b314b784c32344e757a686e6c6536534e543175756379656e6e77795378543555756b6378504734536d704b6e4630306568625774624c4c4c33315544526235697778334676476b72376b4f504f39316c2b7957366d3276304f79357464425a45334742766357774f4f66464b47546c42666e2f553238482b473275504664556b6a52594e306e4455704f587a526e757a7a6d576c334a70764e35532f6857532f6734335262644c5753535458464c746e5a37323039746b2f4b644768394e583738347447634c5a7835582f4b3237796a6e4e666f5a614c4e37557a59625a746b7466696e4f445334644766366e703672477676417a2f4145724b50735a3472376e533558346379587876546a745670703463733474567864474a535a763937373175667635733053532b78306c33496b767464683579793431432b584a556442753064564345593669584a71367330756a714f71774e5372367a7476556168505459334e4b3432305979757338596e30726b7444746d58584b627876714a6e3476542b624b704f55713476704e6d79394e50482f53715067794e7a334a36664b34593354524c6c6c633749314e5362614455624471644e42354c6a4b4b54624e4e536b76502f414b505339426d78363753526e4e644f4a3535727355634f707a775655707569345a573557557242664873683161422b524d374c496e394a4769547831696a4e537474317849783871304e694b374c6f4f75313547326e384967694a616933333548646853454648594a6a6f6832424e786270325258356832797a4734716479566f6f68645830496e4f6e4c727752714b617273424e4d616a5a4f5354524252736962433844516b5358514b6c3052515077573473634843626c4b715851516b30466b454f794931347242446f3954316d4245595177474a75674541494170674947414341665241444967554e324859695145512b515941414251794244514d45424a4d6d567468794a746d786444796a7038323659356143476e2f4145374f5335443550376e504f7936597934376c39562f4a575a2b33617836624e7a585a716c49635a55374d355a532b4575486975367a61375135494a7a696d2f697a4e77376e704d65435556306c466e6e6e754e71725a4a5a7066646e4b345933367354444b4e787038324765354c4a6b2f736c5a75647a336543785278344c536a396a6a6c4f7237446b33386a7369367364336f4e78302b62546363313972354f567a52682b4e6258354f52685279536a436b784f62735447524c757578334c55364f573371436454344845326b585a733833394e32766b784779796162786c7133464b70702f5a32647a74653759386d4a593837535277555449684e785456394334796d632b7a30434f6d32355a6e6c71504c376d42767534516c695748484a6e4c666a4d31567a5a54504e4f616a636d325a6e4835335762356456736d766a685573576161554b754c4e6e6e78364449336d65534d6270644841526d305776557a53697554704d7677357665324e5a656e6652316d6a304742384a7079756f6f34334e724a7255355a7771704d787332716e4e4a4e394c775956747373776b5759322b32332f6957666a536d6c5a31327936754c307a6338712b6b383958677a635771574c444b43586b755745734e615a7538617233745334516e6637462b6730474355464c4a4b70576153656133644b79634e586d67713575724776476f766e3750544d574c426a77653147613438546a645a746d4350346e4c444d2b56326b5948342f4c58636d592b5855354d6b616264474d634c4c664b584c375230477a34644e6c7736694d314650696b374c386579614b616d6c6b3850716a6d4d576f6e6a5471525a48575a6f5362557a567876335466336a76703676466f7447713661696564356369795a4a5a4846584a396c7558575a63697154364d4e7455686a6a3237587a525679386f64754e3858386c625a4a4d30757173354f625673684e664e327857674b4a776933562b54305861494c486f6f5853504f45364e6a6a33484e6a685548344d5a59334b4a36727364627430645a4b4c6c6c614e487264717836614d35504b6e56556a412f694f6439755a69366e585a6379635a54624c6a686c504f324c2b723147646933544c686a7858535572526b366264745135334c4971624f626c4d634a31344e33444772323561656c376e7249346443334366625852786d6e53314f70764e4c792b7a48793637506c78714d35746f78385765574f584b45715a7978342b32566d377464546c3248484f546c484d346f32576b30754851772f4f354e4935502b4c616d7548756b4d6d34616955586379646d56393172636e3058627a7249366e56644c344b3975323257727535384b5a71334a75545a6d61625835395063595071586b3332325455587a396e6f2b6c307673615832316d666a797a6b74587338343474526b39323346326a476a764f654b386c4762644d755446786e4a744d786878355932335a63706c39485137426c6e776c4279534b64627457585071386d525a46556a6d4d47716c687938314b586971733258385979307175332b706268643278507071757630326e303269784e5279506c5879632f6b314f4e626c444e6161716d616e4c75476164663068674f66314f5466622b544f50485a76615737394f37312b6c57356165484362564f364d6651624f73476f3979615434784e4c704e327a346f704c4c3138706a7a37336e664b4d48516e486e4a7266686478736655577269345938635a48464d79382b5a354759534f3247505a4e4e547a757045342f424368726f327464447444686931654b56306568746463306c34625049735757634a32704e48535939323154773148496c3152352b546975566c6a486432654b7a394a727051334f55627453644d36664e4251785a736c31394c504d49367565504f386e39367a613539367a7a78536866556c32695a634e334c4b6b7931376133575a466d797a7966444f6a394f35754d486873354765533653526c364c56793075546d6463386434615430373358535748545a4a56384f32592b3035343573456f75646e4f617664383266466b69315269376472353656766a52776e4865316537793633655a52786150677056794f4678356e6979715566682b545a627672736d6f39745771534e457048544444747831544c7a64783656704d7a316d4653794f796a6473377851785268306b7a6d64733353656d754e74786f4e78334765706c48754e474a78575a66344f37782f6c33574677314f44466b342f33556339767571706531344b4e48766a78346f346d30354769316d7357664f386b6c64735963566d5674394679335038737062566e6e7076665832737032754c57763038322b75564d324f4865466930767455616e44714574547a53365537523131624c4b7a624a717832472f7476544c72704d314f795a4b31792f57496268756131576d3463614e626f4e59745071497a5376344d54437a43346c7a2f55322f714f767865477276327a4a394d75556347716a582f634e4e754f726c725a516e615848785264744f357254777a776361546e354d3343336a6b2b7934333956716e66462f58326e35696b7a7174757a78316d69542f3841527847366170616e5763302f696a5032586366776a79776e334372534e5a345738654f7661792b62743075737252614f5576434f4366504e4e727935485337317547504e695750484f7a6d644e6b68485043632f435a6550477a48645a79383175384f356137533144324c696c585a3075654d4e626f636e4f4e4e347252724d753659472b554d635736374b6458764b2f44316968334a474f7932797961575a347a7876624739504e4c565a49336239706b4e39556e6b6a6b2b45592b323637427038383874506b6f744e43336a57517a744b43714e654463782f374e6e30306c7375574d4e5a686b34585a3132366175656c69357854342f4a3531707330735757456b36346e633654644d4766476f5a57726f6e4a68626c4d744c4c726332314333334c6b696e47456c626f78382b35616a33594c4c476f6d2f656651344771684631344f64336a5559732b62464c476b7569347966696c2b2f63363355636332334a78536c7978326a7a744a75546a54744f714f76327658772f4372466c384a6554492f3464664b48432f4c7575326a4f47384e7a52664c68736963476c4e3032574c426c727145763976756248643832504e6e556f51696e5648516166576153653359314e4c6e546964626c6454394a4e56725054306f7731715456796b6a6f393133444c6f2b456c6a744e6e45615855657a714530717075714f74657277613342434f6471534f4f654836356244757574527270656f6d326c464d31577431617a356f7a63616b6441744c74656e5379506935795665546d74796e682f454f57503871646e5444586e555a7374317575303173586c326a6a69586e45634a70655754506a68556d2b53746e55625672386554544c466b64524d74523047504a376b49525537386e5048654864473953794a6136457634544f507a78586b3148707954686e6e43666d6a6162746e785a74766e3953376156484a6264715a3666563435663358536d4a6a6278354c75626a62656f6f4a36764331626269364e683659686b78344d726d7135535a733869304f7368436333476c32725a666979616148574f63556a47373264756e54586e62694e3970612f4b755077725a7249595a7a7879796358776a386d66764d34354e646b6b70506a56485436664a7048747346506a6278565232335a6a69784a4c61347244486a6e777975317a5232667152532f4477644b72706e475931474f5a516a4a3954586b36336673366c6f49545530795a53392b465436574b50544b2f744561336532386534356537746d62734765474e5a464c383157617a655a34703636636f3939655334792f4570663275743248697442436e6449347264662b657a756a707467314556703577627049356a63386c36765566626c534a684e5a354c76636a56746f6a5932775657724f726354684f7057776b3032567346524b4a746b624577594a45314956396f6969644a46436b52426c696863657649445548787569424c6e6b39747838495549386e52554a6956575463534e41535469704b304f546a38416c61384654757945387055414a2f63736a77354f7749496b704d696d41466a5a45427064455a613842695055395a414e4962514e6c64414964674d4b465930454c704d544a4e57494c43386767454177474351414178414941496b74564a444968624d576958596d777455524d335052496142574348526a757443416b426d37514966596f6b364d705553644d564a45724e4d326d4630516469436157637774736a51413143625968304d6a515250736a64443544624e494c43784644746f4c454e646f6f545931516d686f6f6d6d36596b7875715665524e66534546324e4d7137437a4b3971376b7832556f6c3245754b7977556e38696f4830566b57795877514a4a674f5336497069636d7737426f3747512b53514e4a44736b6f2f5333396971375a5553514d696d44746d6c2b70445438436653476c3067703278706b574c77524e52617043354f79414d4a7064446a386b3579585845786832776e616c796b5356744d72746d526a797978387644354b67574b583053556d3652475151386731344f7871513551347137386b45445553747235483231646b58534a702f51307675676975794b73666b476b5462535347515157586161545259736b6b7173726a4478324458475443575370702f636b356446516d78746e7433557237526d3438664f71587959764373616e2b6f6c6c6e464a785a4b57625a756645316647526858524b656162526a3236426a6975633230566f424a4d4e53534c464a494850342b43736a5a5474692b4d6762746c617441323743613872666c5754543439784b4532536c4a684c696e4b63322f496c4e786b6d69757762594a69746c6d6c564535354d636f526158314c79597432716f516137596d354e752f6b635a793558624b37736164464e6550532b57572f4a5830725a47374a4f714b6d744c34546431644961794f4d6e526a536c32784a39684f78627a3975626b6d37464c49704a49716c35424e4757744c4639374c566c6c48754d757a47666b6d764255754c4d65576253706d4e4f54624b2b62543649755462435444544d775a7059312b5a6c6a31456b7235646d76354e4d69357569463439316b54794e30324563386c5862364b6f74793659705234394d4c327a31705a376b72364a72504a664a52455461514f33472f526c50557966376b4f626b376b564b5342757873374a505558343837787a556b366f76657379564a4f546f774c45325137497a4a366d6647696e6e5a527941525a68497a7678452b4e576872585a556d6c4b72564744594e6f7032724a546b35386e4a73756a714d6b65314978437945464a543738494c6359626b2b546b705532587a3157584a68654f557254614d416d7041754c49787a6c42707030537954632f712b536769355558776e62757372486e6e43716c52546b6b354e737273643053364a6a716f574e436662475a624c777958306b62593430335451435979552b4b6452385551536f6f6b4f794e677259513654476d3138696f5879424a6b6f786b2f42574f4d6e39776153476b526f6c476970526252443564736d7944534952474e3257384c66544b6932456e4569306b713659376f797363586d62364d53586c723742417162375a4e6464465a4a417244454e445053376b775177415456454354375171437755534249594e6b7844496767596b4f3049716d41313049417351495a6d3041674134355a4b454142386d653441635777592b306a4f396f53416c355167476e594d61524a6c5a3272544a67414b51786467413745414f774a2f43454b376f43496246594d45417761473646644152524e45523277554e674e646851674f782b42574f725a70424658325463756e52465666597156756768553248426b6f38666b6c5a6b74714e5543594e71784153356f616c617169466552476a5557434946675172474d4545514a704359574259727070664a467870417273557074734a3543436849646c6c557870692b414b68736c78687838393251386a3849496a35644962415443675157677068534a4b5171454639704e3245576b4a416f3279496c4f63706466416c4a556c524f5561525634423473546b75782f42424e6f6c793643472f30454b785546305a4f4d616a625a58516474554265704a70496a4a4a4d723751375a576447524632793959337875677670464e74454f7875304f6d347153496950644179545853496649564c75684f557575776246614b53485968575738506f55766d794870467971714679596d782b57687331452b3673556e644135396353446243614f7843443746614d62465142446f73684872736c6969386e30723447353159524358424c7279562f425032314b6d70424f5046744a326971674d694e454471364c383049343353377465536e77694d70575241784a694a494b453078744a4d6a5642796f757a5159696171545349665051327354785a4869794b5353746663747935466b6d357679335a6a756864644532653174775354534932704e46644b7937464a5935636b7249574a535367526154586b4d6b2b636d3269415a30474c346f596d476742476d46686448614a636252464c35736c38466c537078555933624971644e30526469466f4a4f77706a536a38685a4e71515079532b4c454261754d722b48525459564a4561424966496c30526f5946734f4c665a45536151554751794977436c614a52464b5066524a58544255725645576c6441692f4a776b31785655676a48534a4b4e466c6f6d33435456445a617061516a4e79344d634970724a625a696a6149435a625a47546a354b5371774a4a4b68717577757a686b635362697075346c53526661344d695657344a4b314b794937597572515269434a7445443076524447494143674a58534d6a5236646172555938563179666b47324d426c612f5478306d716e676a506c537473784c45437178554f786c564145424b6770554141597979304255674749345a5a57685541664955594177564149435451342b4b41485a55446146324f7243714e5153585347794e67676d6a4159754d6d2b6741644356324e325645585944596d5254474566466b75694a554153524b6b4d477961516b4d4270414166594c73614451794e6a58676141417262486677585159686f6442456152644277536c61496638416f67325a5059386a2b4246384978643249566a6b67612b7730614c5351786954434154736b43514e6b6e666b41613743365143746b6f52744e6b504a4e64494646425142386845306949794d6e3256414f32694942704b784e6f513651547747756c54456873497079432f51726247574c4532367569744a3351512f696738433756674132794936476c595045524a4a452b4246786143624361484a64454b4866514337416c51464e6b496e536f6944595a4e5a704b4e454741564a79637532694e44734167536173625669566a416a5136515659714151334b66697868464968736d756c59457072704f79445642594159776141524a4547683232424f586b694e39434b69654f556f4e4e4d4a4e3332512b78504a506e4a4e2f5943504a67752b32794937616143746a6b32374a686a475753347161754a6753564e6f794d6d74314f614549354d6a6b6f2b4446646b382f564464305259784259456954566641347970325774633179476b327875772b53636c3243644e6442646f57314a42386b70666d5a454b6b3051706b302b69635846655349706f7353516773425543476e39776f4273694f324641526667476f717147526f4b6e4745705263716449525a444e77684b5077796d3741767465312b714b684a4449424458472f714973532b514d69626877364b43643945563056446654375a476b5079786752436961566c6238675456575835654c555861737830776276794136436857535362374146792b422f44544a6452374b35544777526c54385750744d534a7269766b6d784b5558646b564573354b5258627576674a516b373666624a796a50472b4d3132526c302f70435570546176746c516c35484c736a3268317973434b59373751755045626a5373712b456d303246394e4354524435434c61542b5353696c54515258567445583937437139545042313763577575374d5879562b5757524f37767159774235426741466d4c4b384d7555585569746f514e536e4b55704e796d32322f6c6b535345574b4c4a655255496c756b41646a53515763376d46544a6362516c355259714f567157314145542b6b56454e6f74434a6b6138413254436b536455494b5169596a52736b545a45436f524e496768755358676864303253556d6946697639516148793253636d496258514c6f682f416831524144454d6944744445774164445342456b7a544e52596978726f724244534856664a4265536269774964706d5468654e636e6b5639474d777468644a742b65696164464b624c556c5153786b354e516e44684343696d757a444a4e6b56326d516857697854704e464a4a455779437956396b614833386f4354516b46685a575669684b586843646f536b313459333245525259326e47684c6f69413143324b714846744d41496a384d426c4133525a394e646b4a556963576d676c39494e4a726f6754446b752b674970456843354253646c324e31646c4a4c796b67565a4f62767069695261514a684c36525944666243676f53437869416d704261497443444f6f636d496c434b6237427057465470754a436937766a5352467030475654443446324257695a4954386a546f6f54514448566732694e4e6a34416748646a6161644e45664474424b6370507432776d677946767444646f52476f644e304f534632527551423269536d36616f69354e734a52794b33776442556b6d364c636d4a34306d796a776b4e7a6c4c7941636b53744545787030457353452f4b4a74716b56336243524b3052364146566f4b6b6c344a7144627046306f59366a3762646b495a76616d3234333030453931584f4e64454f50566a63755537486d6e6647677146466b597a55655375764255704632504a4b4d654c6630674b62756d305171697879616c4756454a53636d3541494b4479786743596e514d69514136594f4c537346494b6b6c307878586141595a536e434b665569712f4953624546416d687348616f4b673139787045756e35436c5a4b6257523455302f2f414551645757665252486967797274416b54654e7057524b3059682b41515169516741645632522b51476b5143566961465a4a4941723662487961446f5145573356446972566b70785361456e52443644744d544a4e707347696f61693636444842796c5345675672744e7067574f4e4e446b6b6e3056577832564e5650793130574b306d564b307a4a57534d6f766c384a68474e61466652487954704632766949434744364370786d367073542f6579413042684a3053544651306a733946534257684443453249477143794b4244416c7a30454143374f567974564951554f6949614a41714830324761416f435a4755456770395753706b6d2f6f7239516256395851337849664e685a5931704d6a51304d4952456b4a30615643362b51556237485879507369374b71416c324949666b5a464a6b6b457044414b37464143596752424a4453493254566d556f6f512b79464774704537364651527579622b3432656c593166646b71463977625148563278456b697153386c6a5a4435482f77436a4e7155704b2b304868456b75684e66644459696b50775338496835414c4a703252524c6f46495978306d4532675469526144744139786231305146594654526a492b5164305544374a7851596b335a4b533470424c396c62434d754c476d6949445964414f674973536954636567365158614e555347715a463245445a4a4c6f724a65534c596e53612f55696b77524e78584778746c436d4a58386a7569636d7064685555307830696f6e544b574a55526237446b305262734569324f5270696c4b5473673162734347697468594252714b64675272734c42704a4d6d6d696f453666594c466a6b4b784a313843542b345451354534535633525839714a686163332b6858544c47514d37496c4875785374552f67695461744650565633547447542b4a6b38507476737053436b566478473741592f494556624746494b70414667686a5862434544624c4f76754a4e5737496d30597961595437646b3075545a50692f6159507178624c4979672b6d56654f78316151613142394b626f746832315a5130724c4932675830796338495134714c6430592f774a74322b774348344a6372497433524a52564245413648346f566f4b6d32366f476f313079435a4b495157466f5858774b776f62474c794d4143724970417745315158534332783853566639702b5630577063616254706d5032574f556e48686270424e484b54614b306b32532b416f6f544350514947715945754e2b4155484a744969706357545575335459525838305751536b365a4670664172494272746779616361646c544973545859335877694d557273595246734274414653343957684a33304a742f637377786c4b564949563131516a496a474b6c4b54386c4d306f7530564666795478785570714c6c524268347073725378786c5a4f474e755476374d554a705735466a7a4b636d304b796f754b3638396835756d52386b347837746d64716a34564c794a6c7a5374464c564e6c6c456b6b52424951324d555a65306e315867726170486f64753761464359574f6d4e716941373743374d57714151445279766b4c6f6c304c712f41555453474649514667624848794149714a4a646b68574b3253736e59655245716f43445134704444354b624b517536386a59563042454b5a4b68304632675075695370696256413253514e4441426542646f6e776c49564a667551334553645769744a396c6f536c784531515666794e72344168566c696151712b5350466d543273736935666f46576850704653534367556d695338447041333979524a466e4b5042527273676d75306b454b31386f4b51634f377578573054596a2f655a4e43386b71614d6c416d4c73436d694470456f33594f5362416a33384942755859697173537361386b56305a4f6d574f546c7a595a59375462365171364c4a4f704e554853534b6d3146447273794978562b43457173486369756d536b2b76413752463968466357346735574d5846705756767761736236514a445a552b714c6b4f2b6948524a4532616874756b496c496971626f42576b5344674641334348476b374973545a6c644c6e4b4c494e7576505246496e783643496732775969716e43724c664c495930546c4a494d5832673863724963537a334a4d684b335a56382b69524f725257537342554e706f5075794b6b364b47753267616166676649647959454768496b322f4c495752714a434265537a69457430694f32435250694e70555530784f4c6136484b6b513547436239785a7763593230434932326b6773334b472b6944665937494e646f71794a4a4530684c49366355692f45756138417531456b6b7953486c647a667852454a544a5153383056324f3751545654754e6c5456534435453278745a45314f695875394e55555753384264484252743868537175687156435a44366f6a542b416149664a4e744a32434771476b69736d71364a4e7169715334767944594e656a637259686943676b754b56736a51655146792b5577734b487837432b456871684d495035444b4c6445624c5a754c494a645752595347724a56667a51326c397742704a4456465459302b676d6c72537239534b69324b32484d437877616b6c3132504a424b76714b6e4a76792f4163322b72426f6d4a64435632547064503543676d6b6d6e32564d634c706c54586745616f6c6162476d694c354e42614330527372492b3436424132464e744d654b546a4e55566f414d703431663572544d65613476746a6a4f53666667684a3349704964446969466a5443704d615a42736458524b696355723759386b75366a3449565446307a49735532344e43643052534d6e326e6c726839674b61757159714a7075485248797973762f2f5a",
  "source": "contract test{\n    string public name=\"data:image/jpeg;base64,/9j/4AAQSkZJRgABAQAAAQABAAD/2wCEAA0NDQ0ODQ4QEA4UFhMWFB4bGRkbHi0gIiAiIC1EKjIqKjIqRDxJOzc7STxsVUtLVWx9aWNpfZeHh5e+tb75+f8BDQ0NDQ4NDhAQDhQWExYUHhsZGRseLSAiICIgLUQqMioqMipEPEk7NztJPGxVS0tVbH1pY2l9l4eHl761vvn5///AABEICEAE8AMBIgACEQEDEQH/xAClAAACAgMBAQAAAAAAAAAAAAAAAQIDBAUGBwgQAAICAQQBAwIEAggGAgECBwABAhEDBAUSITEGE0EiURQyYXEVFiMkM0JSU3KRJTQ1Q3OBVGJEY5KxVYJkosHRAQEBAQEBAQEAAAAAAAAAAAAAAQIDBAUGEQEBAAIBBAAFAwQCAwACAwEAAQIRAwQSITETFEFRUiIyMwVCYXEVI1NigSSRNEOCcv/aAAwDAQACEQMRAD8A3mXQbRHpzSS+LKfxOz6fr3o0jhLm7bnJt/dlXCP2Pq4dA8//ACvPfq6rPr9onNtZXysysW57RHG17k2cclFDSXdHX5DBn/lep+7qs267PkTxtzk/2oUd32vHFRXLo5Z0xfSP+P4j/leq+7rv4rtmTH1aZVPXbW5R/pbTfZzXGMl4QnjilSof8dxH/L9Q38Z7Jjn7iyXP7l2TcttljlC3UlRzKjEXGNMv/HcR/wAt1FdDi1+16ePGUm2Ufj9ohNSpvvpGlcIhwjb6Q/47han9X59OjnuO1rqnTu1Rrq2Sbm4rIrTps1ntpdiaXyT/AI/BP+W6r6ZNnB7c4cFJ2VQx7fB3cmzA4RDgjXyHEf8ALdV+boIaza1B4m3bRT+J2yCqMW5N9yNMoIbhEf8AH8J/y3VT+9tMs9vlOOSmpIyJa/bO2oSUjRSSYlFD/j+E/wCW6v8AN0Utx2qeKPKEl35KpZ9rlF83JpeKNKoRXRGcET/juFZ/V+q/Nu5Z9qeOrm7XTSI5NTt2TFx+tSRplCoklH7j/juE/wCY6v8AONxpMu3Y5KXL6i7VanbM7ipKXOLOfcE6di9tPsn/AB3Ef8v1V83NtI5tN7sly6/Ubz6LnK3KzWOCfyHCI/47hJ/WOr/NvsGo2jBbbk3JUx4cm0ZJzk5zj9rOflFMFHovyHEv/L9X+boVDbVkeSGp5NvtGyjqdqahjnkpr5fRxvDwZGLBjcblJGMv6fxH/L9Vf7o6KMdBGU28/NW/pBS2+OH6M1P7Grjig10S9jEjhej44T+q9V+cbGGi22UXLI+TfyZMce28FB5XRqUmvnqipYlJ3bM/KYNX+q9Tf746HF/B4cuLvl5ZZptNteJ8llTt2k2c2410mJ47abfwT5WJ/wAp1H5OuW07brVctRFNS6VmNrdn0OqyYseTMvoi6aZzfFrj9T6ZNtvtyZPlVn9U6i+snQPS7biXsyr/AHE/Tm25Jp839fns5qaTba7E+T8yl/uy/LxP+T6qfVtM+07TotRPH7jZqcu36COa4ZZODXaHFU323f37LVCNO/A+Wx+yz+qdV+TK0+DQSxKLyNqPwV49BtHve4sj+h3VlOOHC+JXLGublSsfK436H/J9R9c2Tmw7Lmz8pOSf2suwaLZI8+GV3+rNZHDGUrB6RKbl46p18mflcPss/qPUfTkZ70exytPLO2/hmRDDtENLPTKbcZu+T8o1UcUUqQe10rY+Wx+zX/JdR/5K3Ole16XH7TTla7ky3J/D5pVPijQrGR9uKVMvyuJ/yfUT+9tVptj5v3MjbZZl0O3YuOXFklD7Gm/DqdX4NhHH/RxxSk3FdovyuK/8r1P/AJEJ6XbsmRtZHFOVtGVqIbbOHB52ujXvBFtlc8UEnatUS9Lj9j/lup/Ns4aPapRaWd9xoyNDpNsxZZQll5w4/JoFjVWmxxuL/X7mb0s+xf6r1X5uk0eg0MZ5uGoSjbdfYswbPps0Jxw5W7nfJHMQlKPN+OXloycWfLCFYpuKJ8t/g/5bqvzdRj9JtqUp5ZWbBelsUYYpSn3A5WG67q6h+MkXreN4xSljy6q4OLM/L5f4a/5TnvvKun/hOmnFuKTj4qyrF6b0SfKqOFjqtUncNRNd/cby6yXb1eX/AHL8vWP+R5/zru9Tse14Mde7TZVg9LaCCt5zhnkzu3kyynfXbJZMupTSeonxSqrHyx/yPUflXb6/07pNSoRWs+mJh4Ni2nTpKeucVE5Fe9jScdTOH/ssUZyxu8spW+7ZflYz/wAn1XqZOvx7NtefJk46p5Eolz2naZQU/wAUnBL4kcfp1lxcliyyhyVSozMWPDhhwU27VOx8qX+qdT+TYfwPbMeZ+3raWQyFtG34af4puXyzntTiwSyQePI7iVynN3U2X5Un9V6n828ltG1/iHLJqm1Iz8+xbRqI43LU3BeKZyOKLk485t8XZdGU4/RzbjfSJ8Bf+U6i/wB7r8Oy7RHGorVSVPoyp7BoMmJyeabicQ3OUXG3/uZcNXq1iWL8VPhVUS8FP+R5/rnXUvb9tx43COZr9yiWn2uTXHUpteTln7uVyc5tpeCKxwjdNpmp07n/AMh1H5urno9rk4v3/F32YT2n045rLKdf+zQcE48W2VzwQlFJrpD5aF/qPUfm6TNl23EoxUlOD6MbFodgwSlqYSf1eVfg0+PFjjSq1Y5wTuKVJkvTz7LOv6j/AMlbzUPYM8YwyF+PQenpY1D3aOYloVjUG15RCWOMnH7x8Mny0P8AkeonjvrsVtG15Ff4lySRD+A7Zyll92bv4s5Zptpqcl8dMyJZZxUWs1J9NGflY6T+o8+v5K6aOz7POEoPLKKZPDtm0aOliyuvucfOcrtZ50viymUpZIrllm1+4+U39Gb/AFDmvjvr0fDi25tSWoi6+GyM9v0Gofk82WOLVJy/ezKhPJiilDJNNd3Y+V16c/neR6Bg23SaePU0kmYusltWNNrUnI4p5HzlPUydrw2YebGo46b6bvs1Oml9l6zkree7tOWVzyNsccu2w7x5XVnNKl4I8q+WdZ0uBev5rNfR2b3fbVw4SlaH/GNJNO8lo4qUElb+RxSjFxT8l+VxcL1Ocrp56/TclbfGRPBvGkwyXFuzmIwj19TpfBY/bmk4+UT5bFr5rPKatdll3/EsV1dswcm66VtLs5yKtUT9pWZ+BFnPlPVdG9foGr5NSTLZ73pq4rJ2jmJQSh34KKivhUPl4uXPll7rqf45poqL+GyGTc9HnksjxnNyliceLEppJL7I18vCdRnPVdXDdtFFzXGMZJKy17rgnbTOOajJvoyMORK7Xx0PgRLz8tt3k6GW56TK1GfZZ+N0Eci9td0c08kLHfyifAxJ1PLP7nSrc4wuqVsnLd7TTqq7OYTUlUh5cuOCaSY+DGfmM977q3H4zQxisihcm+ycd30nKEfa+LTaOfi4SSSTMjHjhGrovwYvzXJZ5zrfz35OoLF0Uw3nTtyXtJPxbNPllCUumilSgrofBn2T4+f5N7PX41GljpChu8McaxQaNQ8sPbTUbZRLLytcaHwZ9j42X3b2e6wduRVPcsXK447NEnbtouTTRfgxj4uf5Nx/F4dL2RvdsbjyeL5/KaOLUZ9ljcKtIfBx+zXzPJ67m1luWJtVjcWXrdIyxWoXRz7nfkXu9NIfBxJzW/Vu/wCJ4ZNXiZbPecSjDE8fg0GHIlalCyORcpNofBxa+Pnrxk3kN3x24srW7ptpwRoe02g+zLODH7MTm5PpW7/i8FKnjXRGW8Qk7eE0qattRVjSNfBw+y3n5L7zblbzKMW4423fgtnvOPJFSlgqkaCSsHG1THwMGcebLG723MN8xKsf4biWy3pRX9lTRo6Td0P5SZPgYtZ9Rnn/AHOhz+pp8IQjhQob1ibd47NBJqHhJkUuUr8dD4GJOfOfVsM275XPpfQZMd+z4lGOOqo5+S7BNKy/AwYvLnbvubl+o9Y7TxIq/jmdSj/QRl9zVlvXHwanBx/ZrHn5J6ybj+PTdSWBRLJeonGKh7VufSkaCTa8RMX3Ll4N49Jx36MZdVybbue8Zo5EsmKL6u0Vx3zMpQk8MDTSbc7Y5V9zr8lxHzXNrUrfz9UalSr2YuIT9TZXJKGBHPKKq6Km1Zr5PhYnNnfq6PB6hzY5yk8SZbL1Hl936MEVaOWbJJ9IvyfD9l+Y5tfudUvVergnGOmgQz+p8+RKtMrOZsfKh8pw/Zn5jm/Ju1vmr88Ipl0fUm5QqSUTnXOx8uifKcP2Lz89/udEvUuunNc4JRHD1BB5qy6d1apnOOq6ZXdkvRcVbw6rmn1d9i3HR5MqlHJT/U23uvIrTTX6Hlnf/oztPuut0lrHJOL+GeTk/p183CvRh1lv73carH70HBvpnO5Y4MaePz8Gft+4Y9VxhOXCb+7N3m2rRwg/70mfM5OPLC6sfX6Xn49e0dn0mDR6Z8Irvszs2KGpVShGjnM8s2h4tqUsbddCe65ngU8MJOzmZTkyyysrjaEyNkWz9c/LyU7FdEOxPkVvSYroSYBdLFJA5WVgRNJ8hqRWBrZqLeQuRFAE1EnLwIXSFYNLIumRb7ZFsLC6SUgc7ZEEgaiSqyXXmypyQeSGlnKmJysr+R2DtWcqFyK+wB2xPkNSIA2DUT5ByRWFkNLUw5FaoGDSzlZJSV0Upk0VLiz8edpKkZCyqZrFKiyM6+aMZYSuWrG2XgIyRg4s7um7Rlpx8o4ZYaWVZxTa7I0xJ226JpnHy6SoNEKbLitp2wqNJEGWKKXnsJca6KqEa7ZZcWqK7jRX7sVF10yzG1i5aZLkooxZ54voplNydtlUjvjxs99rLwzfdoyOXNeTWqTLMWRQbT+fBjPCLM7Gx4qgjBIpxzTdt/BYvPbOGtOkz3FjoonSLlKPaMWbnb+nr4NSJbUlnxpqNuy9STV2YHGKttdlinC6S7+TWk7qzY8SvNlxy4pKuKpkKSToV467XZNLtHkkiFxurLXGNEJ8E1caommpUG64/qy90vBV06aQRT5tyJppby4JSsrlNyabkRyO6Q+nQ0bJNEuXaK2iceiaJUvqT6DJH/7C+bsfTIu6lHKuLhJWmjL9yDxxhGPgwnGJZioG16dM12TK3kcndroz5SSTNXlnbdHbjktcuT/a2GZ8uRkKdmr5V2ZmJ8kb5MYzjuMjy+iak07KeX6EuSo4abi7mweVLpFPIjT7Y0trKWRjc+/JjwlVKTLW4tohpNT+CUpSapFXVOkCsJqrFOqYpZHZVfdCb7saN1fPPJ1b8IhGa5JsrcoyaE5JvpUTSMlShybK8j5EY0WUpxbZHWelNKgikvkdLugUeuyosx8INtvokssfJGOLHL5aIyhjg65NkUSy33x7K5ynNUKTTfQk+yohGVdAmuSsspBxi+6Kxac+yCoLXwR8toqVbaj0SUuNSorxyeOVtWS5dMCSy3yJLK15KYPk5IGyaN37rcmaLIRyfS1RGMYtN0DXEskO6o2SHSatojz4/AXuWIjzb6H7njoOSQ013CM0n2jJjlxdLwY8eLfaFKosmonctyzV19yu+TRFPsl2NG0uTTSZc8sbiVx+U0Pj4M6TdEru0RSt9k4NX2LJBrnT8KwbpSWSL+hfSiMOUpJVZUs2SUK+BxnOKtDTUrMlSi0vJVUo/TRWs/PyqD3Hy8jSrJxcmhxkr4g5uNNFbblO6DNSb7fQ1FEJRl8JjySUYJX2NEqdK+gbVkYSjSVim1YbRl2Vlj8EJFiEl9gTfySXaKeMvNlSr+SJWjHZO6QRKLfaohJUycZV5Bu/gKri/uNzXwWKMWUONWFRcr+BuNi5deAdliJSxNeZL90Q5tS406ZO8nFKiFvq18HTHFi0p8kn3RiLpFmWbsqZ3xmmRbE2JkLNrIsWSSi4rwQojfYOQa0bYWRYrC6TlfQXJkLZJENGhkbCwmk0w8kLJd0UsSbCJCx/A2ml/wCsZVL4Z1W37rPLFQyzjzSqP6nHxZZijJ5ouHldo8vU9Njy42/V14eS8eU+zvs+bJk07xvG3y8GNj0mVYVzxtMt2Pc1muMknlR0mXUYv71fqfAz47hbK+5xc8uPiPH2kl5IEb7Gmj9U/PaLw0NsBBTB9oQwpUMVgAxDETaGnQ7EmIuxIjYCCpWmIQASsV2KhgJjAAF4HYCAlYmAFCsdoVAkQ8ABiAaAYgAkiCJlSnZOLsrJoM2LfBbCbTqzGsmmSyVzsZ0dQ3xVGQskWvKNWpEuSOV4pTdjZPJFdEfdx2+zXznYuSHwYd1Z/uxY45IRUjXMdj4UXuq6U0ypyI2JyNzGRPNqFjYrQNho0W41bRCLj1Zb7idRX+5LGay4qNWSjJEMPcWn9+mWNxj0cMsfJEnKHmrK5TTdURUot1TLFx7RnWm5VMk5FPFqTfyjLa767IuKV8kWUsJ5cdRUU7+SucqaIyfHwjJxyxSj9XbKFyTd/FA5Rl4J3F+Ch+TOl2k1TCUlNV4aRO48CqKV2Q2hxZOuNE2kkWuDlj4JXZluMV9jibSGgxLFKeXNFVHxfZr1LD8JtBonHxTEnbfQ3KPwQYS1aCdFXJUPkE2t5xZrsi+pmS3+pjZm2zrx+GMvKloy8PSRi47bRltqKhSN56FyfZJQil5K20qZOK6tHGrE+uNDUq6IJcSTlF8U/JGg0vKEu5UQ5UNSV2TSrm0TUolScfkl9PhDRQmmwpNCVfYl00RhDiug+QtElTCppLyFkVLplTlIaNrXS8kVJd0QlbEmNEy8rMbcb6Kp25WWPIolTnY0vdDk6qhRmrqnf3INtqvgfTXRdG2TGSK49NkE39hIiUPyNSjyoPtRY8TjToqdpKTk2MUek7LIzTQXRxfHyiqXTHkk5Jfcak6i3FA0ni7pfIppWTeRJqXFWYrk7YiJMa7srtjui6Q6om2qfQ1L6SK7AcXxSYN8n2QXLvol21bREJoVyVEk00WKuNsKnjl/iE502JD4xq+RGilJfA55Ol18EKsUfqtL4IK21RYpLh+pkYdJkylWfDkhOcH8BWH3ZP5ZsNJoY6hSeTJwUTEniqcuLtIbDTbpMshPtKiqMJAupU/INszJkUUY8sbkOLk5R5QUkn4MuThNtRhSCMBxcfgEy6XXwUzUkrQUNkErY2xOTKBtoPzIg5FkAFQWErMjHxycYpUFY9j5Gfkw6eEOSyW38Gtk14iFWxlUir6o8n5tkO7XZan9iptUlIn38RHyd9hKTcXQiWhOddopm5Ri+Xlk4SlwVvsxsuRzSs9GEc6qkyIyDZ2IlGKkpNzriul9yl9sVuw7DpIfgiMa6QVGx1Y+hAD8jIsERTEAAMnydUJJ1YMM+KXZIjYrBpOmW45cZxl8plVjsJds3Dqp6bVLUY03Lw0je7ni1XtwzYc8qkrOWUmjqdnzQz4MmLM3KUT5fXcU1Mo+l0HLJnMcnJMCvk7JXZ9R4NJWMhaGioYJioKKJAhJoZEMOmhqSp2hNkQg8Er/AEBOwIUImwcXV0aXaAWAwoAQgJghPsAhisVgAwsaQUA1VCBeSVKmEQGgoCKdiYILKEMSZICXgLIjDKRO1RW30HIJpOySZX5FbTCaXOiJGw5BNLCNkLECYp2NtUQAi6OxARCyJAuhC5AZeLPxVNF6yqbNdZZF18mbizcW0k4KK+xjKbTZV7n00zI07jytpMxcdMedsiOSotpXZDLJSVInB0xSlX92zk6b8FScKZDikrRYpPj+Uikku4hNqnkp+CyORSSVdhSvwTlGHGLiu0Khxx812ujYy0CwYVkyTSm49QRr8c5u040ibg1JzcpPrpNma1EJ1aVF+n1cMM1aXfRjSlH/ABdlaqPhWZ013aZmqtZLVNyVmFGMqlcaZY8rdWiz5pBdqlDjTZDp3RfKJDJHilSCFKMWk0ir5qiacvhBabCo0qZj1bMpqiqXk1KzVTioK2XLwvsR5JdONoszZITn9KSjVJG/abiUPb8SfQ1wTaTMdUn4Jc4J9Dt2u1zyKqoin8kPciyLl2mh2HcsbHyt/lI2nTos5wSpPsna1sKS+XRKLI+YdrsipNfBNJatYRl2VX8ll2jNjO03TbE2R5UiNv7EXZruQ5vtdCuxc7KJeRDQrAVCosvrwJ2BSkrJ1XgSdNqh01EKUJdsTklfVoV+ehR6VEVlYJ4lkjzXRB5OTfTSRVHyqL8mN4qT+UGoipWnaBr8tFV9lr+AIPvkO6VFbm78BbsJtZzISkpeUR+eycoSgvqXntfsWMULwHmgRZGF+CiFtIMbdMlKNRKoyaYFnZZ9TRW5P7E4SdGagUHysyY41KLi12yuEpN9QbLZwlXKVqiKrlDi+N1RTS5XZbNSnZZhwOcoqS6+/wAE23Enp545Y+arlTRbqsfCCyKPnoydZoMrjBxz/UnXErwaXJmjOOTMoRj8yOdyb0lJe5pcWVT4yj1x+WQzQUMcU5pymXrR7dhjUtf9SVtkcufZ8S5PK8kibKr0WnWXO1klJQSt0SlihkllUKUIvyyyOfbJQUoamWNy833RLLhwcFDT6pZG+2Nppr5YHKpRdJeSn2pyydKzOw6KU5rF+Kcb82gnp8uBt+YKdKRruZ7a101lx1yVBjzuWZQca6uzJ1KuS590Q41NTo1tNVGTu6MfJKVJfBk/VKcvppMxJ2nxfksUl2R5fUPlxK3K2UTcm5eFRPn4VFC6ZfCPO6ood9Mg30mvKItu6aBNgTuTVSI8W3Qp2R9xpBdiX0ydhy+SMu7Y4oIdgk0R7j2STukWMVVldNIx5MuytN/sY7as9eHpmFZXJsslTaITXmjTeKsaEAdErBuyKdjCaRGJoVkaSD4BKwYQWO3RAkmiFZGNv2cifzVFNitkbCSJsiABUiREadBmrUurN3sE4R3GOPI6WQ0Kl1RbhyPDmx5krlF9HDqMO/jyjXFlcOTG/wCWIwJV9Nkez1BImhUAKdAAiIlQ6QWAQUDFYJN/BkSiNhxp+CPzY0h0Lk0qDlYiqsxziruJB9iEU0BDAqgYIGyAYWAyoVhYJB0AxeABsBh48gKyBgIVlAwtkhWFFkrIDST8gPsCTI0GT5AKiVANgIVhNJARAGkrATEDSQhAFMQ6EBIE39hWTi+qYSndImpMgmh1RGKyY5kmybzqRhfLJKLZLhE1plRm232ZMHa+5gqoeZF71CjFVKlRjLBlk0PooWopWlZa8nu1Kkv0RxssWVbzpFTyfFip22n1Q4uHVoy1sN4/HyR4dlsnjXfEpeXsaqWpyg+uiaK5ZVFJfJOMo12yduX2alht9onJorU02+/ApZcfaabHbfsu4SlDsswx0tNZVf2Kcs8PHH7b7f5l9iiUox7SNzC07oyZpUqMZlXuyfkhLIbx46lu0+fwQqitT7JuXKjp2s+Vq7fkrfTYKRFzEmg7Y+VFVk5Ukqd9FNMlSUl0QpcrkShx9ucrpoo9xszpWTPJ0qQnK0VJ2WIzYJRndFqKOSrwTjP6fsZsRbFobkUfsTUjFxIfb7oVB2gMtJLomqEu0RT7fQVeQkmOLI8m/wBiKIVasU5dy66TJ0laK59ryFV+QcUv3Cmgt0BFJq6LE5S/MNfZ2ESqfFEn1FumBW3PtKTIFdvwxpiYJlQPsi2xtUuiEYthLDtlsG+LQuLik+iDk0VF31pdpqyifK6RL38jr6ron0+2F1s8cuqaLPzPil2Q+3RLHyjJSM0Z2G8DT+R5ZyyP6e7fZCMrlcrpkdRPFicXDlbZiqyY6bJOagml0Sz6PPPSe1CdcZW2iEPdnlwpTlXh0W6jHLBmxyhnbhJnO2ukieCWPDwlnncV038sw9x1+HUY3gwQahfbLNZmwLD7cl/SPv8AQwcWPQxxL62sjb+lkbk21/FSaT7dUWvB9HLhSX6G427Zp6iTytXCLOpli0PDhLFG0jFzanG84ljTS6LMM3hdx8nV59nhk+rA6k/hnP59FlwSucWmvKZccts5YaZ+DVY9Zj+te3mRjPJrJy9ipNN0ka9ZZQmpr47N3pdRl1mOE51GcV5ibYNbZqZ47nmjCvuYH9LPLw5J8erRsOWOX9tmkUQ0uHCp5seVSTdKHyNpYsinfZhaqK9xNGVO3CE2uKd0YT8u2bxRRJfNEbX2LHNWLo6IrXY43bVkqaBL7gNeSMv0HNOT6FXQNI00QaZNp+BOwaIaCnyTJfPRRCSYqq3XwSbfghK+JrH251iydkG6ZKRV5PTPS4xNyRVbGxGm5CACIaOwsTBMLo7YgGZCALEFMaIkglBH5H2MAQ7sVABIdkBhNJWTjJJptlZK67bomU8E9xBthaCRE6ESYhoGAwEh2ABYwoiETUkhUgoJdUnJiJdCChNfYVgIAGAUAWgALKAGMAIjAYAg+4CYAmAhsgaEHyADVAQ+RsGkn0IQA0YWAeAJKiXRCwsJpItxYp5FLhG+KtlJbDLkxqShKrVMIqGNMLQEQ8MbIsKd2FiAB2wQAArdhYBYErJEATKmlngV9E3OEscElUk3f6lTIiakkS534KuwplO2LrTVMVpEAYZ0uTsyIuUUYaY7lXlkuMrNxbHk1Qvcr4MBTkNZGmYnHNpccmU8zTKpZeUrK5ScmI3MJDX3TJJv7lSkWRttJeRZCxby6J4+M5KMmlZjuRXKVsmoklqb6lJN+GRcxECxrRuRFgBW9BDEKwJch2mVjIaSdAhDIiXJoSENEFkLSHZWN0NMrU0Tu0UJ0T5E0lWpjRTzJptszYMi7QkmEUWJo410ginaHKnPrwSG/wBjLWkUquiSdIVSXwQf2ZDRykyAmpBdIENPuiDl5VElTG13ZVTf9mn8ijJ0018EJTdUX1FRi07tAK3RGUrK5P7AuwE0RdllMGn9wK7kiUn0FMXnsAXYvLfQrpuieN1JtrorKqEGuUmvkyISqVE5zh/6Km43dsLE7blXwTjL4ZVHIrJJq1XlGRtYqLSIZI2pUu0UY5ybtJ2WZI5IyturMVqLYZHCLSjc2vKLtPBVPLqMq4RfgrilLE6k/cRjxhH+kU4t8kc22DuOeGfUt4+oVRhOTg04xtl2dcG0KDSNSeCXVdDo9wyafDxjJr5Zja/LLNKOZOStfDMPFOKtSVxMmOkxZPqhmav+62efLCyu8ylZu37jqFKEJu8f3+UZ2rktcrg1KvJpfweFXet4p/YwOU8Cahk6b7JjjdmV8MVq5U/u0Z+kmsWRXfFqjC7818mw2/NhxZJ+7Dny8foeh5vqzIaeGXUW8vGJPLhlhlPhLmmi32oTTlfFA1OqsyMdY29PGMpo1+aLg4RUrfybGMFGXJ9mE1ylK32vg3iaYlDaolJoq7k32dIykuUqTC/hB4Ql2USVkiHfFk0mkrCo0QlF/DLqIN0FPJjlFRvrkuilqSJScpOLb8eBydUWbZukaK8kkrRdPJiWNeeTZr8j+s74YX2xfN0JLoqd0S5EGzs1JSEOxBsCcQGAqESEZVEbsYwbQAACgBjYCHYmKgJB80LwSirfbCHQq7HZFhEor5+CSTbSXyQi7LHGXTh5M2+KTxlNq7E2ZGSOGMYcJX12jHqzqSmIKAKLAAp2BJDFQIjJjYhMBDYgCigAAALDsQDAaGUIXgYwiNgMQUAlYxgACGRAIHZFsENh2A1bCkBKgCIBRIT6CmAIAhqwsACFbQWxoTQU0xsiNMAFYMKAdhYhsAAQ0AwAAhjJQg5zjBK23RsHtGvTjWByTZLZPdZa1X8A7Nsto3BX/VmNbLuHFP2e2O/D84efs04zcfwTcV40zf8A7Iz2jXQuTwOh38f5w3ftWqC2TnCcG1JUQNofkEJX8Gz0+26vUQThhbFuM93Q14G3ey7h0lgB7JuCp/h5Gficf5xO3L7VqCUJODTXlG0Wybg+vYYLYtySt4WS8nH+cO2/atXOTbbIdmTqdLn0slDNjcZEtLpM2qnxguxua3vwemJ2h0bVbLuTb/oKQLZdw+cdInxMPyi9uX2agDc/wTX8YtYyjU7bq9PieXJCoicmF9ZRdX7NaJtBYUqNhEiNAgJDsy9JocurcljfaM57BuN9QVHO8mE907bWmGbp7Fr1FNQQfwTXTpqCSZPiYflE7cvs04WbLVbRq9Jic8ri0atGplMpuVLNJqmKwRbjxzlkhFRbcn8C2RNIpWi6FfJt8WyarLbUOJnv09OUY/DOGXNhP7os4879HOrt0Nxa7Oxh6e+lL3Uhv0+10sqOF5+P8nX4Vci+VQfwyyMZvwrN49h1ynOH0OPmJhT0Wq0t+5CvuWZ431lFmFjFWOSgpvxyISpk3ksrYSq+0V9vviy9xkghOalUVVo0wx2yTtxN/j2TVZlCeNRcWvlly9O6p2uSMXlwnvKN9uX2c2lJfBbk6ilR0H8v6xTi7jQ5+n9U6qa8k+Lx/lF7Mvs5mKGdE/T2qtPmiT9O6pvqSL8Xj/KJccvxc2lZCpSZ0/8ALmqV1NCfp/V0mh8Xj/KHbl+Nc3kTS6K8anLpxpG91Wza3DTjFtM1FZYuUckJQa+5qZY31ZWbLL5iEsdeCDZc3ZSoSk3Ssog3ZKKa76ov/CanjzWFuIpPj04VL7MbakVJ9PosgiKdD5OiGmXDx+pmYo5HCL5Wl5s1umleRJujYRU45LtNHPJZFsc0MeVWqTMj+2XJVx+DFUOc+VXZfGDX0p0jm01u46TjGOWMov7q+zVxXlHR5YafDH+ll3k6RrNTos2nTySinFvppnTGs2MBt+ENTml2xruVdsGkWyUlsVJ+ErJT8Jslxd9RsypaLPGozg/qqiakXdrGgpTSVM3Wi0kYZOUoW3EhpYvBiy8oKU1VGwwarDkhy4uM15iznlVmlrjj4tMokl4XRKU15fSMaaea6k0oozFqLTg/qNXqFF5HJSaZb7inGUuTMabblZ1xjFVfPbBWqJJJeV2COiB/JGPNsck1JSJua4viVBNcYUK5STp00V9v5J21YWHLJLwkJ2FsVsFp+zNY/dafFlE3bsz4ap48c8bVqao10uujvxY7cs/ppByKJttkmyEuz0LjEWyIMCV1gAQrIp2AgAkO0kQFZDR2DAfwBEAQwqUXFRaa7+BEAsGkkAhgDGAggtjXZEaIJXRlYqlGXfgxi6C6ZjL1WfG5/tSRbG2I7qB9jpB2ACQ0IlDAEBEFBQx2BESTJ1YkgbKgGACEAygCxUMBDVjEUMiPzQAIAYVYVIVgBEDdCBsApE1LqiIA9nYuwEgJAMQQANDAAfgLERBQUABUSViCwAkJDsAEAADAVAyh2MiiQRnaBqGt0zfjmeppv5PKtDxeswKXzNI9Ypnz+uuri6cU3s1RKhKLLkqPnd1+71TGfZVxISVGRQpJCZXcTLCWPLt6wvHuObqk1aRqaOv9TaXjKGoRyfwfd6fPv45Xgz3jlYUISyNQj5fSPUNrwfhtDgxfKVs860EFLVYI/LkeqY4pRS+yo8vX561HXhm7U4olRNIKPl7v3evtiriJ9fLL2VNFlv3LjHCeq4c9RpvhqDZi7Lmhp9diTdcjZeqsaefRyX+FnMQlKM4Tj1KLtH1+Kd3TSf4fO5b/ANnv1Xqyv5ZJRMTR5/xGDFN+eKszT5eW5bHuw1cYi4mHq8PvabNiaT5RM8i12TDK45S7XLGaryDNieOc4/aTRUbzfsEsG4ZF8T7RpEj72GUywxy+8eC+LYKsODSCmWY48pwh8yaj/uXLxKO39O6WUNPLLKrmdOomDt+nlp9JixvykbJI+HzZ2527e7DDUiHEi4ouIPt0c5a1ZJK431Pm6hihL90cjFG13XI8uszy52ro1kVckqu3R9nhx7eOPnZ5d2VZ2l0ebVTjDH582egaLbcOnxQ+iLnXcira9BHS4IKu3FNm5So8HUc9yupfEerh49TdRUa+CaiTA8ltd9Q0kOhJjTMmodFObDDLXKKaLhiWymo5DddpjCDy4Y1G7kkc3Ol4PTppNU0cPvemWDP7kYfRI9vBy3L9Neblx15jT8myXNRi7i2YkpS5FqnKuvLPb2PN3+3oe0c/wWHl9jbJGt2t/wBSwL7Ro2aPj8v78v8Ab38U3jjRQUMRzdtQUFBYWDUFBQwBqI0a/WbdptXjnDJij2vJsgLjlcbuVLhK8x3LR5NDmUGupeDFwOXuRSR6DumjxanTy5wUnBXE88tyqaVH0eLk78Xlzw7anm1Gpg+HKkn4Rjym8k5Tk3bIuV3bFcfk6RhG05EnZGPG3XySUG7d+CgilfS7M/BJXTfhGLCCl0pU/kr5vFO/LsxlBv1BwUsiVwY4Sc7tNGBHPKaUU6j8Iz6koRfJUzk0rlj54JwaTZZhwwyRUc0qklUU2KDbugdypzXaAq/D4cHOeRUkYuq0uFxWXSvqXwzPknlXGauJfjhCEONF7hr9Kp4G2optoeXX6jDyc1cW/NXRnNKXFQ6pk/bi4uLfRm5CjSZIT0icofXJ2ybhi4qorlfTJyhjSjHEvpXlmP1CXcumBJZIybU4vpmLmzY/qxRbRblyRgm2/pNZm9r88J3fwaxiKZxhCTjDwY75X5LJfeyv9TtGdJXfTZPguqZBRVNscLAE/gGizIoPHj+JfJCuiohQmmhypeBq2UhJuuwCrYGozkrmUyZdJ2USPVj4jlPaqRDsbGp1FqjTsg0JjIkrcACAipCEIhpLoBDAjYCGFAidkbAQwAAH0HwIAsYAwAfhiHRENsti3XSKDMxpe3afdmMvVTW7ixQqwA7AoYhhACVDEQMQhhQgAKoIdgxDABPsBAFBQ7GuyhITB2h0FFCJCCAAABDQhgMQAwChPyNMGACokJgKgQDsKAtsACAYkwYD6CiKRMFACYqIBgAwEgoBAPsVsY+iiI+h9BSACStdsFRKcuTil4RUZeicVqcFq05ro9ail1XijyPStPUYE/8AMR67BdR7+D5vX+8XXp/eS1RRISJHzXrIhJFpFgc5v8L2/K+FuNM88rpHreqxRyYckZeHFnlmWHDNPHX5W0fW6LPeNjwdTNZStt6cw89wUmuoxZ6HE5P01pkvcz/fpHXJHl6zLfLXfp5+iVJIlQ6A8cehGiuSLiuQSuJ9UUs2l/SLOUdJM6r1Sp+9pH8cWcm+kfb6b+DF8vkn/Zk7f09qnOEsUvhHUI812jVPBrMUrpPpnpMWmk0+meDq8O3Pb1dLlvGy/RKhNEgqzyPU5H1Nhh+HWWUezh6PUt007z6LPCrfHo8uqcbU1TR9jo8+7j19nh5prIjYbbgjm1+nT+JJ0YCOp9N6eOTPkyuF8Y9SOvPl28eVcsd3KR3ME0i0gmTPhXza+lPSLNduOZ4dJlyJ00jYs5ff9Z7WOOF+JnXgx785HPmusK4uc/clKTVN9s2Oz6eOo10IW1X1Gp82zd+n5p7lj+/Bn2eWdvDlr7Pn4T9UehxLUVxLUfCvuvqY+MYZr9x1q0eBy/vPwbA1W6aF63DwU+LsuElym/THN3Tjy7fbnVvmuUo1JcTe6DdvxMlGaUZP4OdybLrcSbT5pGCoanTZoZXimnCSZ78uHhzw/Trb5eHPz8fJ+u+HpdhZrce5abJjxzeRRcl4YZdz0WKuWVM8Hw8967a+nOXjsl742LZoN+wrNop3/dL1u+lk2oyMLXbrpHgy4/mSO3Fx8kzx/TfblycvHcbrOVwy7S7LYUY7l2SjJp2fX14eB6btEnLQ4TbJmm2aUHocXFUbdHwuWf8AZn/t9Xi/jxTE2ArZzbrX6jccOnlU5GOt4wvxVHNb25Y9flqT+pJ0ahZZH0OPpMcsMbv2+ZydZy455TGTUr0bDuOmytRWVcjYpnl2Gcoyi06drs9Kwy5Ysb+8Uzz9RwfCs/y9XS9RlzTKWasZAhJjPM9aMu1TVo8y3GEY6rNCKpJ+Eelyf6nmm5qUdfqPta7PV03uvPzNZL6UNcaBtsSUUe1wiN0w5SE03Ik6V1IBdefDLo4/d7XlKyh90STcfDoWKtlOWOVEoZck8kbdKzHeRNpNdofKl0ZuI22tl7aUYz8/KI49RCMV9VujVptytyMiGONqpGe1pvceWLgpSpDeXHaimnbNZOeN/Ty+DEg48pTcvy+EY7S10HBcupdiTV1ZpZ6pLHBRk1LuyOPXN44qXU/knbTbczcMfyVzinjTnKrRrYamP/ddoqWSHucnJ8KLMTbKxr3YNPIun1+prsmOUMkrVFmZwU0oz/WyvJkeTjc7o6yIi+VJohJVRZdxoraKhNuiSsSJJhA23X3Fb7VgHyWJo6E2+kN2LwaE14IMk7VFUjeEYyquTKn2WtKrsoZ6GcUSLC2RbDtIBAgYaAhgQRGJgmFMQCAlKvgiMGgE2XZMOTHDHOUHxmvpZSZmXWZMunw4ZKPHH4AxUAhgJDdCYrYE12D6I2xpthDQdoVAQSM5YYxwxnyp0a+y6GRNKLMZTxSeKjRFkiJ2ZgJUQGFMYu7GRCoKDoAABDACRFAANkQdgFSqxryRGVGTjwrJGTUlaV0Y0n9gf6EUCRJWADogQx0ARGgH5AKVDARQwFYADYCABiGIAJESQAILGBEmQdgBIAToL7sBfIyCJpkKiBKiLKoGhJDsA6GJIkVFmBYnk/pb4orm1zlx8X0KqBK2Bl6R1qMDa/vo9dxNuKv7HkumSeXGn45I9Zxfkh+yPndf/a3wX9WTKQyCJHzHsMRQs0XqHivvjZkAlnlXJWuzzretKtNrtQ/iSUkejs5b1Dpo5Z6ab+/Fnq6Xk7M/8WPPz4d2DY7Ji4bfgtdyVm5MfTYliwYYLwomScOTLuzyv+XXjmsMZ/gDK5y4wk34SK9Pl93HGS+TLW/OmQyuRMhIiuM9WNr8HRxz7Oz9WPjj0ro4ps+30n8GL5nLP+zJZCbh2vJ6VteqWp0eL7xikzzJM6r05q+GeWBx6lHyTquPu4968w4su3kn+XcoYkM+M+kqlFO78HmW76f8NuWaDf0umkeotHGep9Nbxag9nRZ65NfSvP1M/TtyKSbaS+Dv/TuBYtFGXzM4TDDnlxQfXKSR6ppsMMGHHjivEUenrs9Y44uHBjvLbIRIAZ8p7/ohI853vVrUalpPqJ3WszrT4MmRvwnR5bnlKU3K7bPodFh5uTx9RluzGVXyNjtupem1MJ180asuxum7Po5492NjzXx5nuPXMUuUIz+JJMvRy+y7jHJijinNJxVI6WMj4XLx3DKyx9HizmeEWAKxnN0RcSDxwkmpRTLQLu/dm4YX3jGsz7bpc3nHRpdbss19WC5fodZQmjvh1GeH1282fSceX0keY5Y5MM3GcHF/qYk5npOs0eLVxrKjg912/LpM3i8b8M+lw8+HJNakyePPprx3/DWOacHGkOEqKGWQTdI70s1HpGx5Oe34m1Tvs3iNDskk9FCvhm8TPhc38mf+30+H9mKywEBydHK7vtOfVap5cUumjUx2TVXUrO+aFSbtnq4+qzwx7Xlz6XDK2/dzGj2JQccmadtO+J1MekkRokceXky5L5duLix45dROx2RIyZydkMklGE5N0krPMdblll1eXJap+Dr931+OGOWFS+qSOFbPodNx2S2vDzcm8pITbBK/BW27JxpI72MnOL7oqSd+Rt3dNjhD4sgaVjSqStgo1fZG3YVPNh4VNFV38l6m2qb6IuGLymFRxqEU7YOTRFRSJ9VRRDk/uJSsUokU0kNIldfI0k1ZB8afRZCHRNIzdPpYZvGWn9ijNCUZ8L6sSnGBCUiKHBQ8eRNpu2RuxMCV2A6XG0wAENKhEl30iodNoOH6jaf3It11YA018i4r7lkcfP8Av0P2mvm2agqptFc2WWoWpOyh1fno74xxqDtFEmZOXjylxdq3RjSR0axQvsTJUiIdSAGMigQAAgYxhUQEDCrFCUrpECUZSh8kAhiGgAaASY7SRQSIjsiFgGgAgmISYwhqiX6oiTTSozl6rP1J+CJIR1CJCBMgYhgQFCHYvBQKhiYFDbIjodAIYAwiJKxAiKAYmSAaGQHYTRsYgIF4GRbABhfSC0Kyh9AAADEAUFAAwRQ7CyI6BqAkRoCB+QBJA6CEMVAFOgCx2EAmMAI/AEhMAQxBZQ+ySI2SQSsrF+eHdfUj1vD/AGWP/SjyHF+fH/qR67hd4sXX91Hzuv8AWLfT/vrJTGQQz5r2tJqs3sbrgX3Rvkzjd+yPFrsGRdNI6vBl97BiyVVwR35MNcfHl948vDnvl5cb92QU59PjzRSnG6dlwzhvT01FKhgDCtVu+Z4tDlkn2X7dLlodM/nh2aX1HmcMMIo3O3PloNNL7xO2WGuHHL7158M98+c+naziEiRCTOLu5D1VJe1prOJbO09VySxaSo3bZxLZ9vo/4I8HL/JUkZ2izTxZ4STqmjXXSss5vjaO+U3jY5WV67hyKcIyXykZBodj1Xv6PHf5lFG8TPg8uPblY+jx5d2EqRrN2wLPoM0HG6+pG0ITVxa+6M4ZduWN+1XPHuxsefbNp/xG4QtUsbtnoC7ZpNo0XsZ9ZJrtzdM36O/VcvxM5r1I5dPx9mF+5CZIqySpeaR5pN13t1LXLeo9WoQx4avldnDSdPrwb3edSs+rc14iqRoJds+502HZxx83K92dor5GmRJxhOX5Yt/sd/CMjFlcJRcXTR1ug3iaqOTtUchi02pn3HDJq/sZ2LSa3txwzTRx5ePi5J5sY/Xhd4V6Rh1OHLG4zRlWec4Me4wm6hPyZ2PdtZgz1N2l5TPn59Hd3ssrvj1snjPGu5sDnY7/AIaXuQo2Wn1+mzpOOQ8+XDyY+8a9WPNxZ+s42AMSdjOTshIwdRp45sWSDXbj0zPZTJM3hlcb4rGclnl5Jng8WeeOvBHG3yqzdb3pfa1uV/DpmmjBs+7hl3YTJ83LXmPRNgSWgg0zfI0Hp+CjoI0zfRPh838ub6HD/HFoyAHN1SA1uq18NNNRmZOHPjzQ5wkmh23W2e/Hu7WTQAmMy0jJ0mzmdbvc488eOFV1bOnZoN226OfHLJij/SJN0duDsucmThz/ABO39H/1w+fM80nOT7MWrSp+CclK5Rn1JeV9iuKUb7PsSSTUeHHezr7gxWn4J8ZJJs52Ou0UiyqRW3apDS5VGzNiiUqYDlHilbsgZVY3TI2Pp+S6WPFKKcMnEKpF8hXBruyMnd0UOb6ZSiyFNPkDKiNMvhKOOMk+7RWooJNWQDItj8ok5Y+NU7IINUkyUSCRZ1QB8DbfRGPRaoxkvPYCVB1EEwsIscko1RTaY0++x0iyIacFb+Q9xpeSLSQpK06R0xxZtUTbsGyL6ISZ3kY1tBuitslNkDTtIbZEaQmGh0OgJxi++jKWoCHIiFhjoQwIsSJUIKGIACnQDDoIiFAOwpBQD7AQfJJAgmwkAhgMkqTX7kpTjKklVIF00zOX7ak9xFoQWFnVAKx2NGQrGKgAYmCAoVEiLGUSQgTAIBWABQAwAiw7F8k0iBDAAiQWRTAGgxAAUMQ0O2AgGCAB2RvvwSCE0IbQFAAOwoBAOgdEUgGACQAADoTGKwGgsQwABAAxiAqJAIaCMjG2nD/Uj1vBXt4/9KPI4OnH90eu4f7PH/pR8/r/AFi30/8AJWShMQM+Y9jj/UKrWYZfDgbzZpueigm23E0PqadajCvjiW+nNTynkxuf92z35Y93S437PnS9nVZf5rsUSIRfRI8D6JkJEmUZckYQcpeF5LJuxLdTbht+yuWtmr6UDrNp/wCn6f8ASJ59rsyz6nLldq20d7s1/wAOwWz39Rj29Pxx4ODLfNlfu21kJDEz576DkPVnWHR/uziGjt/Vnen0j+0zh5H2uj/hjwcn8lVkoVfZEfij0pXTbDq3h1ccTfUz0KJ5BhySxThkj5TPWdLlebDiyNU5RVny+t49ZSuvT5e8WUgoaA8D2AAAgTNZueV4dFnyJ9pGyZynqPLxjjxKat9tHbp8O/kxn+XHny7cK4nO+5dt9lFk5yTKj70mpHhxnhL7HcemvblpZ3Fckzhjr/TedJyg35Rw6mX4V03hqZ47djGMV4iv9iSimCLEfGuWW/b3TGfZGkjht9hOGuyz4VCaR3hrNz0P4zC4KST+Gd+m5ezk3k8/UcMyw/TPMefc+i6Gdxql4LdRturwuN4nJfdE8W166bjxx1f3Pp3Pjs3bNPm9mUviXbs9q1X4jTRkbazW7do3pMCg6v5Nj2fG5O3vy7fT7PFvsx7vejK5ImVTMRrL04P1I3+LVeKOej5Vm13rKsutyOMrjHpGp7o+5w/xYvl33f8Ab0H0/BR0Kal05HRI5z09X4CP7nQo+Pz/AMuT6HD+yJibAhI5Ozj9+yTWrq+lEr2bWLHqY45OoyK/UU3+NgpJdQNDjyyjK06fwfW4+KZ9PJp8nltnPc59HrEWWJmk2jVPU6WDnNc0qaNwj5WeFwysr6XFnM8dxOyLSZITMx0rhN+2/T6bKtRBVzfZzU5KTfR6jr9JDV6ecJpXTo8wyYfam4SbtOuz6nTcvdjqvFz4avhSiyNldUyaaTPVY88qfFqn9xN12hcheZHGxuZG3ZFonVfJW/KI2ttVQrSItAl32yaDbvoQPjd32NJUURoE7J9UQSCrSCS5eRjaj5IqX0lbUbdBSbCiIj8k4vvwRS7JKNFD4pEGku7LLD6GpJhEcco9onXHqxVjUV5Q218lRBdsTdSRcmuPSK3JfY3jixcjb7SZVydsHKys7SM72jJlbY5MqZpvGBiJpKrbINorcCF2FL7ggpoLFYjK6EmRsbEFSEJABL4EAAIYiQCoRKxAIkJoAAACwAaEMgGh1RFsVg8p/JNkEOc04xVdmcv21PrDIjA7IKQIAIAQ6HQEUMBgJoYhlBQhsQA6Qn8DHQAgAAiIwAKdCY0NhECZH5JEKTEMQUAAAFjQqABglYhhCGAgGPohbAq6ZmXJpHpsUYY5LMvL+GYYUMgdDsiMIGwATAADodBSAKGAgGKgHYhgVAkTIjCVk42rjJrw0esaaSnp8Ml/hR5JiaUot+LR6xo3/V8X7Hg6/wBYtcHjkrNEyNibPlva5H1T/aabpGl23UPT6vFP4f0s3XqrzpWjlITalHq3ao+xwY93T6fL5t/Etj12LtJr5Vk7MLS5Vk0+Ka+YmUmfIymsrH0sLvHG/wCFjNduGT2dJnn9oma2c76h1MsWj9uNXkN8M7uTGMc11x1w+Wpydvyz0bZpp7dgV+DzZ92j0XZnW3YD6PWz/rxePpfHJr/DcJgyNibPlPoVynqpXptL/rZwjZ33qdKWn03+o4N9tn2ej/heLk/fUAGKz1MpRO/9Oar3MHtuTbR5/Hpm82XVvT67Tq3wcnZ5+pw7uOkvbnK9MTLDHi030W2fE0+hEwIWJsilNnmm86hZtblvtwdJnf63L7Wmy5L8RPLc83PJOb8tn0ehw/Vcnj6jLdmLHdisV2RPqOUiSZstFnlgyQnDzF2a0thPi0Zyx7ppnOWzw9X0mdZ9Pjy/MkrRmI4DaNy/DT4z7gzucOWGWHPHJOJ8Xn4cuPO/Z6+DmmeOr+6MgCKkiVnB6EeEfshKKskK0N37p24/YwbERsgk3SNZrdYtNinN+eLos1Wrw4Yu5q68HD7huEtS18RR6+n6e53d9PJz88n6Z7azNJzlKT8t2UXQ3ciK8n1pNTUeWTw7709KtCkjpI+DmfTzrRcO7TOiUj4vUT/tye/g/ZF1lcx2Qm+jhHa+nD+pZJ6yH34HNpnQ+o0nnxNeaOauj7vT/wAOL5uc3lk6HZ9ZPT5avqTpnoUJJpV4o8kwzce0z0PZddDV6VJXyxqpHj63i/vjp02Vxzyxb6wbKuQWfNe/ZtnF+o9JjjNaiq5HZNmHq8GPPgnCcFLq1fwzvwZ9uccebHuxeWOVjRLJjnjnOORVJSYlVn2fo+ffCVJoXQWCr5MXFNmk2NxrsOl4Yu68nPVdcakmvkLiJU+h0iWVvZPg34DpJqw4p/AKJAfsNJNA2hLoKfgklYrRZGMu2ouhRCgYiS+bJoIkkiD42DaGqHSdgohFom5KhJUukJRIE20QZ1xxcssgpV0OddMXSXa7K3O1R1kcz8kJuvBFzoqcrNN440N/mT+xCiX7kGg7QmDXQCYaImiBIFMTBsCBMVIYBQAh2AmhDsABIYCAYDE2AAIYAILAAGK0FkDALAgRKroVE1KiZftp9YQhqx0dmQKxDABrsQAAxDAAFQwgv4E1QxsCI7AdARsF3Y6DpAHgA8gAgGIKGFgCIHQhgEAAIodgAAAD6BtgRABBTABgIAGAkMYwiIiVAAg7RIQCChgDZAAUAqAYBRY0IYRfBRbVndabesXtY4TXiNHAx6MqOakcuXix5J5csryYXeFd+980iaB71pq8NnB+8mSWd0zz/JcafMdT/huN61+PW+3whXE0KnRGWVtkItW2z1YYTDGYyJZllu5e3abdvOLDpseLJBvibH+O6f8AwM4FZKRNZjhl0nHlbdE5efGaxvh3X8dwJXODOc3rcIa2cJQTSiah5/grnksuHTYYZbkLyc2ckzvjau7Ou2vd8Wn00Mc8bfE4y+zKjlpHXk45yTVW9+Grh7d8t90zVKDsHveB+IHB+8L3zz/Jce1+Y6n/AA32+bpi1mHHjhCUXGRysn2XSm3dsobPTx4Tjx7Z6alyyu8vZMSADTR2XYsjjJGNZNPuxos3HoOl3uEcEIzjckjJ/j+k+VM4GGZ0kTeWzyZdHx22uU5uox8bju/47pnX0zB7/paqMJ8jhfeG86HyfGXn6hvdz3WWoxqEOl8o5bJItyZW06MRs9PHxzCahhMr5yu6K6ABG3YxpkUgAzMU6NvpdbmwJvHkZzydPyXxytKkZywxzmq4Z8d3vG6ruMW+1D+khbXyjOW+6PhbUkefRzS+WW/iG1R5suj46Tm6nH6yvQv4xoqjLk6ZCW8aJf8AcZwSz9K2P8QY+Rw/Jfmeo+0dzPedKoXGTbZqc++5JJxjDic088SuWY3j0nHj9Ns3m58vrpkZtRPI25yumYM53ZBzdkG7s9OMkmo1jh53TscLvyVkk6K3Y6natyhpcU4NWbT+PV4xHDY8jTdsyVno8+fT8ed3Y53Pnx8YZOyW/KS6wkXv8GmvafI4x5xe638mZ0nF9l+J1P1ybHd9atXlhOMaqNGmbZKUrIWj044zGajU39faUH2zdbZr8ujytwqn5NIWQyOIyxmc1Uy37x9u3W/P5gN7/Jf9k4xahoa1DOHynF9mfidT+bsn6gSjJvGiGTfm1/ZJHITzWiqWRv5HynFLtZyc995MnW5nqdRPLxq14MbtFbnYrPRrU0urfa60NNFFkrJpO1ff2GmrK1IG0S4xnzKvSj8MTtFKlRO2+2zNxauVWxlTViq22RsORPhpM6k6bQq8juNByQ7F7ySRfHPkjCUE/pflFLkSTi/JLgszRb+aLcGNZPLdEbi+h48ntypdE7CZ+faE4OPL72RqJY5OTbKXJGpgvcn0gpshFpoJTXwy9sjNtp2OKcn0UtkbdG9M9q7U5/dyKSjxpJGPYMg2HSQpEL6JEWg3C6HZEA0ZJxTjfzZBeBWAUxpiTbGkRSETEAhh2Lv7AFCJCCkToSQFQAgTEANiACKAAEAB0DI9hTAAAZPojEYZot/AK7QyVqu0Yy/bks13QgEB2ZDGxDAQAAD+AQJkoq3QQkMy1odXxTWCVMsW3a1r+wZO7H7xGAOjN/h2tV3gaG9v1v8A8aRO/H8oav2YFAZq2/XO/wCqzB7frek9PMd2H3hqsITMyWi1cZxj7E3a+EV59Pmw17mOUL+5dy+qMYCSVoTKpAAwIsYDABA7GlYCGSaptEQEJAw8BTH5REaCEMYgEAx1YCBF8cGaUVJYZ196HDT5pNr2Zr90Tc+8FAy6enz4+54ZqP3aKWNoAEBQCGRCw0MiNu0AdDbIgwGA10hAA0RsPkCY7FYBErDmREE1DchcxULoNai1SBMrRIqWJNsTkKxA0aBuhCAmphZBMa8A0bkIQdkXR/AugEDQY0IthiyTT4Y5Sa+ysARLkWw0mqk2np5qvuiHsapJ1pcr/wDRO6feM9qPITlYSxzj+ZNP7MiVNRFvtkSQMrcR+ABoKIp2MiMIBpkLCyrpYmx80RT+kiGdLeYWVjshqLHPsTkQ+ReAkxiQCFYUxAxEVKx2QAGk7QXREOymkuQhE4Rc21FW78IWyTdNFYzaY9m3GcFP2KRkL09uPFtxRj4vH+cO2/Zox2zb5dj3KHjByNbm0+XA6ywcH+pZnhl6yjNn3ipkWyTKykNMadMj9x/BVsMlZEEDSfJDuysEwmllk1IqsXIM9u2RdjMeLdmZpsGTPPhBXKrol1IzcdK7HaNk9m3Hz7ILZN0vvAqMfEw/KHZfs1vKydk9RpMuklFZouLZQ2amrNs3H/C3kVt9m2hsuvyxThFL9xrYNyl1xgZ+JxT3nGpx5fZqebRCzZ6nadbp8U8mSCqN3RqFJGpccvV2dtTfRFMi2KyrIlyticiIrDWjsh8gxBqQ7IuQMKQa8ENiYrIp2JgDAESsiOiAvsGhpA2BGx3YhWBIjfYDaCrPck4qNKkRYkqBhPGxaEAWUAAACBDZEimxDsTCmwIjsB+CVkBhNJDIl0VaqzN9Vmk0kRoGFnVCARIikNIYwmyMzSQ55sa6vkjEoy9J1qcT+0kZz8YVK9RwwiscP9JdX3SI4+4Q/WKL1E+Jnne56scYr9uL7aD219kXCMd+X3b1ircV9kHH9ETpgO7JNYqnFfZWcx6oj/UcE6VrL2zqWc36khy2/wCrpc0d+DK/Ex3XPkkkcBKRFFjiKj7TzSzSFASCgu0fkB8X5FTqwE2w7LYJNqwyRUZUvANqxjSsQCoGiQr6b+AIjBU1aGUIRNxQqBskiyF+5Di/7yKyzHfOHHzaJfVK9S0uNLTYVxX5TJ4r7Ir0r5aTA7V8FZf4Ph555d+Xn6vTjjLGq3aCe26pNK+Do81a8NHqO5JS0OoSq+J5lKPx9j6HR3eN/wBuHLdZRURJBx6PYztERJIKoBUhEqpBXSYERofEAI0FDGFR6YdEqQkgAY3GhBCAm0kQALE0NIGAkSEkSoFRpAS4sKKbQsVEqDoiookFAAANRBIJtEY+LTACKOt9Mxi8+X9InK8Tq/SvWfVRb8wOPUbnFmTzlHY1fkkxpKhNp/J8juy29epI8639JbrlS+YRbNKdB6icFuMqh3wXZoao+zw23jx39nkvuoESxkKOqykSHXQNdNoG0PLAcR0BHoQxURUvgEAVRUArJpCcSGyRISVAQIiSYuiqaAQECGAIBjQjY7ZoJa/P7d1FNcmTLKYzdNbZ207RLWycs0WsVna6batFpIcceFfuzMw4cWHFDFjjUYl9Hyefqcs8tS2R6OPjkitRpV8E4xGTTPN3V01CcKjdmJl02DMqy4ozRk3YizPKXxUuGOUcPu+wwxtZ9KpONPlE5Rquj1/JFSjVeUebbzolodRFf3MluJ9TpefvnblfLzcmFxvj003QAM9jBiGFIIQIkZTyaP2u8LU/umDbFEAANeTo/TdPXy67UDnEdL6bpa/94nLn/iyJrvjv1YOxobPh91293bNOO9VP6tJFr4ZysE7v4R1nqng56T70zllSs+x038GL53NdcmT07SwrBh7buKZk0Y+k/wCV0/8AoRknys8v1X/b3YY7xjB13ej1Nq6g2eUrhVpHrGur8Hqr8e2eUNL+6qj8H0Ohu8c3n5ZqwrIjCme5zIRZCKvsnPE/MVaCb8scXyWtK6+SNINSosROiJFRaF2yYJUQ2gwSJ0OqroG0SLJXG32iajFxcuSBtUFFs1CLjT8oPp8WDariwotU6ToT7RTdVjodDRF2jQ0iyOOWRPjFuiUsWVK/blX7E8fc8qZKPx4IE1TdUS40ym9KxE2iIIQvgkJhUQQARoxDEEA0gol4BQWRkqquysnfFX8mMv21n6whEmKzqgCwEAxgNIoF0Zui5vUYnF1ckjDSRmaSTWfDGrXNGeT9mTP1j1TD/Zw/0mQijD1jgv0RkI+Bn+6vbh6Js4rU7prFqJx96oxkdvRp82yaLM7fI7cOXHjf1xw58OXKTszsc/PddX/dyEXvOqquaN9PY9JPp8ir+XtAv8Z6vidL9r/+nj+D1P8A5K0i3jV1/aI1eu1+o1OL28krhd0davT+ijSuZyW66aGk1ksUL4nbi+BllrGeTt5cb+rK2NdDG8k4wXyzqo+mMThCTzTTaOb0raz4lHy5o9Rxtzhjf6E6rlz4+3tejhxmW9uVXpfH8ahmv3DYvweGDjlc5udHf8SE8UZ1fweSdZy79u14Y4jSemp54OWbNxVmyj6a0iSVnUKNBxJer5b9WpwzTkc/piDxy9rK+fwjkNRpdRp8nDLCmetuJod92/HqdK8j6niTaZ24Oqyt1lXPPjk9PPEqJcb8IUXdM3Oz6HJq9TF1/RRf1M+hcpjjcq8/nektv2LU6tKeX+igzfYvTWmg3eRzs6THijCKivCLaPl8nV8lyuq9WHFPdcnl9L6du4ZXE0up2HVafNBfng5dNHo3Ei8adWSdZyz3dtXhxrjJ+lb+v32n/hHD0uquWc7RxIOI+c5funwo823Ta/wDgnK+Zqo/TKP7nY+qFcdMjlIdTj+6Po8Odz4plXlz8ZWO10O15p4Mc/xU4qUboynterfX4/6f2Npom/wuC/8AAZR8rPkvfl69vTjw42TzXKa3aZw0+XI9XOUYLwzjFTTPUddFfg9SvhwZ5al0j3dJncsa83LhMMvFrdaDY3rcbyPLxRsX6Wh8almd6at6LLa/vnRKJx5uq5MeSyX09HHxTLCOKyelnHTymtReSKbNTodk1esp04xPS3C01+hHDiWKHCCpGPneTV8t3hjloelsFJZMrJZPTGmnGlllHj4OqodGPm+b8j4UeZa3ZtXpLclcPuaVUz2DLgx5oShNfSzzDW6RaXU5cK8KTr9me/puf4vi+44Z49jXeWSUHJqKTbZNQbdo7TZNoTwx1GeFNu4o7cvJjxzdZm8r4abQen9RqYuWa4I2sfS2ntXmmdg14rxQJHzc+s5Mr4eicTlpemtK/wDuSMbL6app4siqjsqDiZnV8n3PgR5drdt1WlnxcHL9UujXVR69kgpxcZRTTOA3jbnp8080IvhI9nD1PxPF9uOfHcY0NURLKM7QaGWtyvGo/T8s9Vsxm6xPJaPQ5tTTjF8ToMPp2MoVkyHRaTRQ0uOOOPdLyZ3FHzuXq7v9Dthw781zK9N6PjXKRXl9MadyuGaSOsoXE4zq+b7unwY4PUemc8cc8mGanXfE53Nhnhm4TVSXlHr6iaPdtow66EskVWeKdNfJ6OHrcrdZMZ8WvTze6MrQ6Z6zVQw8+LZS4/XKLTUk6aNrsaj/ABLA/lHvzy1hcp9nGe9NtH0pOnz1FlsPS0Wmp5muuqZ2FDSPk3rOX7vROGPPcnpnW+8scMicfmRtYel9LFpzzykzreKFSF6zlv1a+Fi4rP6WcITlg1Lk/NMw9l0ebUamcVPg8d2djr9StNpss/0aOa9LqT1eofxxPRhz55cPJcr6nhw5cMbnji3T2rPy/wCdm0LUbbqpqPt6tx+5vUFI8fxr/h0+Xnb+6/8A7eabvglh1fCeTnJRXZgYMLzZseJeZyUUbn1J/wBUf+hGu25f8Q0f/kR9bDK/AmX+HluOr27b7+VocG5Z5cgj6WTVT1B2TTtjUT516vl+72Timo863HZcmjeBQbySmzPwemZ8Ie9mcb+InaSwxk7ZJRovzvJr2fBjmIemNDBW5zswNR6UrH/Vs8uf2kdvwFxrszOs5Zd9zXwo8fnhy4Zyhlg4zj5TK2juPUujhLGtWotzh0zin2fT4eScuEy+rzZy45aRhGUpxhH80vB1Oh9OTzqE82RwX2oo2DbXn1EdRlT4R7iegUebqepuF7cb5bw4+7zXOR9OaFebZRL0tpXfDPNHWUKjx/N8u/3OvwcXnk9jz4dZDDkV45+Jo2v8r4f/AJDOucbXZHib+c5fufBjlIemdLGT5ZZM5fdNBHb9U8KnyuNo9ScThPU8ca1uLzycOzv03PnycmrWOTCYxywFmRQT+i2iB73EhpkRhUkvud/6b0Sho1qH5mqicEu04pW6s9W2uHt6DTwqqgjx9ZlZhI3xTeTOiqJCBnynq9RrNw18NHHuub8I0E9+zvG4RqLb7ZhbzmUtblfyujS+4fV4elw7Jcp5fL5OXlyyy7bZHY7bvE5Sjj1E126TOlTs8ux5UpwbV07Oke9z4KMYrpHPl6Tz+hvj6nsms911jZzXqFYZ6WEW1zUrRp8m6aiV1ko1GozSyS+ptl4elzxzmVrV6nvmscWFQqLPk6LZtqlqM7zTX9Gke3POYY91pju3TH27Y9Tqnyyx4YzpF6d2+o3CTZv8eOMIqKXSLGj5fJ1fJlfF09OPFNeWj/gW20k8BQ/Te2Nt8ZWdF0Ojn8zy/lW/h4uE1/pzLBp6W5RUe0zmJQ4ycWmmvKZ7FVHK77tKyqerwY/rUfqR6+n6vuvbm4cnF2+Y4aJ0np63uEf9Jz6izofT1/j1S+D1c/8AFk4S/rx/29AQMYM+F9X0vo5D1OutLfm3RyfmzrvVEZt6Ovi7ORXnyfZ6b+CPl838mT1PSqtNp19oIyDG0qa0+Ff/AERlHyM/35f7fS4/2z/TE1iX4TU/+Nnk66qnfR6xq/8AldT3/wBqR5XjxX1FH0ug9ZvJ1GplFHymzd6Has2rSdVD7j2rbZ63IuSTxfJ3+DTwwwjDGqijp1HUTj8T2mHHc9WtNpth0ce8kLdGatr0UFxjiSRsuIOkfNvPy2/ur0zixjW5Nt0U0v6CNr5MPP6f0OX6orhOjexal4dkqE5+SX91Lx415rum1ajRVLjyxN1yRpH2rR6/lw48kJQmri0eb7ntr0Wqlj5WmuSPo9P1HxPF9uGfH2+Y1EUZel0WbV5FDDG/u/sUUkmeh7Fo1g0kMklHnkV9HTm5fh4bZwnfVOj2HTYoRWaKnOjax2/RxXFaeFfsZySHR8rLqOS391evHjkjVZNp26aaemiafD6ewYtRc4qeH4R1hHiJz8k/upcI1f8ACNB1enQ/4XoOKg9PGjbUQlEfHz/KpcI803jS49PrMuPGoqBqeMl8G93+CW4zZgYMMs844l/fZ9fDL/rxtv0ePK6z1/ktBoM2vyuEFSXlnY6H07gwRvLU5G027Q49HpoY4rv5NhR4OfqrbZjfD04cbGhodPjprFFMb0+H5xxMhulbKY58E5OMcibPJ8Tlu7uuusWNPQ6OSaenic1uPp63z0r+O4s7TiiLimdeLnzxvtjLjljyDLiniyPHODUl8MhGDd9pHbeoNE+HvxV/c4qVo+tx5zkx2813LpU00AMDakSErGQICTdEGwRbGDl4QNNOmitSkO3fZE1VnSFKTXaRB9j+DOf7aetVKwRGkSOyEA2hASJIrsaYTRmVpr/EYmq6kmzGLcUoxyw5NqPJWZy/bkj13FThjafXBGQjC0v9hhfx7aM1HwM/3V7cPRiGajPvGlw5HCbdokly9Qyyxxm8stNrZFmm/jmkq22Jb7o7p8jp8Hl/Cufx+H/yYtuzz/1Ha3Dx5idV/G9BJ9Skcjverx6nVOcF1VI9fSYZ48nmVx5uTDLWrK1eFtZsLXxI9Wxd48b/APqjyjTte7jtWlJHq+H+yxP7wRvr/wCxen/dYvE+iRjaucsWny5Y/wB2J82TdkerO9uNrGnuWlhl9p5FyM+E4TinF2jzB5XPLKb6cpWd3ss+ehj90z183B2YY5PLwdRlnyXGxtinNhjlxzg3XJVZcRl8Hlxtlj1Zeq8nnheJyxTrlGTTOz9NYFi0uV8r5s5bcHCWu1XDte4ztNiS/h0Gvk+p1N//AB8f8vDx/wAtbpIkCB9Js+V9nv8AUabXbxptLNY+fKV9qJm6bWYdTG8bPP8AV5ZT1WdySv3GbjYs39Zr/wCtHsy6eTi7nhnU53lmOvG3ZiaJiZ4697kvVEbxYJfZnHw/PF1fa6O09Tq9Ljp1TOKVJxcnSvyfY6T+B87m/kr1PSS5aXA/ngZJh6BqWj00vvEzD5PJ+/L/AG9+H7MWHr4t6TOvvE8uTPVtVFS0+dP/AAM8qv8AQ+h0PrJ4+q/dHb+mZXos3/kOlRzXpl8tHl/SZ06PH1P82b1cH8eIox82ox4FyySSRkHD75qMi1soKa4pE4eL4mek5+X4eO3Y4dRhzq8c0y847Yc7eplCunG2diTm47x52HDyfEwlQkef+ocUYbipf44HoTOI9TJrU6Z/dM79HdcsY6ifotafa9N+J1uLFX/2Z6XGK+PC6Rxfp36tTKSXSR20TXW5XvmP2jHS+cbdHRrtw1sdHjvqzZmFq9Fh1Ve4jyY9u53enpzmXbe325mO/ZlNOdUdRo9RDU4IZYqkzA/gWg/wGywYIYMahBdHbkvDZOxw4ZzS3vq2jXa/TRzafJFq+rRsytnLC3Gyx3yx3HleXDxycPs6pfB2myaT8Ppk2rc+zm91xqGvzxj5UrO80sf6tpv/ABRPf1PJfhYf5eThm+TKfZkqI3STbJJCnHnFpnzZ59vZ6clqt4zPLNY5JRTpUZuz7pPUt4MtOafT+5kvZNG232rLcG06TTzjPGnyR6crw3CTH28eE6qct3f0tk0Qap2WEJHme27cJ6j0scephkhClP5MHZU1uGB/qdV6hSWgTav6jldpuOvw/az6/Fl39Lf8R4OTxyvSaJiGfHr6E9IyaRgS3DRptPPG0R3bU/htFkndN9I89llTdvtt9s9fT9N8WbeXn6jLjsmOO3Qb/rlOGPFiknFu2P0vKXvahcVTh5OXnPkdH6XySeozRfxA9vLxTj6fKRw4srnyY5V21B4GgbPjvofRwHqWNbinfnEjW7Yr3HR2+vcRtPUnW4R/8Zqdub/H6VWkuaZ9vi//AIs/0+fn/JXqNU2TQPtjPi1756iMpKKbkzFeu0vJx91FG65Hj0GeVfBwCzzUEk/qf3PTw8HxMLk8/N1F4spJHqXVCa6MfSZHk02Gb8uPZknms1bHqxvdJWu3HT/iNDqMd1cWzzHhwbtro9X1L44cr/8AozyiSc5T/dn0eht7cnj6n90ek7RHjt2m6VuJtKMTQJLRadL4gjMR4eW7zz/29PH+zFF1FWzR6neceDO8dKSVWzcal1psz+0TzOeW5N11Z26fhnLvbzdTzcnHqYPStPqceohzxtUX0ct6dlJvNBP6G7Oqo48uHw87i7cHJeXjmV9oNdHB+qKjrYfrA71nDeqIuWpwfpBnfo/5onN+1yLIk2RaPrvPCJJECaBV2GUYTjJrxJWet6f+xw144JnkSpJt+D1XQT56TTNePbR4et/bjW+G/qrPISvySFLuLPmT3Hrvp5Xrcsnq9Qn8ZGYRsN0fDX58Zrmffwu8cXzdavpNSLozl9zGVu6R1mD08s+nxT9xwm12hnyYYe6lw7vGnMzmypvuze63YdfhbeOskDUS0+fG2p4pKvn4GPJjl6yi9lxnmIY/7XF83NKj1TS4I4MUIRjVHm2hhy1OJfPJHqiPB12V8R36fVtNFWXLHFBzl4RaaL1E+OgVNq5I8PHj3ZSPRyZduNrDzb/LG3wgpdm82/WR1umWVRp/KPOXO5No6P07qZyzZMNqnHpHu5+nwx49x4uHn5Lyay8yuxKpJNU10/JbRGS6o+fj7lfQvmPNt208NJrsmJQ4p/VEydgb/icKfVGR6mV6vB9+BjbDf8QxtfCPsW93S7v4vnWSc3/16GDEhs+M+l9HL+puXtadp/ezjF5X7nYeqJNYtJ+7OPjPjJNK2fY6X+CPmc0/7cnqelt4MN+eJkmJo3J6fDy88EZZ8nP91/2+jh+2MPXV+D1X/jZ5hTU1TppHqOsXLTZ194M8tSksj+6bPo9D+zN4uq/fP9O69PYXDb4uXlyZv0jD25f1HT2u+JsKPDzXeeX+3r45OzH/AEjRxu46vVZc8oKM4qL6pHaFftwX91MceeOHuM83HlyY6xy05Db9ZqMeeEGptN0+jsCPtw/womOTPHK7kOLDPGat2i0c7vulWXA8sUucfk6Jmv3JRnodRGTpUXhy7c4vJN415pji/chFxv6kmerYscYY8cV4UUjzjHps0M+BxSnByX1I9Ki7SPV1t3MXDpvdSKc+ZYYOb+C9I1G9KtFlZ4OObzxj1Z3WGVah7zmeel4TOj0eojqMEciffyecKatKJ1/p+fKOaNnu6jhmOEunh6fl5Ly2ZenRkWTItHgfQrzrf4SW5zfxxRm+n9JDNnllb7gijf3/AMSm5J9wSRtPTLuGeT+9H1c7Z0s19nz555vP3dUuydCRI+S+hpz+9PVOOOOBT/Xic7HSbhDK54oZE/Ls9BIuz0Ycsxxs7JXm5OG5Zb7rGLpJZsmCEsyqdd2ZDJkWcrZfo74zU9sXPhhnhLHNdSR5bq8M8Wpzwm11Jo9Y+evJ5lvKa3PUrq7uR7+iyu7Hn5Y1LqiDLWiqR9BzgTYCHRGgAMQEgBAyIklY3UUyBZa+TOV8VmojtWhUI7CyVX0QEANGAEgBF2JXmxfbmigyMMW5rjKnaM5ftrL1jS17GH/QjNMHR96fF+kUZyPgcn77/t7sPQ8dnne5Oa1mR8X2z0Yx56fFJtyxxbOnByzju7HPn4Jy46eYyk4+U7/YTlOKScWr/Q9N/D4f8qP+wfhsH+VE93z2P4PJ8l/l5c3J02nT8dFOWM+VODTPVHpsH+VH/Y1+46fE9Jnftq+JrDrMcrJ2r8tcJvbzrD1ON/4ker4P7LF/oR5XjUVJP4uz1LTu8GB/eCMdf6wb6a7zyZRgbk/6jqv9BnWa/c3/AFHU/fgeDjn68f8Acenl/jyebWvud7sGSE9BGlTTPPF1B9noOwRS2+LR9Prf4sXh6ea5G+ItXQ0F0fJj6GV8V5luUFHX6ml9LlaOw2CSloaXwzj9wbjq88W++Vm89Oahwc8N/nPq88t6bF8/C65vP1rskElaBDPlfV9F5juODPptZqITi+PuNxf3TNr6fxTlq5ZP7iidln02LUKskFIMGmxYFWOKSPZeo3x9v1082PTycncyAYxPweJ6nK+pl/V8TbOKXbR23qeLelx0cMnbSukfY6T+CPnc0/7K9R293o8DM0w9BX4PBX2Mw+VyfyZ/7e7D9uKrUf2Gb/Qzydtnq2qdYMr/APqeVyfV18n0Og9ZPJ1P78XbemH/AFPN1X1nTnK+l3B6bVcVX1I6peDx9T/Ln/t6+D+PEHmu7zk9y1P2UqPSJWeabqp/xHVJr+8d+g/kv+nDq/U/22Xp7vWyv/LO5icF6ctbh+8Dv0mZ63+b/wCNdNNYf/S+Di/U/wDb6f8A0s7Vo4v1M08+H/SY6T+bFep/iqPpvKlmliO0Xg862fUR0+rxzlGz0OErVnXrcf8As25dLlNZT/Kwpy58OL8+RR/cuTNLvGhnq8L4fmj8Hkwktm7p6eTK4Y2zHbYfjNNV+9AFrNM/GaBwv4TVqsbwS7aOm02z4FiXuRuZ6MuHixn8jx49T1GV1jwtr+KwfGWJX+Kwcq9yKNfLaMDVRbiYGXZZx5TUrSXyTHi4rf5DPqepx/8A6Wj3aSybjOUJXFyO/wBM09Pp/wDxxPNcnWSrTpndbRq1qNPFfMEd+q49cXHr6J03J3Z3c81ukPr5IJhL6lR8+Tb322MdazTW170UD1elSt54nI6/b9Xgy5JwxuceXVfqX7ftmfUyWXUQcIL+6z0zh49bvI8l5+fu1OF0kdfpZOvdiRnrdN8ZYlT23SfGJGNPZ9PLlTabRmYcP1zq/E6n/wAUYm/5sGbblGOeN8jlts5/jsCvrkZ27betCoR9zkmYG3OS1un4/M0fR4sJjwXtu5ZXnyzyyzndNXb1CwI+GwZ8avqz1HO+pMn9RhBL/uHBOVHdep3Wih9uRwB9jo/4nzuWb5KnbZ0fpib/AB2WP3xnMo6f0u3+OzV8Yzp1P8Wf+kwms472PgH4YkKR8N9FwfqZNbjB/Dxmr251rtN/rRuPU7m9ZhXHpYzUaBNavAvvkjR9ri//AI0/0+by/wAleookVxJnxr7fQx/bGk9Qt/wyf7nAtqR3+/W9uynnclLj47Pq9H/DXg6mb5I9T0SrSYP9BlmJon/VNN9/bRlnzM/35f7e/j/Zj/pTnV4cq/8Aqzyyf1ZJ8VX1M9TzN+1kr/Czy/K4+5Jxf95nv6H1k8fV+49I2x8tBp3f9xGcc9sGqhPTrTrzHs6FHj5sbjyZx6eHKZceOkM8eWDLCr5RaPLcuPPDLOGTG1KL766PVzGyabDkk5Sgm2b6fm+FaxzcPxNOb9OafLj55p+JeDrPgjCEYJJKkSOXLn353J048OzHSDOH9Ur+saef3gzuJHCeqINanD35gd+j/ljHP+1yrIMGRPsV55DGhARV8UvlWj0P0/qPd0ChXeN0edI6TYta8OVRk/pn00efqsO7jumccuzOX6PQEDFFomfG9V9Cascb6l2/LlyQ1eKF0qmca++uLPYpRi001aML+H6RTc/aVs9/B1kww7co82fDvLcef7ToMup1eF8JLGnc2ekxiodIePFjxqoRSJ0cObn+Lk3hx9iHg1m6PFHRZnkiqo2jOV9Q6yCjDSp99tk4Jlly4xOayYWuW0Ka1em/1o9VR5JG4yUvs7R6ft+dZtHhkqvj2enrcb+muPTZTvstZpo/UMJS29zUb4STaN4KcFOLjJWmjw8eXbnK9WeO8bHk8ZXUorpnR+mIRlqc2Ti7iZa9NqOeUoZqxnQ6TR49Jj9uB7+bnwy47Jfby8fFljnGWRdjITyLHGUn4SPnY+49mV/S4v1I1+Kx/fj2YuyNfj8dJlG7Z1qNXKaJbFO9xwxPsa10uv8A1fM98u593oyGxIGfGr6c9OV9VznDBpUo2mzjIuSlS8vwdn6pm4YNN+rONVy8Ov1PsdL/AAPn838leqaWlpcFf4EZRi6WSlpsEl8wRkHyc/3X/b34ftinUK8GanT4M8sbkpN12pM9S1L/AKDN/oZ5Wndu/LZ9Hof28jx9V7lekbRleTQ4XJdm2Ry3p7VL2fZm1y+Dpos8XPjceTLx9Xo4Mu7DFYabLvWmxZJQkpWnRuDnNx2f3pyy4pfU13Fk45hb+qnNeWY7wkZS3rTNxVO2KW8YU1WOdP5owNJsThOE88raadHR+3jpLhHpfY6ZTgx9brz43q7P7Y1Et6wKdLHNmHrt2088GXFC+UkbzJp8MnbxxOY37Fo9LhXCCjlmdOKcWWU1tnO9VJe7tc9p889Nkhw7Tf1I9MxNShBp9OKPKk1aO+2XWPPg4TkuUTt1mFuMsOmz1n21vkYut00dVp54n8oykxnzcb25SvoWbxseZ5tq1eKXBYZP4R2mzaCWj0qjP88nbNs4p0SR35eoueMjlhw443cMiyZBnnda4D1D3uDVdI2Xppxcc6X3s1nqCaWvkvllWz6lYdXD6qT8n1ssbl0sk+z5ty7ebd9beiLskVQmpRTXhllnydauq+lPo1mv3BaJwuF8mYD35J/2Rttbo8eswuE+n8M0cNgamuee4np45w6/V7eHmvVzP9H7WZDdM2RXDTOSfyiGbds+NK9NL9TbYcUMMIwh4RZKn5SM28Mv7fH+25h1Vn8k/wD053+OVH+xp2cZuWeWo12bK0kpUega6OGOHLzjH8p5xmcZ5HJfJ7+mmHvGacbeTu1nlKU4/wBGpGM+y1uiB6lxQEMQbAhgwpgJDZKgolaXkimNJSaT+WYy9Uk3YkRBiO6H0A+hANDEMIZdhjeSKvuyknBVKMvlMzfVZvp6vt7/AKvjTNkmcjpd8hHBjg8f5Y1ZlLf8PS9mR8fl4OW52zCuuHU8WM85x0wHOPf8S6jiYLf8dNyxM5fL834V0+b4P/JHRdMKRzy37Cu5Y5pUSW+4KtQY+Dy/jV+a4P8AyYt80jX67/lNQr/uMwH6g019wZgazeseXT5ccYdyR04uHk7p+m+2M+o4bjdZxxqah+qXwep6avw+CvHBHlcen9Ss7TTb5hjgxQcJXFUe/q+PLPHDtm3m4uTHjytyrqbMDcVej1Hx9Bqv49F2vaMXV77jlpsmPhbkjx4cHJMpe13y6nizxsmTjlauLlZ6D6dTx7ZGEv8AGzz1X5Z1W17tgwaR4snJz5Hv6rC58WMkcePOYZbtdpYm7Zz/APHcVf2bGt9wJNuDPnfL8k/trvep4bP3xym6qWPX6iL+5Rps08WRTi6aDW5Vn1E8qTVmx2fa8O4e/GeSUHGqaPqfpw4Z3/Z5Nd+Xi+bXV6Dd8OphFTdZDdJ34OYh6cxw/JqZWZuLQavAlJapulVHy88OO39GT04cvPh+nPC2T6t2k2QebGsixc1z+xxeq1+tjly4cs+LTDass57hH6m5NC9PlMe7aTrcLn29l27kQKxM89j2S7jl/VFrSYX8c+zh2ovr7na+ppJaXHF/Mzikz6/R/wAD5/P/ACV6ZtqUdHgim2uJsbOT0G848WlhB4nyRmrfcLVygzw8vByXPKzGu/H1HFJJco3Go7wZo/eDPKqrr5tncZd7wywzUIPtNHCy6mz19HhlhL3TThzZ452dtdn6Xa9nWRX+KJ1HKjg9l3DHoveU4t86N8t7wS8Yzz8/DnlyZWR04ufDDCS3y3ylyaPNt2yye5alfCkdW98wQd8Dj9wyxz6zLmiqUndHbpOLPDO2z6McvNhnqStl6eyN7lGLXXBnfxl8M802zVQ02rhlkm0jqXvunbvjJGer4s885ZPo3w8+GE1llp0bdHFep6eXCbZb3p1TcGc9vOvx62cZxg1RjpuHPHllsq8/Px54axzlrSYsrjJNfc7fatzWSHt5JdrwcEmkjIw5qa/Rn0OXix5MdX28suXHl3Yx6spdBdnHaXfJY4cJw5JG2x75pJ9O4nycun5MbdR7seq4sp5uq3TjF30hmq/i2jr+0Ksm+aKFU5SJ8Llv9rU5+H843DZz+87i8OHLhxv667MPV73zi1iTjZy2XLKUm3K2/k9PB02W5co8/L1Ey3jgSkqNxtWuekzpv+zfk0Nuy3HJ35PoZ4TLHtrzWXH9Uvl6riz480FPHK0y5M890Ovy6acJJ2l/dOjhv2GcU5QcT5XJ0ueOX6ZuPZx9XhlNZ6xsb8GzTreNG/7zQS3nSRqpNnP4PL+Lp8xw/ni25i6nU49PinOUqpdHP5d8TjJQOe1euy521OVo78XSZWy5Rxz6uaswm6r1+qnqc7nJuyO25XDXYH8cjAnK2X6bKsWSMn8NM+l264+2fZ5vMm/desfL+w2znYeoMEl3Bjnv+lquMj496fl3+178ep4e2frV+o3Wig38zOAfk6rd92xarAsUYPp3ZyjPpdNjlhx6rzZZTLO2egdR6X/5vIl8Q7OW7N1smqhpNZ7sl04NG+eXLjyk+xLMbLXpKB+DQS3vClFrGxPf9O/7rPkfL8n416Z1PDr90aj1Q5ficH6QNHo1J6vTU/8AuxM7e9f+N1GOUYdRia/TZPbz4p9VGSZ9Xixs4JjZ508mdlytnp6pGydmgW+6dxSUW2C33C3TwtHzb0/Lu/peqdTwSSXOLt95Pbs3E87uTaR1u6bvhzaSeGNpyOO5SjTR9DpsLjx2V5+TLHPLceqaFw/CYOLuombZyei3jFh0eLHOH1IzFv2D/LZ4M+n5LnlZj9XfDqOKY6ucbvLbxZV94M8rkuOTJT/vs7ae+4XCdRd8ThpyuU5L5bZ6+j488O7ujjzZ48lnbdthotVkwZYyhKmmd5oNxw6yPXU15TOY2vaMWs0sM/uuMmbNbDw/JqZJ2TqPg52y3WUY4/j8X6scd4fZ03IL7OeybfuEIRcNQ5Nds0Wp3HUcpwlklE8mPT9/7cpXa9Z2++LKO6jnxTm4RmnJFxynp6XPNmm0/wBGzqmceTjuGVxejh5fiY91mkJHDeq1/T4HX9w7iRw/qrvNpv0izv0f8sZ5/TkBUMR9lwIaEBBOzKxZODtdMwrJp2LGcsdx3+07tzjHHmdv4Z06apU7PJsGVpqpM3uk3XNp33JyR8/n6Xd3gcfU3jvbnvTvbA5pb8urxmVHedM1fZ5L0/LP7XonVcN/vjdi5HPZt9wRT4wkzAz75LJcVDiqLj03Jb6Zy6vhk8Xbea7ccelqpRcmef6nVTzZeU0uRLPmcvkwJTs+nwcE4pv6vLc8ua7vpapdm82rcZaTMk1eOXk5xNpl+PJTOmeEzx1UsuNmWPuPVsOox5YKUJJpmRyPNtPrs2NrjM32Lf5JpShyR8zk6TKXw9GHV4+s/FdV0wNH/HNJ8J2YmX1ArSx4jl8vy36Ot6rhn9zpZOlbdI5fdt1x8Z4cdv8AU1mq3XPmfbpfZGiy5bbbPXwdLqy5PPydReT9OHpXKds3OwP/AIirS8GguzP0Oo/D545F5PbyTfHljGJrGy16ndfIcjmI+oE+3AT37p1iPk3peXfp6fmeL7j1VBPDo7fyzjY9Nm43fc/x8MMHCuFmjT+D6PT4ZY8XbXm5MpnlbPT1TRv+qabqlwRlWcVo96yYcaxuNxSMx+oWuo4kfPz6fk7rqPRh1XFMZLbt0mVp4syf+Wzyq05OlXbOrzb63CceF8o0clKR7Ok48sO7bjy8mPLZ2s3R554ckJxlVSs7zQbni1VRpxyfKZ5pHp2mZ+DUTg01JpnTm4JyT/LlM8+HLux8z6x6kJs4zFvWaMakrMyO/Ku8Ls+fel5JfT1zrOKzzdOmsGzmX6hS8YjAy75mlGSUWT5bltk0vzfF9K6XW6/DpcUnyTn9kcDrdbl1WS8jsqy55ZJuUpOzDnK2fQ4OnnH5vt5suTLkv+Ek3ypLybTT5c2CWPjNqn8fJqIt8kejabQaSeDDJ4Vbia588cMZ3TxT4Vz9XVT0e8Yc8I83xmbZZ8LdRyRZrZ7Ro5pVjqirNtkI45vC3yo+bcOLK+LY7Y59Rxz9WErZz1mnhfLLVFWi1sdZPJx8R8M4Cby4uSyKVp9nWensco6Vzl0pS6LycEww3s4upz5OXt7dR0RFjItnke37vPfUUo/j5RXcqtmnxyqaf2Nnv1PcMkr7pGm5Uff4f4sP9Pmck3lk7Lad34Q9rPXFdKR1MckJJOE1JHlMclI2ml3DJhrhI8nP0vdblicfUZ8fjKbxei3+ouSs5BeoNQqXBNEnv+R2uCR5vleX7PR83xa911jZiZtXgxRueSKRy8t4zU+PyajPqJ5Pzs64dJd/qc8+sl8YRl7rr1qZOKclFSOck+2XZciZitnvxwmM1IxhLfNArY+iJp1kLyOwAKABBREND/8AYhWQRT7ZYqKkrDuK+5jL1WtTa0CQqPQwQxBYEgEBESoknRBWMIyY5aReszXya8nFhyy48a2Uc36hLO6XZr+Q7NTTn8HHbNedv5IxytfJhuQ1IaPhTXpne+yieWXZjOTDk2TX+mpxSfQSlIvhmaRjsiG7jLPMZvvv7lcpmPY768hJxyLLRapUYouTQW4bZrzNIPdbRh8hp+Qz8KfZdbkdP6bzwjqJwk65I5OzM0uaWCfOP5vgxy4d/HliX9OspPVerIn0aHb90x6iK9ydTN4q+6Pi54ZYXVfR4+XHkx3NMPU7dpdU1LLC2Gl2zSaSfPFDszapjtE789a3dE4+Pfd2zaVkZEJTST+pdGm1+64sUGsWROQw48s7qHJy48eNtsaX1LnxTnhgpXxOT+fJlanIpynJvuRr7Ps8OHZxzF4N3ktyZiy0h+7IwuRLlR1ZvFPsyfdlVNlTZXysTY01MJGRHKWLMzCuh8mPCXjlZfuFMpt32VcmAWYSLI5GmZCzPowrHY0ZYS/Rne+zHyTcndlXNkbbImPHJd6O6GnTIiK6aZEcjXyXrMYI+VDUc7xys96iQe/a7MByEpdjUZ+Djr0yZZG2UOQNkGHTHGRLkTUqKUx2GriyY5Gn5L1mZgJkuQc8uOVnLOxrUGv5hyDPwcfsyXkbKpy7K7I2HSYSJ2OMisF5DWoy45mix5jGUIyxSnHJbi+4lfJkcrx436LcmRvox7BysgV2xxkiZZGVFIwWM1ZmlVh7zaMNtoVsMfCxXSm78kb7IByDXay4Za+STzOzBbC2GfhY27ZOTJy8lVlVkrDUw1NLo5ZR+S73pX5MKyTYZvHjfoy5ZW0VJpspsE6YJhJLp3vp3JBaeeJPuzqEzzDQ6uenywnB+Gd7pdfg1CX1qMvsz5XVcWUzuUjtwc2p2ZNmarPs2jz5p5Zxdy80bQDy45Z4XxbHpywwy9xTp9Lg0seOGNRMmyFkMmSOONzdIze7K7u9tTtxnjQm0k5N9JWzzfetT+I1kpJul0jo9y3SDhKOKVr5OHzT5N/ufR6TguP6q8fLy9+UmPqe1DQhtis94QBYrAYKwYgqyMmi5ZZGPYWVi4y/RnR1EkWrK2m78GuUh8w5Xhn2Z7zFUstmLYm3YJxSLJTbKxWAdZNGNSIARdMiE2WrM0YRNSDF45WYs0mSeWjB5MXJhj4UZU8rZRJtkbEG8cZAicZUVjQasZKy0NZ2YoBj4eP2ZXKDhJyl9Vriim0VDTdBezS9ZWNZWjHbEDsx+y95WivkR7FYWYyJ8mTU2UgFuMZUMkr8lryNLyYN0PnZHO8ctZiyURlnk1Ri8hWCcU2slLsV2VjTDp2rYeT0HYNTLLpfbl5geeQnTNtoNXPBNOMq7OPUcfxMNM91wyl+j01EjS6PdcGbinLjM2nvY7rnH/c+RlhljfVe7Hl485NWCWnwyblLHF2ThCMIqMUkkCbaRB5Ixu5JV92S9+XjzV1hPPhbZjajPHBjlOT8IxNRumlwWnLm19jk9x3SWpk0rUDtw9PlnlNzUcOXqMZNY3darXZ3qc+bK/70jAslKXlFZ9jGSSR55PukpOqJRm0V2Iq9sZXuyoPdZi218jjFyklYZ+HiyPdl9yqeST7shJOLkr8MrbI1jhik3ZAA+Q6QxEvgiiAAKAKBiAiAQwRFFCcL/vEgXTMZequPuJCRKhHdzIAEgqQNdgMISC7HQUUCJCHQQ0ySss02J5s8MKjfJ0b/AHrQabRaTFSqZm5yZTH61lzgr7LMOHJlnGGOLbbNxH07rX3KSFzxx92QaNgzb6rZNdg+pQ5w+8TUU06adlmeN9WUQGScWRKorsAE1TALD5G0KgoGgCgh2TjJpldMdUEumfgzODtMz4a7UQcXDNJGkTaLYvq7MZYYX3HDLDzuWx0kd61kV/aln8a1DVe5T+6OXcn9x8n9yfB4vwia5P8AyZN3LX53y5Z5Sv7mryZU77MaUn9ys1MMMfoTjvvLK0TbkUsnYlVmnpnhEBtUBVIBgAgAApjF8F2nx+5mhD7sIqaFR0u7bRj0eDFkgumqZzS8GcM8c5uBhTEb7adqhuEJz9yuJM8pjjbUaEGZOq0/4bPPEp8uLMZosu1AgAoOwHQfDAABBTfgoANpDZdxyY1kWLpmvzYcuDI8eSEoyj5TRjvxt8UVCbJE8WGWbJHHDuTNCkfybaeya+EXNw6Ss1VWyY5zL0o8hQUKi7AFMdMujp8003CLlXmgbVQj9Qi/HCUHLnBr6fkoM7T61ERJiSNNCgoAsAEAwE7GHYrsBgIkBEAqja6Dbcmtc+HwhbJN0asdmZr9Dm0OeOPJXcbTRgiWWbgkD8iSZucey6zLhxZIRX1qzGWUnujX45UZ0M1ODvwZEvT+vTjxlAxdVtev0ahkyuHC6dMndhl43HHPi3522eLddTDxmbL3vOrdf0hzUZMnzr5J8Hj/ABjnrknrkydA951dUsvZh5ty1WVvnmbX2L9l0OPWvI8ifTNXrsH4XWZ8V2oszjhwzK4yTcXtz15zuleXNfkw327HJ2ROzphjMYgIlQIOu0RDYgoAAKoGhtDSCbgEXQw5MjShBt/oiDhUmmqaJtnaCGuzbbbtktdOavjGK8lG4abHpNRPHCakid87tG2uGNiKpDAAAKBeSXgCIAACRJsTQAAWvuS43Z2W2bVpdRt0c2XFFzpmM85hJaTy4sBz4+5kUfCm0hfJoCJW6LcWDJmmoY48pPwjpMXpzKoRlkywRnLPHH3Ucp+4HTL0zm4trPBnPZcTx5JRb8NouOeGXqiKE0BL4NbRWSXUQQ6YVECdeBENoNBRdixwnJRk65NJP7WdBq9o0um0fOGROcFbM2yWf5Nubqh8SzHBydKr/U2eT8HptPHi4yzvyrtIu03WqTSdUXxnFSujH+bGmVjLHbZQnyTbJRyyTvm/9yOj0Go1ay+y1UUYVzx3GXmLpmb2261HH4XvVbP38jnFvLLr9aQS1OVuXLLJr9zWc+32HJjsx/E+HfuzMmoVUYk5X8lTkRZqTX0bw4piGILBJvpGnYqYJSO12naMCwxz6infwzNj/CM8pYIwhfI82XUYzLWrWtevMeeeR+Eb7fNrjoZRy4kuE5Gn9uEYcpS/9HXHOZzcS+GPciJMiaWF8jsGiKCpCGFUQIKLOEnHkvCdMgAmIkACQ6BMkQpVZKvkiPtroxl6qfWJEPkkI7JEWNMAoKaY7QgsIkhkQKmkgEPoI6b03p1m1U8jiqgiv1DnWfV8OfUPMTYel4NLOzR7o712o67s8089Tf8AES+MY2/pnFCeTUOcE3FLiyrf8urjnhG5Qx1aaNRo9Xm0mWMsc6+52uHWbfuOPhnSv7MxyTLHk77LcUlmtOShuuuxYnDnfVdmsvnkXLzKR1mv9OxlB5dH+bzVnL4caWsxYsvTWRJo64Z4WW4L236ttk2DVwUJJpxkXr0xqnV54I6rW5vZ0uScf7sEcLj3XXPLGc8zrzRww5ObPerPDWUmKrXbVqNBTy2035Rgpcmklb+Eej5eOv2qb++O0zj/AE/p3m3HDKcVKMU2zrhzW4Z3L3iWDS7HrNXGMqWOP6mXl9NZ4Ym4ZozkjY7zrJYG8MJ8XKNmo0W6avDmx3lbg2k0yd/Nce6WaY7pPDTZsGXTS45oODMrQbdn17fs8aXmzqfUOkhm0Uc/G5Q7MH0zf4jOl1cLZfjW8NynuNam5Gvx+n9xnOSqKSZdP05rYQcm1Nr4RtN81+bDKGmxSrmuVlmwbhmzzyYs+TlL4Zj4vN2d/jS/p3pxT6bi/KNtodoz6xcvyxaI7zBYdzyKMaTOwwLLPbIPA6lxN58tnHjlPqzJ5c1n9O6iEbhnU3/hNFOEscnGXlOmbSc9y02aUpSnzd31aNdLnmyqTtuc1Z048stbtlZ2v0m36nV/2cOr8m3n6Z1PPrNE6DJNbbtdxjXGKS/dnGz3XXqbms7fdpM4/F5c7e3Wo3+mWT6sbVaDNppuMlaTqzGxQcpxgvzN0kei4Msdw225Y4tyjT/c4PBB4dbhjJ/UsyR14+W5zKWasWsp7FuMs0YcKT/vFuf09q9Nhnmlki0lbR2uv1MdLp55XLuvps4nLu2qyqUJZbUzlx8vLyWWa0uVkmmqwafNnnGGKDcpPo3n8tav5zY7N3sOH2dE51eSUmaLO91nqXWOdqTr7UMubK5WTU0nqStfqtp1elvlHkl5aMCK5NUrPTNveTPpeOfHTqmmcNoNL/xX2Yfkjkfk1hz77tzzBbpNl1er7i1CKfyZ2PYNVp88JyalFS+Ddb3qJaTBFYUouTpUabbt1zwzrHlnKUJdJsx8TlzxuU9G8ZZi2PqhSegwuP5eatHDNJUd16m722DXj3YnDM30v8f/ANXL2R2fpe3g1Ffc4w7T0xXs6lGuo/iySe4ws2x6vU6vUztRXLpsxMvp3cccHPqdGx3bcM8NT7eKdKuzYbFrc2owZIZpcpJnH4nLjh3eNL43Y4nBpp59T+Hh+dmTrts1Gg4+74a8mZul7dvnPFUelJnU7lp8e47Vzj2+KmmbvPZeO6/TV089hByaS8s2Oq2rUaXDHLkriyWzYseq1eOPars3fqjIlhwadfLs3ly34mOMZk97cZ4HBNtUrB9ifPj9J3HqeCXDSaaU3S9tGp3/AE/u6PHqoR5cX3XyjNlLHk2bHOUWv6smLaM2PVbd7XJSlFcWmfKmWWOVy+2S+9Y/4ecNtrx2db6c0UUp6idu10aTUaOUNf8AhWkpOfwdtn9vQbXJJ1xjSPVzcv6JMfqY+rfsz5fVhyU/7jPK+Lc5/wCpnpW2uc9sjKXlwlR5xC45JXVqTM9LuXkhyXxLPs2en2PVZ1B8uNl2X03ropuFSJvddfKEMWJ/3a6RlbNqtfHWKGTnwpt2ayz5cd3wmOUupquYyabPhn7WWFT+x2GxbZqtNknlzP6ZRVIx/UuK8mLL4bRf6d1epzZMmLLJuEYKicmeWXF3T6zyS/r0huu0ZtRllkxHJ/h5+/7P97lR1m9blqdLq1jwTpOJzWmg82sxylK5c07LxXk+Htctd1ZWTYNxUopRXZPVbBqtJglnlmjJRVuNHY7rqo6PTZMzu/ETh9TuWpz4pQeR0/KHFny8mr40tuvCOk2rVa3DLLi49eUzXTxyxZJ45KnF0zt/TF/gpWv+4cnuMOG4av8AWbZ0w5LlyZY/Y9Hotv1OtlJYUuijLp8uLPPFNVKPk6v0pGSec028vhr87VuXNWT4t+Jljr1EvrwjpNj1mqkpflx/DfyZWb03rIQlKE4So62HLLtkVgl9XtdV8M42Oo3LTynDLPIq7dmMeXkyt1qaq5WYyfVpvbnGfCSqX2ZuFsWunDHPGozU1fTNfkye7l9yUrbkj0bHNYNBiyJdRxXSNcvLnhMdT2zjd7chl9PazHh53GXV0YO0YtVPUThpcsk6VmTqt41mZvjkcI/YyfTCrW5Vf92y3Lk+FblpZZ9Gq3KOpWolHUybyL7mtN/6jXHcZX5aNAdeK7wxv+BNK0elRbhtcJLprCjzVWz07S1Pa8HJecC5Hn6m67P9rj9XB/j9TJKXvypMrz6rPnVTyuSOjeHYcnXuKMm7NHukdHDPD8NL6a7SN8dlv7bHLt/yxdNps+qzRw4YOTfn9DfS9L6ppNZ4Jmx9O44LQyyUrcncjT6zcdZ+MyqGocccZUkYvLyXOzD6NeMZut5sWh1Gilmjnfl9HL75FR3HUOzrtk1k9Thksr5ThLycn6hh/wAVy/K4oxxXK8+W55014uMow7Jqs+k/EQrjVmndxu/g9M2yEY7VjSl08UjzTpTyKfxOSZ14uS53OX6FniNxg2XU6jSfiE4xVNmkVNHo+2cZbTh+VwdnEbdo/wATroJxvG520OPltue/oupplaTYtTqYqduK/Uv1HpvUYcbniyrI/lHQ73qvwemUcLqbOUw7prMcuSyWTDk5c/M1pLZi1f4fPz4e21O6o3mm9Oaqa55ssYGunqs+TUPO39V2qNg9Xu+s4qDnS+yOmdz8a1DvXZ/TmqjDnhnGf6Gkjgm8vtTjxyJ04s7LZXr8eWWPUW41abNP6hSW7tpJPhFnLDlyudxv2MpOzcdDs23ZdDin7rVzdpGp1fp/Pnz5MkM0UmbL07nzanT5o5Z8nCVI025a7X4tblwxz1CLOWN5Ly5avld4zCWsrFsWrhG4ahx67Rz24YMuHUThl7kvk63YdTqdWtQ8+S+FJGg9RcVucu7TgrN4Z5fEuOTPbPFjXafbtXq/7GP7nRY/TMbp6r62jbbZihotuc6d8b7OTy7jqM2WWT3S9+eeWUxupFuUxk3Nrtf6e1eljzhL3l80aLj901R3mw7hPUYp48juUJHLbzgen1ufirRrj5MrcscvcW61LGRHYdXPTYs2NJ81bRnaf008sIvJqOMnHtI6TTzeLacOSXXHTps4TJq9a8vvLUyTTtU+qMTk5M+7Vk1S9s0e47Rl2+cbnzhLwzAxYHmywxLzJ0eiZYrVbXzyJOXt8v8A2ee48mSGSModSTtUdOLO5Y5b9xMt7dGvTS4LnrVFlOo9N5ceLnize7XxRROW6alReGE+/NnS7Nj1mPDWou39znlyZ4+e6VZ5+jgJQyRbjKLjK6o9C2Rf8Lh/pkcpvcVj3LPGH2TOs2a5bbjfy4yHPl3cWFJ7rzvMorJlpV9cv/4lT7dluVL3crX+ORXR6vpB0vpmUJavLz+I/SbH1D+MhCEsVrEk1M5LSZJ4c8ZRdI7nTbxpM8FjzeX1bXk83JMpnM9bhvH05DT67UYUnDK0YWRuc5T+W22zv9Vsmk1GJ+w1F/FHGY8Esevjp8lxkp0dOPkwyl1PLNxsZeh2TV6qMcjXCD+Wbd7BpKS/ErkbfcM60GhjV2koo4nLqJ5Zqbk0076OeOfJybsuomdmNZOt2LV6Re5cZw+WjUcZUehaDI9doZqXhpxZy214IreFgauMXJUXDlus+73F1vWmVotheXCp5Z1yfTL8vpzTrHOGLUXk8oyt/wBU8EcWCDcefdo5PHnzY5cllnyu7sYXlzndMtRLZiqlhni1EcE1UuaT/RM3O7bVk0WKGVZ28cqTTNXLNmy6mOTzKUopnab1S2qXNW6SRrPLKZ8c+/tZqyuJ0+lnqMijA3q2DBiwctZnSV30Wem8C/EZJ/aNGfvO3avWcPbn9K+DHJy2cnbvS4+tsPUenseWGOWizGg/CcM/4XOuM+Xk6zbdv1Gjy9Z24V3FuzW+pYR/E4pR8uPbHHyZ3K473/kutbdBt2ghosEoY8qkpI1GfYNJPLlyyzuLdviZPp5ylp8jk22vBzW5Z8stXni5vjfg5YTkvLlO5blOyXTL2rbMG44st5WpwlXRqdZp5aTV5dPJ/krs2vp7P7GscVB8J9Nmb6m0jU4auP7SO05MseXWV8WM6mvDV7btP46fc6gu2Yu66THo9W8EJNpRTOv2fTQ02i/ESf8AaLkcZr8jy63PNtu5UmzeGdz5MtX9MX1Iwi7FOMJwk1dNFPyZelwPUZ8eJJvk/g7ZeqlegY+G47dKMHXKFGn0OxZMOdTzZVUXaZucOLS7ZpaUuMfLtmRNLV4k8U04teUfM77LlJfFbsl193Pb9lWSGPHB2otts5HLcmpU6/U6LSxz/wAWWDPHlFMl6lWKGXBGMErs9HFl26xSzflyomSkiJ6iEMBIKkkDFYAPtJ9tWRGIBgvAgoAokgJIJUbH8BaGpJGcp4oiwQA7OoGgVjViYAwoQ0A0MBhC7JxIDCV2XpiXJZ4/ajUb5DhuGYzfT+phiz1LpSRX6lx5Y6rFk4VGa/MeaeOpv+YzPMaOGHUZFKWPDKaj5otc3jVu7Rn7XuMtF7lpOLS6N6tx2TIuWTB2/NxN552XXw7Z/hmyXXmL9gy6rJgfO+C7izndyWOW7T4pRSyp2bzNu+FYeOmXA5Vznk1Cb7lzRx48L3Z5a1L9Dv8AWMu9O+12KWTbpxhHlKWNUjz9Y8kMixKH9InXE9HyZo6bRxyvvjjRov4roP7VaePvN9vic+DLKd0mO91rluPjdbPE/wAPtkVljX0Ozl/T2VYtwkknxmZO47tPURUIxSiaTDnnhyqeOVNOzrx8V+Hyb95MfF+3qOh9Raafuwzx/LxpnPaXBk1OWEIJ25I6iO94ckFHPjUvv0C3PasLvHDhImGXJhh29iWy3crN3TJHHtksU33KKiaX0z1rM1/OMwNx1q1j8uk+mT2XVw0eozTyK1KFF+FZwZzXmtTPdl2y/UtR1mB/Lg6IenqWu/eNmPvmpjq9RDJB2uHSIbRq1ptTyk0lRqYX5ft150W+Zky/UajPcIqqfAxMGu1ekcanJRXw/DJ7tqsGr1XuY/sbTBuW35sEcWpwL6UhJrhwxuFrFu770zts3RbksmPJhpo0Gvww0O5KMYPgpcjc4d12/Em8GNHLajV5tTq8ufI/L6X6GOLDKZZalmNjWVlx1vzHZbtGeq26Lx231NI4LLKMXX6+DptDvTwYo483cE6RfPUbNPKsnsJy83Q4+/i3O3cO7C2W5abDZ8f4bboubddyOQ5wy7kpxpp5UzeavepSwvFixJKqObwtY88JpVUkzXDhlLnlfq1c8bJq7dp6hintzf7UcHB/Uvtas6fd9zx6rRxx4pNNUcrbXg30+FxwsrWVmXp6LtGTFn0cHitVadmlyb9qsOXLjlFSqTSNftW5T0raTfFm6es2vNOcsmKPNnC8fbnlbjuVLnNSb1YwH6g1bv7GHtc29xxTyN9ybNtl3LbsUFCGK19qOajkaze5HqpWjrjhjccpMNbY3fe9uu9R45S08JQkqU7Zy+ixzz6rFGMeTUk2dHi3jT5MDhqo8ghuWg0rT02Psxh344XDtLlhbvbI9Rr/AIb+vOJwcl2dXum6LU6Jw7UnK0cmm35OnT45Y4WWfV03MvMoSOy9LuKhqUcadLsesw6THm5+ZGueXLjsibkstrC3yE8e5ZW06lVG29Mxn7meVOmjKnu2g1FrNjT4Fn8X0GDTuOmgzhllneKYdlO7He9tP6knjlrrpXwSZudg1cMum9r/AAqkjj9TnnmnJy8tmx2fJDDqYV5ZcuP/AKJPtE79ZS/eum2/bMOhzZ8sfMzjt01j1WpyNvqLqJ3G46mOn0k592+jziT5Nu/knTS5bzreV86UImpcVYginyTs9iPT8bT2aHVp6Y5bYdXHTaj2pulM2WLeNLj2xYpN81icUcfhk4SjJdPlZ4sOK2csynu+DLP9tn0j0XLoMU9yhq6tqJoN+1qnklgj4j5M/FvOmx6SFu8ldnJ6nKsuac4/LM8PFl3fq+icnJMpJj9fbudpvJteF3/ckcDFKepjjk39WWn/ALnWbduenw7dxlKpRtUcgus8Zxb/ALS0deLHKZct0lylxx/xHe6iWk2jRRax9pUnVuzW7bvWbV6qGKWFd+WvhE5btpsuFY9RBSryxYNw2jTKsMfL7dHLsvbd425X6rjyT7+GP6n/AD6TzTiVempwWqzXPzAr37XYdXLB7XiBhbVqlptR7kjrjhlen7bPKXKb7mX6iV66H6xNVo4/1nC7XU0dXn3LacjvJBSl8dHJ/QtQppVHnf8A6N8cvw+242GV8727L1Ir22XV/XE4F9tHY7xuem1Gh9qF8nRxq66HTS4YXc+rdst8O19M5VPT5Y8u4zOb3bG8GuzKSfJzbv72XbRrpaLUN/3JL6jp8u4bZnSlmhGX7o52Z8fLllMdypvH1tT6awZILJkmqUkc9vUOO555Lts6jFvWk58FGoLwcnuuWM9fmzYnd1Q4+68uWdx1uFs1JKytDuWp0cePKk/ho6XRavBucJxyYU34bNbg3HRZtOlqcauqfRlR3LbdNja07S68E5Mbb4wsrOGWrd3x9nMbjpsWj1uXFB2mrR2GoTjsfGL79lHHxz4p6x59RDkmzqNTueix6LJDBkubh0OSZX4c1vValnlyMtM/a9yeWEX8R+Tf7BjxR1E5Ys3J8FaOTm7dt2bjadTDSZ1lnNU1R25JcsLCeNLvUkP6/CX/ANDnmbfedTj1eqjlh/hNQb4pZhjK1s0+j0rSSrZsTVp/hzzXv48nd6XedNHSYYZFUowUWcupxtmOpvVN4z3dbjjJvHOTadFPNO6kjuFqNlb5/h49Gr3PPteXTThhwxWS1VI1hnfXZY5zsnju23ewfVtqh82zkdXCeHV5sc/KkZG06/LpZ11wo3mTcduyzWTNiTkvmjnJnhyZXW5UyuPq1dsGDNjxynkVKbNBv6vdMz+8Eb6G/YPd4Rxvgjmd01MNTrcmWCfFpE4pneXLK468N92PbqV2m1qOTacaSuoM84lF+9lgoPnzf0/Pk6Pa91/CwWKSuJsnuW2KSyLFBT+7XZMZnx58n6dyr346k35bLQRePbVGUOLji7RyWy6qOn10OXibo6B75p3CXJfBxWOcoy5fKk6HFhf+zc/clzl1q+nV+psM3iwzgnJJ9nJYo5MrqEWdfp97xT0yWpgr8De67dijzx4V146NceWeGPb2WlyxrmtFgctfhxzi/wA31ROz3LUx0GKCwwVt0jjfxmWWvnrI/S5O0dN/GdFqMMVnxW6XK0XlmVywutz7JuefK3aNfqdVnyKaXBR8r4ZpfUlfxNf+FG3x73ooZViwwSj80jQ7vq8es1KywXhUY48Mvi93bqaauU7ZN+W59Muo5zT73F/xHO2nQ9p3Gejyt+YyXaN3qN10GaE1lguco1aRe3LHmt7dys90uOt6sY/pjL9ephRr/UUU908OnjQ9p1uPSZsuR/PhGLumr/F6t5fC4pGscL8e5a8aSZ+NT27LR5MOr0HBck+HFnnk08WWeGUJKUXRuNFuebTVxfXybl7xt83znp1z+9Eky4s8tTcqzPHKay8WIemtPOEM+WcXFTqrNNvmdZNbmcJNwUao2uq3yPB48OOotHLzlyfbv9y8WGXflnZrcLlPEjvZSWXYO/8AIPP4uoUdNPd4S2z8NXaxqJy8atIcWGWPf/m0tlkehQUltbv5w+DlNixqWvjDJBVG2bmG74vwXtPzwo5rRarNptTHNFfLuzOGGUx5P8r3Y12W767LpHD2ID2nV6zVqc86qKf0mHl3vTTjB5MdyHj3zDFpe2+By+Hl267T4kl33NNv3F7plp98EdJscnk2mFL7o5Dcs0NRrcueF1Kja6DcvwujULpW2d8+O3hwn1id83v7uczRrNn/APJIqLcs3kyTn95NlR6NeI0y9Lpc+p5e1BviWLHljJxljknH7os0G4ZNFKcoVTR0Ed/wTVzxxbX3Rxzyzx9YysWS+1vpyGdwzznJ8XXFM1e8OEN4hl88aujIz+oG04YMSin8pHP5Mjlllkk7bOfHhlc8srNNXLU1Hc7rgluO3x9jyqmcG4T5+24S5P4o3+i3ienxqLnaSqmX5N+wPjKGCLlX2GEz49yY7iXKZXfnba7djei0DeT6IqPJnN7brF/GHlk48HKVMWs3XLqlTtRqqNTBRjOMvs7Ljx3We/dO+f8A6dZ6j0uTKsGfHBy4WnRzen0Ws1MvowM3WLfp4oRU4c4ovn6hjSeHFxGF5MJ2zEuWNm3PZcEtLqYwyRammjst8g3tNN99HHZczzZnklK5Gfqt0yZtJ7MnaLnjlllhftWJnrc8sv07qoY8uXDJVy8Myd7Wqw5cc8OWaTXhHLYZuEuSbTN/i3/NwSy44yJnhe/uk21M5qytf+M3CTVKZjal53l/p+XKvk3Et+h3FYEmaHV6nJqcrnJ91RvCau+3Sa39XWemprhqFfaOd3LT6j8dq5e26c7RLbNbk0mS4vp9SNtk31J0saf3dGNZY8tyk3tuZY9va5vBnyYJ3jyce1Z32F49x2+Cyws8+ySjPJOUI0m26O09POUtK+cer6HU4ztmX1Mfa7dcsdJt/tQ6tJI4GVWzod81XPPPFb+h0c5I6cGPbh/s3vIJOTOh2VvBrMfOFcjn06MnFlyU3FytG85vGxLuarr9+02fP7c8UW4L8yRrdtz7jhzQxRhLg2umh4d/zYoRg3y680WP1DL4grPJ2ZzHt7Zf8m5vfl1Pt4ZZFPilk+5x+/6bNLUrLJTcEqKs+8anNKDbUEvsR1W9Z54HiTU01XZePizxylb+JMvE20c4xTpFLJJhdHrJuIsVDEGgFhTGgFYwoAAYgAdjIEkwgYV1ZMknUTN9VNoCdEqFR1QBQAQKhVRICqQwGEooYmDAycGZ4ZqSOi3Lc8Gs0Ecbg+ZyyJtmcsMcssb9Yxdy+CTok5ELEaNbWubCGSUJxlH4ZWTxxc5KEVcn4RPGqak+jsNTu2nyaB4oJ83BI5Xm+y3Np9Vhi3PBNJK7oxOV9nPjwxx3pjVyu8ljm6K0wvo32j2DPqMUcsp8VLwbyyxwm7dLMf8ADUQuXS8pWUtps2+47Tl0OFTWTnbMvT+nfdwYsmbK4Nr4MXm45JVxw81zvJsfKRs9Ztk8Oox4MUubmujF1mh1OhcVmj015Xg3M8brV9ppjSk2KzZbXoPx+SS50kUbhpHo9TLFdpDvx32/VdePTEch2ZGPQ6vNFSx4G4v5MZwcZOL8oJ4PlRC6sk10QKs0nydByKxg1Fjm38keVEBWVZjE5StFYC7Ksmk4y4st5lCJpNk8JZFnJsVlksE8XHn0mbfR7PDVQnKORyr7GbljjN2syRpeTE59ksmP28mSD8xk4kEkWa1uGoUptkBtpDK1PCJZGVEa6EQvlNyEpcVSIisujSXJ2braM+mx5ueb4XRofkthJIzlj3SxMsfEdJvWvhqeEMbbijmH5ZZKRXGGTLy9uEp15pWTDCYY6ax3d2hgjKe365RjL8NNp/NFM8GfHHnPFNRuu0WWfdQ52kRsgOyp2yLOb+WLkQsAmlkp/SQTFCajKMmrSfj7mz1mlxSgtXpZr2n+aHzFkXt0weboFMo5MLNJ2LpSsSkVCCzGLXMFMqGhpe2Jym2yNkQsSEi1TofuX5KQsp2xkLIVym7Irt0ZWXR58WL3ZQlwq7ozdJqSqVOvA+aSKLDkTR2LHMTlaK7FYa7UuhUIfZVNsRfPDkjhU5wce/lFJNhxLXN8UhY8WTLaxxba+EJ48kPzxp/Zl8embJVjnaorb6IkWx4SYpqTRL3GUjC3GL1kYpSZdHb9Y9P78cTcPNowxLLuJ2Ta6MiLkmytsSZV7WQ8jK+TRGxWQmMn0WvJaoXPorG0DtiamNzK0xNoh2zfpZGVCc2VWw7KvaujNjlKypEkpNUlbImptKM2gcm2ZUtt1mPTxzyxtRaswl5oTV9Gos5MObK3y+URssO2LOYmyFiZVmK7naI2rIR8nQbVtWDXc+UnyiYzsxm76NSXTS+5SI82Xa3B+G1OXF8qRiiXc3E7Z9l3MayMoMrBptRqE/ZxOdeaNeJLsuMVuRLnceJmLadxcbenaFLa9bjU3PC6JMsb9YlxjXEBtNAitpJk0ysdvwkSpYssVkexhnScZtCcuyFklVq/AuoagcmhW2zqJ7Hg/h61NyU1Hkzl2qZjHPHLevpV0yvw2f8AD+/w/o/uY1syZa3NPTR0/KoL4MReTSaStjcnRkafSZtT3jg5JOnRdqtuz6RKeVVGXiyd02MFEk/ggXYNPn1LaxYnKn2xuJraDHgxPPljjTSb+5u/5e1axc1XL7Gvy7brNPU5QnH9USZ4X1lGpjWJL+jyZIOrjJohJ2Qc23Jt278mz0W16nVq4xdfDo1bJN1NefTWW07R02i3qGm0kcXtNySZW/Tup5Nc7NXq9FqNFJrLB/uYt4+Sa2tlY2fLkzZp5Z/mk+yoLbMzT6DVarvFibVm9zGQYNovw55YfcSVqcXFo2Gu2vJoYQnL8kjTsSzLzF9+NLYyqxc6Kx9FO2J82QbIsfVBdSEgYDIqIqGwCkholCPJ0ATZWAUF0AMXYwAfEVEhkTdONuurJUpXXglhy+xkU1FOvhlfJxJfVT6wrEAHQIEMAoYBQyoAAQBYxEgEMAKgY6AdgJHTem9JGeeWeXx4Obid9tWFaPblOaq1bZ5+fLWGp9SXy22VQ1WLLgnJNSVM8x1OnnpNTl080k4vr9jptq1da/JcrjkbIepNMvdxatRk7jxkzjw74uTtvrKL3TPG3TR6TS5tTOKxxuVnoGoxZlop48Taye3So4nQa7PpJpY+NSdOzvM2bJj0ksyrkocidTcu/GfROPVmVtcXj0m6vNgjmx5OHNN2zq9zhnyaKccK+ppI0WL1Hqck8UXijUppHR67U/htJky8LddI453O5Ybxm2sOzWXlxMdFumnzYciw5JOD6Zfu+o1+XBHHqMSgm0zZaTftTmz4Mc8ceM3TMn1HG9Lif2kd8cspy4TLCSsanbcsb6a/0xTy6pcapIxvUkGtcmvmBlemGvxOo/WCKPUt/jsX24F3fmr/AKWa+Er2zV67FpFDBheRJu2abUNvNO4qMm26Oy9OL+q5V95HMbnjWPcMzX+J9G8M5eXPHTFl1MlODQavUpvDicqLJ7LuULcsPSXx2bVbzkxYljxYoxqKMna981OfVLFmjGmTPPkx3e2ai4XGuReOcZcZKn9jqdk0Ftyz4F14IeosEcephlgkuaNpsWsyaiLxTSrGicnJbwzKNYyXk1Wh3nbM2PVy9jTP25U00aKeOeNuMotM7vcN4yaPP7KxKRzOGL3Dc426U2m0a4eTPs3nPEnsyuMy1GuwaPVan+xwykXz2vccauelkdpuGpW1YIvDi7ujF2veNVqc6x5ca4yM3qM75mM0vjeq4f8ALJpk7ySfGCbv4R0nqPRQwzxZcONRU7s2Hp3RYvw3vzgpT+GbvNPh9+jW8nL/AMN1zxrIsE2vn7o6f01gnDHntSVSS4sq1e/5IZZQwxVRdG/2/V49TiWbGkvukcOXkzuF3jJsx13aee65TWs1Nv8AvswaZtt3T/H52vDkzVpWezj84Y/6Z9bZOk0882fHFQ5q1aOs3fbcT0F6fBWW4mi2vWPSaiLjFNS6Z2et1f4bSz1FfCaPNz55zkx01hqy2vPJ6bLhjefDOEn4srhjnl6hFtm03Dc8muxq4eOzpNo0eDT7as841Jx5XI65cvZhLlPNYk7rXKfwbcuLl+HlRg5dPnw9ZMUov9Tp9T6h1PNexGLgje4Hpt10fuZMcXKnGvszn8xyY6uWE06Ttvq+XmozK1mH2dVlx/ZmL4Z6pdyX7ssrS6eWq1GPDHzJneL8HtOmSSSvpuvLOY9PwhPX9/ELRmepZOGfS4/hwbPLy3v5ZhvwTxjaqn6g1Sb4QjxN5odfg3TFPHkxrl54nBOXZtdmySW44KLy8OMxuWPuJjctzandtC9Hq5RSfCbuLNfDDkyOoRbf2R2XqfrT4n9pkvT+HA9E8sKeSxjza4ZlWrL3acr/AAvcHDktNMwpRlCTjKNSXlM6vWb3rcGrcOCUV8M0W4Z/xOWeVRSk18G+PPLL3Il1PDFel1Lx+7HBOUPvFWXY9Dr5xuGCbidzsUeG06f9bbNbqfUkcWd48WFcIyakcrz53LKY4b06ds1N1x2TDnxT4TwzT/YyMO3a7NBzhpptHpS9nUYMeZwTTjZoMnqNYtQscIQeFSqxOpzsuuPytmM15cXkxZcWSWPJCUZLymhU38HoO8afFq9vnnhDtRu0cJgl7ObHL4TVnbi5O/HevLGXipY9BrMtcMMmSybfrcN88E6+50GX1FkjccOnTVG42bc1uMJQywVo558+eE3cJpZNvO1Fly0uoeN5Fhk4L5oz910602szwXjk2dfsEU9rxo6Z8vZx45+9mMttjhMWh1eZcoYZuJHLpNRh/tMco/ujq9bvz0mfJhwY1Lg6ZuYyhue3NtK5Q/2ZzvUZ46twmquvfl51jcsc1JeToM25a16Rwlpvoca5Uc9xlHI4N1Uqs9B1yX8FaXxij2b5s5Lx+PdctW78vOn+iszse267NDnj00+JPbtVj0+dTyY1OLj4Nrm9Rambaw4IpIueecs7cdtTTRZNFqsP9pp5xMR9Nqj0fadcty0klmgm74yOI3PTR0mtzYo3V2Tj5bllccpqxrWvLXGTpuS1GKqpyV2Y5djV5McV8yR1vpmu19S44/gMVL++kcLR3vqFVt8Fx+UcKl8HDpv2f/S10vpbj+L1H/jMb1ClDcX9Nc4IyPSqrWaz9cQvUvF62C+fbMy66nL/AE1ddrR4tLnzqTxYpTS80Sx7frMsqjpps6r0z/ZZEW7pvL0mR4tPCNryLzZd9xmKakm9uTzbbrsN89PJRXyYDi2j0Xbdwe5aefPGk11JHE6/B7Gr1MF45dI3xcmWdylnmF8eY2ODV7nDQ+1h0/KHFps0+HTZc7SxY3Jt1SO92P8A6Vf6SOT23O9PuSlBrhLLUkYx5P1cup5hfWPlr8+mzaebx5sbhJKzHhDnkUF+Z+DufU+nlPTY9TCF8OpM0GyaR5twxSafFK2bw5plx3KmtXTWanR6jS8XmxuKZXi0+bPJRxYpSb+x13qXIpz02D/c2Wm08dt27lwudW2Y+PezG681deXIfwXXQhbxM1uXHlxZHjyQcZI6R71rIShKMG432mb3X6DDuOhWZx45VDkqHxrLO6TVTxduBwYMufKscINtovjt2vnqJYvw07Rs/TqT3VJrxCR1m462Ghwe+0nOqS+5c+a459shJ428/wA+36rBHllwuCZPBtmtzq4YXXwzJ1266rX4YRyQiv2OzXPBtkPYjbjjTSGXLljMdybqTzvy4ae1a7HFzenlSMLFJxkpR6kmdBDfNfjnKGeCdmju9Q5/DnZ0wyys3ZEuvu32t1m5PQf1jGowl0YWz7fPPnx5Z41LCpU7Op3ip7G5Kvyo5/YNfmxZoaarhM5Y528WfbJNWtTxfNbTfNveTDi/CYFSf1JHI59Fnw54YHjaySXSO+3XcJ6DDCUIrlN0rON1W45s+s02okkpwatozwZcmr9o1l29zD1Oi1GkUHljSkrTMXyrPRNzwQ3HaXPHTahcWjits0stZmxxi6pps64c0yxtviw14lE9t1ePCs0sT4UjP2PO8Ouj31JUzofUOfHh0EcTf5moo4/ST9rVYpJf3kSZ3k4stxnLxlG/9T6PFCENZGH1ufGTRyCPQ99g8u1uul1I8+odPbeNcio7b0vBxxZ5td3RxZ2PpW3i1Vy+ekXqP4sjH2p3XddTh12bDjklFJGslvGueOcHktNHRbhteiy6rLnzZuFpGp1W06TDgnkhquTStIzxXDWPjyxn4yrn1B5JJeZSZsMGza/NDksFd/LoNq4LXaWUkr5nW73PVwxQenvz3Rrk5MscpjJ7J6rj9Vtes0lPLidfdGbtG3Z56nBmcLxqfZDJvGpy4cmDJUrVdl+0a/PDPh07dxbomV5Oy7k2bm42u8basyh+GxJTTd11ZyOq02fSzUM2Nxvwd5vGsnocHPErndHHZdRqNxz4o6in3Rjgzz7fPqLdSqtJt2o1aftRszsux6/HFS4KSVWkdhP2tt29uEVFQirOWjvudZ+Vrg3RPi5577Z4hZJrbptTib2nPj8SWE82+qlZ6dqW5bfqJwduWFnmddL7jpd3v39zLxpAtwRj7uJyimlLtMg0OLPUlvh2mDdtvhLFp8EKUpJdL5JepYN6DFfxkOW0TrVYEku8kTrvUqrQr/WjyZyY83HIsu44SpLtK2d/sulWn0HN/mncmcD9S7i+zutj1azaN4srSmmb6jcxmvv5MPbns26avPmyTWVxp/SdTtmfJrNLeRJs0+q9OzWeUsE1xmbjaNFl0WKWPIzjyZYdkuPtcJe+7ri9zwww6yWKEvzNtqvys7rJywbWvYj37ScUjj97Unu2X7OJ0mx58+TBxyx+iqi2b5rfh8WSyzv7fu5fBuGuWqg+cnKTpwOq3pRy7RmeTqSSaM/8LpPd5xhDmjnfUEtVUI8LxGJZnnhqaSy4/XbmtM4QzYpZFcU+0dbDesS1GLTYMFRfycaujN27vXYJSfakenmxlx39mJbt1PqLHz0GP9JnByVM9C9QpvQNxu4uzz/zbJ01/R/9bviodkbosZD5O6wAAWADEACAAIoQ2A2EKyUGr7RFdErcnbVEKT8sBsaQTZEhFkUmGbUVB1Zk49P7n035IZmuaivCD3JQ7M2+KS/qm2OwHQUdlIBgABQxhNo2HElSsGDaNDGOgm0QGNIpshEhg2ytBppajV4caXzZ6HqJ6XFp+Od1jqjlPTq08c2XLldSS6sjvGrhn1E1DuKZ5OXG8nLMfMkid/bGzwx2TBkjkhNm41eHHrtDOEXcZRuLPPk0dXs2vjjjHDOX0LxZnl4ssdZTK2xnDkkurNbcl7fHLwk2uM/P6o9B1Emtpk35eI5HdYad67K8Mk7dnT5Nbge2ODmuXtVQ595/Bvb9YuOU1nN/RxWGcXmwuvE4v/Znc75GL2zJL9EcFijU8fJ04tPo7LdtVhy7YscJdtI1y475ODX38s45YyZRze3S/r2laX986T1MnLRQrwpnKaOfDVYH8KSOk9QajDm0kYY527HLjfjcV0uGUxxyjG9Mu9Vn6/uFfqa/xuL9iGwZYYNRllN+YC37PHNrIcGmuJLjfmt/TtJlJhY3fpyMlpJpqvrOZ3LFz3Sa5eZ0b705qFjwZ/dyKudpGh1sr3GeWD6WQzxzKc/JdNZZSccm3SS0mh2/TrJmx8nGrZHR7joNTlUI6XjK+nRkvNpNfpoxyzXaVqyrSY9v0Uvpmmzld2Xu3swslllmmJ6lSUMEiv03Xv5l/wDQt9QZsOXDjimm0zVbPqPw+qhJvpqmdZjlems0mWUnLLv6p76ovcJf6UQ2RqO5YE0dFq9Bt+szrPPL3VUmcoktDuUXibnGErts1x2ZcNw1d6ZvjLe/q6/dtbh0sYLNi5qXwYK3vQwX9FpqRkyz6HdcTx5foZiLZtvjT9+0vuzjhjhJrOWWOmWWV845Rrd33SGsUI441BHQbJBPbYwjKvNM5Xd46aOeEcC+OzZbNuK00JY5xuB15MP+mTCM456z3lXPZI1myxlLtSZ2HpqCx4Mq+7TFl0G058vvyn3dtWbLS6jQxThinGMUY5c+/j7ZjW8JJlvvjiN3k/x2eD+JGtVGx3R4563UTj4czXHs4/GGP+mLZbVuGSWbG/tJHebrL/gmVxVXGJwMbjKMkd5j1On1m3PDkmo3Cjh1Mu+O69ZLhZ+qb+jhIyVxcnSO/wBXwz7NJQdxeJNHL63QaTT48bxZ3J3VG22zc4Rx+zlhaROad8wykvis45YzKz7xyS6idd6ZxyjgzTcruYs20bXN83m4cu6sycus0u2aVY9NFTqJnkz+JjMZjW5j2eblHM7zOE9dmcTTsvzS5zlP5k7ZSerDxjjPtEl23vp2Sx693/fhRsfUmDK56fMo2lcTmcGbJhyQlF+Gdvg3HTarCsWoadnn5ZceSZyLLvctcD58dm52HBPLuEcji6gjd/wPablWarfizPg9v23E/bnB1Hv7svJzzLC4443dak15tmmB6nmvw2CFdudml2zc57enSTg32inWayeqy8pSfC/Butvw7Xm0fDJSm/n5JjhMOHWUtYudzy8eGcs+07u4wywqaOa3fbnoM64u8c74nQafadu0edZvf5cXa7Nbv+shqsmLDBOod2Y4rcc9YbuNn1ay9edN7sqf8Egr8wkcC4puSfy3Z22z6vDj2zhlyL+90cXKucuPjk6N8Esz5dxM8t44u70MlDZnx7XtM4BRUZOvuzudBn0/8JnBzVqEujhl9ReCay5fH1TK7k8/R6NGd7Nb/wAlnCbdpXrs8cVpNnX6bV4P4XwclzeNqjldo1C0muxZZx+6ZjimWE5vH+mrZl2uozYNu23DCThbLto1mm1HP28HCSZPVYtu3HHjU89VdUw0S27QL2oZU2/MjhlblhZZl3OmPjL3NOZ9QRl/EptvpwVHR+nUo7Yjm/UFPcuadwcUdDsmfT49A4qdNN2mduTd6fCaYmWs75cXqmvxWdV/3Z2dp6eTjt0o18s4jULlqdQ/vklR12wZ8ePQzg3TTZ05pvhxmmZlJlvbjMvWbMkvGRnoOsmsOycqusUejhsiitRmddOTZ12q1GL+Bzi5qUvbSHPLZwz7WEzm7/pzO1aR6zWcarHTbOm1Mtt2z+i9i21bOe2XUfhM6yXSklaOl1+i0W5cM3vcZVXkzy2zPHe+3SzV3qzcZO1anT54ZHgxKC5dnHb7/wBUzpnYbfj0ehi8OPKu3Zx++SjPcs8ou1SM8H8tv003bO2ed1p0i3EovLjblStdkSNP4Pb9GNvQ96xvNtkvbknSTR591Lu1fydnte6YY4FhzK1+oZdp2ac5Tjk4X8X0ePjyvF3Y5S+/BvHKblYXpiLeqzyXhQIeo6/HV8qBuY6nQ7fgUcEVdUcnrdQ9VqJ5ZeWawly5rnrxpLlNa26L0vXDKaHdHx1+ojXiRu/T2fHhjlTq7NDuM1PW6iX3mMMbOfO/RLlLjJ/l0/pzhLT5pJeZHObx3umpr4aN16fzwwRyxbVSdml3mUZbjqHAYSznz+zXdLhNOu2RNbXHl/8AY4Sdw1GVxf1LK2jt9ozY8e1pTmrptnD5aWbK18zbJwz/ALOXcLf04x3ulzLW7U7VuUHFley6Z6LFmeZ9ykafYNbDDOeGbag+za7lrsUcElhl2zhlx5TK4T1WpnNbvuOR3DN7+ulmaush6FqM0cOm93jyio3R5lH5+Tsdv3WEsSxZorjVJnbm4r28evok5JLqqXvOmV1pYtDlvsJ4Zxx4ZR6oc9s2meVNZmqTtWYmvw7dh0soYG3k+4xx47Z4yYuWX5xj+nH/AMWTn/lTNj6oXWj/AHZrNiyQx7hFyddMzfUuaGV4OE06LljvqMb9NNzKdunMxnXg6fbt69nFHFli5I5aMuMov4tHYxwbZrIKXLg2ldHXm7dasY8z02MMW3bpDJ/Rq2qbXlHFanSrT6z2XUkpo7LHk23bcTWN2cbqcv4rWTyv5kjjwzL9XvS5Wanny7LdYQlsrXHxFHJ7S63HSprzI6Hc9fgntEscX24pHKaXJwzYskXUoNSRrixvw+SWfWpcp4v0dT6r6w6R/bKzj7TaPQc2fQa/DBZn8HI7nh0mPJH8M/ponT3WPbZWs9XWUro/Tmp5aeeCf3dBtW1y0Or1OVtcZXxNDtWeeHPjUFdypna63MtNps035So48uNx5LJ/c3x5bwu/o4retV+J1c4XcYeDWYFF5scX8yRCTblJt9tt/wC5laCDy63TwUb+o9fb2cd/05buWTs95lDFtc04trijzpo731DNrSLFdWzhH2Y6b+O/7dMr5RR2Xpdus7a6Rx6Oq2DW4sKyQyum0b55vjykSWSxib7f8QnFzfw6ZpZSfUW+vsd3qMe1arN72WScuNeTDnotjXdd/ezHHyY444y45bZslyt25TBzjkhOPmLs6fTb8ow46iKNJossMWsjJxThGb6+6Oknj2fPc5QUXIvLccveNrM3v3F+o0Wg12knmx40m42pJHI7cnHX6V1dTps6vPuGm0ej4YO+mkchpJzhnxzunysxx91wzl3r6NWzcrrPUlrSRl886OR06f4jBJy6U1Z3eqz6PU6eEc9VM5TdI6aE0tL1+pOHfZcbKZ63LLHT74pT22Sh80zhIJzqCXJ+K/U7DR7vGeLFhzRX5e2JZtmxZ55sUPrJx3LjmWPalyxz890jZ1JbZONJSWBnnHckm/zHe5N408tLlvzKLRxeHJHHqITlHkuRrgmWPfuNZXG61WO8eRKTeOVL5oUWkmqOx3HdNHl0GXDGNTlE47G0pQ5K1as74Z2y7x0lk+7K0NvW6al4yxbOx9SNLQfvNFGDJtOJxnjxxc/ky82t0Gowyx5e1yR5uS28mGXbfDU7ZP3RwHIycOfLi7jJpo2+6vbscV7EE5i2vLt0FkjqY22d7nvHfZXPJjPdNdkUXHM7R1m1y1Psyeqk7u0/0Nfi1O0YZViwFGu3fnB48S4xZwyw79SYWEymPnu21Gqb1G4ZkrlB5uv2R22ub0+hftQ74Lijz6GbLiyJ45eGdbpd5x5MPDOvjyXlwyvZqbkMc5N7ut+mgw6yePO80cj9x/B2Mn7+gm8sPMLZqfxOzQUpewk2Va7e+eB4cEEouNGLjcsse3GwlmM1ctuXnw5PiurMjQUtdpv9ZVp5KGfFLJXFS7R1uHU7VDI5rHFSXhno5ctY61b4Salm6z941f4PSSyRjGV9UzzqXbcqq3fR32p3LQzxr3YWmzm91zaOfBYMdM59P4mrjXXKy+q0DGkh1TA9QiJImEUDfgNEaLGyDCSo0PiOgTC7NJGTi0WozQnOEG1ExUXw1OfDFxhkaizNFPGh/ZUSxdypko9ZIuukwzahwbfgdUzO1eqjqK444wpfBhpvyRNmoqTTHKPF0iN2OwgduTbZL/6/cty5YZYRfCsi6bXhlcW1CzN9NT2qaoHE66fpbU8ElliQn6Y1TpRyxL8zw/k18LP7OToTidYvS+pVf0yBemdTCnzQ+Y4fyX4XJ9nJqMnZKujrf5a1FV7yK8fprULt5LHzHD+ReLk+zleh8bOpfp3UvxKCf34g/TOs+c0P9h8xxfknws/s5dRBK2dL/LGub7zQD+WtdyfGcKRfj8P5RLx8n2czTXY6Om/ljXNX7kLIr0zuLvuKL8xw/ninZnfo5uh0zpIel9f85YE36Y1/xOA+Y4f/ACYl4+T8XOQXZOVs6Fem9dFL64Nk4+mte27yYkiXqOD84xeLkt/a5jtFqk2qOh/ljXfOTGJemdfUnzhfwifMcH5wvDyX+1zaqLbXks9zqjol6a1lJucLG/TeqfSlEfH4PzheDkvvBzNtsslNtU2zov5Z1fzOFkH6Y13zlgPmOD84fA5Pxc6rTteSc5OSps3z9Na/qpQZNemda03zjZfmOD68kPgcm5+lzsXTQ5TcnZ0H8s6zhGppSF/Lmsd9xbofH6f84fL5732uehNqTptA5Ns338ua9JU43Yfy3uFeY2Pj8H5w+Dyfi0cX8LwK+Pa6pm+h6d3BXdCXpvX07mh8bg/OE4OT8Wiyy58ZN90Q5dUdB/Leu+ZIhH07r2+L4j43B+cX4HJr9rSpytPkxOTcrN4/Tm4i/lzcPuifG4J6zjPweT8Wm5sOT5XyZuH6e3Hwq/2Y/wCX9fyceHx5pj43B+UJwZ/i0M5yk7JQm0b3+XdWl57FD05rUvqmPjcP5Ru8GetdrSW7btjjJq+2je/y9qeNc+xL0/rOlOv3iifF4fyjPwM/s52a78sgdE/Tutt1NEIentd/fUTc5uL843OLk+zQ2y+M5xXk2/8ALuv51yjRY/Tmt5KpKhebh/OJeHO/2tE5ycrZNTkl06N0/T2tb+lxI/y7uN98aJ8bh/OM3gz/ABaWWWcn3Jh7jqjdS9Oa+1TRXL0/ud9Rix8Th/KL8HL8Whdt+BG+Xp/crqUYok/Tmv8AvEfG4vyjc48/xaNPosU2jcr05r03bj+gl6f3JSfJwofG4b/dGbw5/i1Epydu22QjKl5Zuv4BuH2Qv5f3C/yIfE4fyifBz9drSSk2TUmkq+xt5+ntw5KuKiWz9O610oNRpF+Lw/nGvg56nhpvcd3b/wByuUpSfbN0/Tu4dU40wfp3X904k+Nw/lE+Dn9mm918asrN4/Tm49U4E36e19R6hY+Nw/lF+DnPWLSRlJQcSpukdAvTu5/fGVv07uleMY+Nw/nCcPJ+LVe6/b42VqVM3eP03uLi3JwCHpzX+ciQ+NwfnD5fP8WnjNJDxzUW6+TbL07uTb+mA4+ndw65qKJeXg/KHy/J+NajNmllqMn0ghlcOk2beXpvcfjiH8tbk/DgT4vD+UPgZ612tC27f7lsckoqrZuf5b3D7wE/Tm5fHAvxeH84t4c7/a0Za8lw430bZ+nN1S8QD+Xdzp2oF+Lw/nEvDn+LTcuq7JSk5JcpStG2/l/c0pXji38UJ+n91r+ziZ+Jw/lD4Of41rI5XBdNmLOTlJtm9Xp3cm++JNendb/eHxeGf3RceHKX054aN5P07r7uIPYNbyilEvxuL8mrx5/ZqYyByk3bkzd/y5uPJKg/l3cPlofF4fyjHwc/xaV5G/JVKRv36d199CfpvX0q4j43D+cWcOc/taaE+PabRBy5G7/lzX9W0Nem9f39SHxuH84Tgz36aiE+KKpNcmzfv07r/iUUJenNd8yQ+Nw/nCcHJLbppFmnBUmVSlbtm+fpvXpWqZJem9c1bcUPi8P5xfhZ/i0kJ14YSnJ+W2bmHpnXLlzmN+m9b8SHxeH84l4Mt+mgTLufVG5/lrXpeYh/LmucV3FD4vF+cS8OV+jSPI0xyyvwbqfprcfiWMk/Teta6nDnY+Lw/nD4GXj9LQRdStEsmSUqtm8l6a10YdZE2v0Ir01r+/ri2Pi8P5Rfg5fZz9FqySjCkzfr0xrvnND/AGG/S+u7fvYyXm4fyi3hzv0c97jEpNHRfyvrqv3YCfpjW/GSInNw/lD4OX4ufc3KLTZDwzpf5Z1klGpxTD+WNVfWVD4/D+RODP8AFz7y8uivm5HTv0tqq6yRsH6W1ddZIJknPwT1kvy+c9YtJocuPBqMcp300ze7vukNThUYKl5Y16X1fxlQ36Z1nzqov94mbydPllMrl5jN4Ob6TxfblW0bfaNTi0mZ5pQt1Rsf5Z1P+ahx9M6q3yzI1lzcOUsuZ8Hl+ka/dtd+Nyco9JKqNE12devTOqWOcJZYW306Kl6V1l954tGcOXgxx1Mmpwcvuxy/guhNRtnRr0vquVvLHiEvTOpb6yxNfH4PyL0/Jfo53mJyurZ038qan/Oigl6V1DSrPGx8xwfmny2f2cxdMc583G+6R0n8qaiqepVh/Kueu84+PwfkfL5/Zzzm2qZVyo6f+Vs/+eC9L5vnOPj8H5J8vn9nNylLJj4uQkqVJHUx9LZe1LUDXpfURpx1KsfMdPP7i9Py/ZzH9JCk1QcnXk6efpfU5G5T1dyIfynqOUeeqhQ+Y4PyifL5/Zzd9UUvpnXv0rOdtamgfpWXVakfMcE/uWdPyT6OOc2/Pkidm/ST6/rYP0nUKWpHzPB+TpODP7OSjKqLsk5NQ+q0dQ/TE4rrOiS9L9pvOnSJ8zwfkzelzcexWdg/SrU+f4q/0K/5WlG2tRbHzPB+SfL5uWU6RBzZ2L9LxfbzgvSsb/tx8zwfcnTZ/Zxak+y73fpo65+lfNZxP0paS/FF+a4PyL0+d/tchGbXkbldHX/yq/8A5RL+V6jwecnzPB90+X5Pfa4tsknfk7D+VYf57Zdi9M6eN+42yfM8P3X4HJ9nGyyScVHuimTs7Z+lsbbrOQfpPF/8qQ+a4fuY9PnPo4Zg0dz/ACpiu/xDJ/yvj6rOPmuH7uk4c3B0x8Wjun6WxPzlLf5cw8GvdHzfF9z4ObgPkc4Si6cWd0/S2DlaylsvTmF1eQl6zhJwZvP1FtC4NfB6IvTmlqk6GvTWmp/UT5viX4Gbz1Y30SUPuegr05po1TF/LuD/ABE+a4k+Bm4WMItW1X6kpYX5cejuV6ewRjxc20R/l3AuKU5cV8E+a4k+BnXBZIcafwxKE1/dPQf4BpeHG7RCewYJzT5yQ+a4z5fJwnFLyhrDbO6fprSfM5Dl6e00VGpyJeq4ydPk4GUeLdd0+yUOf5a8HoEdl00YZIJdT/ML+A6RxkyfNceqs4MnR8A4UX0I+Xt7dKeIcS6h8RsUcQ4GRQuI7jSjiHCy7iOh3VNRRwDgX0Oh3U1GPwofFl/EEh3LqKeLDiXUFDuXSrgHAtoKHcaUqLQ+JdQcR3GlPAfEtoKHcKeCHxLaAdwpcRKBfQqHcKuIcWW0Oh3CmmHFl1Com1VcWFMuoKGxS0Rp2ZFEXEu0V8WLiXUFDZpTxoVMuoVDZpVQnFl9CobNKPbDgy8Q2aU8GHFlwDZpVTDiy0CbXSviLiyyh0N00qpipltBQ2moq4i4suGXdNKUh8SygG6uldMXFloqJumoqabCiyh0N37iqmFMuoVDdFdEeJdQqG79xXxDiW0FDd+4qoKZZQUN37iugosoKG6qqgcS0Bu/cVOIUWUA3fuK6YUWDobv3RTTH2WAN37mlXEXFl1BQ3fuaVUyLTLqDiO6mop4jotoOI7r9zUQCmTSHRN00qphRbQUN0V9sXEtoQ2qppkaZeKi7NRUrZKmTSJUTdTUVpMdFlBQ3TUVNMOJZQ6Ls1FVMOJbQ6G11FVMOJZQNE3TUVOIcS2rChu/c1FXEOKLaI0NiPEXAsAbFdDonVAN0V8WNRLKAbppXxDiWiobFfEfFFlBQ3TSviHEuSChsU8UHEtChsVcQ4FtDobFXEHEtoKG6KuAOBbQUN0U8A4l1DobFHEOJe0KibVTxDiXUKgiviLgi2gooq4BxLqChsVcQ4l1CobFXBBxLUhuI2KeAOJZQUNiviHEtodDaKeIcS6g4jYp4hwLqHQFKgPgW0AFfEOJOiVAVUKixxIpEC4oKRIdAQ4oOJZQUBVxIuJdQgKeK+xFxpMyKE0qJsXBQwKhUMACgQwAQDAJoqAkAXSIwGAgoYAIBgAgGACAYAIBgAgGACABgAABF0BDAoQhgEKhgMBURJCEERDZG4/4kaAArj/jQrX+KIDAVx/xx/3E2v8AHEgmBHr/ABILj/jQDGQ5RbaU0Stf4kAAH7SRFtJ9zQEhCuP+ZELj8ziBICvnC6WSNj5QXnLD/cKkAvp/xxDr/HEBgLr/ABxG6/xIAATpf3kFf/ZAMBOl5kiPXjkgJgRbSXc4iuH+ZC/3AnYEbX+OH+4+v8cf9wGIK/8AtEVf/aIDAj+zQf8AtASIhV+JIXF/dAMBV+qIvzXJASsZX/7Q6f8AiRBOwINpeZx/3FyivMogWWBWpwavmh3G65ICdhZHr/EhWqdzQFgFalCl9aI+7jtr3IgWgQ54/wDMiO1/jQEgIXFeZxE5w+Mkf9wJjKucKvmiSnB/9yIFgEG18ziJSi/E4hVgyu1/jRF5ca6eWIFwFPuQXnJEl7mL/MiEWWBXzx/5kBe5i/zYAWkbFyx1/aw/3I8of5sK/cCwCFw/zIf7hcf8yIEwIXH/ADIg5QSt5I0BICl58CavNHsfu4X0ssQq0Cl5cSq8sQ/EYP8AOgEXDKfewP8A70A9/Au3ngBeBjrNg/z4EnmwrzmgUXjKI58MpKMcqbZkIiigGSBpEKJDAjQUOgIaKgoYwaRoKGANFQEgAiwGACCgAAoVDAGgAAAgoBgADENoQwGAqChjAQANFQhgMCNWFDGAhgMCLRHiWABCh0MAChMYgEFDAgiyL8E2Q+Aq4AAIBDAKQwAGgAAAAAAAAAAADCkAAAAMQAAxAAAAQAAAAAAAAAAAAAAAACGAFAQZITAqn+Wb+0WzxR6rXZdVkxrPk5OfhSPa5/ky/wChnie34nLcYTeRfRmZufVKv/B7/d8NT/uWfgPUEk7/ABF19z19z8L9BcmNmnkEds9Qf5ef/wDcSltu/S/7Wov/AFnr/OX3Dk/uTZp409H6gg0q1aX7k47f6hmnOX4hqPSSZ7DzkPlIGnjr271DT4/if25MX8P9SWk8eq/9TZ7IpS+4OUvuNmnjS231PFt+3q//AN41oPULlcsWp/3PZOUvuK5MbNPHFt/qD4w6lfvImtD6jap48x7BbFbGzTyF7Z6hdL289fpIi9p39q+GevtyPYLkDlL7k2unj60XqSFpY9SP8B6k+ceo/wBz19zn9w5S+42drxp6D1D3cNVaZH8D6julHVns/KX3DnL7ja6eOS0e+xfD+tyf6WQWh9S/5Gr/APcj2TlPvsOc/uXadrxt6L1M+li1S/8AZZHR+pb7xalf+z2DlL7g5S+42aePLReoG/qw6r/cqeg9Q/ODUs9l5Makxte14w9D6iin/Q6gktP6hiq9vVHsvOX3DnIdx2vGpYvUbf5dUQWP1JbqGpPZ+cg5yHd/g08b/C+o/lalC/D74vMdaeycpfcLf3HcaeNvTb/1xhq/9xyw7/dcNZyaPYuUvuLk/uTZp4/+G9QVxlDV3+9kVo/US8YdT/uew+5L7ieSf3GzTx+Wm39L+z1MRe16ka6WqPYFOX3Hzl9xs08elovUGRx5Y9S6/UJaTf8Ai1w1J7Bzl9wU5fcbNPHno9+SilHUkVpPUMuXKGs/9M9j5tfIc5L5GzTx16L1F/h1tf6hrbvUTj3g1f8A7mz2H3Jf4h+5L7sbNPHP4d6hqvZ1H78w/hfqBPrBqf8A3I9j9yf3Hzl9xtNPHP4Xv66np87X+of4D1GvGPUr/wBnsXKX3Hzl9ybXTx16D1JwtR1F2/kcdJv6iv6PU2ew8pDUpDa6eOS0HqO6rUMX8P3/AOcWe76dnsly+4W/hjZp469B6iTjP+nl90Teg9QZK4YtQu/uew8pfcOUvuXY8be2eocqcVh1DfzLmN7L6ga/5XM38/Wex8pfcFKX3YHjq2f1CqvT5rX6kHtPqS25Ys/+57K5S+7Fyl9wjx2W2+o35xZ+/wBSEtq9QQqsOf8A9SPZeUvuHOX3CaeNrbPUkuni1HEf8M3++Lxaj/c9j5S+4uUhs08dez+pKb4Z/wD1MP4N6ipXi1P/AO89h5P7j5y+42PIls3qKqeLPX+siti36/8Alst/6z17m38kuUq8hdPH36f9QPr8Jm/b3B/wP1BG60WX9+Z69zl92HOX3GzTx3Jsu/Ol+F1D/XmWr07vsqT081+8z11Tl9w5MbNPIH6c9QXNQw5P35i/lzf35xz/AP3nsHN/cXN/cuzTyNenN+jTeOb/AP6xZ9m37HCU3hmox+0j1zk18mNrG56PVR77xMmzTzD09nyPetvi5ylbPYP77/c8Y9PS/wCN7fXxkaPaGvrZBJE0RRNBQFDAiEFADCkAESAAAJsFgADZoAIBsMQgG1MYgGwwIjG0MBADRgIBs0YAIGjslZAC7NJjIgE0kAWBQAMAhDAAAAAAEMAEAwAQhgERIvwTaIV0BaAAFAAMKAAAEADAAAAAAAAAAAAAAoAAABDAIQDAAEMQAAwAQDABAMQAAAAAMAERZIiyxFcvyZP9DPDtIk9zxV8ak9xauM/9LPEsUeG6Y0vH4k3Pqle0NdjoH5X7EqIpUOiQEEUh0MdARoKJAF0jQDAgQUMQNFQEhEa0jQUMCbVGhErENhA0SAgjxDiTACAEhARESEAgAi2UAEOSISyJfIFrIWYGTW4otpy7Rgvd9O+SUmmvNgbyxNo0Et3xcOfNUYM96U03GQHVc19wc4r5OOW9wX0t/VRiy39JteSjuvcivkjLLFfJwT3rO1+eKbdsJbvk4zipJ/HII7r8RDr6l2L8TBulJHnM91zSivrDHu2WLk/cUij0lZY15JRyRfyedre8yqUpIysW+yclXigO/wCSJKV+DjMO+QcX/SptG1wbnilG1L5pgb6yZgY9TCSuzIWWL+SC8dFKmi6LsipCoYpMoYxoYRGgokAEaFRMCohQidCoCNBRIAK6JV0MZBGgJCClQiQwIJAyQAQoKJUIGkWUai1p87S/7ci5lGe/ZzL745AeTbCuO96H/wA7PbJfnf7niezpfxXQy+VnaZ7Y/wAzKiaJJEESRAwAQDIsYmSrIg5K6sj7kfuanUZP6SSsx3mf+I+fydX2ZWaevDpsspK3vuQ+4e5H7mgWcPfvqzl8/fxdPk63/uR+6D3I/c5/3mvkfvfaQ+f/APU+Trfe5H7oXuL7o0Pv9+QeWV3Zfnv8L8lW+92K+Re7H7nP/iL+R+/+pm9f/wCp8lXQe5H7h7sfuc/7912HvPvsnz//AKnyd+7oPcj/AIg9yP8AiOeeYFmd+S/P/wDqfJ37uh9yH+IXux+6NF7xGWZfEh8/fxPk63/ux+4/dh9znvcHHL2Pn7+CfJ37ug96H+IPdX3Of925XZP36+S/Pf4Pk633ux+4LLH7mgWZ3dh7zvyPnv8AB8nXQ+7D7h7sPuc/7/6gsz+4+fv4l6SujUk10TRgaJ3B2Z6PfxcnxMJXizwuNsphYCO7mkAhhAAAAAAAACGACGIAExiYExDAKAAAAAEAwAAAAAKAAAAAAAAAAAAAAAAAAAAAAAAAAAAACAAABAMAAAEAEWSEVFbVqX7M8U7/AIusf/6/k9rfz+zPE3f8VT+2pNRK9mvtfsiZH4g68xRIlVIYkSIEAwIugAhDbWkiIwobXRUKiVBQNIoYCM7UESQiKVAAwAQxFQDYCABAQbIHZFyRCU0jHyZ4QVuSKMnkjHnmivLNRqN0hGLOW1W85JP6WzUiOv1WvxYYNuZz2o3uSjeOas5TU7jlnOfJ9MwnqLj0y6G/z7m2nNSfNswMurcoXzds1DzNkOcyjO/F5FDgpsjDVZIxqzDcmR5MaGQ87ciHumO5AXQzFmY3mZg8qJcyIy1O/ksSowVJk+XXkC+cmRjmcPDKOQWBlwzVJyVK/Jkw12pg3wyKpGqZKLa+QOuwbzlrHzl48/qbLBv6cnGSaXwzg/da8MthmGh6Vp92hkap9NnRYsiauzx/BrJQdo7DQ7tGahGWRIwruFIi3bSNdg1cJrqRmQlbTAy0SKlIlYExkCRQwEAQxDEEIBiAVAMYVGgJCAQUAEUhDAAEAAVsqy9Y8r+2ORcyrKm8WVfeEijyTaXW66J+eWobZ7Vdts8S2qLW6aTr/wDJo9s8SYZWokRQwGIYiBEWMizNax9xzurnWeaMCU2zK1v/ADEzBmj4fP8Avyff4JOzFLmQc2nZXT+47PO9PbEvdbGsnaK2QIdkZHP5H7zMf4CwdsXqSbthzKoit9jR2xc8lVQ1MxyVjR2Rc5ieWUapWVWJg7Iv92xcjGHbB2RmKaocbSty8mFGQ3J/cp2RlSn9TE8hiKbJp2Q7It5snztXZQMJ2xdzdeS2FvwY7LINxYZyxjoNBajJNm1iarbXyhkt+GbVH3Ok/ixfB6n+TJIKAZ63mAABUADEADEMBAAAAhgEIQxBEwAA0AAAAAAAAACgAAAAAAAAAAYgAYCGAgGIAAAAAAAAAAAAAAAAAAAAAAACEJjEyorPEcnW79ePxR7f8niWsfDd5Pxy1Ko1Er2f7f6USsg/7v8ApRKjLUiYyA0RrSYgAzV0TGICKBiAKAGA2EAAAdCAAEMYgFQCABiBsg2ANoonkSIZcygjnNfuyxJuDTkWRGfrNdDFcE05Ucnqt0c2afU7hky5JTbp2azJmld8jcxRnZdbLJZrnnbKuX6lSNCyUuS7KxWPr5AF8itiCMky6RJsqsnKd+SFfIUMadkX+gWASQJrwJ9oERE2Ftoi6aHGkgGO0R+QoKnYm0OKoi0ggsmmRCmBfF12mZOLNwaMLlSJRbXZmxp12g3aGCEITu3M63Tbnim4ptdnlayO14ozcObhJSvwND1/HmhJWmZCmmcBt+73SdruuzqtPrIZekYo3Cdk0Y0ZFqYFtjIJkghgAjQAAAEACAYCAgAALAQAxAAiRFgJlM/yZPvwZYVT6jNr/CwPI9uTW6aRP/5R7U/zM8Z2+P8AxTA/n8Uz2aX5iosTJlaJoIkIAIqBFkyEjOTWLmtdxWeSvswJGdrknnk77NdNnw+f9+T9D0/8eP8ApFsiwbI2ed6ZDsdkWIKbDuhByCJx67B91QLtCYC7smV9kk/IBYyLDtEAwYWFuwEBIT8FCRJdMiifwA12yXSIIdjTKd2WRZSiyA0lb/bbSydm4izTbd/3DcxPt9L/ABx+f6r+XJYhkbJHqeUDEBpAAAADAAAQwAQAAQhEhASAADQAAAAAAAAAAAAABiAAAAABiGAAAAIAAAABgIBiAAAAAAGAgGACAAAAAQQCGRKiPmR4lrL/AIw38LVI9t75I8S18/8AimWNVWpTZqD2W7Uf9KJJlfdQv/Choxa6SLLJEEyVmdqlYEbGiKYAIimAgAdgIYQWACAAACgBgKrAYgZBsBNlWSaRYzVa/PwwyryBr9x18MCak+2cBqtQnKTVu38l+v108s6maTJklJm4CU7bKG5A5Ddm2UaEyQJACRFonaItpAQpjoku/kfgoq4MRfboqYFVUD7JtIjQC+A6oJdfAVZAkrJJElCRJphUaoETSY6VUARpkWmSiqJUEQUaD5LG10IEQ8E0/uhEwqXyTT/UocuLFztgZ8Mri0brQ7rLBmgvhnMpvqi+LZmweqaTccWSzcY8lo8q0Wsnjkm2dvt2tWVGFdMmTKIvwWqRBMZFDKhiAQDAjYyoBgAAKhgRUREhAIQyICZVP8s194MsK5LqX7MsR5PpL/immaVL8Seyv8x4ppbe6KXwtWe2fJRNEiKJoiGArEAMrZJkGZrWLnNfXuuv/ZrJGz3CP9PJmrbq2fE6j+TJ+h6f+PH/AEg10RJWhHnr0wgdDEqIpUFDtXQ2qAa8CbEmJsB9ggB30ANdgRtkvgBMEyXLog2XQlYhEgAYS8CTDIGhU2SSoCaVvyWooL4rosZrfbdyqfJUbeJp9vcmmn8G4SPs9N/HHwOr/lyTQ0JDR63kMAAqAYhgAhiAYAAAIYgAQxBEgAA0AAAAYAFIAGEIBgAgGIAAAABiGAAAAAhiAAAAAAAAAAABiGACGIAAAAAAQQCGRZUL+8jxLcP+qar7/iYntvyjxHc7/i+T9c9lix7DGTlDG3/gRMpx/wBli/WCLkc66xJDAaMqYAMgAAAAYhgIYAACGDACJIiUACFYQ2yDYEGwK8sqjZye/ayOLD9LtyN5r9R7eOTPLdz1Ty6jLU2434NyDDz5V32YTlYSk2Qs2lN3ZJPsgWLsqHyXwD6HSQN9BUWQbHfZG2gJqkSb6sgkT/ulQ07RBq3Y0HgCD6RDtljE0yCHFsnCFsSZfC2A0kQlHpsk20J9hRGLrsHEcX+pKgI0hNWClQwIPoYpXYchtE+iF0SVMqnGmFSm7oikDvoLaAsi0Xp0Y8WNtgZkMlSs6LbNZ7eWPZycJtGdpszjNTjNpoxlGo9dwZOSRnJo5Patw93HFzjx+KOlhOzBplIkiuLJhEgEMoiMQwABgVCAZEgYmIAAiMQEWQfz+zLGit/P7MsHkmKVbs4Lx+KR7P8AP/pHicJJbq34rVHtn2/ZFZqxEiCJkQUAwCoshImyDM1qOa3G1qZfZo106ao2W43+If2o1kj4nUT9eT9D038WH+lPjwMGkLs870pPwQQW/AWFNVYpPsXhg+yhoLQo+BdgSbG3RBDatk0G0NBYmXQVDSF3Y2xoFDikJDAkyzDDnkhjXmTooGm0006aIzZdMzUad6fNwk1dXZTk4pJJ2yE8mTJOUpyuyFU7LdbumcZlqd13fqtii2DKlbLYoGXqt3trt5Ddo0m29OZu0fY6T+OPg9Z/NkkFgM9jx0wAZUIBgAgGAAAAAAAAIAABgABQMQAMQAADEADAQAAAMBAMAEMAAAAApAMAEAwAQxDIEMAAAACgAQBAAAAAAAITJCCKn5R4tuq47pqEqpZUe1/KPFN863jVV8ziag9YwNvDgv8Ay0ZKMfBbwYPvwRkpHLJ1iVjQqJGVA0AAAAAAFiACQERgMQAACGJgIRIRRAqm/Ja0Y+XwwOO9R5qw8L/MeeZXTaOz3/JU3BnE5fJ1xSqm0IGhGmUkgtoSsbTsBqQnK14GQthUrYJCjRNANJpjIfJNJgDIEnaFVgNJDqw8EWEKialREaAk3YhNhfQU4yq7Q3K2UuyVsCQ7AgyByZGKsRMqDwiDnZNtNFDVOwq4TplKky6KtWBKJNtUJcUNpMCFlsJ8XZRVMnF9Ctxu9Fr5Y8sapJHoOg18Jwj35VnkvP8AU3+2ayWPJii318M52D1eMk0Wpmr0mZSxx+9GwTMovJFaZNMBgIChgAggIkhBCGIAAAAKiyqnZaR/vIqV4004btO/jVntt2of6UeKa1P+L6in41KPaoL6MX+iJWauRIgiYQwACVUSEiwhIzW8XNbl3nr9DWSVG23DrMv2NbJHxuo/fk+901/68WOyJY01ZWzzvUQiQDTSI/gGhAEeh0hDsggyafQdUJpKwG2RBIdFiknQ6dgiVsCDfZIHQECJIjRMiEAEqTXQSpQZevJjxRdG7DGTd7dXKfZu4mk23qU/2N3E+x0n8cfD6v8AlyTHYhnseFIAA0gABAMAAAEMQAAAEAhiAmAgDQAAAAAAAAGAhgBFAAAAAAAgGAAAAAAAAAAAAACAYAAAAAACGIqAAAAAAABDEEQ/vI8Y39VvOrS/xo9mflHj3qSo7tqpI0PUdN3ptO//ANNGSjD0Tb0Wlv8Ay0ZiOVdYmCACKkIYmQAAACdgMAEMQwAAAAESoKKIiJEWBBmHqJVFmYzD1P5G0Bwm8wxZMtTlVRs4acfqOq3uV6htHKZHTOuJUWivuyU3ZA0wlyaaM7FHT5MU8k8rjNf3TAROwE22RpknRELE1ElVfJG1RXy7Aupk1aRWmTsBtEfA7orlMgm30V2wtNAgh/AJ0xAVU27BELdg+iBsEiL7ACbZXYnYAWJCFYrCHZXJuy2iDoqxAyIeEY5OMgq5eSwpUkNSYRORVZKRU2FlTTMzDkpowrpFkJUZrT0DaNdPJKnP6Uv/AGmdphlcUzyjbNRwzR68qrPSdDJvHF30zmrcRLEURZamESGAAIQwKyAEMBMQwCEIbQgEQ/vImyKX1IsR45uDre9SvvqYntON/Ri/0RPGNySe9ax34zxPZcN+zg/8cSsslEiCJoAGAEUmVyLGVyJW8XP7lKs0V+hq3I2m5f2y/Y1UkfF6j+TJ93pv48UGVysk7A4PUrGvJOiFhpKVVGvNFbG0HQUhhXZIzQuqExiZFIOgCiwNBYvAMtBZIKBEA+gACIYJkSVIbRYixFeOr7LF5IzW52y+cv2N6jQ7ZfuT/Y3yPsdJ/HHwur/lyTQAM9zw0wACoAAYAAAACGACAACABABIYgDRgIYAIYgAAAAAAAAAZFAAAAAAAAAAAAAAAAAAAAAAAAIYFQgAAAAAAAAABADCIf3keOeole5axWj2Pq0eOepEo7vq+cjUWR6fof8AkdJ/40ZaMTQtS0OkkvnGjLOVbiaGRRMjQBgBACGJgAxJDAAAAABiYDAQFQEWNiArZjZvBlMxM3hhY8733FGGfJJzXfwcblXI6/f696TX7M5Gbo64mTHflEgZHtGnNJAxIk2FILDlYqTJtSbAjXZOmNqSl2TuyuhpO7G4ixEWWxi20QnB2ybEEBNQZNY3XgztuY7U9joyvYlGmxPFJfBe6L8PL7MYdlsoNEXFt9F3GbjYq7JIKYU7KmqQrLVEUoIzs1UQoaRNRNRNUqKpItaK2vkbNaV8WLwWdUVsu1Flif2K0iapPyUTdkKJt9FbsgaLotFFsnDolVttHyeWDi/DPUdFJe3CvFHk2mySjJcfl0ekbTn5QhBNuKRyq7dPDwXIxsbtGQiCwZAYEhAIqAQwoIBgIAYgAoTEn9SGyKf1IrLxrcqe8613/wDkRPacP9jg/wDHE8Z3WnvetSffvo9lwf2Gn/8AFEqVkomVokESAQyKTK2WMrkStT25/c/7aC/Q1bdG03L+3j+xqHfJnxuon68q+90v8eKLIsmyp+Ued60g6IsEA2iBYRuNdhSsVj6aG0qM1ToiNWBAgf6DF8lCSY5RadNUxoJNy7fkAsdkPgmiBPsPA2ACTJ2QHEgmrZONkUycX2GK3O3J+7L7Ub6Jodvv3Jfsb6J9jpP2R8LrP5KsAAPc8NMAAqAYhgAAAAACAYgAAAAAkIYEaIAAqAAAAAAABgBFIYAAAAAAAAAAAAAAAAAAAAAAAAAAhgUIAAIAAAAAAAIsYgiJ496lgv4rq18pHsD8nkfqdXu2p+/A1Go9G29r8Bo/1xmcjX7b/wBO0T//AEzYI51tIYhoyqSAAIAAoAAAEAwAAAAYAIBiKhkGMAKmYeodRZmyMLVRuDvwVY8y3bKp5ckEcxlR0+7whjzqCVVfRzGXyzriZI9Fcq5DEVzA7sKCgoY1QUTjD5sxW5BxHRdw6FDHZjbtOK/ZT7dskoVKmZqw1RatM5Nd9Gbnp0x4Lfow1GXVLosWJyTaRucek6ivgy46GNxdHO8seidJb7jn8Wnk2ujPx6W3VdG7hokvCMzFpow7o4587rjwY4tPLb+SiuPwRehUY1xOgcUVzhaOPx7t2+Fi5SellGPKUK7MWWmd9HUTwyn8d/Yolo3yujvhzOefT41zktO4q0iiWGV20dUtA5fmJvboVSR0+M4XpXIqE7qix4W/J1H8MTTKv4c4rtpicrPyv+XOfh5B7Sj5R0P4RrpKmV5NEn21+5fjQ+WaV6Z0nXRj5MSVnQe39HFxMLU6frlH/Ys5Uy6b9LQShRCzNyRMVxo9GN28WWNntB0EUDQmbYTbSTRXY/IkghotVUU+CcSUZMLTtHW7HnknBPI7tpHIwXfk2+3zrUYnzpJ90YsWPVtPO4ozUzTaHIpxTXg3ETDS0kiI0wJARABiAACxDEUAh0BUIj4lH9yRHzJBHjm7db3uD/8A1Yns2n/5fTf+KJ43vMX/ABnW/wDlR7Jpv+W03/iiaZrIVkyKJBkDACKRBkyLJWp7c/uf9rB/oaiZt90T9zHLkaefk+R1PuvvdL/HigRZJkDyvWAGIik/gXFsl8dCtkojxRKgStjfToii6EAmUFhZDkMCYndhfQO2AAgD5IGNESbABghvwEO119yyKtlSRdErGTb7dK8slXhG/Rodvpzar4N8j6/S/sj4fWfyVNDEB7HhqQABpDAQwAAAAABAAxAAAwACQCGRoAAFAIYggAAABiABgIZFAAAAAAAAAAAAAAAAAhgAAAAACGIoAAAgAAAAAAEAyIRB+UeSepae6ammetvyjyH1S+O66tV3wNRqPR9vd6DR144Gea3aX/wvQ/8AjNmc62CSEhoyqQBYEBYAFAADGAgBiAAACoBiAAIslRFlFbMXMri0ZZi5/DoLHm+/wjDUOcn3VHIzptuzsN+qUpqRx00dYZK+hMQFYOxOQmxBVkTJx4nMrxo2WGFro453T19Pxd6HtVDsnDElL9DPhitdqzLxaeLZ5M+V9TDp/uxMWFtdoz8Omiui6EEujOxw8Hny5q79kxhY8CSRkeylTL8cEZcMcfk591rlnmxseLrwWvF0ZaiHEz7ce9r/AGA9lGfxQuCJpr4jAWH9CxYl9jMUSaxmozeSsF4E/gFhSNhwoXA2x337sH2SHsr7GxcER4E8r31rJYF5oplp4+XE3HBMg8RN1Zm0WXTxp9dmqz4Kvro6jJiTMDPhXwi452V3xss043NgVtNGsyQq+jr9ThXar4NHm0/3Z7eLmeTqOm35jR8RUjNnipdoxJQaPXjdvmZY2XVVOgQqJKJtnRFkVSISosj4CJqza6FOUkatPo2mjcPcg3ZL6aj0baouGFJu15RvoHObTkvHR0UPByaXARRMgaGRHYCYABUMGIRQ7EDYAII/mQ2L+8ixmvGt7yOO965P/PR7Npf+U0vfnEmeN7+l/HNf1dzR7Jo7ej0jfzhiaZZKJoiiaCGAAQIg0TISJWo5/dV/SY2ahvybjdU+WNmnkfH6i/rfe6X+LFUyP7kmJ+DzPWdESS8CdECTG0ImRUV5QS8k8Lgpvmm1XQsjTm3RD6oCaAKLFFKhAOwAaoi22ADFYxdAN1aJeWCAUPoZFdkyJUl2iSRWmWrssYrbbe17lfob9HP7ev6X9aOgR9bpLvF8PrP5FiGJDPa8IGIZpDAQwAAAAAAAQAAAAAAwACKBiGFAhgAgAZUIAABgAEUAAAAAAAAAACGACAYgAAAqAAGAgGACAAAAAAAAAIQhiAg/KPJfVj/4vmr4xnrTPI/V8q3bJ+uE1Feg7U09s0LS6eM2ZqdlVbRof9BtTnk6RJEkRGZVNARACQxAQCJCGAdCGIAAQyoAARQxMBMCDMLUXTozWYGpdY5/sFjzXfZf1qDTbtPkcxlrm6Oj3WS97In5u2c5NqzrDJTIgiT8iZXMqv5CkrJdEabCsjHTrs3mjhT/AEo0uGPJROk0qVI8XUZafY/p83tlRjRdGNE4RTMnHjv4Pm5Xb6u9I4cVy7NjDGiuEHaMuC+5iPPyZroQRciMEWUbePKhEqFRJBkmgokNFQKIyRFiIBDAuwmFAwCotEWWEaIRRNIxJwuzPkiiSVEdccmmz4unaNVmwROhzQNbOHnouOVlenGyxzuXDFrwazLgkv7tnTZMULNTqulSdHv4eTbx9Vwzt3I5+UV5QiXyyPI9sfKoJEQRWU1SZsNNNJo1/ToysPlC+mo9C2TJyxnVwfRxOydKHbO0x+Dg0yESRFEgGMQAAUMAEJjEAAAiobIKVSQ2Q+SxK8l9QpfxvcLdU4s9c0Tb0Oiv/JR5H6kr+O624/ET1nbv+naJfbEjbFbD4GhDQZTABGVIgyZFitRot0/PiNJO02jd7o6eI0b7Z8fqP5Mn3ek/ixQGFCPO9hsTAEq+SB+EJsH4FxMKEgQeACo3Qh0IoEMQywFD6E12NMqChGQ8Sjh93mv2Mf4JSXZomuKKydAOugihE0vLJUFE1ZFFiCVtNB/br9joUc5t6/p4nRxPq9H+x8Prf5EkSIoke54DAQyoBgBQAAAAAAAIYgAAAIYDERqgAGUIBgAgAAAAAAAYBQAAQAAAAAAAAAAIBgVCAAAAAAABgAgAAAAAAAACEJjEwK2eVerU3u87j/2j1WR5X6xr+Kv/AMRsdrsTvadJ/pNsjUbC29n0l/MTcI5ZOsSGJEjARJAMKAAYDACIDsCIwGAWBUMVABREQxAQZr9W6xT/AGNhI1Wtv2p19gseab01Obf3Zz0zdbpNe80aWTo3DJU2HkGCNsCmPsbQ0mQZelTUmkjpcEFGK/U57RxamjpdPHrtnz+or7XQSzFn4fpaZlwbnOkuyjDC2bSCWKpQa5Hzr7ezPJLjSVqmTVA5ym7kxxDzXKrolhCJYajnSJUCRMrKsaG0JIImAgKyQAOgpAOhg2gInRFhYgylovaK3RK3GLOL8mDmj10jZyMacE0zLthWjywtGi1yR0mWFKjn9dHiu0enp75Xm88dc9KCTZXxL5u2Y8nR9XF8TkmqIoTTTC6Hdm2Ek/Bmad3OmjDijLw9TRKsdpsv9ol3R2uLwjjdmS9tP5OxxLpHCtMlEyCJoBgAwIsEAAAgAAE2MKARBrtEyLfaNRmvJvUqrfNZ9nFM9T2mV7Tt7++I8u9Tt/xnWqX2VHp2zf8ASNv/APEbc62yLEVomEMBDIoK2WFbJWo0m6OvaNG1Rvd0a/o0zRyuz4/Ufvr7vSfx4oUIGHweV6wRsfQqChsfwKkMmgunVjdARaAbRGiQrFUn0L7EnQmhFRb7LIlSRNMBttdCEICQ06I9jogkn2WJlTRJWhtFlk4lSLo0gzk2WgVZ4s6NHN6C/fi/g6RH1eiu8HxOt/kTGJDPe8BgIZpkAAwAAAAABAMBAAAABEhAMjZDAAEAwKhAAAMBDIoAAAAEADAAAAAAAQwAAAAEAxFQAAAMAAikAAVAAAAAAAIRIiwiEjy31pFPc48em4HqUjy/1hOtzhS8YzUHXbC29q0qo3Jqdj/6VpP2Nujnk6xJEiKGZDGCGRQhiABiAAEAwAQwEAwAAgIWSIMojI1Wt7xyX3RtJPo1ms/s5/6WVY8t3SC92b+UaKbZvNfLnlyNPqzSzpumaxWq0Sun4BL7D7s2wi22yzHFuQoozcOP7eTGVklb48bcmVpsPOvg6HFVRVGBgg4wjaNljSfdHyufLy/Q8OHZxxsMKqjNj2YuLwZUDysZraLIxEiyJrTz1OJYiCJI0xVgDQzWmSoVEgJpEBjodBERolQUbkNlQUSoC9qbRItFlEWxYSqmQkixlbOddJWPIon4ZlSRRJWZdsa1eeNps5zWTbVfFnUZ+os0WpxJrtHbg/c65ecK5acaZjtI2U8NNtmHJds+rg+NzzWTGqgRZxG0dXBGJkwUuUWjH8MzdOnJqiVrF2ezRa4Wdni/KjldnrqSOrg+kca0vQ0RRNERIQWBFIQxAFgAAAABQiDStEyLdNfuWJXlPqhXveqV+YHpmxu9m0D/APoeZep+K3rUzauknR6bstLadFXjgb251tkTRBEysmAxECIsYmStRptzde1+tmjl2ze7ootYr+7NBO7Pk9T++vudJ/HEGqESF0jxvcVBQDQD+QtWDI+AiU0vgiK20CCrIwTTbkQoAtkoOLCgQ2RVT6GD7EFBKkxJDaHkFeR+AoYAxErIpMlRJFn2K/ksSEZrYaBP8TH7HTo5vQ37+M6RH1eh/bXxOu/fE0SYkM+g+fQMQzSAYAAAAAAAIAAAAAAAiQABGwAAAgGACGAAIBgEAAAUAAAACGAAAAAAACAYFQAAEUAAAAAAAIYAIBgVCAAABMYglQkeW+sf+qrrzjPUpHl/rK1uUP1xmorrthk57TprN0jQenL/AIPpjfo51uJDIjMqkhgBFAh0FAADABDAQDoAABAOhBCIskDKKJGp3C3gypLtxNvKJq9XGXGX7BqPKNa7m20azIbjcsObFlySknKEn06NPJr7GotVASHFNmk0lDs3WjxJdmt02BuR0WDFxirPLzZ6fU6Pgn7qy8SRmQ4I1/5WSWQ8OXl9Oz028ZKKuzKhkjRoPdk/JZDNNWkZmLjli6BZEWqaRz8dRJJuXTGtwTTT8pF04ZYV0qmTU+znYa9NNc+zJw61SLpzuLepkjXY9TGXyZMclhyuNZJJFCkWqRNppMCNg2VlICNjLAwsVi5GkMgwcityIukmRaQuaK3kivkna1CkimfgnLImVOSZmx1xjGyq1TNTqILibfKzX5saadMY2zJ6J6cjqE4Tf2ZgS7ZvtVhX1Jo0M7R9Hhz2+Z1WGs0PAn2Ssi0ep5NDgZWljJyior+8Y6Zs9vUnmvvx0TKrHcbVGkujooGo25NY4Wu6NzBHGi1EkRJICQCGQBEkIKiBIQCAYFEWyLJkH5RUryv1Mv8AjGsuP/bR6PsUuWzaB1/cPPPVt/xfIn44HoPp7/oeh/0moxW8iTRCJMrBgABQQZMgwRp91VxxfuzReLN5ut8MX7s0DkfJ6n91fd6P+OAi0OyLPG9pod9kf1JIBvtimuK7HVm/xaXDPHC4J9HTDj765cvNOLVrnF18gdS9Hhf/AG0Y2o0eJYZ1Hs63pso5Y9XhlZNOfoCfGrRZhwyyzUUefsty1Hq7pJu1SgfZsv4dl+6HHb80V9VGrw5/Zz+Pxfk1hLqizNglidPzZCjlZfWnSZSzcpQi23RN4pv4Mrb4XqUnFVxbOg9uH+FHq4uHvjy8vVTiy1pyqxyfiLE/s0zq/bh/hRqd0xKsbSSaZvk6btx2nH1fflMdNRSBiYI8Vj2GvJYCiNE0zW00MbnjnZ0MTmdI37uNfB0sT6nQ/tr43XfviwYkSPox8+gYhlZAwAAAAAQDEAAAAMQxASAAI0BDABAMAAAAAAAAAEMAAAAAAAAAAAAAAAEAQDAAoAAAAARQwEATZiAAbAAAAIYgISPMPWjf8Qh/4j09nmPrdf8AENP+uMo6r0+4S2jTcTdo0Pptp7NpmjfxMVuAmhDMqYWAvBFSGQTbJgAAAAADAQhgACGAQhDEBCRhZ4cotGazHy+Og3i853qE4Jwq18HIzxyaZ6Xuel5tNfamjmJ6PElPokzev5e547jkuy3FFuSiZmbAoztL6SEINTVI38SOWPFlM9abbTaeknZsKaVIjpYv2laMrij53Nn3V93gwmOLFabJRxX8syYpFqUV2cdu1hQgulRcoFfuQ+5L3aTG2LicsSn5MXJhT6TosnqYprk/gxsmrik2bxc8sWLlwSx5OROOSUbv5KvxalP/ANML9xdG2OyM/DqJRppm3wavqmc0puFRMzDkOOUsa+FL9HSx1JkwzpnOrI7tmViztHPu0xn07fxnZLkYGPMmi15EbmTzZcWmXzE50YnulOTNQ7knDazXkK3mijUZdX8GDm1kl4LMmvg2N9LVRV99GDk16tpM56evyPqjDlmnKVnXGbPhumya2UUUR10pfuaWClNpuTZscGHvlZcppqYM78RJkJ58ldOmShiSXkJY0YbmKKzfdkZZLVEJY/mjEkpsabkQ1Sck6OXzqTl48HUU/Bo9VganNHq4PFeTqcNtev2E2FMkke182xJJOjotrw1lxvvtGhxxuSOy2fDVMmSOr02NJRa+xnxMfEqSMpJnMSJUJDAAEMIAAAIgNkQp2MiCACEiZBliPMvV1fxd/riO/wDT1fwXRV9jgfVsq3b4p4jvPT7vZtGajFb2JMqRaisGMQwpNkH2TZBkqtRuqThi78SZoJRtnQbpTxw/c0Ej5PVfvfc6P+JW+hMlVoieR7S7GrRJUPoBxa5I6jTK8MGcvxs6fSX7GP8AY9XS/veDrf2xkmPqE3in+xklOb+yn+x9HOfpr53Hf14uVcZK78mXoYv8RErm3KXZfonWqgvhpnyZ45Z/t9fkt+Ff9N+kgcUSBn1pjLHx7nXO7gn+Ib/QwkjY7gn77fxRhJfTy80z5HPP+yvs8F/6sGXoV/WV/pZ0CRodFJPPFpfB0CPb0f7a+f1n74VGo3WP0Y39mbg1e5dYo/6jvzT9GTnwfy4ufaEWSIHxr7fbiSk6GiKVj8Mgz9HL+mhE6eJzGjr3ofDs6eJ9LovVfH6/98WIkiKGfSfOpjEBWDGIYUAAAAAACAYAIBgAAMCKQAADAACgAAAAAAQwAAAAAAEBUMAAigQwAQDAGgAAAAAAAAIAAAKgAAAAAAAAEBGR5r60p6/TfpiZ6SzzT1t1rtL+uNmoOi9NxX8H0/7s6FHPemZqey6f9zoUYybiQxDMKYCHYU6GJMZAAITAmBAkABYmBQwEDABDAggzHydJmQzFyy6ZK6cftz+4Svo0WSCbfRt9dL60a6XyeLPPVfe4MJOOeGtz6eE0amGJe9UWdC4tx+OzVQSWaTarskzq5cUt3I2OOPGEfv8AJel0KPFpEzhnbt6cZqRHiVTlRd4KpwVWZaY9mVii32zF4Gww+UamkyjC1WGSpmnzOos6/NhWbG4t1a+DSZtBK6idca8+Xn6tRpV706fTOl02i/oO6XRi6XQzi1fn7nQKoQ/9G9xx1Zfbnc+meJ8myqCfJM2Wd87VGFH81HLOyvXx+mQrotxJtohFN0ZmLH2efJq3UWxjJdoykicMRd7boSV5M88dsObaXRgzm+zZzh0zV5oONmtN42WNfOdtmHKbdoyskGx4dNFu3Z0wautNbLH8lErizq1oscofF0c7q9PLFOSR6Z6eXL2x46lRaVGzw6pujQtfubTRYHklChrcJk2sc9synkj0Y2bSSg4zXwjFc5HKzTtJttFJMjLGmnxMPFNujOxJmbkaULTpLs1mtwJxZ0NGv1OLnF0dOLPy5cmO5XCtOMqLFEvzYnjcrFhjbR9GZzT5eXHe5bp8M55VxPQtr0/HFCT8tI5nQYLyx+1WdzpcajBGO7bGWFjNh8FyK4rosRXMyQhgIBgACAAAiMiADAAAqk6LStqyo809XQvdoP7YTuvTney6Q4b1bFfxOEJx84zufTslLZ9NSpKzUYyb5EytIsKyaJERoBsgyZBkqtRud+3Cjn2dDuTrHD9zQTPk9V/I+30X8Stsi/I2RbPLXuSGuyKZKJBal0dNo/8Al8f7HMrxR0uj/wCXxnr6X9z5/W/tjKKc/wDZT/YvKc6/op/sfRz/AG183j/fj/tzL+qTMnRX+Kh9jFfcrMvR9Z4I+RP5Z/t9jk/iy/06ATJIGj7E9R8Vz+4uSz/+kYPKkbDc/wC3S/Q1p8jn/kr7XT/xYM/Q/wBvD9jojnNCv6xDv4OjPb0n7a8PWfvBqdz6wqX6m3NVudeyv3O3N/Hk48H8uLQN2FA2rG2fEfdhEqIFgKzNJXvQ/c6eJy2lS93H+51MT6XR/V8jr/3RYAgPox82mSREmaYAxDCgAAAAAAAAQAAABIAAjRAMCgAQwAAAgAAAAAAAAAAQDAqAAAigAAAAAAAAAAAEAAAFQAAAAAAAAAACGJhKgzzn1rx/G6P/AMcj0ZnnPrhL39LL7QNEbv0q29lhfxM6JHM+ku9nXfXNnTI55OkTGAyKiOgBEUwACBoGIYAMQFDEMAEIYADExiZBBmHm/KzNZi5Y9Mzl6dOP90ctq1cmYVdM2Orx1kZhOJ83kv6n6Lh12YsTNJLE0jV4EvdfybfNjUccuvKNdijUvyiZO8k1WZ5apGRFdEIpJFuM55UJQdhKBkpWNxRjad0a/wBv7IuguNMyVjB4rG0uUqXNuKodWgUXFUCizUtcrqlyaE5tg4SskscqLcqmoxJxcrKIYWpNmzWPrtEfbslybxykY8I1I2GJIojBLyZeJWZ91z5M/DMgkX10VQRedsY8GWV2xskDAy4bTZs5mPKIsdePOxoJ4u+kShjaaZs8mBeUVSx0SXT098sKBTm02PKu0W3QcjpORzuO2nW1Ri3xSqzZ6XSQwq/kvjTByL8RntPLVGnzYbbo2MpciKjyM3J0x8RrcOKSl2bCEJJl8MKMhY0jnS1So9GJnibBxZj5Y2JdWM+3G58fJu18jxYl0bTLgTyVRNaRJJnpnJdMfAnftkbdXNI7DCvpRy+ixqEkzq8C+lHXjy7nl6rCYshExJEqPQ+eYAMoQDEEAhiAQhgAgAAEyDJsgzQ899WwX4/FJ/5Z13pl3s2BnH+sG1rcEvjgdf6Wr+C4DTOTo0TK0WBgUMBgIiyRELGq3P8AsV+5z8joN06wdfc5+XhHyuq/e+30f8ali8jYJHjr3BeBjAyLYLkdJov+XgczG/hnTaD/AJeB7ek/c+f137IzCvMv6Of7MtIzjyg190fRym5XzMLrKOUcnIytHfux/cyP4fkprryW4NFmhli3VI+fODKckuvq+nnzYXismXnTa0NkqE0fRj5NaHcv7aP6o1tG/wBXo5ZpxkjClt+ov6aPBzcNyztkfW4OfCcclyjH0a/p4v5OlRp8GgzY88Jtqku0blHo4MLhPLydVnM8vFI1m59YF+5tDW7jXs0/Fmuf+PJz4P5MXOySsiTnTaIJHxK+9BaGrsVE0BlaVL3IO6qR1MTlcEZ+5BrxyVnVqz6XR/V8nr/cTQCQH0Y+XUkySKyxGmTAACmAAAAAAIAAIAAAJAAiNmAAAAICoAAYCAAAYAIimAgABiAIYCGFAAAAAAAAAAAAAAIYFQgGIAAAAAAAAQxBKhI869bOtTol94M9FZ5z65r8ToHdVCRqDaejv+iRf3mzqonM+lEo7RGK/wAZ00TGTpExiAypgMAAAGQIEAAMBBQEhDEACoYBTIslZEgiUTVl7IMmXprG6rn9bik3aNZxZ0epx8kzRZFTkfP5sdXb7nTcndjIw8q6MNRqV0Z80uJiUee178Uk4+KLYopRlQMWlWwL1BMjjSsyopIR5c8rFaxol7SLkkSrs043krGljF7ZmULia0nxGJ7ZNQMjgLiNHxNsdwK3GjLaVGNJoxW5kp42ZOFdFaVmRiiJ7TPLwyoInIILokz1Yzw8WV8qmVyiXsrkZsbxrHlEi4FvyTpMw6d1jXZMPyUuLS8G2ljK3i68C4tzka5RdWQaZs/bX2F7UfsTVa+JGDGF/BbHF2ZaxJE/bRZKl5FEYJeAcDI4kGhWO7bHl0jEyPozJpmJkjZl1wa3inlMl47RHilPkjKirZZa6rdNjUaRvcS6RqsCpm4gqSPXwPn9XdrCRFEz1PnUAAFAIQFQxDACIhgAAIAEVyLGRZpHnnrOVanSL7xOr9LKtnxHJ+sKes0jl/gOq9KX/B4fpJmma6aJYiuJagyYAACZFkiLCxrdwS9nv7nOSXbOk3DrBI5pnyuq/fH2ui/jVsj8k2RPHXvNEv1ENUYEkdLoHemgzm4tp9HSaB3gj0e3pP3vB137Iz0MSZI+o+QQDEQMBgEIKGACoAAKTNZuKvCbNs124d4JHLm/jyd+D+TFzkiBZNFR8OvvT0ZNEE7GuiDOwOpR/dI6iLtI5TC2pQ6vs6mHg+p0d9vk9f7i0AQH0Y+XQkWECZpkDEMKAAAAAEAAAAAAIImAAGwAAAAIAgABgIBiAAAAAAGFIBgQAAAAAAAAAAAAAAACKhgIAGIAAAAYCAYgAQxBKhI839er+n249Hked+uU/wATt37SNT2Nt6Vk3tUDqEct6Sa/hNfaZ1KMZOkMlQiRlSGAAAwAAAQ0ADAAEAwAQAAAADIIsgyxkGRqMbIumc7rItSdHTSV2aLW4/LPNz47xfQ6PPWemllOKVFBZkRWfOr7uPoIvi/BRZdj6kjOkyZuKzKRiwZkRDycjJgWoqjVFiNR5akJIkB0YIi0TIsLPbHmYtWzKmUqJzvt2x9JRiZeOKKYxL4msJ5Y5MvDIigaHGyR6p6eWqSDLWVyMZOmLHLIEGiUfJxntu+l9BxJIkdcY5W1VwGsaLaGa0ndVXGiLLmVSQsJaqZXJFkkVs412xUSKJKyyT7ZEj0Ysf2vsZOPHROMTJxwRcZupnnqJYsdNM2EUVQiXI9/HjqPm82e6kMKGdnnAAFFQUFAACAAACJIGBGhEhBERMkyDNRl596yV6zRr44HS+kv+jx/SbOZ9ZprUaFnS+kf+j/tNmma6ldE0yKJlQxiGQIiyZBkVrdxr8NKzm5HSbhTwNPwc5JUfJ6y6zfa6L+NW0RJiPHa90AhiIqyEu0zpNBJPAqfycxG7NxpNVHFjUGvk9HT8kwy8vH1eFzw8N6idmt/FxTSJvVJI+j8xxfk+V8Hk+zYWBgrUxF+KRfmOL7p8LP7M+wswPxSD8VEfMcf5Hwc/sz7CzB/FRF+KQ+Y4/yPhZ/ZniML8Uhfioj5jj/I+Fn9mYzA1yvTyQPVpGJqdTDJikrOPLz4XGyV34eLOZzw1UlRU+I5SdEKTR8q+32p6h2SorLEZGTi/NGm/KOrh4RyeG1OHR1cPCPp9F9Xyeu+i0GAj6cfLpokiKJo0yYAAAMQwoEMQKAAAgEMQEwEMjYAAAAAAAAAAEMAEMAAAEADAQAMBAADEADAAAAAAAAAoQAAQAAAAAAAAAACGICEjz71x/baA9BkeeeuH/Sbf+0jUGx9Ipw2ucX55nUo5P0Z/wBJn9+Z1iM5NxYCEiRhTsGKhgMQAADAYBYAAAIYAAiQqAQBQAMi0MVkqqpI1Wsh0zbSNbq/yv8AY5ck8PV09/XHM5UvgxpGXkSVmIz5dnmv0WHqESj1KyPgZmxqszHIy4s10X4ZkwmYcM8WyjInyMHHNmQpGo8meOmUmTMZSLVI3K42JlcnSG5mNkyVEWrjjbTcrHFGHHNEsWZGNu8wumbFl6RgQyoy4ZFRvC+XHkxrMRIpjNE+aPTMpp5rLsSoobLJSRS5IzlY3jCaEgtCtHL6uq+MixNGKpF8WdMbHLKVbYyuxWb2xpY2iiTJNkGzGWTWMRkUzZOUjGnLs43J6MMUJNX2K0VyYk+xHbTMgZcImJA2WOPSPTxTy8nNlqLIromgSGe2PDbtIAQysEIkKioQDABMBsQAAhgIBiCIMiTINGolcB60aeXQ2b70d/0mS+ObNJ6086H7o3Xo3vaZP7zNuddcmWIrRYgiQCAigiyRElWNbuCUsDT+5z0vJ0W4RT08jnWfI6z98fa6L9ioi2N+RM8b3wrAiSQVNFqk0UpkiVmzbIWbsveS0jBSLVGfSUWWTf0cssMYt912S937kXp8rjzqqKJPsXGz3GZML60yHlLFl6MJMsxqeSfCK7RcePLKlxwkX+47Gspmw0DaTbosW2407ttnedLm895eGfVgPJ0VSm12jZT2+3am0YOXS5ofFomXTZyem8c+LL1VXuFOSSFdorb6PPZr3HpxwntGXY4rpgRbdkdD+S5OKgl82VRD5IlZWF/UjrMfhHJ46tHVY/yo+l0Xuvldf9FwAB9SPlVJIYIZpAADAQwABAMQAAAAAABEgEMjYAAAAAAAAAAEMRQAAwhAMQAAAAAAAAxAAwEAUwEADAQAMQAEAAAAMQwAAEAAAmEVyPPPXcG3oKR6Gzzz1y2p6I1BmejJN7TP9Mh2COR9HUtsyf6zrUStxNEhEjm0AEADAAACQhgAAADAAKAAsAgEOhUNKg7AkIlFczXav8jNnJGu1XaZy5P2vT0/745jKuUmirg0jYPG3K2Uz66o+Zl7foMM5prpefBLoulHkzHbdmHXaV0WwkyrzQromjW4z4SfJGWma6E/Bke4kR5+TBnxdk7MeExuRXmuCyUjFztMlKZjZJdNEtdePBit8bI+4ORT4Zl7JhNMtZWkZWLPZq3LsmsvEurGM+KVvYZkWfiIr5NKs7q6B57XRuZV5703lscmsivBj/irfkwUrGN1qcOMbKOpbL4zcjXqLpUZ+O1FWiuOeMnpeWJlVjsrjZtkJjcjGUhuY7mexY5FbmiDmituzNybxwOUrKZSFKVFbdmXfHESaHBFSMqKN4lX4abNrBdI1mKNM2kPCPbwx4Ooq1EiIz1PEdAAFZAAIBiAAAAAIBDIgMQCKBkGTZBlRwvrFK9Eza+i7W2Z/wDyGt9ZOKxaT9Zm09Gqtu1H+s2zXXIsRWiaDCQCGRRRFkiJFjA13/LzOad/J0+tV4Jo5eTfg+T1n74+z0P7KraIk2RtHjfQiNDAVOyKZZHsSVmXpcXLIo0XHG5WSM55THG2rtJo5znyl+Q3UMEIeEWQjxikTo+txcGOGMfG5uozzyuqoywuDS+xzC7s6ya+lnMTrm+jz9Vj6ejpMrZntGGOc2lFdnRabTwxx8KzC23DcZTa+TcpUdun4pJuuXVc3ntgSHSJBR63gtQojKCZZQMlkqy2eWk1WkSTljiaacOLaOwcbRzet07xaiU1+WR8/qen+sfU6TqO79Na5gTaEfPfRHZKmRRO+0RGTjSdJ/c6jF4icziVS7OlxO4o+j0Xuvldd9F4xIKPqR8qpIkQokaZMYgCmAhgAAIAAACAAABjACNgAAAAAAAAAAQAAAAFQAAAAAAAAAAAAAAAAAADAQDEAAAAAAAAAAAAAAAhiCK2ee+ubctAehyOB9dNRht8jUF/o6HDbMi+eZ1xx3ovrbtV/wCU7JErcMmQRIw0kAhkDAQwAYhgAAMoBAAQAAygAAAixEmIBGJmhyszCuSMZY7dMMu27aTJgaKPw3Jm8cfuV+2eXLgm9vZj1djRZtKlE1DjTZ1uWCqjms6qT/c8/Lx6fQ6Xn72I2iFjdkTzvoxbHvsuUr6MVMmpEsTLHbOjOlZasphKfQpZUuiOPw/K/LlMZzv5KJ5LdCRNOuOEi9z6KW7H32Q4tmm0hJkeMi7FB1TRUt0nVtUXrGq8CxQuTRmVQccsmOoImoFlDXQjlbV0Iqi5GIp8WXLIjTllLVroLK+SIua+5KnatZFyZW8hW5mKsxWuXZBzRU5EJSsjpMYk3YpeaIEkbxmy+EomXFKiiGKTL4xlfaO0wrhllGVDoz8b6RgY0/BscUaR6+LGx4ea7WEgQzu8lKgACoAAAABiAAEJhDEQ+okmAC7JEWUBCRIjIo4X1lG8ehUpUuZtfRc72zP/AKjB9YweXS6el3GdmV6Oj7Wj1MX8ztG2K7RE0QVFiDBgAwpEWSIslWMLWOsEzlnfz5Oq1f8Ay+WvNHKuXJJtU38HyOt/fH2eg/bVbYhtkTyV9KGOiBJMyLIG626Fqc5L5pGmSXmzotvVadfuz09LN8jw9ZlrjZyJAFn1fT46L8OjmcmJOclHptm/nnjA1WGN6pV4k7Z5OazK4x7On3hM7/hucOP28cYr4RkIiiaR68ZrGPHnlvK0hibMTPmUerGecwm6Y43Ksu0BrFqKM/HNTVo54c2PIuWGWP0TaNXueO9NKfzHs2pjZ48sc190b5JvGtcOVxzxrlOuKf3RAsyLjJruio+Hyfur7+PqHQ4tc48vCENmFZSkptVaSOow1wj+xyeM6zD/AGcf2Po9F+6vl9dPEXjENI+pHyaZISQzTIAAABgAUgGIAAYgAAEETAQyNgAABAMCoQDABAMQAADAQAAAAAAAAAAAAAAAAwEAUwEADAQAAAAQAAAAAAAJjEEQkef+uqnHb4HoMjgPXX9jt7+ebNQP0Om9u1n6ZjtEcT6Iv8Lr/tzO1gStxYFEkhmK0VDACAJCGUAhgAh2IAlMYhlAAAEAABQAMAIsiSEZVWyBa0RZFY042mc9q8VSbOnaNRrcbcTz82Ph7ukzszczNN3RSZWW11RjUfNvt+hwu4ENMgwI3pbyKZ9oLF3QNILosTZUw5yCsmNUTj3RiqToksrKyzEoovxuBgc7Jxk0wxlLptIKN9F1GsWZxMn8SuKpdh58sctslxRGSSMSWdlE88mCYVmyZGzXrUNDln/Uba7GZOfXkxnqGmY0s/LwytybJWphG2hktE7MPBJvyZRhm4hkBjVMsDSsujFLsIoyMULZ3455cOXLUZmnh0jN4RIYo9IyeJ7scI+Xycl2qWNfCLkh0OjrI4XO0x2A6KxtEBiAQEkh0BAYAAAABARJCKIiJCKIEWWEGCuL9Z/8ppP1mXeiK/C61faRV6z/AOQ0j+2Yt9FOLwa42xXcIsRXEsQYSAQwoIsYmSrGHqf7HJ+xyc34Z1mq/sZ/scpKPdnyetn6o+z0HqqWRJSIo8VfTHZJeFZGmSRNC6FNU/B0uh/5eJzUDpdD1gievpf5Hzut/YzSjPNQxtmQYWv6wSZ9Hk323T5eE3nI1Ly+f1MrQJSySl9jXfY3G3Y3GEnxq2eHj3lyPfy6w47psxgB9J8xGTSTbOf1GblN0zcaidY5HPTl2eHqruae7pcN7qzm2ja6HI5ckzR8jc7bGXCc2jz9PL3x26mTs22hXLwyZGXhn1L6fOx9xyOXrJkjL79FZPMn72W/8ToqPh8v78n6DD9mJggEc22RBNnV4f7OH7HJwtnV6f8AsofsfQ6L9z5fX/tjJRNECSPqx8mpAAGmQAAAwEMAEMQAAAAAABEgEBGwAAVDAQAMBAAxAAAMQAMQxAAAAAAAAAAAAAAAAAAAAAAAAAAAAAAAAAAAIYgiDOC9eOsGgXy5s71o4T1zNY8Whl920anuCPodVt2q/WZ2yOI9C/8AT9WvtkO3QrUSJCQzFbCGJEiBDBAwABIAGAAVAAwABiAqGIBhCAYARoBgRUGVssZGiCJhaiPTM+inIlRz5JvF34ctZRxmoT5OzEdUbTXKpM1Nnyc5rJ+m4LvCUqDrwNEPky9AqgQE4gVuJHgzJ42TjjtkS3TGhiZNYbZk8HfgnBNSHcxc2OtLJfJdDSyZlpNsyIUbxcc+XJhfhWH4aaRs+gN6jj8bJq/w8n5QvwrNp1RBk1FnNWplpDHlppN1VG7og42zFbnI060rXgf4ejaOJW4EamW2NCHFFrkDIMaVLlZKCKVZfAsiX0uVmx00WzBxS5M3eCK4o9nDjt83qM9eGRCJaiMSxM9kfOtAwArAAACAKEMgAEMAEAwIgMQAAAAiLZJkCgIMkyL8FRx3rLrbNO/lZ0L0S/o16Jeso3tumf2zEPRE24axM3GMneRLUVosQZMYAFBFjbE2SrGNqK9rJ+xyL/R9HXaj+yn+xyLjV0fK633H2Og9ZqZERsLPC+oEx/Igq+wLEzo9tl/Q0/hnP46NvoMlTcfhnfp8tckeHrJvjb0hOCyRcZLpkkM+vqV8bertqf4auTqXRtMcFCKivgmBmceON3I1ny5ZyS0BYEWzVrn7a3cJfRS8s0XGcnai2/0Nnrp3O+XSHt805yX6Hzc738utvp8W+Ph7tKdPos8nFz+mP2N9jgoQUUSRI9vHxTB5OXny5AVZOoyLDH1E1HHL9jefjGufHN5YuYzP65L9SknkfdlZ8Tl/fX6DCaxgBACObS+LOq03eGH7HKRo6rSd4YP9D39D++vmdf8AtjMJEUySPrR8imACNMmAAAwEMAEMQAAAAAABDGIA0YgAAAAAAAAAAAAAAAAAAAAAAAAAAAAAAAAAYBSAACAAAAAAAAAAAAABCGDCK5HB+vU/wGh+7yndyOF9ccfw2hv/ABs3PcRV6FdaTXf+Q7pHE+h+L0etr/MO2QrcTGJDMVoDACAAAIoGIYDAQFQxAMqEMBhDEMQAACBsCGKyCLESIMyoKci6LCufgzl6bw9uZ3GLUrRp20bncH9ZpJKj5nNNZP0/S3fFihfYWAWrZxew12NEUC8maMhPoyINV2Yal1RbTcVL7GXPJlqg6bRjRZcpBysrJi6Bzox+bHZZXO47ZEc5N5EYXYJujfczcIzVkJ8kzATZdFk7mbhIyBIhY0xs0jPwVuXKJOTKg3FM+Xw+yqU+uy6TMaZXSJwla8lkH2Y0ekXQZvH3Ez9VuNJHs3UFVGm0P1ds3cT6HFNR8TqMv1LUMiTR3jxmAAUIYhgAAIAGICBgICAEMQAACKAQxFEGRZNlcglcp6vajteKVWlmRieiINZddN/KMn1jGUtpjXxlRieiE+Wrtm4xXoadE0VRLUGUhiRIiotCaJEWFY2dXjn+xyErR2Ob8k/2OQl5Pl9b9H1+g9ZsdgTkiPE+e+psmHYUSQCjfyzYYMnFpowkXY5Kyy9tljly4d2NdXhyLJFMuNFgzuEl2bbHnhNJpn1eDnxzmr7fE5uK42sgCCkhNnp3HBMxs+RQj5HPNxXk0+ozuXyeXn6iYzU9vRwcNyrGzybk7Zl7dSyyf3RrJSbNht/WW/ujwcOW+WX719Hmw1wWN+h2RQWkfY3JPb492ZqdwzLi4p9mXqc/CLpo0Opyub8ni6nnknbHs6bhtymVYknYkEiB872+xEmNX9hE4kFqpKzqdJ/YY/2OV5V3So6nSf2MH8Ue3o/Gb5vXfsjNRIiiR9ePj0wAZpkgGACGAAAhgAgGIAAACJAAiNmAhlCAYAIAAIAAAAAAAAAAAAAAAAAAAAAAAGAhkUAAAAAIoAAAgAAAAAAhCYwAgzgPXnen0H6TZ37OB9ed6TR/pI3PcSl6Fr8Hrf8AWdxE4X0KktNrv9Z3aFalSAB0ZaCABkCGAURTABgIAABgNAVCGFAVDAQwhCJCAiRJkWQIBMTMNEymf5WWMxM2SMU22Zy9OuE3Y0OvfZppGx1eTnI10z5fLd5P0vSzWEim3YhPoVnKvatQUQj2WpGbERqmWxn1RWx18owzV0XRbFmPFsyI42w55aiVElEujjL1ii0iyOOWemLwYnFqzO9tD4GtMfEjAimifZkvGiDgDu2rTdMVknGiu34oBfI+L8jorbZWoqyOkVzj1ZGb7KZTas1I3DlLiiMJybsxnJyZfhTbqjeJnP0t/o8nBK2bzFmUqpnG5pZMcG4/Cse3bpeXhKR7+Gvi9Vh527okmYeHPHJBSTuzLR6HhWARGEAxUADABUFMQwIEFEgIIsQ2IBBYyJQwEBRFkGixkGgjk/Vv/SJ/bnEwfRXebWGf6tr+Dz+/OJrfQ/WfVQl54moleiIsRBeCyIYSQwGAiLJkGFY+b8k/2OSlHjaOty3wn+xyE01KmfL636Pr/wBP9ZK2yKkEiJ8619NJgC8hJMBjTaaEk/sOgMhZTKw6lx+mjW07LIukhLlLuXTjnx45T03P4mS+Rz1TryaZTk5NK2S5yp2b+Jy/lXH5bBlZdTJNd3ZjZJ2077KPLTYn5Ofdlfdd8OPHH1Fl2Zujy8Mqb8IwUy3Gpckl8mscrMpo5MZljZXQfi4/CMbNquSq+jXf0sJNOMq/YqnM75c/LXjx6bHftLLmtON2UWRkKzhu27r244TGE0IdisOgRYkiBJERfBJnTaL+wgjmIHTaLrBE93SfvfN679jOJECSPrR8epDEhlQDEMqAAABDEAAAAAAAgiYCANmAAACGACAYBCAYgAAAAAAAAGACAYAIAAAAAAAAAGAARQAAAgGIqAAAAEMAhAMQEGcJ67daPRL7zZ3jRw3riN6HSfpkN4+4jF9C37GuO8icH6Gr2tdA7yJcvdWJgCaHZhoAFg2RQArGFMADogKJJCAokIALEAAMIQwAIAAAEQaJMi2QRZFsk2Vy8GWlc5pLs5rcdaoSS5Lz2bPWZnFHAazVSyZ5RckkjGfqvRwTecbqbfFP7mKyOKV44qyVHyc/3P03FNYxBog4lxFujD0K4ssTKmpU2kRjJ/JFZcey1QMeE3ZkKToxWLFsYJGXBJGJF+DJixHnz2vLY9IosPcLHCysnkh2Y3JDsrPaubEyBICDRGolj8Fbqi6aipyRizmi3JOMU/uazLlXFq+zWMdMRPK1KjGzTX3KZ5H4RTG22mzeo6yMnGm2bHAvqTMbBjozoqvBN6ZyQ1TqDVnIylLHmm1JpnYZmjjNZHEsjatM9nT5br53VY/orrdo3eVKOV9naYc6mrTs8b0uWpo9F2rVe5i89ro9r5GXt1adkinHLouDKQCQ6IpDsQwpiEMgYNiAgiMRIAIjIlAAgoodkJPobIsI5n1Qovact+eapmo9HN/i9S/jgbn1Px/g+Vy8ckaX0bkU9bqIx8cDTNeixLYlUS1BlYAgAZFjEwqjI/ol+xx0+UpfV5TOxy/lZyORvnL92fM62eI+v/T/AO5RJd0QJy8lZ8yvqQraLI8q7IEospTUpeBofEkk/BayVOrNjp9H7sY3aRbo9NfbXVm6jBRqj2cHT92sq8HUdT2+MWJi0uPEuoo1W5w4ZMcvCkdFRrNww+5jXXhno5eKTC6jz8HNbyy2ufd2Jkvq+RNHyb7r64Rs9BBzy31SRrUb3bMfDE392d+nw7s483U59vHWx4JrtWYGfb4T7hFKVGzQ6PqXhxs9Pk482eF3K5DLps2J8Zrspo67NgjOLTX/ALOW1GPJinKLXyeHm4e19Xg6ick1fah+Q+SVMk+2rPJXqQJIQ7aMi6ClyVro6bQ37EbVM5xN15Oj0LlLBFyfZ7uk/e+b137GehkSR9ePj32aJCJFQAAFQAIAGAhgIAAIAEMCQCGRsAAAACABgIAGAhgACAoYAAAAAEAAIAAAAAAAAAABgIZFAAAAIAKgAYBSAYBCAAAizh/XNra8DX+adwzifXH/AErF/rN4+4ywPQtuGvO9icB6F/8Azzv4ly90iRIiSMNQgGMNEMQwGAAQADoKALAAKgGIYQAAAAgAgiJobZBsCLKMk6TLWzX6iahGTf2MtRoN21PG4pnAZsjedty6s6XX5pzcuqTOSyvjkZL6r18HjPF02nmuCMrkarRSuC7NkkfG5fGdfpcP2xbTZFxLV4JOFo57b2xpOSVJuiimZU40VcbG9txCLovjIpaGm0iVdMyM6ZdHKvua3n2PmyaYuG22eSkJTRrlmfFkfdl0ajleJtFNE+RrllLFmVPsumLxtgsnQ/dZqnn+bJPUfSi6YuDY+6U5cqSNY9QzGnncnbZqQmDJz5b6TNdLImQyZH3RUlfk3Jp0kSqUu0Z2HA6Vshhxs2uPG15OeWS2iEVFJF6iW8FS6CSSOdt253Jh54XFnE7lGstKzucv5WcjusH8fc9vTXy83UTfFWt0n5434vs9A2+HSro4LRX7vmkehaFcYK1To+nj5fA5fDpsDaS7MxM1eGXg2EZFscsc9rwsiBh12ssKIWNMKYAJkDAiMKAEwAkIYgEACKEyEkToi/DCOd9RRras7mrgmrRpPR/sPXzcFTUGjd+p3Wyas5f0Mq3Gf3eM1GK9Rj5LUVFiKiaGJEiBEWSIsKqn4f7HIZJdydfLOvn4Zx+Z8py/do+d1v7Y+t/T/eShkWNX2RPl6fVhUNiH2BOBlYYc5xjflmNE2u3Q55W2vB048e7LGOHNl24ZVu8UOEUi5IUSZ9vHHtkkfCyy3bUWY2oi5wkl9jJbNbn1aipcVZy5c5Mbt04ZlcpqOfl23RGycpJttIr8nxsrvKvu4/tiyPwdPpoKGKCX2OWg+12bzBqn0vKR6Omzxxz8vF1mOVxmm4QFMMqkXI+tLMpuV8qywGs1+HlHl8o2hTkjcWjnyYzLGt8Wdwzlce/ImX6mHGbMY+PyTWVfewvdjKZJMixo5tr4HRaB/wBAjnYnQ7d/YK/uezo/5Hzet/Y2aJIiM+zHxr7TGJDKhDACoQDABDAQAAAAAABEgACNgAAAABFAAAEADAigAAAABFQwEADEAAAAAAAAAAMCKAAAAAAAAAAAAAAAABAAFSos4f1ynLbMFfGQ7hnD+uettwP7ZTePuMsD0M1KOvZ36PP/AEJVbiegIuXsiY6EiRlqAQ2BFAxAFMaIkgGAgCGIACABCsCQhWKwJWSpP5KGytyfwwLJWmVuRTLPT7MXJqopN2NVNxlymjS7hkuDSZN6pSfGzA1TTdN+USx0w81zesanj6Zyuoi4s6bPScknaOc1cabSRjXh6ZNXGtvt/BwVfBtkzR6B0jcxbPlc2Osq/R8F3xxlxdliv4KMZemeWx1SaTXZQ40ZFKiFBZWHJMElXkvyR7KEhK6SnSZBq3SLPgjFdm1VOLK3KRnUV8VYGM3JEObS8mU49+CEsUWaYrF9yQ/ckWe0P2jUZsjHlKT8IqkpOKMxY+/IcC7TtYaxtpGbiwWlY4xfJKjNwwfKmTLJLNJ4sXgz4x8EccKaMqv0OPtwyyVEH12XUVSQc9sfM4S7Rze4YnkTo6PKumabPFWz0cF8pnN4VpNBp3HJbbZ3unrpHO6LTtOSfh9pnUY4/T4SPs8XmPzfVWY7jNhaMyGSka5SYTzcYnfs2+XOaYVuY5E/ks5I5rFrJpu6q+jZ4dSpoxnxWPVxdRhn9WzGiiM0W8kcdV6plKnZIqTHZGtpgiNitgTAiMKYgABMQ2ACsTGyDKjnvU6vZNYzl/RH/VH93iOr9S1/Atacr6IpblONP8hpmvUUWIrRakGUkMQABBkhMgpn4ZyWdR5Sr7s66ZyGaEYznT8yZ8/rf2vrdB7yYyYmwZE+XX1wTQqGvBBJJWbva01zZporo3m1w4Qmru2d+m/ljx9X/FW4QxIbPtPhsHV5pY49GkyZLT/U2G5OpJfoaWR8rqs736fW6XjnbKg6TRFAyL8njfQTXmy/HlkujHROITLGWNth1HH5N3inzhFnKw8o6HRS5Yz39JyXfbXyur45PMZ1EZIkJn0L6rwOW3BcdTNPwzBRtNw/5iSaVV5NYz4/UTWdff6e74sf9I/I15ENeTzOzKhFNN8kb7bXeD/2c6mdBtrcsFtfJ7ek/kfP63+KtqiZEaPsx8OpDEM0gAAAYCABiGIAAACABABMAAjYEMQAAAEAxDCgAAAAAKAQwAQDAIQDABAMQDAQyKAAAAAAAAAAAAAAAAAAAAQhiKzSZxPrZXt2n+zynaM4n1yn/CsL+2U1PojA9CNVr+jv0efegX1uR6EjV9kTRIih2ZaA7FYiKkAAADEMAAACAQEbAZGwbIOQErFdGPkypGvy6+MeSUrkvg3MbfTNymM3WxyZEk2YOXVpKrNNm3Cc7UWYWTUvhbfZ2x4L7ry5dTjvWLYZdVKTa5Ua3LrlC1J2YObVv/tLlTNXklPK307+Tfw5EnLa3um1ePJPgm7q0/uZmWLyQdvtI5nTpqcG38nTQkpQPJy+3t4b420k+FtVbNLqsTfbR0mfHU068mBqMXUl8nJ7JWi08+GZK+joYeEzn6WOduPRvME1OKo8PUY+dvtdHybw0zcbLiiNIuR4MntWoTJRF5ZztFZW/wBjI4keNCVqVRXTK0mjKfgrkma23KgTihUyaLstFFbii2mRfZe5lXxRBrouohVF7hTRKMLZfGKbJ48bsndUt0IY7a6M3HhSEo0kZMF0ibcM8zUUToEMOFu0GimRayiUkXQx8vg108Sn5M/JKxYcf1qR6eHH9UZ5Mu3jqenwKCtr9jY4bFFJIuikpH2eGakfk+sy3mhJNPooy+H0ZT6tsxZytHrwfOzw3utNl+mRlYdT9n2Y+eCttmHz4ckvDPV2zKPFu4ZeK6bHuEY1yZsMOrhkSl8M4SeQyIa3JFR80jll00s3Hv4ery8begRmmvJapHJabdY3FOLN7i1MZpUeLk4bi+jx88yjZgY8ciZYpHDVejc+6yxpldgmRdrAI2AVIiMAhMgyTEUaPfWltOs5w5RpWjmfSDxT3Tnjl0sR1O/0tn1zcbXA4X0fX8Yw8ek4SNJXriLEVosQYTECGAiLGIixXI5HNFLJOv8AEzrpHI50lPJXzNnz+t/a+r0HvNj0iLGyDPl19cElZEZFTim5eTe7W2vci3Zo4s2u3txyN35OvT3XJHk6qb4q6FDIxZM+5Hw2p3DA8nGavo0WRV0jsZJSRptXoHJuWPyeDqeC27j6HS8+OP6cq0FSsaXhGc9LlXTiULDNfB4bx5T6PpTkwvrKKqFTTLeGTkoqDZkw0k5p9eROPK/QvJhPdUxj2jo9Hj4YkYum0Kjxc+2japUj39Nw3HzXyuq5sc/EMUhkJOke2+q8U86c7uDvNM1bRsdVLlkm/izAbv4Pi893nX3+nmuPEhpCJI4OyyMbZ0W3O8P/ALOfgzf7c08br7ns6T98eDrf462o0JEqPsx8OmMQzTIAAABgAAAAAgAYCAYgiQABGwAAACGACGAAAAAAAAACGBQgGAQAAgGAgAYAAUAAEAAAAgAAhgABSAAKgAAABAAQmcR64r+FYf8AynbM4j1wn/C8H/mN4+4jW+glT3M9DRwHoVLhuFfMkd+jV91YmKmMZhURoYEUwEADCxCKh2FiItgSbINkZSoxsuZRLJb6YuUkWTyUYeTVRim2zEzap0ajUaltHow4bXm5Opxx9LtXubj+VGlnquTba7MPPm8u+jWZdSqabd1aPZOPDjxeC8nNz5+PTaPXQTpt2YGfVzySpP6TTzzO+2SwylOSJlnPo7ThuM222DUZcdpdJ/YnLPFVyXbf+5jJuPZhZ8k5y7fg4ZVePdum402b+kT6VS8fc6DTyc+RyGmbq2dVo23CDPDy+30+KaxZmbHcTVyVqdm4nF8DTZoNN99nJ6cL500mqudVHxaMjRyUYUWZMU//AEzAhkeLIuvLo5cmO4+n0ufbdN4m20ZKMPFkRlxdnzOXHVfXl3FyZNIqiy1HnsEmhUBIIqfyhKLLGgVhZUFAHAtE0F2paK6L2kRSXyF2gkPiT6GU2rhHuzKhDuyMEZEOiuWeSaRakRRMjz1ELGL4LBXJmPMtl0USkm6OsnokVqCbMzFD9CvHEy0qqj3cOPmV4ur5NSw0uyUiUBSVn1OOPzHPf1MLLkmn27RjzyX4L8y4/V5MPq2z04R587+ljaiVpt/cx+Kmui/VO0kQwNVXho9c9Pl83i2xiZMRCMG03RtaT+BPGmmVnDl34rXY5yjLx0bTT5pRXJzdM1+aHBWYiyyT8kuMyj1Y5Zz1XYYdarScujYQ1S+5xeHUpSXJdIzcerUjhn00rtj1nJh7jsYZ4z+S7kjlMepkn0zY4NdCau2eXPpso9/D1mOett5bJWYMNTGZkKR5rjZ9Hsmcv1XpjIKQ7De0iLG2RYGo35p7Pr0/8s4P0c63nTX/AJcjt/UHWza//QcL6RnW86JfeEixLXsHyyxFS8ssQZTQxIYCIsmRZGlDZyeoVZJ/62ddJHJaiLWXJ9ubPB1n7H1Og/dkxitk2QZ8qvro2NDoZFSiZ2lyuGRfazCRbB0xLqyuXJj3Y2Ouxy5RUi00+jz/AN1m3iz7XByzPCPg8uFwyqRFolYHdyQcUyHtQ+xcwJ2Y/Ze/KfVUscfsS4RJhQ7cfsd+X3KhgBUJlGaSjCTLW0jT6zPbqMjhz8kwxu3bhwuWcavLJcpP7sxm7LJebZCkfGyvdbX3sJrGREmhAjLSxHQbaoqEq+5z6V0b7bH9E/3PV0v8keHrf4q3BKyKJH24+FTsLEiRWTAQygAAABDABDAAEAAESAAI2AAAAAABDAAAAAAABAMQAUAwAAEMQAAAEAAAAAAAAAAMBAAwACKBDEVAAAAgAQZqLOL9cNrasK++Y7VnD+uU3ten/TMbx9wYHoLxuX7o9AR5/wCg2pfxBnoK7NX3RNDEhmWgFiAmgxMjYWAWNsrboqllS+RqpuL3KiiWVL5MTLmaTp/Bg+/yVs64cWVcs+XGfVmZ9TS6ZrJ6luTt9UYOt1kca4t9s1OTWTXSPbxcGpuvm83U23UbLUZpXV+TS59W6lFFc8s5+WYOdfSejtmMeXDG8mfmqM+fwvijWZMrlJtmRk40YbSPLyZV9XjwxwmoFFykZ+HE7XZiQX2Nhgi12zkzy56jISbNZn5c2japWazUQdslceCzuW6CcHOskpdP4VnT4ckVkSjPp/Byemk66fyb/TtNRl8o8vI+rh5jpseVSh07S6NfqYx5Mv0rioUvuSzwi0jg7YRp5zdU6NfmxeW10beWJN01aL8+LHPFXAe3qw5O2ytHgzJPjXwbXHLpGpni9idpdGdhyRkrPB1GFfa4OWZYRnJMsVlCZarPDY9CadMssqVkkyCd2yfkqJcqIiYyKYWBIhJDbEmUV0WqIJFoS1KEUWxRWrVFkWVxyTHZFsLDBiYiqcmiw0jlfRi8icpOTotwY+7faO/HO6mVmONq/DB8bZb2SlUYhHwfU4MNafD6vl3tPH2mQySUaGmopmPJ3dn0MMXwuXLauUuTMSWN3b8Fqlwlb8MnOVRbR6sMXiz5dRpc8rlSvoswq2iGROU7/Uy4JHavDnluJtUJMm0NRTRi5OUl34a3U8nyZrKZvNRFJUjWSh9jeNeriz1NVSjPxRfGzGhjNpp8VP8A9HQ5MpfCvE2pUzOxxT7Sorlj+RQlKLM2SsYcnbWdBzhJUzPx6iVKzW4snxKjL5Rro8ufFL9Hv4up02azw6tl6mvhmibbpl8MzUbPLlwV7uLrJfFbnkDZrY6pMy1kUkmjjcLHsx5McvVazf2/4Nrv9BwvpJ1vmi/XHI7zebltOuS+cZwPpXretB+0hpqvYl5ZYiosRBYAgIGRJEWRpBnJaq/fy/bkdazk9V/bZV/9meDrf2Pp9B++sJkLJEbPlV9iE2SfSRB9smjKhPolbVEbAiM7Bkpm602pUo0/KdHNKVOzLxZqZ24uW8djx8/TzObjrE00Ss0UNZKLMzFrIy8n1MOp48p7fKz4M8b6bEChZ4P5Je7E7zPC/wB0cu3L7LQKvciQeeC+ReTCf3QmGX2ZBBySMJ6yNtIws2qm77OGfVceM9uuHBnlfS/U6pK4o0uXI5PolkyW7Ziyl3Z8vl5byZW2+H1+DgmEg5MViuwOT0pWCmroixAZMfJvNr6jk/c0UGb3bY1zPV0v8jxdZ/FW4RMgiaPtR8GiiQAbZAwAAAAAAAAoAACEAABIAAjQAAAAAAAAEAwEMoAAAEMACAQwAQDEAAAAAAAAMQwAAAigAAAAAABDAoQAAQgGIIgzj/Wsb2eL+2Q7BnIetK/g6/1m57iNH6Fa9/WxPRUedehlefcZfpE9FTNX2JIlZEDKw7AjaISmgqbKpz4mFl1iV12a6efJkfzRvHC1jPOSNjkz/BiSzX02Y/KkrZi6jKkrUj04cL5nP1dnpkZctJ3I1WXU+0umY+XPJppswJJs9mHHI8N57kg3LK+3bssWnySLtNj7ujcPHGvB0tcu7bTR030u12YWsjKEFcTo3GPwYerxxeJtolu2+Lk7a4rJHsg4IzskIqTKPLaaPLni+rhy/pPDitqkbCOOvgWnUY+PP3M5Lo43F4eblu0I42kYGqxpJmybSMLVSXDtGbF4Mr3aavFBKXXg3WBKFXKkajHNxppeDaxanBTj4Ss8+cfb4rWyhPtKMjawcckDQY2nFNeTb6SfTVnDT1oyfGdNE1JfKJZ0l2jElN+V2yaWVPUaaOXHKkaVr2pKCN5jzWu7TNVr0r5peEZzwmcezp+btyk2yMM7RlKRz2HP9aVNG5g49Oz5vNxXF9rDOZxm2OylNSsKfweX02tsaKnaaJ+KdkFyBsrbbXRFcr8lFlguiCtOyyKIJJlnKimN2y9JVYYyTTbRJEVdErorkkhN0iNshKQNJ+4VTldkFIJProsXRQTvwbLDH6VaMTTRlJq0bG1FHt6bHdeLquTU0jNJqmQVIxsmoTbQsc20fX48dPgc1tlXyfkw+f5i/J4MGeO5W7R68Hzc54rLVSStIq1FRg2ShJRiYeqzri4nqwj5vNGLF3IvgYCyx+DMxSVG68meNjJUizl9NGPX6kzlWcaqyRk0zBS7M2cqswpO5HTGOmHnayCtm4wpVZp8buSSNvjTo6F9puKbKsmOkmXim+vBk018pSi+1RkY9QqpmHnm3Kn4KlIlTzPMbrmNz5R4mrhOXSsy4TaMXGOmPNZVna6tl0NRLGqtsx0+2S6aOeWGNeri6nLFLcdWv4bqbl3KFJHN+msGKOq2nPGdznPIpo3WqxxlpNX91ibRzXpfJ/xPRwdUpOZ4+THT7HT8vxcLXsCq2WIrVW6+5akcHoSRIiBFSIsYiNISOU1n9tk/c6uRyuuX9NP/AFHz+u/ZH0ug/fWuYiT6Kz5Vfanomux2KwpXZlUgXQEWwaSbLIzUUUpBTGjTLWTtGRHOka9dIfwac7xY1tFqu+i1ajryaeMizl+o7s/plXG9Pj9m0/Ev7lTzu7MFZKIvIzNyz/Kk6fH7Mp5k2VvLyMZyI2J/l2nFIslJlTHdgNNyEWIhQR7AmCFZJKzSLIs322t3NM0CtM3m1tueRP4SPT038keLrP4sm8iTIImfaj4NNDBDNMkMAKgAACgAAAAACEAxASAAI0AAAoAAAAAAgAAAAAAAAAAEMChAMAgAQAMBAAwEMigAAAAAAAAAAAEAAAFQCGIIgzjvWtfwdX/jOxkcZ61V7RD/AMhufRGl9DOTz6/9onoqPOPQt+/r/wBonotmr7SLLE5FcppIwp501ViS1dyMrJlUVZrs2pk04wKnkpu30YzyYozfZ2w4bXk5uqxw8bPHHuXJj5RjfZgyyuU3T6ZKdJfS+/k9E49PnZdbannlSMHN3j82ZClaMTPyXZ1xeHPK521iMqoUsiEssTvGZjlr0ztNF3aao2j7SSNXp5wj23Vm1i00ZrWKtwSRi5YqcZJszbbTNbqpqEJMRZ+6OY1FW/3MMyc81KUuu7MJ2Y5MX1eKfpjZaZpxu+7Nm2oxNLpkzbRf0U18nmryc+P60JTRg6vLeJL4TMnKvn4NXnlVoxY68GP6pWMsri/0Nrp5vj14NJNs2mjmlBRbOPJH2eGtjj92q4+Dcbencrka+PwkbDTvhNWeWx6bY2WSClB/c1EmoScZo3V3Fs0OqlGUpR+xCVPmkU5XjnFxbRqNTqXVKaXdv9TBxapSycbOkx8Hdq72ycsOM7RfptTKU1BszMuCOTTKdVJd3/jNFK4ZbTrs4c3HMo+n0vU3xHVY52jKTNHhzW00zaQnyPk8mGrX2Mb3RlNUBXC2+y2qOOmghO0x/qFAMmJkl5CVKi2mRh5Zb19y6c8qIhJAhjTCJVLyWzdFXBvuyLFfyWRixqFOqMjg0kdOPDurHJnMcUsNoq12f2sd2WcuBod61HDBON9SR9Xg49afH58+6tNHc8vv05Ljy7XydFo9ZHJXmn4PPOVSbb+To9ryz/o0pdNn0sI+dz+MLXYydox52WLtBHzI74x8bLNBRuPk0utlxk7fRu5WlRzmqX9Lk+VZ68J4eW6uUVKaujN07bdWa1LtJI2emXfb7GTHNJMa2C6JMgkyVnJ4Yx8jVGtlNts2WeljZqZeTtg9PBJqsvBJ8kbqE/g0GJtNNeDcYpWlRtOSayZimmKc1xZj20yOaTaVfYnaxKwM2RFEZ18lOeb5FHNix6MeLeLZQyOzYwlaTNHDJ4Rs8UnRxyceTHsrM5j5lNhLwYc5lRq8laTUfb232c/6XhghrdNNzvJO4qP2M3X6itJmx9tSVGp9OTkt40EPjnTPNzP0H9Ou+PJ7NEvRT3yf7lyPG+glQ6AAqIEiJKqDOX1n9vk/c6eRzOua9+f3Pn9b+yPpdD/I1siplzKXZ8mvtwAwoRGgIY0UFjQmNJFBYWxUADTGICAC7GgICiI/kVAOwQdIaooLCINAgiVDToS7Y/2QRcbna23LIvskaWLNztl85no6f+WPF1f8WTfoZFEkfcj4ORomRRI0wAACoAAAAAAAAAABAAEgACNAAAAAAAAAAAAAAAAAQDABAMCoQDABAMAEAAAAAAAAAAMQyLAIYAIAAqAAABAAgyhI5D1mr2f9pnXyOO9af9Gf+s3PcGh9CTrPr1R6BKaj22eeeh3COXWXNXKCOr1GotuMX4Onbus5ZTGbrKy6hPpMw5ZooxqlLxLsqzXGEpOSVHqw4p9Xz+Xnyt1iep1MVBU+7NXl1CkvJh5crm5UzFV8qZ6ZjI+fy43PzW5xZE10y9ybRhaWHVmfDxImTxWWZaitX9zH1E5cH5dF7UldmNmhLj56ZMfZhdVrG3J2xKNqixxddiUHdnePXua9s3R3KX1fDN58dGq0cHd0bZKkK5q7dUazXdQZt3FV5NVrl9L7JCeLK5XKrbMUzcmN2yh4hlNx9Tjymva7TJtpG3jGujC0eFppm6UItHmseHqOSd/hrskE1Jmk1MX2dU8KSSNNrMMU3RjTfTcusnPuzI0tclb+RSg26DDGpU2cso+xhm6jCm4t0WqfGcFRRp5/0S7MhYufcfJ5ssXoxu423JqDX3RzW4z9uqbTs33ccfb+Dk941WKcnGN2nTfw/wBUZmJ3NFqM0pzkm+rK8cnCVordtuxxlR0iut0eTHlwyWTI/wAvRiZ9K1K000UbZJN1aTN/PT/iIVjVSS7Oecejp89ZTy1GB10mbfA3SNZLTzg7SoztPfBM+Z1PG+90/NLNbbaF3ZbTbKsLTXTMuJ4dPT3quLFxaMpQVEowRnSfEY3Fk0mZHFEeLGk71dU2SpfI/bdj4tFYuRpdDQ6YcQztFolx6LIwZkRgkjphx5ZX05Z82OP1Y8Yd2XOPRZVKyEppHv4uHX0eHk5+76sXL9FNnH71nfOn44G+3XWwxwkrXcTznPnyZZPnNs9+GGo8eeW1LkbzatRUkmkc+Zujnwmejj8vJzecMnpeJ/RF/DL4Rttmk0eo5fQp2kjd4mkqR6cXxc0ciOfzw+uX7nTyjcGc7nvnKz04PHluZRhxhT8GdhirTrsx40ZkO6GTny5WsuuhdDq6THVHnvtxkYmZXBmqnF3Rup07+xh5IRbO+Drx59tYuK0qNzpl9CTVM1cYvkbrFXGLN7ayu6bq6MDM5Jm1rl5Rj5cadosrFc3nvldGPZn51XdGMlEV7OPKdkOCbSZtcSaiv2MDFB8l9jbQVfJwyebnu/ASdjknRJLsJI59zhJ4aPcf7HJ3TSNbsCS3vbXfnIzca5N4szpflNNszS3nba/zDzc1ff8A6Z/FXtr/ADy/csRU2+TLEzyvpLBiQyKQmSIslVXI5rXpLPN/LOmkcxuXWZs8PW/xvo9D/I1jdIrZORA+TX3IOxUDDsjQGJsLAbY4u2RBXZBKxgK2NgsaIoklQAR5DYrIAaYKgAGgAP3AfYIaCiskSViLErAcGbrbJf0k1+hpoqnZuduS92X3pHfp/wCXF4ur/jyb+JIjEmfdj4OQJkESNMGAAVAAAFAAAAAAEIAACQABGwAAEAAAAAAAgAYAAAACACoAAAABgAgAAAAAAAAAAAAAAABgIAoAACAAEEAhiCK2cd6zi5bNKviZ2LOM9a9bN1/mnSDi/Tmo/D5tRCNXKKOwxtytv7nD7J/zMmoRf0fJ2GLJZ7cMPq8HPnd6ZzfFmr3Ca4Pps2EZXEry6eOVOjvHi3uuVeSKSinf6k4VzVyRTq8Ps5ZJeDGx5nCaN7b7e6Omw1CHH7uzMi/odGBgkp40/kyl0c6+VluZ3aT7KMjaLbsqysuPtjbDkuwUbJOROMkeienS26bTS1jh8Gakn8mDp4WbDhS6OeXt0492E0vCRrdak4U0bOqRrtZ4GLWfiOayQVso9uLu0Z2SKtsrSSNZOuHJZGTpYUlSMxRZj4eqM3ujz5PJyW3K1CatGo1cXdm3l4NTr+ajfhGW+ntvK0mTt9LyVx6knRZIrX5kZuL7mFbnAlKCasz8dr6uX2RhaOL4NMycmTFiXbdtfB58sLvxHqxzxk9o6vVLDjk1KzjtTleTI5Gfqc0stpmrmnY7Mp9Fwu6rJ8G1ddXViovWTIsft8vou6Jp0tX6aShJP5N/ptbwlG/LOcgZcJvrslx25Tk7a6qcFmi5fL8mFCLwylGmgw6yknIypqOaClE8vJwXLb6PT9XMbPK/A0mjZw7o1OnjJ0bvDCNKvB8vl4MsbdR9bHqMM5uVdCJNRJpImkcdHxVDgHHsyHEXFGe1e9R4Au4oKRZid6pIkojp/BJVFdnbj4rlY48nNMJbtJJRIZc8IRcnJGBqtRxhKmaLU53KKt2/g+rw9N68PjdT1kn1bx7pgUfzqro0mp3uLhNcav5OfzN9RvpdpfYxJwc7Vnq+Dp5sOq3PR6rW5Mrbb6NW3bMnJi4mPxZbi7TPuRL8KfJFfBmXp4dnTiwtrnyZSY1023YpJcrVP4Opxr6E/k5fbopfHZ1EJLiezssfH5c8fJTzuMXRzuoy3M22fjGLOey9PydsZqPLh+rLyvjP9TO081KSTZp4szsDfKJMk5cJqtx4kEvBCMiaZ5rPLy+FMvlGMy/LKjEck35OuK4yroUpKzaRiuq8GnUlaNthlaVM00ykE0krQovyNxTRG40uqwuEezTx+nqzpdQ1GqZy+R03+509x14Z7xbDFLtJGzxeKZocWRJq/Ju8XcIu/g4cjnyYWVf0J9fAXSE2cNOVYmrg3pszUfEGczslLc9tddrIdXnlJ6bUV8YpUjjtnb/iOg7/AO8jhyPt/wBM/ize5v8AMy2JU7vstR5n00xkRkUxMBEVWzmtwTWaTvo6aRzG5JrUP7UeLrP430eh/kaxkPkmypvs+PX3IGuwFbGGgKiQJWBEnHwJpUV3RKLbC7IsOTRBIdkV2DbQE2rIUFsbAj4JIVAA2yJIGUCHYgDKaJcqIdokmypVibtG427+1Zrcc4RjLljTfw/sbHbX/Ss7cH8mLx9T5483QxJEUTR93H0+DSJiJGmCAYFQAABQAAAAABCABgMAAjQAAAAAAAAAAAAAAAAAAAoAAAEAxBAAAAAAAAAAAAAAAAAMAAigQAVAAAEIQxBEGcX60/6JL/yo7ORx/rTvY5/+VG57Hm235fay/px7Or0eRScql5SZx2iXKTdLwdBo8kMU1GbdyfR9PD9rxc2P6rXVYklHyWdfeirF3EmuL8mpHy87Zk1G4YHk5NHLTuLpo7jPG1fwctuGJc4v7mteHThz3lqsrR524wTNmpWaHSZHHqjfRqk0ZePqse3O1YmjG1GSi6zA1U0mvubxjjxTuykUPJ32Thkd9GFdsthJWjtPT2Zcc16dPpHaf6GxRqdDNKJs+TZzznljj8QSZrtS0ouzNndM1ura9p/vYxjGdt8NTka7KFKn2Qlkvv4Im7Nx2xw1PLaadRl3ZmOXSNbplRsEm6s8+UeXl8W6J3RrNbK1T/c2ruJrdbFNNtmdLwXXJHPyptmVptFPM4yj9zGagp0zo9DqsONKqaLY+1bqe2QtE4R78nPauXJqrXwzeZ9w964pGLj0vv5JSZcMXG80laH2HNWjFzYOFHarQwxxpWanWaRfVKqSRu4yrx9Vfidtcw4hGPZmOC+UJRjZ5ssHv+J4VwxSZbxaNjp8UTInpeabRnteTLqZMtVrceRQSTujd6LWQhUfPI0ssM4Xy+GVqfF9Ni47dceS+8bt22GWPj9Jt8UE4nKaDNF8E5dto6nFNX0ebm4JZ6erh6m42eWSsbJ8ScZJobPlcvBcX1uPnmf1QaRGiyiLPJcXeZI1ZCi0g2ku2dMMN0vJqITaSNdn1K4yinTMjNlioN2aLUZYZE4rIos+jw8Prw+bz88t1ti5NVblyZg5s0XDlyXT8FWdx9y/hFSUZeEfUwx1Hx+ay2quLm+zMWkThFpOzIwadOujaxh1TZvTx59TJlqOV1GnlG3JGIsB1mpxRnFIxZaePFKKLOPbtj1ck9uc9ky8OF/Bs3pY3dGVpdJa8OjvhhMU5OrlxPSpwN9ilaowFpnGmmZEPoOj5uXJblstWrh0c3NPn+h0OaT4uzSyg239i/R24spusZJpmw092jFUG5Gfp4UYyq82U7WdV9j+BKLryNo5Pn/ViZ24xZreTRsNT3FmtZvF7eCTtXRlZuNLLpI0UaSNtopM0cmLdwrtiTKVddMa5eE6IxKxdT+WTOX1So6jVJpVI5rVRt+Dc9O3Bf8AsY+OVM3Oky9V8mippo2ulaOOXt26iTt226mx+StFiOdj5dvlXla/DalfLxujjtp63PQJ+VmR1+eF4pr44M43butz0X/nR5eX6vu/03+LOPdvktiVfJYjyvqrQEhhTIskRMrEJHM7kn77ddHTM5vdJNZUkeLrP430Oh/kamS6Kn8F0u0VUkfHr7kL58DEF9Bs15DwRtiAJN2uyEouSomSJoRokIaRBK6AiMA7AOxMCXwR7H9hgJdDbtiCyxDAdkfJUWEkRRIukqaZtdu6y2apWbPb791HXh/kxeXqf4snSxJorRNH3cfUfn6lZIQzTAAAKAAAAAAAAAAEAwCGAARsAABAAAFAAAQAAAAAAAAAAgGIoAAAgAAAAAAAAAAAAAAAAGIAAAAAAQxBAJjEyorZx/rXvYp/+WJ18jkfWNPY8v8A5Eag8s0nWRG9i+MrNHo+8qb+1m4tykfU4vOLw89dPoMynF3+yZnXRzeiz+20rN37qn2jr2vlcl8ibq++jS6yMZTVo3MlaNXqF5TNdrOGXbnK1MW45XS6N9h4uCqzSSg07o3WjaeLtM5ZTVa6nWU2vaNRqfzs3b/QwNSuZvF5eKzDJqEmTjGnaMhwJwgmdY9V5JptNHJOCuNM2y6MHBjSijOUeuzGd8uOKuck2azWO4NG2WOLRgavB9Fr4GNXz7czxr6RO7oypQQQgrN12+J42yNKuraNrGvkxsMEkjJUVI8+bx5XuyNwVGs1eO4yNraujGz1KLTiqMRqaxsscjOPbLNNmjp80ZuNpPtF+pj9baXRjKDbNPq45y4y1vsmDS53DNp50peYm20uOMcdfsc7oZvFPg0uMjqMdeCeXDPW/Amlfg1etgpY3RtZU12U58SljfGjccL+7bhs8PqsoijY6rG1N34swOkSx9Hjy3hGw0zpo28eNRaNDhlTTN5ikpJOjGnh6mWZbU5sMZttxNHnxe3Omjq1VDyafS5dPljOKUquMvmzFa6fn1dWub0uZY5x6s6vSanGqcn8o47NB4p0i7FrO48xZuPfj5m49BjqIN/SZcc0JrpnF49zhCKurSM7BuWNRXJnm5eHul8PRxc9wsdO2Fmuw6uGVrjNMy/dXXZ8rPgymXp9bDmmWO05ukazUZo01YtXq4xVRds008rl5Z9DpOjuXmx87ruunHO2e1Gq1MknFfBop53K18mbrMidcPjyzW2m7Pp/BkniPBhllnO7JKMZSpWbXBgf0/cxdPC2mbzDiqCZnt08vU8tk1FuHEkZkY4Z4pfVU14RjLoUq8iR83v8qs1WjG5hny9qjE93s64x6MMLZvTNj2bHTxddGmhk+pHQYfyRaR0Yzwu1iX3ISiZPEU+EVYYuLVZ7cWmYH1JNf7mfla8/BgOXkta496pRtWZ2GK425GFC2zNgqRyzOWr+X2HfQR8DbOTzsXLj5pmtcGmbeXhmJKKbNx34s7Jpi8O0bXSYqXkxIxM3BKmjo1lntsFBLsklUgbXG6ZJ100QYueHNNHO6iD5NJHUybadI0uoh9TNSrjl25StBKDsy9O6dE54wxr6jGUenLPuwbSHjsuiUQ6SMmJxr51/cMkHPHO3S4O2cPoIx/iWkjF+M67O7k1wkn8po4LTXHcMFdVqEeTkfd/p1/TnHut9/wDpF0Sn/D/pRajzPqLESIokRYCJITI1FUjntyaWVJ/Y6Fmg3OvdimvKPH1n8T39F/LGmk1ZAnNFTPjPuwNMiyVibDZIGMiwETQkSAQ0xNAqFDYA2RbpkErAXkfkIdAFMQCdgv1AaAkCEM1ENWNeRJkvJSpo2egb95JmrrwbPQyfvwVdM6cX8mLy9T/Fk6Qsiyssifdx9R+dqYxIaNMmAAUAAAAAAAAAAAAIIkAARoAAAAAAAAAAAIAGAAAAAAAhgAgACoAAAAAAAAAAAAAAAABgABSAACAQwCEJjIssRWzkvWNfwTL/AK0dczk/V6vZMz+00aiPKdLbyL9jcOXyanSJvO68mdOMkfS4f2vFzfuXwnTs3ukzWkmzmFKjN0+VRPW8PLx+NuoeRJroxdQk5dBgm5xjJlmRWR48rrwwXilXRm4L4pSBRkyxRroxk5Z5VK0Y0+22Wt0Y+aa5CMTdqlonjj3ZXzSJxmdI6Xu03uOlSMm1xZi4WqsufZyy9umN8LLSTNdqMySmmjMXSaXya3VtRi/3LjEuV01jpt0KKpkJZV8FaydnSrMctNtB/TFJmVBr7mvwz5Gcmjjm8/mZLW0YuWaUX0WykqMPNJ02Yxi27sjW5eMroqUIhKVyZDpSO0xe7GWTW2xwrBUbfZt8EFybNFgTc1Z0EI1FNEyxZXziq6MeSai0WxlTSYsypWiRnKeXJ6yMpSkq8GqZu9Vy5M1bh2b7Xr4MtYo47tG7wRuuLNTjx1JWbrSJI55Y6cuqymmVGNMsf5RpfJJq0cq8ODntak3Rp545J8jpdbjuLaj/AOzSyTqmbk2+p0/Je2MHlJMsjqpQ+XQTh10U8O/A7XsnbfLaafWuE07o6HBq1PgnI5HFBvwqOi0OFSVtyMXhl1dMZ8945qfVn5MU23fi+jGy4+KbZtnG6Zhar6XTTaaPRhNSR87l3lltzGpb5GKomdqYty8UVwx+DpXrwyk44zdJj7j3/wCje0kqo1OjjWRSo219+Dhk+d1GfmosqyOouy+6sx88o8WSPLh5yjT5ZMoT7Lpq2yKhLzR1xfVx1MV2CPfb+TpMNqCbNJp4W0b7ErSRXl5Mt5VZHI1O34oqyzuLLqRTNRp2I52Vp8+TqjBeSmvku1L+oxGu0ad+LCTGMmE7kkja4+0jSQ6mjdYvyo5ZuPUzWmRXwNkYk3VHC+3lUTXkw20ZeVpRNXOdNnTGO3DjbtkxmmbDTOPhmgjkbkbHT5Ko6umfHcfLoH1HoO5FGOVpF6+xlIrk5xTivk1Goas3OVqJz+oyx5yp+S4mt2MaY4LtEW1TlY8UrZMo7WXtbLGi1ChKNJD68nCvFl4q+EW/DRwXjcI/f8Sv/wCJ3cOLpHCSS/iDgl/349o8vLPb7X9N/ve5R/Lj/wBKL4mNjX0Yu/7iMleDyvrp2SIokRYCLGBGlbOe3RJ5ofszomaDdKbiePq/PHXu6P8AljSTRUy2bKWfGfexgoTYIA2jbBkkuqB0BG2Ti2Q6bGqiNiwgS8ibCI9g7Y5X8MEQIkh0ICVitMi1aIxi4qrAmMEOgALFQFEkicUQLEVmp0bHRP8Ap8Zromw0brNjX3Z04/34vNz/AMeTp4vomkQiWJn3sfUfnqkAiSNsAAAAAAAAAAAAAAEMAhgAEaAAAAAAAAIYAAAAAAAAhiKAAAIAAAAAAAAAAAAAABgAgGACAYgAAAAEMQQCYxMqK5HJernx2TN+szrJHJ+r1ex5/wBJGojzHRJvI5GwyQ+lu7NXopqOXk3So3uNXbPo8N8PDz3trVFmPzdGbPTpX0Y6jTo9Urz/ABJlLputFltJfHk2k1FRu7Ofw5FE3WLJCSUX5SJt8/kx/X68IKTpt9BckLLNJkIysjjnNL4/Vds1ueX1Gf8AFmpzt82ixeDHeSKn3ZZDJkeSLbMZF2N2zc9PXljNXw6XT20jP49GDpH9HRmKbXkxl7cMZ4Vt15NPr5Pl+iNrlbmukabXNKrds1in90jVSlRBOhyHGPI19Hq8SNrpKaM9KJgaW0jYQikuR583gz13VCX6GJm8Pr4M1d3ZTmh9LYxrM/dK0Mo1JiUflmS8bth7VP8AQ7x7pyTXtZpe5KvJ0WJrj2aTT41yRv48XHozm5d28rpYlFq0hZVGUVEnFfSEqOTbnNdjqLfE1PC10jpdY48Wqu2atRjfSR1xTv7Guhil/wCzbaaMlVohDGrM7HEzm5cvL3aiaiTpDS6JPs899piwdTG14NFlxdnUzjGlaNXqMUOV0bxrrhydl9tDLFJ+EVrCbmcItVRjPFTOr1Y8/hHS4OUkmqTN/psSw4qMPDFcVXTMueVqHGqJtO65syDTsx9Rj5JlWk1PuNLrkZE5ruy4ufJO2eWhy4HfceiEcTXwbKat2QpX4Olrj8a61BghXdGx4prorgo0kjLxpKDs82dcPOdrGUCnPD6WZTK504uxKSTFoXjaJQhKUZK1aMlwV2SUVdo9GL0fF8LdLjcV9S7ZucCqKMLBCzYKLTVeCZWOWOW7aHHk7KMqXGjKSIZYLySZN305jUx7MKUe0brU41yswniTOjfHySTTHxp8l0biHhGDCDvpGyx4/pXZyzrjz5b0tivpIfJPwOvpZxefTAzukzUTds3WWFxZqJQaZ1wezprNVWZ2mlbRiKDMzSwdnZ15bLjW9xL6UTlN0V4rUS/LC4qvJn6vPJuMPNJqD7+Dn8jTN/qF9NHOZ39RY68WP6lTn4VmR7sZONLjSMSkXY0m/BnJ6cpNN3hdwiW/oY+D6YovRwr5ef7qtxSUX2ukjhuTe49dKWdHcckrpfBw/nWXX/fR5uSe32P6bf3vb8SrHiX/ANEZKMfE7x4f/GjIR4n2FiJEUNBYYhiZlpBmh3SPcX9jfM0e6ecbv4Z5eq/jr2dJ/Li0D+SlfJc12V0rPiV+hxRp2hdf+yd/BHwRoAxg0BGhMnQUvACQ6tjUaQwhUIdiYARH2FFB2hgHkAokJJgAyToiOwi/HGPmXgE4WU834FHygyzUsff1dmVpKWbGa+EU2Z2mcfexu/k6cf78Xn5v2ZOoRYiuJYfew9R+ey9pIaEho6MGAAAAABAAAAAAAAhiAkAARoAAgGIAKgGABQACAYCAAAACAAAAAAAAAAAAAAAAAAAAAAAAAAAAAQQAAAAmMTKiuRyfq51sef8AdHVs5P1em9jz18TRqI8owp8kdDo1bkr6+DnMDqSOh22alKrt/H6Hr48tPD1WO8a2+XCpQTZqsuNJ9G3l9mYWaPXg9cvh8jDK456a1SaZmYdTxfn4Nbkbt0Qjlplj2Xi743qyqbsysMG/g02LJaqzcaafhMrx8nHq6rKnCos0uoi0zfuPJGu1GJJlxrHHrCtX7bouxQkpLovUE10W4YtS8HR0y5NyxuNLCSgnXkzGuimEmoJJF8XL5XRztSISha6ZpNZglGXJs30n10arVvmmXGs5anlpODZdDGWRiSrs3tMs6yMUaM1JGHFNxRmY0lFdnn5HCeciceyGVtxotsql4bM4+29MCSRAcvIrPRCL8P5kjc4q4mnwSVm2wO4kyMP3MhEJdEoyK5S7OUei2MHVJOF0avwzZ6rJDhK7NQ8iO09OWrauXky8UmujXe4ujNxu4ozk58ks1WZdIkmmrIdOA14PPYY1CT78mJlpWXzfbMDPlSR0xTHeeSEqcvJTNrnRTLLZCM0pI6PZjx1vceO0nVGJObU5KfSNjppRnFd9mJuGOpqSV3SM/V6ePtx8tWpJTXmvhfc3Em2omNiwubxOSa4uzKyyS6N4uXVZSxUxpdJlLmn8koZOSNV4LjdMyHRkRl1RRjpouVRPPnGcbpJRZj5L7VdFrlbtGPmytWhjG/FYc2ECmWSN9slCaZ3jfbe1vNPx4LvszY/Y1eCSUUbWFNIxkceinTpCyySiotE5dFWbLFQqjM9umd1tqsxiqrLss19zG5I6vPJva5JWZWO6aMOM0ZUWjnkxluVYyUfDEqCTpHJGPNNWYWSNsz5eOzDm0zti3x27UJIz9Pj8P7+DE6Nlp1cUm/DOjplkzYRdKi/i6IRtLokstKqM1rBg6nG3H9TnNRDvwdZlpxbOf1EYxl+5qN45azatxRdhhLkpV0T4Ky/Eu0ZzrpnyfprPxRSimXUqIL8qJKzha8F801F9HC5XWul9nmR3sX9zgs6rW5r6rIqOHJ6fY/pvvP8A09xwu8WH/wAcTKiYOkkpaXTSrzjRnI8L7KY0JDCmIBGVRZot1TfttfBvWaPdLaxv4s8vU/x17ek/lxaAgWS6bIs+I/QYoMiNiQbIkRslZAyKH5D5FQQTSaYLpMYECGRtoLEBYdgSRQkKqJMj5QDTGRQ6oCSAAKykkOuxJsYRNfoZ+lS5Rv7mBFUZuBXkxu/k6cX78XDn/Zk6qHgtKo0iabZ97D1H53L3U0SQkM6MGAAEAhiABiABiAYAAAAwACNAQwKEAAEMBDIoABAADAqEAAAAAAMQAAAAAAAAAAAAAAAAAAAAAEIBiAAGIAEMiyohI5T1dJx2PUnVy8HJ+r/+h5zUR5VpY48maMckuMa8m30nHFmXF+DRYrtM2ukbhLlzV/Znpwebnm+PJ0atlGZMnhnygvux54uC5Hql8Pha/W5/OpqUk1SRhSk0ZOob5ttswpl7n2OGfpjYaaVnR6PJi9t35ORwycfk6fSOLjH7DuePq8NeY2L8NpmJkk2mZEpKnTMJ5LyKJrF86S2rMfSLsUryRRjTyRi65J/sWYMl5Ejqvbd7sb7HJ8VSLOUvkrxtE7VmPLabvi6+UabVUjcdV2aLXySl0+jWMM5vTE5US5owZTdNEYTl9zdjfwtzbeYna8mVGSiavTytGcrZxzjyZfoysXN2+iubqMu+6C6+SjN4M44+SZeWuyT78lLz00LM3bKG77PRI92GE1Gxw5OUkrN3gm0lZzeF00dHpmuPaFcc8P1+GRN9qgk7DJSi2RUujETTV63wjSucuTN1rukaSXk268U9k5vkbTTSbialeTY6W0zOcXnxnY2NtosjJVTYlFcQpHGx89Cbq6NPnk7dm5mnRpNW/qo1Hp6abzYbp3SFHuS6DtIujJdJI3p9G+I6LTflXXdGVPHGUfBRpfqhFmfXRHC1QoqEekarWN9m4yXRptVKrRvBjO701zfiyyGThXymUSfY1KqLWrjuN1p3cWzIfSMPA6RlWcrHz8/Fp/BgaidJmbfVGBqvFEi8XnONY8nbssxzd/oUssgztPT6WUnb6bvSyfh+DbxdKzT6J3do2uN9UTKPFPGVWPLKUaoxMzdWZVGHqeoMzjDPdlaTNl+tlHudDzu5WjFf3N16cMJ2xn48naNpHwaPFNWjcYn0jnXm6jHWl1knK0RInPTywm407NfPIrMjPKos1UpdnTGPXwce5azoyTNlpe7NDCVM2+kyNGzlw7W3Vqiyk2Y1uyxSkkSxiZHkRotRGKkzaznxvs1GqyL4XwiyLhe7KMYvw9mE8iMrBMxnHfPG9lbOKLLKoy6HyOFePc2ti1aOB3CX9e1LSpcztnkSUmcLqG5Z8t/Mzhy+n2P6Z7ze37f3oNG/n2kbCJrdtv8AA6RP/KRskeJ9laAkSsikxEiJFRkaPdm1HE19+zds0u7dQh+rPL1X8VezpP5cWgfgrZOqRA+G/Q4oMVN9jYBsqsGmiQpfAQvkE/qJUkHEAFf2JdIgiAYC8jSYEgBDAZCkiZBsBNofmlYUmFMCVOyfVEATKid0T+CCJpFShGbp/wC0j+jRipGXg6lH9zpxfvjz837cnVKqJIjFdE0few9R+dz91NEyCRI6OZgAAAhgAhgAAAgAYCACQABGgAAAgGAAAAAAAAACAoYgAIAAAAAAAAAAAAAAAAAAAAAGIAAACAQxAMBAAEWSEyorZyXq/rY9R+6Oskcp6tdbJqv3iaiPJMFuaSNjCLTuJrcFJ/8Aozeb6p/J6sHHk9V0mm5cbb7DU/k7ZTo5ppW7sydSrxnePh5TXK5nPfJmK2zNzRak/sYrirD63HZ2wo2bzb8klGr8mjTo2ehbc12HLqZvjreZZ1Bmpy5WbOSuLkzUZqjkpx6Z1wfP6fGW0oTM7BO2u/DNYupGbgf1I7u/NjNV1uGS4pk1d3FdGLhVxXbMpRa6UmZeHym59M0W4NJm3ydRNNqofd9UaxjW/wBWLTykxRYSXb+wQV9Ftezx2trpr6rwbWPP5RqNImvD6RtoN/Ns45V8zm/kD8lGX8rMpox8idMmLnZrKVpctplBm5MTbspeJnaPo4Z46hYn9SOj08qg+uzSYcPatG/08KQycc8pc/DIirRCcZJLjEvocukjntdNJrYNJunZo5Kd0dTqMXOErNI8LOku4uOUxa/izY6RXSFDErM3FiqqM5McvLLjpkVSqwSJ8ekOqaZwteXSuVJdmk1MLyNXaN7OrbNXqMfblRca78N7a1MscrpdjxY3J9oy4wcO0+yWHrJFfqdXsvJ4um90kXjhJPu2Z67RRCHSRk1RnbkqcTR6uLnN0dDao1epj9jeDGWWnPyg7BRakZsodsljxJu2zd9L8XwuwpqKMiuiyCjS6G0jz3LTyZS22oJKrMDVpdcTZv8AJVGFmha7Eu1w/TlK07g76RPHF2ZUYtN0WRx999HfF68uXwydJG+So2eOLZi4Lg19jY9VaJk8+N3dk1RhalNqjOsqzS+npGZXa605XND62Y3Fpmzy43ydFDxd+TbphySRRC0zc4uPBfcwI4n0bLHFV4OdefnzmUTIvwNoTMPLGFqGqo1MvLNrqU6NXNKzri+j0/7Usfk22ls1Mb8m50SdSZs5pts4p0ibbogm2hydxpEeftYuZmiyylcrN1ln000aPN5NOnBP1Vhu7M7A1aMF9My8Dd2c83r5Z+huo+AFB3FDqzhXyvrVOSahGbpPo4nP/bzlXXJM67VTrHJHH6iTuS+7OHN6fb/pnqvcdukpaDRyXziRsomr2n/pmh/8SNojwPrrESIImFIAGRUGabcq4ws3LNNuii8eNydLn0eTqZ/116+l/lxc9kopL5LsqdHxH6LFCiNMk2BGkPkk+xifwA0MQyh0Ik0RFTYpIAAQJgn9wY6XmwplfmTLBUABVryNAyBIdASQCSLIkKoaDNWoysLfKP7mHEzcP5o/ub4/3R5+X9tdXEmiuHhFp9/D1H57P3UhkUSOrkBiGAAAAAAACGAAIBiAkAARoAAAAAAAIYAAAAAAgKgAYAIBgAgAAAAAAAAAAAAAAABgAEUgGIAAAKhAABAIZEsRXI5b1Yk9i1h1MjlvVcuOxaw1PY8fxr6omZyMbF01f2Mlo9WLjnNxtNBK5+TcZYxyYk0/3RzmlnKMnTas3cZNRX2OuNfL5+PWe9NRmjH6mmYVWZ2o8yZiR8m3o4/2Fw6toz9EvrX2HwvHB15MjTY/rj8G5i5c3JvDKVsMkfpr9DR575HS0pQp99Gnz4Up2lRZ7eTp85GBFf7oysHf1S6ZBY6aMzHBOSTXXydpXbkzmnRaZOUIOuqM2ESnA1xqLRkQnbaaMV5fqhOCkabWYUr+xu2jDzx5RZrGsZe9xzLx0CgZU41Jq77BUarp8S6ZGGKiujPiqSMLEZ8FaOGbyZec6dlbiW8SDMymUYWXy0UUjKzIxj0Y1rFKKN3p1UWaWCbZuMFJDL0uP7mWR8tWFiZyd7WJqb7NQ0bjUL6W2zUNqzrPTjfaVFsSrkqLMUlaM1zu9MxN8R02Jt8UyacWv1OFFXGl2YmddGZPz0zCz+H2XGNY1iPwyGF1kj+43JBh4+5E6vRPTqMP5EWsqxfl8UW2YdFMl06ZgZk+zYTTMLUSaOuDzcjXdWSVFLmuTLIs1WLLpn4/BYU430XI8uZDMTPRfLow8z+S4l9xRHpplrlzkURkvuWKSs7xcpW1xq4oyEmkY2DuJlpuu0SmJJibSfYyE2l5JGt1pMn55fuVMum1yZU6OlSLMd3Rmwm4fBh4zLRyycs/aTYnBWS8kWYYY2aNqma7JjSfRs8hhyqzrHo4srIpjhXRttJjkoProwoK2bXTSdU10bvpq57urWRjjV2WSgkiSr/0Skujntprc0Li/p7OezY2dTkkl0aPPifI6S+DDLtyaiUDLwRbJ+2ZGKCXVGMnXk5f0s3FC1RY41GQK6SCbahVHCvFJN1pNZahI5bK2pNnUa7teOzmJr+kkcOX0+5/T/2PbNmd7Von/wDpm2RpNhVbPof9Bu4nhfUWokRRIAABErSLNVuKUsKv4kbZmq3GN4l/qPP1E3x5PT038uLm5FbRbPi0VWfCr9Fj6VMaRJoE6MtouNCZO0xARGmFO30NIFNsQ2gSCIjHQGoIyCgdDRdBB0SpCaJVHgZGhmVMkRVDsiVLpjSENBlYkZGG+Uf3MdMvx5FFq78nTD90cuT9tdZDwi0qxfkRcj7/AB/tj87yfupolYhnVxAxAAwEMBDAAAAAAEMQEhDAjRDAAAAAAAAAAEMAABAMQAVAAAAAAAAAMBAMAEAAAAMAAAAKBAAAAAEAgAICLJCZUVyOU9Wq9h1f7xOqZzHqpJ7Hq1ddxNT2PHsXU4mbKq6MTFF81f2MqUZRf7nrxnhyysGK+RuIZpRx0nbNVii5PozoxZZHh5rNsfLJ92Y0ZK6LdR0zD+TpjXTjx3g32GS4qP6Gbggrs0+nnVG40j5N9nf+18/qMbO5sEvpka7MqZn3UWjAz9GY8nF7UddF2NNzRjckWwlUk76OsejKXVdNhVxjx6dGRFeLk2zE002kuzKk4pojitrsxdVFKHEyUzE1mR0JPK5amO2jkiqTojPLXKzH95eDdXHDKtvhMyLNTp5s2UbZyym3l5Zcc1/PykQ+psgl9VWTyJxMaZ7rWHqZNTSMSWR9BqpfVTswebdpnbB6+Pj3jK2UJ00bfT5LfZzEMjTSN9pXF8TdnhnPC4WNs0QbXyStJFUpxMaVi6iT4M0sp8WzbavksbpGkUZZrUV2jUaxw8+Uo5e+jJw5JSlLkkjXNSxSp1f72ZmB99kvpeXCTGtuptY+kNJMqjdFqujjY8WydUzW6mdOkbBq0avU9J/uaxdeHznGFOY8TfVMoky3BXNWdXvuMmDrdLk/ol230Xt8k/1MTC1w6MmPRnThlUpdQo02ryvwjbyfTNDqE7bN4xzvuMVzJRyO0UPsI+ei117Zpu8MukZLbRg6fxTMj25fe0cMo8d8bgnLo12qnLi0jYT6RrdRJJMYtcU3nGGptF2OUvLZiXZfjfZ2j254zXp0OlmnFJGcpW+JqtIumzZwflmcnmkNsoyytUXyddmFqLptDGFjT5ZNSSRjyydpWLLOmYj7lZ0r0cfHNRtsWT6kjYxZpMErZuIP6Tjk8nPj25LCdR+Ssizm4xVkkqaMT5JZppMxvcpnbGPTx4XTMhSZs8DbSVGmx5FfZt8E+T+PBq+mMpZkzvy0Tf5SOV+5TqqXwRTuCObe1eWCq6NFkvk7N5O6bcjQ6mXFmoYzeUR6L8T7MNSUvkycLJVzx1jWwsUmuJC7QI42PPL7ajWNxOWy/nl2dLr5KLabObmqk3dHDlnh97+nzWD2b0872TQ/6TexNF6ff/B9FXimb1HgfTWEkRRIBioYEqxBmr3NP2VT75G1aNXuUXLDGl/eOPNP0V6en/kxc7JXZQo0zYexkkvymNkxZItWvk+Flhlu+H38M5rW1BCm2XuJBfYxp02hSsTXZbXYOI1TasGy3iFDRtXQ4lkkJIujaDETpsKf2Gqu0aQmqqidMGrNSUV0BZ4Q6sWU2rcUxIscRU7MmyoKJ0OjNNoUSJJDp+QiMV2ZMEnJFKLoK6Rvjl3HPk/bXVYX9Ef2LynD+SP7F9H3+P8AZH53k/dTGJDOriAGACGAAAAAAAAAgAAGMAI0AAAAAABAAFQAAAAAAAAAAAAAAAAAAAAAAAAAAAAAAAAAAAAAAAACGIICLJCKipnM+qlex6s6aRznqfrY9aantHkGBpz6Nk/hmu0aTyRTZuJxSSrtnt4/Tx82XbSwpWZUsdK0xabHz7oyp46uhXzuTK7aTUxNa+mbvUwUkaecGmI93T5S4szTvwbvTdNGj06RuMNqmer+yPJ1U9tl5Zr9TKmzKUjWaxThJfMWjMvl5eDj3kxnN/ctxT5KmYLbsuxPs7YvfnhO11mjm5JI2Sin5NPt8nTrxZubJXgywSbtUazVu02Z1Ns12tVRaNYzyz27c7mdv9mVxJ5E1JqipJmrHtxn6WwwScpJG5j+U0embs3mO3BUjnXzuqn6kkhMs4kZLpmXlm9tPq/z8jXPzZtdSu6NW0zpg+pwX9ECfabN9orlE0uOPLpo6Db4ON/Y3fRy6tkbLi6+p2CdLosceXQlGnRyZkjV6xvg7NDKThdPydHq8bakrNBlx/DNSrLO5i/KozdM23RVHB8mTp1TomVXls7K2UbRaroUF0Tfg4XKPnaqLT4mn1T7aNyu1dms1cHORvGuvDqZzbTd3TMnTxuSsSwtyZnabCuX3Or355zWo3kI/RF0WxZZGL4q+xuCbqjO3myUy8Gn1adM3vCujW6zFcWzeNZ+1aGmSx+SxQpuy7TQhz+u6LXW5TVZWFJUzKi2yuGNPwXKNHDKvFd7VTVmn1afg3jRr9TjSkI68N1lK1NFuPsu9nv9AhjfOkq7O0eq5yyttobpo2NONL7lOmxLGuRlPv4M5VynpTO2qMfMnxbZskvp8GBqYXGroY1bPDlsi7fmrKGbDNOTg8TSqzCjA6PRhl+ldp5VJG7hXFGqwYqaNrFNJHLJ4upst8LCLrjJ0WqNIrldUlbObz4/Rp9Vdq/gxFKzK1kmpyX6UYMTvg+pxT9EZeN9o3Wl8WaHE3ySfk32kd/sacOaeY2MWDdBGS8CyNfBlxYmpyX0jns7blLs3OocU3TNHmdyZrTr083larjJoy8OV2kYFl+N3JdGM49XJjLL4b2LTiKUqFi6imLK1TZwfN7fLT65p2jncidzNxq23I0875yaRy5fT7/R49uEexempqex6Fo6GJzHpJ3sOm/Sczp4nzq+hFiJCRJEAA6AikUZcSyRoyKAzZuN45XG7ajJt7n/AN2cf2K3ty48fckzdMg0cbw436PTOq5J9WjW0w/zGJbTBX9bN5QUY+W4/wAW/nOX8mi/hELv3GD2mL/7jN7QqJ8tx/Y+c5fyaJ7Uv8xh/Cl/mM3tDofK8f2X5zl+7Ry22/7xH+FqvzM3yiFD5bD7HznJ92h/hlKuYfwx1XI3wUi/K4fY+d5Pu5/+FSp/0oltUkv7WzoeIcSfK4HzvL93Prap/wCNMT2rI5XzOh4hxHyvGfO8v3aB7ZO/zkXtmT4yHQ8Q4onynGvzvL93PfwydVzH/C8jVKdHQcR0T5Tj+x89y/dzv8MyfE0L+GZvmaOj4j4k+T4z57k+7nIbbliu5JlsduyX+c36iPibx6XCM3rOSxXjXGEUy1Cokj1YzU08WWW6AADTBgIYUAAAAAAAACAAAAJAAEaAAAAAAACGACAYA0QABUAAAAAAAAAAAAAAAAAAAAADABAMQAAAAAAAAgAIBMYmEVyOa9U97HrDpWc16n/6LrDcHkWBpZItG15SfT8GHtmhzazVww4kuTVnQz2Tc4OXDTKXE9eGUkeTl47l6R0j6a+DIaTYYNr3OGbrDxibPLtWr4qUcXYuUfN5ODm36rQZ8cEkk3dmjzx45H3aaOuy7TreNxwvldGr1mz7nSnHSTf3onfHp4MM57xabC6ZucNyRiYtl3lpNaGZvNLte59+5pnCqs6zlnbrZz8OWXqHCMWk2a3XRas6GO2arnxnjfH72UZdn1rUl7NxJOSbceLizl/bXGJNujIxxfSNs9j3KLTWlmXLYtxTbWB1R3nLj93qyxuvTJ26Tj9N2kbdIp023anFwbwm0WlnStNMl5cXjywyt9MRRd2YWrj1ZvVgk/7pTn0E543SuRZzYrOHKT04TJCXOV/LKZ4qOinte4ypvTfNLsrW06+u9NK7OnxsfvDt5J6xrV6eFtdnQ4I1iSKNNtOsfcsXGmbXDoM8E1JHLPlx+7z58XLc99l0xq6K3F0bJaPNdUiL0Wdd0jjOWb9s3puS/wBjRZ8a4TbVujWcHG6R1Ofb88l9MejXy2rV8uoHfHlx+7WPFzY+OytVjgvzNm80kXxMee1atK/aZtdPo8scUeqYy5p92pxcu/2U42ycmkjIWlmkJ6XI4O6s5/En3X4XJP7a1eeUOMpGiyq2dM9BnlB84Gt/h2qll4+26adM3OTH7ud4+XcvZWpUaoyMKp1Rlx23WOk8LTsyMW26hSVwJlyY/dLxc2XjtqEFRYkZ60OS6rol+CnfS6PNlnNrOl5Nftaxxow8/GnaN1l0eaVKMTD1W36l41xg7XlHTDkS9PnP7WjXVmXpI8ZOV+Sz+Ga2UXxwyi0/kzdLtuqU5co+Dt8SfdZxct9Y1nRTaTQna7RmR02WMfAnpZtGfixu8HLr9rEcjXamRuvwk2lZhZ9JmtKONyX3N48mLnlw8v41oZYxwibKeg1XK/abVFb0Orbi4Q6LeXH7s/B5rNdtLCZPFF8dBmik44y38PnaSUfns4Zck+5Om5PxrAlxp9mJlqSN1PR5HF9dmHl2/PKFxj9RceWfcvTc09YtRVDivqXRmQ2/WOLcsLTJYdFqVJ8sbVHecuP3T4PL+NZeBtJNrozVXwiODBmcJRljouxabNFPl2csuSfd2w4eT7KJTrox8yTg2bF6abadGHq9NqOMVCDasuPJj91vDyz+1yepdSaRRGkzO1Gj1uLJxlpsjf6KzGei3BOUlpZdd+L6O3xMfu3hxZ612srDKFq0bNUkajHptd/8efSt9GzxYtTKC/opXVo5ZZ7efPhzlv6dr5SVIolJ9lv4fVf5Ehy0udwr23bMTKT3XL4XJcv2Vz+puc7MXj2q82bTNpdQpKKxSd+OjHjp87nxeGab/Q9OPJjJ7ezDvmP7aWOD5q+2bvSx+mjVxw6nlGsUvLXg3ehw53K3jaiW8uP3cssM7Z4p0kTUU7ZkT0+bn1DoktPkjH8jdk+Jj93OcWdv7a0+qjFR8dnOzTTZ2uo005Q6ictn02orI1gmuPb6LOXD7u/Fx54X9vitavJl4Y1JBDSajjKSwz+nz0Z2HSZp8ZLG+43TRnPkx+7ryTKy6lZMFSKsr+lmbj02Z0uEkRy4MtOPBt/ojj34/d4seHkuW+2uXzpubXwanO3HI4peUdJmwZnJqOCbfx0+zQamElmk5xaaVs58llj7XS7k8x6n6R/6Dpv9czqInL+kY1sOm7u5yOpR8+vesRNEUSIGAARQIYARoBgFRHQwIFQmiQhoRoYxgRAlQUBGgomFFEQolQgbIKJAQ2jQEgAVCokA0hUMYFCESEAAAAAAAAMQwAAEAwEMAEMQKBiGAwACNAAAAAAAAAAAAAAAAAQDABAAFQAAAAAADAACgAAAABAMQAEAAAAAAACGAQgAAiDOb9TwvZdWdMzXbjooa7S5NPN0pGoPGtp3J7Vn99YnkdUdUvXCtv8AAyMv+SMHxrJlX8i4k7WvkjfdGdKoetdNOfejmD9b6ZOvwki1+hsfzuEhL0HgSv8AHzG4aVS9c6Xkq0k2hS9c4ZKoaKZd/IuC7/HzB+g8HxrpDcNKX64ioJrRSF/O/S5aB2ZUPQumXc9fNkn6H0rd/wARzDuxXTDXrnB86GQfz1h+dBMzP5G0f/zspH+RtJ3/AF7KO6JqfZiv11i/+BMF65h5egmZC9C6Xw9dlJP0NpKqOsyF7oan2Y0fW2Jy70TG/XOl/wDhSMhehdJ8a3INehtF3ermXvidmP2Y/wDPOk/+DMT9c6X40EzJfobTOv67MH6G0j//ACpjuizCfZir1zhrvRTQ36603xoZl38iaev+emD9CaX/AOZMndDtn2Ur1xp5L/kZgvW2j+dHkL16F0dU9TMX8iYPjXTHdEuMVfzzpK60cgXrjTPzomWv0LpvnWzBehcCVfjpjuh2z/KL9baZLvRTI/zxp340jL36H0//AMuYn6F0fxq5juxO1RL1xpvjSSTCPrbSvzpJFn8iab/58xr0JBeNwkXuxLiX87aHz+EmJ+ttHLxo5kv5D03CnrpgvQuD/wDmOQd2J2j+d9v+NNkIfzxo31+DmSXoPB86+YfyHi+NxmO6HbEP5403/wAGY1640bavSTQ/5Ex3/wBQmH8iY761zolyh2RL+d9utr8NkH/O23/GjyEH6Ewvr8ewXoPGl/1CRjZ2RNetdv8AH4PKJ+t9CnS0eUg/QkL/AOfmH8h4/P4+ZqZQ+HFn866NRt6TIR/nfQf/ABMpH+RMfzrmEPQmGmp61mu+Ewia9b6H/wCDlBeuNB/8LKC9DYl/+dIh/IkPnXMd0O1NeuNu+dHlBettB/8AFykF6Egv/wA8a9DY0q/HSHfDtn2S/njbvjTZRL1vt9/8rNIUvQ2CoVrZJlT9B/8A9+O5e2fZkv1ttvxp8pNetNsa6wZDDfoSfS/iIP0JP43Im07YyX62234wTB+tNt/yMpjfyJP/APmKH/Ijr/qf/wDgNw7WSvW22f5WYf8AOm1tNrFlMN+hMn/8whX+gF6C+fxw7zsx+zYL1jtTjftZSK9ZbTf5Mxgr0LkvvcFxE/Qs1+TX/vcR3Q7Iz/5z2j5hlD+c9oT/ACZjXv0LlfjXoX8h5O71yZe6HZPs2S9Z7P8AbMD9abQ/jMar+Rc/xrICfoTVfGrxjun3O2Ns/WW0cPGYH6z2ZcajmZp/5E1lq9ZAu/kjOsPD3sfm+Q7odmP2bN+s9mXhZia9XbPV3M0y9Dapu3qoCfoXV/Gqxk7p9z4eP2biPrDZXdrIhv1dsrV3M0b9CaynWpxA/QuspJarEO7/ACdmP2bzF6u2Sbp84Fy9U7Hde7M5r+R9f/n4R/yLr+v6zhLMv8p2Y/Z0i9UbI5pLNIkvVGy/GdnMS9Dbh1WbCNehtwp3lwjvOyfZ0z9T7Hf9vIX80bI7/pjlv5F3W1WXAP8Akjc0+p4GTuOyOlfqvZYyr3n/AOoiy+qNmhTeSTv7ROc/kbdHd58CGvQ+5/8AycA7jtn+HUR9TbK4KX4iiD9TbGu1nf8Ascu/Q+6fGXBIP5J3V23PAh3T7nZPs6uHqTZpQll911F0/pOF9Q6vBrdweXB+SONRM9+id0v+1wlq9I7pGneJjujUkjq/SCa2DB/rkdOkzUbHo8+h26GnzVzU2zdJHOtJIkJEiAAAIpiAAAAABDAAEAwAQwAIAAAAAAAAYgoGAAAAAAACAYAAAAAFAhiCAAGAhgAAIYgAYgAYCGAgAAJAAEaAAAAIAKgAAAYCGRQAgAYCGACGACAYAIBgVAAgCmAgCGAgAYgAAAAAAAAgAAAQAACZEkxFRBojSLKFQFdIOKLKChtVdEXEuoVDYqoKLGIIhQ+KJDAr4hxLKCgIcQ4llBQEOIcSdABXQUToKAhQUiyhUBCkFE6ACFBRZQqAhxDiTChsR4ipFlBQ2IUFE6ChtUKCidBQEKQcSdAEV0FFtCoKroOJZQUEQ4hxJjoCuhUWBQFdIOKLKFQFdD4k6GBXxDiWUFBVfEdE6ACviHEsoKCK+IqLaFQFfEOJZQUFV8ROLLqCgKuI+JOgoCtxFxLaCgK+IcUW0FBFXEaiToKAroOJZQUBXxDiW0KgK+NCosoKAgkS4kkiVAJImhDIAYDAAAAAAAKAAAAAEEMQAAwAAAAAKYAAAAAAAAAAAAAIYBQAAAAAAAAAQAAAAAAAIYAIBgAhgACAAAkAARoAIAGACAYCABgIBsMAENgAAG4GAgG4AAAbgAARNxDAQxuAAAsbhoAAhuBgKwsd0DAjYrHcJgQsdjuNGBHkFjuEgI2OydxoAKxWO40YgBjZoDIgXapCEIbQxBYh3GjAjYWO40kMiA7jSQCFY2aSGVkrGzSVITI2FjaaSAVgNmjYIVgNrowFYrGzSQEbFY7k0lYyFkh3NSGFiFY7jSYEbCxs0YdCsB3JoxkBpjZpIGRsdjuNGArAbNGAgGzQAQDuNJAIBs0YCCxs0BkQGzSQgENmkgIhY2aMBBY2ujEFgO40ACxWO40kBGwsdyJCAQ2aSGRGNmjEIBs0YCsVjui6SAjYDZpIZGx2NmjGhBZO5NJWMgOxs0YCsLGzRjIcg5DZpMZCxWNmkxCTHY2aIZGwsbNJDIpjsuzSQhWA7hICI7HcGAgLuBgIBuBgIY2AZELJsMBWBdhgIBtDAQDcAABY2GAgGwwEBQwAAAAAAEAASAAI0QDEAAAEoQxDOe1ACAmwAADYAABsACGNgABE2GBEYDCxATYdisVhY2GIBWxtdG2RsbZU2yWtSJOSFyOV1mv1ENVOKm1FMw3uepST913fyc7yvdh0HLnJY7XmHM4r+I6ri6ysgty1ld5mifGb/wCO5XcckSTOPwbxnTip/UdJp9VDNBNG8eWV5+bpOTi9xmJkrIWKzpt5tLLAhY7GzSQrI2KxtNJgRAbTSQhWKx3LpIiAE2AQxDYYyIWNmjsXIRg7hmeHTTyRfaJctNYYd2Uk91n8kFnEy1+pcrWVr9DrdPkcsONydtxRnHk29HN0ufFJayhpldhZ028mllhZFMQ7jSwCNjsbNABEbG10lZByr5Kc2eOKDk2lRzGfeMspPhSRyy5JHo4emz5rrHF1nOP3Qcv1Rwb1mpc+XuyCOu1cbazSszOZ6/8AjOWfWO+Uh2cxot4nUY50rfXJHRqSaTOkz28fNwZ8V/VFtjIDs3tx0lYWQGTaaSFYmwGzSQWRsC7NJ2OyFgNmkgFYrGzSQEbAbNJAQCxs0nYELDkNmkwsr5DTGzSdgRENmkgsiA2aTsVkbFaJtZE7CyDZrp7hjWohgXbbolzbnHld6jZ2KyFs1e56uekwrJBX3RLmuHFc7JPdbaySOR/jOofDpdySOoxzbjFv7CZ7a5emz4td01teFkbA3tw0kFiAmzSQmxWQbJclkNsXI57WbxLT53jULSMVb7l6ftqjneWR650XPlJZg6xSHyORW+Z/8uJOO+T/AL0CfGi3oeo/B1d2M57FvOK1z6TNzizQyxuMk0bnJK4cnBycf7sbGSmMgmBvbjpOx2V2Fl2aWBZCxWNkiVjswNXqvw0OdWatb1TX9Gc7yarvjwZ5Y7mLorGUQnzjGVVaLbNzJxuOk7CyFi5F2mk2wIXY7GzSaY7IWOxtNHZIgOxs0lYERjZpICNhY2iQyIhsTFZFtisbE7GQsaY2JAIBtNGFkQHcaMLCxF2aFjTIgNmkrGRGNmjGRsZqZJoxgB0gQxDKhAMAGAARoAgEA2RGIzkAAA5VohgBFAAKwGBEYQCsYAAAAAAAAAAAAmMQUhDYiCLIN0TZVPwYy9N4+3Da6f8AW88a8TDQ4MepyyjP4Vlev/53P/qMvZqepl+sDy/3P0ltw6WWe+1tP4Xp/lEJbXhqkbZsHJJWdNT7Pm/Mc25+quK1GF6fNPG32n0zP2vM8eddupOjH3XLGWplXyR22Mnq8VX12Jrfh9Lknf03dn77XdKQ7KrNRr9yeCSxw8vyzrbp8HDiy5MtY+269xISyxfho4d6zUZHNuVK+iC1uXq50Y+I9n/HcjveVjs5PS7pODSydpnTKalBNPposzebl6fPiusovsLo47Ua3U4NRmgsxtNr1k8zcJu35TL3rl0vJjh3/RvbC0Q5Gg3bXyxTjjg2m0W56Y4+HLky7Y6DkPkclotRqc2XHD3L7N9rss8WmySjVpGe9rPpssM5hfdZ/JDs4d7hlkm1N9nV6LI5afG2/gTPa8vTZ8UlyjMbAqm6i2cbm12oeadzaalSoty0nD0+XNbMXa2jVbtOEdHkcrK9py5J45ucrdk9zV6TIiXLcb4+K4c+ON+lcgmdxoXelw1/hRwqqrZ3Ogd6XFS/uoxg+h/Up+jFmWPkkrZrNfrVpoeLk+kczn1ufLNyeR19jVzfP4ejz5pvGO492H+JE1NM8+Wrm+lJmbp9zzY5q3cflCcnl1z/AKdyYy12o7MTTZ458anH5Ms6y7fPuNxuqBMkQZUc3ved84YkumrOcjFzyRgk7l0bvfoSjmwy+Gqs0CeSM1JSqSdo8mf7q/R9FNdPLj706WGzwSjzk2yGq2mMY3hk/ltGVi3fTT4rI3CRsVkxZPyzT/Y1Ji8V5+pwzndtw6tT4vymdftWpllxVL46MTJs2GWWWTnLtmy0mlx6ZPh8lx3K11fNxc3HNe2xsVoqcq8s57X7nLnLFidfFnTLPTwcXDly3WMdJzj90Cmn4aZwj1WovvLZCOszY8nJZP3Rj4v+Hr/43k+70DkM5rQbrzkoTdnQcrR0mW3i5ODLjz7cotFZzG56/Nh1XGE+qXRVp91nzbzO48SXkkdZ0fLcJlJ7dW5JVbDmvucbq90yZZVF1FGNg1+px5OTy3EnxY6T+n81x3p3li5r7mix7xhlhcn1Nf3TT5t0z5JV+VfZF+JGMei5srZ2O1U0ySkcNHcdRGcXHJX3s6TQa5amLTVTRZnKzy9JycU3Y2tiKpSaTa80cpPdNZGU05x6kLnpji4MubfbPTr7ByS8s5nHu7hgn7juZr8u4Zs9v3aX6Gfiu06Dlt9adspJ+GNHGYN2y4Wr7R02k1mPUwjKPmvBrHklcubpOTi9xnWR50KTSRze4brwn7eLtryy5Z6Z4uDLkusY6XkCfycJLX6qTtZ6H/ENXGqynL4r1f8AHc2ndWFmj0G5LNJYpyXKjO1ud4cE5p+Eb79x57wZY5zCzzWr3nUZIcIRm0peaNRosslrMDVt32Y2p1GTUSUsjXXgqw5ZYpqcfKZxuXl9vi6aTp9a82PQ2zRb06wwt9cjF0e6anPqseJ1xMne2vw8V+pe7cr5/Fw5cXUYTKOdhcppL7qjvsUrxw+/FHnyk7VfDRvM+9SqMcCV8e2yY5ar19bwZ8tw7Zt1Sl2TTOIhuWrTb5o2+l3fk1DIl+6Os5I+dydFy4Tfa6EZXGSkrJnXbxa0OiDJMiyX0scNuqrX5DF0+F58qxR/M4toyt0f9eyphtferhXlJnlynl+lmVx6XGz6YsuOz5fmasUtozdtSVnS0wr7ITGPnfO8v3jhcmOcJcckaa+Da7RqXizRxOX0y8Ir3eSlqnXlIo25XqsVeSTxk9vJJzdN3ZYyeHdJkrKYN8TH1Orhp43Lyenu8Pgzj7rqRm2KzlMm9ajm+CVEFu+dvtI5/F1XonQc9m+119is0On3eE2ozVG6u0n8G5ntwz4c+O6yx01W8tfhXbOW5K0n4tHTb0uWl/8AZySk7s453y+z0OO+nr0HTzcsON38GQmc7/FMWHTYlFXPj4KYbvmbTcYo1M9fV83PpeTLLKzHxt1Njs0mDdcU2lJNNm2Uk0mjrM5Xnz4csLqxamNmHqNQsGOWSXhGthu6l/22W5RMeHPKbkb5DsoxZOeOMvuSlPjFt/A7mOxaSNF/FoJyrG2bHSaqOphziqHc3lxZ4zdnhnDIoaNRxMQAVkDEMAEMAEAADSQERgMBIYUmIk2RAZBskyDAdjsiSSKiQ0IkWIkMQztiyAADSAQxASAAI0QAAQCGIzkoAQHKqYgAy0AExgAAASkAwAQDABDATABiAKBDEAWIYmwIMqkWsqZjL03h7cLuH/N5+v7xhxnODuEmn+hl7hf4vP8AbmPb9Jiz5JLJf3PL/c/T45Y49PjcvXarjrM9f2krFLV56Sc2zc5tohxk8cmmaHNinhyOGSlL4LrJnjvT8n7ZNwQhkzzuMJO2dHteieK5zVSZgbZrI4voyVVnUxqk13ZvCPL1nPlN4duok7ro53VbdqMmaU07Ois0mq3WGKco41yd0ay08XTXkmd7Juq9Ht/tq8sVysNywaRYG+KUl2qNZl3LVTariYcss8jd3Zy3PT6WPHz3kmWWWv8AEVW31HydroHJ6TEpO3RxUL5o7Pbv+WiMfbP9Q/jxrWbzhpRyxx2/DNbt2aOLPjk218NI6jWY3lwSj/7RxfFxlUnTT7ot8U6azl6bPC+3fOajHs4zWaj39Rkl8X0b7Jq1+AWRNW40cuvrmu+2W1jouHsueVnpu9lxc5zz/wB1OkbbcWlpcv7EtDh9rBCNUQ3Rf1TL+xrXh588+/qpfp3ONbTba8Ha7c/6pjOJXUaO12//AJbH+xMPb1f1D+LFmZX/AEcv2ODzy/pZUvDO6yXwl+zOCyvllyP/AOzGbn/TpN5ui2SXKGV/qZu6f8nl77owNipY8v8AqM/dKWjmSenPkmus1/7RxrX6ncaG1pMH34nDSXKVHcaK/wANiv4iMHp/qM3hgwtfpMmqTXIxNJtVZeWemvhGw1muhpvMXJtmiluuolNySSLdOXDeo+H24eI6Kenwe3KLhCqZxslFTkl4styanU5b5TdvzRi9oxbt7em4s8Jl3Zb263ZH/QOJv0c5sf5JnRo78b4nWTXPkYmMGdHkYOr00dRjcZHHanRZ8LlcG4p9M7aWbEnTnGytyxZPpUkzhli+l03U8nD9N4uC+u05Ov0LY5ZxpxnVL4Oszbdp8yalBGozbJxuWHJ/6Zi42Po49VwcnjJj4N11OKcVP64HVYM8c0FOPycLPHOEnGa4y+xt9ozShkWNsY5OXVdNhcO/B0uaM5Qkoum0cvk2rUxTqUZNs6pySTb8I0+q3fHik4wi5UXPTx9Nny43XHE9NooY8MYzgnKvqNXumlw48cJwSUuXaK8m7ambdKomtm5STcr7MbfQ4OPnmffnlZNlidThJNpqSZ32ObcIN/KRwMOpRr7o7zDftY7/AMJvD6uP9Rk3hXL7wv66/wDSYOmxPJkUL+TM3f8A56f24IhtavWQ/wBLM2br1YZXHpMb9sXQQ27SxjTxpnM6zD7GonBL6fg7eujkt4a/FryujWUmnk6Lmzy5rLlbGDgxueSMUu2zqMW3YIRric9t0b1mM7SKGOMa63mywzkxtji9w08cGZxj4ZdtWWUdVBJ1aLN7X9bh8LgYu3f83jJ6r0b7+k3l53i7ST6ZwGVv38yv++zvptJP9jgMrTz5aX95msnm/ps/VyMzQaWWpy039KOk/h2m9vh7So1+yJNZmdCMZ4Y6vnznNZMtSOK12kjpJqMU+HwZO1ahrNaaUUlyszN7rhiv5lRzibTjTr6l/wDxM3xXrw31HS/q813+ZSljnGNW1SOQy7Vq1OcuMW/0OuhJRxx5f4e2arUbvp8b4wTnIuT5/TZ8vHlZhjstPtuKOOHOKc6NfumDDp1BwVOXwVZN31LTWNKJrs2pyZ+DyO2jnbHv4uPqfiTLPK6PDOssJJvpo7lxjlxJTSalFWjgoP64v9Ud9i7xQ/0o3g4/1Gay48p7crummx6aeNQ8SNfgxrLmhCXhs3W+9Twmp0dficX+oWeXq4c8r0sy3506bDtmnx5IZIXyiU71/wArXzaNyjTb3T0n7SRrXt8zh5M8+p47ld+XMxRvNFtuLPByzRvv6TSQg5SX2Z3GnhGGHGl4UTOMlr3dZy5ceE7bq1qNft+KGJSh9PE0KThLydrq489PlX3izh03fYyx8w6PkvLx5d127jbMzy6XHfldWbI02zP+px/1M3J3x9Pi9RJObOT7giyTRXI1XGOI3WN6/K6NfiyywZVOEmmbPdHWtyKjB0+JZdTCD+Ty5Tdfp+G4/L493rtZS3LV0v6VhPctY1SyNGweyQv+0kRnsvKPWZpiY1wmfR3W5GjcnJtydnS7VpcUI+6p3Nmk1WiyaZqMqcWumPRanJgzwttwbJPFb5538F+Hl4ductuS1OTUN+zLjFUmdNGfKKZj5s+HEv6SSR1r5PBl8Pk327rm9JoXnk+alBIzcm1YlCXt2mTluuCDlwjZg5t2zZONRUUcrp9CZdTnnLJZGqdxlJPyjqtozzyaep/ByjpzbOn2a/Yn+9DH3G+uxl4O6+2Ruig9NPm3VHHRbfZ127qT0c6OSS6Ll5qdB44b/ts9Fopal8nahRsM21QjjuDlZnbdjUNLiS8UZ7VmpjNPLy9VnOW69SuF/pISqbaaZ1G1ap5sfF+Y9Gj3GDjrMhfs746hx+GjM8V6efGcnT9+vOm63SVaXIcspuq8Ojpd1b/AzdfKOXu/gt9ufRSXhrt9HNPT4mn/AHS3K7hL9mY+kS9jGl9kXZf7Of7M6Pm5T/u/+uJc3y8OrOn2ablgd/4jl5/mdHTbM7wz/cmPt9LrJJ088N8mTRUmWI7R8KpCAEVkxiAodgRGAwAAGIYAJDAYERE2RAQiQgFQ0MAGMRJFjJoYhnbFAAAbQAABDAAI0AAAAiMRnIAhgcq0QwAgQDERQAAEAhgAkMBAAAAUAAIAYhhQCEMQESuRcyqRnL03j7cJuP8AzeXv5MvZknnf+kxtwcZ6vKvszO2eKWZ0/g80n6n6Dkv/AOHP/wDl0jXXg0O7aF5Ye7BLlE6KiE4Wmdu3w+Tw814+SWV54ukjqtr1ay41B+UaTcNLPBqZvxCTtFemyvHkxz/wyOMtlfX5scefh757ddqpOGDJJfEbOHnkUm3Xk7bNWfTSUO04nE5cTxz4NVL7Gsrtx6CT9X3dBt2jwPDHJKPKTL9ZDDjxTjxirRotNq82DlTJ5cmXVNXbZnbpeLl+L3ZZXt216TjI7Pa+9Jjvyci1Tp9OzrtrlemSu6ZcPadff+qM+ST8o4rX6dafVTaT4zdndNGg3nCnh5v4ZvPF4ui5ezk1v2573pex7TqrbRftmP3tRx49L5MXjd14R0u0afhDn8tnPGeX0+fPHj4c9e63cI1FGFuSvSZTYlOfHzxzjXlHbXh8Ljz/AOzG/wCXnqTp/ZnZbZNS0sKfaOVzY/ZySx01T+TI02ty6ZVFHOeH2+p47z8WPY6rPNxxTfJLpnDTTU277btm0za7VamPBL92jVzjVtvwL5To+HLimXc6PZXcMv7mdukb0eX9jC2RfRm/Voz9yco6TI0k6LJ4eLlv/wCZ/wD6cWvKf3O10Vfg8NeOBxnD/b4o7XRJLS44/wD0GPh6uvv6cP8Abj9XlyZM+Rv/ABNGbtWDDmc5TVyXVGLq8E8GWcXfcm7ZXps+TBPlAj09vdwa4/s672sOOF8IJI4zK7zZXSpyfg2GXXanOlCun9jBkqk4yTi2S3bHTceeFyud9uj2NvhkOiRzOx5Kc4HTx8HbB8frf58jE/BIDbxxxe6Qlj1Ddtcu6KdBqfYzqTqKn5Og3PRy1MYuNXE5OcHGUozTT/U8/JbjX3+m+FzcEx1N6dzGUJK4SUl+gp1Tt0cZi1GbF9KbJZNVnnGubM98+zz/ACOcy8XwW4ZIZdVKUapKizbIyephRgxjKc6Om2zSzguc40zPuvdz5Y8XT9u/Olu7Znj0r4+ZPicklVI7HcsLngdK2jkKkn35vtDKXbl0Pb8O61t1Wm0OBYovjba8mHukMMMKjxSlZgQ3HUYocYxpFGSWXU3OpNFMeLmnL3ZZXW2LC1OP7ne4neKH+lHCrumdxp5KWHG144o1g5/1HeuOuY3dVrG14cRbVH+uR78xZZu6UtY/0gLa4L8VjcvhMa8u2/8A8L//AC6z4OT3jGnqYv54nXLwcpvV/iIL/wChvL08PQfzsfavp1uNNWqZ2Rx+2Rb1WN/o+jskui4L/UP5p/pye9pe/D70Ye3KP4nF+5nb2v6xjv8AwmHt1/isaMZe3u4v/wCF/wD5dhNfScFnpZ8tL+8zv34f7HAZ+82Vt/32M3D+m/u5G32XNGGTJCT8nUHn+OfCSafg3mPe5xhXFMSnV9LnnyXLCb2lvk01giu+zQ4oOeXGr8zRfnzS1E3OXlmw23QOWaGWVuKM+69PH/8Aj9NZl71Wy3TK8OljHu2qs5SMXLz5Ot3bBPLplx/uOzlPFNDJjorPhXWt7rpNPtemjjhJx5TrtmDvGDDgxYuMEpSYYd1yYcUYe3yZr9Vlz6qfuTXSJuJxY8/xt55XtlYcbTjS8tHoOH+yx/6UcJBJJSZ3elp6fE/vFGsIx/Ur4wc/vsHyws1Wj/5nF13yN5vmJuOOd+Dn8U6nGRb7den/AFdLqfZ3pp96ino3f+JEMO785Yoe123RbvSvSUvPJDc1XzeLDLDqMO77uWhamu6O7wL+hx/6UcRCFtJnc6eK9mFf4UMP3PT/AFG/pxQ1cb0+ZXX0M4WK4xSflfJ3upV6fN/oZwzh3+jLn7X+nX9GcdVstfg407+pm7NNs0OOkSv+8btI6YenzOp/n5P9kQn4LWVTNX04T24zd4/1qTb+EU7cl+Kg6tmRvD/rtfaBg4MzwzWSJwvt+j495dLjJPeLtkvFhRzUd2zdKhfxbUWxuPm3pOb7M3eFGOnVtXyOaTpWZeo1GXUSfNkMGmnmyRhFdX2Yvm+H0+HH4XBrOuq0mR/hIOXxE5jWah6jI3dpM6+ONxwcF8Ro4nNCePJJSVNNmsvUeXpJhny53X1ZWh0P4m3J0kbRbRggpdtmu2/XQ0s3HJ+SSMvU7rGUJLHHpryzM068mXUXm7cdzFo2oqc4p2ourOj2XvFmV/3kc14fR0my0o5U35kmTH3G+tl+XrM3SPLR5Ozj49OmdlubS0mQ41U6aNZe2Og/iv8At2O3TjPS46+FRnnK7frHguE/ym0y7ngjF8JWyyzTw83Bn8W6nutTukr1EiW1V+IMPJN55ynVW7o3e0adq8r8tiea9/JZx9N233pk7om9FkRytHZa6HLT5DjkuRbHLosp8PKO00VPTYq/wouy/wBnP/SzR6DcMWPEsbX5SzVbljljccTdtdl7pp5MuDP41vbfbQv8z+1nS7N1hl18nNWdLs1vHN2TH29nWfwN6kWIjFEzvHwaBiGjTJASABBQwAAQgAkACAYg7ABgArAdERgADEhgAxAWIkiRFDO2LBgIZsAAADAAIoAAACJIiZyAAAcq0AACBAABAAARQAAACGAAIYBSAYqAAGAEQAAbIg1ZYRFWXTV5Nu0+Sbk4dstwaHBglcI0Z9ConbHa8/Jce3uuioTRIZdOW2Dn0uPNFqcUzCjtWmV/0aNy0KjFwld8eo5MZqZXTFx4IY4qMekYuo0OHNTlFWbOgodiY82WN3K0H8HxN226+xm4tFixJKMUbLiPiOx0y6vlymrnWontWmnJuUO2Zen0mLTprGqTMygosxkc8ufkymrluFRRmwwywcJK0ZIqLpiZ6u41C2zT3+Q2WLDHHFKJbRInbGs+fPOauSFCaLALpy21ep0GDO7nDv7mB/Bcd3ydHQsVEuMr04dVy4Y6mVa7HosOJfTEx3tGkdrh5Nw0FE7E+a5Zbe+sTTaTHp4tQSVluXDHLCUJK00XjL2sXlyuXdb5aZbRpPiBsIYljiorwjJoKHauXNnnPOW2t1WjwaqPDLC0a+WyYH1bSOgcEFDsdMOq5uOaxzsavT7dhwVUe0PPtuDPNTnA2dDodkT5nl7u7vu2t0+3afTycoQpmxiiVDNSOOfJlnd5UgGOisKpRv4Nfn0ODL+bGm/ubRojRm4yumHLlhdyuels+N+GyC2TD8tnRUFHP4WL0/Pc2v3tXh2/DiaqBsFCkiziOi9jjnzZ539VtVSgpGq1G1YMk3OMeMmbuhcS9kOPmz4/Myc6tmhzUnNs2MNHjhjcFFUzYcQodjrl1fLnrebR/wAG0sY0ourNjptPHBjUI+EZnEKEwjGfUZ5zWWW2r1e24dVNTndr7Bp9swafJzgnZtaHRexPmOTt7e66Q4o1uq23FqMnOd3VG1oTQ7ZWMObLDLeN1Wo0+14cE1ODdo2lEqGO1c+XLku8rtrNZoMeqlGUrtFGHa8WLJHIrtG5oCXGNzqOWYdky8KJLo4LJGs2e/8AGz0CS6Zwuox8M+bu/rZzzj6H9Ny/Vm2O1YceSGVSgmy/JsuOTXCTihbKvqys6VIYzcjPUdTycXPn25OfxbNjhNSc26+DcwwqCSSMjiSo6TCR4eXqeXl/dkx5QtOzTZ9nwzfKD4tnQ0R4i4SnF1GfH+26cutk+HktG0hocUMbhx6ao2nEKMzj06Z9Zy5+8nPfwXF8zkbbTYPZxRhd0ZdBRuYOfJ1GeepldsTU6fHnxuE1cWaOWy1JuE+vhHT0LiS4SrxdVycU1jXPafaPbnCbl4ZstVpFqMThdGfQD4cM+pzyymVvmOeWyxVVlkjd4sfCCgvhF9DSoTCRnl58+T91VThyhKP3TRo/4KlFp5G7Z0VAhcIcfUZ8e+2sLRaSOlx8I2ZwAak05Z53PK5X3SESArDTa/bo6qfO+LNb/BH/AJrOpaFxMXGV7ePrOXjxmMviOWexuusjBbJOKtZTqOIcSdk+zf8AyHP93N49lV3ObZtdLosenX0xM9RHxEwcuTq+TOauSqjUazbYZ3Ka6nRvKFxLcI58XPlx5blcato1V98aMrTbPTfvO0dRxFxM/Dj15f1DlyjmdRtE3mTxVwZlaHb8umyNuaaZvOIUPhxyz63lzw7MruMLWYHnwygnVo0Edny8e3FM62iLiLgcXV58Usxc69ojLT44uTU4/KMP+F514VnXcRcBeN0nXck25rTbTNyTyOo/4ToceNQSSVFyjQ0i44SOHN1GfL7qmcLTRotXtjb5YqX6HR1YuBq4xjh58+K+HHPQaj4gbHFtVd5GrN/xHxMfCm3py6/kvrw5eW1ZrckkbTbNJl08Z835ZteJOKoswkc+XrM+TDVSQxEjo8VKh0ABAMVEqAQDFYQMQAAwENAMB0ACENgAACABgIYAAAWBkiKJHbFgAAGwAAAAABFNMBDABAIzkGIAOagAAmgAAUAhgA0AQAAAAEUAAwAQxAIBiplAAwCEIkIAoTJCY0u0QJCCo0BIAI0FEhAIY0h0BGhUTE0NG0QolQDSbRoCQBUaCiQUBGgolQUBCgomA0KwJtMKGhGhjAmjaIUSoAbKgoYBdogSoVA2AJCBshEgoqIhQ0hgRoCQUBGgJIBpdo0FEgLpNoiJhQNohRIAEAxURSoVEwBtWBZQqJo2raNPl2rHknKTl5N2QZm4uvHzZ8e7jWBo9Dj03JxXbNjQkidCRnPkudttRCiQGmCoRIKAjQUSAJtWFExlNoBROhAR4hRMVEEaGSACIJEqGBGgJABGgJCoBUFEgoCAcSdAFQoGiVAyohQ6GMCNC4kwC7RojRYRJo2iKiYmNG0aChjBtFIY6AG0R0SoYTauiVEgAXQwAgdDEiQCGAFQhgAAKhgBEBgADoESAQiREIYvAxAMAERTEAwhgIZoMBEjriyAADaAAAAAACgYhgIBgSqQDAz2iNASAdoiAwHaEAwHaEFEgHaIgMB2Q2QwGOw2iAwHYbICQDtEQGA7AgGMnaIiJiL2iNBRIB2iNBRIB2iNComA7TaNBRIB2iNB2SAdptEKJAO0RoVEwHabQSCmSGO02jQUyQDsNoUFEwHabRoVEwJ2m1dDJAXtTaIUSAdptGgomA7V2hQUyYE7TaumFFgh2m0KHRMB2m0KCiQx2m0RMkA7TaKQUSGO02hQEgLo2jQqJgO02jQUTETtNohRMB2rtXQ6JgO0V0BYA7TapoVFwh2ptXQ6JgO02hQUTGO1dq6CiwQ7U2gKiwB2m1dBTLAHabViLKCh2m0ALAodhtWMlQydhtAKJgO02gBMY7V2rAsAdptWBYIdptATLAodptBBRMB2m1dBRZQi9ptAKJ0A7U2rEWpBxJ2m1ZFotoB2m1I0i2godptWBbQqJpdq6AnQ6Gk2iFEqHQ7TaIqJ0FDtNo0FE6FQ7TaIExUXsNkA6GO02iBIKJ2iIExDtUqAYDtQgJCHaIjChjtNo0ImA7TaIEgHabKgGMvaEAwOkZAhgUIAABgABQAAADEAAAAAwACKQABUAAAAADAQAMBAMAEAAAAAAMBDCkAAEAAAAAAAAABAAAAAABQAAAAAAAAAAAAAAAAAAAQAAAIAABgIAGAAAAAgGACAYgAAGIAGAAAAABQAAAAABAAAAAABQAgCGAhgAAAAACAYgAAAAAAAAGAhgIYgABiAAAAAAAAAYhgAAIBgAgGIAABiABiAAAAAAAACAAAAEMQ0AAAaDAAGlAxDJoAAIoYhiABiABgIAGAAFAAAAAAAAAAAAAAAgCGAhgRc0pJEhNJtDAAAAoAAABDAIAAAoAAAAAAAAABgIAoAACAAAAAAAAAAbAAAAACBswAQQwAQUwEAQwAAoAAAAAAgAQAMBAAwAQDAQwABAAwAAoAAAAAAAAAIQAAAAAAAAwEAAEAAAAAAAAAAMBAFMBAAAAAAAADABAMBAAAAAMBAAwEMAAAAQAAAAAAAABAMQBTAAAQAAQAAAAAAAAAAAAAAAAAAAAAAAAAAAAAAAAAAAAAACKhiAYAAARQAAFMAAAABAMQAADEMAABAMBDAAAAAAAAEMQAADAAAAAAAKAAAAAAAAAAAAAAAAAAAAAAAAAAAAAAAEAQwEAAAAAwAQAAAAAAghgABQAAAwEAAAAEAAAAAAAAABQAAADEADAQAMAAAEAAMBAAAABAIAKhgIAGAgAYCABiAAGAgAYCABgAiKYAAAAAAAAAMQAAAAAAAAAAAAAAAAAAUAAghgICoYCABgIAGAgIuzAQwbAAIAGIZUAABFAAIBgICoYgAAGIAGAgAAAAAYgAYCAGzAAAQwAAAAIoAAAAAAAAAAABhSAYAAAAAAAAAIAGAAACGACAAAYgGAAAAAAAAAAAAABQAAAAAAAAAAAAAAAAAhiCABFOTNixtKeSMb+7KzteBhPW6T/5OP/cktVpnKlqMbf2sujbLAhZIhswACKAAQAAjW7rrXodFlzqHLiWRlsrGc7sO7T3PDOc404m6zZXixZMlXxi3RbibZAHJbN6gnuWoniUY0jrLFmjaQCAigCnJlx41c5qK/VkYZceVvhOMmvsy6RkARsdkDAplmxxklKcYv9WWoCQCALswACKAAAoAAAYgAAAAAAAAgFYFeSUYRcpSSivLKiVis5bX+qdBpesTWaZp166xOdPTUa0y9CsDR7bvmh3HrFlXOr4m5TGhYKyNkXd0NKssLNDrd/0Gik45Z215SMbTeqdq1U1CGWmx2jp7FZVy6RiazXYdFgebNOoIuhsLHyOUXq3Zbr3w/m7ZF/3h2/4HV2M5rD6n2nPOEMebts6IlgsFZW3RDJkhixyyZZqEV8smhkAc2/UuzqTj+JVp0b7FljlhCcXcZK0LDa4BDIoAAALCyLZVlyww45ZMs1CCV2y6RcOznoeo9om2lqom7jNSSknaatF7Ta6yPIhYpSSi5NpJeWxoTsFI5TWeq9r0s5Y/c5tFGL1ptc5xi3Re0domM1+j3HR66HPTZ4T+6TM1SM2KsAQyBCsTZqsu8bZhyOGXV400WQbWxWaZ7/sydfjsY1vuz21+Pxl0m25sLNRHfNnn41+I2EMkZxUotNNWn9xoX2OzGnlxYlyyZYwX6s0up9S7Rgnw/FJuxodHYrNDg9R7PnkoR1cUzcxmpJOMlKLXTQ0LgsrsqyZseNN5JqMUrbY0Miw5Gky77tOGSjPVxZdp942zU/2WqiNDbDKk/lO0TJoSAAIoEDZDtssiJWOzBza/Q4HWXVY07qrKsW6bbmk4Y9bicrqrLobOwKr6TCxoWBZW5GHl3Lb8LccusxRkvhyGkbGxGHg1ml1HeDUwn+zMmxpVgELCyaE7ArsHJfMkhoWARskiBjEAUwEMAAQAMAAigAAAAACgAABgAAAAAAAAAgAYAAAAAAAIBiAYCABgIYAAAAAAgAYgAYAAAAgAYAAUAAAAAAQCAAlRbPNvWuRx1Wlhzai4uz0ho8w9cpPV6V/odMPbnkzNu9KQ1GjxZ8urmnP7Fmq9JZYxctJq580jpNnk3tOil98aZseTXaNbqPO9n3/WaHX/AILXT6vi7PTIzUoqUXaa6PIfVPGG+JwSbaR6ftzl+B03JV9AyniVY2NhZBM5/cfUOi0U3BP3JmNK6Ox2efP1tOKv8Ebna/Uuk3GXBr2pl7KbjprNF6k/6NqTc2aD1K62TVCTzBqPREv6lqDss7/q+f8A8cjivQ1/htQdnlSeHMn44M1l7Hm/oritzznqR5V6Niv4vmr4gz1NDP2T0mmJsaIyMK4H1xmnDDooQdOczi9BuOp27WY83uv9bfUjsPXa60Dq6mayG1LW+mHmUF70ZOZr6J9Xp2m1ENTgx5oNNSXwWtnn3ovcm8T0WTxG2jvrJoeber9TOG74oKbVYkz0TQzctFppN23jR5l6zklvmG/HtRPR9u/6fpP/ABmsp+nEbJMdldmn3He9Ht6XOSnJ/CZjWxvLGefv1ti5NLSM3u2epNHr49p45i41dukAgnZIyuzAAIoAAAAAQABwet9TanFuz00Iw4J0dxjlzxwl94pmtJtO2cj6uWqnocMMHK5z7o61lckmlaTosR5Xg9Ga/PjU3NYmzVbz6e1u1r3Z1PDdc0ezSNH6g4PaNWp1xo0jxzBllhy+7Ccozj2mme4bXq/xm3abUU7lFHhKi+lH/wBHs/p1SW04FIVI35qt43BaDb9Rnup8agbJM8k9XbrLV62WmX9lhEjTnJZ8+oy5cuSTc5O5Fmkn7ep0rTf9tE6tbPHS+ltTqpw/pskDj9O17+kf/wCrA3NaTXl77bcYf6Ecr6xbWzfvM6hO4w/0I5P1o62Zf+ZGYrzzbtFm3HP+Hwxi58b7N6vR+9f5eAfotNbvfhPEep1K/k1bdpp5to/Sm74dRinlWGlJN0z07lfZBfqhmLdjA3Lc8W26Z5sitvqKPJdx33cNzyyjknJYu3wR6xum24dyxQxZZNJSKYbToNHos8MOCPWJ/U12xKPFJSrjXhUe87ZK9v0T++GJ4JKql1S5M942n/peg/8ADE1n9CNpYyCJHJTsViENDV7tuuHa9K8+VW/7sTybc971+6TyzeWawv8AuI9R3fZ8e6rCss2owKntW36HbtTDBgjaxO2bmojxmoxqSirR75ppN6TSv74ongMeb+Uz3vRu9FpP/DE1l9CMqzzn1ju2b3VocGRxUXcz0O6PIfVmCeHeMs3K+asmPsUbNsWXd8klz4Qh5kbPdPR+bR6fJnwan3VHtwZleitwhCep0s5VKXaOz3TPHS6DUzm1bg6NW3Y8g23cNRtuox58ORpWrie56XOtRp8Ob/HBM8AinmnCEFcpS6R7vt8Hj0OkhL8yxqzOX0I2Q7IIkc2iZ43uWw7rPW6vItFKUXNu0exsj2bxukeGfy/vMb/4flZRm2vcNPB5M2iyQhHzJnuzcl8nG+stw9jbseBfnzyN91HlkqUbie6bOn/DdFdq4fJ43oNE9bq8GBf405o9zjFQShHpRSSJlUjyveYbruO7arFihknUuo/FBj9F7s4PJKWFTa6gep8Ixk5qKTfloTb+LJ3DwnU6LU6LO8Opw8Jo7P0nvOb8StDk/I49FvrlYr0Ta+s5jYFKe86RR+JFvmJ9XtipPyeU7w911+66jTYlOUHOq+D1J+WVrHCLlJRSk/LMK8t/kzdkvdUsfI5zU4dRpMzxZovHliz3a+zzb1x7f4zSL+/wNQrY+kd7z5sy0WeVpwuLZ6DZ4v6bWR71o6fyezvyyZTVIsQWQTCzOlDbOC9V77kx1o9Hm4S/vyR3MpqKnL/DFs8C1Geeo1OozS7cskmbxnlKy9Htmt3TK3ihPL39UpMev2jXbXwefC4d/TOJ6tsOnjpNp0sYJXOHJsv3TTQ1u36rDkV/0blH9GkXu8jivTXqPPHVR0erzcsU+oOR6TdN2eAwcouOROmpKv3To9w0WT3dFppt25YyZTyR5hvu7blrddnwwnkUIulCBp3tu4OCnl0ebi++TVnsWn23RYMksqwpzk222ZrfVUmvsWZa+g8Ix5c+KTePJPHKL+OqZ6T6X3+eurSaj+1j8nJ+qcGDS7tOONNc4qZV6cnLHvWjafU2atliR7KmMg32U5s8NPinmm0owTObTlPVe9vSLFpdPOpy7mzzxbjrnNy/E5X9vqLM2bPvG4T4qpZclX9kX7xoI6DVvBDxHGmakZru/R2tzavBq1lm5uEkdsjzv0OqWra+Uj0KJirFiGRRIwoAACgAABgIYAAARQAAFAwAAEMAEAwAAAAEMAAAAAAAAAAAAQAAAAxAMAAAAAABDEAwAAAQwAAAAoAAAAAAhCGIIhI8x9cd6nTHp7PLvXDf4vAdMPcc62m1+pttw6DSafLz5wgk6Q9Z6x0cIyWlxznMyts2DbJbfhlLD9U422aXf/S+PT6V6jSN2nbR0/Tv0nlRtOz63dde9w10axt2elQSjCMEuoqkct6V3Oeq0UMOSNOCo6kmSud9UbpPb9FGGJ1kyml9NbJj1eN67VrnbNX60k8m44cdnoW0YvZ2zSY/tjQ9Yi56HRShwelx8fFUeeeptl/hs4a7QvhG6kenGg9S4Vn2fVK6aRMb5UendyW4bbGUpXlh1Mh6nt7JqDnPRE3DJrMR0XqX/o2oLZrMar0Pb02quR2Walgzt+ODOO9E1+E1R12pbjpdTL7Y2TL9xPTzj0fT3fK/0Z6mkeWei1W5z+7gz1NDP2k9JEWSIsw08/8AXHLholarkbf0tigtixxnG1O0zT+u+oaGZvfTXezac1/an1cDrdNPYt9x+03wclJJnqmmzx1GGGaFNNdmi9UbY9ft85xV5MXaNL6N3N3l0Wabv4sDWesWlvEJV/2Uejbc/wCoaT/xo849XZf+NKP2xRPR9D1oNJ+uNGr6iMTfNze26GeRVzl0kcZ6e2hbrPNqtbNyjGRkeuM1ZNJir4cjqvT+KGPaNM4xpzVyHrE+rN/hm2qHBaWBw3qfZFoPb1uktYnOpwR6MaffsMc206rl/ci2iT3Csf0tuMtZoIwnO8kDqTzL0S2tbmjbrgelIznPNWXwsAQzDQAAIoEMRRoNT6f0Go1X4mSfK0zexSjFRXhKkSEVkmQZNkJMsFcjz/1luq9qOgwtNt/Wbn1Hvq2zD7WKnnmeYafDm3DVuKblmySts3Im1m2bfm1+pxaeEWv8Uvse04sSw4seGLtQiomu2faobXp1Bd5ZJc5G1QvsjSb/ALitt27JPzkmqijzv05teTdNesmRXjhLnNlnqzUZM+8ZMdusSVI2mwb5t22aDhlxyU27k0WK6j1JxjsWvSXSgkjyHTpe5p3XjJH/APid1vfqjQa3bM+mwQnyyUjhMHWXFy8Rkm/2RqTwPe4/2eJ//pxOX9Yw5bP0m6ymw2retJuajjxpxlCHg3Mo45wcJxUovymc/VHhOnjrMM1mwxyJ/DSZnfxzeY5Jt6vMezezhVVhgq8UkYGu2jQ6/Dkx5MKTa/MjXcjkdn9YZ3lWLXpOD6Uz0SEo5McMkJXGStM8AzYZafPmwt3wk1Z616RyTntEE5t8WSjpn2U5r9jP/wCNlxRndYc7+2ORFeCzjeWcLX52e47QnHatEpO2saPDJyt5JNeZNnuW0f8AStA784Uay9RG0TJqytNJo8j3fdt0huOpgtRkjFSdJGND2GiPZ4Y933KUY3nz8k+z0j0lq9TqtHnlnnOVTVWNaHUswta/6nq/0xSM1mHq1/VNV/4mVXhOCfFppKrfk9y0Lk9Bo3Ly8MTwpRf5f1PddH/yOk/8SN5fRJ7rJNDv+y4d30zbqGeCuMzfI869Ub3nllyaLT5eEIfnaMxXCyWTBmlHnU8cnHlH9C/U63W6zh+I1E5qCqKNtsWxT3eUm5uGKD7kbvd/SCwYXm0M3Kl3Bmhkejtr0LS1k5qedf3PsehXfZ4Lo9bn2/Uwz4rTj00e0aDW/j9ux6uMfMH/ALozYNulKvDJ0zxLUb5vKzZX+KnGptEY73vEL/rmTsz2puPbmRZofTeqzavbFPNKTmp07N6FQbXz4PGvUmv/AB+55af0YnUT0r1Fr3oNsy5Ifnn9ETxuEJ5W7TlObX+5vFK730Vts6z67Kv0gegowtu0cNFocGnjfUVdmwSM27o1W67lDbNM884OSukjj83rl8GsOjrKdxr9v0244PZ1F8bvo5vJ6M2h3U8qYmh5tr9w1e453lzzTk3SXwj0L0vsa0UVq5zhPI11Rx2+7Dl2fKmpueCbpMr2feNTturxtScoSdOBu+Yr2i7Nbuu6Ytr0zzZIORsYyUowkvEoqRhbht+n3HB7Oe+N/Bgcfn9cJJvFoXZxOs1eq3LWe7mncpyqK+EegZvROgn+TU5EcRvOz59pzqMm5Ypflkamkd/6a2L8FBarPUs3xR19s8h2Hf8AV6HV4sM5c8OSajTPVNbnem0mfPFW44nJEvsZljPJX6x3ZUo5cYv503a/OMdtHpe5TlDbtbOC+pYnR4PbUE67s9r/ABL1uwT1NVKeFnil3H9LouP1Hvemr8Jpf/DAtpNTT+Ysq03/ACumfx7MC6NNtfozKvCNVHjn1UOqjlml/uev+npyy7LopS800eS7hX43Wf8AlkesenFw2TRJ/ZmskjdkJSircnUV22yV9nD+pt/WFT0GBXKSqcjMHJeoNWtbuuXI0+Mfpibj0hopZtc9S1eLEc7t+hy6/VY8GO+LklOfmrPY9BoMO3aWGmxLpfJqozPLOE9X7rHhHQ4Zr75TstZqY6PSajPL+5F0ePYYvdNwbyyd5J9skV1no/bEoPXZsa+0DWes6e646u+B6Rhw4dPgxYcThGEVSVnm/rBqe5QafjGWexsvQkm8uvX6RPRoPo859C0suuZ6LFmcvZFyJEUSOagAAKAAAAYhgAABFAAAUDEADAAAAAAABDAAAAoAAAAAAgAAAAAAAQxAMAAAEMAEAAAwAAoAAAAAAAAEEMAABCGASoM8v9bU9dgR6i0ea+scfPW4urdG8fbF9O02yv4fpP8AxoyM+L3cU4N1aK9sp7fpUvKxozaLseWYtdn0G+LDllUFKlSo9MxvnjjO7tHCer9DGGXDqsfUrqR0fp7VfiNvx3JtxNMuN9ZYOGvhl+8DvNn1ENTtumyQd/SkzG33aIbro5Y/GWPcGcFt+5bh6enPTTx8och7mh6wcz6qzrDtUoc6lldIwP500ij/AMvNzo0+aGt9R6nBlrhjuhIu229F4FHR58nF25m29SxvZtSzb7foYaDSx0+Nukaz1Kn/AAfUxQ3vJfo1HoavwGc63V9aTU/+NnI+h1Wl1Ua+TsdUv6tqP1xsZfuHm/onvcs/OLvgeoI8y9HrJDdZN+PaZ6giZ3yT0VCaJ0Jowrzj13yX4E6T03f8E0iZovXMLhpqN/6Zaez4Eb/tT6ty43GUX4kqZ5Buel1Ox72s2O1G+cT2KjnvUW1vX6Gco/2uJOSEHmu8ayO4a+GoiqftRtHreg/5DSWv+2jxHFjcs8YSk1/SJHuWh60enj9oUav0SOD9dY2suhynVenc/v7Vir4Lt42mG66R4X1NdxZwGg12s9O6jJDLCUk/ge5oerGj9RZ1ptp1Fv8AOuJrV6021rvDM5rWa3Xeps+PFihwxRZJBtPROFueozHoiNXs+3Q23R48CrlX1s2yM5XdqyGADMNAAAikAxFRp8u+aDDq/wALOf1m2TTVpnD6z01qs2vyZoTjxlOztoQ4QhG/EUi+EDNFvu8Y9o0ym1ynPqKN60cF6z0Go1L0k8MOdJo1B51rNTqNbqJajNNPJNnpfp7S7To8EMq1GN55w7k5Hn89s10ZU8Dbr4KntmsVf1Sdm/H3R7WtXpP/AJWJ/wD9RbCcMveOanX2PEI6DWxbf4TIqf3PQvSmnzw92eTnFVSizNFO5+ktTrNdl1WLPBczWT9D69tuOsxHpvEOA3R5BuPpTX7dpMmqnlhNQVtI5vHcp4kv70ke3b3hnm2rWYYK5OHR5TpNt1y1WnUtO0lkjbNTIrt9j2DLt+qeolNcZQujqZajBiyQxTyKM5flTLoxfCF/EEcV6t2/V6jNgz4ItxhGnTJ7o7fi2ijU6jDo8M82acYqKPFvx+7YJOD1eeMYleTUbjrUlOeXIr+WXtFGfL7+q1GaPieRtHrfpfSZNLtWLm3c3Zx2yel9XqcsMuqioYj1KOOMIQhBVGKpIZfYH/ukYuonFYM/1x/s38mq9Rx1UtvcNNfNyPLJfj4wcMjzK35uyQa18lyu/LPctmlCW06CpLrEjxj8LqW79mdfcvjLcsSUITzwXwr6LfJt7so+GVS02nnNyngxyf6xNL6ZWpjtiWdy5c3XI6IwrH/C6X/42L/9qLMePHiTUIRivslRbQmQQZi6xqGk1Dc4q4Ps0Xqx6qOhg8E5L6u6PNZz3LMnCebUOD+LNRNtTKb5S5RtXdo920E4z0GkcJxa9tfJ4ktLq22vw8+jIwx3WFY8LzwRq6o9wpo8I1nJa3VOdqfuSs9h2F6j+G4nqG+ZyXqX01m9963Rq4S/PEkuqN96WeGe0Y/acXK/ro6OPV34rs8R02r1u3ZJexnnhbMvUepN5zx9qes+mq6iLBgblwe46/2+8bzSo9R9Iqa2aF+HN8Dzratl12vzY+EGoc+5s9l0Ojx6LSYtNj7jBeRaIy0Gim256XG2/wBCS0Gh/wDi4/8AYzaHRja6U48MMSaxxUV9kSq3RNmLrc702lz5UrlGDcUB5p6y3BZ9dh0sJXDCin0ntj1OveSf5MSs0GZZsmfLOUHzllcmer+mtvWj27l4nmfNmrdRn3W+8tjJUFEaUQnDJahNNryEk18Hk265t027cs+SGScIOVpjx+qt8ces8DWkdb6wnhhtHDLJc5TXE8rj2o15tGw1us1mt5T1GV5GpG82D05m1eZZ8v04EkzXoekaFT/BaXn59tGVBrInwadP4ZJRSiopdKNI8e1us3PbdfqeGaeN87RgevST+xyXrOeKO1QhKubyLijmYerd8ml9eNKu3Rodw3PVa7J7mpy868IsNsfCm5wpduSS/dnumDEnosOKatPAlI8x9ObDqdbqIZ8qcMUJKR61QypHPfyxsnzpBP0psfJS/DM6SgoztWFDSxxaSenxRqHBpRPB8sJwy5Mb7lB01R9CNU7PLvVuz5dNneuwq8U39RrGpXb7Lm/EbTpJ+WoUzL1OZafTajM+lDG3Z5JtO+63blP2JpxfmMy7c/Ue57lgWHLCMMfzxGjbRZOWpzSlVyyZW6/WR7XtuF4Nu0eJqnHGecem9pz63W487jWHDKz1bI/pm18RdC0jlvUW949DhlpsfeaaPONLotTuOpeLCpSySduTDXzlLXar3Hc1MjptdqNDknPBl4tosTfl67tWz4dswRhjjeRpc5m0SaPH4eqN4Vy/EWZuD1XutwUpRkrtk1V273fsOTUbTqcWONykjyp7duOK+OmzLj8xPZ9LkebBiytU5xtoyOJNmniHt7sqv8QkjEn78l/S80//AL+T3lxj/hj/ALHmvrHTwetwSUUui7NOX0WXUwk44I5G0v7h7DsTzvbMH4hNZDjfRSwy1Opah3wPSIqkSkTRMSGc6oAACgAGAhgBFAAAUAAAAAMAAAAAAQDAAAAAAAAAAAAAAAAAAAAEMAEMAAAAAEAxAMAEFMBAE2YCGAAAAAAIAAACEzGyaPTZpqeTFGTX3MoRUsQjCMYqMUkkOiQgijNgx5oOGSClF/DFh0+HBHjixqC+yMgZdppXxMXNotNnT93DCT/VGcKhs01MNl22DuGkhFmdj0+HGqx44xX6GQA2qPEry4ceWLjONouAbFGLBiwqseOMU/si1wUk0/DJANjFw6LS6eXLDhjB18GUkMCbAAAFYmo0Wm1SSzY1ItxYMWCChigoxXwi4BuojRFosAuxrJ7Vt85+49Lj5/ejPjBJJL4J0FDYjRianQaTVJLNhUjOChs00S9O7Pd/hUbDBo9Lpo8cOnhD9kZlDGzRJDAZF0AACKAAAAQwAVAMCojRBxT8qywRdorcU/7sf9hcV9l/sWA0FV8Y/wCCP+wJfoidBRURoKJUMbFbjfkj7UP8KLQGxXQ3BP4JgBhZNFo8kryabHL/ANBDRaPGqhpccV+iMygouxFIdE6GkTYplBPykxLHBKvbhX7FtANir28f+VD/AGD2oPzjh/sWkhsRUVXiiVBQyKBNDAgrlCMotSipJ/DKvZxLxhh/sjJFRdooWPHVLHCv2F7WN+ccf9i+gouxUoJdJIdOi2hUNjX5tt0Go/ttLjl/6IQ2fa4O1o8ZtKChsUwxwxx4wgoq/gtSHRIlqkMAIoKpQUupRTRaIIxFo9IrrTY1f6F6jXRYBdiNBRICDGz6XT6iPHNhhNfqjTZfTWzZX9WjSOiFRZRpdNsW16Wni0qNooJKopJfZF1BRdiqijPo9LqYuOfBCa/VGZQUNo5bJ6S2TI79maX2TMnT+nNn09cdKpf6jfUOhsVxgoxUYxSivCRNIkMmxGgokAEKKsmOOSLjKKcflMyBDY5XUelNs1M3JwcE/iIYPSW04XdTn+kjqaCi7GNi0+LBBQxQUIr4RNwsuoKGxosvp7ac2R5J6dc2UP0xsv8A8U6OhDY5z+WNl/8AjE4+m9og7jgOgCi7FePFHHGMYqklSJkgomxCjV6/ZtJuHH34u0bihjY02h2jR6CUngTtm2SJUSJsAAMikMAAAACKAAAAAAKAAAAYgAYCGACGIAAAAYCGAAAAAAAAAAAAAgGAAAAAAAAAAAhgAAACAAABiABgIAGAgAAAQQwEBUAhgEACGAAABQAAAAAAAhgEAAMKAACKBABUAAAAAAAAAAAAADAAIoAAAAAAAAAAABAAABUAhiCAAEUAAFgABYgGAhgOgAAAYAQAAAUAAAMAAigAAAEMCgEMAEADCEAwAQwAigAAAAAAAAAEAwCAQwCkAwKhAMAEAwAQDABAMAEAxAADEAAMAEKiQgEAwAQDAAAAABiGAAAEUAAAAAAAAAFAAMBAABAAAFMBDAAAAABAAxAAAMAAAAAAAAAEAAAAAAMQwAAAAEMQDAAABDEAAAwEAAAAABAIYigEFkJTUauSQYtTAq5x/wAcf9ySkn4aZdG0xkRkDAQBTAAAAAQDAAABiAKYCAGwAAAAArCbMBFWbNHDinkl4irYNrgNVod30evclglbRtBoMZEYUwEADAQAMAEAwEAAAAEIAItlDsVkLNbqN327TuSyalJxdNF0m21sDQr1DtF1+KRssOow5+8OVTVX0XQywIcirJmxY03kyRil9xoX2Fmin6i2mGThLUpGVp9127U0sOrhJvwi6NtpYWQTryVZc+HEryZFBfdk0Mmws163DQtX+Lxf7gtw0DdLW4b+3IaGxGYUdbpH41OP/cylK6a7RmxVgABFMBDCgAAgAAAoAAAAAAgAAAAAAAAAKAAAgAAAAAAAAAAAAAAAAAAAAAAAAAAAAAAAAAAAAAAAAAAKEAAEADABDAAAAAigAAAAAAAAAAAAKBiAAAYgAAABiAYCAYAAAAAAAAAAAAAAAIYgAAAIAAAoGIYAAhgAgABgAAAhiAAAAAAAIAGAUhDEVmoM869Wbpq8GrwYsM6VWeiyPK/WU1/FMEPsjph7jnWVg0HqLWYMeZaioSQSh6n2+PPk8kUdroJN6DS/rjiZqppxfhrtGu7/AAna5rYPUD16WHNGsx1iZ45Dlg9SuOOVXnZ69HquyZSNRfYWa/Va7BpUnlmopko63TvB77ypQoxoZ1jOfj6g2+WVQWVdujeKakk14Y0bTsLNfqdfo9N3lzxiax+ptr5Uso7R0dhZrtJuWk1i/oM0ZV8WZ1jQmFmLn1OLT43kyy4xXyR02rw6rF7uKacPuO02zBmi1XqHatLLhk1Fv54qy/R7voNbSwZrk/gdtNtqMhYWTQlYWYWq1um0ivPlUTUr1Rs7nwWZuRe2/ZNz7uibMDcn/wAO1v8A4ZE8Or0+dXiyxl91ZTuTvbtd/wCGRdDhvRb/AK1mPSbPMfRMoLW5lyV8Du9Xu2g0Ve/nii2eSem0smafBvO26hr29RG34s2qbozY1FgCGZaAAMBAAAAAJgMRz2q9Q6bTatadxZvIzU4xkn01ZdMptkJPpu+krYNmi9Qa9aHbMs7dz+hGpBynqL1Nkc3ptHkqPyzjcWHW6vNFRjkzTyeW3ZRGEsmSMU25SlxR7Nsm24du0mKMEnkcE5SOm+2M+3mb9NbpCDf4ScrIbbr9w2vVxxqeSCc1Fxme0Ju32YOs0Gk1vF5sSbi7TJ337LpLLnjg0ktRkf0whyZ5DuO+arX6h5HkksV1xR6N6m5Q2HOoHkOBwWXFzlUFJNsuJW50vp7d9bB58OKovxyKp7Zu225HOeDJDg/zpnr2ly4sulwTwSUsbgqaMlvnGpxUl9mrQ3djW7NqM+o23T5c352c363z5oYdHihOozZ2vSXSSX2Rw3rdXg0JJ7HAwWozZY48cskpPpJNmxWz71Bv+rZuvlGZ6Wd7zpz17nJN9m7nZ9CenjUNu3xZY1i1C+9nsegjOOkwxnfJRLFJsuic87tUxiGclAxAFMBDIoAAAAAAoAAAAAAAAAAABgIAGAgAAgAAAAAAAAAKAAAAAAAAAABiABgIAAAAAAACAAAAAAAAAAAAAAAAAAAAAAAAGIYUgAAgAAAAAYUgAAAAAIAAAoGIAGAAAAAAACABgAAAAAAIYAIYAAAAAAAAAIAAYAIAAAAAAAAAAAAAAQAJlYquXZ5Z6wUlvEHGusZ6mzyj1h3utc/MDpj7jFdhtu8aCWh0ynqYRksaFr/UW3aPE3HOpzaaSSNNo/SOjy6XBlllnFzgmPVejcc8aji1UjXga/05t2bXa6W4TVQU3I9KR5ftms1Wya78HqZ1i5HpePNjywU8cri/DFI5L1tJLQ4aVy5mh0C1+8+3pFUMGOJtPXFrDpKnSbN56UwwxbNhlFdybtsesRRD0loMTxThOfNHSuDjgcV5UKRcBndHDYvTObUznk1ud8W7pGwn6W2uWPhU0brVa/R6NXqM6gajJ6m2qMv7W0a3Tw4bV6fUenNyx+1NuL7PVdPqPfwY8n+JWeXepd20m46jBLT21GLTPRdov+G6W1/dLZ4lGt9WZOGzTl880jhtq1G558P4HAnTmdp6vtbK/wDyoxvRmHHHQ5J+ZyLPGG0sX4PSGhpPUOUshyu7bfl2DV4s2CbcPhs9WRxvriEXtuB/KyEmV2unSbXqvxWiw5vuizcdZHRaPLqJNfQurNF6Td7NjvzyMD1nmmtHgwrxJ9ks/UfRz+mwa/1Dr5z51C+zr/5Q2vhxudi9IYIQ2pZUqlM6oW3fimo4TSbJrdq3PE8MueBvs6zc03tuuUX28MjOaswdy/6drUn5xSIaeO7bn1WHOvwivNK4tI7jTeko528muzTc5I1fozBCevy5JQXSpHpRbbKkjy3fPTeXbFDU6XI5QUjtfTO5z3DRSWWVzxFnqDGp7RrF9oNmh9ELhDWd+VEXeWN2v1egIkQi7JHKtQwACNAAAAEwAI4nX+nM2fXyz4prhJpuzrsOJYsUMf8AhSRcI3tEJHA+uclYdDi/VyO/keceu4TvbszVxSnAs9wcts8Hl3PQR+PcPaq7/bo8a2Co7ppLl4mey/LN5pEgGIwrD1+kWt0WfSvrnE8Q1ugzaDUZNPmjVeH90e8s1uv2vQ6+L/EYVKfxIsuh5VtO+6va3BQqWL7M7/Qeptv1igpy9vLL4OW3b0lq8HPNpGsmNf3DkI3DJ1cZJ9/ozc1Ue9fBwnraL9nQu/75s/Su45tbosmPNJOWKdI1nrrvHoCfUjjtr12XbtTHPCKlT8HYw9bzc1/U1Ryuy6LHuGvhgnOotHdr0ZtP+PMW2E2t271Xh1+shp1p3Fs7SJzOg9NaDRZ4Z8UpuSOmOWVipgIZhQAAFAxDAAACKAAAoAAAAAAAAAAGIAGIAAAAAgAAAAAAQDEMKQAAAAAAAAAAAAAAAEAAAUDEAAAAEAAAAAAAAAAAAAAAAAAAAAAAAAAAAAAAAAUAAAAAAAAAAAAAAxDABAAAAAADEMAAQAAAAQwEMKAEMBAMAEAAAwEAAAAEAAAAAAAAAAIRIRUquSPKPV6rd8TX2SPWGrPJ/V8mt2xUzpj7Yr0XRp/g9Kv/ANKJk0aLQ75tv4TDGWapKKVNls9/22EXJZeVBHJ+uYwU9IdT6cye7tWF/wB2umcJqcmr9Q7pHgp+3dJHp+j0sdHpseCHiKLTbjfXKvBo/wDWdH6bg47Ho0znvXF+zpUkdF6bv+DaVv7C39MG7MPX6laTR587/uRM01G9aaeq23U4oK5OJBwG1aDPv2sy5s+X6I+Tso+nduhClis5j0ruODQTnp9U+E5zOz1G76DTxc55omt1JHnfqvatJoM2n/DQ48z0XZp8ts0v7HmO97tk3PWQyvFJYF0j07Z2pbbp0l8Fv7YrVerlezOvjNEp9Gx/4ZN/eRlerFWy5f8AyIo9Gf8ATsvXyN/os/ya8utRxvrb/pun/wDKdpRyXrCv4ZC/iZiXzFvo/Sf/AEfGjX+tY1pNNP4UjZek43s8H+rM/fdB+O23NiSuaVxNW+U+jB9JZFk2fHXwzpzy307ur2nNLS6u1A9Djuu3NWtTGqJfas4wtxS/Aav/AMUjVw9QYNRq4YcCtOVNm419LQa2/CwyIOA9FTvV6mJ6Qec+iYNZ9RI9IouXtI1O9Rctq1q+8Dl/RKuWtTu6idfufe3axf8A6bo5H0PSlrfvUSy/pyPrHoEFSJgByrRgAEaAAAAIBMIqlmxQnxc4qX2JnnG6YdzybtllBZXFSXA9DwKSw4VP83BWbRNnIesdHPUbZCUIW8MnI7EpyQU4yhJXGSpiDwLDlcM2LNGVcJKR7RtW44ty0mPJjmnNKpRPPd79N6nbsvPSwllwSNDotbqtDllPBneOT8o6eMonp7m7Rj59RiwU8uRRt0jzF+rd0UGnkia/FqNz3PXYVznNtjtNvYJ58WPHHJOaUZeLJLuKku0/scv6nwamW04uEW5QSujh9DvW56LDBY87aXmMySG3sCR456khp4b1n9iuLSsy8vqvds+NrnGETR4dNqtdnjHHCWTJN9ssmh1/omGR5tTNx+hRL/XMV7O3yOn2TbP4booY3/aNXM571vBvTaKXxCdsm91Y530mk94w2j1yu/B4Xp9Zm0eaOXBJRn5s3kPVu8RfWWBbEleuRdFyPJYes9xk6bgel7bqJarQ4M0vzSXZzsVsgEMwoAACgYhgAABFAxDBCGAgoAACAAAKAAAAAAAAACAAAAAAAAAAAAAAAAAAAAoAAAAAAgAAAAAAAAAAABBDAQAMBDCgAAAAAAAAAAAAKAAAAAAIAAAAAAAAAAAAAAYgCmAgAYgAAAAAAAAAAAIAAAAAABgIApgIAAAAAAACAAAAAAAAAAAYgCgQxBKRo9dsWk12RTyxRvANSsWOUXpXb14Jw9L7endHT0Be5NRh6XSYNLDjhgo9UZVEqAbGr3Da8W4JLI+kZel02PS4IYYflijKAmzSNCcbTJgNjmtd6d0esmpO4yMXB6T0cJwlPJKdPwzrmhJGtmml1+zaXWaeGDgoRj4pGdo9NDS6fHghdRRm0FE7jTX67RY9dgeDJ+RtMW37bi0GF48TdGyoBtdIpGt3Lbse4YVim6Vm0CibGu0OihosCww/KjMotEXY5/c9g0e4vnNuE/vFGpxejcEPOqkdtQUO5NNNodl0mi7hFcjP1GBZ8OXE7qcXFmUFDY0G2bLi27K5Y5ydo31DAbGPqNOs+DJibpSVGt2rZsO2ObxybczdUMbUAAzKgAAAAAAQDACDStOiQxAITiTEXYqcbVNWjS6vYNs1cnLJgSf3SRvqFRdo5iHpfa8apY7/AHSN5g02nwRSxYYRpVaRlUFF2ingn01ZqtXsO36tPniSf3SRu6ChsctH0ntaabTNzpdDptJ/Y4orqro2FBxGyK+BRqNNh1EHDLjUkZdBQ2rTfwLart6ZA9i2mTi3pY2jc0CQ2NR/BNs+NJC/vSNrixQxQjCEUkiZIloYABloAMQAMQAMQwAAACKAGIKAAAgAAAAAAAAAAAAAAAAAAAAAAAAAAAAAAAAAAAAAAAAAAAAAAAQxFAAAEAAAAMQAMAAigAAAAAAAAAAAAAAAAAAAAAAAAAAAAAAAAAAAAAAApiGIAAAAAAAAAAIAAAAAAKAAYCAYgAAAIAAAAAAAAAAAAAAQxFQAAAAAAQgGACGAAAhgAgGANEAwAAAAoAACAQwABDABAMAEAwAAAAoAAAAAAgAAAAAAoAAAAAAAQxBAAAEAhgAhgAAIYAIKGAAAwCgAAKBiGAhiABgIYAAARQAAAAAAAAAAAAAAAAAAAAAAAAAFQAAAAABFAAAAAAAAAAAAAAAAAAAAAAAAIYioAAAAAABiAAABWLkgm0gEMLswEADEAAAAADAAAAEMAAAIoAAAAAAAAAAAAAAAAAAAAABAAABUMAAigAAAGIAoAAAAAAAAAIAAAAAAAAAABABUAAAAAAAAAAAAAAAAAAAAAAAAAAAAAAAAAQAAAAAAAAAADEAUwEAAAAAAAAAAAAAAEAAAAAAAAAAAAAAAAAAIAGAgAYCGAAABQMQAMBAAxDEADEMAAAIAAAKAAAAAAAAAAAAAAAAAAAAAAAAAAAAACgAAIAAAAAAAAACgAAIBDABAMCoQDEAAAggE3QMx8+ThjlL7IrNrA12448CjHkuTukYO37l7+o4M5fXalSzSad2zL2qTlqMfgm3GZ7yehIZVFk0yu20gEMi7MBDCgAAAAACgAAAAAAAAAAYgAYAIBiAAGAhgAABFAAIAABlQhgBFAAAAAAAAAAAAAAAAAAAAAAAAAAAAAAIAAqGAhgIAAAABBDAAAAAAAAAKAAAAAAIBAADAAAAAAoAAAAAAgAAAAAAoAAAAAAAAAAAAAAAAgAAAAAAoAAAQwAIAAAEAxAMAAKAAAAAAAAAAAAAAYhgAAIBgIYAAAAAIAGAARQAAAAICoYCABgIZFAAAAAAAAAAAAAAAAAAAAAAAAIYglAABQhEhBmoswNa6wZLVri+jPZhaiPPHJfoysZenlmaTlPlx6+EbXZ7esxpN9eUazJgnjk4zTi03VnT+nIWs2Rxp3VmHm4/3OygWWUxJm49SblSNdLccUc3tXUjKyS4wkzhM2XjqZSVt8ndhLdPQceRTSaLDWbbklPTY26NkGoYABFMBAFMBAAwEADAQAMBDAAAAAAEAwEADAQWBIQrAGzAACgAAAAAAAAAGAARQAAVAAARQAAAAAAAAAAIYioAGACAAAAAAgAAAAAAAAAKAAAAAAIAAAAAAAAAAAAAoAAAAAAgAAAAAAoAAAAAAAAAAAAAAAAAAAAAAAAAAAAAAAAAAAAAAAAAAAAAAgAAAAAApgIAGAgAAAAAAAAAAAYABFAAACGICoAAAAYARQAAAAAAAhgAAABAAAAhiGFAAAAIAKlACAIAAiyoi2Y+TpNlzNFu+tjgjwXcpItYy9OK17U9TNyba5XE6LYMy4zgjT4Nv1moXOME0S0TnpNTPrhJPs5uGM1dvQkx2a7Drcc4Jua5fKJz1uCEG5TSNO21+bIoQlJq1R5/ml7upk8f+LwjabrurkpY8XTRz2mk8mWMuVdkrFyelbfHjpcSrujYowtN1igv0RlpljrExkLHZVSFZFsxNRn9qHIG2ZY0c/pt09zM8coNfZm9UgbWAQsdgSAjY7AYCCwpgRbIOSQ0LAtFXIjLIo+WNJtc2FmqnuGJNxsy8eZTjfwDbJsLKeRi59XjwxlKUvATbPcor5BST+Tjs26Zc2NvFGa78l+27rOeWOLI+6JuG461MdmPHJFq7Jc0GtrwMd5oJ02rIvU40vIXbKAwHrsSdX2ZeOamrAsABhQAARQAgKhgAAAAAAAAAAAAAhiAAAAgAAAAAAAAAAAAAAAAAAAKAAAAAAAAACAAAKAAAAAAAAACEMAAAAAoAAABiGAAIAAAAAAACAAAAAACgAAAAAAAAAAAAAAACAAAAAACgAAAAAAAAAAAAAAAAAAAAAAAAAAAAAAAAAGIYAACAYCGAAAEUAAAAABUAAACAYgAAEAEJTjGrZJnJbnrnh1E7dKJYxa6xNMDX6DULPgjOL6Zn2E2YmyLkYOq1uLBBuUlZS3Seq1Cw45OzlMUf4lqJtwfCJHV6zJrajBOv0+Tpdu0jxYU5Vya7M1j9zJx4Y44RhFUkjB1ugw5u/bVm3oKJprtjhsu36qM5JW+ujFlt+snCONqn8WegOKbIygn8DTF4/wDLiI7TqVhubjyNThx/1t42qcZHomoi3iml5o4CEV+LlK237hGLjJY9C0zrFBfoZaZgYZJYofsZMZqS6ZqO89MkCCYNlUSZz+8Z+GNpPs3k2cPv+ZvLjjFW0GM7qKduz+7OMl01I72D6VHn+z45zzpXXd0d7G0kRML4ZFkJZYwVydEXKjmt41y4PGqXfkrVy06iGWE1cXaG5pdt0jm9l1SyQcL/ACxMjc9YsOCXatxGzumm1hrMWSbjCVmRyOB2vVw9/HKT6b7s7VZocU7RNmOW2RKVGg1uvjDPxUu0i/V6+MYriaL+HT1fJyb7d2O5Lb9G60u56fLDvIazX7mr445Chss1H6HRr82zZ06TfnszcmL3tY9XlU+Un2bPTbplUHDm6RmYvT6kl7qcjF3bQ4NNODxfQ2jPdWdZxs8G8QjCTcraX70zR5tRLV5bc2uzDw4s2WLcIdJdsr4ZYNvg015J3G8nY1pNNpINzVcezm4ZIrUTyYpNdujK0+gzayD5dfY3MNhwcUpdqkZ3W5uq8W5zliXi0iH43PkbTv8A/pNtg2fTQjTiZ2PR4oJJRNy1105+L1GaTpSsuhotRJJzfdnQQxRj4Reoo1Nq0WHaksnOXbu0/sb3HDhFImkM0oGIAoAAAYCABgAAIYgAYAAAAAACGACAAAAAAgAQAMBDAAAAAAAAABAMAAAAAAAEMAAAAAAAoAAAAAAgAAAAAAAAAAGIApiAAAAAIAAAAAAKAAAAAAIAAAAAAAAAAAAAAAAAAACgAAIAAAAAAAAACgAAAAAAAAAAAAAAAABiAAAAAAAAAAABiAAAAABgIYCAYAIAAAEMQSos4LfHw13Z3zNPuG3Q1UXcU2Vzy3rw1ey6vEsTjdKzdZNZih5kcXLQajRzXFt9k5afU57qU06M7Yly16bbV7w/qjjfS+TVrNn1s3CrXyzKw7HmaxuTSXydNh0eLFXGC8UNklvthbfteLTq6bkbxLoiuiZZHSTQBoYFVW0RaLGRAws18Jfseb6xKOpk8b75dnpmVKmeb7ljhHUZOK7bM1xzZWLcc0qwc3VHQ7Us9/XfBuzRbNoYPI8k422dpjgoRpElax2ln1Cwwts1mHdfe1CxGq33PNOEITK9pwZMmbm7Sia2nde7UdjfRxW+JY8ydeU2dhKcYruVI4rftT704Qxwu7tk2Z+mR6bx3nnkbOuc1E860eoy6KPKKaizbT3jNkxx4JklSXUbTXbnwtY2mcXnz5suTlkXV0b3S7dk1c3kcmlNG1WwaZpebRe5m45ZuWwanJhcXCVLwyeSWXWZPN/CR0ctgwpVHkZml2bT6fi4wM6p8OuWW2ZlKE2pfS7X7mTjyaiT48Jp/qdy8UZVaF7GO74qxqukw05zbtFldPLbuR0qxRj4Q440vBYWRuRCqIuEWWFdr7l0DpI4n1CpPKkn2ztZOKTbOS1sXrdZFU+EZrv7ommcm02rT446bFPh9clZmz0OLI/qimZeLHGEYpKklRfSExXtinHghjilGKRcopE0h0O1qQqGMKLpoDEkSKEMACgYAAgGIAAAAAAAAAAIAAAoAAAAAAABAEMBAAxAAAMBAMBAAwEADAQAMBDAAEAAMQAMBAAwEADAAAAEADEAAMAAAAAAAAAAAAAAAAAAAABAAwEMAAAAAAAAAAAAAAAAAAAEAAAAAAADAQwAAAAAAAAAQDAQwAAAAAACgAAAAAAAAAAYgAAAAGIAABiAAAAAAAAAAAAEMAhEWiQBNMeWCEvKEsGOL6iZABNIUOhjLoRJAIBiYCKAixkWUVZEqdnCbxg453S8neT7Rw3qBZFqMfxFmbHLJu9qWGOji1XJdTMnUauGJPu3Rymh0uv9u8curNy9ty5nFTm18No5k3py2o1EtRqJtP5o7XSyw4NNB81fHs5rV7Ln08pcLyN/KNrt225XhSyyfJhJLs9RqsudqOLuP+JGx0m244XOcLk0Z+DS4cMOMIJGUopGtNzFqsu24JquPh9Cx7Zij8G3oY7V7VGLDHGkkkqLqJAXSocSVUSoZdKSAASGgIkFABCS6NDn99ZZJNpHQFbxwb7QHNxhq9W5QlOUVZt9PosWJJ12Z6hFf3VZJEQkiVDGVTQxAgpjEBFMBWMAAACgAAAGIYCAAAAAAgAQAMAAAAAAAAAEAwAQAAQAAAAAAAAAAAAAAAAAAAFMQAAAAAADEADEAAAAAAABAAAAAAAAAAAAAFMBAAwAAAQAAAMAEMAABAADAQwAAAAABAMAEAwEAAAAEAAAAAAFAxAAAAAAAAAAAADEMAAAAAAAAAAKAAAAAAAAAAAAAAAAAAAAAAAAAAIAAQAAAAAAAAAAQgATKhWJsjJ0c7uXqHBt+b2nilNm5No6KyLdnG/zpoGuoSMrTeqNBnz+07haVNl1R0zOc37HcMU1G3Z0FppNO0/DK8mOOSm14M2JWHtyl+FxclTcVZsKFFKMUhtmO1ZC4okkl4Rze4+oMWhzrFODurN3o9Xj1mmx58d8ZXRe0ZiGIZdKkAgKGCFYBEgFZCU0k3fhAWCOfh6i0UtWtN3bdXRvuVpUNCdjKx2NKkArGNBiACB2SKxOQ0LgOW1e/R02sence7R0mOfKEZfdWLCLgIjIoGIkRQAAFAAADAQAAAIIYCAAAAAYgABgIAGIACAAAGwAAAAAghgIAGAAAAABQAAAAAAAAAAAAAAAAACGAAAAACGUAAIBgAAAABAAAAAAAAAAAAAAAAAAAAAAAAAAAAAAFAAAAAAEAAAAAAAAAAMQAAAAAAAAAAAADEADAQwoABAAxDAAAQDAAAAAAABDAAAAAAAAAAAAAAAAAAEMQAAAAAAAAAAQhDIsqK5Ojyb1dlktykovppnrEjyb1XwW7SUvszrh7Suq2TaNDLatLOWBSlOFyOW9R7Stu1MM+FvhM7P09NfwbTXI0HrHX4J4MemWT6lM1N7Rneld0zarSezlfJwfk6uWfFDqc4o4b0XCsOomY3rCbhrsNSaTxk1LR6E8+GKTeWNMUNRiyJuE0zyDR4dx3ZxxafJcsfVuTSo7fYNq12gyTlqJL7UnZLJFZ+5bZodZlhkzOp0bjTY8WDDDHi/Ikef+ss+TDr8cYNpPAdhs05T2rRuV3xFniDbe7G65KxvJGCuUkjzj1fqMuHXadYpyhcfKZqdDi3rdVD2M0+MFTbm0Xt8bV65HPjldTiWcjx7Ww3fa82L3c81LzVviei7LuX8R0ayP88HUiWI3jlSIvLBeZJGj3jdobfpXJt826RwGnybxuuefsZZITHf1HrSyxd0wlU4SV+YtHm09N6g27JB+68q8s7vTZp5NNDJPqTg20yWa+qbabSbBpfxUc/vTk4zvjZ06keY6Tcs+PfEp5Z8XNpo9HT5Jv7p0W+yMjn+o3OMV9UkjyLPv+v0+rzRjK3DKy7FP1DuSlmjF8WLir1kfJHjum3ndtBqlHUSm+L7hL7Hqml1MdXpseogmoyRnQzXNoXNfdHJbzrdyhleHTQ6a80aP8J6naebn/wCrLIbek2Rvs8u0HqPXaPWPFq5OcD0uE4zjCcXakk1/7FmleaeoMvtbvLq7yKTPUNK29Pgf3xxZ5R6mX/GJd+Wj1TRv+rab7e1EufrEjORMgiRyUxkRhTAQyAAACgAABAAgzswEAQwEIokAgAYCsAuzAVhYDAjYwgAVgADEADAQAMBDAACxWAwFYgJAIbAAI+AsCQyNgBIQAAABGwJAIApgKwAYCCwGArCwGBGwGhIBWFgSEIAGAAEAxAAwEAUwEKwGMQAAAADAQrAkAgsBgIQEhAIBgAAMBAAwEADFYAEMBAAwEADAQBTAAIAACwAAAAAAAAAApgIAAAABgIAGAgAAAAgAAAAAAAAAAAAAAAAAAEACARUVyPJ/WCcd2cn4cD1mR5P6zp7m4/McJ1wukYWk0W+ZtFD2MjWCStKzP0vpTW52p6rMmdj6d5PZtJ1VKjeKIuQxNFo8WixLDjS4pHBetetTgXG1VnpNUedetG1rdN+uMY+xu/S2nhDbMWSMI3M6eqNB6W/6Ri/eSOiaM1XmvrVpa7T8/nCdT6bm5bJo5HNeuXWfR/Z4jqPT1/wbR3Ru39MHIes7e4Yn8LEdT6cxQx7RpJxjTmrZynrXrXwr/KOx2GDW1aZNC39MiNZ6vTltqn8qRrfRXGtaom59VKtpbq6maP0a2s+qgvHEz9BT6vmvxkI/EVdHT+l9MtNtWGXTeRuRy3rKE1rITfiaOi9J638RtkcPXPCW+h00oxl5QqSi0l8CyZceKDnkkoxX3FgywzQ5QdxadMyPKYzT3xcvjUtHqkYpQaXyujytQUt6dzq89Hq9VGvNRNZe4kePLHie8ShNNxeoPXcUY4oQjBJRUVSR4/kahvTyOL6z3R6/inHJihLG7TimXJXAetMKhrMGbGu5QN/6T1nv7dODu4To0nrPNFZ9IvvBmz9IYuG3zzfebGppXTanPhwJSys0j9VbZCcotSOO9Sbhm1WtlCLlGMDo9r9MaT8Djee5ymrGpBxu7azHqNdnzYIKMJNUes7d1o9HbuTwwPIt70uPR63PhxWoKqPWNtS/B6Sv8qBMtGnAep5cd5l0uoo9O0DvSaV/fFE8z9V9boelbb3oNG/viQz9YpGyRMgn0PpnNUkyRBdEiBgIApgIYDAQEVFiIOQuRvVYWA2Q5CsaFtishYWNCVgmQsLGhZYrIchchoWWKyHILLo2nY7K+QuRNG1oWVWSTGhOwshYrGhOwIWPkXSJ2KyHILGlTsRGwsaE7CyFhyGhOwshZHkNC2xWRsdoCSY7IWFk0J2OytsSkNCwCHIXIaFgEOQchpVlishYchoTsVkeSE2XQn2MhY+Q0JCI2FjQkOyu2CY0m11ishYWTSp2FkFILGhOyVlVhZNCwRGwsaErAjYF0HZJMrbCxoWWBXY+RNCQrI2Ky6FliI2FjQnYrI2A0J2IjYWNCVjshYrGhYOyqwtjQtsGyrkFjQssCFhY0iYEbAaVIdkRE0JgQTG2NCQyFjsaDsZCwsaEwI2hchoTAVisgmBCwsaEwI2MKYEboLCJCEAEgIgAxkQAkBGx2AxBYAACABhYgAkBGwsaDAQrAbIjEVEWcX6h2LNuGqhmxSS6pnaMTplGo2nST0ejxYZyvibWh0hlVBro5H1HtObXyw5cX58aOwYumhBpdk0WXSaCEJpcrbZt3EkuhgcR6o2fPrsumnhV8YUbvZsGXT7bgwZK5RNy4piSUV0gOK9TbTqddnw5MMFL6KZvNlwZsG3YcOdVOJuaQ+gNDv8ApMmr2zNhxVztM570vtur0efPLNBRconeuKZFQS+BsaXeNqxblpnjl1OPcZHBLSbptOpnPDFpJ98X1I9YoreGL8pDaaebSlv25yWLJFwjL5O42nT5NLoIYZ05xs2XHpL7EqGzTyx7drP49zWL6Pds9LT+m68RLXCL+BNLvv4Zd7HjG7NS3LPJLuU2jYaDPumhjmxRlkj9kzF1nGG9T76edHq8MWHLjh9Ka4Lto1aPLIbbue56yPuw+yffSR6ho9Dj0eCOHHajFUZkMWOP5YJFlGLVeZ+pdqzQ1ktRp4uUJQMHBv8AumPTrTQg2/CPVnjjK7Vlf4XBy5e1BP8AYbHj/wCA12p1a96Ekrtt9nrG3Ra0uCPwoJIyvYhafFWi1KibHnfqbSZcm4qSi3yhSO+2xTjoNJCSqUcSTLpYcc+5RTL4pJFt2ysGRHZFSslZXYxpVlisjY0QSAi2A0HY7IhYGsWv0zbrKh/jdPf9oecrWNd8nZJa3L8TPr/If+z5nznJ+D0P8bg/zUEtZgTp5oo85Wskn3JilrZylbmx8h/7HzfL/wCN6O9Zp66zRZHHq8clbyKjzt61p/mY46/Irqb7HyH/ALHzfL/43ob12njd5V0Qe5aZdvKqPPZ62cvLIfim+mzXyE+6fNc3/jj0T+JaT4y2H8R01q8p52tU14G9VO/I+Qx+6fNc/wD48Xo0dw0svGVBLcdMrvIujzpat9d9lc9ZO+x8hPyJ1XPfHw49J/H6ZeciD8bg+JI84/Gyf94l+Nn8SY+Qn3Pmef8A8ceifxDTp05De4aarWVHnD1eS+5dB+Mmk6onyE+58zz/AIYvR47hp5X/AEiE9y06q8iR5xHWZONsb1kmqb6HyE+58zz/AIR6P/EdM5OKyq0S/Haek/dR5x+MlFWn2N6yXSsnyE+581z/APjj0Va/Tt0sqJfjdP8A50TziOrldthPVP7j5Cfks6vl3r4Uekfi8PxkiH4vAv8AuxPOfxcv8b/3D8U/8Q+Q/wDY+c5P/FHo34vD/mRD8Zg/zIs86/H5F4lTD8Y0+pyHyH/svznL/wCN6J+Nwf5iJficL/7iPOXrp9PkyX4+bT+sz8hfufOcn/jeiLV4H4yIFqcT/wC5Ff8As85/HTgvzsFr5r++PkL+S/Ocn4PRpazTwVyyxoa1WFq45YM84/HSf960L8fkqlKv2HyH/sfN8n4PSfxGP/MiH4jF/mRPOFrMvV5pdDWuyLr3WPkL+R85l+FejPU4v8yInqcaSfOJ50tdNdLIw/iOaq5j5C/kfOZ/hXo34jHV84jWpxvxNHnC3HP/AJjH+Pzf5jHyF+585n+Fei/icN/2sAeoxr/uw/3POvx0vux/jJf4mPkL+R89n/4q9GWbG1+eP+4e/j+Zo84/HZbVTZN7hk+cjHyGX5J87l/4a9D/ABWG69yNj9/G/wC/E84/Hyu1Lsktwyr+8+x8hl+S/O5/+GvRfdgv70f9w96F/mR51+Py9N5ZX+4LXZYtv3ZOyfIZfc+dv/jr0dZoPrnH/cTzQXyjzh7jntf0j6Jy3PM/ORj5HL7r85fwr0N54f4kHvwtfWjzpbjmqvdZKe4ZpRr3B8jl9z5y/hXovvRuuSsfupX2ujzlbjm40srX6jW46p+czHyOX3h87/6V6J70f8SGssau0edPdc/+YRW7aj4ysfI5feLOsv4ZPSvcj/iX+4vdj19S/wBzzZ7nqPnLJh/EtQ6rK0Z+Qz+585/6V6XGcXdyI+7G/JwGPes+KE+Tcn8GN/GNVOTbyE+Rz+7Xzc1vtr0j3Yf4kJ5oKvrR50t0zOPchLcZqkpyL8jn92fnf/SvR/cX3RFZoPxJHnj3XU/OUX8W1HxJD5HP7xfnJ+Fei81f5kNZIvw0edQ3TM+V5pIjHddT8ZGPkc/vD5yfhXo/NP5RF5Ypq2jz57vqKi45KYpbxqpJPkkT5HNfnJ+Neh+4vug91Hnkt41SdKRNb1qFVSHyPIfNz8a9Bc19wU0/k89e76pv+1Y47vqUv7QfI8h87j+Feh2Rc0jz/wDjOprvMH8VzvxlY+R5EvW4/hk9A5phys4KW8Z6dTIretTT/pfgfI8ifO4/hk7+x2cB/GdZ0/eYPfNY0l7xPkuX/CzrcfwyegWFs4B75qJKnMHvmrquY+S5f8L85h+OTv8AlQKVnA/x3VfMhLe9Wl3ND5LlX5zD7V6ByFyOC/judQ7l2R/j2q/xdk+S5T5vD7V3/IVnBvfdU2P+Oan/ABj5LlT5zD7ZO9jIdnALe9RF/TNE/wCO6pU1JMnyXKs63j+2TvLFyOAfqHWXVxJP1BqF4HyfK183x/au9uxJ0jiF6iyRqw/mXLP+6T5Tl+y/M8et+Xcch8jhoeoszdNBL1LltKkT5Tk+x8zxf5d1yQudnFP1BlhFNxTsi/U//wBSfK8n2X5niv3dvyBzOK/mSfFOMLsf8yy+caHyvL9j5ni+9dpY7OJ/maTX9kiyHqa5d4kh8ry/Y+Z4vyrs+QuRx38yq+8TQ5+pfqUVjVfLJ8ry/inzPF+Vde5Cbuuzk36if+WN+olSftj5Xl/FPmuH8nXWh8jkV6khXeFkpeoINXFE+V5fxX5rh/J1jaCzj8e/zk/yFy9RY3yXBqh8ty/is6rhv9zqrDkcpD1JgndQH/MuGq9rsny/L+K/Mcf3dTyHyOae/YaTryyr+Y8Cm4PDMfL8n4nzHH9cnVOQuRzP8xYFV42rJv1Bp1/cHy/L+FPmOH83R2Fs5yHqHSzfQP1Ho6TUZ1yofL834U+Y4vzdHYWc/wDzDom1UZB/MGmf9xk+By/hV+PxfnG/sORoY7/opxk1y6dNFj3rRKN2yfB5Pwq/F4/yjc8hWaZbxpFFN5OxvedIquQ+FyfjT4vH+Ubiws0f8b0qT7fmi3+MaL5mPg8n41Zy8f5Rt7FZq/4voum5kf4vovjIPhcn41fi8f5RtrFZqv4rpPmYv4ppbr3R8Lk/E+Lx/lG2sGaz+K6ReZlUN40s5SXPwPhZ/ifF4/yjbAa17npOn7gv4lpXFv3B8LP8T4uH5Rs7FyNctw0kv+6R/iWk/wAwfCz/ABT43H+cbMGzWx3HSyuspKW4aRL+0Hws/wAT43H+UZ1hZr/x+n/xjjrtO1fuofDz/FPi4flGa2RdfYxfxmm+MqG9Vp0u8qHw8/xX4mH5NRn9P6HUav8AEOHd2b/HFQiklSRiPWYIptZIsePW4JxUvdirF48vsfEw/JndBZhvVYfiaY/xGL5mkTsy+y/Ew/JlhZirVYfPuIX4rBKNrIidmX4nxMPyZYGMtRjq3JFjzQSvnEdmX2O/H7r0ydmH78ErclRJZ8dXzVF7Kd+LMtBySMNZoSdKaBZ4OTjzVjsv2WZ4s3kNMw3mhH5Q1qPlE7b9l7ozBckY3uti52Ttq90ZXIfIx/cQKdjtp3RfyQWY0p8U2KGTkh203HjksqaVC91oxVIXI/SPH8OfZlPI2Q5uyjmxchtZxsh5GxrIY9hY2dkZLn2DyGPbBssTsjIWRi91spT7HTsp2YrVkkEptkKYnaQ2aiSlJElkaK+xF2dsW+4yMptpohbFYWYz7JqbpKyTm+uyiwuwvbGU8vSD3WYxLr4Iz2YshZGPmzFTZOyJcIv5sSyNXZjuTDk6B2RkPLYe418lCbGxs7MV3N/cjzbvsrsVjZ2xdzDmU2Fg7IyPcD3THsAdkZHuP7ieQosVsHZF/uh7hjkgdkXe4yfumOAS4T7L/dYe4/uUANnZF/OVrsfuGPbGr7YOyL/cEszootjB2Y/Zf7rbF7kipPsTYTsn2X82NZDG5MOVEt0fDjK90HlMTkKzHfD4UZbyfqP3/izD5MO15J8SL8LFlPMyPumPyIMfEWccZfutd2NZjDb+LGTvX4eLN93oh7lmOmPkO9PhyfRle7Qe7+pi22BO9PhxlrIyLytGMmwk+jXefDm2YsqqyPuoxLHaod58KMr3A90xFLsTk2x3nw4y/ctj9ww0x8mjUyLxxme92HuGHyHyZdnwoyXP9SayV2mYTkxqfY7i8c0zPeYLKYjkLn2O5PhT7Mx5X4tkebMbmOydx8OT6MjmNTf3MfymxOY7jsZPuOxvKYvIVjvPhxlvKhc+7Mbl0R5tE7yccZcsrpC95mO5dEeTHeTjn2ZbzND990YfILJ3HwsfsveZtieVsoGTua7Mfsu951TJe50uJjNMaM3I7MV/ush7ndkWkQ+SbJjiypZVRXzb8FJJNDZ2SLVlkkP3WU9B0Nnbj9lqyNsn7jTMf58jvsdyXCL5Z3J20R92TKroVlmR2Y/ZkrPJJklnlXZiWHY7k+Hj9mZ7zfyKOZptpmJ2S8E2nw8WZDUzh+UTyTXd+TDumSlNtDZ8PHfpke50NZP1MXsLLs+HGV7lu2/APNO7sxLb+SS7HcfDjKepk1H9EQWVoor9BOyzI+Hj9mR7zJLNJeDF8EoykmXuPh4/ZkLUSTBaiVu2YjfYWNnwsfsy/wAQ0Es7l8mG2CG4fCw96bPBKOTKucml+nyPPnlHLKKpJM1inKL6YPJJttk3E+Dj9mf799h70pM16k0WRyNMXKfY+Dj9mas7XyxLP35MPJNN9EItiZf4T4OOmy99v5YPM6XZrnkdgski90+yfAn2Z6z/AKst96vqNXzp2T95NCXH7JeCfZsVqmo/HkhHVSkmnaNe5iTd+TW59l+Bjq+G2/EP7iWqdmtUxKTNTV+jHy+P2bP8Q1dMUdVK2a3mTU0i9sLwY/ZnvUSk/wA1BLO1XZrebfyHNjtx+y/An2bH8TL5kyX4qTVcmapzYubQ7Mfsvy+P2bb8S/uC1Tj4k0apZH9w5NvyOzH7Hy8jb/iZ/wCNh+Jk1XN9O/JqnkYKbHbh9k+A2y1Xn6mHvvknzZqeX6kvcfQ7cfsnwI3D1U2v7RkZayaVe5I1XuMHkQ7MPsTh03D10pri5yocdbKPSk6NIsg/cHZh+JeD/bdLWSUm1OVknrJq37j7NJ7o/cJ2YfZn4H+24hq8tt+7IyYblmTr3GaGORIfufJn4eH1xLxZfeujW55/81je6aj/ADWc4sr+GP3jN4uP8Wfh8n55OjW66hf9wUt1zt3zdGg90j7rpj4PF+KzHl/PJ0S3fUPr3SP8W1CtrI7Od59WHuE+Dxfivby/+TJqmRGCOu30zAQAOwGIIlfQr7FYLssNLIrs3m27d+M5OXg0kV8Hc7Cn+EzRvwcubK44Wxxz9yMbPs2ljiqGX6zX6rY9TiSlFqSIa7NOGpmuVm42vcpZV7MoXx8M575JjMt7jnK4ySnGbjJU18C7Og3zS8NR7/xN1RrdJo8uqm4QOuPJvHe3TummCJm+ns8uNLKuRi6zbdTpYRk4fS/kvfPumOcrUDSJxjzkopW2b3HsWdwU8k4xT+Bc27lpoUFnQ5djnHDzxT9zr4ND7bUmmqfymJnv1U3EA+TcafacubG530W5tjzwSyX0T4mO9bO6NENRXz4JSg4tp/DF18+Dezbo8Gx554b+6s02o0uXTz4zVN+D0LQTa0eFSd0jU77p5ZoQywV8UeXHntzsrHry5fSaX8VmWO0mQ1em/C5ZYpXyRuNgxxWsuX2pFO+W9fkVHWZ/r7f8Jvz78NCNGVg0mXUTUYRM17LrFapWb75v233RpxGbq9Dn0c3HIr/VGIoNl7truIg0ZE8GXHDnKDUfhmM7Y2suzouw4pZJqMe2Uro7XZNEsOm/E5IrlKzOfJ24plWt02xTyxcsknFk8vp3N5xzTiXa7eJc3DBJcbMKG86mDin3GznLy3yxtq8+nzaefDJDizG+TabprI6zJCUI1xVGqOst15ah1yfRvdNsWfUYPc58bNHGPJruj0Seb8PtmCfwsaZy5OTLHWvqlrncvp/JjxKUZ85/Y0ufTZcLrJDizfafdpyyxk302bHfoL8CsqRicucsmSS7cOKyUvJW2d+7w6TybZnaXQ5tVJRgv3ZgRjzklfk73Q6zR6fDghDubpSOHJnkVotZs8tNgc2+6NHTPSN7SybbOd+DztKqdHLDK5Y2pbpfptDn1E1GCu2kb9+mc/13lhVdG82nRw0eh96SblVmn/jmSeZJqouXS+UY787vt+h48bc3rNDm0maWOcfCu/gw2em7po8Gs0EpzfainaPNssYf3ZdJnTjzuSqCaRFmZoVCWoxwmrTZ1q1kaTadXqskYxioxavlIW47Zl0GVQm0+rtHoOn1ejWXDpsL7qjReqoP3cM3L4o885LeSRL4jjIK7pG20W1ZtV3BNGDgw5M8444LuUqR6NqXHa9BjajynGPx8s3yZayknup725ifpnUdtZ4Okc9qNNkwzcZppo7HQb77meEc2Lg2P1Rpozhh1MIttKmY78plMb9Tx9HEQhZtNPsWv1Sc4RSS+JGx2PFonc80laO2wZIZ1yjVN/Az5MsWsXkebFLDklCXmLplRstzSev1Vf5jNazrjlbJSEKySQ6Nbq7OMXKkjafwbWLEsrg6q189GJpuKyQb6qSPXMOOL0+G/Dxo5cnNcNJPNrxyUaZm6Pb8+rc3jg2kbf1Dtf4TOs2OX0TNp6Wjzx6mDL8a9ncn1kcVlg8WWcH5XTKmbjecGPDuGdQfya7Fp8ueTWODlR0me5LTbHaaBMzcmi1SdPFK6tqjFljnB1KLQ7jcRbCKbslwsy3pdTjUW8MrZO/Rvw2Wm2R6nSPOstOPwaKSqTX2Z6hsmJR0EeUPzNt2ecanHCOfLxb/ADuzGHJcssp9lupIxAMmOnzZYylCHKl8Dlp8kYyk4NcfP6HXun3TbFaCrSJcG1aJSxzjGMuLauhabRoH0ZX4fNGKftyooadrpk7k2gSSRc8GZJS9qdP5oh7U34i6/YbQpKK8WJR7JSg4zcX5SsKadFRGURqDY1FzdFuNcZrsG2bqNn1Ol06zZKo056VvfWzRVWqVnm7+EZ4s7njd/dr1SafkzdBo56zUQxLw7tmHT6O49N6RRU88v/ROXLtxHL6/Rfg9Q8XLl0YuPT5crqEGza7rlWbX5v0kdV6d0+nWkyTcbkmZzz7eOWpPOWnA/hsttPHLp9uipwf2Z6NPXbflze24U+zA3TZo5MCzaVU0rJjy+tzS6+1cM/sXY8M59JNstwaeWfPDClUpSq/sd9ptu0e2Y5PI3KT8tm+TkmKTy4OGi1D79qVV8oqlBu+KXR6Utw0MmoukjUbjsWmyYnl0zcPk4zlu/M0a+1cXixPJOMfu6NprdozaPHB5Evquma7BPPgzw+i6l4Xyeh6uP47bbcfEG+jplncbj9qSPMuwqi2Spvpqn4ZB9nY2SjZZjU5SqOOTrt0jbbJt712fJCXUIxuR2uNbdoIRwyhVOrZxz5NXWt0eczhKNWmr8WY78nab1p9DlxSy4clTj8HGrujeOVs2z6qA0Pg7ob66+S7XaDDi2n0HbL4TlifSTT82XasdoGmWUm20RQ2bRI/JK19xFlWBA/I0SaYqIJDH4FZBFisl0DRNtbKxUNqgSGwiaIpdki9yUNhdIQKzrjmEgCux8W0ddqVhYUA2C2IBWFSEHYyoRJMgySVgqS7VoGzpMGgw4tvWTI6nO2zQxxPJkjGL8mJnvbG5tTyCzez2HPDFbff2NE48ZOL6adUxjnKs0Vh2FG50Oz59ZiWXxFMuWcx9lsacKZm6zR5NLk4Ti0bnadHpdXgmpOXuGbnJN/RO5zT6I2zL1mH2s04fZmGy90XHzElJofPsqJEuUXUTch8mkJR+m7Q21VGLyRNQ0/BK0yka/cxc6dsYxJEGw5Hd21UgoLTBlABEaBo6BABROPTSO+2O1o5s4CNckd9sLX4SaX3OHUfx/wD1yz/dHLbg/wCuZvunRftmWWPOoqT+pf8A8DF3Gf8AXtTCvDNrsWllPUcpRqMRf4XPKakZvqOvw+mtduX0mZtuNaLbJ5WlKfyzB3/LilkwQ5clHtm6tZtvrG06gcLuceH+am/o5CWvyTzPI2ddhl+K0VNNfQcC0+ckk7TO42tNaFTmqlTs3yzUx0mOMlaDa9LF66UZ/kTZk7zrJYsq00G4pE9jy89dmdfT2zX74pLXzm/DEtvJN/ZZ6bLZdWrlik2azeEvxnOPSdNktmU8uePDwvJZvUUtZ0XWuSpux0+kcMGhc4pUlfZyms3PNkyZUpPg10kdFNy/hPV3wdnCzk7aJxYzutv3XzbpU5OTsF5REsxq5I9LpdSPQY5cctBFK19C7Q9FkhqdPwnL4ooiv+GNcaqBpto1ahkim7TPDMd91n3ce6y/4ZO0aZ6bX54TTT74mFvXGerff1HVS016uOZOlxOV3Zc9e78XRrjvdyb/AMFrdaDFh0eg99qpVbs0mTddTLNdI32ripbQoLtKKOIk3Fytm+OTK52/dZuu5y4sWv25TlVuN9fdHFY6x6iPL+7I6zbHHDtXOV/VFs4+cl7k3922Xh/vn02vv/8ATot212lz6WEEqkcoy2bt9ld9HXCamnTHelmJXkh+6O8z5Hg2iWWP+WcNp2llg390d3qIrU7bkp1eOkcub+3/AGl9uM0mnlqsqxuVN/3jdy9Oz4us6bNBGeTBOl+aJ0G163Nlz1kZvO5SS43ww024aOekmoS+Ua06j1FPnnh+xzBvDK3GWt4p44uUkl8s9A1WGb2lQjG6xxSOAglySs9LeX29uhOVdYkcOe2XD/ZfNv8Apymg22ctRilNcUja7/m4aJYVPy0qMOe/8YR9vFUvuc7rNTl1U3kyO2Y1lllLkmLDnK2Vkn4tCOrrPENGw0k17+Fvx7iswLRn6F3mxRSvlOJis5PQd6TW1ZOCR5zg5clyXykej79J/wAKzUjzvDVwnNtq10jhw/syMnoW4v2dotJ8lBI4CORQd/L8s9D3Cs+3O+ucDztqMZUnfwOH1kmXuO70fPUbS1yv6Dz54JtTik5cJNOj0nFGWl2fvyoHO7ZrtBpsTWWNylInHbO6yfVb9HL/AIbNyr2pFceUJWrTTPQtTue1LD3Vv4RwWeUZ5pSjHirfR3wyuXuaL/tuthle6YZPuRtvVneTC/san081/FMNr+6zZeq07wOurOVn/fj/AKSftav081Hc8Nt07N/6pt4cVOSfM0GxpPW4pp+Gb31RyjgwteOY5P5sSb1XJ6OTWeDjXLkvJ3+8yS2eX3eM8/0cXLUYurfNHdb4o49vXBvuhy/ycaT1k8+x5ZQVLy0eheno1oaU+SXaZ52qj1fa6PQ/TsHDQKLr8w5/2rj7rh90io6vM6/NKzWM2m7cvx2bHdpS6NbVujpj6ixGgG/sOo0aXbJwRg5Y4y+ZI9S1E5YNDjkv7uOJ5bpeCz4rfXNHpW6SUdtmn/gXZw5pvLBJ/chnhj3HbnJq6iYvpqrzxqVwMf09qYe37EpnQaXTrBmyyiq5HHPeOOWJj51Xn+/Wt11VL7Gw23cdJo9G10sj7MDfFz3HK2/zfBmbbsHvYfcy9RbPTe34eG79GfrW023d1qszhkx9t9Gr9Q6SMM8Jq4pm/wBNpdDhz4lglTMP1VN+xBHLGz4k0vnTC9ObZiyrJqW00mlTNxqN20mPWRwywxpeZFvp+KWgtxpy8nC524ajJ8p5JOiyd+ee/otz1jHqGLjLFcfDujzWGCOq3GeJTq8jXg7rZZznolKTTpujn9l0+Ke6ZZqfdzZjC9vxDK702+bLptq0SUcaffHpD23UYN0wZMU8fmP1Gbq8WjlyjqJKpL5Zj6V7bo5SeKdWibtxupdm7v8Aw4fcdLDS6zUYk6incTvtJotJ+AwN4l3FM43f54dTrrxTUjtu47ZDi19OG7N8lyuHH51upjreTA1Gu25e7h+hy4mt2Lb8OXFk1E2vpm6OUy5PdzTySSts7nYMKe2Tg5fmbNcmPw8Jq3zomW6j/EdJLUrStRMnePY0+ik/airNQ9gnDXxyc7hysyvUGpitMsHm0Yk3nhqrctS7YOwaTFqXqHLEmvhs1+94NPp9U442rZuvScm1qEaXfcdbjJv7HTG2c1n2jFv6Y2/p3SYculzqeNOn5OZ1mLHj1UsaTS5Udd6bUo6XLT+bOR1Msj1eRzqThPouFt5OQt8R227v29oXJdOMUedzSs9C3XLGW0RcvEkujzu/0NcH7cv9l9pLpWejbS3j2dZHFL6LPPVG6pW6PQ05PYFwVtYEZ6j9uM/9lxvtwOrfPPPLf5ju/T3F7aeeOz0X0+q25NJDn8Yf/YmPtxGaNavKk6cskqo7/CnDbYKT79l2YM8O14s7yt8cnKyrdN1xQxKGNqXNdmMr3zCSLPG2H6awwnkz5V/dmw9R63K7wY8ipNWXel1ctWoflNDvdR1+VO7ZZ557v6Qv7Y1yyZOPG34pHoexZnqNDJStuNKpHm3izt/Sn9lqFytM31EnZtnHxXL7ilp9ZlSi07s7H07qVn0WaE/izl964T18nDxRu/TcmlqI8aonJN8WLcv6nMbnH2dbnh/dv6TAj8m63+EPx+WSNImdcPOOKfd2vpfLDnOEkrcGT33b9XPLPLj7j5o5fQaqWnzRyR8nb6XfMGonCGSk5I48mOWGffJuM7mtVwWTLm5yjKbUvlGRt+jes1eHDySts67etnhnhPPhjU4qzkNNjzrPFYnWRdnTHOZ4Wyp6rrsu0aHDjhBqLa/NJeWY2r2LHLT+5pYp0n5MDJte76xObar7WdhtePLi0cMeZVKqOOeVxn7t3bc8308yhi5ZcUUvMlFnaT9NYlx7uNHNJQW6SjGPjUJHoG6av8LpJZKu10XlyymWEn1MdeduW1uzaPSYJzhNtmFtOwvWTeTNNe1Ew8+v1eofD4l8Hc5K0m2Y2unGFoudywkm/NTGzdrVS2HbZ5Pb5Gk3fZfwS9zD9ULMKGtzYtR76bbb8Hoc5Y9VtKk49yhYyufFcd3ctWWWV5lg0efU5YYsKTmzr4+m8UcMZZMlNL6in0zp5vW58trjjTiWeoNwyRz+zB9U7LlnllyduN+huTDdUy9PYp4sk8GdTtXE5XLp5YnKM49rydf6b1r95YJu406Mb1Jg4Z3OH5ZjHLKZ9t+218du4x9J6flrNHjzY5qMjMz+nceLG5QyK6Oh2icYbTjm6pRON126ZcufLVJEwyzzzy+0plqYqNDtj1eqlgvwrbNtH03NVHLkjBR6F6Zm5azI++4mz33XvDNYYq7XYyyy+J2z7Mzxjutdq/Tscenc8ElLj2cnDFNyUad/PR6PsmpjqdK1bbg6OR3Byw6/Kq/I/wDcYZZbuNbutbZuH0254VlnPgUv0/PjJ48vuOi3Jues1cFHFjbUV3RuNjlrJvKs2Lil4sXPLGW2s2y+I4PJinjk4zXadM2uh2bU6qPLxAs3jCsevy1kT5SUmjrM054Nsxyxxv6V0jrebKTHX1T7uXWwSlLIo5E1ExdZtE9FBTlI3Gx6rLPXZlKNRaD1HOSnija4M1jy5d8xrO7potPtOfPBZY0sbMyWwZlHlDJGXRHFuWaGn/DwxJxb6Zs9o1GqWVYssHxn8lz5M8dkyrks2DLgnKOSNNGTp9uz6mDljjZuvUGJRz2vk2Xp1v8ACT67suXNZxy/dqZWtBg2LVZccpOk0YWHSTlqoYXDvlTOo1+6/hszxwgabRuWo3KGVqrZJyZ3DK31o3v6t5vLw4tuhjabl4Ryu3RgtXgX6nSepIrHjxx77Od0CrV4XFK7M8d/6rfutr0dxxtRXk4Pf9M8Grc+CUZM6/VueHFBxdS5Iwt600dRpo5r7ijhw5XHMcRgx88kV326PS9HgWDT4Y/ojjNkwRy6xd2o9nVyz8tdjSnSXwdOoyuV1Gd+dtJ6jhLnBmJsOZw1kMTaSaM31HS+pJuzQbe8v4zTvG0ny+S45b4dH1v+239QaPjqXmVVJHKUzv8Af4N6NOUvBwbLx5W4x0nioUA6J8TdtaQVfLJNpkaLFBGZDaCVsvWOMcfK+78EHG/A6dUO1N6YADb6InrdkkMEugsiDsEKxgOgFYDaJXTR2O0azHp9PJTd8mcci9ZHFqiZ4zPHTnyS3WnYZFtjWTJxgpN3ckE91xafC1p4q3XRyUszl5Ylkv5MfCmtVy7cmXk1E8mSU5u3J2zdaDcahwckkcu5E45KRu4SzSXjvuOrnj2qU+dpSDW7pjWneDCuKOU91i5WZ+HPG7s+Hl9200OqeDMpR+50WfNoNUoKfn5ZxKnQ/dkqpky45fJ2Xfh3OLU7bpMcnipTRyerz/iM853Vy6X2MKWTlfRC15oY8cxu97amFdhPXwWgeKLXJwqTOQbXwSeTqrKZM1MJFwxv1FlkPNlRJM03Z4d1+MhLapQSqXA5LHl9ucZIgs8uNWyjl+pnHCY719XGYW727vQblGUFzmmc/uueGTWSljlaNVDO4qiEp9t2THimOVyiTDLeq67QbhB6ZYppVRX/AAvQzyvJGXbdtWcxHNRN6iXxJk+H5tlTtzjqdfrdNi0j02Hr4Ry+m4PPDm/p5UyieRz8kE6laLjhMW5jdXbpd2w6BaZewlzs5ZGTLLcaMUsmm8JdXacJU0dXte6xxQ9ubuJyBZjnxa7GeMymqueG/M9u11uh0us/pcc1Gb8ss0Oi02kuXupyOUhrckfDIy1OR8rm3Zz+Hda34cdZfZs96zx1OdJNOjL2nR6WeCbyxTZzF9+WZOPUyxrqTN9v6dSrZklqYYlmlS6Ujr9VqsK2WMHNX7KOGcrkXy1E3Bwb6MZ8fd22/RdWaU8nSNttGDDqNTWZPgjTORKOfJFNRk1ZMvtK3J/hvt+0Wn0rxLEc4zIzZ8mZ8pNvox+/kzJZI0nCPOSS8naaHYccXgz+59S7OKh+ZfY2sNxyx4xtqK/Vkyls8VLdPQdfhep0ksKnTl8nDazbp7esMveTV0E951PGozo1ufU5c9c5t0c8OO4z2zbt3u26rHq9L7cq6VGF/L0PeU45Xx52cdptTLTzk05dmfLds8m2psnw7LdVd/eOs3zX4sWk9jFO2cAp+W0rZZn1MsrbZhm8MJjia7lqnTMjBiWfJGHdswqLcbcJRkm7Rssjvtv2OGj1ePP7tzUfymXvW2fj8eNQzcZR7RyEd5zrik2q8uwy7vmk+pOqON48+6ZbO6etKZ4p7br442+fFp/7nazjg3HRKM2nyfSPPMmeeWfuTk22ZOPW5McGoto1lhctX6pv/Dq9DseLT5lk5uX710YnqTXRbw6fFJUrcmamG553jlF5Ga3UZPcldicd7pbV3NaZe27atbLjGdHoW3aL8Bpfac7PNNLqZ6dt45PtG0/jOr9r6p2vhE5MMsvV8JvTN3LY80sk82PKpKm2pHPaCEcmpw43dylRscu86vJSU6jxpmVsGlU9WpyrjFWXVxxu136iW87RptJiWWEnb8nKujqd/wBdjzZ3gX905ei4b7Ztd+V2CKc4v9Uej7hnwS2uuac5QR5pF8ZJo2ebVyeGEXYyw7rjftWbbNnt+d4M6kn1Z6bh1WLJCE4yu0eSwklKzZ6bcMmGDV9X0ycnFM5GZlZVm78Jbtm7+V2jtIZI59slDFJX7dL9zzjUZ5Zc88rfbM7SblPTKk+mXPj3jhN+jus+nt0O1bXnjnhnzz7gnSQeqb9vEvmrRqZ7zlpRjFLswdXrHqkucn9K6MY8V75anf41p1Xp7UxeneBtJ3dGDq9gm9TPhPjGczm9LqpYcqmmbd71OXnkLx5d1uN9m9TVjuNLgWl00MUHdRo4XRZvw+7ybv8AM0OG85k6tmnlkcs3O+7GHFZ3b+pc9/R3G86DLq1HLhtuqSNJj2TWTSeTNx+6K4btlw44JNya+7J/x/LK04qqGOHJj4h3Y1p9dhemzuC8xa7PRHGS2pJTTk8LPNs2ollyObV9m4e8TWn4N9uFG88Mspj/AIrUumk75yT+56FseNLboqD+WzzyMouSv7npGhhLBtyeCN3Doz1H7MYY+6sz4dU4twyuzkdy0e4xvLni5RMta3dI51Fxu2dFn5ZNszvL1J42csLcMsSyZND6ZnGE81umw3va9TqdVGeJWjntJq54JJ/NnQT9RdQSxHXLDL4ndj9WZdeK3u16Cek01Satrs4HUyS1mXrpTN/HfZxTf3Oay5eWeWR/LsvFhljllcvqWy+I7jdYVtMZNrwqRwDidBqt1Wp0UcE+q+TnPJvjxuMu/uvu7WQclKLS7PRtBeba6T74NNHncOMX9R2fpjO56fNifzIxzT9O/tSe3HZoSWWcGq7PQtjhw0ChGds4vdsEtPrs0adN2bLQbz+Dwyg4fA5MbnhNGN01GtyzWs1Eef5MjMZ5ZyfbDU5Vmz5cv+N2Y6Z1kkkNbdL6e1cNLnlCc6eSVKzd7/tGXU1nw9tdyRw+LL7c4yq2naOtweo5+1U0mzhnhnM5lgsymtZOewbXq9U+EcUor5bO627SR2zRSSSTpWzXLfscI9QjRqtXvmXVQeLjwVkynJn4s8LLJGBrcsfxOXKquTOg9KrktVN/MkrZx82nOTfhs7vZVk02gyTnVtur+xeaa45Gcb5clvly3HUNNOBpkZ+vlF6nJxfTk2YTO2M1jisrP0m3anVcnij0vJZLT6jHk9t45OXxUTN2bdI6XLKM49ShR0a3rQSk4uDv7mMsuSWyY7iWTXms7bnmhoorPPxF9mg2jFiluuZ+VTaaLNfvOP2J4cSTT8M0W26v8Jq1lo548eXZnfrU3O7F1W7a/Ppc0MWKD+qHRsNulqZaaMsy+pmHk3HbtRFTm/qiiEd90kVwUjnccrhJ2eWv7rduVl1vDt9vKdf6gTe12cNOfHXPKpdLLy7Oo3ndMGo0OOMGmztnhlc+KpLNVx0Zy5wfJqvk9I1eD8VtkOH1XC0eZOVyVI7XaN5xRgsOSXFJF58cr25Y+4RyaxZHmjj4tSfaVHoeODxbWufmGMgtXt3KOXpyXg126btGWKcMb8mMss+S4zt1qrJJB6ZzReXOv8ds1e/aTP8AjcuanwaMDa9atFqOb8M6/JuWizxjclxfkXHLHluUn0N7w00WwaPJPU45W4wSdoy/Us4LLijV8TaY9x27BHnjmjkdy171GpyurTYxmWXJ3Wami39OnW6ROXp6oeXB0eeybf5lUk6Z2ul12LHtKxykuTTqJxWdr3ZUzfDO257/ACPenT+mJ/1l4yr1Dcdwn31xKfT+eGHWOc5UuJH1BmxZta5Qd/QjPbfjW/TSf26/y6H0xX4Of+s0eth+L3tY5P6HI2fpvUYcOLKp5KuRqdTqoR3WU4JOpeSTG9/J/pd+I6rWzwbXgxyxYId+R7ZuEtbPI3jcYqqZDPqNBuGCPOSqi7TajRaWChCcThZe3zLtfPd78OR32Le4S4teTsMPWkxKfa4o5DeJyy7hOUXGnSR2vuQxaXDLLX5EdM/24Jh7yarnotJkbjNJtnKbpqnrNS3DwnR1qy7bmyNPjb+TR7ltkNJCWoxzuLmb47N+faZb+jaabTYtFoo5Z44uTVlel3THlzxwrHFu+mjJ02XDrdD7Lmuo0yjR7fodPqHKOb9u0TL+7u9pN+GN6kgljxTXlyoyfT7T0ckn4bsx/UOWHtRhGXZL07misE4SqLLZfhRvxK5/dmlq5Edqf9dwzc6SfgN1a/GZO0ynQOENRCUn1Z37f+r/AOM+o6L1DHnHHJnN6KajqsL+8kjsN7we5oucbaUTi9LUc+Bvwpoxx+eKz7H3d1vc5x0nKLqiG3TjrdA8M7b402S3rLilpOKmrkaPY9XDBqJQlbt0c5x5Xj3Dunc32j0ENApzqN/MjU6HNz3Z8n05Okbvds6w6aTX7HLbTlrcYTn+qs1hhbhlWcv3Rs/UXwc7oIqWrwtyaqXwzot/nCeGEY5E3dto0W14eeth9kXGa4135vl1O+L+qpWrkkcC490ju99yRWKEEldHD+LN8GP6Gt+ahQDbCNHbtaNIOgQUWaZFpDT8kSeHHznxckv1Y8LpgV0RJfAI29JoEIEwhiBiIpodkR30AWWp9FRKl92WM2G2NEUqHRUA7E0wQBbJKTF0BA7CyNoAaNsSAaAdiY0Li15QQrCw8iDSXIVsBeTUE+Q+VlYwmolYKREb6RlNJWJsjYA0k2RE+xhdAkqFQXXQFidBdldjQZ0nYyFj8oJo7IuQ+iLoxlVkFjGkHH9Ths3DsQAXYOx2IAiVsLIgU1DsEKkPjRDwfTEgofVkoaVstljlCEb+SUJQb6igy5+a4/YztlSnQMj8ElKk0aUrCwSDwUO7j0HF1bI9DbdAJOicpWkirpkl9gWAzdNrc2BTUZ0mjB48fkscE0mEuk5Tc5SlJ22VdDI0UgJuSqiK7Gogoi6Ra+LiiCMmMI+3d2xtKxl8it2PI1dgqGwcm2yLYSoFEL4FjUlasXBu2g4lPCbYciHwSjFyM1nUS5NoikPwFlCuhSvokkIoUY2dTt+9ZNNihjnK0vucqrLrVEyxxymqXe/Fdi970ylyeFGHr98efC8cfys5nkRf7mfhYy70nmpXxDmVkkb8mok5UiDLnG6K2hukSSfG5FTJ98CNBYEzb7Xrp6XKqlRqKGm4uyWbhW63bXfiskZum0qtGnu2DbYKMpWJNTUTX3Qa80QHbXkTdsrc2lGRdDKk1afkphCTkkTyYmnX2CWTaXJ26EpNO2RjJ2BWdJKnKN+E7Z3Ou18cugrDBU1SRwSlTsycWpnDy7iYuMtlv0XzFE5Nyd+bIF2SSnKUkqsoNrFkZcXaMzDKMuXOXk15IiXGLpzak0V8/kixSRSYxc8j+JeSTyOk/kpi1QmwnbEnNvyEsj41ZAjYa7Ymr+DKeWMcXFJ38sxE6JOQLPKx5pdW26QnlXHiiuTugp1ZE1D5k1KVMrUeUkq8ujZa7FDHjwqCpqNSIWRg82l+o7c+38FJKEpwl9LIdqx5ZNVZX5QvnwOkWGpE4T4eGOeRyasq6AppdDPLH1Fshzud/JUugunaKvbGWs84tIFnlD9WY3IV2TwnazYZk8sJTfSkpHd556fX6KK5JOlSPN7M7DrJ41wV/v8AY5Z4b1U8x1GDZVgnDJlzwpD33Vaf8OsMJpnN5NdOcOMpyv8AcwMmRydWSY3ctpLua0nj1OTE6xyoHqJvtSpmICs6bb7IyJZpz/NJstwZpQvjLyYdWgi+LNywuEsumTklydsUJUyq0STo3NVnt8ad3pXHV7e4Sl4RxeSEMeWcY19LMzRbj+HbtOUPsYerzY82Vzxx4RflfqY48O25fZJL6TnqZSjTZTDM4u0+zH/9jjR20vZjpmz1M5/mk2QjlcHaKGyFjSdkZs88pm42HHD8T7jkrRzSZkYc88X5WYyx7pYnZ2+m53rOpal0zQN2y7Lmlk7b7McSTGSLjPdAKgEVtYmMrJJmU0VAvIBRVYQ7EFnR6EkAkBAB0AwCwFQEEqGuyKfZNeQldDsug0mqeV5ot8WbDJt+2xcbirsytgjHHp8ydWc9nyzesyU3bZ595ZZ5SXWnnyyZWu2eMMU8+CL4I5x+D0HA8k9vvKq4o4DJHhOSTtWb4c7luVvCoJdm72rboayc45LpK+jSnWenHNSzS4dJI3yXWFM9+Ep7PoccmpOrflvwY+p2ODV6ecnBLyY25OctdkvkzpNpblo5e7+V2cLllJLtz7rtwEoOL4v4E1SMrVqCz5XHw5sxbtUeqenWW2StltmhWrzqDlSN1qNo0+JxU5uzH9Pp+82S32U/xaXKqRwyyyvL278aYyy//e1uTYMLx/0GVuRzep0uXTz4zi0zc7brMmLNHlJvs229adZ9G8sFWRdondlhnqmOfn253b9PizSrK0YmrxQxZpKDuJm7dpc+plKOPr/EyjV6fLDK4S8o7TLz7JdZNcDN5pNmyaiFuVJ+GZWt2JwhLJjnGlBWiXkkutt9znI45TlGMVbbLs2lzYaeSDSfizdbLpOWqhklNJY3bRv930MtZDEl5i2c8uXWUhu1580QMrUYZ4MkoT8mKdI1j5hklREkkbi1vNDs09bp/cjkS7M9em/qp6lGz2frbOVdnO5dbq1nyOE2qlR5+/PLKyVwuWmPr9B+DlFPInZiYtPPNKMY+W6LsuR5GuTtm/8AT2njNzzOvokdLlcMd1O66Vw9Ovt5c6iUanZMuPE8uF84Mv3TcnLO1gm+EenZudkk8+BwlL6jjlnyYzvqzLd04BpqzY6Da8uunCMXxi7uT+KJbjjjg1zhSVz8HWYdbpsOPFDDx7irSM5Z247je3Oa7Y82ixc+dpOjRqMrqj0TfHW2KdHn8VKUk0Y47coWt5t2yT1uLJOT4QRmT9LT6Sz0qNz6dmpaFmn1e7ZceXLGnGmY7srlZtdySNTrNqy6JXOcWjWxivk2Gq1k9SoyydyLNoeCWpisp2m9eXNbpdi1OrVxVRMHXaCejn7crs9H0ethmyPClVI5H1P3uC+3A54Z5Xk1W74jl1Btm80OzarUxucZQhXTZhaTB72WEPvJUeh6/NHQ6bGmvhI3yZ9tkn1SeXLz9MZPo4ZjQajST02WeLKnyi/tVnX7buTnq+OSTapUHqzTueHBkjSayds59+XdJWvFjiLUfy+QhjU0+6fwCTMjRzUdTjuNpyOuvdYbqHpvUygpPJC3EU/T2pjCbbv7KJ2Ouy+xt6z8e+Bp9s3fJPKsc1Sl4OHxMrLV8bcXm02fTtxy42mjpds2jS6vRSzPt0ZvqbTJY1qFVyaibHZMcHtS4NeJItzvZMiTy82yQccmSPVKTSoj0b9bJrMuWaUVXJvka7WbdqdD1lg/Pk6zKX6owKJxivli+S+WmzRipuLSZsrHY4x5ESyKdrirY+hWZptBm1L4wNr/AC5qOH3kdboMen0e3Ysk0oScLZptPviWfzzVnD4md32z0vie65HVaXLpss8eSDi0LTafNnyQhCDbbO832GPUbesiS8p2YvpjDjyLK3BKcWPi3t3Yn100/wDL2rtvwjE1Og1OldTxtRr8yOj3PdpabU5MKbdNG/w1qtFNzSaaZn4mU1b6XUryiXZPHhnlklDyzNyrHCeXFXLjPqjden9vlmm87S4RkdrnJjtmfZqZ7PrYQlP2W0a+mm1d0evS4PHNfHFnlOrxuOoy/FSaM8XLc7ZpcppiRVy6Nitq1csTm8b4/c3mxaTTPBPNnhHmpHYYXiyYm4VwaHJydviRZi8igoy6Zm4dLmzT4YYcmY04XkyQj1U2dR6XdaucZyjbRvO6w7v8M63WlltWuT4+yGfadThxKcoP9Tt9z10NLngnKotGi1e7RzYHjjdtnPHLLKS6WyT6uTcaETydtkaPRGUUZ2Hb9Tn48cbcX8lOCPLIovxZ30dw0uLT4oxnFtIxnlZrUWea42e16rHFvg5UYOTE4upWmek6DcMepyTx/KOX9QabHj1d42knG6MYcmVz7atnjcc1xd0WwhmbSWKTv5rohGEpyUIq5SdI9O2fb46TSwUopyZeXlmBjNvOsum1GOMZShSboqyY/H3O99SY4PS4uPGP1nESgnyadoYcnfjtmzVY0U5SjDy26ROWl1MXLlhmoLzJo6j0zpW8s8k4ppQdM7HVYoT0+S0uzllzazkamPh5E1V0wWOc6pN26oz3ixzmow+ZuJ3WDRaXQaKEpRVxVtnXLkmOmZK85emzq/6Gf/pMhKE4XaaPR9JuODUz9vq76Oe9R6GWHNDJCH0S8jHl3lqxbPDmFG1bJrDKXiLfzaRttp2yWuzeVwj3R2mSel0rWFxgmorouXLJdSbqTfvbzeWDLDtxZGMsik0zutVqtFk0uofCHJRas5rasuHHrF7qXCi452y+ErUVJt8YSv8AREIxbb+mTf7Ho0dbtqpOGMytHn0upeRYsUVx/Qxly5T+1qa+7zF43FtSRX2mdT6h/DwzQ4JRk07RytnXG7kpN7qfIVEUPyaXWkow5dpidpo6TYdFgy5XOcoqo+GdQ8OglNYoxxyrpnPLk7brR/8AXmbXV/AU2dtvGyR9uWXAoqu6OMkuDpouGffNxLuDh9H6lbizcbVpHqdRFPlXk7p7NolilWONuJnPmmN1Vkry0iZ2qwww58kE/DMdI6dybVUgPQts2HEsEZZ4rmzRb/oYabUwUIqqMY82OWXbFu5N1zkV9y+UEoGx27bsmty8FFOjq8m2aLHxU4xsmXJJlpn35cB+Vp/Z2ZWs1MdR7bUapU7Or1WyY8mCb07TflI4zJCUJuM4tSTqmJnMg/aXtrInaXlFUZQU1SOp23Z55cccmWFJ/Bto7RtkXwagmY+JFk8OHzSxyncVVoxze7zpNLpM8faaprwjL2vZYaqLyZfymu+THaau3MdITPQ/4HtmWqjHkjm922l6C8iacWXHlxyumtWeWjhjUnxbSZZqtNHT5GlkUim6lGXyQm3N2dEiA0h1+hNRlJpRq2xtraPEZ1ml9N3j5Zs0baTozJem8E1Pg1bRyvJimq4Zp+bI02Z+r0WXTZp4ppJoxIxbfRrcptVQHR7bsktbBymqafQtz2V6GKfJO0Zmc7tLvxtzt0TcFxtGZo9I9TqcWJV9TOgfpiXN8tRFRb8ItzmN1Te/TkKol8HXZfTMlC4Zos5XUYniyvH5adM1hyb9Hn6qyPRn4dFqM0HKGNyNq9izLTvJUbSs6/EkI5zqgJUkmqMrTaSWomop02aucibjF8AonSQ9O54/nnFsxtVsmqwRU1UkT4uP3TbRgWSi03S+TO0u25tXNQjB9/JblNbptrB0bnW7Tm0kHKcVx+5p+NCZSzcXZMSJcXVhT+wptGySQUBA6rwwS/UmuNeUyfGKHcarWCdAM6bekkMiMBgIAHY7ECCGSQiUQzXa+n3D2M3dyMxy0Tzyg8UOd+TC2BqODNyRo8+Tjqskouvrs8nZbyZvNcnSb3knHRxjjdRk+6OIn5Z3tQ1u2yk0rUHSOCknGTjJ2zpweO6N43dQR2HpqTSywapUchXZ12wc5+4ofY3zfx1c76bTL+Eed84xcrrsNyyzw6JzwqPBpqkc1rZSx6/J90zotN/W9vnHmrvwebtsmNvpy24TNLnJuilGTqcftZZwqmmYx7J6d8f2uj9P8nqx79NS1tL4iP09UdTb+EV75KP4qLryjh//AHf/ABxvnL/61mKThJfudtmSe0vk7aicjo9Lm1M4cFatHU7tqceHQPBw4ynGkicnnLFL7rV+m/7bPH5aMPdnOO4yU6krRnenP+ZyO0voMLeXJblNNfbiyzzy2f4XbockVk0C9iXCdJHL6jJrIc8U5SUev2Zk6PcMmKoPw3Zv7w6zT5E4K3DsmuzLzE7q0Gzza1PB/L8G39Q554MeBQm13bNLt3W4Qj8Js2G//UsT+0hlJ8TFZk5TNklkm5ybbf3KDIlFu6RW4Sq+LO7vjZpBEkrYhrtha7XbNZp8Gk9tsvg9v1M+FJS89I4yDkvkuw8/ehKLalyXg45cfuy+Xmsv3bXdduWCc8uL8r+Dcen6WicqbaZZr4cdsnPJ+elQ9gd6dJv4qjlnlbx/6qefTkNTKDz5Wn/fZ0/p3tZTmNZDjqtQpKkpM6z05CsWdtfSqR05rvhiz3i57eoKOvm4mJpsjjmi3bpqjI3jNHLrsjVruqMXSdZYNu0mc5P0N307Le8vPaoXHzxOFvi+nR3m93HbcMoV+RHBSu7ZOKfpPq7nZNZp8ek4ykoySMpYdBqJShUZSkcBjnK6i3+xsNHlniyxePqXIzlx+7Kvd9Gx3TaJYLyY1cDSYp+1NSj+Y9C1rc9vlJrvi7POMiamXjtvtLPLsdgzPJq25020YPqVx/GIyfTfH3XIxfU1fjcf6xsxP5l/tYmwW9zxHS+p6lpMaf8AiOZ2Oax67HJy+VSOk9TJ/hk68djP+bEn7a5XQZuOpxJXcnVnW+oKe1XLv64o4zb+9ZgilfKXR23qRqO2QT8c4jPxyYH9tedfcv0zrPivwpplc3G3RbpaefEn/iR6L6qX09G3bHkzbe44o3cFRots2jN72KeZSUYnS6vUQ0eg5v4gjm4+onxkqZ5MO+yyRq63Nsr1Dq8fsQ0zXbkZ+xJR2uHF3G2ef6vO8+eeWUnJ2d/sdraUnVJSo3yYzHjk/wAku6wNVuvs6p44JUbfXQx6rbJzcU6xuSPPMuZ/i55KvjPwzvU8n8JyT++FukOTHXZpJfbznDXu4+TpcuztN0z6N7bOEHFtpUcS6ttKrCUp38pHe470ktVtJGZoEp6nHF/cw7Vmw0HCOqwPjf10i5eqfZ3+8QhDbH1VJHnUJU06Xk9E3uTyaNwcekedYopumjhwfsqcnt6Pwx5NmjKS69q6NJsuphgz1X9ob5Rji2jHHJLxp0jTbLpPd56mVcedRRymu3Pf3PO422q2nSaubzZFdi12pxaHRy42kjVa/dZ4s/s42rRtsHs7jo0pJNtUyas1v01uXenn7U9Rl54odyl/ud5B49t25fTUuNyRqtm0uOOu1EK7xM2W6aDVavJF45RUEqZ0zstxiTfms7b80c+kU382eb6+EY6rM4zbUpNnpeg0z0+khh+Ujz7d9Bm0uplKc4uM22ODXfkt3qMXFqJRjwb6Z6LtMlLbqb/LE8yxxjySZ6RtCcdtil0qZvqJ4n+0xvl53q3/AFrL/qZ0Hpinq5uUldGh1sZLU5bfyRwZZ4ckZQlT+50yndhr/Cb1dvQNz2iOuknLNx4nN6zYnoorLCbkrMV7jn9xSeWaR2mhzx1el+pWqpnD9fHrd8LuZbeaZJqU5NL5I0jd4dPp47jkhkp4+TVG4Wh2mM2+Fno7okm3GLonBLi6k+3ZtN1xafHkjHFHp/Jj6LTPPkUVG0y78Df+nsGWWbnxax8fNlHqL2o6tQ7coxOlU8G26WMX0qpHC63NPU58spTu30zjx7vJcvo1bJGfsehWfPyyQ6h2jr5alQ1ODApLvwjH27RPS6OUk7c48ka/btLrJaz3s8Ok+jnyWZZZLvWozfUq/qWOviRw2GGSclhgl9Uqb+yPQt8w5c+j4YlcrTNHsW2x9zLlyRTY4su3iqZT9bdJ49t0cIt9myk29Hy67hZzW8YtblyOEY3BVTR0OHm9DGEl9XtcTnlP23/JL5seZ469xOTaayW/9z0ZOOu0TgvnHTPO56XVLOovG43P5O+0mN6PTx9yffFWdeb+1MPq1m2bNl02pcptKEX9Ji+psyllxQUzocOuw5crxKfZzm/bbkeaGphG41TJhb8SWrlrtbP03icNG5yStmJue26vV6pzhVNJG12FVoI/Ks12u3z25y4xvg+yTuvLlpLrtjR6nadVp4y5K1XZo3cJM9P0WbHr9K5+bi7s861ycNTkjxqmejhzuVyl9xjWlWPuVur+Dvtpw/h9Kpz8zSkzh9v034rVY8bjatM77dNStLpVCEF+XiZ5rvKYrjNbrg921MtTq5z8RTqJqTIyW2392Ud9nfWpGsfSPgasa8UJlaZeLPkx9qVGRDUZG+ptOUl4NerZ0ey6B58scso/TExnZMa5XHy7DO1/C5LI/OPpnmmODnLidtvmrhh0axwl3dNHObPpnqdVBf3FfI48X6ccquXuOt2jTR0+leWcfqo3WLJHLpucflGl3HUrDpnji6+mjO2qV7djtXR58/Pn/LrL9HAa/Clq89R+bLdq0C1Woi5puCZPcZTetn4Tk+kdhoscNLpIuUEpcT0ZZawxcp5yrPWdLPHEn8HJeqYy9/DN/ZmZtuonm3OU+VxoxvVcl7mnilbpnPj8cuP+msrvEelZ/wBLqL88VQbzh1XvyyKMuHxRpdo/FPUf0D7Vcj0Oc8eOCU5L4uy8n6eW1metNdtLnj0XLOmujknCOs3SSTtSyXZ2+ujly6ZwwV4s4jaOt1iprtXZeP1nkX6R2utyPS6RKH5kkuji8stTknKcYTlJfod7rcmLFinkyflo1mk12mzZPbtGOO3tt0ufmzy4Ocp5csOf37TPSYuGHbLglaxdHOeodDGEY54UuzZbVq8Oo0Ucc5q0qaZrP9eOOU9SmPjccvHctVDLHJ7i/NbR1muxPV7XKTVvhZqsuyYHn5RmqcrOlyQWPQzx2nWNoZ5Tuw7Vx3528oyRp0ytFueHHNNJ9WVUeoLwXYZvG+SV0VFsJqKaaIVuJbxqJx8tOjb7Brp5NTxnJ/XFun8NHIN92kdn6d0M4RefIqT+5z5NTCpN7Vepl9WKSS5NUzmtNj55YYvLkzd7/q4ZsyjGnw6Mr07oucXqJpNfDJvt4ob7snR6dY9Diw4rqzVeqP8AlcZXrc7ya/FCFXCavsyPUnelTkrSo44zXJhfuty7plPtXJ7POtfiS8uSOx3zNlwYeeOSUjjdsy4sWsxzl4TO1z7jt+RRg5Jyfw0dOWWZ43SY6042W562UE5ZHX2NRkyueRzbts9Entuj1WK7jfw18M4LWaWekzTwyf5fn7nXjyxy8T2vbp0mg3DSY9NHHdTXn9To8mSOTRZJRVp4zzbDbrgvqPR8f07ak/mBx5fGUaxrzCdqUk1VPwdN6cxOWbJO+4wOczXLLkv4kbTZdTPBrHxjJpqnR1ztuHhNS6bXdNXqMOek+KNzt+R6vQc8qpq7/VGVm0uDOuU4ow9dGWHSP2V8V0c5ZZJrVZ8y2/RxmZ44arLGnwU+jpMGuwY/YjhjXi2clPJKUrbMrQcpavEl8s9HJJ2Mzf0dhv6lk0Fp/KPPZvvyd9vSmtuUaPP5J2Y4bZg6T9wt8QUhCOvdWtHYuxDRndDSZYpVZBIlRNowhWMKPS9CNjGIKaBggtBDQBYNBDJxK0TRpK6LbdylpcWSFJ2afNk5TnL7spU6RC7ZmYyW1xmHm10ug3RabFNOKlapGl1EoSm5RVW7MZSojyY7ZLbCcdl9nZv9p1q0nlI50sUmSyWWVrPDcmqztfnWfUTn92bLbdetMmvhnPSduyUZ0XtlmmLx/pjO3HNHNmc18mviwlLkQRY6Y46x06DaNXj02a5q4m5z6nQ6ifKeJM4uE2ndlnvMxeOW7ccuPLd06+O56fDHjjiotPzRz+v1mTVZOc6bV0a/3CLlYnHJ5MeOy+XQbLqoafJKU4/FWY+46nHn1c5xtqzV48jjdOiE5NtNMvZJe47Lcr9nTad6KcHzhG/g2D1el0eBwglLlGjjY5ZLwweVy8smWEyZ+Hkz9NnWHU80kvrOlyz0OpxKWWUW0742cQpdlqyvslw3YXjv0ZeqeL8TWNKrNjq82khoXFOLn0c85q7IylaNabnHfCEgi6ZByFYd9eHU6PFo8ungpPuUu2bKGh0GnyQm53XZxsMriqi66J+/kar3JP8A9nLKb+rz3ju3T7vucc8Hhh+WjH2jWLBk7bqjn3Num2OOTjEnbj26ZuF1/l3uXSaDXZo5bjyRZk1eh2/BkhCSt30vucFHUSi1xkyE80py77s53j9TfhqTL7LNRlWXNKR02l27QvDgze+lLirRyDMvHnnGKqTLcdzW9GW5Jp6Dqo6PNpli5X0jkNy0OLBxlAwXq8jpqbTK55cmVLnNszjhZPabv1mnS6HbtBm0y55VzZmYtq0GLUKduRyWPPlxxTUmkXS12ea/tGS4Zb9r3T7Ok3rcYxxrBjo5nR4I6vUwhlnxg/Jg5Jylf1BDI4U4OmamGo15vl6Nt224NDfDLf7so3LacWszxzSy1UaOPxa7M+nMHr9RKVe5aMfCy7t7Nz7FgmtPqHx74T6bO7l7e46anK7R5vKVTl33Zm4ddlx04zao1lh3WVN6dptu14NCrlNNp2mzT+o9zhnrS4+4QduRpp7nnnCUXN9muyZHPyScV33Wtb2pZk6XvNitdKaZjFuNyUrXlHUvp6HvWaMtqko1dI8+UukZmTW5JwUHJ1RhNwM4YzGM3z9C8nomxyjHa1Fr4aZ53aNlp9ZPHppRUpdk5Me6LLpRqoxhqcqgrjyO8hki9mbtX7dI83cvi7M2OryLF7ak6SGWHdMf8M+YjixKeVQbpcjq9123SQ0KyRjUkjjYzqXns2GbWZ8+LGpTtQNXG/p8k8bavj2XYsjg7XleCq3bbFE0r0zRajDqtJjhJqUnFcrNS/T39YUlPjjvwcrhzTi0lNo238WzKKXOTVHD4dl8VNz6xu971GKGlWKEvsmPYM+NaT2JzSXO0cfqNTPM1yYYs7x+HTHw/wBOmd+duq12x/iNRPJps6Sl9zZaXC9v0jhKaSivzHNaXcM8fplktP5FqtwjlhOLm39jPZldS1dz3Cx6zJj1GecE4qU/9zZx3WcVUsjpnK5c8/noxZZZyVNs3ePGrjt6toc/u6eM5M4TeNZPPqZwdOMfysho9zyYNPwU2avJNSbk/wC8MOLtytLd+Gy0O2ZdbcozSSO70WnyYNMsMn0kcHoNdm01xi/Jtce86hv8zLyYZZJ3SKdXtOeKyZJyUo23Zj7boMGrWaMo3kX5CvVbtqsrnFz+gxNJrMmlyucJeUXty7dJL9deG9/l3XST+qCOk0+Nbfom5O2l2zmob7nXbm7MaWuy6pZeU3xXbOd487+6+G5yY/SVq82Zyz5cn3k6KY5sifcm/wB2RlFSvgqQNJRPRIzpdWTO1BttNnf7bt2PSaeE4L6mjzuOSS8So6XS7zNwhjlklxRz5JlZ4XG69svctLumrzJQa4JeGzRarQanS5Iqaj4t0bRb5kjknxf7WvKNVr9zy552nVr4GEyl1qaS6ra4t6njwqEm6in0jZ7dvEdRlx4vbmrRwvP7l+mzzwZFOEqYy4sbvSS2PSdx1L02Dmmcnod4npp5U6lydoq3Xc56zBGHJHPKRjDikx1kttt3HZ/zJU+8T7OlWVvSLL4fDkeTOVpo6nHvUloMOHrkopMmfDPHbPqstnuo5ddDUa/CpS8S7Oj3fFPU6SsVxdKzz33alzSV3Z0um372Yx923EZ8d3LPoky97VaPRa2Otwz9t0vLbOi3jMoaLIjVS32MmliTo0Gu1+fPOp5PpXwJhblLZ6LZrUdL6Z1N4MmKXmLuJqt323VR1U5wheOXdI1+37lLS5lJ+H5Oohv2CccnNU4i45Y53LGezx26q7Y8M8Gikpri5Wzjdzny1M0pWbvVb28mFrDI5R5JSnyk7ldtnTiwsytv1PF06/07o3jcs8+7MHftdLPnUL6i3aRsNFvGCGjWOCqSRyWozvLlnLy23bEx3yZZWH+FMnZm4Nr1mfA8kMfRhwhbr7no+mUNHolz8OIzzs1pY81lBxk4tU0RrtGVqGpZ5y+LZU2otPydTbabTop6nVRg4rhVyOx1ixbdp2oKk+kkc9su5YdLGfNdv5N5PdtHKUVNp/KR58++5evCd0171XHavPl1M7eOZsti12LTZmssqizb5t00U4ZajHx10cbkn9Tkmu38G5O6WWaY39rt6BPctsn+dWbfT5MM8EZ4l9HweUyytpW/g7Lbd0wY9Djg5OzjnwX6N4536sTds2kjnhyX1802jeR3LRSxr6rXHwjgddn93UynysojkkrqVWdfhSzHabynp6Jos+gll44UuZZuf4Tp5oxcuLps4ratZ+H1Sm2Z2967DqHD25P8tWYvFZyQmf6bv22WwwwNaieNfJrt71GfFPg7UX4ZjbLuP4LJJTn9EjpZarb9W1KSjJIWWcltx3FmrFGxbjnzQ4OFqPyzW6zPGG8wXBRfJORtp63SaW3BJRrqjj9ZqPe1Szcm2XHDeWV1rcS31Hbb6nl0LcPinRye14pz1UWrSTOg27dcGTDDFln9bNhy0ODu1ExN4Y5Y6WyWysH1HKP4CHN/KOS0+ScI8oOv/wDZtN61cc0+EW2kzYbTl0P4PHiyJN38o3jvDjnhNd1arSa7VarNHBjvlatnXa1e1t2V+ZRiURntuHJyXBV2uKNHve548vLHjnKvhIx5zynjTc8OVknkyfTbbJvBKCvKnFM2G0wWTUwXBOSOl9Q48EcOP6UmztctZSE9OInCHXGVldj7UmW4knlTfi0aG92Pap5sy1GfHWKKuJvtz18dLgePHGjZ6bUaN6XC45F1FIxs2m0OefKbjL7Kzz93dluy+Fs8eHn037k3b7bPQNplhht2GEmk0jQbz+BhBrDBc1STRzuPPODdTdHXLH4mM+jE3jt6BDbtK9RHLb58rMzctPgz6accz6OE0Wv1P4jBFZHx5Kzod31aeLjHNbOPw8pnPLUyxkvhyWpxYcWonDFbSf0sIZcjUu30ZOiWF6qHvS8s6p6LapyUljV3dI9GWWtTW2PbE9NOcvetT42qswfUih+JXR0cMuHSRlw4RVXRxG46larUyyfNnPCW8m9N7kmmuxqTkuKPTcai9thFq3wOX27btNqMMZzUXkUvvR12P8NjwRhzXSMc13YuLy/OpRzz+zZ1Xp7QY+E9TJW5eGQ3XbcKjPPBJV9Qtj3HHiTwTdKRrzcPCequ3DcZxz8YOoptP90bDbtS9Vjkskb66KtVt+DUu8WVfmstxwwbfh4qX18rdi67ZJ7Yky7/AD6cbuWn9nV5YpVFyLdDp808+DhVcvJDcc0M+qnN3d9s6Tb9Dp1hxT9xrq/Jq5Xtb1tn7yq26an0lVs86kuLo9P1OLBqMDwzyLizi950Wm0zxvC76fInFl40tnloRJWF9Amzs0AolTbVg1RARbTJyuyCGGawhMLHZ6XpIAAKB0ILAkhAmL5CHQxEhsArBCGwDsREbErHZGwBpOwuyFjCaSsCDY0VdJWTspskhtLim2CbIDQTSbYeFYifVBn0i2IGhUFSbBMgANJMTYhMiwAuhiOOWSmSXZWWKjHclO6CxdDpDbIvsnFtMikgQ2VNytsSf2HQn0TbJp0W81RT5VosxNco8lcb7CWSrVJcWmrsp5UZ+WenWLjDHUma5x768jaSQPtkqIyTQfA2qxSp+BORV9x0xs1DC2IdNFU7B0xU6ENmkiUXTIJ+UJNNlTSyUuTCl0Rlx5deCTKgRNzpURjVq2OSXJoiI+QbZZjpr9BTSUbRNiu6E5Nj7ZJQXyaXwgTQnEikzJ7XRmottr4ZGxUIm01BbosxceSbZXQcXHtg0yJZO5UU3T6ZWgspMVs5uS7KRjUW2Vr0I2kOwjCbdJBLplQ+TXyXY5pdyMYtlHilbCWQZJL4IJ00LwJK2VZJpZJuxcpLw2OcXETTSImlinSpOrIOVkCYNaCt10y9ckugwZFCXatCyzvJcPBWb5EFLLOrUa+WOavq1aK/rXbB/e+wiLumFuhWBGj5si2NkaBJEq8E03RBDCVPGm+X2SJZJRrptspUmn0Rcm7C6T5t/LG2yEUxtg1BdMug5OqZQl9Ra/ppp0Es2JqSCKj8shKbl8kb6KaXOVWosqXQhtBdaX4s7hL7o3uv3d6jSxxJcTnF0Sk2ZuM9pUPgG+kKydriVTi0DnU1JeUQEVNTayeRtsg30iteSYXtkF2WRm0mrZWF0U1schWPojYWSLYz4jc3KrZUhhLjNrFNxkTjllF3ZjeWSTIXGLcmVz6bbSZByI32NoGpNLYTpprpotlnnO3Kb/azERFuzNTs2vnlbrscM0lKL+xjProkmiL2TXpsPelOTjG2jEnK5MeGfCakhN92kGdSX06DYtRg00pSy+W+ire9ctXPjGfUWaJyf3INtsnbN7am03Q42mVFsJV2bLGVj1WWH950g/F5L+l0n8/JjciLdjTOksmWc5W3bryVpquwVtkfDdhvTJx5Fj8E8moyTSi5NpPpGGn2WvwGbjqoqb5WvKMpa3O6amzEEmNLccb9Gyz54zjFuTbrx9jBc0+/kiRIkxkZOPU5sd8JtGTHX6iPfudmCk6KmZsJNtll3DUTg4PK6flGHjyuMr8FAWNNdraQ1uWN1LyQy6nUSi4znyNcmScr8sJ2pObZlYNXkxVH3Hx+xgfJJlXTZT1ufxzkkYmXLkydSfRQmSh3JWDt0jxfgbSj8MvfFSVU0LLKPwgsqpyTin8giFUSBT4ioLY7B5YBJCEn2el6TdAHQgGIQwGiRECIkBF2FlNGyLAApgAwEIYEEWNMQFVIOhfABEgI2HYNJsfwQJIM2JxTl0jrtPsmHJooZJtXLyjlMd2jucuVYttpS8ROXJbNa+7jnfLXz2fRxh3lV2c/rMWPHqMkMa+leHd2Hu5PibIQxyzZOKfbNTu+tTG361i12B0ePY43B5MvEnqtjcMLyQbkY7592+9zVCcTY6LR/icyxpdl247bl0UE+JLyLMvLTK0No3mh2h6vB7/JpGqljlzlGn0ce7dXagaRs9RtmfTY4zl3FqzXqwbEYuRvNq2uWr5ymqgmarDFyyQilbs9Hglptu5NJUjOds1pne2o/lrBKT45TQavbJ6Ru4/Qvlmww7nl/EW5OpPwdPuWOGfb5SyRX5bOduUslqbmq4HT6PNq51A6V+mNMowc8suZL0zBQlnmoD3bWanBlfG6b6aLlll3aMbJNsLX7BmwYueGpqrOWUX2z1HRZVPb1lnT5QdpnnmXGp6rLCEOufSRvDK+dlqnFp8macYwTbZ0uP0zNJylN242kT2bRxepnHJBx4xuztOcHGfB3xizHJnfokeR54TxzeOdcounQYMDyzjFF+4R46vNfnmzf7PPT4cLlJRc/Ns7b/TtGL/L+dYHkck1Rz0klaPVIyjk0OaS+Yujy/MlHLkXwpMxxZW7i1k6Lb8uqk4xTNy/S2qX/dUjM9ML6shnbtrMumz/AEZailckS5Zd3bD6bc9qvT2o0+BzWaMqOdkqbX2Om1W85s2OUOapnOSS5dG8d/U3EIqT7SIpN3XwXxyyjGUY+GUt9NHRQSRWnZKyliXfhG+0O25c+Pkl2aODado7DDu2PDpccKUZcasznvxpnwo/l3PHBklHLGUmaDPpZ4fpydS+x1Wh3LLmz8OLol6jwQhHT5eCt2mzjMspnq/U+m44qqNjotBqddJKCpMw0l//AMPS9s0sdLpocmuckb5M+yGPlw2u2rPoEpTdowFieTpHe+pIx/hzlXho5Db4Qlqca/VMxjnlcds3xkt/gGvcYOMU7QT2HcIR/LBs7bcc+TTaWM4tJKrZpJ77jjFJwVrwzMzzy9NbxjjssJwnKMotSi6aHCGTUUo+fgs1WZ58+TLVOUmzpNhhp/ZeXLGK4Po67smyataXBs2uyYpScEqTuzWPDOCfLynTPWseXHm0s546cadHmGrmp58nHxyJxZ3K1cvDFhilN8UuzdabY9Xllb+hfHIz/T2CGTUZXOCdQTibTcd0WlzRxeeuxnnlMrIzLNbrmNTter0vmPT+zNNJNN2eo4c0dfpHKlTTVnEz0eOeulig++aJjy273FvjzGDg0GqzSXDDLj9zN1GzavDjhN4W0drk4bdgUY/bsp0O5Q1UpR8pMfEy9yeE8POZwUZU+mgpdUdF6l0axajT5YQqMk7ObbdnbHLumxc4uTVEZRko+eroiptN02Jyl8soj4J+aBY5yVpdD4yTSuhtKVP4BWmmWywzira+SKi7p9dl2m1mSdpOilsuWHI6VEZYpwrkqRNopaJcZVdE4xbkkvuWtTwqSfyhtdsamFfqXRi2rSZB3dUNm6rCiziQUX9hs2sjC4SlaVFUY2myck15HCExsLriUsslyEkn5Ks8Iq7JyXwyzHHi+SZKbtu49k2KeDq6I2ZKnKMXj+JMpaTJ3CCZK7DgCiJkXRq0J/oNsHFl2iKiDJXcUCjfZqLtB3QXUSXmwnVRJabVIsQODrwNdR8Da2oS7Yqtkn38CXTG1+gaqkCRKVWhrv4DO/CtpiotoiFlQtolG35H0SJstRaothjtRlJ/TYmmQt+G+gnsqXZLHxU4tiMjBjhkyY4zXyL6VVmg1ka8FDVHbbrteDHt2PNVUlZx0ocTGOUyi+laYwQ/lGgIiyaauiEu2Nk9gbTMvR6eGXPjjPw5I3O8bVDSY4zxjum9DnFdEfBYqoJR65GrUh4pJSTasszyx5JOUI8TGRNKr6IIJKLDkRm3JkaK1r7rLFZFWA2aWx4O3JmTBY+EXxRhFkG+E0mZppbOcU6RQ1b6JKNvzQLqTQT0j32iLRa0lLyKgSq49oXaLWoqP2dk8coWnJWrDShMLbLZKLlJx8N+BP4QRAlRD5smpAoS7C3Y7BMInJKMY0QtfYk+0R8sIm6XgjS+4IdP4IjXsPgQz1PWGAOwAQDGAkxiAIB10KhgRsAEFBKyKRIB10IYghADAKAAKYDSAQwGNCV2SoIsh007PRccMX8PTyK018nnWO/KO8zc47PB15j2cOb+3/bz8ntiY9Htb5VHvi32znssY4tS3j8Lwyr3Z/EmbHaMGPVayGPL2qs3f0y3bn5Nx1mseKS5RVdHT6LFnlo5Y83ngzD3PUPSz4pL7Iz9qzZs2lnkyeOLPLyXclXG+XG4cv4fcHa7jI7OFbnpoycPNnC6mDnqsnVOU6PQNrxvBpMVv46M8nqV0jD1mWG2ba8eOk3ao4jDnccrnJW7Ow9Q6aWbSQyQi5VM4hIYelrptw3WGo0CwqPdHKp00mXvHlUHKUZJfqipG9aN+9s3Q8vxGOS+JHfbzyWhlwVtQOB0c0s+H7KaPQ9dLnop154nPk94k+rzuGSP0uadX8Houdxe3SSd3jPOceNuePHJPuVWei6msO2tP4h0OX3iz9K5vZMuZZZQj8dM67LpsGSnOKkabYsUI4s+Tj+Y1Wr3bP7+eEIdxlSMWW5XSS6kb3cPew6afsxvrwcTp1knruK/M5d/ozu9vzPVYUpLqvJz+gxQju87kqUy4+Nrfcb6eTDoNIoSvlJ+S3acvvafn97Ya7Dg1CccrUldmRo8WLDgWPF+Uxf2r9XnO4zvW6i/iRj4pd8HdPzR0O/6PDjayRa5t9nMwlU1E9eN3jGbPb0fb/8AptR/LTPOczvPnVf9xno+2VHa+Pl07PPNT1mmk/7zOXF+7Nb9HSendTh0/v8AN0b3XYNFq1U8sVJ/ZnnuKbipIs/FZYJNd0avHbbZTf0dJq/T0Fic8GRviraOTkkr/RnpezZp6jRp5VTPPNe4/jc6hGo820Tjyu8pfotnrTDRL2sjVrHJp/KVh7lKuK8nWbXuWDFp1F44M622Qck8OaKt4pr/ANEErO/zbroXiyLhHk10mjg2m5NtV2xjbfcXY48aLOV0mQl5T/Uz9Dosmr1OOPFvH80W2SMe9N5sOHLmzqXGlHpsy/UueMvbwKvuzaKOm2vTy9r6er7Zwup1D1Oolln3KTOGM7uTZbqaZuyaN6nVttUoHTbnrlGeHCuny8RLNiwY4aG6XOUnchZdthPO8rdyXSMcllzp6x8Jb5x/h3y2qOK0VLV4byOP1fB6BrdMs2mcHJrwrPPdXi9jVZca8RfTNcerjYzl7leha+On1enjilJODq0maLVbGvYvTyqmc69VldfXJUjq9j1ks8XCck6RO3LjnirLMr5ji9Rhnhk00LFnnBVyfE3nqWEYavHx+YnOQ8eDvhe6S0sj0rau9s/RxdHA6n+3y1X5md1sycNoxL5qRwuqSWbM4t1zZz4f3Z/7M/7W62XPHBmUnS5dNnR63bcWt7UUrXn5NFsW2wzL35puvF9pG21W6LBm9pujPJ5zuvZjqTyy+OPbtC8abajF0c1tkXPdFNu0zp8efBrtPlh5Ti4ujnNFgho94x405NGMfWS2+mR6nlNfh4Gg0GfJi1eJRdKUlZ0HqeNwxZP1Od26PPV44s7cf8VYv7nUep4Kelx5b6gzgU7+D0P1Fw/AR6TR554LwfsbOvsW44SbXSZSn2XwnR2o7bbNLp9bt8pOK5I5taKf454Om/c/2ib/ANO6qKvAkvlmfDQxlu087XlWjy3K45ZSlndIv1O34vwvCOONKJy236GGo3FJ3UJXXwzvXKGRyj5+GjS6HSLBuGafHpXxMY8l7aWeYwN3x4sep0TWNLujI3DQ4p6JTio9/Brd81F6uEYNcYq2b7ROWq0K8VVG/MwxrO93JoNm26M8/wBatRZlbxo8WFRnGBtNtxLD7zn1Ky/X4o6vTcft2mS53vn2JP0tDs+3487nkf5ULBpNLLc8qcE49cYm42vFHRaCbk+zn9Jqq3FeH9RZbbmXxMVO/wClxYM8ZQjXI2m07Thnp1mklLk7Vm23zTQyaPk4K4tNMu0cceHTaf4uCM/FtwmvbWv1OG3TSrDqJQafbtUjoY7dp1tym8a58E7Ld2wOefBS8zLd1lKOi4p1cSzO3TPrbgskILK0n0Ze36THn1UFJWr8GFJyvwbLar/HaZfPM9GXjC/6SV1b2LSxinOEevgultehzxqMFaJb3OWLDFxflmm2LPllqssHJv5PLO+4d23Tc3rTIw7Jp9O5SyqLXK4t/Bl5tp0+bT5nCKU+LpowPUOeePjhXma5Gw2DUSz6bLfw6GXfMJlv2ss3pze3aCM9weHIrSiWb1tuPR5McsSqE2X6jN+E3r7R6NvvWB59I3Fv7o1LZcbXLxZXM7XtsNXqamn7aXZdrduxYdZixY11M32yf0Gkba8xNPn1sY7jibSfGRruyuV+2kyupGyybVoMOKKmrZrNVtuB43kxyVxV9HT6/BDV4IqMqtppo4vW4NTpY5OUpcG/I48rb7bz+nhLZdrWsz5Hkf0I3D9O6d51Nt0n0in0q4rNqF88C/dtdlwZJJTpsmVz+JZKss7dtLuOj/C6pYcLtTM/SbDB4VLUSq/JVt8nq9wwTnLlSZ0muw6jJHhj6sW5S6Tx7aufp7TTg3gmcnn0bwZZY5rtM7fbdJq9JnWPJK8fZg7/AIIS1WCcU3bqi4Z3erdzRfW/TV7bsz1Tc5tcfg2T9O4r6yM3eXLDQ7epJJy4HGy3XVWu7Rccs87bEtk0wtXpY6bNOD7u6MVQi4SuXfwZGr1E9Rk9yXmqMVeTvEWYdNkzS4w8nSYPTOR4YTzZeLfdGPsCjPWJfMVatHVbjk1KxL24Nuzhnle6SNT1uucyennwySxT5UukcxPG4SmpKnF00ehbWtbLLL31UDRb5iwx3FvGkr7kOPO91l+yW6m2v0Oy5tdBZE3GBvcWwOOfFKGTlBfn/U28H+G2uPFdUkjRYN0nDUpOXzRnuzzmWl3JpvN5S/hWS/g43RbdLWSSTXFLtnZ7209tk/KdGh9NX784tGcLZx5X/K27yjnNfoZaLN7UzYbZtktfinODS4dGf6np6rGvvAz/AErKPsZ4r7nS5X4cyXxvTjtVpp4cs4tVxdGJSZv9771ufv5s0SS+x0l3Ikvtdh5yy41C+XJUdBu0dVCEY6iXJq6s0ujqOqwNSr6ztvUahPTY3NK420Yyus8Yn0rktDtmXXKbxvqJn4vT+bKpOUq4vpNmy9NPH/SqPgyNz3J6fK4Y3TRLllc7I1NSbaDUbDqdNB5LjKKTbNNSkvP/AKPS9Bmx67SRnNdOJ55rsUcOpzwVUpui4ZW5WUrBfHsh1aB+RM7LIn9JGiTx1ijNStt1xIx8q0NiK7LoOu15G2n8IgiJai335HdhSEFHYJjoh2BNxbp2RX5h2yzG4qdyVoohdX0InOnLrwRqKarsBNMajZOSTRBRsibC8DQkSXQKl0RQPwW4scHCblKqXQQk0FkEOyI14rBDo9T1mBEYQwGJugEAIApgIGACAfRADIgUN2HYiQEQ+QYAABQyBDQMEBJMmVthyJtmxdDyjp826Y5aCGn/AE7OS5D5P7nPOy6Yy47l9V/JWZ+3ax6bNzXZqlIcZU7M5ZS+EuHiu6za7Q5IJzim/izNw7npMeCUV0lFnnnuNqrZJZpfdnK4Y36sTDKNxp82Ge5LJk/slZudz3eCxRx4LSj9jjlOr7Dk38jsi6sd3oNx0+bTcc19r5OVzRh+NbX5ORhRySjCkxObsTGRLuux3LU6OW3qCdT4HE2kXZs839N2vkxGyyabxlq3FKpp/Z2dzte7Y8mJY87SRwUTIhNxTV9C4ymc+z0COm25ZnlqPL7mBvu4QliWHHJnLfjM1VzZTPNOajcm2ZnH53Wb5dVsmvjhUsWaaUKuLNnnx6DI3meSMbpdHARm0WvUzSiuTpMvw5ve2NZenfR1mj0GB8Jpyuoo43NrJrU5ZwqpMxs2qnNJN9LwYVtsswkWY2+23/iWfjSmlZ12y6uL0zc8q+k89XgzcWqWLDKCXkuWEsNaZu8ar3tS4Qnf7F+g0GCUFLJKpWaSea3dKycNXmgq5urGvGovn7PTMWLBjwe1Ga48TjdZtmCP4nLDM+V2kYH4/LXcmY+XU5MkabdGMcLLfKXL7R0Gz4dNlw6iM1FPik7L8eyaKamlk8PqjmMWonjTqRZHWZoSbUzVxv3Tf3jvp6vFotGq6aied5ciyZJZHFXJ9luXWZciqT6MNtUhjj27XzRVy8oduN8X8lbZJM0uqs5ObVshNfN2xWgKJwi3V+T0XaILHooXSPOE6Njj3HNjhUH4MZY3KJ6rsdbt0dZKLllaNHrdqx6aM5PKnVUjA/iOd9uZi6nXZcycZTbLjhlPO2L+r1Gdi3TLhjxXSUrRk6bdtQ53LIqbOblMcJ14N3DGr25ael7nrI4dC3CfbXRxmnS1OpvNLy+zHy67PlxqM5tox8WeWOXKEqZyx4+2Vm7tdTl2HHOTlHM4o2Wk0uHQw/O5NI5P+LamuHukMm4aiUXcydmV91rcn0XbzrI6nVdL4K9u22Wru58KZq3JuTZmabX59PcYPqXk322TUXz9no+l0vsaX21mfjyzktXs844tRk923F2jGjvOeK8lGbdMuTFxnJtMxhx5Y23Zcpl9HQ7BlnwlBySKdbtWXPq8mRZFUjmMGqlhy81KXiqs2X8Yy0qu3+pbhd2xPpquv02n02ixNRyPlXyc/k1ONblDNaaqmanLuGadf0hgOf1OTfb+TOPHZvaW79O71+lW5aeHCbVO6MfQbOsGo9yaT4xNLpN2z4opLL18pjz73nfKMHQnHnJrfhdxsfUWri4Y8cZHFMy8+Z5GYSO2GPZNNTzupE4/BChro2tdDtDhi1eKV0ehtdc0l4bPIsWWcJ2pNHSY921Tw1HIl1R5+TiuVljHd2eKz9JrpQ3OUbtSdM6fNBQxZsl19LPMI6uePO8n96za596zzxShfUl2iZcN3LKky17a3WZFmyzyfDOj9O5uMHhs5GeS6SRl6LVy0uTmdc8d4aT073XSWHTZJV8O2Y+0545sEoudnOavd82fFki1Ri7dr56VvjRwnHe1e7y63eZRxaPgpVyOFx5niyqUfh+TZbvrsmo9tWqSNEpHTDDtx1TLzdx6VpMz1mFSyOyjds7xQxRh0kzmds3SemuNtxoNx3GeplHuNGJxWZf4O7x/l3WFw1ODFk4/3Uc9vuqpe14KNHvjx4o4m05Gi1msWfO8kldsYcVmVt9Fy3P8spbVnnpvfX2sp2uLWv082+uVM2OHeFi0vtUanDqEtTzS6U7R11bLKzbJqx2G/tvTLrpM1OyZK1y/WIbhua1Wm4caNboNYtPqIzSv4MTCzC4lz/U2/qOvxeGrv2zJ9MuUcGqjX/cNNuOrlrZQnaXHxRdtO5rTwzwcaTn5M3C3jk+y439VqnfF/X2n5ikzqtuzx1miT/8ARxG6apanWc0/ijP2Xcfwjywn3CrSNZ4W8eOvay+bt0usrRaOUvCOCfPNNry5HS71uGPNiWPHOzmdNkhHPCc/CZePGzHdZy81u8O5a7S1D2LilXZ0ueMNbocnONN4rRrMu6YG+UMcW67KdXvK/D1ih3JGOy2yyaWZ4zxvbG9PNLVZI3b9pkN9Unkjk+EY+267Bp888tPkotNC3jWQztKCqNeDcx/7Nn00lsuWMNZhk4XZ126aueli5xT4/J51ps0sWWEk64nc6TdMGfGoZWronJhblMtLLrc21C33LkinGElbox8+5aj3YLLGom/efQ4GqhF14Od3jUYs+bFLGkui4yfil+/c63Ucc23JxSlyx2jztJuTjTtOqOv2vXw/CrFl8JeTI/4dfKHC/Luu2jOG8NzRfLhsicGlN02WLBlrqEv9vubHd82PNnUoQinVHQafWaSe3Y1NLnTidbldT9JNVrPT0ow1qTVykjo913DLo+EljtNnEaXUezqE0qpuqOterwa3BCOdqSOOeH65bDuutRrpeom2lFM1Wt1az5ozcakdAtLtenSyPi5yVeTmtynh/EOWP8qdnTDXnUZst1uu01sXl2jjiXnEcJpeWTPjhUm+StnUbVr8eTTLFkdRMtR0GPJ7kIRU78nPHeHdG9SyJa6Ev4TOPzxXk1HpyThnnCfmjabtnxZtvn9S7aVHJbdqZ6fV45f3XSmJjbx5LubjbeooJ6vC1bbi6Nh6Yhkx4Mrmq5SZs8i0OshCc3Gl2rZfiyaaHWOcUjG72dunTXnbiN9pa/KuPwrZrIYZzxyycXwj8mfvM45NdkkpPjVHT6fJpHtsFPjbxVR23ZjixJLa4rDHjnwyu1zR2fqRS/DwdKrpnGY1GOZQjJ9TXk63fs6loITU0yZS9+FT6WKPTK/tEa3e28e45e7tmbsGeGNZFL81WazeZ4p66co99eS4y/Epf2ut2HitBCndI4rdf+ezujptg1EVp5wbpI5jc8l6vUfblSJhNZ5LvcjVtojY2wVWrOrcThOpWwk02VsFRKJtkbEwYJE1IV9oiidJFCkRBlihcevIDUHxuiBLnk9tx8IUI8nRUJiVWTcSNASTipK0OTj8Ala8FTuyE8pUAJ/csjw5OwIIkpMimAFjZEBpdEZa8BiPU9ZANIbQNldAIdgMKFY0ELpMTJNWILC8ggEAwGCQAAxAIAIktVJDIhbMWiXYmwtURM3PRIaBWCHRjutCAkBm7QIfYok6MpUSdMVJErNM2mF0QdiCaWcwtsjQA1CbYh0MjQRPsjdD5DbNILCxFDtoLENdooTY1Qmhoomm6YkxuqVeRNfSEF2NMq7CzK9q7kx2Uol2EuKywUn8ioH0VkWyXwQJJgOS6Ipicmw7Bo7GQ+SQNJDsko/S39iq7ZUSQMimDtml+pDT8CfSGl0gp2xpkWLwRNRapC5OyAMJpdDj8k5yXXExh2wnalykSVtMrtmRjyyx8vD5KgWKX0SUm6RGQQ8g14OxqQ5Q4q78kEDUStr5H21dkXSJp/Q0vugiuyKsfkGkTbSSGQQWXaaTRYskkqsrjDx2DXGTCWSpp/ck5dFQmxtnt3Ur7Rm48fOqXyYvCsan+ollnFJxZKWbZufE1fGRhXRKeabRj26Bjiuc20VoBJMNSSLFJIHP4+CsjZTti+MgbtlatA27Ca8rflWTT49xKE2SlJhLinKc2/IlNxkmiuwbYJitlmlVE55McoRaX1LyYt2qoQa7Ym5Nu/kcZy5XbK7sadFNePS+WW/JX0rZG7JOqKmtL4Td1dIayOMnRjSl2xJ9hOxbz9ubkm7FLIpJIql5BNGWtLF97LVllHuMuzGfkmvBUuLMeWbSpmNOTbK+bT6IuTbCTDTMwZpY1+Zlj1Ekr5dmv5NMi5uiF491kTyN02Ec8lXb6Koty6YpR49ML2z1pZ7kr6JrPJfJRETaQO3G/RlPUyf7kObk7kVKSBuxs7JPUX487xzUk6ovesyVJOTowLE2Q7IzJ6mfGinnZRyARZhIzvxE+NWhrXZUmlKrVGDYNop2rJTk58nJsujqMke1IxCyEFJT78ILcYbk+TkpU2Xz1WXJheOUrTaMAmpAuLIxzlBpp0SyTc/q+Sgi5UXwnbusrHnnCqlRTkk5Nsrsd0S6JjqoWNCfbGZbLwyX0kbY403TQCYyU+KdR8UQSookOyNgrYQ6TGm18ioXyBJkoxk/BWOMn9waSGkRolGipRbRD5dsmyDSIRGN2W8LfTKi2EnEi0kq6Y7oyscXmb6MSXlr7BAqb7ZNddFZJArDENDPS7kwQwATVECT7QqCwUSBIYNkxDIggYkO0IqmA10IAsQIZm0AgA45ZKEAB8me4AcWwY+0jO9oSAl5QgGnYMaRJlZ2rTJgAKQxdgA7EAOwJ/CEK7oCIbFYMEAwaG6FdARRNER2wUNgNdhQgOx+BWOrZpBFX2TcunRFVfYqVughU2HBko8fklZktqNUCYNqxAS5oalaqiFeRGjUWCIFgQrGMEEQJpCYWBYrppfJFxpArsUptsJ5CChIdllUxpi+AKhslxhx892Q8j8IIj5dIbATCgQWgphSJKQqEF9pN2EWkJAo2yIlOcpdfAlJUlROUaRV4B4sTkux/BBNoly6CG/0EKxUF0ZOMajbZXQdtUBepJpIjJJMr7Q7ZWdGRF2y9Y3xugvpFNtEOxu0Om4qSIiPdAyTXSIfIVLuhOUuuwbFaKSHYhWW8PoUvmyHpFyqqFyYmx+Whs1E+6sUndA59cSDbCaOxCD7FaMbFQBDoshHrslii8n0r4G51YRCXBLryV/BP21KmpBOPFtJ2iqgMiNEDq6L80I43S7teSnwiMpWRAxJiJIKE0xtJMjVByouzQYiaqTSIfPQ2sTxZHiyKSStfcty5Fkm5vy3ZjuhddE2e1twSTSI2pNFdKy7FJY5ckrIWJSSgRaTXkMk+cm2iAZ0GL4oYmGgBGmFhdHaJcbRFL5sl8FlSpxUY3bIqdN0RdiFoJOwpjSj8hZNqQPyS+LEBauMr+HRTYVJEaBIfIl0RoYFsOLfZESaQUGQyIwClaJRFKPfRJXTBUrVEWldAi/Jwk1xVUgjHSJKNFlom3CTVDZapaQjNy4McIprJbZijaICZbZGTj5KSqwJJKhquwuzhkcSbipu4lSRfa4MiVW4JK1KyI7YurQRiCJtED0vRDGIACgJXSMjR6darUY8V1yfkG2MBla/Tx0mqngjPlStsxLECqxUOxlVAEBKgpUAAYyy0BUgGI4ZZWhUAfIUYAwVAICTQ4+KAHZUDaF2OrCqNQSXSGyNggmjAYuMm+gAdCV2N2VEXYDYmRTGEfFkuiJUASRKkMGyaQkMBpAAfYLsaDQyNjXgaAArbHfwXQYhodBEaRdBwSlaIf8Aog2ZPY8j+BF8Ixd2IVjkga+w0aLSQxiTCATskCQNknfkAa7C6QCtkoRtNkPJNdIFFBQB8hE0iIyMn2VAO2iIBpKxNoQ6QTwGulTEhsIpyC/QrbGWLE26uitJ3QQ/ig8C7VgA2yI6GlYPERJJE+BFxaCbCaHJdEKHfQC7AlQFNkInSoiDYZNZpKNEGAVJycu2iNDsAgSasbViVjAjQ6QVYqAQ3KfixhFIhsmulYEprpOyDVBYAYwaARJEGh22BOXkiN9CKieOUoNNMJN32Q+xPJPnJN/YCPJgu+2yI7aaCtjk27JhjGWS4qauJgSVNoyMmt1OaEI5Mjko+DFdk8/VDd0RYxBYEiTVfA4yp2Wtc1yGk2xuw+Scl2CdNdBdoW1JB8kpfmZEKk0Qpk0+icXFeSIposSQgsBUCGn9woBsiO2FARfgGoqqGRoKnGEpRcqdIRZDNwhKPwym7Avte1+qKhJDIBDXG/qIsS+QMibhw6KCd9EV0VDfT7ZGkPyxgRCiaVlb8gTVWX5eLUXasx0wbvyA6ChWSSb7AFy+B/DTJdR7K5TGwRlT8WPtMSJrivkmxKUXdkVEs5KRXbuvgJQk76fbJyjPG+M12Rl0/pCUpTavtlQl5HLsj2h1ysCKY77QuPEbjSsq+Em02F9NCTRD5CLaT+SSilTQRXVtEX97Cq9TPB17cWuu7MXyV+WWRO7vqYwB5BgAFmLK8MuUXUitoQNSnKUpNym22/lkSSEWKLJeRUIlukAdjSQWc7mFTJcbQl5RYqOVqW1AET+kVENotCJka8A2TCkSdUIKQiYjRskTZECoRNIghuSXghd02SUmiFiv9QaHy2ScmIbXQLoh/Ah1RADEMiDtDEwAdDSBEkzTNRYixrorBDSHVfJBeSbiwIdpmTheNcnkV9GMwthdJt+eiadFKbLUlQSxk5NQnDhCCimuzDJNkV2mQhWixTpNFJJEWyCyV9kaH38oCTQkFhZWVihKXhCdoSk14Y32ERRY2nGhLoiA1C2KqHFtMAIj8MBlA3RZ9NdkJUicWmgl9INJrogTDku+gIpEhC5BSdl2N1dlJLykgVZObvpiiRaQJhL6RYDfbCgoSCxiAmpBaItCDOocmIlCKb7BpWFTpuJCi7vjSRFp0GVTD4F2BWiZIT8jTooTQDHVg2iNNj4AgHdjaadNEfDtBKcpPt2wmgyFvtDdoRGodN0OSF2RuQB2iSm6aoi5NsJRyK3wdBUkm6LcmJ40myjwkNzlLyAckStEExp0EsSE/KJtqkV3bCRK0R6AFVoKkl4JqDbpF0oY6j7bdkIZvam24300E91XONdEOPVjcuU7HmnfGgqFFkYzUeSuvBUpF2PJKMeLf0gKbum0QqixyalGVEJScm5AIKDyxgCYnQMiQA6YOLSsFIKkl0xxXaAYZSnCKfUiq/ISbEFAmhsHaoKg19xpEun5ClZKbWR4U0//AEQdWWfRRHigyrtAkTeNpWRK0Yh+AQQiQgAdV2R+QGkQCViaFZJIAr6bHyaDoQEW3VDirVkpxSaEnRD6DtMTJNpsGioai66DHBylSEgVrtNpgWONNDkkn0VWx2VNVPy10WK0mVK0zJWSMovl8JhGNaFfRHyTpF2viICGD6Cpxm6psT/eyA0BhJ0STFQ0js9FSBWhDCE2IGqCyKBDAlz0EAC7OVytVIQUOiIaJAqH02GaAoCZGUEgp9WSpkm/or9QbV9XQ3xIfNhZY1pMjQ0MIREkJ0aVC6+QUb7HXyPsi7KqAl2IIfkZFJkkEpDAK7FACYgRBJDSI2TVmUooQ+yFGtpE76FQRuyb+42elY1fdkqF9wbQHV2xEkiqS8ljZD5H/wCjNqUpK+0HhEkuhNfdDYikPwS8Ih5ALJp2RRLoFIYx0mE2gTiRaDtA9xb10QFYFTRjI+Qd0UD7JxQYk3ZKS4pBL9lbCMuLGmiIDYdAOgIsSiTceg6QXaNUSGqZF2EDZJLorJeSLYnSa/UikwRNxXGxtlCmJX8juicmpdhUU0x0ionTKWJURb7Dk0RbsEi2ORpilKTsg1bsCGithYBRqKdgRrsLBpJMmmioE6fYLFjkKxJ18CT+4TQ5E4SV3RX9qJhac3+hXTLGQM7IlHuxStU/giTatFPVV3TtGT+Jk8PtvspSCkVdxG7AY/IEVbGFIKpAFghjXbCEDbLOvuJNW7Im0YyaYT7dk0uTZPi/aYPqxbLIyg+mVeOx1aQa1B9Kboth21ZQ0rLI2gX0yc8IQ4qLd0Y/wJt2+wCH4JcrIt3RJRVBEA6H4oVoKm26oGo10yCZKIQWFoXXwKwobGLyMACrIpAwE1QXSC2x8SVf9p+V0WpcabTpmP2WOUnHhbpBNHKTaK0k2S+AooTCPQIGqYEuN+AUHJtIipcWTUu3TYRX80WQSk6ZFpfArIBrtgyacadlTIsTXY3XwiMUrsYRFsBtAFS49WhJ30Jt/cswxlKVIIV11QjIjGKlKT8lM0ou0VFfyTxxUpqLlRBh4psrSxxlZOGNuTv7MUJpW5FjzKcm0KyouK689h5umR8k4x7tmdqj4VLyJlzStFLVNllEkkRBIQ2MUZe0n1XgrapHodu7aFCYWOmNqiA77C7MWqAQDRyvkLol0Lq/AUTSGFIQFgbHHyAIqJJdkhWK2SsnYeREqoCDQ4pDD5KbKQu68jYV0BEKZKh0F2gPuiSpibVA2SQNDABeBdonwlIVJfuQ3ESdWitJ9loSlxE1QVfyNr4AhVliaQq+SPFmT2ssi5foFWhPpFSSCgUmiS8DpA39yRJFnKPBRrsgmu0kEK18oKQcO7uxW0TYj/eZNC8kqaMlAmLsCmiDpEo3YOSbAj38IBuXYiqsSsa8kV0ZOmWOTlzYZY7Tb6Qq6LJOpNUHSSKm1FDrsyIxV+CEqsHciumSk+vA7RF9hFcW4g5WMXFpWVvwasb6QJDZU+qLkO+iHRJE2ahtukIlIiqboBWkSDgFA3CHGk7IsTZldLnKLINuvPRFInx6CIg2wYiqnCrLfLIY0TlJIMX2g8crIcSz3JMhK3ZV8+iROrRWSsBUNpoPuyKk6KGu2gaafgfIdyYEGhIk2/LIWRqJCBeSziEt0iO2CRPiNpUU0xOLa6HKkQ5GCb9xZwcY20CI22kgs3KG+iDfY7INdoqyJJE0hLI6cUi/Eua8Au1EkkySHldzfxREJTJQS80V2O7QTVTuNlTVSD5E2xtZE1OiXu9NUUWS8BdHBRt8hSquhqVCZD6ojT+AaIfJNtJ2CGqGkismq6JNqiqS4vyDYNejcrYhiCgkuKVsjQeQFy+UwsKHx7C+EhqhMIP5DKLdEbLZuLIJdWRYSGrJVfzQ2l9wBpJDVFTY0+gmlrSr9SKi2K2HMCxwakl12PJBKvqKnJvy/Ac2+rBomJdCV2TpdP5Cgmkmn2VMcLplTXgEaolabGmiL5NBaC0RsrI+46BA2FNtMeKTjNUVoAMp41f5rTMea4vtjjOSffghJ3IpIdDiiFjTCpMaZBsdXRKicUr7Y8ku6j4IVTF0zIsU24NCd0RSMn2nlrh9gKauqYqJpuHRHyysv//Z\";\n}",
  "sourcePath": "/Users/sampathbabu/DApp/contracts/test.sol",
  "compiler": {
    "name": "solc",
    "version": "0.5.16+commit.9c3226ce.Emscripten.clang"
  },
  "schemaVersion": "3.4.6",
  "updatedAt": "2022-05-02T14:01:06.578Z",
  "devdoc": {
    "methods": {}
  },
  "userdoc": {
    "methods": {}
  }
}